{"contracts/utils/LegacyTokenPaymaster.sol":{"LegacyTokenPaymaster":{"abi":[{"inputs":[{"internalType":"address","name":"accountFactory","type":"address"},{"internalType":"string","name":"_symbol","type":"string"},{"internalType":"contract IEntryPoint","name":"_entryPoint","type":"address"}],"stateMutability":"nonpayable","type":"constructor"},{"inputs":[{"internalType":"address","name":"spender","type":"address"},{"internalType":"uint256","name":"allowance","type":"uint256"},{"internalType":"uint256","name":"needed","type":"uint256"}],"name":"ERC20InsufficientAllowance","type":"error"},{"inputs":[{"internalType":"address","name":"sender","type":"address"},{"internalType":"uint256","name":"balance","type":"uint256"},{"internalType":"uint256","name":"needed","type":"uint256"}],"name":"ERC20InsufficientBalance","type":"error"},{"inputs":[{"internalType":"address","name":"approver","type":"address"}],"name":"ERC20InvalidApprover","type":"error"},{"inputs":[{"internalType":"address","name":"receiver","type":"address"}],"name":"ERC20InvalidReceiver","type":"error"},{"inputs":[{"internalType":"address","name":"sender","type":"address"}],"name":"ERC20InvalidSender","type":"error"},{"inputs":[{"internalType":"address","name":"spender","type":"address"}],"name":"ERC20InvalidSpender","type":"error"},{"inputs":[{"internalType":"address","name":"owner","type":"address"}],"name":"OwnableInvalidOwner","type":"error"},{"inputs":[{"internalType":"address","name":"account","type":"address"}],"name":"OwnableUnauthorizedAccount","type":"error"},{"anonymous":false,"inputs":[{"indexed":true,"internalType":"address","name":"owner","type":"address"},{"indexed":true,"internalType":"address","name":"spender","type":"address"},{"indexed":false,"internalType":"uint256","name":"value","type":"uint256"}],"name":"Approval","type":"event"},{"anonymous":false,"inputs":[{"indexed":true,"internalType":"address","name":"previousOwner","type":"address"},{"indexed":true,"internalType":"address","name":"newOwner","type":"address"}],"name":"OwnershipTransferred","type":"event"},{"anonymous":false,"inputs":[{"indexed":true,"internalType":"address","name":"from","type":"address"},{"indexed":true,"internalType":"address","name":"to","type":"address"},{"indexed":false,"internalType":"uint256","name":"value","type":"uint256"}],"name":"Transfer","type":"event"},{"inputs":[],"name":"COST_OF_POST","outputs":[{"internalType":"uint256","name":"","type":"uint256"}],"stateMutability":"view","type":"function"},{"inputs":[{"internalType":"uint32","name":"unstakeDelaySec","type":"uint32"}],"name":"addStake","outputs":[],"stateMutability":"payable","type":"function"},{"inputs":[{"internalType":"address","name":"owner","type":"address"},{"internalType":"address","name":"spender","type":"address"}],"name":"allowance","outputs":[{"internalType":"uint256","name":"","type":"uint256"}],"stateMutability":"view","type":"function"},{"inputs":[{"internalType":"address","name":"spender","type":"address"},{"internalType":"uint256","name":"value","type":"uint256"}],"name":"approve","outputs":[{"internalType":"bool","name":"","type":"bool"}],"stateMutability":"nonpayable","type":"function"},{"inputs":[{"internalType":"address","name":"account","type":"address"}],"name":"balanceOf","outputs":[{"internalType":"uint256","name":"","type":"uint256"}],"stateMutability":"view","type":"function"},{"inputs":[],"name":"decimals","outputs":[{"internalType":"uint8","name":"","type":"uint8"}],"stateMutability":"view","type":"function"},{"inputs":[],"name":"deposit","outputs":[],"stateMutability":"payable","type":"function"},{"inputs":[],"name":"entryPoint","outputs":[{"internalType":"contract IEntryPoint","name":"","type":"address"}],"stateMutability":"view","type":"function"},{"inputs":[],"name":"getDeposit","outputs":[{"internalType":"uint256","name":"","type":"uint256"}],"stateMutability":"view","type":"function"},{"inputs":[{"internalType":"address","name":"recipient","type":"address"},{"internalType":"uint256","name":"amount","type":"uint256"}],"name":"mintTokens","outputs":[],"stateMutability":"nonpayable","type":"function"},{"inputs":[],"name":"name","outputs":[{"internalType":"string","name":"","type":"string"}],"stateMutability":"view","type":"function"},{"inputs":[],"name":"owner","outputs":[{"internalType":"address","name":"","type":"address"}],"stateMutability":"view","type":"function"},{"inputs":[{"internalType":"enum IPaymaster.PostOpMode","name":"mode","type":"uint8"},{"internalType":"bytes","name":"context","type":"bytes"},{"internalType":"uint256","name":"actualGasCost","type":"uint256"}],"name":"postOp","outputs":[],"stateMutability":"nonpayable","type":"function"},{"inputs":[],"name":"renounceOwnership","outputs":[],"stateMutability":"nonpayable","type":"function"},{"inputs":[],"name":"symbol","outputs":[{"internalType":"string","name":"","type":"string"}],"stateMutability":"view","type":"function"},{"inputs":[],"name":"theFactory","outputs":[{"internalType":"address","name":"","type":"address"}],"stateMutability":"view","type":"function"},{"inputs":[],"name":"totalSupply","outputs":[{"internalType":"uint256","name":"","type":"uint256"}],"stateMutability":"view","type":"function"},{"inputs":[{"internalType":"address","name":"to","type":"address"},{"internalType":"uint256","name":"value","type":"uint256"}],"name":"transfer","outputs":[{"internalType":"bool","name":"","type":"bool"}],"stateMutability":"nonpayable","type":"function"},{"inputs":[{"internalType":"address","name":"from","type":"address"},{"internalType":"address","name":"to","type":"address"},{"internalType":"uint256","name":"value","type":"uint256"}],"name":"transferFrom","outputs":[{"internalType":"bool","name":"","type":"bool"}],"stateMutability":"nonpayable","type":"function"},{"inputs":[{"internalType":"address","name":"newOwner","type":"address"}],"name":"transferOwnership","outputs":[],"stateMutability":"nonpayable","type":"function"},{"inputs":[],"name":"unlockStake","outputs":[],"stateMutability":"nonpayable","type":"function"},{"inputs":[{"components":[{"internalType":"address","name":"sender","type":"address"},{"internalType":"uint256","name":"nonce","type":"uint256"},{"internalType":"bytes","name":"initCode","type":"bytes"},{"internalType":"bytes","name":"callData","type":"bytes"},{"internalType":"uint256","name":"callGasLimit","type":"uint256"},{"internalType":"uint256","name":"verificationGasLimit","type":"uint256"},{"internalType":"uint256","name":"preVerificationGas","type":"uint256"},{"internalType":"uint256","name":"maxFeePerGas","type":"uint256"},{"internalType":"uint256","name":"maxPriorityFeePerGas","type":"uint256"},{"internalType":"bytes","name":"paymasterAndData","type":"bytes"},{"internalType":"bytes","name":"signature","type":"bytes"}],"internalType":"struct UserOperation","name":"userOp","type":"tuple"},{"internalType":"bytes32","name":"userOpHash","type":"bytes32"},{"internalType":"uint256","name":"maxCost","type":"uint256"}],"name":"validatePaymasterUserOp","outputs":[{"internalType":"bytes","name":"context","type":"bytes"},{"internalType":"uint256","name":"validationData","type":"uint256"}],"stateMutability":"nonpayable","type":"function"},{"inputs":[{"internalType":"address payable","name":"withdrawAddress","type":"address"}],"name":"withdrawStake","outputs":[],"stateMutability":"nonpayable","type":"function"},{"inputs":[{"internalType":"address payable","name":"withdrawAddress","type":"address"},{"internalType":"uint256","name":"amount","type":"uint256"}],"name":"withdrawTo","outputs":[],"stateMutability":"nonpayable","type":"function"}],"evm":{"bytecode":{"linkReferences":{},"object":"60c06040523480156200001157600080fd5b50604051620033353803806200333583398181016040528101906200003791906200095b565b81828232600073ffffffffffffffffffffffffffffffffffffffff168173ffffffffffffffffffffffffffffffffffffffff1603620000b05760006040517f1e4fbdf7000000000000000000000000000000000000000000000000000000008152600401620000a79190620009e7565b60405180910390fd5b620000c181620001a060201b60201c565b508073ffffffffffffffffffffffffffffffffffffffff1660808173ffffffffffffffffffffffffffffffffffffffff168152505050816004908162000108919062000c4f565b5080600590816200011a919062000c4f565b5050508273ffffffffffffffffffffffffffffffffffffffff1660a08173ffffffffffffffffffffffffffffffffffffffff1681525050620001643060016200026460201b60201c565b6200019730337fffffffffffffffffffffffffffffffffffffffffffffffffffffffffffffffff620002f160201b60201c565b50505062000e0b565b60008060009054906101000a900473ffffffffffffffffffffffffffffffffffffffff169050816000806101000a81548173ffffffffffffffffffffffffffffffffffffffff021916908373ffffffffffffffffffffffffffffffffffffffff1602179055508173ffffffffffffffffffffffffffffffffffffffff168173ffffffffffffffffffffffffffffffffffffffff167f8be0079c531659141344cd1fd0a4f28419497f9722a3daafe3b4186f6b6457e060405160405180910390a35050565b600073ffffffffffffffffffffffffffffffffffffffff168273ffffffffffffffffffffffffffffffffffffffff1603620002d95760006040517fec442f05000000000000000000000000000000000000000000000000000000008152600401620002d09190620009e7565b60405180910390fd5b620002ed600083836200030b60201b60201c565b5050565b6200030683838360016200053e60201b60201c565b505050565b600073ffffffffffffffffffffffffffffffffffffffff168373ffffffffffffffffffffffffffffffffffffffff16036200036157806003600082825462000354919062000d65565b9250508190555062000439565b6000600160008573ffffffffffffffffffffffffffffffffffffffff1673ffffffffffffffffffffffffffffffffffffffff16815260200190815260200160002054905081811015620003f1578381836040517fe450d38c000000000000000000000000000000000000000000000000000000008152600401620003e89392919062000db1565b60405180910390fd5b818103600160008673ffffffffffffffffffffffffffffffffffffffff1673ffffffffffffffffffffffffffffffffffffffff16815260200190815260200160002081905550505b600073ffffffffffffffffffffffffffffffffffffffff168273ffffffffffffffffffffffffffffffffffffffff1603620004845780600360008282540392505081905550620004d2565b80600160008473ffffffffffffffffffffffffffffffffffffffff1673ffffffffffffffffffffffffffffffffffffffff168152602001908152602001600020600082825401925050819055505b8173ffffffffffffffffffffffffffffffffffffffff168373ffffffffffffffffffffffffffffffffffffffff167fddf252ad1be2c89b69c2b068fc378daa952ba7f163c4a11628f55a4df523b3ef8360405162000531919062000dee565b60405180910390a3505050565b600073ffffffffffffffffffffffffffffffffffffffff168473ffffffffffffffffffffffffffffffffffffffff1603620005b35760006040517fe602df05000000000000000000000000000000000000000000000000000000008152600401620005aa9190620009e7565b60405180910390fd5b600073ffffffffffffffffffffffffffffffffffffffff168373ffffffffffffffffffffffffffffffffffffffff1603620006285760006040517f94280d620000000000000000000000000000000000000000000000000000000081526004016200061f9190620009e7565b60405180910390fd5b81600260008673ffffffffffffffffffffffffffffffffffffffff1673ffffffffffffffffffffffffffffffffffffffff16815260200190815260200160002060008573ffffffffffffffffffffffffffffffffffffffff1673ffffffffffffffffffffffffffffffffffffffff16815260200190815260200160002081905550801562000718578273ffffffffffffffffffffffffffffffffffffffff168473ffffffffffffffffffffffffffffffffffffffff167f8c5be1e5ebec7d5bd14f71427d1e84f3dd0314c0f7b2291e5b200ac8c7c3b925846040516200070f919062000dee565b60405180910390a35b50505050565b6000604051905090565b600080fd5b600080fd5b600073ffffffffffffffffffffffffffffffffffffffff82169050919050565b60006200075f8262000732565b9050919050565b620007718162000752565b81146200077d57600080fd5b50565b600081519050620007918162000766565b92915050565b600080fd5b600080fd5b6000601f19601f8301169050919050565b7f4e487b7100000000000000000000000000000000000000000000000000000000600052604160045260246000fd5b620007ec82620007a1565b810181811067ffffffffffffffff821117156200080e576200080d620007b2565b5b80604052505050565b6000620008236200071e565b9050620008318282620007e1565b919050565b600067ffffffffffffffff821115620008545762000853620007b2565b5b6200085f82620007a1565b9050602081019050919050565b60005b838110156200088c5780820151818401526020810190506200086f565b60008484015250505050565b6000620008af620008a98462000836565b62000817565b905082815260208101848484011115620008ce57620008cd6200079c565b5b620008db8482856200086c565b509392505050565b600082601f830112620008fb57620008fa62000797565b5b81516200090d84826020860162000898565b91505092915050565b6000620009238262000752565b9050919050565b620009358162000916565b81146200094157600080fd5b50565b60008151905062000955816200092a565b92915050565b60008060006060848603121562000977576200097662000728565b5b6000620009878682870162000780565b935050602084015167ffffffffffffffff811115620009ab57620009aa6200072d565b5b620009b986828701620008e3565b9250506040620009cc8682870162000944565b9150509250925092565b620009e18162000752565b82525050565b6000602082019050620009fe6000830184620009d6565b92915050565b600081519050919050565b7f4e487b7100000000000000000000000000000000000000000000000000000000600052602260045260246000fd5b6000600282049050600182168062000a5757607f821691505b60208210810362000a6d5762000a6c62000a0f565b5b50919050565b60008190508160005260206000209050919050565b60006020601f8301049050919050565b600082821b905092915050565b60006008830262000ad77fffffffffffffffffffffffffffffffffffffffffffffffffffffffffffffffff8262000a98565b62000ae3868362000a98565b95508019841693508086168417925050509392505050565b6000819050919050565b6000819050919050565b600062000b3062000b2a62000b248462000afb565b62000b05565b62000afb565b9050919050565b6000819050919050565b62000b4c8362000b0f565b62000b6462000b5b8262000b37565b84845462000aa5565b825550505050565b600090565b62000b7b62000b6c565b62000b8881848462000b41565b505050565b5b8181101562000bb05762000ba460008262000b71565b60018101905062000b8e565b5050565b601f82111562000bff5762000bc98162000a73565b62000bd48462000a88565b8101602085101562000be4578190505b62000bfc62000bf38562000a88565b83018262000b8d565b50505b505050565b600082821c905092915050565b600062000c246000198460080262000c04565b1980831691505092915050565b600062000c3f838362000c11565b9150826002028217905092915050565b62000c5a8262000a04565b67ffffffffffffffff81111562000c765762000c75620007b2565b5b62000c82825462000a3e565b62000c8f82828562000bb4565b600060209050601f83116001811462000cc7576000841562000cb2578287015190505b62000cbe858262000c31565b86555062000d2e565b601f19841662000cd78662000a73565b60005b8281101562000d015784890151825560018201915060208501945060208101905062000cda565b8683101562000d21578489015162000d1d601f89168262000c11565b8355505b6001600288020188555050505b505050505050565b7f4e487b7100000000000000000000000000000000000000000000000000000000600052601160045260246000fd5b600062000d728262000afb565b915062000d7f8362000afb565b925082820190508082111562000d9a5762000d9962000d36565b5b92915050565b62000dab8162000afb565b82525050565b600060608201905062000dc86000830186620009d6565b62000dd7602083018562000da0565b62000de6604083018462000da0565b949350505050565b600060208201905062000e05600083018462000da0565b92915050565b60805160a0516124cc62000e69600039600081816108aa015261171901526000818161056d015281816106c30152818161090b01528181610937015281816109c101528181610a5101528181610af00152610f7d01526124cc6000f3fe60806040526004361061014b5760003560e01c80639f5ca221116100b6578063c399ec881161006f578063c399ec8814610461578063d0e30db01461048c578063dd62ed3e14610496578063f0dda65c146104d3578063f2fde38b146104fc578063f465c77e146105255761014b565b80639f5ca22114610365578063a9059cbb14610390578063a9a23409146103cd578063b0d691fe146103f6578063bb9fe6bf14610421578063c23a5cea146104385761014b565b8063313ce56711610108578063313ce5671461026557806370a0823114610290578063715018a6146102cd578063796d4371146102e45780638da5cb5b1461030f57806395d89b411461033a5761014b565b80630396cb601461015057806306fdde031461016c578063095ea7b31461019757806318160ddd146101d4578063205c2878146101ff57806323b872dd14610228575b600080fd5b61016a600480360381019061016591906117ef565b610563565b005b34801561017857600080fd5b506101816105fa565b60405161018e91906118ac565b60405180910390f35b3480156101a357600080fd5b506101be60048036038101906101b99190611962565b61068c565b6040516101cb91906119bd565b60405180910390f35b3480156101e057600080fd5b506101e96106af565b6040516101f691906119e7565b60405180910390f35b34801561020b57600080fd5b5061022660048036038101906102219190611a40565b6106b9565b005b34801561023457600080fd5b5061024f600480360381019061024a9190611a80565b610752565b60405161025c91906119bd565b60405180910390f35b34801561027157600080fd5b5061027a610781565b6040516102879190611aef565b60405180910390f35b34801561029c57600080fd5b506102b760048036038101906102b29190611b0a565b61078a565b6040516102c491906119e7565b60405180910390f35b3480156102d957600080fd5b506102e26107d3565b005b3480156102f057600080fd5b506102f96107e7565b60405161030691906119e7565b60405180910390f35b34801561031b57600080fd5b506103246107ed565b6040516103319190611b46565b60405180910390f35b34801561034657600080fd5b5061034f610816565b60405161035c91906118ac565b60405180910390f35b34801561037157600080fd5b5061037a6108a8565b6040516103879190611b46565b60405180910390f35b34801561039c57600080fd5b506103b760048036038101906103b29190611962565b6108cc565b6040516103c491906119bd565b60405180910390f35b3480156103d957600080fd5b506103f460048036038101906103ef9190611beb565b6108ef565b005b34801561040257600080fd5b5061040b610909565b6040516104189190611cbe565b60405180910390f35b34801561042d57600080fd5b5061043661092d565b005b34801561044457600080fd5b5061045f600480360381019061045a9190611cd9565b6109b7565b005b34801561046d57600080fd5b50610476610a4d565b60405161048391906119e7565b60405180910390f35b610494610aee565b005b3480156104a257600080fd5b506104bd60048036038101906104b89190611d06565b610b7c565b6040516104ca91906119e7565b60405180910390f35b3480156104df57600080fd5b506104fa60048036038101906104f59190611962565b610c03565b005b34801561050857600080fd5b50610523600480360381019061051e9190611b0a565b610c19565b005b34801561053157600080fd5b5061054c60048036038101906105479190611da1565b610c6b565b60405161055a929190611e65565b60405180910390f35b61056b610c8e565b7f000000000000000000000000000000000000000000000000000000000000000073ffffffffffffffffffffffffffffffffffffffff16630396cb6034836040518363ffffffff1660e01b81526004016105c59190611ea4565b6000604051808303818588803b1580156105de57600080fd5b505af11580156105f2573d6000803e3d6000fd5b505050505050565b60606004805461060990611eee565b80601f016020809104026020016040519081016040528092919081815260200182805461063590611eee565b80156106825780601f1061065757610100808354040283529160200191610682565b820191906000526020600020905b81548152906001019060200180831161066557829003601f168201915b5050505050905090565b600080610697610d15565b90506106a4818585610d1d565b600191505092915050565b6000600354905090565b6106c1610c8e565b7f000000000000000000000000000000000000000000000000000000000000000073ffffffffffffffffffffffffffffffffffffffff1663205c287883836040518363ffffffff1660e01b815260040161071c929190611f2e565b600060405180830381600087803b15801561073657600080fd5b505af115801561074a573d6000803e3d6000fd5b505050505050565b60008061075d610d15565b905061076a858285610d2f565b610775858585610dc3565b60019150509392505050565b60006012905090565b6000600160008373ffffffffffffffffffffffffffffffffffffffff1673ffffffffffffffffffffffffffffffffffffffff168152602001908152602001600020549050919050565b6107db610c8e565b6107e56000610eb7565b565b613a9881565b60008060009054906101000a900473ffffffffffffffffffffffffffffffffffffffff16905090565b60606005805461082590611eee565b80601f016020809104026020016040519081016040528092919081815260200182805461085190611eee565b801561089e5780601f106108735761010080835404028352916020019161089e565b820191906000526020600020905b81548152906001019060200180831161088157829003601f168201915b5050505050905090565b7f000000000000000000000000000000000000000000000000000000000000000081565b6000806108d7610d15565b90506108e4818585610dc3565b600191505092915050565b6108f7610f7b565b6109038484848461100b565b50505050565b7f000000000000000000000000000000000000000000000000000000000000000081565b610935610c8e565b7f000000000000000000000000000000000000000000000000000000000000000073ffffffffffffffffffffffffffffffffffffffff1663bb9fe6bf6040518163ffffffff1660e01b8152600401600060405180830381600087803b15801561099d57600080fd5b505af11580156109b1573d6000803e3d6000fd5b50505050565b6109bf610c8e565b7f000000000000000000000000000000000000000000000000000000000000000073ffffffffffffffffffffffffffffffffffffffff1663c23a5cea826040518263ffffffff1660e01b8152600401610a189190611f57565b600060405180830381600087803b158015610a3257600080fd5b505af1158015610a46573d6000803e3d6000fd5b5050505050565b60007f000000000000000000000000000000000000000000000000000000000000000073ffffffffffffffffffffffffffffffffffffffff166370a08231306040518263ffffffff1660e01b8152600401610aa89190611b46565b602060405180830381865afa158015610ac5573d6000803e3d6000fd5b505050506040513d601f19601f82011682018060405250810190610ae99190611f87565b905090565b7f000000000000000000000000000000000000000000000000000000000000000073ffffffffffffffffffffffffffffffffffffffff1663b760faf934306040518363ffffffff1660e01b8152600401610b489190611b46565b6000604051808303818588803b158015610b6157600080fd5b505af1158015610b75573d6000803e3d6000fd5b5050505050565b6000600260008473ffffffffffffffffffffffffffffffffffffffff1673ffffffffffffffffffffffffffffffffffffffff16815260200190815260200160002060008373ffffffffffffffffffffffffffffffffffffffff1673ffffffffffffffffffffffffffffffffffffffff16815260200190815260200160002054905092915050565b610c0b610c8e565b610c15828261104b565b5050565b610c21610c8e565b610c3430610c2d6107ed565b6000610d1d565b610c3d816110cd565b610c6830827fffffffffffffffffffffffffffffffffffffffffffffffffffffffffffffffff610d1d565b50565b60606000610c77610f7b565b610c82858585611153565b91509150935093915050565b610c96610d15565b73ffffffffffffffffffffffffffffffffffffffff16610cb46107ed565b73ffffffffffffffffffffffffffffffffffffffff1614610d1357610cd7610d15565b6040517f118cdaa7000000000000000000000000000000000000000000000000000000008152600401610d0a9190611b46565b60405180910390fd5b565b600033905090565b610d2a83838360016112ce565b505050565b6000610d3b8484610b7c565b90507fffffffffffffffffffffffffffffffffffffffffffffffffffffffffffffffff8114610dbd5781811015610dad578281836040517ffb8f41b2000000000000000000000000000000000000000000000000000000008152600401610da493929190611fb4565b60405180910390fd5b610dbc848484840360006112ce565b5b50505050565b600073ffffffffffffffffffffffffffffffffffffffff168373ffffffffffffffffffffffffffffffffffffffff1603610e355760006040517f96c6fd1e000000000000000000000000000000000000000000000000000000008152600401610e2c9190611b46565b60405180910390fd5b600073ffffffffffffffffffffffffffffffffffffffff168273ffffffffffffffffffffffffffffffffffffffff1603610ea75760006040517fec442f05000000000000000000000000000000000000000000000000000000008152600401610e9e9190611b46565b60405180910390fd5b610eb28383836114a5565b505050565b60008060009054906101000a900473ffffffffffffffffffffffffffffffffffffffff169050816000806101000a81548173ffffffffffffffffffffffffffffffffffffffff021916908373ffffffffffffffffffffffffffffffffffffffff1602179055508173ffffffffffffffffffffffffffffffffffffffff168173ffffffffffffffffffffffffffffffffffffffff167f8be0079c531659141344cd1fd0a4f28419497f9722a3daafe3b4186f6b6457e060405160405180910390a35050565b7f000000000000000000000000000000000000000000000000000000000000000073ffffffffffffffffffffffffffffffffffffffff163373ffffffffffffffffffffffffffffffffffffffff1614611009576040517f08c379a000000000000000000000000000000000000000000000000000000000815260040161100090612037565b60405180910390fd5b565b6000838381019061101c9190611cd9565b90506000611036613a98846110319190612086565b6116cd565b9050611043823083610dc3565b505050505050565b600073ffffffffffffffffffffffffffffffffffffffff168273ffffffffffffffffffffffffffffffffffffffff16036110bd5760006040517fec442f050000000000000000000000000000000000000000000000000000000081526004016110b49190611b46565b60405180910390fd5b6110c9600083836114a5565b5050565b6110d5610c8e565b600073ffffffffffffffffffffffffffffffffffffffff168173ffffffffffffffffffffffffffffffffffffffff16036111475760006040517f1e4fbdf700000000000000000000000000000000000000000000000000000000815260040161113e9190611b46565b60405180910390fd5b61115081610eb7565b50565b6060600080611161846116cd565b9050613a988660a00135116111ab576040517f08c379a00000000000000000000000000000000000000000000000000000000081526004016111a29061212c565b60405180910390fd5b60008680604001906111bd919061215b565b90501461122f576111cd866116e3565b806111e98760000160208101906111e49190611b0a565b61078a565b101561122a576040517f08c379a000000000000000000000000000000000000000000000000000000000815260040161122190612230565b60405180910390fd5b61128d565b8061124b8760000160208101906112469190611b0a565b61078a565b101561128c576040517f08c379a00000000000000000000000000000000000000000000000000000000081526004016112839061229c565b60405180910390fd5b5b8560000160208101906112a09190611b0a565b6040516020016112b09190611b46565b60405160208183030381529060405260009250925050935093915050565b600073ffffffffffffffffffffffffffffffffffffffff168473ffffffffffffffffffffffffffffffffffffffff16036113405760006040517fe602df050000000000000000000000000000000000000000000000000000000081526004016113379190611b46565b60405180910390fd5b600073ffffffffffffffffffffffffffffffffffffffff168373ffffffffffffffffffffffffffffffffffffffff16036113b25760006040517f94280d620000000000000000000000000000000000000000000000000000000081526004016113a99190611b46565b60405180910390fd5b81600260008673ffffffffffffffffffffffffffffffffffffffff1673ffffffffffffffffffffffffffffffffffffffff16815260200190815260200160002060008573ffffffffffffffffffffffffffffffffffffffff1673ffffffffffffffffffffffffffffffffffffffff16815260200190815260200160002081905550801561149f578273ffffffffffffffffffffffffffffffffffffffff168473ffffffffffffffffffffffffffffffffffffffff167f8c5be1e5ebec7d5bd14f71427d1e84f3dd0314c0f7b2291e5b200ac8c7c3b9258460405161149691906119e7565b60405180910390a35b50505050565b600073ffffffffffffffffffffffffffffffffffffffff168373ffffffffffffffffffffffffffffffffffffffff16036114f75780600360008282546114eb9190612086565b925050819055506115cc565b6000600160008573ffffffffffffffffffffffffffffffffffffffff1673ffffffffffffffffffffffffffffffffffffffff16815260200190815260200160002054905081811015611584578381836040517fe450d38c00000000000000000000000000000000000000000000000000000000815260040161157b93929190611fb4565b60405180910390fd5b818103600160008673ffffffffffffffffffffffffffffffffffffffff1673ffffffffffffffffffffffffffffffffffffffff16815260200190815260200160002081905550505b600073ffffffffffffffffffffffffffffffffffffffff168273ffffffffffffffffffffffffffffffffffffffff16036116155780600360008282540392505081905550611663565b80600160008473ffffffffffffffffffffffffffffffffffffffff1673ffffffffffffffffffffffffffffffffffffffff168152602001908152602001600020600082825401925050819055505b8173ffffffffffffffffffffffffffffffffffffffff168373ffffffffffffffffffffffffffffffffffffffff167fddf252ad1be2c89b69c2b068fc378daa952ba7f163c4a11628f55a4df523b3ef836040516116c091906119e7565b60405180910390a3505050565b60006064826116dc91906122eb565b9050919050565b60008180604001906116f5919061215b565b60009060149261170793929190612326565b9061171291906123a5565b60601c90507f000000000000000000000000000000000000000000000000000000000000000073ffffffffffffffffffffffffffffffffffffffff168173ffffffffffffffffffffffffffffffffffffffff16146117a5576040517f08c379a000000000000000000000000000000000000000000000000000000000815260040161179c90612476565b60405180910390fd5b5050565b600080fd5b600080fd5b600063ffffffff82169050919050565b6117cc816117b3565b81146117d757600080fd5b50565b6000813590506117e9816117c3565b92915050565b600060208284031215611805576118046117a9565b5b6000611813848285016117da565b91505092915050565b600081519050919050565b600082825260208201905092915050565b60005b8381101561185657808201518184015260208101905061183b565b60008484015250505050565b6000601f19601f8301169050919050565b600061187e8261181c565b6118888185611827565b9350611898818560208601611838565b6118a181611862565b840191505092915050565b600060208201905081810360008301526118c68184611873565b905092915050565b600073ffffffffffffffffffffffffffffffffffffffff82169050919050565b60006118f9826118ce565b9050919050565b611909816118ee565b811461191457600080fd5b50565b60008135905061192681611900565b92915050565b6000819050919050565b61193f8161192c565b811461194a57600080fd5b50565b60008135905061195c81611936565b92915050565b60008060408385031215611979576119786117a9565b5b600061198785828601611917565b92505060206119988582860161194d565b9150509250929050565b60008115159050919050565b6119b7816119a2565b82525050565b60006020820190506119d260008301846119ae565b92915050565b6119e18161192c565b82525050565b60006020820190506119fc60008301846119d8565b92915050565b6000611a0d826118ce565b9050919050565b611a1d81611a02565b8114611a2857600080fd5b50565b600081359050611a3a81611a14565b92915050565b60008060408385031215611a5757611a566117a9565b5b6000611a6585828601611a2b565b9250506020611a768582860161194d565b9150509250929050565b600080600060608486031215611a9957611a986117a9565b5b6000611aa786828701611917565b9350506020611ab886828701611917565b9250506040611ac98682870161194d565b9150509250925092565b600060ff82169050919050565b611ae981611ad3565b82525050565b6000602082019050611b046000830184611ae0565b92915050565b600060208284031215611b2057611b1f6117a9565b5b6000611b2e84828501611917565b91505092915050565b611b40816118ee565b82525050565b6000602082019050611b5b6000830184611b37565b92915050565b60038110611b6e57600080fd5b50565b600081359050611b8081611b61565b92915050565b600080fd5b600080fd5b600080fd5b60008083601f840112611bab57611baa611b86565b5b8235905067ffffffffffffffff811115611bc857611bc7611b8b565b5b602083019150836001820283011115611be457611be3611b90565b5b9250929050565b60008060008060608587031215611c0557611c046117a9565b5b6000611c1387828801611b71565b945050602085013567ffffffffffffffff811115611c3457611c336117ae565b5b611c4087828801611b95565b93509350506040611c538782880161194d565b91505092959194509250565b6000819050919050565b6000611c84611c7f611c7a846118ce565b611c5f565b6118ce565b9050919050565b6000611c9682611c69565b9050919050565b6000611ca882611c8b565b9050919050565b611cb881611c9d565b82525050565b6000602082019050611cd36000830184611caf565b92915050565b600060208284031215611cef57611cee6117a9565b5b6000611cfd84828501611a2b565b91505092915050565b60008060408385031215611d1d57611d1c6117a9565b5b6000611d2b85828601611917565b9250506020611d3c85828601611917565b9150509250929050565b600080fd5b60006101608284031215611d6257611d61611d46565b5b81905092915050565b6000819050919050565b611d7e81611d6b565b8114611d8957600080fd5b50565b600081359050611d9b81611d75565b92915050565b600080600060608486031215611dba57611db96117a9565b5b600084013567ffffffffffffffff811115611dd857611dd76117ae565b5b611de486828701611d4b565b9350506020611df586828701611d8c565b9250506040611e068682870161194d565b9150509250925092565b600081519050919050565b600082825260208201905092915050565b6000611e3782611e10565b611e418185611e1b565b9350611e51818560208601611838565b611e5a81611862565b840191505092915050565b60006040820190508181036000830152611e7f8185611e2c565b9050611e8e60208301846119d8565b9392505050565b611e9e816117b3565b82525050565b6000602082019050611eb96000830184611e95565b92915050565b7f4e487b7100000000000000000000000000000000000000000000000000000000600052602260045260246000fd5b60006002820490506001821680611f0657607f821691505b602082108103611f1957611f18611ebf565b5b50919050565b611f2881611a02565b82525050565b6000604082019050611f436000830185611f1f565b611f5060208301846119d8565b9392505050565b6000602082019050611f6c6000830184611f1f565b92915050565b600081519050611f8181611936565b92915050565b600060208284031215611f9d57611f9c6117a9565b5b6000611fab84828501611f72565b91505092915050565b6000606082019050611fc96000830186611b37565b611fd660208301856119d8565b611fe360408301846119d8565b949350505050565b7f53656e646572206e6f7420456e747279506f696e740000000000000000000000600082015250565b6000612021601583611827565b915061202c82611feb565b602082019050919050565b6000602082019050818103600083015261205081612014565b9050919050565b7f4e487b7100000000000000000000000000000000000000000000000000000000600052601160045260246000fd5b60006120918261192c565b915061209c8361192c565b92508282019050808211156120b4576120b3612057565b5b92915050565b7f546f6b656e5061796d61737465723a2067617320746f6f206c6f7720666f722060008201527f706f73744f700000000000000000000000000000000000000000000000000000602082015250565b6000612116602683611827565b9150612121826120ba565b604082019050919050565b6000602082019050818103600083015261214581612109565b9050919050565b600080fd5b600080fd5b600080fd5b600080833560016020038436030381126121785761217761214c565b5b80840192508235915067ffffffffffffffff82111561219a57612199612151565b5b6020830192506001820236038313156121b6576121b5612156565b5b509250929050565b7f546f6b656e5061796d61737465723a206e6f2062616c616e636520287072652d60008201527f6372656174652900000000000000000000000000000000000000000000000000602082015250565b600061221a602783611827565b9150612225826121be565b604082019050919050565b600060208201905081810360008301526122498161220d565b9050919050565b7f546f6b656e5061796d61737465723a206e6f2062616c616e6365000000000000600082015250565b6000612286601a83611827565b915061229182612250565b602082019050919050565b600060208201905081810360008301526122b581612279565b9050919050565b7f4e487b7100000000000000000000000000000000000000000000000000000000600052601260045260246000fd5b60006122f68261192c565b91506123018361192c565b925082612311576123106122bc565b5b828204905092915050565b600080fd5b600080fd5b6000808585111561233a5761233961231c565b5b8386111561234b5761234a612321565b5b6001850283019150848603905094509492505050565b600082905092915050565b60007fffffffffffffffffffffffffffffffffffffffff00000000000000000000000082169050919050565b600082821b905092915050565b60006123b18383612361565b826123bc813561236c565b925060148210156123fc576123f77fffffffffffffffffffffffffffffffffffffffff00000000000000000000000083601403600802612398565b831692505b505092915050565b7f546f6b656e5061796d61737465723a2077726f6e67206163636f756e7420666160008201527f63746f7279000000000000000000000000000000000000000000000000000000602082015250565b6000612460602583611827565b915061246b82612404565b604082019050919050565b6000602082019050818103600083015261248f81612453565b905091905056fea2646970667358221220c9ac67e0e4f0feea8139075f21f5025ee4c0efc531a31e0663f3da35a6aa058564736f6c63430008140033","opcodes":"PUSH1 0xC0 PUSH1 0x40 MSTORE CALLVALUE DUP1 ISZERO PUSH3 0x11 JUMPI PUSH1 0x0 DUP1 REVERT JUMPDEST POP PUSH1 0x40 MLOAD PUSH3 0x3335 CODESIZE SUB DUP1 PUSH3 0x3335 DUP4 CODECOPY DUP2 DUP2 ADD PUSH1 0x40 MSTORE DUP2 ADD SWAP1 PUSH3 0x37 SWAP2 SWAP1 PUSH3 0x95B JUMP JUMPDEST DUP2 DUP3 DUP3 ORIGIN PUSH1 0x0 PUSH20 0xFFFFFFFFFFFFFFFFFFFFFFFFFFFFFFFFFFFFFFFF AND DUP2 PUSH20 0xFFFFFFFFFFFFFFFFFFFFFFFFFFFFFFFFFFFFFFFF AND SUB PUSH3 0xB0 JUMPI PUSH1 0x0 PUSH1 0x40 MLOAD PUSH32 0x1E4FBDF700000000000000000000000000000000000000000000000000000000 DUP2 MSTORE PUSH1 0x4 ADD PUSH3 0xA7 SWAP2 SWAP1 PUSH3 0x9E7 JUMP JUMPDEST PUSH1 0x40 MLOAD DUP1 SWAP2 SUB SWAP1 REVERT JUMPDEST PUSH3 0xC1 DUP2 PUSH3 0x1A0 PUSH1 0x20 SHL PUSH1 0x20 SHR JUMP JUMPDEST POP DUP1 PUSH20 0xFFFFFFFFFFFFFFFFFFFFFFFFFFFFFFFFFFFFFFFF AND PUSH1 0x80 DUP2 PUSH20 0xFFFFFFFFFFFFFFFFFFFFFFFFFFFFFFFFFFFFFFFF AND DUP2 MSTORE POP POP POP DUP2 PUSH1 0x4 SWAP1 DUP2 PUSH3 0x108 SWAP2 SWAP1 PUSH3 0xC4F JUMP JUMPDEST POP DUP1 PUSH1 0x5 SWAP1 DUP2 PUSH3 0x11A SWAP2 SWAP1 PUSH3 0xC4F JUMP JUMPDEST POP POP POP DUP3 PUSH20 0xFFFFFFFFFFFFFFFFFFFFFFFFFFFFFFFFFFFFFFFF AND PUSH1 0xA0 DUP2 PUSH20 0xFFFFFFFFFFFFFFFFFFFFFFFFFFFFFFFFFFFFFFFF AND DUP2 MSTORE POP POP PUSH3 0x164 ADDRESS PUSH1 0x1 PUSH3 0x264 PUSH1 0x20 SHL PUSH1 0x20 SHR JUMP JUMPDEST PUSH3 0x197 ADDRESS CALLER PUSH32 0xFFFFFFFFFFFFFFFFFFFFFFFFFFFFFFFFFFFFFFFFFFFFFFFFFFFFFFFFFFFFFFFF PUSH3 0x2F1 PUSH1 0x20 SHL PUSH1 0x20 SHR JUMP JUMPDEST POP POP POP PUSH3 0xE0B JUMP JUMPDEST PUSH1 0x0 DUP1 PUSH1 0x0 SWAP1 SLOAD SWAP1 PUSH2 0x100 EXP SWAP1 DIV PUSH20 0xFFFFFFFFFFFFFFFFFFFFFFFFFFFFFFFFFFFFFFFF AND SWAP1 POP DUP2 PUSH1 0x0 DUP1 PUSH2 0x100 EXP DUP2 SLOAD DUP2 PUSH20 0xFFFFFFFFFFFFFFFFFFFFFFFFFFFFFFFFFFFFFFFF MUL NOT AND SWAP1 DUP4 PUSH20 0xFFFFFFFFFFFFFFFFFFFFFFFFFFFFFFFFFFFFFFFF AND MUL OR SWAP1 SSTORE POP DUP2 PUSH20 0xFFFFFFFFFFFFFFFFFFFFFFFFFFFFFFFFFFFFFFFF AND DUP2 PUSH20 0xFFFFFFFFFFFFFFFFFFFFFFFFFFFFFFFFFFFFFFFF AND PUSH32 0x8BE0079C531659141344CD1FD0A4F28419497F9722A3DAAFE3B4186F6B6457E0 PUSH1 0x40 MLOAD PUSH1 0x40 MLOAD DUP1 SWAP2 SUB SWAP1 LOG3 POP POP JUMP JUMPDEST PUSH1 0x0 PUSH20 0xFFFFFFFFFFFFFFFFFFFFFFFFFFFFFFFFFFFFFFFF AND DUP3 PUSH20 0xFFFFFFFFFFFFFFFFFFFFFFFFFFFFFFFFFFFFFFFF AND SUB PUSH3 0x2D9 JUMPI PUSH1 0x0 PUSH1 0x40 MLOAD PUSH32 0xEC442F0500000000000000000000000000000000000000000000000000000000 DUP2 MSTORE PUSH1 0x4 ADD PUSH3 0x2D0 SWAP2 SWAP1 PUSH3 0x9E7 JUMP JUMPDEST PUSH1 0x40 MLOAD DUP1 SWAP2 SUB SWAP1 REVERT JUMPDEST PUSH3 0x2ED PUSH1 0x0 DUP4 DUP4 PUSH3 0x30B PUSH1 0x20 SHL PUSH1 0x20 SHR JUMP JUMPDEST POP POP JUMP JUMPDEST PUSH3 0x306 DUP4 DUP4 DUP4 PUSH1 0x1 PUSH3 0x53E PUSH1 0x20 SHL PUSH1 0x20 SHR JUMP JUMPDEST POP POP POP JUMP JUMPDEST PUSH1 0x0 PUSH20 0xFFFFFFFFFFFFFFFFFFFFFFFFFFFFFFFFFFFFFFFF AND DUP4 PUSH20 0xFFFFFFFFFFFFFFFFFFFFFFFFFFFFFFFFFFFFFFFF AND SUB PUSH3 0x361 JUMPI DUP1 PUSH1 0x3 PUSH1 0x0 DUP3 DUP3 SLOAD PUSH3 0x354 SWAP2 SWAP1 PUSH3 0xD65 JUMP JUMPDEST SWAP3 POP POP DUP2 SWAP1 SSTORE POP PUSH3 0x439 JUMP JUMPDEST PUSH1 0x0 PUSH1 0x1 PUSH1 0x0 DUP6 PUSH20 0xFFFFFFFFFFFFFFFFFFFFFFFFFFFFFFFFFFFFFFFF AND PUSH20 0xFFFFFFFFFFFFFFFFFFFFFFFFFFFFFFFFFFFFFFFF AND DUP2 MSTORE PUSH1 0x20 ADD SWAP1 DUP2 MSTORE PUSH1 0x20 ADD PUSH1 0x0 KECCAK256 SLOAD SWAP1 POP DUP2 DUP2 LT ISZERO PUSH3 0x3F1 JUMPI DUP4 DUP2 DUP4 PUSH1 0x40 MLOAD PUSH32 0xE450D38C00000000000000000000000000000000000000000000000000000000 DUP2 MSTORE PUSH1 0x4 ADD PUSH3 0x3E8 SWAP4 SWAP3 SWAP2 SWAP1 PUSH3 0xDB1 JUMP JUMPDEST PUSH1 0x40 MLOAD DUP1 SWAP2 SUB SWAP1 REVERT JUMPDEST DUP2 DUP2 SUB PUSH1 0x1 PUSH1 0x0 DUP7 PUSH20 0xFFFFFFFFFFFFFFFFFFFFFFFFFFFFFFFFFFFFFFFF AND PUSH20 0xFFFFFFFFFFFFFFFFFFFFFFFFFFFFFFFFFFFFFFFF AND DUP2 MSTORE PUSH1 0x20 ADD SWAP1 DUP2 MSTORE PUSH1 0x20 ADD PUSH1 0x0 KECCAK256 DUP2 SWAP1 SSTORE POP POP JUMPDEST PUSH1 0x0 PUSH20 0xFFFFFFFFFFFFFFFFFFFFFFFFFFFFFFFFFFFFFFFF AND DUP3 PUSH20 0xFFFFFFFFFFFFFFFFFFFFFFFFFFFFFFFFFFFFFFFF AND SUB PUSH3 0x484 JUMPI DUP1 PUSH1 0x3 PUSH1 0x0 DUP3 DUP3 SLOAD SUB SWAP3 POP POP DUP2 SWAP1 SSTORE POP PUSH3 0x4D2 JUMP JUMPDEST DUP1 PUSH1 0x1 PUSH1 0x0 DUP5 PUSH20 0xFFFFFFFFFFFFFFFFFFFFFFFFFFFFFFFFFFFFFFFF AND PUSH20 0xFFFFFFFFFFFFFFFFFFFFFFFFFFFFFFFFFFFFFFFF AND DUP2 MSTORE PUSH1 0x20 ADD SWAP1 DUP2 MSTORE PUSH1 0x20 ADD PUSH1 0x0 KECCAK256 PUSH1 0x0 DUP3 DUP3 SLOAD ADD SWAP3 POP POP DUP2 SWAP1 SSTORE POP JUMPDEST DUP2 PUSH20 0xFFFFFFFFFFFFFFFFFFFFFFFFFFFFFFFFFFFFFFFF AND DUP4 PUSH20 0xFFFFFFFFFFFFFFFFFFFFFFFFFFFFFFFFFFFFFFFF AND PUSH32 0xDDF252AD1BE2C89B69C2B068FC378DAA952BA7F163C4A11628F55A4DF523B3EF DUP4 PUSH1 0x40 MLOAD PUSH3 0x531 SWAP2 SWAP1 PUSH3 0xDEE JUMP JUMPDEST PUSH1 0x40 MLOAD DUP1 SWAP2 SUB SWAP1 LOG3 POP POP POP JUMP JUMPDEST PUSH1 0x0 PUSH20 0xFFFFFFFFFFFFFFFFFFFFFFFFFFFFFFFFFFFFFFFF AND DUP5 PUSH20 0xFFFFFFFFFFFFFFFFFFFFFFFFFFFFFFFFFFFFFFFF AND SUB PUSH3 0x5B3 JUMPI PUSH1 0x0 PUSH1 0x40 MLOAD PUSH32 0xE602DF0500000000000000000000000000000000000000000000000000000000 DUP2 MSTORE PUSH1 0x4 ADD PUSH3 0x5AA SWAP2 SWAP1 PUSH3 0x9E7 JUMP JUMPDEST PUSH1 0x40 MLOAD DUP1 SWAP2 SUB SWAP1 REVERT JUMPDEST PUSH1 0x0 PUSH20 0xFFFFFFFFFFFFFFFFFFFFFFFFFFFFFFFFFFFFFFFF AND DUP4 PUSH20 0xFFFFFFFFFFFFFFFFFFFFFFFFFFFFFFFFFFFFFFFF AND SUB PUSH3 0x628 JUMPI PUSH1 0x0 PUSH1 0x40 MLOAD PUSH32 0x94280D6200000000000000000000000000000000000000000000000000000000 DUP2 MSTORE PUSH1 0x4 ADD PUSH3 0x61F SWAP2 SWAP1 PUSH3 0x9E7 JUMP JUMPDEST PUSH1 0x40 MLOAD DUP1 SWAP2 SUB SWAP1 REVERT JUMPDEST DUP2 PUSH1 0x2 PUSH1 0x0 DUP7 PUSH20 0xFFFFFFFFFFFFFFFFFFFFFFFFFFFFFFFFFFFFFFFF AND PUSH20 0xFFFFFFFFFFFFFFFFFFFFFFFFFFFFFFFFFFFFFFFF AND DUP2 MSTORE PUSH1 0x20 ADD SWAP1 DUP2 MSTORE PUSH1 0x20 ADD PUSH1 0x0 KECCAK256 PUSH1 0x0 DUP6 PUSH20 0xFFFFFFFFFFFFFFFFFFFFFFFFFFFFFFFFFFFFFFFF AND PUSH20 0xFFFFFFFFFFFFFFFFFFFFFFFFFFFFFFFFFFFFFFFF AND DUP2 MSTORE PUSH1 0x20 ADD SWAP1 DUP2 MSTORE PUSH1 0x20 ADD PUSH1 0x0 KECCAK256 DUP2 SWAP1 SSTORE POP DUP1 ISZERO PUSH3 0x718 JUMPI DUP3 PUSH20 0xFFFFFFFFFFFFFFFFFFFFFFFFFFFFFFFFFFFFFFFF AND DUP5 PUSH20 0xFFFFFFFFFFFFFFFFFFFFFFFFFFFFFFFFFFFFFFFF AND PUSH32 0x8C5BE1E5EBEC7D5BD14F71427D1E84F3DD0314C0F7B2291E5B200AC8C7C3B925 DUP5 PUSH1 0x40 MLOAD PUSH3 0x70F SWAP2 SWAP1 PUSH3 0xDEE JUMP JUMPDEST PUSH1 0x40 MLOAD DUP1 SWAP2 SUB SWAP1 LOG3 JUMPDEST POP POP POP POP JUMP JUMPDEST PUSH1 0x0 PUSH1 0x40 MLOAD SWAP1 POP SWAP1 JUMP JUMPDEST PUSH1 0x0 DUP1 REVERT JUMPDEST PUSH1 0x0 DUP1 REVERT JUMPDEST PUSH1 0x0 PUSH20 0xFFFFFFFFFFFFFFFFFFFFFFFFFFFFFFFFFFFFFFFF DUP3 AND SWAP1 POP SWAP2 SWAP1 POP JUMP JUMPDEST PUSH1 0x0 PUSH3 0x75F DUP3 PUSH3 0x732 JUMP JUMPDEST SWAP1 POP SWAP2 SWAP1 POP JUMP JUMPDEST PUSH3 0x771 DUP2 PUSH3 0x752 JUMP JUMPDEST DUP2 EQ PUSH3 0x77D JUMPI PUSH1 0x0 DUP1 REVERT JUMPDEST POP JUMP JUMPDEST PUSH1 0x0 DUP2 MLOAD SWAP1 POP PUSH3 0x791 DUP2 PUSH3 0x766 JUMP JUMPDEST SWAP3 SWAP2 POP POP JUMP JUMPDEST PUSH1 0x0 DUP1 REVERT JUMPDEST PUSH1 0x0 DUP1 REVERT JUMPDEST PUSH1 0x0 PUSH1 0x1F NOT PUSH1 0x1F DUP4 ADD AND SWAP1 POP SWAP2 SWAP1 POP JUMP JUMPDEST PUSH32 0x4E487B7100000000000000000000000000000000000000000000000000000000 PUSH1 0x0 MSTORE PUSH1 0x41 PUSH1 0x4 MSTORE PUSH1 0x24 PUSH1 0x0 REVERT JUMPDEST PUSH3 0x7EC DUP3 PUSH3 0x7A1 JUMP JUMPDEST DUP2 ADD DUP2 DUP2 LT PUSH8 0xFFFFFFFFFFFFFFFF DUP3 GT OR ISZERO PUSH3 0x80E JUMPI PUSH3 0x80D PUSH3 0x7B2 JUMP JUMPDEST JUMPDEST DUP1 PUSH1 0x40 MSTORE POP POP POP JUMP JUMPDEST PUSH1 0x0 PUSH3 0x823 PUSH3 0x71E JUMP JUMPDEST SWAP1 POP PUSH3 0x831 DUP3 DUP3 PUSH3 0x7E1 JUMP JUMPDEST SWAP2 SWAP1 POP JUMP JUMPDEST PUSH1 0x0 PUSH8 0xFFFFFFFFFFFFFFFF DUP3 GT ISZERO PUSH3 0x854 JUMPI PUSH3 0x853 PUSH3 0x7B2 JUMP JUMPDEST JUMPDEST PUSH3 0x85F DUP3 PUSH3 0x7A1 JUMP JUMPDEST SWAP1 POP PUSH1 0x20 DUP2 ADD SWAP1 POP SWAP2 SWAP1 POP JUMP JUMPDEST PUSH1 0x0 JUMPDEST DUP4 DUP2 LT ISZERO PUSH3 0x88C JUMPI DUP1 DUP3 ADD MLOAD DUP2 DUP5 ADD MSTORE PUSH1 0x20 DUP2 ADD SWAP1 POP PUSH3 0x86F JUMP JUMPDEST PUSH1 0x0 DUP5 DUP5 ADD MSTORE POP POP POP POP JUMP JUMPDEST PUSH1 0x0 PUSH3 0x8AF PUSH3 0x8A9 DUP5 PUSH3 0x836 JUMP JUMPDEST PUSH3 0x817 JUMP JUMPDEST SWAP1 POP DUP3 DUP2 MSTORE PUSH1 0x20 DUP2 ADD DUP5 DUP5 DUP5 ADD GT ISZERO PUSH3 0x8CE JUMPI PUSH3 0x8CD PUSH3 0x79C JUMP JUMPDEST JUMPDEST PUSH3 0x8DB DUP5 DUP3 DUP6 PUSH3 0x86C JUMP JUMPDEST POP SWAP4 SWAP3 POP POP POP JUMP JUMPDEST PUSH1 0x0 DUP3 PUSH1 0x1F DUP4 ADD SLT PUSH3 0x8FB JUMPI PUSH3 0x8FA PUSH3 0x797 JUMP JUMPDEST JUMPDEST DUP2 MLOAD PUSH3 0x90D DUP5 DUP3 PUSH1 0x20 DUP7 ADD PUSH3 0x898 JUMP JUMPDEST SWAP2 POP POP SWAP3 SWAP2 POP POP JUMP JUMPDEST PUSH1 0x0 PUSH3 0x923 DUP3 PUSH3 0x752 JUMP JUMPDEST SWAP1 POP SWAP2 SWAP1 POP JUMP JUMPDEST PUSH3 0x935 DUP2 PUSH3 0x916 JUMP JUMPDEST DUP2 EQ PUSH3 0x941 JUMPI PUSH1 0x0 DUP1 REVERT JUMPDEST POP JUMP JUMPDEST PUSH1 0x0 DUP2 MLOAD SWAP1 POP PUSH3 0x955 DUP2 PUSH3 0x92A JUMP JUMPDEST SWAP3 SWAP2 POP POP JUMP JUMPDEST PUSH1 0x0 DUP1 PUSH1 0x0 PUSH1 0x60 DUP5 DUP7 SUB SLT ISZERO PUSH3 0x977 JUMPI PUSH3 0x976 PUSH3 0x728 JUMP JUMPDEST JUMPDEST PUSH1 0x0 PUSH3 0x987 DUP7 DUP3 DUP8 ADD PUSH3 0x780 JUMP JUMPDEST SWAP4 POP POP PUSH1 0x20 DUP5 ADD MLOAD PUSH8 0xFFFFFFFFFFFFFFFF DUP2 GT ISZERO PUSH3 0x9AB JUMPI PUSH3 0x9AA PUSH3 0x72D JUMP JUMPDEST JUMPDEST PUSH3 0x9B9 DUP7 DUP3 DUP8 ADD PUSH3 0x8E3 JUMP JUMPDEST SWAP3 POP POP PUSH1 0x40 PUSH3 0x9CC DUP7 DUP3 DUP8 ADD PUSH3 0x944 JUMP JUMPDEST SWAP2 POP POP SWAP3 POP SWAP3 POP SWAP3 JUMP JUMPDEST PUSH3 0x9E1 DUP2 PUSH3 0x752 JUMP JUMPDEST DUP3 MSTORE POP POP JUMP JUMPDEST PUSH1 0x0 PUSH1 0x20 DUP3 ADD SWAP1 POP PUSH3 0x9FE PUSH1 0x0 DUP4 ADD DUP5 PUSH3 0x9D6 JUMP JUMPDEST SWAP3 SWAP2 POP POP JUMP JUMPDEST PUSH1 0x0 DUP2 MLOAD SWAP1 POP SWAP2 SWAP1 POP JUMP JUMPDEST PUSH32 0x4E487B7100000000000000000000000000000000000000000000000000000000 PUSH1 0x0 MSTORE PUSH1 0x22 PUSH1 0x4 MSTORE PUSH1 0x24 PUSH1 0x0 REVERT JUMPDEST PUSH1 0x0 PUSH1 0x2 DUP3 DIV SWAP1 POP PUSH1 0x1 DUP3 AND DUP1 PUSH3 0xA57 JUMPI PUSH1 0x7F DUP3 AND SWAP2 POP JUMPDEST PUSH1 0x20 DUP3 LT DUP2 SUB PUSH3 0xA6D JUMPI PUSH3 0xA6C PUSH3 0xA0F JUMP JUMPDEST JUMPDEST POP SWAP2 SWAP1 POP JUMP JUMPDEST PUSH1 0x0 DUP2 SWAP1 POP DUP2 PUSH1 0x0 MSTORE PUSH1 0x20 PUSH1 0x0 KECCAK256 SWAP1 POP SWAP2 SWAP1 POP JUMP JUMPDEST PUSH1 0x0 PUSH1 0x20 PUSH1 0x1F DUP4 ADD DIV SWAP1 POP SWAP2 SWAP1 POP JUMP JUMPDEST PUSH1 0x0 DUP3 DUP3 SHL SWAP1 POP SWAP3 SWAP2 POP POP JUMP JUMPDEST PUSH1 0x0 PUSH1 0x8 DUP4 MUL PUSH3 0xAD7 PUSH32 0xFFFFFFFFFFFFFFFFFFFFFFFFFFFFFFFFFFFFFFFFFFFFFFFFFFFFFFFFFFFFFFFF DUP3 PUSH3 0xA98 JUMP JUMPDEST PUSH3 0xAE3 DUP7 DUP4 PUSH3 0xA98 JUMP JUMPDEST SWAP6 POP DUP1 NOT DUP5 AND SWAP4 POP DUP1 DUP7 AND DUP5 OR SWAP3 POP POP POP SWAP4 SWAP3 POP POP POP JUMP JUMPDEST PUSH1 0x0 DUP2 SWAP1 POP SWAP2 SWAP1 POP JUMP JUMPDEST PUSH1 0x0 DUP2 SWAP1 POP SWAP2 SWAP1 POP JUMP JUMPDEST PUSH1 0x0 PUSH3 0xB30 PUSH3 0xB2A PUSH3 0xB24 DUP5 PUSH3 0xAFB JUMP JUMPDEST PUSH3 0xB05 JUMP JUMPDEST PUSH3 0xAFB JUMP JUMPDEST SWAP1 POP SWAP2 SWAP1 POP JUMP JUMPDEST PUSH1 0x0 DUP2 SWAP1 POP SWAP2 SWAP1 POP JUMP JUMPDEST PUSH3 0xB4C DUP4 PUSH3 0xB0F JUMP JUMPDEST PUSH3 0xB64 PUSH3 0xB5B DUP3 PUSH3 0xB37 JUMP JUMPDEST DUP5 DUP5 SLOAD PUSH3 0xAA5 JUMP JUMPDEST DUP3 SSTORE POP POP POP POP JUMP JUMPDEST PUSH1 0x0 SWAP1 JUMP JUMPDEST PUSH3 0xB7B PUSH3 0xB6C JUMP JUMPDEST PUSH3 0xB88 DUP2 DUP5 DUP5 PUSH3 0xB41 JUMP JUMPDEST POP POP POP JUMP JUMPDEST JUMPDEST DUP2 DUP2 LT ISZERO PUSH3 0xBB0 JUMPI PUSH3 0xBA4 PUSH1 0x0 DUP3 PUSH3 0xB71 JUMP JUMPDEST PUSH1 0x1 DUP2 ADD SWAP1 POP PUSH3 0xB8E JUMP JUMPDEST POP POP JUMP JUMPDEST PUSH1 0x1F DUP3 GT ISZERO PUSH3 0xBFF JUMPI PUSH3 0xBC9 DUP2 PUSH3 0xA73 JUMP JUMPDEST PUSH3 0xBD4 DUP5 PUSH3 0xA88 JUMP JUMPDEST DUP2 ADD PUSH1 0x20 DUP6 LT ISZERO PUSH3 0xBE4 JUMPI DUP2 SWAP1 POP JUMPDEST PUSH3 0xBFC PUSH3 0xBF3 DUP6 PUSH3 0xA88 JUMP JUMPDEST DUP4 ADD DUP3 PUSH3 0xB8D JUMP JUMPDEST POP POP JUMPDEST POP POP POP JUMP JUMPDEST PUSH1 0x0 DUP3 DUP3 SHR SWAP1 POP SWAP3 SWAP2 POP POP JUMP JUMPDEST PUSH1 0x0 PUSH3 0xC24 PUSH1 0x0 NOT DUP5 PUSH1 0x8 MUL PUSH3 0xC04 JUMP JUMPDEST NOT DUP1 DUP4 AND SWAP2 POP POP SWAP3 SWAP2 POP POP JUMP JUMPDEST PUSH1 0x0 PUSH3 0xC3F DUP4 DUP4 PUSH3 0xC11 JUMP JUMPDEST SWAP2 POP DUP3 PUSH1 0x2 MUL DUP3 OR SWAP1 POP SWAP3 SWAP2 POP POP JUMP JUMPDEST PUSH3 0xC5A DUP3 PUSH3 0xA04 JUMP JUMPDEST PUSH8 0xFFFFFFFFFFFFFFFF DUP2 GT ISZERO PUSH3 0xC76 JUMPI PUSH3 0xC75 PUSH3 0x7B2 JUMP JUMPDEST JUMPDEST PUSH3 0xC82 DUP3 SLOAD PUSH3 0xA3E JUMP JUMPDEST PUSH3 0xC8F DUP3 DUP3 DUP6 PUSH3 0xBB4 JUMP JUMPDEST PUSH1 0x0 PUSH1 0x20 SWAP1 POP PUSH1 0x1F DUP4 GT PUSH1 0x1 DUP2 EQ PUSH3 0xCC7 JUMPI PUSH1 0x0 DUP5 ISZERO PUSH3 0xCB2 JUMPI DUP3 DUP8 ADD MLOAD SWAP1 POP JUMPDEST PUSH3 0xCBE DUP6 DUP3 PUSH3 0xC31 JUMP JUMPDEST DUP7 SSTORE POP PUSH3 0xD2E JUMP JUMPDEST PUSH1 0x1F NOT DUP5 AND PUSH3 0xCD7 DUP7 PUSH3 0xA73 JUMP JUMPDEST PUSH1 0x0 JUMPDEST DUP3 DUP2 LT ISZERO PUSH3 0xD01 JUMPI DUP5 DUP10 ADD MLOAD DUP3 SSTORE PUSH1 0x1 DUP3 ADD SWAP2 POP PUSH1 0x20 DUP6 ADD SWAP5 POP PUSH1 0x20 DUP2 ADD SWAP1 POP PUSH3 0xCDA JUMP JUMPDEST DUP7 DUP4 LT ISZERO PUSH3 0xD21 JUMPI DUP5 DUP10 ADD MLOAD PUSH3 0xD1D PUSH1 0x1F DUP10 AND DUP3 PUSH3 0xC11 JUMP JUMPDEST DUP4 SSTORE POP JUMPDEST PUSH1 0x1 PUSH1 0x2 DUP9 MUL ADD DUP9 SSTORE POP POP POP JUMPDEST POP POP POP POP POP POP JUMP JUMPDEST PUSH32 0x4E487B7100000000000000000000000000000000000000000000000000000000 PUSH1 0x0 MSTORE PUSH1 0x11 PUSH1 0x4 MSTORE PUSH1 0x24 PUSH1 0x0 REVERT JUMPDEST PUSH1 0x0 PUSH3 0xD72 DUP3 PUSH3 0xAFB JUMP JUMPDEST SWAP2 POP PUSH3 0xD7F DUP4 PUSH3 0xAFB JUMP JUMPDEST SWAP3 POP DUP3 DUP3 ADD SWAP1 POP DUP1 DUP3 GT ISZERO PUSH3 0xD9A JUMPI PUSH3 0xD99 PUSH3 0xD36 JUMP JUMPDEST JUMPDEST SWAP3 SWAP2 POP POP JUMP JUMPDEST PUSH3 0xDAB DUP2 PUSH3 0xAFB JUMP JUMPDEST DUP3 MSTORE POP POP JUMP JUMPDEST PUSH1 0x0 PUSH1 0x60 DUP3 ADD SWAP1 POP PUSH3 0xDC8 PUSH1 0x0 DUP4 ADD DUP7 PUSH3 0x9D6 JUMP JUMPDEST PUSH3 0xDD7 PUSH1 0x20 DUP4 ADD DUP6 PUSH3 0xDA0 JUMP JUMPDEST PUSH3 0xDE6 PUSH1 0x40 DUP4 ADD DUP5 PUSH3 0xDA0 JUMP JUMPDEST SWAP5 SWAP4 POP POP POP POP JUMP JUMPDEST PUSH1 0x0 PUSH1 0x20 DUP3 ADD SWAP1 POP PUSH3 0xE05 PUSH1 0x0 DUP4 ADD DUP5 PUSH3 0xDA0 JUMP JUMPDEST SWAP3 SWAP2 POP POP JUMP JUMPDEST PUSH1 0x80 MLOAD PUSH1 0xA0 MLOAD PUSH2 0x24CC PUSH3 0xE69 PUSH1 0x0 CODECOPY PUSH1 0x0 DUP2 DUP2 PUSH2 0x8AA ADD MSTORE PUSH2 0x1719 ADD MSTORE PUSH1 0x0 DUP2 DUP2 PUSH2 0x56D ADD MSTORE DUP2 DUP2 PUSH2 0x6C3 ADD MSTORE DUP2 DUP2 PUSH2 0x90B ADD MSTORE DUP2 DUP2 PUSH2 0x937 ADD MSTORE DUP2 DUP2 PUSH2 0x9C1 ADD MSTORE DUP2 DUP2 PUSH2 0xA51 ADD MSTORE DUP2 DUP2 PUSH2 0xAF0 ADD MSTORE PUSH2 0xF7D ADD MSTORE PUSH2 0x24CC PUSH1 0x0 RETURN INVALID PUSH1 0x80 PUSH1 0x40 MSTORE PUSH1 0x4 CALLDATASIZE LT PUSH2 0x14B JUMPI PUSH1 0x0 CALLDATALOAD PUSH1 0xE0 SHR DUP1 PUSH4 0x9F5CA221 GT PUSH2 0xB6 JUMPI DUP1 PUSH4 0xC399EC88 GT PUSH2 0x6F JUMPI DUP1 PUSH4 0xC399EC88 EQ PUSH2 0x461 JUMPI DUP1 PUSH4 0xD0E30DB0 EQ PUSH2 0x48C JUMPI DUP1 PUSH4 0xDD62ED3E EQ PUSH2 0x496 JUMPI DUP1 PUSH4 0xF0DDA65C EQ PUSH2 0x4D3 JUMPI DUP1 PUSH4 0xF2FDE38B EQ PUSH2 0x4FC JUMPI DUP1 PUSH4 0xF465C77E EQ PUSH2 0x525 JUMPI PUSH2 0x14B JUMP JUMPDEST DUP1 PUSH4 0x9F5CA221 EQ PUSH2 0x365 JUMPI DUP1 PUSH4 0xA9059CBB EQ PUSH2 0x390 JUMPI DUP1 PUSH4 0xA9A23409 EQ PUSH2 0x3CD JUMPI DUP1 PUSH4 0xB0D691FE EQ PUSH2 0x3F6 JUMPI DUP1 PUSH4 0xBB9FE6BF EQ PUSH2 0x421 JUMPI DUP1 PUSH4 0xC23A5CEA EQ PUSH2 0x438 JUMPI PUSH2 0x14B JUMP JUMPDEST DUP1 PUSH4 0x313CE567 GT PUSH2 0x108 JUMPI DUP1 PUSH4 0x313CE567 EQ PUSH2 0x265 JUMPI DUP1 PUSH4 0x70A08231 EQ PUSH2 0x290 JUMPI DUP1 PUSH4 0x715018A6 EQ PUSH2 0x2CD JUMPI DUP1 PUSH4 0x796D4371 EQ PUSH2 0x2E4 JUMPI DUP1 PUSH4 0x8DA5CB5B EQ PUSH2 0x30F JUMPI DUP1 PUSH4 0x95D89B41 EQ PUSH2 0x33A JUMPI PUSH2 0x14B JUMP JUMPDEST DUP1 PUSH4 0x396CB60 EQ PUSH2 0x150 JUMPI DUP1 PUSH4 0x6FDDE03 EQ PUSH2 0x16C JUMPI DUP1 PUSH4 0x95EA7B3 EQ PUSH2 0x197 JUMPI DUP1 PUSH4 0x18160DDD EQ PUSH2 0x1D4 JUMPI DUP1 PUSH4 0x205C2878 EQ PUSH2 0x1FF JUMPI DUP1 PUSH4 0x23B872DD EQ PUSH2 0x228 JUMPI JUMPDEST PUSH1 0x0 DUP1 REVERT JUMPDEST PUSH2 0x16A PUSH1 0x4 DUP1 CALLDATASIZE SUB DUP2 ADD SWAP1 PUSH2 0x165 SWAP2 SWAP1 PUSH2 0x17EF JUMP JUMPDEST PUSH2 0x563 JUMP JUMPDEST STOP JUMPDEST CALLVALUE DUP1 ISZERO PUSH2 0x178 JUMPI PUSH1 0x0 DUP1 REVERT JUMPDEST POP PUSH2 0x181 PUSH2 0x5FA JUMP JUMPDEST PUSH1 0x40 MLOAD PUSH2 0x18E SWAP2 SWAP1 PUSH2 0x18AC JUMP JUMPDEST PUSH1 0x40 MLOAD DUP1 SWAP2 SUB SWAP1 RETURN JUMPDEST CALLVALUE DUP1 ISZERO PUSH2 0x1A3 JUMPI PUSH1 0x0 DUP1 REVERT JUMPDEST POP PUSH2 0x1BE PUSH1 0x4 DUP1 CALLDATASIZE SUB DUP2 ADD SWAP1 PUSH2 0x1B9 SWAP2 SWAP1 PUSH2 0x1962 JUMP JUMPDEST PUSH2 0x68C JUMP JUMPDEST PUSH1 0x40 MLOAD PUSH2 0x1CB SWAP2 SWAP1 PUSH2 0x19BD JUMP JUMPDEST PUSH1 0x40 MLOAD DUP1 SWAP2 SUB SWAP1 RETURN JUMPDEST CALLVALUE DUP1 ISZERO PUSH2 0x1E0 JUMPI PUSH1 0x0 DUP1 REVERT JUMPDEST POP PUSH2 0x1E9 PUSH2 0x6AF JUMP JUMPDEST PUSH1 0x40 MLOAD PUSH2 0x1F6 SWAP2 SWAP1 PUSH2 0x19E7 JUMP JUMPDEST PUSH1 0x40 MLOAD DUP1 SWAP2 SUB SWAP1 RETURN JUMPDEST CALLVALUE DUP1 ISZERO PUSH2 0x20B JUMPI PUSH1 0x0 DUP1 REVERT JUMPDEST POP PUSH2 0x226 PUSH1 0x4 DUP1 CALLDATASIZE SUB DUP2 ADD SWAP1 PUSH2 0x221 SWAP2 SWAP1 PUSH2 0x1A40 JUMP JUMPDEST PUSH2 0x6B9 JUMP JUMPDEST STOP JUMPDEST CALLVALUE DUP1 ISZERO PUSH2 0x234 JUMPI PUSH1 0x0 DUP1 REVERT JUMPDEST POP PUSH2 0x24F PUSH1 0x4 DUP1 CALLDATASIZE SUB DUP2 ADD SWAP1 PUSH2 0x24A SWAP2 SWAP1 PUSH2 0x1A80 JUMP JUMPDEST PUSH2 0x752 JUMP JUMPDEST PUSH1 0x40 MLOAD PUSH2 0x25C SWAP2 SWAP1 PUSH2 0x19BD JUMP JUMPDEST PUSH1 0x40 MLOAD DUP1 SWAP2 SUB SWAP1 RETURN JUMPDEST CALLVALUE DUP1 ISZERO PUSH2 0x271 JUMPI PUSH1 0x0 DUP1 REVERT JUMPDEST POP PUSH2 0x27A PUSH2 0x781 JUMP JUMPDEST PUSH1 0x40 MLOAD PUSH2 0x287 SWAP2 SWAP1 PUSH2 0x1AEF JUMP JUMPDEST PUSH1 0x40 MLOAD DUP1 SWAP2 SUB SWAP1 RETURN JUMPDEST CALLVALUE DUP1 ISZERO PUSH2 0x29C JUMPI PUSH1 0x0 DUP1 REVERT JUMPDEST POP PUSH2 0x2B7 PUSH1 0x4 DUP1 CALLDATASIZE SUB DUP2 ADD SWAP1 PUSH2 0x2B2 SWAP2 SWAP1 PUSH2 0x1B0A JUMP JUMPDEST PUSH2 0x78A JUMP JUMPDEST PUSH1 0x40 MLOAD PUSH2 0x2C4 SWAP2 SWAP1 PUSH2 0x19E7 JUMP JUMPDEST PUSH1 0x40 MLOAD DUP1 SWAP2 SUB SWAP1 RETURN JUMPDEST CALLVALUE DUP1 ISZERO PUSH2 0x2D9 JUMPI PUSH1 0x0 DUP1 REVERT JUMPDEST POP PUSH2 0x2E2 PUSH2 0x7D3 JUMP JUMPDEST STOP JUMPDEST CALLVALUE DUP1 ISZERO PUSH2 0x2F0 JUMPI PUSH1 0x0 DUP1 REVERT JUMPDEST POP PUSH2 0x2F9 PUSH2 0x7E7 JUMP JUMPDEST PUSH1 0x40 MLOAD PUSH2 0x306 SWAP2 SWAP1 PUSH2 0x19E7 JUMP JUMPDEST PUSH1 0x40 MLOAD DUP1 SWAP2 SUB SWAP1 RETURN JUMPDEST CALLVALUE DUP1 ISZERO PUSH2 0x31B JUMPI PUSH1 0x0 DUP1 REVERT JUMPDEST POP PUSH2 0x324 PUSH2 0x7ED JUMP JUMPDEST PUSH1 0x40 MLOAD PUSH2 0x331 SWAP2 SWAP1 PUSH2 0x1B46 JUMP JUMPDEST PUSH1 0x40 MLOAD DUP1 SWAP2 SUB SWAP1 RETURN JUMPDEST CALLVALUE DUP1 ISZERO PUSH2 0x346 JUMPI PUSH1 0x0 DUP1 REVERT JUMPDEST POP PUSH2 0x34F PUSH2 0x816 JUMP JUMPDEST PUSH1 0x40 MLOAD PUSH2 0x35C SWAP2 SWAP1 PUSH2 0x18AC JUMP JUMPDEST PUSH1 0x40 MLOAD DUP1 SWAP2 SUB SWAP1 RETURN JUMPDEST CALLVALUE DUP1 ISZERO PUSH2 0x371 JUMPI PUSH1 0x0 DUP1 REVERT JUMPDEST POP PUSH2 0x37A PUSH2 0x8A8 JUMP JUMPDEST PUSH1 0x40 MLOAD PUSH2 0x387 SWAP2 SWAP1 PUSH2 0x1B46 JUMP JUMPDEST PUSH1 0x40 MLOAD DUP1 SWAP2 SUB SWAP1 RETURN JUMPDEST CALLVALUE DUP1 ISZERO PUSH2 0x39C JUMPI PUSH1 0x0 DUP1 REVERT JUMPDEST POP PUSH2 0x3B7 PUSH1 0x4 DUP1 CALLDATASIZE SUB DUP2 ADD SWAP1 PUSH2 0x3B2 SWAP2 SWAP1 PUSH2 0x1962 JUMP JUMPDEST PUSH2 0x8CC JUMP JUMPDEST PUSH1 0x40 MLOAD PUSH2 0x3C4 SWAP2 SWAP1 PUSH2 0x19BD JUMP JUMPDEST PUSH1 0x40 MLOAD DUP1 SWAP2 SUB SWAP1 RETURN JUMPDEST CALLVALUE DUP1 ISZERO PUSH2 0x3D9 JUMPI PUSH1 0x0 DUP1 REVERT JUMPDEST POP PUSH2 0x3F4 PUSH1 0x4 DUP1 CALLDATASIZE SUB DUP2 ADD SWAP1 PUSH2 0x3EF SWAP2 SWAP1 PUSH2 0x1BEB JUMP JUMPDEST PUSH2 0x8EF JUMP JUMPDEST STOP JUMPDEST CALLVALUE DUP1 ISZERO PUSH2 0x402 JUMPI PUSH1 0x0 DUP1 REVERT JUMPDEST POP PUSH2 0x40B PUSH2 0x909 JUMP JUMPDEST PUSH1 0x40 MLOAD PUSH2 0x418 SWAP2 SWAP1 PUSH2 0x1CBE JUMP JUMPDEST PUSH1 0x40 MLOAD DUP1 SWAP2 SUB SWAP1 RETURN JUMPDEST CALLVALUE DUP1 ISZERO PUSH2 0x42D JUMPI PUSH1 0x0 DUP1 REVERT JUMPDEST POP PUSH2 0x436 PUSH2 0x92D JUMP JUMPDEST STOP JUMPDEST CALLVALUE DUP1 ISZERO PUSH2 0x444 JUMPI PUSH1 0x0 DUP1 REVERT JUMPDEST POP PUSH2 0x45F PUSH1 0x4 DUP1 CALLDATASIZE SUB DUP2 ADD SWAP1 PUSH2 0x45A SWAP2 SWAP1 PUSH2 0x1CD9 JUMP JUMPDEST PUSH2 0x9B7 JUMP JUMPDEST STOP JUMPDEST CALLVALUE DUP1 ISZERO PUSH2 0x46D JUMPI PUSH1 0x0 DUP1 REVERT JUMPDEST POP PUSH2 0x476 PUSH2 0xA4D JUMP JUMPDEST PUSH1 0x40 MLOAD PUSH2 0x483 SWAP2 SWAP1 PUSH2 0x19E7 JUMP JUMPDEST PUSH1 0x40 MLOAD DUP1 SWAP2 SUB SWAP1 RETURN JUMPDEST PUSH2 0x494 PUSH2 0xAEE JUMP JUMPDEST STOP JUMPDEST CALLVALUE DUP1 ISZERO PUSH2 0x4A2 JUMPI PUSH1 0x0 DUP1 REVERT JUMPDEST POP PUSH2 0x4BD PUSH1 0x4 DUP1 CALLDATASIZE SUB DUP2 ADD SWAP1 PUSH2 0x4B8 SWAP2 SWAP1 PUSH2 0x1D06 JUMP JUMPDEST PUSH2 0xB7C JUMP JUMPDEST PUSH1 0x40 MLOAD PUSH2 0x4CA SWAP2 SWAP1 PUSH2 0x19E7 JUMP JUMPDEST PUSH1 0x40 MLOAD DUP1 SWAP2 SUB SWAP1 RETURN JUMPDEST CALLVALUE DUP1 ISZERO PUSH2 0x4DF JUMPI PUSH1 0x0 DUP1 REVERT JUMPDEST POP PUSH2 0x4FA PUSH1 0x4 DUP1 CALLDATASIZE SUB DUP2 ADD SWAP1 PUSH2 0x4F5 SWAP2 SWAP1 PUSH2 0x1962 JUMP JUMPDEST PUSH2 0xC03 JUMP JUMPDEST STOP JUMPDEST CALLVALUE DUP1 ISZERO PUSH2 0x508 JUMPI PUSH1 0x0 DUP1 REVERT JUMPDEST POP PUSH2 0x523 PUSH1 0x4 DUP1 CALLDATASIZE SUB DUP2 ADD SWAP1 PUSH2 0x51E SWAP2 SWAP1 PUSH2 0x1B0A JUMP JUMPDEST PUSH2 0xC19 JUMP JUMPDEST STOP JUMPDEST CALLVALUE DUP1 ISZERO PUSH2 0x531 JUMPI PUSH1 0x0 DUP1 REVERT JUMPDEST POP PUSH2 0x54C PUSH1 0x4 DUP1 CALLDATASIZE SUB DUP2 ADD SWAP1 PUSH2 0x547 SWAP2 SWAP1 PUSH2 0x1DA1 JUMP JUMPDEST PUSH2 0xC6B JUMP JUMPDEST PUSH1 0x40 MLOAD PUSH2 0x55A SWAP3 SWAP2 SWAP1 PUSH2 0x1E65 JUMP JUMPDEST PUSH1 0x40 MLOAD DUP1 SWAP2 SUB SWAP1 RETURN JUMPDEST PUSH2 0x56B PUSH2 0xC8E JUMP JUMPDEST PUSH32 0x0 PUSH20 0xFFFFFFFFFFFFFFFFFFFFFFFFFFFFFFFFFFFFFFFF AND PUSH4 0x396CB60 CALLVALUE DUP4 PUSH1 0x40 MLOAD DUP4 PUSH4 0xFFFFFFFF AND PUSH1 0xE0 SHL DUP2 MSTORE PUSH1 0x4 ADD PUSH2 0x5C5 SWAP2 SWAP1 PUSH2 0x1EA4 JUMP JUMPDEST PUSH1 0x0 PUSH1 0x40 MLOAD DUP1 DUP4 SUB DUP2 DUP6 DUP9 DUP1 EXTCODESIZE ISZERO DUP1 ISZERO PUSH2 0x5DE JUMPI PUSH1 0x0 DUP1 REVERT JUMPDEST POP GAS CALL ISZERO DUP1 ISZERO PUSH2 0x5F2 JUMPI RETURNDATASIZE PUSH1 0x0 DUP1 RETURNDATACOPY RETURNDATASIZE PUSH1 0x0 REVERT JUMPDEST POP POP POP POP POP POP JUMP JUMPDEST PUSH1 0x60 PUSH1 0x4 DUP1 SLOAD PUSH2 0x609 SWAP1 PUSH2 0x1EEE JUMP JUMPDEST DUP1 PUSH1 0x1F ADD PUSH1 0x20 DUP1 SWAP2 DIV MUL PUSH1 0x20 ADD PUSH1 0x40 MLOAD SWAP1 DUP2 ADD PUSH1 0x40 MSTORE DUP1 SWAP3 SWAP2 SWAP1 DUP2 DUP2 MSTORE PUSH1 0x20 ADD DUP3 DUP1 SLOAD PUSH2 0x635 SWAP1 PUSH2 0x1EEE JUMP JUMPDEST DUP1 ISZERO PUSH2 0x682 JUMPI DUP1 PUSH1 0x1F LT PUSH2 0x657 JUMPI PUSH2 0x100 DUP1 DUP4 SLOAD DIV MUL DUP4 MSTORE SWAP2 PUSH1 0x20 ADD SWAP2 PUSH2 0x682 JUMP JUMPDEST DUP3 ADD SWAP2 SWAP1 PUSH1 0x0 MSTORE PUSH1 0x20 PUSH1 0x0 KECCAK256 SWAP1 JUMPDEST DUP2 SLOAD DUP2 MSTORE SWAP1 PUSH1 0x1 ADD SWAP1 PUSH1 0x20 ADD DUP1 DUP4 GT PUSH2 0x665 JUMPI DUP3 SWAP1 SUB PUSH1 0x1F AND DUP3 ADD SWAP2 JUMPDEST POP POP POP POP POP SWAP1 POP SWAP1 JUMP JUMPDEST PUSH1 0x0 DUP1 PUSH2 0x697 PUSH2 0xD15 JUMP JUMPDEST SWAP1 POP PUSH2 0x6A4 DUP2 DUP6 DUP6 PUSH2 0xD1D JUMP JUMPDEST PUSH1 0x1 SWAP2 POP POP SWAP3 SWAP2 POP POP JUMP JUMPDEST PUSH1 0x0 PUSH1 0x3 SLOAD SWAP1 POP SWAP1 JUMP JUMPDEST PUSH2 0x6C1 PUSH2 0xC8E JUMP JUMPDEST PUSH32 0x0 PUSH20 0xFFFFFFFFFFFFFFFFFFFFFFFFFFFFFFFFFFFFFFFF AND PUSH4 0x205C2878 DUP4 DUP4 PUSH1 0x40 MLOAD DUP4 PUSH4 0xFFFFFFFF AND PUSH1 0xE0 SHL DUP2 MSTORE PUSH1 0x4 ADD PUSH2 0x71C SWAP3 SWAP2 SWAP1 PUSH2 0x1F2E JUMP JUMPDEST PUSH1 0x0 PUSH1 0x40 MLOAD DUP1 DUP4 SUB DUP2 PUSH1 0x0 DUP8 DUP1 EXTCODESIZE ISZERO DUP1 ISZERO PUSH2 0x736 JUMPI PUSH1 0x0 DUP1 REVERT JUMPDEST POP GAS CALL ISZERO DUP1 ISZERO PUSH2 0x74A JUMPI RETURNDATASIZE PUSH1 0x0 DUP1 RETURNDATACOPY RETURNDATASIZE PUSH1 0x0 REVERT JUMPDEST POP POP POP POP POP POP JUMP JUMPDEST PUSH1 0x0 DUP1 PUSH2 0x75D PUSH2 0xD15 JUMP JUMPDEST SWAP1 POP PUSH2 0x76A DUP6 DUP3 DUP6 PUSH2 0xD2F JUMP JUMPDEST PUSH2 0x775 DUP6 DUP6 DUP6 PUSH2 0xDC3 JUMP JUMPDEST PUSH1 0x1 SWAP2 POP POP SWAP4 SWAP3 POP POP POP JUMP JUMPDEST PUSH1 0x0 PUSH1 0x12 SWAP1 POP SWAP1 JUMP JUMPDEST PUSH1 0x0 PUSH1 0x1 PUSH1 0x0 DUP4 PUSH20 0xFFFFFFFFFFFFFFFFFFFFFFFFFFFFFFFFFFFFFFFF AND PUSH20 0xFFFFFFFFFFFFFFFFFFFFFFFFFFFFFFFFFFFFFFFF AND DUP2 MSTORE PUSH1 0x20 ADD SWAP1 DUP2 MSTORE PUSH1 0x20 ADD PUSH1 0x0 KECCAK256 SLOAD SWAP1 POP SWAP2 SWAP1 POP JUMP JUMPDEST PUSH2 0x7DB PUSH2 0xC8E JUMP JUMPDEST PUSH2 0x7E5 PUSH1 0x0 PUSH2 0xEB7 JUMP JUMPDEST JUMP JUMPDEST PUSH2 0x3A98 DUP2 JUMP JUMPDEST PUSH1 0x0 DUP1 PUSH1 0x0 SWAP1 SLOAD SWAP1 PUSH2 0x100 EXP SWAP1 DIV PUSH20 0xFFFFFFFFFFFFFFFFFFFFFFFFFFFFFFFFFFFFFFFF AND SWAP1 POP SWAP1 JUMP JUMPDEST PUSH1 0x60 PUSH1 0x5 DUP1 SLOAD PUSH2 0x825 SWAP1 PUSH2 0x1EEE JUMP JUMPDEST DUP1 PUSH1 0x1F ADD PUSH1 0x20 DUP1 SWAP2 DIV MUL PUSH1 0x20 ADD PUSH1 0x40 MLOAD SWAP1 DUP2 ADD PUSH1 0x40 MSTORE DUP1 SWAP3 SWAP2 SWAP1 DUP2 DUP2 MSTORE PUSH1 0x20 ADD DUP3 DUP1 SLOAD PUSH2 0x851 SWAP1 PUSH2 0x1EEE JUMP JUMPDEST DUP1 ISZERO PUSH2 0x89E JUMPI DUP1 PUSH1 0x1F LT PUSH2 0x873 JUMPI PUSH2 0x100 DUP1 DUP4 SLOAD DIV MUL DUP4 MSTORE SWAP2 PUSH1 0x20 ADD SWAP2 PUSH2 0x89E JUMP JUMPDEST DUP3 ADD SWAP2 SWAP1 PUSH1 0x0 MSTORE PUSH1 0x20 PUSH1 0x0 KECCAK256 SWAP1 JUMPDEST DUP2 SLOAD DUP2 MSTORE SWAP1 PUSH1 0x1 ADD SWAP1 PUSH1 0x20 ADD DUP1 DUP4 GT PUSH2 0x881 JUMPI DUP3 SWAP1 SUB PUSH1 0x1F AND DUP3 ADD SWAP2 JUMPDEST POP POP POP POP POP SWAP1 POP SWAP1 JUMP JUMPDEST PUSH32 0x0 DUP2 JUMP JUMPDEST PUSH1 0x0 DUP1 PUSH2 0x8D7 PUSH2 0xD15 JUMP JUMPDEST SWAP1 POP PUSH2 0x8E4 DUP2 DUP6 DUP6 PUSH2 0xDC3 JUMP JUMPDEST PUSH1 0x1 SWAP2 POP POP SWAP3 SWAP2 POP POP JUMP JUMPDEST PUSH2 0x8F7 PUSH2 0xF7B JUMP JUMPDEST PUSH2 0x903 DUP5 DUP5 DUP5 DUP5 PUSH2 0x100B JUMP JUMPDEST POP POP POP POP JUMP JUMPDEST PUSH32 0x0 DUP2 JUMP JUMPDEST PUSH2 0x935 PUSH2 0xC8E JUMP JUMPDEST PUSH32 0x0 PUSH20 0xFFFFFFFFFFFFFFFFFFFFFFFFFFFFFFFFFFFFFFFF AND PUSH4 0xBB9FE6BF PUSH1 0x40 MLOAD DUP2 PUSH4 0xFFFFFFFF AND PUSH1 0xE0 SHL DUP2 MSTORE PUSH1 0x4 ADD PUSH1 0x0 PUSH1 0x40 MLOAD DUP1 DUP4 SUB DUP2 PUSH1 0x0 DUP8 DUP1 EXTCODESIZE ISZERO DUP1 ISZERO PUSH2 0x99D JUMPI PUSH1 0x0 DUP1 REVERT JUMPDEST POP GAS CALL ISZERO DUP1 ISZERO PUSH2 0x9B1 JUMPI RETURNDATASIZE PUSH1 0x0 DUP1 RETURNDATACOPY RETURNDATASIZE PUSH1 0x0 REVERT JUMPDEST POP POP POP POP JUMP JUMPDEST PUSH2 0x9BF PUSH2 0xC8E JUMP JUMPDEST PUSH32 0x0 PUSH20 0xFFFFFFFFFFFFFFFFFFFFFFFFFFFFFFFFFFFFFFFF AND PUSH4 0xC23A5CEA DUP3 PUSH1 0x40 MLOAD DUP3 PUSH4 0xFFFFFFFF AND PUSH1 0xE0 SHL DUP2 MSTORE PUSH1 0x4 ADD PUSH2 0xA18 SWAP2 SWAP1 PUSH2 0x1F57 JUMP JUMPDEST PUSH1 0x0 PUSH1 0x40 MLOAD DUP1 DUP4 SUB DUP2 PUSH1 0x0 DUP8 DUP1 EXTCODESIZE ISZERO DUP1 ISZERO PUSH2 0xA32 JUMPI PUSH1 0x0 DUP1 REVERT JUMPDEST POP GAS CALL ISZERO DUP1 ISZERO PUSH2 0xA46 JUMPI RETURNDATASIZE PUSH1 0x0 DUP1 RETURNDATACOPY RETURNDATASIZE PUSH1 0x0 REVERT JUMPDEST POP POP POP POP POP JUMP JUMPDEST PUSH1 0x0 PUSH32 0x0 PUSH20 0xFFFFFFFFFFFFFFFFFFFFFFFFFFFFFFFFFFFFFFFF AND PUSH4 0x70A08231 ADDRESS PUSH1 0x40 MLOAD DUP3 PUSH4 0xFFFFFFFF AND PUSH1 0xE0 SHL DUP2 MSTORE PUSH1 0x4 ADD PUSH2 0xAA8 SWAP2 SWAP1 PUSH2 0x1B46 JUMP JUMPDEST PUSH1 0x20 PUSH1 0x40 MLOAD DUP1 DUP4 SUB DUP2 DUP7 GAS STATICCALL ISZERO DUP1 ISZERO PUSH2 0xAC5 JUMPI RETURNDATASIZE PUSH1 0x0 DUP1 RETURNDATACOPY RETURNDATASIZE PUSH1 0x0 REVERT JUMPDEST POP POP POP POP PUSH1 0x40 MLOAD RETURNDATASIZE PUSH1 0x1F NOT PUSH1 0x1F DUP3 ADD AND DUP3 ADD DUP1 PUSH1 0x40 MSTORE POP DUP2 ADD SWAP1 PUSH2 0xAE9 SWAP2 SWAP1 PUSH2 0x1F87 JUMP JUMPDEST SWAP1 POP SWAP1 JUMP JUMPDEST PUSH32 0x0 PUSH20 0xFFFFFFFFFFFFFFFFFFFFFFFFFFFFFFFFFFFFFFFF AND PUSH4 0xB760FAF9 CALLVALUE ADDRESS PUSH1 0x40 MLOAD DUP4 PUSH4 0xFFFFFFFF AND PUSH1 0xE0 SHL DUP2 MSTORE PUSH1 0x4 ADD PUSH2 0xB48 SWAP2 SWAP1 PUSH2 0x1B46 JUMP JUMPDEST PUSH1 0x0 PUSH1 0x40 MLOAD DUP1 DUP4 SUB DUP2 DUP6 DUP9 DUP1 EXTCODESIZE ISZERO DUP1 ISZERO PUSH2 0xB61 JUMPI PUSH1 0x0 DUP1 REVERT JUMPDEST POP GAS CALL ISZERO DUP1 ISZERO PUSH2 0xB75 JUMPI RETURNDATASIZE PUSH1 0x0 DUP1 RETURNDATACOPY RETURNDATASIZE PUSH1 0x0 REVERT JUMPDEST POP POP POP POP POP JUMP JUMPDEST PUSH1 0x0 PUSH1 0x2 PUSH1 0x0 DUP5 PUSH20 0xFFFFFFFFFFFFFFFFFFFFFFFFFFFFFFFFFFFFFFFF AND PUSH20 0xFFFFFFFFFFFFFFFFFFFFFFFFFFFFFFFFFFFFFFFF AND DUP2 MSTORE PUSH1 0x20 ADD SWAP1 DUP2 MSTORE PUSH1 0x20 ADD PUSH1 0x0 KECCAK256 PUSH1 0x0 DUP4 PUSH20 0xFFFFFFFFFFFFFFFFFFFFFFFFFFFFFFFFFFFFFFFF AND PUSH20 0xFFFFFFFFFFFFFFFFFFFFFFFFFFFFFFFFFFFFFFFF AND DUP2 MSTORE PUSH1 0x20 ADD SWAP1 DUP2 MSTORE PUSH1 0x20 ADD PUSH1 0x0 KECCAK256 SLOAD SWAP1 POP SWAP3 SWAP2 POP POP JUMP JUMPDEST PUSH2 0xC0B PUSH2 0xC8E JUMP JUMPDEST PUSH2 0xC15 DUP3 DUP3 PUSH2 0x104B JUMP JUMPDEST POP POP JUMP JUMPDEST PUSH2 0xC21 PUSH2 0xC8E JUMP JUMPDEST PUSH2 0xC34 ADDRESS PUSH2 0xC2D PUSH2 0x7ED JUMP JUMPDEST PUSH1 0x0 PUSH2 0xD1D JUMP JUMPDEST PUSH2 0xC3D DUP2 PUSH2 0x10CD JUMP JUMPDEST PUSH2 0xC68 ADDRESS DUP3 PUSH32 0xFFFFFFFFFFFFFFFFFFFFFFFFFFFFFFFFFFFFFFFFFFFFFFFFFFFFFFFFFFFFFFFF PUSH2 0xD1D JUMP JUMPDEST POP JUMP JUMPDEST PUSH1 0x60 PUSH1 0x0 PUSH2 0xC77 PUSH2 0xF7B JUMP JUMPDEST PUSH2 0xC82 DUP6 DUP6 DUP6 PUSH2 0x1153 JUMP JUMPDEST SWAP2 POP SWAP2 POP SWAP4 POP SWAP4 SWAP2 POP POP JUMP JUMPDEST PUSH2 0xC96 PUSH2 0xD15 JUMP JUMPDEST PUSH20 0xFFFFFFFFFFFFFFFFFFFFFFFFFFFFFFFFFFFFFFFF AND PUSH2 0xCB4 PUSH2 0x7ED JUMP JUMPDEST PUSH20 0xFFFFFFFFFFFFFFFFFFFFFFFFFFFFFFFFFFFFFFFF AND EQ PUSH2 0xD13 JUMPI PUSH2 0xCD7 PUSH2 0xD15 JUMP JUMPDEST PUSH1 0x40 MLOAD PUSH32 0x118CDAA700000000000000000000000000000000000000000000000000000000 DUP2 MSTORE PUSH1 0x4 ADD PUSH2 0xD0A SWAP2 SWAP1 PUSH2 0x1B46 JUMP JUMPDEST PUSH1 0x40 MLOAD DUP1 SWAP2 SUB SWAP1 REVERT JUMPDEST JUMP JUMPDEST PUSH1 0x0 CALLER SWAP1 POP SWAP1 JUMP JUMPDEST PUSH2 0xD2A DUP4 DUP4 DUP4 PUSH1 0x1 PUSH2 0x12CE JUMP JUMPDEST POP POP POP JUMP JUMPDEST PUSH1 0x0 PUSH2 0xD3B DUP5 DUP5 PUSH2 0xB7C JUMP JUMPDEST SWAP1 POP PUSH32 0xFFFFFFFFFFFFFFFFFFFFFFFFFFFFFFFFFFFFFFFFFFFFFFFFFFFFFFFFFFFFFFFF DUP2 EQ PUSH2 0xDBD JUMPI DUP2 DUP2 LT ISZERO PUSH2 0xDAD JUMPI DUP3 DUP2 DUP4 PUSH1 0x40 MLOAD PUSH32 0xFB8F41B200000000000000000000000000000000000000000000000000000000 DUP2 MSTORE PUSH1 0x4 ADD PUSH2 0xDA4 SWAP4 SWAP3 SWAP2 SWAP1 PUSH2 0x1FB4 JUMP JUMPDEST PUSH1 0x40 MLOAD DUP1 SWAP2 SUB SWAP1 REVERT JUMPDEST PUSH2 0xDBC DUP5 DUP5 DUP5 DUP5 SUB PUSH1 0x0 PUSH2 0x12CE JUMP JUMPDEST JUMPDEST POP POP POP POP JUMP JUMPDEST PUSH1 0x0 PUSH20 0xFFFFFFFFFFFFFFFFFFFFFFFFFFFFFFFFFFFFFFFF AND DUP4 PUSH20 0xFFFFFFFFFFFFFFFFFFFFFFFFFFFFFFFFFFFFFFFF AND SUB PUSH2 0xE35 JUMPI PUSH1 0x0 PUSH1 0x40 MLOAD PUSH32 0x96C6FD1E00000000000000000000000000000000000000000000000000000000 DUP2 MSTORE PUSH1 0x4 ADD PUSH2 0xE2C SWAP2 SWAP1 PUSH2 0x1B46 JUMP JUMPDEST PUSH1 0x40 MLOAD DUP1 SWAP2 SUB SWAP1 REVERT JUMPDEST PUSH1 0x0 PUSH20 0xFFFFFFFFFFFFFFFFFFFFFFFFFFFFFFFFFFFFFFFF AND DUP3 PUSH20 0xFFFFFFFFFFFFFFFFFFFFFFFFFFFFFFFFFFFFFFFF AND SUB PUSH2 0xEA7 JUMPI PUSH1 0x0 PUSH1 0x40 MLOAD PUSH32 0xEC442F0500000000000000000000000000000000000000000000000000000000 DUP2 MSTORE PUSH1 0x4 ADD PUSH2 0xE9E SWAP2 SWAP1 PUSH2 0x1B46 JUMP JUMPDEST PUSH1 0x40 MLOAD DUP1 SWAP2 SUB SWAP1 REVERT JUMPDEST PUSH2 0xEB2 DUP4 DUP4 DUP4 PUSH2 0x14A5 JUMP JUMPDEST POP POP POP JUMP JUMPDEST PUSH1 0x0 DUP1 PUSH1 0x0 SWAP1 SLOAD SWAP1 PUSH2 0x100 EXP SWAP1 DIV PUSH20 0xFFFFFFFFFFFFFFFFFFFFFFFFFFFFFFFFFFFFFFFF AND SWAP1 POP DUP2 PUSH1 0x0 DUP1 PUSH2 0x100 EXP DUP2 SLOAD DUP2 PUSH20 0xFFFFFFFFFFFFFFFFFFFFFFFFFFFFFFFFFFFFFFFF MUL NOT AND SWAP1 DUP4 PUSH20 0xFFFFFFFFFFFFFFFFFFFFFFFFFFFFFFFFFFFFFFFF AND MUL OR SWAP1 SSTORE POP DUP2 PUSH20 0xFFFFFFFFFFFFFFFFFFFFFFFFFFFFFFFFFFFFFFFF AND DUP2 PUSH20 0xFFFFFFFFFFFFFFFFFFFFFFFFFFFFFFFFFFFFFFFF AND PUSH32 0x8BE0079C531659141344CD1FD0A4F28419497F9722A3DAAFE3B4186F6B6457E0 PUSH1 0x40 MLOAD PUSH1 0x40 MLOAD DUP1 SWAP2 SUB SWAP1 LOG3 POP POP JUMP JUMPDEST PUSH32 0x0 PUSH20 0xFFFFFFFFFFFFFFFFFFFFFFFFFFFFFFFFFFFFFFFF AND CALLER PUSH20 0xFFFFFFFFFFFFFFFFFFFFFFFFFFFFFFFFFFFFFFFF AND EQ PUSH2 0x1009 JUMPI PUSH1 0x40 MLOAD PUSH32 0x8C379A000000000000000000000000000000000000000000000000000000000 DUP2 MSTORE PUSH1 0x4 ADD PUSH2 0x1000 SWAP1 PUSH2 0x2037 JUMP JUMPDEST PUSH1 0x40 MLOAD DUP1 SWAP2 SUB SWAP1 REVERT JUMPDEST JUMP JUMPDEST PUSH1 0x0 DUP4 DUP4 DUP2 ADD SWAP1 PUSH2 0x101C SWAP2 SWAP1 PUSH2 0x1CD9 JUMP JUMPDEST SWAP1 POP PUSH1 0x0 PUSH2 0x1036 PUSH2 0x3A98 DUP5 PUSH2 0x1031 SWAP2 SWAP1 PUSH2 0x2086 JUMP JUMPDEST PUSH2 0x16CD JUMP JUMPDEST SWAP1 POP PUSH2 0x1043 DUP3 ADDRESS DUP4 PUSH2 0xDC3 JUMP JUMPDEST POP POP POP POP POP POP JUMP JUMPDEST PUSH1 0x0 PUSH20 0xFFFFFFFFFFFFFFFFFFFFFFFFFFFFFFFFFFFFFFFF AND DUP3 PUSH20 0xFFFFFFFFFFFFFFFFFFFFFFFFFFFFFFFFFFFFFFFF AND SUB PUSH2 0x10BD JUMPI PUSH1 0x0 PUSH1 0x40 MLOAD PUSH32 0xEC442F0500000000000000000000000000000000000000000000000000000000 DUP2 MSTORE PUSH1 0x4 ADD PUSH2 0x10B4 SWAP2 SWAP1 PUSH2 0x1B46 JUMP JUMPDEST PUSH1 0x40 MLOAD DUP1 SWAP2 SUB SWAP1 REVERT JUMPDEST PUSH2 0x10C9 PUSH1 0x0 DUP4 DUP4 PUSH2 0x14A5 JUMP JUMPDEST POP POP JUMP JUMPDEST PUSH2 0x10D5 PUSH2 0xC8E JUMP JUMPDEST PUSH1 0x0 PUSH20 0xFFFFFFFFFFFFFFFFFFFFFFFFFFFFFFFFFFFFFFFF AND DUP2 PUSH20 0xFFFFFFFFFFFFFFFFFFFFFFFFFFFFFFFFFFFFFFFF AND SUB PUSH2 0x1147 JUMPI PUSH1 0x0 PUSH1 0x40 MLOAD PUSH32 0x1E4FBDF700000000000000000000000000000000000000000000000000000000 DUP2 MSTORE PUSH1 0x4 ADD PUSH2 0x113E SWAP2 SWAP1 PUSH2 0x1B46 JUMP JUMPDEST PUSH1 0x40 MLOAD DUP1 SWAP2 SUB SWAP1 REVERT JUMPDEST PUSH2 0x1150 DUP2 PUSH2 0xEB7 JUMP JUMPDEST POP JUMP JUMPDEST PUSH1 0x60 PUSH1 0x0 DUP1 PUSH2 0x1161 DUP5 PUSH2 0x16CD JUMP JUMPDEST SWAP1 POP PUSH2 0x3A98 DUP7 PUSH1 0xA0 ADD CALLDATALOAD GT PUSH2 0x11AB JUMPI PUSH1 0x40 MLOAD PUSH32 0x8C379A000000000000000000000000000000000000000000000000000000000 DUP2 MSTORE PUSH1 0x4 ADD PUSH2 0x11A2 SWAP1 PUSH2 0x212C JUMP JUMPDEST PUSH1 0x40 MLOAD DUP1 SWAP2 SUB SWAP1 REVERT JUMPDEST PUSH1 0x0 DUP7 DUP1 PUSH1 0x40 ADD SWAP1 PUSH2 0x11BD SWAP2 SWAP1 PUSH2 0x215B JUMP JUMPDEST SWAP1 POP EQ PUSH2 0x122F JUMPI PUSH2 0x11CD DUP7 PUSH2 0x16E3 JUMP JUMPDEST DUP1 PUSH2 0x11E9 DUP8 PUSH1 0x0 ADD PUSH1 0x20 DUP2 ADD SWAP1 PUSH2 0x11E4 SWAP2 SWAP1 PUSH2 0x1B0A JUMP JUMPDEST PUSH2 0x78A JUMP JUMPDEST LT ISZERO PUSH2 0x122A JUMPI PUSH1 0x40 MLOAD PUSH32 0x8C379A000000000000000000000000000000000000000000000000000000000 DUP2 MSTORE PUSH1 0x4 ADD PUSH2 0x1221 SWAP1 PUSH2 0x2230 JUMP JUMPDEST PUSH1 0x40 MLOAD DUP1 SWAP2 SUB SWAP1 REVERT JUMPDEST PUSH2 0x128D JUMP JUMPDEST DUP1 PUSH2 0x124B DUP8 PUSH1 0x0 ADD PUSH1 0x20 DUP2 ADD SWAP1 PUSH2 0x1246 SWAP2 SWAP1 PUSH2 0x1B0A JUMP JUMPDEST PUSH2 0x78A JUMP JUMPDEST LT ISZERO PUSH2 0x128C JUMPI PUSH1 0x40 MLOAD PUSH32 0x8C379A000000000000000000000000000000000000000000000000000000000 DUP2 MSTORE PUSH1 0x4 ADD PUSH2 0x1283 SWAP1 PUSH2 0x229C JUMP JUMPDEST PUSH1 0x40 MLOAD DUP1 SWAP2 SUB SWAP1 REVERT JUMPDEST JUMPDEST DUP6 PUSH1 0x0 ADD PUSH1 0x20 DUP2 ADD SWAP1 PUSH2 0x12A0 SWAP2 SWAP1 PUSH2 0x1B0A JUMP JUMPDEST PUSH1 0x40 MLOAD PUSH1 0x20 ADD PUSH2 0x12B0 SWAP2 SWAP1 PUSH2 0x1B46 JUMP JUMPDEST PUSH1 0x40 MLOAD PUSH1 0x20 DUP2 DUP4 SUB SUB DUP2 MSTORE SWAP1 PUSH1 0x40 MSTORE PUSH1 0x0 SWAP3 POP SWAP3 POP POP SWAP4 POP SWAP4 SWAP2 POP POP JUMP JUMPDEST PUSH1 0x0 PUSH20 0xFFFFFFFFFFFFFFFFFFFFFFFFFFFFFFFFFFFFFFFF AND DUP5 PUSH20 0xFFFFFFFFFFFFFFFFFFFFFFFFFFFFFFFFFFFFFFFF AND SUB PUSH2 0x1340 JUMPI PUSH1 0x0 PUSH1 0x40 MLOAD PUSH32 0xE602DF0500000000000000000000000000000000000000000000000000000000 DUP2 MSTORE PUSH1 0x4 ADD PUSH2 0x1337 SWAP2 SWAP1 PUSH2 0x1B46 JUMP JUMPDEST PUSH1 0x40 MLOAD DUP1 SWAP2 SUB SWAP1 REVERT JUMPDEST PUSH1 0x0 PUSH20 0xFFFFFFFFFFFFFFFFFFFFFFFFFFFFFFFFFFFFFFFF AND DUP4 PUSH20 0xFFFFFFFFFFFFFFFFFFFFFFFFFFFFFFFFFFFFFFFF AND SUB PUSH2 0x13B2 JUMPI PUSH1 0x0 PUSH1 0x40 MLOAD PUSH32 0x94280D6200000000000000000000000000000000000000000000000000000000 DUP2 MSTORE PUSH1 0x4 ADD PUSH2 0x13A9 SWAP2 SWAP1 PUSH2 0x1B46 JUMP JUMPDEST PUSH1 0x40 MLOAD DUP1 SWAP2 SUB SWAP1 REVERT JUMPDEST DUP2 PUSH1 0x2 PUSH1 0x0 DUP7 PUSH20 0xFFFFFFFFFFFFFFFFFFFFFFFFFFFFFFFFFFFFFFFF AND PUSH20 0xFFFFFFFFFFFFFFFFFFFFFFFFFFFFFFFFFFFFFFFF AND DUP2 MSTORE PUSH1 0x20 ADD SWAP1 DUP2 MSTORE PUSH1 0x20 ADD PUSH1 0x0 KECCAK256 PUSH1 0x0 DUP6 PUSH20 0xFFFFFFFFFFFFFFFFFFFFFFFFFFFFFFFFFFFFFFFF AND PUSH20 0xFFFFFFFFFFFFFFFFFFFFFFFFFFFFFFFFFFFFFFFF AND DUP2 MSTORE PUSH1 0x20 ADD SWAP1 DUP2 MSTORE PUSH1 0x20 ADD PUSH1 0x0 KECCAK256 DUP2 SWAP1 SSTORE POP DUP1 ISZERO PUSH2 0x149F JUMPI DUP3 PUSH20 0xFFFFFFFFFFFFFFFFFFFFFFFFFFFFFFFFFFFFFFFF AND DUP5 PUSH20 0xFFFFFFFFFFFFFFFFFFFFFFFFFFFFFFFFFFFFFFFF AND PUSH32 0x8C5BE1E5EBEC7D5BD14F71427D1E84F3DD0314C0F7B2291E5B200AC8C7C3B925 DUP5 PUSH1 0x40 MLOAD PUSH2 0x1496 SWAP2 SWAP1 PUSH2 0x19E7 JUMP JUMPDEST PUSH1 0x40 MLOAD DUP1 SWAP2 SUB SWAP1 LOG3 JUMPDEST POP POP POP POP JUMP JUMPDEST PUSH1 0x0 PUSH20 0xFFFFFFFFFFFFFFFFFFFFFFFFFFFFFFFFFFFFFFFF AND DUP4 PUSH20 0xFFFFFFFFFFFFFFFFFFFFFFFFFFFFFFFFFFFFFFFF AND SUB PUSH2 0x14F7 JUMPI DUP1 PUSH1 0x3 PUSH1 0x0 DUP3 DUP3 SLOAD PUSH2 0x14EB SWAP2 SWAP1 PUSH2 0x2086 JUMP JUMPDEST SWAP3 POP POP DUP2 SWAP1 SSTORE POP PUSH2 0x15CC JUMP JUMPDEST PUSH1 0x0 PUSH1 0x1 PUSH1 0x0 DUP6 PUSH20 0xFFFFFFFFFFFFFFFFFFFFFFFFFFFFFFFFFFFFFFFF AND PUSH20 0xFFFFFFFFFFFFFFFFFFFFFFFFFFFFFFFFFFFFFFFF AND DUP2 MSTORE PUSH1 0x20 ADD SWAP1 DUP2 MSTORE PUSH1 0x20 ADD PUSH1 0x0 KECCAK256 SLOAD SWAP1 POP DUP2 DUP2 LT ISZERO PUSH2 0x1584 JUMPI DUP4 DUP2 DUP4 PUSH1 0x40 MLOAD PUSH32 0xE450D38C00000000000000000000000000000000000000000000000000000000 DUP2 MSTORE PUSH1 0x4 ADD PUSH2 0x157B SWAP4 SWAP3 SWAP2 SWAP1 PUSH2 0x1FB4 JUMP JUMPDEST PUSH1 0x40 MLOAD DUP1 SWAP2 SUB SWAP1 REVERT JUMPDEST DUP2 DUP2 SUB PUSH1 0x1 PUSH1 0x0 DUP7 PUSH20 0xFFFFFFFFFFFFFFFFFFFFFFFFFFFFFFFFFFFFFFFF AND PUSH20 0xFFFFFFFFFFFFFFFFFFFFFFFFFFFFFFFFFFFFFFFF AND DUP2 MSTORE PUSH1 0x20 ADD SWAP1 DUP2 MSTORE PUSH1 0x20 ADD PUSH1 0x0 KECCAK256 DUP2 SWAP1 SSTORE POP POP JUMPDEST PUSH1 0x0 PUSH20 0xFFFFFFFFFFFFFFFFFFFFFFFFFFFFFFFFFFFFFFFF AND DUP3 PUSH20 0xFFFFFFFFFFFFFFFFFFFFFFFFFFFFFFFFFFFFFFFF AND SUB PUSH2 0x1615 JUMPI DUP1 PUSH1 0x3 PUSH1 0x0 DUP3 DUP3 SLOAD SUB SWAP3 POP POP DUP2 SWAP1 SSTORE POP PUSH2 0x1663 JUMP JUMPDEST DUP1 PUSH1 0x1 PUSH1 0x0 DUP5 PUSH20 0xFFFFFFFFFFFFFFFFFFFFFFFFFFFFFFFFFFFFFFFF AND PUSH20 0xFFFFFFFFFFFFFFFFFFFFFFFFFFFFFFFFFFFFFFFF AND DUP2 MSTORE PUSH1 0x20 ADD SWAP1 DUP2 MSTORE PUSH1 0x20 ADD PUSH1 0x0 KECCAK256 PUSH1 0x0 DUP3 DUP3 SLOAD ADD SWAP3 POP POP DUP2 SWAP1 SSTORE POP JUMPDEST DUP2 PUSH20 0xFFFFFFFFFFFFFFFFFFFFFFFFFFFFFFFFFFFFFFFF AND DUP4 PUSH20 0xFFFFFFFFFFFFFFFFFFFFFFFFFFFFFFFFFFFFFFFF AND PUSH32 0xDDF252AD1BE2C89B69C2B068FC378DAA952BA7F163C4A11628F55A4DF523B3EF DUP4 PUSH1 0x40 MLOAD PUSH2 0x16C0 SWAP2 SWAP1 PUSH2 0x19E7 JUMP JUMPDEST PUSH1 0x40 MLOAD DUP1 SWAP2 SUB SWAP1 LOG3 POP POP POP JUMP JUMPDEST PUSH1 0x0 PUSH1 0x64 DUP3 PUSH2 0x16DC SWAP2 SWAP1 PUSH2 0x22EB JUMP JUMPDEST SWAP1 POP SWAP2 SWAP1 POP JUMP JUMPDEST PUSH1 0x0 DUP2 DUP1 PUSH1 0x40 ADD SWAP1 PUSH2 0x16F5 SWAP2 SWAP1 PUSH2 0x215B JUMP JUMPDEST PUSH1 0x0 SWAP1 PUSH1 0x14 SWAP3 PUSH2 0x1707 SWAP4 SWAP3 SWAP2 SWAP1 PUSH2 0x2326 JUMP JUMPDEST SWAP1 PUSH2 0x1712 SWAP2 SWAP1 PUSH2 0x23A5 JUMP JUMPDEST PUSH1 0x60 SHR SWAP1 POP PUSH32 0x0 PUSH20 0xFFFFFFFFFFFFFFFFFFFFFFFFFFFFFFFFFFFFFFFF AND DUP2 PUSH20 0xFFFFFFFFFFFFFFFFFFFFFFFFFFFFFFFFFFFFFFFF AND EQ PUSH2 0x17A5 JUMPI PUSH1 0x40 MLOAD PUSH32 0x8C379A000000000000000000000000000000000000000000000000000000000 DUP2 MSTORE PUSH1 0x4 ADD PUSH2 0x179C SWAP1 PUSH2 0x2476 JUMP JUMPDEST PUSH1 0x40 MLOAD DUP1 SWAP2 SUB SWAP1 REVERT JUMPDEST POP POP JUMP JUMPDEST PUSH1 0x0 DUP1 REVERT JUMPDEST PUSH1 0x0 DUP1 REVERT JUMPDEST PUSH1 0x0 PUSH4 0xFFFFFFFF DUP3 AND SWAP1 POP SWAP2 SWAP1 POP JUMP JUMPDEST PUSH2 0x17CC DUP2 PUSH2 0x17B3 JUMP JUMPDEST DUP2 EQ PUSH2 0x17D7 JUMPI PUSH1 0x0 DUP1 REVERT JUMPDEST POP JUMP JUMPDEST PUSH1 0x0 DUP2 CALLDATALOAD SWAP1 POP PUSH2 0x17E9 DUP2 PUSH2 0x17C3 JUMP JUMPDEST SWAP3 SWAP2 POP POP JUMP JUMPDEST PUSH1 0x0 PUSH1 0x20 DUP3 DUP5 SUB SLT ISZERO PUSH2 0x1805 JUMPI PUSH2 0x1804 PUSH2 0x17A9 JUMP JUMPDEST JUMPDEST PUSH1 0x0 PUSH2 0x1813 DUP5 DUP3 DUP6 ADD PUSH2 0x17DA JUMP JUMPDEST SWAP2 POP POP SWAP3 SWAP2 POP POP JUMP JUMPDEST PUSH1 0x0 DUP2 MLOAD SWAP1 POP SWAP2 SWAP1 POP JUMP JUMPDEST PUSH1 0x0 DUP3 DUP3 MSTORE PUSH1 0x20 DUP3 ADD SWAP1 POP SWAP3 SWAP2 POP POP JUMP JUMPDEST PUSH1 0x0 JUMPDEST DUP4 DUP2 LT ISZERO PUSH2 0x1856 JUMPI DUP1 DUP3 ADD MLOAD DUP2 DUP5 ADD MSTORE PUSH1 0x20 DUP2 ADD SWAP1 POP PUSH2 0x183B JUMP JUMPDEST PUSH1 0x0 DUP5 DUP5 ADD MSTORE POP POP POP POP JUMP JUMPDEST PUSH1 0x0 PUSH1 0x1F NOT PUSH1 0x1F DUP4 ADD AND SWAP1 POP SWAP2 SWAP1 POP JUMP JUMPDEST PUSH1 0x0 PUSH2 0x187E DUP3 PUSH2 0x181C JUMP JUMPDEST PUSH2 0x1888 DUP2 DUP6 PUSH2 0x1827 JUMP JUMPDEST SWAP4 POP PUSH2 0x1898 DUP2 DUP6 PUSH1 0x20 DUP7 ADD PUSH2 0x1838 JUMP JUMPDEST PUSH2 0x18A1 DUP2 PUSH2 0x1862 JUMP JUMPDEST DUP5 ADD SWAP2 POP POP SWAP3 SWAP2 POP POP JUMP JUMPDEST PUSH1 0x0 PUSH1 0x20 DUP3 ADD SWAP1 POP DUP2 DUP2 SUB PUSH1 0x0 DUP4 ADD MSTORE PUSH2 0x18C6 DUP2 DUP5 PUSH2 0x1873 JUMP JUMPDEST SWAP1 POP SWAP3 SWAP2 POP POP JUMP JUMPDEST PUSH1 0x0 PUSH20 0xFFFFFFFFFFFFFFFFFFFFFFFFFFFFFFFFFFFFFFFF DUP3 AND SWAP1 POP SWAP2 SWAP1 POP JUMP JUMPDEST PUSH1 0x0 PUSH2 0x18F9 DUP3 PUSH2 0x18CE JUMP JUMPDEST SWAP1 POP SWAP2 SWAP1 POP JUMP JUMPDEST PUSH2 0x1909 DUP2 PUSH2 0x18EE JUMP JUMPDEST DUP2 EQ PUSH2 0x1914 JUMPI PUSH1 0x0 DUP1 REVERT JUMPDEST POP JUMP JUMPDEST PUSH1 0x0 DUP2 CALLDATALOAD SWAP1 POP PUSH2 0x1926 DUP2 PUSH2 0x1900 JUMP JUMPDEST SWAP3 SWAP2 POP POP JUMP JUMPDEST PUSH1 0x0 DUP2 SWAP1 POP SWAP2 SWAP1 POP JUMP JUMPDEST PUSH2 0x193F DUP2 PUSH2 0x192C JUMP JUMPDEST DUP2 EQ PUSH2 0x194A JUMPI PUSH1 0x0 DUP1 REVERT JUMPDEST POP JUMP JUMPDEST PUSH1 0x0 DUP2 CALLDATALOAD SWAP1 POP PUSH2 0x195C DUP2 PUSH2 0x1936 JUMP JUMPDEST SWAP3 SWAP2 POP POP JUMP JUMPDEST PUSH1 0x0 DUP1 PUSH1 0x40 DUP4 DUP6 SUB SLT ISZERO PUSH2 0x1979 JUMPI PUSH2 0x1978 PUSH2 0x17A9 JUMP JUMPDEST JUMPDEST PUSH1 0x0 PUSH2 0x1987 DUP6 DUP3 DUP7 ADD PUSH2 0x1917 JUMP JUMPDEST SWAP3 POP POP PUSH1 0x20 PUSH2 0x1998 DUP6 DUP3 DUP7 ADD PUSH2 0x194D JUMP JUMPDEST SWAP2 POP POP SWAP3 POP SWAP3 SWAP1 POP JUMP JUMPDEST PUSH1 0x0 DUP2 ISZERO ISZERO SWAP1 POP SWAP2 SWAP1 POP JUMP JUMPDEST PUSH2 0x19B7 DUP2 PUSH2 0x19A2 JUMP JUMPDEST DUP3 MSTORE POP POP JUMP JUMPDEST PUSH1 0x0 PUSH1 0x20 DUP3 ADD SWAP1 POP PUSH2 0x19D2 PUSH1 0x0 DUP4 ADD DUP5 PUSH2 0x19AE JUMP JUMPDEST SWAP3 SWAP2 POP POP JUMP JUMPDEST PUSH2 0x19E1 DUP2 PUSH2 0x192C JUMP JUMPDEST DUP3 MSTORE POP POP JUMP JUMPDEST PUSH1 0x0 PUSH1 0x20 DUP3 ADD SWAP1 POP PUSH2 0x19FC PUSH1 0x0 DUP4 ADD DUP5 PUSH2 0x19D8 JUMP JUMPDEST SWAP3 SWAP2 POP POP JUMP JUMPDEST PUSH1 0x0 PUSH2 0x1A0D DUP3 PUSH2 0x18CE JUMP JUMPDEST SWAP1 POP SWAP2 SWAP1 POP JUMP JUMPDEST PUSH2 0x1A1D DUP2 PUSH2 0x1A02 JUMP JUMPDEST DUP2 EQ PUSH2 0x1A28 JUMPI PUSH1 0x0 DUP1 REVERT JUMPDEST POP JUMP JUMPDEST PUSH1 0x0 DUP2 CALLDATALOAD SWAP1 POP PUSH2 0x1A3A DUP2 PUSH2 0x1A14 JUMP JUMPDEST SWAP3 SWAP2 POP POP JUMP JUMPDEST PUSH1 0x0 DUP1 PUSH1 0x40 DUP4 DUP6 SUB SLT ISZERO PUSH2 0x1A57 JUMPI PUSH2 0x1A56 PUSH2 0x17A9 JUMP JUMPDEST JUMPDEST PUSH1 0x0 PUSH2 0x1A65 DUP6 DUP3 DUP7 ADD PUSH2 0x1A2B JUMP JUMPDEST SWAP3 POP POP PUSH1 0x20 PUSH2 0x1A76 DUP6 DUP3 DUP7 ADD PUSH2 0x194D JUMP JUMPDEST SWAP2 POP POP SWAP3 POP SWAP3 SWAP1 POP JUMP JUMPDEST PUSH1 0x0 DUP1 PUSH1 0x0 PUSH1 0x60 DUP5 DUP7 SUB SLT ISZERO PUSH2 0x1A99 JUMPI PUSH2 0x1A98 PUSH2 0x17A9 JUMP JUMPDEST JUMPDEST PUSH1 0x0 PUSH2 0x1AA7 DUP7 DUP3 DUP8 ADD PUSH2 0x1917 JUMP JUMPDEST SWAP4 POP POP PUSH1 0x20 PUSH2 0x1AB8 DUP7 DUP3 DUP8 ADD PUSH2 0x1917 JUMP JUMPDEST SWAP3 POP POP PUSH1 0x40 PUSH2 0x1AC9 DUP7 DUP3 DUP8 ADD PUSH2 0x194D JUMP JUMPDEST SWAP2 POP POP SWAP3 POP SWAP3 POP SWAP3 JUMP JUMPDEST PUSH1 0x0 PUSH1 0xFF DUP3 AND SWAP1 POP SWAP2 SWAP1 POP JUMP JUMPDEST PUSH2 0x1AE9 DUP2 PUSH2 0x1AD3 JUMP JUMPDEST DUP3 MSTORE POP POP JUMP JUMPDEST PUSH1 0x0 PUSH1 0x20 DUP3 ADD SWAP1 POP PUSH2 0x1B04 PUSH1 0x0 DUP4 ADD DUP5 PUSH2 0x1AE0 JUMP JUMPDEST SWAP3 SWAP2 POP POP JUMP JUMPDEST PUSH1 0x0 PUSH1 0x20 DUP3 DUP5 SUB SLT ISZERO PUSH2 0x1B20 JUMPI PUSH2 0x1B1F PUSH2 0x17A9 JUMP JUMPDEST JUMPDEST PUSH1 0x0 PUSH2 0x1B2E DUP5 DUP3 DUP6 ADD PUSH2 0x1917 JUMP JUMPDEST SWAP2 POP POP SWAP3 SWAP2 POP POP JUMP JUMPDEST PUSH2 0x1B40 DUP2 PUSH2 0x18EE JUMP JUMPDEST DUP3 MSTORE POP POP JUMP JUMPDEST PUSH1 0x0 PUSH1 0x20 DUP3 ADD SWAP1 POP PUSH2 0x1B5B PUSH1 0x0 DUP4 ADD DUP5 PUSH2 0x1B37 JUMP JUMPDEST SWAP3 SWAP2 POP POP JUMP JUMPDEST PUSH1 0x3 DUP2 LT PUSH2 0x1B6E JUMPI PUSH1 0x0 DUP1 REVERT JUMPDEST POP JUMP JUMPDEST PUSH1 0x0 DUP2 CALLDATALOAD SWAP1 POP PUSH2 0x1B80 DUP2 PUSH2 0x1B61 JUMP JUMPDEST SWAP3 SWAP2 POP POP JUMP JUMPDEST PUSH1 0x0 DUP1 REVERT JUMPDEST PUSH1 0x0 DUP1 REVERT JUMPDEST PUSH1 0x0 DUP1 REVERT JUMPDEST PUSH1 0x0 DUP1 DUP4 PUSH1 0x1F DUP5 ADD SLT PUSH2 0x1BAB JUMPI PUSH2 0x1BAA PUSH2 0x1B86 JUMP JUMPDEST JUMPDEST DUP3 CALLDATALOAD SWAP1 POP PUSH8 0xFFFFFFFFFFFFFFFF DUP2 GT ISZERO PUSH2 0x1BC8 JUMPI PUSH2 0x1BC7 PUSH2 0x1B8B JUMP JUMPDEST JUMPDEST PUSH1 0x20 DUP4 ADD SWAP2 POP DUP4 PUSH1 0x1 DUP3 MUL DUP4 ADD GT ISZERO PUSH2 0x1BE4 JUMPI PUSH2 0x1BE3 PUSH2 0x1B90 JUMP JUMPDEST JUMPDEST SWAP3 POP SWAP3 SWAP1 POP JUMP JUMPDEST PUSH1 0x0 DUP1 PUSH1 0x0 DUP1 PUSH1 0x60 DUP6 DUP8 SUB SLT ISZERO PUSH2 0x1C05 JUMPI PUSH2 0x1C04 PUSH2 0x17A9 JUMP JUMPDEST JUMPDEST PUSH1 0x0 PUSH2 0x1C13 DUP8 DUP3 DUP9 ADD PUSH2 0x1B71 JUMP JUMPDEST SWAP5 POP POP PUSH1 0x20 DUP6 ADD CALLDATALOAD PUSH8 0xFFFFFFFFFFFFFFFF DUP2 GT ISZERO PUSH2 0x1C34 JUMPI PUSH2 0x1C33 PUSH2 0x17AE JUMP JUMPDEST JUMPDEST PUSH2 0x1C40 DUP8 DUP3 DUP9 ADD PUSH2 0x1B95 JUMP JUMPDEST SWAP4 POP SWAP4 POP POP PUSH1 0x40 PUSH2 0x1C53 DUP8 DUP3 DUP9 ADD PUSH2 0x194D JUMP JUMPDEST SWAP2 POP POP SWAP3 SWAP6 SWAP2 SWAP5 POP SWAP3 POP JUMP JUMPDEST PUSH1 0x0 DUP2 SWAP1 POP SWAP2 SWAP1 POP JUMP JUMPDEST PUSH1 0x0 PUSH2 0x1C84 PUSH2 0x1C7F PUSH2 0x1C7A DUP5 PUSH2 0x18CE JUMP JUMPDEST PUSH2 0x1C5F JUMP JUMPDEST PUSH2 0x18CE JUMP JUMPDEST SWAP1 POP SWAP2 SWAP1 POP JUMP JUMPDEST PUSH1 0x0 PUSH2 0x1C96 DUP3 PUSH2 0x1C69 JUMP JUMPDEST SWAP1 POP SWAP2 SWAP1 POP JUMP JUMPDEST PUSH1 0x0 PUSH2 0x1CA8 DUP3 PUSH2 0x1C8B JUMP JUMPDEST SWAP1 POP SWAP2 SWAP1 POP JUMP JUMPDEST PUSH2 0x1CB8 DUP2 PUSH2 0x1C9D JUMP JUMPDEST DUP3 MSTORE POP POP JUMP JUMPDEST PUSH1 0x0 PUSH1 0x20 DUP3 ADD SWAP1 POP PUSH2 0x1CD3 PUSH1 0x0 DUP4 ADD DUP5 PUSH2 0x1CAF JUMP JUMPDEST SWAP3 SWAP2 POP POP JUMP JUMPDEST PUSH1 0x0 PUSH1 0x20 DUP3 DUP5 SUB SLT ISZERO PUSH2 0x1CEF JUMPI PUSH2 0x1CEE PUSH2 0x17A9 JUMP JUMPDEST JUMPDEST PUSH1 0x0 PUSH2 0x1CFD DUP5 DUP3 DUP6 ADD PUSH2 0x1A2B JUMP JUMPDEST SWAP2 POP POP SWAP3 SWAP2 POP POP JUMP JUMPDEST PUSH1 0x0 DUP1 PUSH1 0x40 DUP4 DUP6 SUB SLT ISZERO PUSH2 0x1D1D JUMPI PUSH2 0x1D1C PUSH2 0x17A9 JUMP JUMPDEST JUMPDEST PUSH1 0x0 PUSH2 0x1D2B DUP6 DUP3 DUP7 ADD PUSH2 0x1917 JUMP JUMPDEST SWAP3 POP POP PUSH1 0x20 PUSH2 0x1D3C DUP6 DUP3 DUP7 ADD PUSH2 0x1917 JUMP JUMPDEST SWAP2 POP POP SWAP3 POP SWAP3 SWAP1 POP JUMP JUMPDEST PUSH1 0x0 DUP1 REVERT JUMPDEST PUSH1 0x0 PUSH2 0x160 DUP3 DUP5 SUB SLT ISZERO PUSH2 0x1D62 JUMPI PUSH2 0x1D61 PUSH2 0x1D46 JUMP JUMPDEST JUMPDEST DUP2 SWAP1 POP SWAP3 SWAP2 POP POP JUMP JUMPDEST PUSH1 0x0 DUP2 SWAP1 POP SWAP2 SWAP1 POP JUMP JUMPDEST PUSH2 0x1D7E DUP2 PUSH2 0x1D6B JUMP JUMPDEST DUP2 EQ PUSH2 0x1D89 JUMPI PUSH1 0x0 DUP1 REVERT JUMPDEST POP JUMP JUMPDEST PUSH1 0x0 DUP2 CALLDATALOAD SWAP1 POP PUSH2 0x1D9B DUP2 PUSH2 0x1D75 JUMP JUMPDEST SWAP3 SWAP2 POP POP JUMP JUMPDEST PUSH1 0x0 DUP1 PUSH1 0x0 PUSH1 0x60 DUP5 DUP7 SUB SLT ISZERO PUSH2 0x1DBA JUMPI PUSH2 0x1DB9 PUSH2 0x17A9 JUMP JUMPDEST JUMPDEST PUSH1 0x0 DUP5 ADD CALLDATALOAD PUSH8 0xFFFFFFFFFFFFFFFF DUP2 GT ISZERO PUSH2 0x1DD8 JUMPI PUSH2 0x1DD7 PUSH2 0x17AE JUMP JUMPDEST JUMPDEST PUSH2 0x1DE4 DUP7 DUP3 DUP8 ADD PUSH2 0x1D4B JUMP JUMPDEST SWAP4 POP POP PUSH1 0x20 PUSH2 0x1DF5 DUP7 DUP3 DUP8 ADD PUSH2 0x1D8C JUMP JUMPDEST SWAP3 POP POP PUSH1 0x40 PUSH2 0x1E06 DUP7 DUP3 DUP8 ADD PUSH2 0x194D JUMP JUMPDEST SWAP2 POP POP SWAP3 POP SWAP3 POP SWAP3 JUMP JUMPDEST PUSH1 0x0 DUP2 MLOAD SWAP1 POP SWAP2 SWAP1 POP JUMP JUMPDEST PUSH1 0x0 DUP3 DUP3 MSTORE PUSH1 0x20 DUP3 ADD SWAP1 POP SWAP3 SWAP2 POP POP JUMP JUMPDEST PUSH1 0x0 PUSH2 0x1E37 DUP3 PUSH2 0x1E10 JUMP JUMPDEST PUSH2 0x1E41 DUP2 DUP6 PUSH2 0x1E1B JUMP JUMPDEST SWAP4 POP PUSH2 0x1E51 DUP2 DUP6 PUSH1 0x20 DUP7 ADD PUSH2 0x1838 JUMP JUMPDEST PUSH2 0x1E5A DUP2 PUSH2 0x1862 JUMP JUMPDEST DUP5 ADD SWAP2 POP POP SWAP3 SWAP2 POP POP JUMP JUMPDEST PUSH1 0x0 PUSH1 0x40 DUP3 ADD SWAP1 POP DUP2 DUP2 SUB PUSH1 0x0 DUP4 ADD MSTORE PUSH2 0x1E7F DUP2 DUP6 PUSH2 0x1E2C JUMP JUMPDEST SWAP1 POP PUSH2 0x1E8E PUSH1 0x20 DUP4 ADD DUP5 PUSH2 0x19D8 JUMP JUMPDEST SWAP4 SWAP3 POP POP POP JUMP JUMPDEST PUSH2 0x1E9E DUP2 PUSH2 0x17B3 JUMP JUMPDEST DUP3 MSTORE POP POP JUMP JUMPDEST PUSH1 0x0 PUSH1 0x20 DUP3 ADD SWAP1 POP PUSH2 0x1EB9 PUSH1 0x0 DUP4 ADD DUP5 PUSH2 0x1E95 JUMP JUMPDEST SWAP3 SWAP2 POP POP JUMP JUMPDEST PUSH32 0x4E487B7100000000000000000000000000000000000000000000000000000000 PUSH1 0x0 MSTORE PUSH1 0x22 PUSH1 0x4 MSTORE PUSH1 0x24 PUSH1 0x0 REVERT JUMPDEST PUSH1 0x0 PUSH1 0x2 DUP3 DIV SWAP1 POP PUSH1 0x1 DUP3 AND DUP1 PUSH2 0x1F06 JUMPI PUSH1 0x7F DUP3 AND SWAP2 POP JUMPDEST PUSH1 0x20 DUP3 LT DUP2 SUB PUSH2 0x1F19 JUMPI PUSH2 0x1F18 PUSH2 0x1EBF JUMP JUMPDEST JUMPDEST POP SWAP2 SWAP1 POP JUMP JUMPDEST PUSH2 0x1F28 DUP2 PUSH2 0x1A02 JUMP JUMPDEST DUP3 MSTORE POP POP JUMP JUMPDEST PUSH1 0x0 PUSH1 0x40 DUP3 ADD SWAP1 POP PUSH2 0x1F43 PUSH1 0x0 DUP4 ADD DUP6 PUSH2 0x1F1F JUMP JUMPDEST PUSH2 0x1F50 PUSH1 0x20 DUP4 ADD DUP5 PUSH2 0x19D8 JUMP JUMPDEST SWAP4 SWAP3 POP POP POP JUMP JUMPDEST PUSH1 0x0 PUSH1 0x20 DUP3 ADD SWAP1 POP PUSH2 0x1F6C PUSH1 0x0 DUP4 ADD DUP5 PUSH2 0x1F1F JUMP JUMPDEST SWAP3 SWAP2 POP POP JUMP JUMPDEST PUSH1 0x0 DUP2 MLOAD SWAP1 POP PUSH2 0x1F81 DUP2 PUSH2 0x1936 JUMP JUMPDEST SWAP3 SWAP2 POP POP JUMP JUMPDEST PUSH1 0x0 PUSH1 0x20 DUP3 DUP5 SUB SLT ISZERO PUSH2 0x1F9D JUMPI PUSH2 0x1F9C PUSH2 0x17A9 JUMP JUMPDEST JUMPDEST PUSH1 0x0 PUSH2 0x1FAB DUP5 DUP3 DUP6 ADD PUSH2 0x1F72 JUMP JUMPDEST SWAP2 POP POP SWAP3 SWAP2 POP POP JUMP JUMPDEST PUSH1 0x0 PUSH1 0x60 DUP3 ADD SWAP1 POP PUSH2 0x1FC9 PUSH1 0x0 DUP4 ADD DUP7 PUSH2 0x1B37 JUMP JUMPDEST PUSH2 0x1FD6 PUSH1 0x20 DUP4 ADD DUP6 PUSH2 0x19D8 JUMP JUMPDEST PUSH2 0x1FE3 PUSH1 0x40 DUP4 ADD DUP5 PUSH2 0x19D8 JUMP JUMPDEST SWAP5 SWAP4 POP POP POP POP JUMP JUMPDEST PUSH32 0x53656E646572206E6F7420456E747279506F696E740000000000000000000000 PUSH1 0x0 DUP3 ADD MSTORE POP JUMP JUMPDEST PUSH1 0x0 PUSH2 0x2021 PUSH1 0x15 DUP4 PUSH2 0x1827 JUMP JUMPDEST SWAP2 POP PUSH2 0x202C DUP3 PUSH2 0x1FEB JUMP JUMPDEST PUSH1 0x20 DUP3 ADD SWAP1 POP SWAP2 SWAP1 POP JUMP JUMPDEST PUSH1 0x0 PUSH1 0x20 DUP3 ADD SWAP1 POP DUP2 DUP2 SUB PUSH1 0x0 DUP4 ADD MSTORE PUSH2 0x2050 DUP2 PUSH2 0x2014 JUMP JUMPDEST SWAP1 POP SWAP2 SWAP1 POP JUMP JUMPDEST PUSH32 0x4E487B7100000000000000000000000000000000000000000000000000000000 PUSH1 0x0 MSTORE PUSH1 0x11 PUSH1 0x4 MSTORE PUSH1 0x24 PUSH1 0x0 REVERT JUMPDEST PUSH1 0x0 PUSH2 0x2091 DUP3 PUSH2 0x192C JUMP JUMPDEST SWAP2 POP PUSH2 0x209C DUP4 PUSH2 0x192C JUMP JUMPDEST SWAP3 POP DUP3 DUP3 ADD SWAP1 POP DUP1 DUP3 GT ISZERO PUSH2 0x20B4 JUMPI PUSH2 0x20B3 PUSH2 0x2057 JUMP JUMPDEST JUMPDEST SWAP3 SWAP2 POP POP JUMP JUMPDEST PUSH32 0x546F6B656E5061796D61737465723A2067617320746F6F206C6F7720666F7220 PUSH1 0x0 DUP3 ADD MSTORE PUSH32 0x706F73744F700000000000000000000000000000000000000000000000000000 PUSH1 0x20 DUP3 ADD MSTORE POP JUMP JUMPDEST PUSH1 0x0 PUSH2 0x2116 PUSH1 0x26 DUP4 PUSH2 0x1827 JUMP JUMPDEST SWAP2 POP PUSH2 0x2121 DUP3 PUSH2 0x20BA JUMP JUMPDEST PUSH1 0x40 DUP3 ADD SWAP1 POP SWAP2 SWAP1 POP JUMP JUMPDEST PUSH1 0x0 PUSH1 0x20 DUP3 ADD SWAP1 POP DUP2 DUP2 SUB PUSH1 0x0 DUP4 ADD MSTORE PUSH2 0x2145 DUP2 PUSH2 0x2109 JUMP JUMPDEST SWAP1 POP SWAP2 SWAP1 POP JUMP JUMPDEST PUSH1 0x0 DUP1 REVERT JUMPDEST PUSH1 0x0 DUP1 REVERT JUMPDEST PUSH1 0x0 DUP1 REVERT JUMPDEST PUSH1 0x0 DUP1 DUP4 CALLDATALOAD PUSH1 0x1 PUSH1 0x20 SUB DUP5 CALLDATASIZE SUB SUB DUP2 SLT PUSH2 0x2178 JUMPI PUSH2 0x2177 PUSH2 0x214C JUMP JUMPDEST JUMPDEST DUP1 DUP5 ADD SWAP3 POP DUP3 CALLDATALOAD SWAP2 POP PUSH8 0xFFFFFFFFFFFFFFFF DUP3 GT ISZERO PUSH2 0x219A JUMPI PUSH2 0x2199 PUSH2 0x2151 JUMP JUMPDEST JUMPDEST PUSH1 0x20 DUP4 ADD SWAP3 POP PUSH1 0x1 DUP3 MUL CALLDATASIZE SUB DUP4 SGT ISZERO PUSH2 0x21B6 JUMPI PUSH2 0x21B5 PUSH2 0x2156 JUMP JUMPDEST JUMPDEST POP SWAP3 POP SWAP3 SWAP1 POP JUMP JUMPDEST PUSH32 0x546F6B656E5061796D61737465723A206E6F2062616C616E636520287072652D PUSH1 0x0 DUP3 ADD MSTORE PUSH32 0x6372656174652900000000000000000000000000000000000000000000000000 PUSH1 0x20 DUP3 ADD MSTORE POP JUMP JUMPDEST PUSH1 0x0 PUSH2 0x221A PUSH1 0x27 DUP4 PUSH2 0x1827 JUMP JUMPDEST SWAP2 POP PUSH2 0x2225 DUP3 PUSH2 0x21BE JUMP JUMPDEST PUSH1 0x40 DUP3 ADD SWAP1 POP SWAP2 SWAP1 POP JUMP JUMPDEST PUSH1 0x0 PUSH1 0x20 DUP3 ADD SWAP1 POP DUP2 DUP2 SUB PUSH1 0x0 DUP4 ADD MSTORE PUSH2 0x2249 DUP2 PUSH2 0x220D JUMP JUMPDEST SWAP1 POP SWAP2 SWAP1 POP JUMP JUMPDEST PUSH32 0x546F6B656E5061796D61737465723A206E6F2062616C616E6365000000000000 PUSH1 0x0 DUP3 ADD MSTORE POP JUMP JUMPDEST PUSH1 0x0 PUSH2 0x2286 PUSH1 0x1A DUP4 PUSH2 0x1827 JUMP JUMPDEST SWAP2 POP PUSH2 0x2291 DUP3 PUSH2 0x2250 JUMP JUMPDEST PUSH1 0x20 DUP3 ADD SWAP1 POP SWAP2 SWAP1 POP JUMP JUMPDEST PUSH1 0x0 PUSH1 0x20 DUP3 ADD SWAP1 POP DUP2 DUP2 SUB PUSH1 0x0 DUP4 ADD MSTORE PUSH2 0x22B5 DUP2 PUSH2 0x2279 JUMP JUMPDEST SWAP1 POP SWAP2 SWAP1 POP JUMP JUMPDEST PUSH32 0x4E487B7100000000000000000000000000000000000000000000000000000000 PUSH1 0x0 MSTORE PUSH1 0x12 PUSH1 0x4 MSTORE PUSH1 0x24 PUSH1 0x0 REVERT JUMPDEST PUSH1 0x0 PUSH2 0x22F6 DUP3 PUSH2 0x192C JUMP JUMPDEST SWAP2 POP PUSH2 0x2301 DUP4 PUSH2 0x192C JUMP JUMPDEST SWAP3 POP DUP3 PUSH2 0x2311 JUMPI PUSH2 0x2310 PUSH2 0x22BC JUMP JUMPDEST JUMPDEST DUP3 DUP3 DIV SWAP1 POP SWAP3 SWAP2 POP POP JUMP JUMPDEST PUSH1 0x0 DUP1 REVERT JUMPDEST PUSH1 0x0 DUP1 REVERT JUMPDEST PUSH1 0x0 DUP1 DUP6 DUP6 GT ISZERO PUSH2 0x233A JUMPI PUSH2 0x2339 PUSH2 0x231C JUMP JUMPDEST JUMPDEST DUP4 DUP7 GT ISZERO PUSH2 0x234B JUMPI PUSH2 0x234A PUSH2 0x2321 JUMP JUMPDEST JUMPDEST PUSH1 0x1 DUP6 MUL DUP4 ADD SWAP2 POP DUP5 DUP7 SUB SWAP1 POP SWAP5 POP SWAP5 SWAP3 POP POP POP JUMP JUMPDEST PUSH1 0x0 DUP3 SWAP1 POP SWAP3 SWAP2 POP POP JUMP JUMPDEST PUSH1 0x0 PUSH32 0xFFFFFFFFFFFFFFFFFFFFFFFFFFFFFFFFFFFFFFFF000000000000000000000000 DUP3 AND SWAP1 POP SWAP2 SWAP1 POP JUMP JUMPDEST PUSH1 0x0 DUP3 DUP3 SHL SWAP1 POP SWAP3 SWAP2 POP POP JUMP JUMPDEST PUSH1 0x0 PUSH2 0x23B1 DUP4 DUP4 PUSH2 0x2361 JUMP JUMPDEST DUP3 PUSH2 0x23BC DUP2 CALLDATALOAD PUSH2 0x236C JUMP JUMPDEST SWAP3 POP PUSH1 0x14 DUP3 LT ISZERO PUSH2 0x23FC JUMPI PUSH2 0x23F7 PUSH32 0xFFFFFFFFFFFFFFFFFFFFFFFFFFFFFFFFFFFFFFFF000000000000000000000000 DUP4 PUSH1 0x14 SUB PUSH1 0x8 MUL PUSH2 0x2398 JUMP JUMPDEST DUP4 AND SWAP3 POP JUMPDEST POP POP SWAP3 SWAP2 POP POP JUMP JUMPDEST PUSH32 0x546F6B656E5061796D61737465723A2077726F6E67206163636F756E74206661 PUSH1 0x0 DUP3 ADD MSTORE PUSH32 0x63746F7279000000000000000000000000000000000000000000000000000000 PUSH1 0x20 DUP3 ADD MSTORE POP JUMP JUMPDEST PUSH1 0x0 PUSH2 0x2460 PUSH1 0x25 DUP4 PUSH2 0x1827 JUMP JUMPDEST SWAP2 POP PUSH2 0x246B DUP3 PUSH2 0x2404 JUMP JUMPDEST PUSH1 0x40 DUP3 ADD SWAP1 POP SWAP2 SWAP1 POP JUMP JUMPDEST PUSH1 0x0 PUSH1 0x20 DUP3 ADD SWAP1 POP DUP2 DUP2 SUB PUSH1 0x0 DUP4 ADD MSTORE PUSH2 0x248F DUP2 PUSH2 0x2453 JUMP JUMPDEST SWAP1 POP SWAP2 SWAP1 POP JUMP INVALID LOG2 PUSH5 0x6970667358 0x22 SLT KECCAK256 0xC9 0xAC PUSH8 0xE0E4F0FEEA813907 PUSH0 0x21 CREATE2 MUL 0x5E 0xE4 0xC0 0xEF 0xC5 BALANCE LOG3 0x1E MOD PUSH4 0xF3DA35A6 0xAA SDIV DUP6 PUSH5 0x736F6C6343 STOP ADDMOD EQ STOP CALLER "},"methodIdentifiers":{"COST_OF_POST()":"796d4371","addStake(uint32)":"0396cb60","allowance(address,address)":"dd62ed3e","approve(address,uint256)":"095ea7b3","balanceOf(address)":"70a08231","decimals()":"313ce567","deposit()":"d0e30db0","entryPoint()":"b0d691fe","getDeposit()":"c399ec88","mintTokens(address,uint256)":"f0dda65c","name()":"06fdde03","owner()":"8da5cb5b","postOp(uint8,bytes,uint256)":"a9a23409","renounceOwnership()":"715018a6","symbol()":"95d89b41","theFactory()":"9f5ca221","totalSupply()":"18160ddd","transfer(address,uint256)":"a9059cbb","transferFrom(address,address,uint256)":"23b872dd","transferOwnership(address)":"f2fde38b","unlockStake()":"bb9fe6bf","validatePaymasterUserOp((address,uint256,bytes,bytes,uint256,uint256,uint256,uint256,uint256,bytes,bytes),bytes32,uint256)":"f465c77e","withdrawStake(address)":"c23a5cea","withdrawTo(address,uint256)":"205c2878"}}}}}