{"contracts/core/EntryPoint.sol":{"EntryPoint":{"abi":[{"inputs":[{"internalType":"uint256","name":"opIndex","type":"uint256"},{"internalType":"string","name":"reason","type":"string"}],"name":"FailedOp","type":"error"},{"inputs":[{"internalType":"bytes","name":"returnData","type":"bytes"}],"name":"PostOpReverted","type":"error"},{"inputs":[{"internalType":"address","name":"sender","type":"address"}],"name":"SenderAddressResult","type":"error"},{"inputs":[{"internalType":"address","name":"aggregator","type":"address"}],"name":"SignatureValidationFailed","type":"error"},{"anonymous":false,"inputs":[{"indexed":true,"internalType":"bytes32","name":"userOpHash","type":"bytes32"},{"indexed":true,"internalType":"address","name":"sender","type":"address"},{"indexed":false,"internalType":"address","name":"factory","type":"address"},{"indexed":false,"internalType":"address","name":"paymaster","type":"address"}],"name":"AccountDeployed","type":"event"},{"anonymous":false,"inputs":[],"name":"BeforeExecution","type":"event"},{"anonymous":false,"inputs":[{"indexed":true,"internalType":"address","name":"account","type":"address"},{"indexed":false,"internalType":"uint256","name":"totalDeposit","type":"uint256"}],"name":"Deposited","type":"event"},{"anonymous":false,"inputs":[{"indexed":true,"internalType":"bytes32","name":"userOpHash","type":"bytes32"},{"indexed":true,"internalType":"address","name":"sender","type":"address"},{"indexed":false,"internalType":"uint256","name":"nonce","type":"uint256"},{"indexed":false,"internalType":"bytes","name":"revertReason","type":"bytes"}],"name":"PostOpRevertReason","type":"event"},{"anonymous":false,"inputs":[{"indexed":true,"internalType":"address","name":"aggregator","type":"address"}],"name":"SignatureAggregatorChanged","type":"event"},{"anonymous":false,"inputs":[{"indexed":true,"internalType":"address","name":"account","type":"address"},{"indexed":false,"internalType":"uint256","name":"totalStaked","type":"uint256"},{"indexed":false,"internalType":"uint256","name":"unstakeDelaySec","type":"uint256"}],"name":"StakeLocked","type":"event"},{"anonymous":false,"inputs":[{"indexed":true,"internalType":"address","name":"account","type":"address"},{"indexed":false,"internalType":"uint256","name":"withdrawTime","type":"uint256"}],"name":"StakeUnlocked","type":"event"},{"anonymous":false,"inputs":[{"indexed":true,"internalType":"address","name":"account","type":"address"},{"indexed":false,"internalType":"address","name":"withdrawAddress","type":"address"},{"indexed":false,"internalType":"uint256","name":"amount","type":"uint256"}],"name":"StakeWithdrawn","type":"event"},{"anonymous":false,"inputs":[{"indexed":true,"internalType":"bytes32","name":"userOpHash","type":"bytes32"},{"indexed":true,"internalType":"address","name":"sender","type":"address"},{"indexed":true,"internalType":"address","name":"paymaster","type":"address"},{"indexed":false,"internalType":"uint256","name":"nonce","type":"uint256"},{"indexed":false,"internalType":"bool","name":"success","type":"bool"},{"indexed":false,"internalType":"uint256","name":"actualGasCost","type":"uint256"},{"indexed":false,"internalType":"uint256","name":"actualGasUsed","type":"uint256"}],"name":"UserOperationEvent","type":"event"},{"anonymous":false,"inputs":[{"indexed":true,"internalType":"bytes32","name":"userOpHash","type":"bytes32"},{"indexed":true,"internalType":"address","name":"sender","type":"address"},{"indexed":false,"internalType":"uint256","name":"nonce","type":"uint256"},{"indexed":false,"internalType":"bytes","name":"revertReason","type":"bytes"}],"name":"UserOperationRevertReason","type":"event"},{"anonymous":false,"inputs":[{"indexed":true,"internalType":"address","name":"account","type":"address"},{"indexed":false,"internalType":"address","name":"withdrawAddress","type":"address"},{"indexed":false,"internalType":"uint256","name":"amount","type":"uint256"}],"name":"Withdrawn","type":"event"},{"inputs":[],"name":"SIG_VALIDATION_FAILED","outputs":[{"internalType":"uint256","name":"","type":"uint256"}],"stateMutability":"view","type":"function"},{"inputs":[{"internalType":"uint32","name":"unstakeDelaySec","type":"uint32"}],"name":"addStake","outputs":[],"stateMutability":"payable","type":"function"},{"inputs":[{"internalType":"address","name":"account","type":"address"}],"name":"balanceOf","outputs":[{"internalType":"uint256","name":"","type":"uint256"}],"stateMutability":"view","type":"function"},{"inputs":[{"internalType":"address","name":"account","type":"address"}],"name":"depositTo","outputs":[],"stateMutability":"payable","type":"function"},{"inputs":[{"internalType":"address","name":"","type":"address"}],"name":"deposits","outputs":[{"internalType":"uint112","name":"deposit","type":"uint112"},{"internalType":"bool","name":"staked","type":"bool"},{"internalType":"uint112","name":"stake","type":"uint112"},{"internalType":"uint32","name":"unstakeDelaySec","type":"uint32"},{"internalType":"uint48","name":"withdrawTime","type":"uint48"}],"stateMutability":"view","type":"function"},{"inputs":[{"internalType":"address","name":"account","type":"address"}],"name":"getDepositInfo","outputs":[{"components":[{"internalType":"uint112","name":"deposit","type":"uint112"},{"internalType":"bool","name":"staked","type":"bool"},{"internalType":"uint112","name":"stake","type":"uint112"},{"internalType":"uint32","name":"unstakeDelaySec","type":"uint32"},{"internalType":"uint48","name":"withdrawTime","type":"uint48"}],"internalType":"struct IStakeManager.DepositInfo","name":"info","type":"tuple"}],"stateMutability":"view","type":"function"},{"inputs":[{"internalType":"address","name":"sender","type":"address"},{"internalType":"uint192","name":"key","type":"uint192"}],"name":"getNonce","outputs":[{"internalType":"uint256","name":"nonce","type":"uint256"}],"stateMutability":"view","type":"function"},{"inputs":[{"internalType":"bytes","name":"initCode","type":"bytes"}],"name":"getSenderAddress","outputs":[],"stateMutability":"nonpayable","type":"function"},{"inputs":[{"components":[{"internalType":"address","name":"sender","type":"address"},{"internalType":"uint256","name":"nonce","type":"uint256"},{"internalType":"bytes","name":"initCode","type":"bytes"},{"internalType":"bytes","name":"callData","type":"bytes"},{"internalType":"uint256","name":"callGasLimit","type":"uint256"},{"internalType":"uint256","name":"verificationGasLimit","type":"uint256"},{"internalType":"uint256","name":"preVerificationGas","type":"uint256"},{"internalType":"uint256","name":"maxFeePerGas","type":"uint256"},{"internalType":"uint256","name":"maxPriorityFeePerGas","type":"uint256"},{"internalType":"bytes","name":"paymasterAndData","type":"bytes"},{"internalType":"bytes","name":"signature","type":"bytes"}],"internalType":"struct UserOperation","name":"userOp","type":"tuple"}],"name":"getUserOpHash","outputs":[{"internalType":"bytes32","name":"","type":"bytes32"}],"stateMutability":"view","type":"function"},{"inputs":[{"components":[{"components":[{"internalType":"address","name":"sender","type":"address"},{"internalType":"uint256","name":"nonce","type":"uint256"},{"internalType":"bytes","name":"initCode","type":"bytes"},{"internalType":"bytes","name":"callData","type":"bytes"},{"internalType":"uint256","name":"callGasLimit","type":"uint256"},{"internalType":"uint256","name":"verificationGasLimit","type":"uint256"},{"internalType":"uint256","name":"preVerificationGas","type":"uint256"},{"internalType":"uint256","name":"maxFeePerGas","type":"uint256"},{"internalType":"uint256","name":"maxPriorityFeePerGas","type":"uint256"},{"internalType":"bytes","name":"paymasterAndData","type":"bytes"},{"internalType":"bytes","name":"signature","type":"bytes"}],"internalType":"struct UserOperation[]","name":"userOps","type":"tuple[]"},{"internalType":"contract IAggregator","name":"aggregator","type":"address"},{"internalType":"bytes","name":"signature","type":"bytes"}],"internalType":"struct IEntryPoint.UserOpsPerAggregator[]","name":"opsPerAggregator","type":"tuple[]"},{"internalType":"address payable","name":"beneficiary","type":"address"}],"name":"handleAggregatedOps","outputs":[],"stateMutability":"nonpayable","type":"function"},{"inputs":[{"components":[{"internalType":"address","name":"sender","type":"address"},{"internalType":"uint256","name":"nonce","type":"uint256"},{"internalType":"bytes","name":"initCode","type":"bytes"},{"internalType":"bytes","name":"callData","type":"bytes"},{"internalType":"uint256","name":"callGasLimit","type":"uint256"},{"internalType":"uint256","name":"verificationGasLimit","type":"uint256"},{"internalType":"uint256","name":"preVerificationGas","type":"uint256"},{"internalType":"uint256","name":"maxFeePerGas","type":"uint256"},{"internalType":"uint256","name":"maxPriorityFeePerGas","type":"uint256"},{"internalType":"bytes","name":"paymasterAndData","type":"bytes"},{"internalType":"bytes","name":"signature","type":"bytes"}],"internalType":"struct UserOperation[]","name":"ops","type":"tuple[]"},{"internalType":"address payable","name":"beneficiary","type":"address"}],"name":"handleOps","outputs":[],"stateMutability":"nonpayable","type":"function"},{"inputs":[{"internalType":"uint192","name":"key","type":"uint192"}],"name":"incrementNonce","outputs":[],"stateMutability":"nonpayable","type":"function"},{"inputs":[{"internalType":"bytes","name":"callData","type":"bytes"},{"components":[{"components":[{"internalType":"address","name":"sender","type":"address"},{"internalType":"uint256","name":"nonce","type":"uint256"},{"internalType":"uint256","name":"callGasLimit","type":"uint256"},{"internalType":"uint256","name":"verificationGasLimit","type":"uint256"},{"internalType":"uint256","name":"preVerificationGas","type":"uint256"},{"internalType":"address","name":"paymaster","type":"address"},{"internalType":"uint256","name":"maxFeePerGas","type":"uint256"},{"internalType":"uint256","name":"maxPriorityFeePerGas","type":"uint256"}],"internalType":"struct EntryPoint.MemoryUserOp","name":"mUserOp","type":"tuple"},{"internalType":"bytes32","name":"userOpHash","type":"bytes32"},{"internalType":"uint256","name":"prefund","type":"uint256"},{"internalType":"uint256","name":"contextOffset","type":"uint256"},{"internalType":"uint256","name":"preOpGas","type":"uint256"}],"internalType":"struct EntryPoint.UserOpInfo","name":"opInfo","type":"tuple"},{"internalType":"bytes","name":"context","type":"bytes"}],"name":"innerHandleOp","outputs":[{"internalType":"uint256","name":"actualGasCost","type":"uint256"}],"stateMutability":"nonpayable","type":"function"},{"inputs":[{"internalType":"address","name":"","type":"address"},{"internalType":"uint192","name":"","type":"uint192"}],"name":"nonceSequenceNumber","outputs":[{"internalType":"uint256","name":"","type":"uint256"}],"stateMutability":"view","type":"function"},{"inputs":[{"internalType":"bytes4","name":"interfaceId","type":"bytes4"}],"name":"supportsInterface","outputs":[{"internalType":"bool","name":"","type":"bool"}],"stateMutability":"view","type":"function"},{"inputs":[],"name":"unlockStake","outputs":[],"stateMutability":"nonpayable","type":"function"},{"inputs":[{"internalType":"address payable","name":"withdrawAddress","type":"address"}],"name":"withdrawStake","outputs":[],"stateMutability":"nonpayable","type":"function"},{"inputs":[{"internalType":"address payable","name":"withdrawAddress","type":"address"},{"internalType":"uint256","name":"withdrawAmount","type":"uint256"}],"name":"withdrawTo","outputs":[],"stateMutability":"nonpayable","type":"function"},{"stateMutability":"payable","type":"receive"}],"evm":{"bytecode":{"linkReferences":{},"object":"6080604052604051620000129062000084565b604051809103906000f0801580156200002f573d6000803e3d6000fd5b50600260006101000a81548173ffffffffffffffffffffffffffffffffffffffff021916908373ffffffffffffffffffffffffffffffffffffffff1602179055503480156200007d57600080fd5b5062000092565b610362806200689183390190565b6167ef80620000a26000396000f3fe60806040526004361061010d5760003560e01c80635287ce1211610095578063a619353111610064578063a6193531146103a4578063b760faf9146103e1578063bb9fe6bf146103fd578063c23a5cea14610414578063fc7e286d1461043d5761011d565b80635287ce12146102d657806370a08231146103135780638f41ec5a146103505780639b249f691461037b5761011d565b80631d732756116100dc5780631d732756146101e15780631fad948c1461021e578063205c28781461024757806335567e1a146102705780634b1d7cf5146102ad5761011d565b806301ffc9a7146101225780630396cb601461015f5780630bd28e3b1461017b5780631b2e01b8146101a45761011d565b3661011d5761011b3361047e565b005b600080fd5b34801561012e57600080fd5b5061014960048036038101906101449190613a03565b61053a565b6040516101569190613a4b565b60405180910390f35b61017960048036038101906101749190613aa2565b610730565b005b34801561018757600080fd5b506101a2600480360381019061019d9190613b1f565b610ae7565b005b3480156101b057600080fd5b506101cb60048036038101906101c69190613baa565b610b84565b6040516101d89190613c03565b60405180910390f35b3480156101ed57600080fd5b5061020860048036038101906102039190613f86565b610ba9565b6040516102159190613c03565b60405180910390f35b34801561022a57600080fd5b50610245600480360381019061024091906140ac565b610d7d565b005b34801561025357600080fd5b5061026e6004803603810190610269919061410c565b610f01565b005b34801561027c57600080fd5b5061029760048036038101906102929190613baa565b611126565b6040516102a49190613c03565b60405180910390f35b3480156102b957600080fd5b506102d460048036038101906102cf91906141a2565b6111d5565b005b3480156102e257600080fd5b506102fd60048036038101906102f89190614202565b6116fa565b60405161030a91906142ff565b60405180910390f35b34801561031f57600080fd5b5061033a60048036038101906103359190614202565b611847565b6040516103479190613c03565b60405180910390f35b34801561035c57600080fd5b506103656118bc565b6040516103729190613c03565b60405180910390f35b34801561038757600080fd5b506103a2600480360381019061039d919061431a565b6118c1565b005b3480156103b057600080fd5b506103cb60048036038101906103c6919061438c565b6119a2565b6040516103d891906143e4565b60405180910390f35b6103fb60048036038101906103f69190614202565b61047e565b005b34801561040957600080fd5b506104126119de565b005b34801561042057600080fd5b5061043b600480360381019061043691906143ff565b611b8e565b005b34801561044957600080fd5b50610464600480360381019061045f9190614202565b611e8e565b604051610475959493929190614459565b60405180910390f35b6104888134611f27565b60008060008373ffffffffffffffffffffffffffffffffffffffff1673ffffffffffffffffffffffffffffffffffffffff16815260200190815260200160002090508173ffffffffffffffffffffffffffffffffffffffff167f2da466a7b24304f47e87fa2e1e5a81b9831ce54fec19055ce277ca2f39ba42c48260000160009054906101000a90046dffffffffffffffffffffffffffff1660405161052e91906144e7565b60405180910390a25050565b60007f3e84f021000000000000000000000000000000000000000000000000000000007fcf28ef97000000000000000000000000000000000000000000000000000000007f698d42210000000000000000000000000000000000000000000000000000000018187bffffffffffffffffffffffffffffffffffffffffffffffffffffffff1916827bffffffffffffffffffffffffffffffffffffffffffffffffffffffff1916148061064957507f698d4221000000000000000000000000000000000000000000000000000000007bffffffffffffffffffffffffffffffffffffffffffffffffffffffff1916827bffffffffffffffffffffffffffffffffffffffffffffffffffffffff1916145b806106b157507fcf28ef97000000000000000000000000000000000000000000000000000000007bffffffffffffffffffffffffffffffffffffffffffffffffffffffff1916827bffffffffffffffffffffffffffffffffffffffffffffffffffffffff1916145b8061071957507f3e84f021000000000000000000000000000000000000000000000000000000007bffffffffffffffffffffffffffffffffffffffffffffffffffffffff1916827bffffffffffffffffffffffffffffffffffffffffffffffffffffffff1916145b80610729575061072882612037565b5b9050919050565b60008060003373ffffffffffffffffffffffffffffffffffffffff1673ffffffffffffffffffffffffffffffffffffffff168152602001908152602001600020905060008263ffffffff16116107bb576040517f08c379a00000000000000000000000000000000000000000000000000000000081526004016107b29061455f565b60405180910390fd5b8060010160009054906101000a900463ffffffff1663ffffffff168263ffffffff16101561081e576040517f08c379a0000000000000000000000000000000000000000000000000000000008152600401610815906145cb565b60405180910390fd5b60003482600001600f9054906101000a90046dffffffffffffffffffffffffffff166dffffffffffffffffffffffffffff1661085a919061461a565b90506000811161089f576040517f08c379a00000000000000000000000000000000000000000000000000000000081526004016108969061469a565b60405180910390fd5b6dffffffffffffffffffffffffffff80168111156108f2576040517f08c379a00000000000000000000000000000000000000000000000000000000081526004016108e990614706565b60405180910390fd5b6040518060a001604052808360000160009054906101000a90046dffffffffffffffffffffffffffff166dffffffffffffffffffffffffffff168152602001600115158152602001826dffffffffffffffffffffffffffff1681526020018463ffffffff168152602001600065ffffffffffff168152506000803373ffffffffffffffffffffffffffffffffffffffff1673ffffffffffffffffffffffffffffffffffffffff16815260200190815260200160002060008201518160000160006101000a8154816dffffffffffffffffffffffffffff02191690836dffffffffffffffffffffffffffff160217905550602082015181600001600e6101000a81548160ff021916908315150217905550604082015181600001600f6101000a8154816dffffffffffffffffffffffffffff02191690836dffffffffffffffffffffffffffff16021790555060608201518160010160006101000a81548163ffffffff021916908363ffffffff16021790555060808201518160010160046101000a81548165ffffffffffff021916908365ffffffffffff1602179055509050503373ffffffffffffffffffffffffffffffffffffffff167fa5ae833d0bb1dcd632d98a8b70973e8516812898e19bf27b70071ebc8dc52c018285604051610ada929190614757565b60405180910390a2505050565b600160003373ffffffffffffffffffffffffffffffffffffffff1673ffffffffffffffffffffffffffffffffffffffff16815260200190815260200160002060008277ffffffffffffffffffffffffffffffffffffffffffffffff1677ffffffffffffffffffffffffffffffffffffffffffffffff1681526020019081526020016000206000815480929190610b7c90614780565b919050555050565b6001602052816000526040600020602052806000526040600020600091509150505481565b6000805a90503073ffffffffffffffffffffffffffffffffffffffff163373ffffffffffffffffffffffffffffffffffffffff1614610c1d576040517f08c379a0000000000000000000000000000000000000000000000000000000008152600401610c1490614814565b60405180910390fd5b60008560000151905060008160400151905061138882606001518201015a1015610c6b577fdeaddead0000000000000000000000000000000000000000000000000000000060005260206000fd5b60008089511115610d0f576000610c89846000015160008c866120a1565b905080610d0d576000610c9d6108006120ba565b9050600081511115610d0757846000015173ffffffffffffffffffffffffffffffffffffffff168a602001517f1c4fada7374c0a9ee8841fc38afe82932dc0f8e69012e927f061a8bae611a201876020015184604051610cfe9291906148b3565b60405180910390a35b60019250505b505b600088608001515a8603019050610d6e6000838b8b8b8080601f016020809104026020016040519081016040528093929190818152602001838380828437600081840152601f19601f82011690508083019250505050505050856120ea565b95505050505050949350505050565b600083839050905060008167ffffffffffffffff811115610da157610da0613c39565b5b604051908082528060200260200182016040528015610dda57816020015b610dc7613848565b815260200190600190039081610dbf5790505b50905060005b82811015610e5a576000828281518110610dfd57610dfc6148e3565b5b60200260200101519050600080610e39848a8a87818110610e2157610e206148e3565b5b9050602002810190610e339190614921565b856123c9565b91509150610e4a84838360006125be565b5050508080600101915050610de0565b5060007fbb47ee3e183a558b1a2ff0874b079f3fc5478b7454eacf2bfc5af2ff5878f97260405160405180910390a160005b83811015610eee57610edd81888884818110610eab57610eaa6148e3565b5b9050602002810190610ebd9190614921565b858481518110610ed057610ecf6148e3565b5b6020026020010151612751565b820191508080600101915050610e8c565b50610ef98482612924565b505050505050565b60008060003373ffffffffffffffffffffffffffffffffffffffff1673ffffffffffffffffffffffffffffffffffffffff16815260200190815260200160002090508060000160009054906101000a90046dffffffffffffffffffffffffffff166dffffffffffffffffffffffffffff16821115610fb4576040517f08c379a0000000000000000000000000000000000000000000000000000000008152600401610fab90614996565b60405180910390fd5b818160000160009054906101000a90046dffffffffffffffffffffffffffff166dffffffffffffffffffffffffffff16610fee91906149b6565b8160000160006101000a8154816dffffffffffffffffffffffffffff02191690836dffffffffffffffffffffffffffff1602179055503373ffffffffffffffffffffffffffffffffffffffff167fd1c19fbcd4551a5edfb66d43d2e337c04837afda3482b42bdf569a8fccdae5fb848460405161106c929190614a3f565b60405180910390a260008373ffffffffffffffffffffffffffffffffffffffff168360405161109a90614a99565b60006040518083038185875af1925050503d80600081146110d7576040519150601f19603f3d011682016040523d82523d6000602084013e6110dc565b606091505b5050905080611120576040517f08c379a000000000000000000000000000000000000000000000000000000000815260040161111790614afa565b60405180910390fd5b50505050565b600060408277ffffffffffffffffffffffffffffffffffffffffffffffff16901b600160008573ffffffffffffffffffffffffffffffffffffffff1673ffffffffffffffffffffffffffffffffffffffff16815260200190815260200160002060008477ffffffffffffffffffffffffffffffffffffffffffffffff1677ffffffffffffffffffffffffffffffffffffffffffffffff1681526020019081526020016000205417905092915050565b60008383905090506000805b828110156113c257368686838181106111fd576111fc6148e3565b5b905060200281019061120f9190614b1a565b90503660008280600001906112249190614b42565b91509150600083602001602081019061123d9190614be3565b9050600173ffffffffffffffffffffffffffffffffffffffff168173ffffffffffffffffffffffffffffffffffffffff16036112ae576040517f08c379a00000000000000000000000000000000000000000000000000000000081526004016112a590614c5c565b60405180910390fd5b600073ffffffffffffffffffffffffffffffffffffffff168173ffffffffffffffffffffffffffffffffffffffff161461139a578073ffffffffffffffffffffffffffffffffffffffff1663e3563a4f84848780604001906113109190614c7c565b6040518563ffffffff1660e01b815260040161132f9493929190615045565b60006040518083038186803b15801561134757600080fd5b505afa925050508015611358575060015b61139957806040517f86a9f750000000000000000000000000000000000000000000000000000000008152600401611390919061508f565b60405180910390fd5b5b82829050866113a9919061461a565b95505050505080806113ba90614780565b9150506111e1565b5060008167ffffffffffffffff8111156113df576113de613c39565b5b60405190808252806020026020018201604052801561141857816020015b611405613848565b8152602001906001900390816113fd5790505b5090506000805b8481101561152e573688888381811061143b5761143a6148e3565b5b905060200281019061144d9190614b1a565b90503660008280600001906114629190614b42565b91509150600083602001602081019061147b9190614be3565b9050600083839050905060005b818110156115155760008989815181106114a5576114a46148e3565b5b602002602001015190506000806114e18b8989878181106114c9576114c86148e3565b5b90506020028101906114db9190614921565b856123c9565b915091506114f1848383896125be565b8a806114fc90614780565b9b5050505050808061150d90614780565b915050611488565b505050505050808061152690614780565b91505061141f565b507fbb47ee3e183a558b1a2ff0874b079f3fc5478b7454eacf2bfc5af2ff5878f97260405160405180910390a1600080915060005b858110156116a1573689898381811061157f5761157e6148e3565b5b90506020028101906115919190614b1a565b90508060200160208101906115a69190614be3565b73ffffffffffffffffffffffffffffffffffffffff167f575ff3acadd5ab348fe1855e217e0f3678f8d767d7494c9f9fefbee2e17cca4d60405160405180910390a23660008280600001906115fb9190614b42565b91509150600082829050905060005b818110156116895761165b88858584818110611629576116286148e3565b5b905060200281019061163b9190614921565b8b8b8151811061164e5761164d6148e3565b5b6020026020010151612751565b87611666919061461a565b9650878061167390614780565b985050808061168190614780565b91505061160a565b5050505050808061169990614780565b915050611563565b50600073ffffffffffffffffffffffffffffffffffffffff167f575ff3acadd5ab348fe1855e217e0f3678f8d767d7494c9f9fefbee2e17cca4d60405160405180910390a26116f08682612924565b5050505050505050565b611702613880565b6000808373ffffffffffffffffffffffffffffffffffffffff1673ffffffffffffffffffffffffffffffffffffffff1681526020019081526020016000206040518060a00160405290816000820160009054906101000a90046dffffffffffffffffffffffffffff166dffffffffffffffffffffffffffff166dffffffffffffffffffffffffffff16815260200160008201600e9054906101000a900460ff1615151515815260200160008201600f9054906101000a90046dffffffffffffffffffffffffffff166dffffffffffffffffffffffffffff166dffffffffffffffffffffffffffff1681526020016001820160009054906101000a900463ffffffff1663ffffffff1663ffffffff1681526020016001820160049054906101000a900465ffffffffffff1665ffffffffffff1665ffffffffffff16815250509050919050565b60008060008373ffffffffffffffffffffffffffffffffffffffff1673ffffffffffffffffffffffffffffffffffffffff16815260200190815260200160002060000160009054906101000a90046dffffffffffffffffffffffffffff166dffffffffffffffffffffffffffff169050919050565b600181565b6000600260009054906101000a900473ffffffffffffffffffffffffffffffffffffffff1673ffffffffffffffffffffffffffffffffffffffff1663570e1a3684846040518363ffffffff1660e01b81526004016119209291906150aa565b6020604051808303816000875af115801561193f573d6000803e3d6000fd5b505050506040513d601f19601f8201168201806040525081019061196391906150e3565b9050806040517f6ca7b806000000000000000000000000000000000000000000000000000000008152600401611999919061508f565b60405180910390fd5b60006119ad82612a44565b30466040516020016119c193929190615110565b604051602081830303815290604052805190602001209050919050565b60008060003373ffffffffffffffffffffffffffffffffffffffff1673ffffffffffffffffffffffffffffffffffffffff168152602001908152602001600020905060008160010160009054906101000a900463ffffffff1663ffffffff1603611a7d576040517f08c379a0000000000000000000000000000000000000000000000000000000008152600401611a7490615193565b60405180910390fd5b80600001600e9054906101000a900460ff16611ace576040517f08c379a0000000000000000000000000000000000000000000000000000000008152600401611ac5906151ff565b60405180910390fd5b60008160010160009054906101000a900463ffffffff1663ffffffff1642611af6919061521f565b9050808260010160046101000a81548165ffffffffffff021916908365ffffffffffff160217905550600082600001600e6101000a81548160ff0219169083151502179055503373ffffffffffffffffffffffffffffffffffffffff167ffa9b3c14cc825c412c9ed81b3ba365a5b459439403f18829e572ed53a4180f0a82604051611b82919061528a565b60405180910390a25050565b60008060003373ffffffffffffffffffffffffffffffffffffffff1673ffffffffffffffffffffffffffffffffffffffff1681526020019081526020016000209050600081600001600f9054906101000a90046dffffffffffffffffffffffffffff166dffffffffffffffffffffffffffff16905060008111611c46576040517f08c379a0000000000000000000000000000000000000000000000000000000008152600401611c3d906152f1565b60405180910390fd5b60008260010160049054906101000a900465ffffffffffff1665ffffffffffff1611611ca7576040517f08c379a0000000000000000000000000000000000000000000000000000000008152600401611c9e9061535d565b60405180910390fd5b428260010160049054906101000a900465ffffffffffff1665ffffffffffff161115611d08576040517f08c379a0000000000000000000000000000000000000000000000000000000008152600401611cff906153c9565b60405180910390fd5b60008260010160006101000a81548163ffffffff021916908363ffffffff16021790555060008260010160046101000a81548165ffffffffffff021916908365ffffffffffff160217905550600082600001600f6101000a8154816dffffffffffffffffffffffffffff02191690836dffffffffffffffffffffffffffff1602179055503373ffffffffffffffffffffffffffffffffffffffff167fb7c918e0e249f999e965cafeb6c664271b3f4317d296461500e71da39f0cbda38483604051611dd4929190614a3f565b60405180910390a260008373ffffffffffffffffffffffffffffffffffffffff1682604051611e0290614a99565b60006040518083038185875af1925050503d8060008114611e3f576040519150601f19603f3d011682016040523d82523d6000602084013e611e44565b606091505b5050905080611e88576040517f08c379a0000000000000000000000000000000000000000000000000000000008152600401611e7f90615435565b60405180910390fd5b50505050565b60006020528060005260406000206000915090508060000160009054906101000a90046dffffffffffffffffffffffffffff169080600001600e9054906101000a900460ff169080600001600f9054906101000a90046dffffffffffffffffffffffffffff16908060010160009054906101000a900463ffffffff16908060010160049054906101000a900465ffffffffffff16905085565b60008060008473ffffffffffffffffffffffffffffffffffffffff1673ffffffffffffffffffffffffffffffffffffffff16815260200190815260200160002090506000828260000160009054906101000a90046dffffffffffffffffffffffffffff166dffffffffffffffffffffffffffff16611fa5919061461a565b90506dffffffffffffffffffffffffffff8016811115611ffa576040517f08c379a0000000000000000000000000000000000000000000000000000000008152600401611ff1906154a1565b60405180910390fd5b808260000160006101000a8154816dffffffffffffffffffffffffffff02191690836dffffffffffffffffffffffffffff16021790555050505050565b60007f01ffc9a7000000000000000000000000000000000000000000000000000000007bffffffffffffffffffffffffffffffffffffffffffffffffffffffff1916827bffffffffffffffffffffffffffffffffffffffffffffffffffffffff1916149050919050565b6000806000845160208601878987f19050949350505050565b60603d828111156120c9578290505b604051602082018101604052818152816000602083013e8092505050919050565b6000805a905060008086600001519050600061210582612a5d565b905060008260a001519050600073ffffffffffffffffffffffffffffffffffffffff168173ffffffffffffffffffffffffffffffffffffffff1603612150578260000151935061224e565b80935060008851111561224d578187029550600280811115612175576121746154c1565b5b8a6002811115612188576121876154c1565b5b1461224c578073ffffffffffffffffffffffffffffffffffffffff1663a9a2340984606001518c8b8a6040518563ffffffff1660e01b81526004016121cf93929190615538565b600060405180830381600088803b1580156121e957600080fd5b5087f1935050505080156121fb575060015b61224b57600061220c6108006120ba565b9050806040517fad7954bc0000000000000000000000000000000000000000000000000000000081526004016122429190615576565b60405180910390fd5b5b5b5b5a850387019650600083604001519050600089511115612272578360600151810190505b60008a6080015189039050808211156122ad576000818303905060006064600a8302816122a2576122a1615598565b5b049050808b019a5050505b5050818702955085896040015110156122fd578a6040517f220266b60000000000000000000000000000000000000000000000000000000081526004016122f49190615613565b60405180910390fd5b6000868a604001510390506123128582611f27565b6000806002811115612327576123266154c1565b5b8c600281111561233a576123396154c1565b5b1490508460a0015173ffffffffffffffffffffffffffffffffffffffff16856000015173ffffffffffffffffffffffffffffffffffffffff168c602001517f49628fd1471006c1482da88028e9ce4dbb080b815c9b0344d39e5a8e6ec1419f8860200151858d8f6040516123b19493929190615641565b60405180910390a45050505050505095945050505050565b60008060005a90506000846000015190506123e48682612a97565b6123ed866119a2565b85602001818152505060008661010001358760e001358360400151846060015185608001511717171790506effffffffffffffffffffffffffffff801681111561246c576040517f08c379a0000000000000000000000000000000000000000000000000000000008152600401612463906156d2565b60405180910390fd5b60008061247884612c3f565b90506124868a8a8a84612cb0565b80985081935050506124a084600001518560200151612fd1565b6124e157896040517f220266b60000000000000000000000000000000000000000000000000000000081526004016124d8919061573e565b60405180910390fd5b6060600073ffffffffffffffffffffffffffffffffffffffff168560a0015173ffffffffffffffffffffffffffffffffffffffff1614612531576125288b8b8b858761308f565b80985081925050505b60005a87039050808b60a001351015612581578b6040517f220266b600000000000000000000000000000000000000000000000000000000815260040161257891906157b8565b60405180910390fd5b828a60400181815250506125948261334d565b8a60600181815250508a60c001355a8803018a608001818152505050505050505050935093915050565b6000806125ca85613357565b915091508173ffffffffffffffffffffffffffffffffffffffff168373ffffffffffffffffffffffffffffffffffffffff161461263e57856040517f220266b60000000000000000000000000000000000000000000000000000000081526004016126359190615832565b60405180910390fd5b801561268157856040517f220266b600000000000000000000000000000000000000000000000000000000815260040161267891906158ac565b60405180910390fd5b600061268c85613357565b8093508192505050600073ffffffffffffffffffffffffffffffffffffffff168173ffffffffffffffffffffffffffffffffffffffff161461270557866040517f220266b60000000000000000000000000000000000000000000000000000000081526004016126fc9190615926565b60405180910390fd5b811561274857866040517f220266b600000000000000000000000000000000000000000000000000000000815260040161273f91906159c6565b60405180910390fd5b50505050505050565b6000805a9050600061276684606001516133b0565b90503073ffffffffffffffffffffffffffffffffffffffff16631d7327568680606001906127949190614c7c565b87856040518563ffffffff1660e01b81526004016127b59493929190615b12565b6020604051808303816000875af19250505080156127f157506040513d601f19601f820116820180604052508101906127ee9190615b70565b60015b6129165760003d8060200361280c5760206000803e60005191505b507fdeaddead00000000000000000000000000000000000000000000000000000000810361287157866040517f220266b60000000000000000000000000000000000000000000000000000000081526004016128689190615be9565b60405180910390fd5b84600001516000015173ffffffffffffffffffffffffffffffffffffffff1685602001517ff62676f440ff169a3a9afdbf812e89e7f95975ee8e5c31214ffdef631c5f47928760000151602001516128ca6108006120ba565b6040516128d89291906148b3565b60405180910390a3600085608001515a856128f391906149b6565b6128fd919061461a565b905061290d8860028886856120ea565b9450505061291b565b809350505b50509392505050565b600073ffffffffffffffffffffffffffffffffffffffff168273ffffffffffffffffffffffffffffffffffffffff1603612993576040517f08c379a000000000000000000000000000000000000000000000000000000000815260040161298a90615c63565b60405180910390fd5b60008273ffffffffffffffffffffffffffffffffffffffff16826040516129b990614a99565b60006040518083038185875af1925050503d80600081146129f6576040519150601f19603f3d011682016040523d82523d6000602084013e6129fb565b606091505b5050905080612a3f576040517f08c379a0000000000000000000000000000000000000000000000000000000008152600401612a3690615ccf565b60405180910390fd5b505050565b6000612a4f826133ba565b805190602001209050919050565b6000808260c00151905060008360e001519050808203612a81578192505050612a92565b612a8d82488301613498565b925050505b919050565b816000016020810190612aaa9190614202565b816000019073ffffffffffffffffffffffffffffffffffffffff16908173ffffffffffffffffffffffffffffffffffffffff1681525050816020013581602001818152505081608001358160400181815250508160a001358160600181815250508160c001358160800181815250508160e001358160c00181815250508161010001358160e001818152505036600083806101200190612b4a9190614c7c565b915091506000828290501115612bff576014828290501015612ba1576040517f08c379a0000000000000000000000000000000000000000000000000000000008152600401612b9890615d3b565b60405180910390fd5b8181600090601492612bb593929190615d65565b90612bc09190615de4565b60601c8360a0019073ffffffffffffffffffffffffffffffffffffffff16908173ffffffffffffffffffffffffffffffffffffffff1681525050612c39565b60008360a0019073ffffffffffffffffffffffffffffffffffffffff16908173ffffffffffffffffffffffffffffffffffffffff16815250505b50505050565b600080600073ffffffffffffffffffffffffffffffffffffffff168360a0015173ffffffffffffffffffffffffffffffffffffffff1603612c81576001612c84565b60025b60ff16905060008360800151828560600151028560400151010190508360c00151810292505050919050565b60008060005a9050600085600001519050600081600001519050612ce489888a8060400190612cdf9190614c7c565b6134b1565b60008260a00151905060008073ffffffffffffffffffffffffffffffffffffffff168273ffffffffffffffffffffffffffffffffffffffff1603612d45576000612d2d84611847565b9050888111612d3e57808903612d41565b60005b9150505b8273ffffffffffffffffffffffffffffffffffffffff16633a871cdd85606001518c8c60200151856040518563ffffffff1660e01b8152600401612d8b93929190615fa7565b60206040518083038160008887f193505050508015612dc857506040513d601f19601f82011682018060405250810190612dc59190615b70565b60015b612e9057612dd4615ff2565b806308c379a003612e515750612de8616014565b80612df35750612e53565b8b81604051602001612e059190616111565b6040516020818303038152906040526040517f220266b6000000000000000000000000000000000000000000000000000000008152600401612e48929190616170565b60405180910390fd5b505b8a6040517f220266b6000000000000000000000000000000000000000000000000000000008152600401612e8791906161ec565b60405180910390fd5b80965050600073ffffffffffffffffffffffffffffffffffffffff168273ffffffffffffffffffffffffffffffffffffffff1603612fbe5760008060008573ffffffffffffffffffffffffffffffffffffffff1673ffffffffffffffffffffffffffffffffffffffff168152602001908152602001600020905060008160000160009054906101000a90046dffffffffffffffffffffffffffff166dffffffffffffffffffffffffffff169050808a1115612f82578c6040517f220266b6000000000000000000000000000000000000000000000000000000008152600401612f799190616266565b60405180910390fd5b8981038260000160006101000a8154816dffffffffffffffffffffffffffff02191690836dffffffffffffffffffffffffffff16021790555050505b5a85039650505050505094509492505050565b600080604083901c905060008390508067ffffffffffffffff16600160008773ffffffffffffffffffffffffffffffffffffffff1673ffffffffffffffffffffffffffffffffffffffff16815260200190815260200160002060008477ffffffffffffffffffffffffffffffffffffffffffffffff1677ffffffffffffffffffffffffffffffffffffffffffffffff168152602001908152602001600020600081548092919061308090614780565b91905055149250505092915050565b6060600080856000015190506000816060015190508481116130e6576040517f08c379a00000000000000000000000000000000000000000000000000000000081526004016130dd906162e0565b60405180910390fd5b6000858203905060008360a00151905060008060008373ffffffffffffffffffffffffffffffffffffffff1673ffffffffffffffffffffffffffffffffffffffff168152602001908152602001600020905060008160000160009054906101000a90046dffffffffffffffffffffffffffff166dffffffffffffffffffffffffffff169050898110156131b0578c6040517f220266b60000000000000000000000000000000000000000000000000000000081526004016131a7919061634c565b60405180910390fd5b8981038260000160006101000a8154816dffffffffffffffffffffffffffff02191690836dffffffffffffffffffffffffffff1602179055508273ffffffffffffffffffffffffffffffffffffffff1663f465c77e858e8e602001518e6040518563ffffffff1660e01b815260040161322b93929190615fa7565b60006040518083038160008887f19350505050801561326d57506040513d6000823e3d601f19601f8201168201806040525081019061326a91906163ea565b60015b61333557613279615ff2565b806308c379a0036132f6575061328d616014565b8061329857506132f8565b8d816040516020016132aa919061646c565b6040516020818303038152906040526040517f220266b60000000000000000000000000000000000000000000000000000000081526004016132ed929190616170565b60405180910390fd5b505b8c6040517f220266b600000000000000000000000000000000000000000000000000000000815260040161332c91906164de565b60405180910390fd5b81995080985050505050505050509550959350505050565b6000819050919050565b6000806000830361336e57600080915091506133ab565b60006133798461379d565b9050806040015165ffffffffffff164211806133a05750806020015165ffffffffffff1642105b915080600001519250505b915091565b6060819050919050565b606060006133c783613821565b905060008360200135905060006133ec8580604001906133e79190614c7c565b613831565b905060006134088680606001906134039190614c7c565b613831565b905060008660800135905060008760a00135905060008860c00135905060008960e00135905060008a6101000135905060006134538c80610120019061344e9190614c7c565b613831565b9050898989898989898989896040516020016134789a9998979695949392919061650c565b6040516020818303038152906040529a5050505050505050505050919050565b60008183106134a757816134a9565b825b905092915050565b60008282905014613797576000836000015160000151905060008173ffffffffffffffffffffffffffffffffffffffff163b1461352557846040517f220266b600000000000000000000000000000000000000000000000000000000815260040161351c91906165f4565b60405180910390fd5b6000600260009054906101000a900473ffffffffffffffffffffffffffffffffffffffff1673ffffffffffffffffffffffffffffffffffffffff1663570e1a3686600001516060015186866040518463ffffffff1660e01b815260040161358d9291906150aa565b60206040518083038160008887f11580156135ac573d6000803e3d6000fd5b50505050506040513d601f19601f820116820180604052508101906135d191906150e3565b9050600073ffffffffffffffffffffffffffffffffffffffff168173ffffffffffffffffffffffffffffffffffffffff160361364457856040517f220266b600000000000000000000000000000000000000000000000000000000815260040161363b919061666e565b60405180910390fd5b8173ffffffffffffffffffffffffffffffffffffffff168173ffffffffffffffffffffffffffffffffffffffff16146136b457856040517f220266b60000000000000000000000000000000000000000000000000000000081526004016136ab91906166e8565b60405180910390fd5b60008173ffffffffffffffffffffffffffffffffffffffff163b0361371057856040517f220266b60000000000000000000000000000000000000000000000000000000081526004016137079190616762565b60405180910390fd5b6000848460009060149261372693929190615d65565b906137319190615de4565b60601c90508273ffffffffffffffffffffffffffffffffffffffff1686602001517fd51a9c61267aa6196961883ecf5ff2da6619c37dac0fa92122513fb32c032d2d83896000015160a0015160405161378b929190616790565b60405180910390a35050505b50505050565b6137a56138df565b6000829050600060a084901c905060008165ffffffffffff16036137cd5765ffffffffffff90505b600060d085901c905060405180606001604052808473ffffffffffffffffffffffffffffffffffffffff1681526020018265ffffffffffff1681526020018365ffffffffffff168152509350505050919050565b6000808235905080915050919050565b600060405182808583378082209250505092915050565b6040518060a0016040528061385b613926565b8152602001600080191681526020016000815260200160008152602001600081525090565b6040518060a0016040528060006dffffffffffffffffffffffffffff16815260200160001515815260200160006dffffffffffffffffffffffffffff168152602001600063ffffffff168152602001600065ffffffffffff1681525090565b6040518060600160405280600073ffffffffffffffffffffffffffffffffffffffff168152602001600065ffffffffffff168152602001600065ffffffffffff1681525090565b604051806101000160405280600073ffffffffffffffffffffffffffffffffffffffff16815260200160008152602001600081526020016000815260200160008152602001600073ffffffffffffffffffffffffffffffffffffffff16815260200160008152602001600081525090565b6000604051905090565b600080fd5b600080fd5b60007fffffffff0000000000000000000000000000000000000000000000000000000082169050919050565b6139e0816139ab565b81146139eb57600080fd5b50565b6000813590506139fd816139d7565b92915050565b600060208284031215613a1957613a186139a1565b5b6000613a27848285016139ee565b91505092915050565b60008115159050919050565b613a4581613a30565b82525050565b6000602082019050613a606000830184613a3c565b92915050565b600063ffffffff82169050919050565b613a7f81613a66565b8114613a8a57600080fd5b50565b600081359050613a9c81613a76565b92915050565b600060208284031215613ab857613ab76139a1565b5b6000613ac684828501613a8d565b91505092915050565b600077ffffffffffffffffffffffffffffffffffffffffffffffff82169050919050565b613afc81613acf565b8114613b0757600080fd5b50565b600081359050613b1981613af3565b92915050565b600060208284031215613b3557613b346139a1565b5b6000613b4384828501613b0a565b91505092915050565b600073ffffffffffffffffffffffffffffffffffffffff82169050919050565b6000613b7782613b4c565b9050919050565b613b8781613b6c565b8114613b9257600080fd5b50565b600081359050613ba481613b7e565b92915050565b60008060408385031215613bc157613bc06139a1565b5b6000613bcf85828601613b95565b9250506020613be085828601613b0a565b9150509250929050565b6000819050919050565b613bfd81613bea565b82525050565b6000602082019050613c186000830184613bf4565b92915050565b600080fd5b600080fd5b6000601f19601f8301169050919050565b7f4e487b7100000000000000000000000000000000000000000000000000000000600052604160045260246000fd5b613c7182613c28565b810181811067ffffffffffffffff82111715613c9057613c8f613c39565b5b80604052505050565b6000613ca3613997565b9050613caf8282613c68565b919050565b600067ffffffffffffffff821115613ccf57613cce613c39565b5b613cd882613c28565b9050602081019050919050565b82818337600083830152505050565b6000613d07613d0284613cb4565b613c99565b905082815260208101848484011115613d2357613d22613c23565b5b613d2e848285613ce5565b509392505050565b600082601f830112613d4b57613d4a613c1e565b5b8135613d5b848260208601613cf4565b91505092915050565b600080fd5b613d7281613bea565b8114613d7d57600080fd5b50565b600081359050613d8f81613d69565b92915050565b60006101008284031215613dac57613dab613d64565b5b613db7610100613c99565b90506000613dc784828501613b95565b6000830152506020613ddb84828501613d80565b6020830152506040613def84828501613d80565b6040830152506060613e0384828501613d80565b6060830152506080613e1784828501613d80565b60808301525060a0613e2b84828501613b95565b60a08301525060c0613e3f84828501613d80565b60c08301525060e0613e5384828501613d80565b60e08301525092915050565b6000819050919050565b613e7281613e5f565b8114613e7d57600080fd5b50565b600081359050613e8f81613e69565b92915050565b60006101808284031215613eac57613eab613d64565b5b613eb660a0613c99565b90506000613ec684828501613d95565b600083015250610100613edb84828501613e80565b602083015250610120613ef084828501613d80565b604083015250610140613f0584828501613d80565b606083015250610160613f1a84828501613d80565b60808301525092915050565b600080fd5b600080fd5b60008083601f840112613f4657613f45613c1e565b5b8235905067ffffffffffffffff811115613f6357613f62613f26565b5b602083019150836001820283011115613f7f57613f7e613f2b565b5b9250929050565b6000806000806101c08587031215613fa157613fa06139a1565b5b600085013567ffffffffffffffff811115613fbf57613fbe6139a6565b5b613fcb87828801613d36565b9450506020613fdc87828801613e95565b9350506101a085013567ffffffffffffffff811115613ffe57613ffd6139a6565b5b61400a87828801613f30565b925092505092959194509250565b60008083601f84011261402e5761402d613c1e565b5b8235905067ffffffffffffffff81111561404b5761404a613f26565b5b60208301915083602082028301111561406757614066613f2b565b5b9250929050565b600061407982613b4c565b9050919050565b6140898161406e565b811461409457600080fd5b50565b6000813590506140a681614080565b92915050565b6000806000604084860312156140c5576140c46139a1565b5b600084013567ffffffffffffffff8111156140e3576140e26139a6565b5b6140ef86828701614018565b9350935050602061410286828701614097565b9150509250925092565b60008060408385031215614123576141226139a1565b5b600061413185828601614097565b925050602061414285828601613d80565b9150509250929050565b60008083601f84011261416257614161613c1e565b5b8235905067ffffffffffffffff81111561417f5761417e613f26565b5b60208301915083602082028301111561419b5761419a613f2b565b5b9250929050565b6000806000604084860312156141bb576141ba6139a1565b5b600084013567ffffffffffffffff8111156141d9576141d86139a6565b5b6141e58682870161414c565b935093505060206141f886828701614097565b9150509250925092565b600060208284031215614218576142176139a1565b5b600061422684828501613b95565b91505092915050565b60006dffffffffffffffffffffffffffff82169050919050565b6142528161422f565b82525050565b61426181613a30565b82525050565b61427081613a66565b82525050565b600065ffffffffffff82169050919050565b61429181614276565b82525050565b60a0820160008201516142ad6000850182614249565b5060208201516142c06020850182614258565b5060408201516142d36040850182614249565b5060608201516142e66060850182614267565b5060808201516142f96080850182614288565b50505050565b600060a0820190506143146000830184614297565b92915050565b60008060208385031215614331576143306139a1565b5b600083013567ffffffffffffffff81111561434f5761434e6139a6565b5b61435b85828601613f30565b92509250509250929050565b600080fd5b6000610160828403121561438357614382614367565b5b81905092915050565b6000602082840312156143a2576143a16139a1565b5b600082013567ffffffffffffffff8111156143c0576143bf6139a6565b5b6143cc8482850161436c565b91505092915050565b6143de81613e5f565b82525050565b60006020820190506143f960008301846143d5565b92915050565b600060208284031215614415576144146139a1565b5b600061442384828501614097565b91505092915050565b6144358161422f565b82525050565b61444481613a66565b82525050565b61445381614276565b82525050565b600060a08201905061446e600083018861442c565b61447b6020830187613a3c565b614488604083018661442c565b614495606083018561443b565b6144a2608083018461444a565b9695505050505050565b6000819050919050565b60006144d16144cc6144c78461422f565b6144ac565b613bea565b9050919050565b6144e1816144b6565b82525050565b60006020820190506144fc60008301846144d8565b92915050565b600082825260208201905092915050565b7f6d757374207370656369667920756e7374616b652064656c6179000000000000600082015250565b6000614549601a83614502565b915061455482614513565b602082019050919050565b600060208201905081810360008301526145788161453c565b9050919050565b7f63616e6e6f7420646563726561736520756e7374616b652074696d6500000000600082015250565b60006145b5601c83614502565b91506145c08261457f565b602082019050919050565b600060208201905081810360008301526145e4816145a8565b9050919050565b7f4e487b7100000000000000000000000000000000000000000000000000000000600052601160045260246000fd5b600061462582613bea565b915061463083613bea565b9250828201905080821115614648576146476145eb565b5b92915050565b7f6e6f207374616b65207370656369666965640000000000000000000000000000600082015250565b6000614684601283614502565b915061468f8261464e565b602082019050919050565b600060208201905081810360008301526146b381614677565b9050919050565b7f7374616b65206f766572666c6f77000000000000000000000000000000000000600082015250565b60006146f0600e83614502565b91506146fb826146ba565b602082019050919050565b6000602082019050818103600083015261471f816146e3565b9050919050565b600061474161473c61473784613a66565b6144ac565b613bea565b9050919050565b61475181614726565b82525050565b600060408201905061476c6000830185613bf4565b6147796020830184614748565b9392505050565b600061478b82613bea565b91507fffffffffffffffffffffffffffffffffffffffffffffffffffffffffffffffff82036147bd576147bc6145eb565b5b600182019050919050565b7f4141393220696e7465726e616c2063616c6c206f6e6c79000000000000000000600082015250565b60006147fe601783614502565b9150614809826147c8565b602082019050919050565b6000602082019050818103600083015261482d816147f1565b9050919050565b600081519050919050565b600082825260208201905092915050565b60005b8381101561486e578082015181840152602081019050614853565b60008484015250505050565b600061488582614834565b61488f818561483f565b935061489f818560208601614850565b6148a881613c28565b840191505092915050565b60006040820190506148c86000830185613bf4565b81810360208301526148da818461487a565b90509392505050565b7f4e487b7100000000000000000000000000000000000000000000000000000000600052603260045260246000fd5b600080fd5b600080fd5b600080fd5b6000823560016101600383360303811261493e5761493d614912565b5b80830191505092915050565b7f576974686472617720616d6f756e7420746f6f206c6172676500000000000000600082015250565b6000614980601983614502565b915061498b8261494a565b602082019050919050565b600060208201905081810360008301526149af81614973565b9050919050565b60006149c182613bea565b91506149cc83613bea565b92508282039050818111156149e4576149e36145eb565b5b92915050565b6000614a05614a006149fb84613b4c565b6144ac565b613b4c565b9050919050565b6000614a17826149ea565b9050919050565b6000614a2982614a0c565b9050919050565b614a3981614a1e565b82525050565b6000604082019050614a546000830185614a30565b614a616020830184613bf4565b9392505050565b600081905092915050565b50565b6000614a83600083614a68565b9150614a8e82614a73565b600082019050919050565b6000614aa482614a76565b9150819050919050565b7f6661696c656420746f2077697468647261770000000000000000000000000000600082015250565b6000614ae4601283614502565b9150614aef82614aae565b602082019050919050565b60006020820190508181036000830152614b1381614ad7565b9050919050565b600082356001606003833603038112614b3657614b35614912565b5b80830191505092915050565b60008083356001602003843603038112614b5f57614b5e614912565b5b80840192508235915067ffffffffffffffff821115614b8157614b80614917565b5b602083019250602082023603831315614b9d57614b9c61491c565b5b509250929050565b6000614bb082613b6c565b9050919050565b614bc081614ba5565b8114614bcb57600080fd5b50565b600081359050614bdd81614bb7565b92915050565b600060208284031215614bf957614bf86139a1565b5b6000614c0784828501614bce565b91505092915050565b7f4141393620696e76616c69642061676772656761746f72000000000000000000600082015250565b6000614c46601783614502565b9150614c5182614c10565b602082019050919050565b60006020820190508181036000830152614c7581614c39565b9050919050565b60008083356001602003843603038112614c9957614c98614912565b5b80840192508235915067ffffffffffffffff821115614cbb57614cba614917565b5b602083019250600182023603831315614cd757614cd661491c565b5b509250929050565b600082825260208201905092915050565b6000819050919050565b6000614d096020840184613b95565b905092915050565b614d1a81613b6c565b82525050565b6000614d2f6020840184613d80565b905092915050565b614d4081613bea565b82525050565b600080fd5b600080fd5b600080fd5b60008083356001602003843603038112614d7257614d71614d50565b5b83810192508235915060208301925067ffffffffffffffff821115614d9a57614d99614d46565b5b600182023603831315614db057614daf614d4b565b5b509250929050565b600082825260208201905092915050565b6000614dd58385614db8565b9350614de2838584613ce5565b614deb83613c28565b840190509392505050565b60006101608301614e0a6000840184614cfa565b614e176000860182614d11565b50614e256020840184614d20565b614e326020860182614d37565b50614e406040840184614d55565b8583036040870152614e53838284614dc9565b92505050614e646060840184614d55565b8583036060870152614e77838284614dc9565b92505050614e886080840184614d20565b614e956080860182614d37565b50614ea360a0840184614d20565b614eb060a0860182614d37565b50614ebe60c0840184614d20565b614ecb60c0860182614d37565b50614ed960e0840184614d20565b614ee660e0860182614d37565b50614ef5610100840184614d20565b614f03610100860182614d37565b50614f12610120840184614d55565b858303610120870152614f26838284614dc9565b92505050614f38610140840184614d55565b858303610140870152614f4c838284614dc9565b925050508091505092915050565b6000614f668383614df6565b905092915050565b60008235600161016003833603038112614f8b57614f8a614d50565b5b82810191505092915050565b6000602082019050919050565b6000614fb08385614cdf565b935083602084028501614fc284614cf0565b8060005b87811015615006578484038952614fdd8284614f6e565b614fe78582614f5a565b9450614ff283614f97565b925060208a01995050600181019050614fc6565b50829750879450505050509392505050565b6000615024838561483f565b9350615031838584613ce5565b61503a83613c28565b840190509392505050565b60006040820190508181036000830152615060818688614fa4565b90508181036020830152615075818486615018565b905095945050505050565b61508981613b6c565b82525050565b60006020820190506150a46000830184615080565b92915050565b600060208201905081810360008301526150c5818486615018565b90509392505050565b6000815190506150dd81613b7e565b92915050565b6000602082840312156150f9576150f86139a1565b5b6000615107848285016150ce565b91505092915050565b600060608201905061512560008301866143d5565b6151326020830185615080565b61513f6040830184613bf4565b949350505050565b7f6e6f74207374616b656400000000000000000000000000000000000000000000600082015250565b600061517d600a83614502565b915061518882615147565b602082019050919050565b600060208201905081810360008301526151ac81615170565b9050919050565b7f616c726561647920756e7374616b696e67000000000000000000000000000000600082015250565b60006151e9601183614502565b91506151f4826151b3565b602082019050919050565b60006020820190508181036000830152615218816151dc565b9050919050565b600061522a82614276565b915061523583614276565b9250828201905065ffffffffffff811115615253576152526145eb565b5b92915050565b600061527461526f61526a84614276565b6144ac565b613bea565b9050919050565b61528481615259565b82525050565b600060208201905061529f600083018461527b565b92915050565b7f4e6f207374616b6520746f207769746864726177000000000000000000000000600082015250565b60006152db601483614502565b91506152e6826152a5565b602082019050919050565b6000602082019050818103600083015261530a816152ce565b9050919050565b7f6d7573742063616c6c20756e6c6f636b5374616b652829206669727374000000600082015250565b6000615347601d83614502565b915061535282615311565b602082019050919050565b600060208201905081810360008301526153768161533a565b9050919050565b7f5374616b65207769746864726177616c206973206e6f74206475650000000000600082015250565b60006153b3601b83614502565b91506153be8261537d565b602082019050919050565b600060208201905081810360008301526153e2816153a6565b9050919050565b7f6661696c656420746f207769746864726177207374616b650000000000000000600082015250565b600061541f601883614502565b915061542a826153e9565b602082019050919050565b6000602082019050818103600083015261544e81615412565b9050919050565b7f6465706f736974206f766572666c6f7700000000000000000000000000000000600082015250565b600061548b601083614502565b915061549682615455565b602082019050919050565b600060208201905081810360008301526154ba8161547e565b9050919050565b7f4e487b7100000000000000000000000000000000000000000000000000000000600052602160045260246000fd5b60038110615501576155006154c1565b5b50565b6000819050615512826154f0565b919050565b600061552282615504565b9050919050565b61553281615517565b82525050565b600060608201905061554d6000830186615529565b818103602083015261555f818561487a565b905061556e6040830184613bf4565b949350505050565b60006020820190508181036000830152615590818461487a565b905092915050565b7f4e487b7100000000000000000000000000000000000000000000000000000000600052601260045260246000fd5b7f414135312070726566756e642062656c6f772061637475616c476173436f7374600082015250565b60006155fd602083614502565b9150615608826155c7565b602082019050919050565b60006040820190506156286000830184613bf4565b8181036020830152615639816155f0565b905092915050565b60006080820190506156566000830187613bf4565b6156636020830186613a3c565b6156706040830185613bf4565b61567d6060830184613bf4565b95945050505050565b7f41413934206761732076616c756573206f766572666c6f770000000000000000600082015250565b60006156bc601883614502565b91506156c782615686565b602082019050919050565b600060208201905081810360008301526156eb816156af565b9050919050565b7f4141323520696e76616c6964206163636f756e74206e6f6e6365000000000000600082015250565b6000615728601a83614502565b9150615733826156f2565b602082019050919050565b60006040820190506157536000830184613bf4565b81810360208301526157648161571b565b905092915050565b7f41413430206f76657220766572696669636174696f6e4761734c696d69740000600082015250565b60006157a2601e83614502565b91506157ad8261576c565b602082019050919050565b60006040820190506157cd6000830184613bf4565b81810360208301526157de81615795565b905092915050565b7f41413234207369676e6174757265206572726f72000000000000000000000000600082015250565b600061581c601483614502565b9150615827826157e6565b602082019050919050565b60006040820190506158476000830184613bf4565b81810360208301526158588161580f565b905092915050565b7f414132322065787069726564206f72206e6f7420647565000000000000000000600082015250565b6000615896601783614502565b91506158a182615860565b602082019050919050565b60006040820190506158c16000830184613bf4565b81810360208301526158d281615889565b905092915050565b7f41413334207369676e6174757265206572726f72000000000000000000000000600082015250565b6000615910601483614502565b915061591b826158da565b602082019050919050565b600060408201905061593b6000830184613bf4565b818103602083015261594c81615903565b905092915050565b7f41413332207061796d61737465722065787069726564206f72206e6f7420647560008201527f6500000000000000000000000000000000000000000000000000000000000000602082015250565b60006159b0602183614502565b91506159bb82615954565b604082019050919050565b60006040820190506159db6000830184613bf4565b81810360208301526159ec816159a3565b905092915050565b61010082016000820151615a0b6000850182614d11565b506020820151615a1e6020850182614d37565b506040820151615a316040850182614d37565b506060820151615a446060850182614d37565b506080820151615a576080850182614d37565b5060a0820151615a6a60a0850182614d11565b5060c0820151615a7d60c0850182614d37565b5060e0820151615a9060e0850182614d37565b50505050565b615a9f81613e5f565b82525050565b61018082016000820151615abc60008501826159f4565b506020820151615ad0610100850182615a96565b506040820151615ae4610120850182614d37565b506060820151615af8610140850182614d37565b506080820151615b0c610160850182614d37565b50505050565b60006101c0820190508181036000830152615b2e818688615018565b9050615b3d6020830185615aa5565b8181036101a0830152615b50818461487a565b905095945050505050565b600081519050615b6a81613d69565b92915050565b600060208284031215615b8657615b856139a1565b5b6000615b9484828501615b5b565b91505092915050565b7f41413935206f7574206f66206761730000000000000000000000000000000000600082015250565b6000615bd3600f83614502565b9150615bde82615b9d565b602082019050919050565b6000604082019050615bfe6000830184613bf4565b8181036020830152615c0f81615bc6565b905092915050565b7f4141393020696e76616c69642062656e65666963696172790000000000000000600082015250565b6000615c4d601883614502565b9150615c5882615c17565b602082019050919050565b60006020820190508181036000830152615c7c81615c40565b9050919050565b7f41413931206661696c65642073656e6420746f2062656e656669636961727900600082015250565b6000615cb9601f83614502565b9150615cc482615c83565b602082019050919050565b60006020820190508181036000830152615ce881615cac565b9050919050565b7f4141393320696e76616c6964207061796d6173746572416e6444617461000000600082015250565b6000615d25601d83614502565b9150615d3082615cef565b602082019050919050565b60006020820190508181036000830152615d5481615d18565b9050919050565b600080fd5b600080fd5b60008085851115615d7957615d78615d5b565b5b83861115615d8a57615d89615d60565b5b6001850283019150848603905094509492505050565b600082905092915050565b60007fffffffffffffffffffffffffffffffffffffffff00000000000000000000000082169050919050565b600082821b905092915050565b6000615df08383615da0565b82615dfb8135615dab565b92506014821015615e3b57615e367fffffffffffffffffffffffffffffffffffffffff00000000000000000000000083601403600802615dd7565b831692505b505092915050565b60006101608301615e576000840184614cfa565b615e646000860182614d11565b50615e726020840184614d20565b615e7f6020860182614d37565b50615e8d6040840184614d55565b8583036040870152615ea0838284614dc9565b92505050615eb16060840184614d55565b8583036060870152615ec4838284614dc9565b92505050615ed56080840184614d20565b615ee26080860182614d37565b50615ef060a0840184614d20565b615efd60a0860182614d37565b50615f0b60c0840184614d20565b615f1860c0860182614d37565b50615f2660e0840184614d20565b615f3360e0860182614d37565b50615f42610100840184614d20565b615f50610100860182614d37565b50615f5f610120840184614d55565b858303610120870152615f73838284614dc9565b92505050615f85610140840184614d55565b858303610140870152615f99838284614dc9565b925050508091505092915050565b60006060820190508181036000830152615fc18186615e43565b9050615fd060208301856143d5565b615fdd6040830184613bf4565b949350505050565b60008160e01c9050919050565b600060033d11156160115760046000803e61600e600051615fe5565b90505b90565b600060443d106160a157616026613997565b60043d036004823e80513d602482011167ffffffffffffffff8211171561604e5750506160a1565b808201805167ffffffffffffffff81111561606c57505050506160a1565b80602083010160043d0385018111156160895750505050506160a1565b61609882602001850186613c68565b82955050505050505b90565b7f414132332072657665727465643a200000000000000000000000000000000000815250565b600081519050919050565b600081905092915050565b60006160eb826160ca565b6160f581856160d5565b9350616105818560208601614850565b80840191505092915050565b600061611c826160a4565b600f8201915061612c82846160e0565b915081905092915050565b6000616142826160ca565b61614c8185614502565b935061615c818560208601614850565b61616581613c28565b840191505092915050565b60006040820190506161856000830185613bf4565b81810360208301526161978184616137565b90509392505050565b7f4141323320726576657274656420286f72204f4f472900000000000000000000600082015250565b60006161d6601683614502565b91506161e1826161a0565b602082019050919050565b60006040820190506162016000830184613bf4565b8181036020830152616212816161c9565b905092915050565b7f41413231206469646e2774207061792070726566756e64000000000000000000600082015250565b6000616250601783614502565b915061625b8261621a565b602082019050919050565b600060408201905061627b6000830184613bf4565b818103602083015261628c81616243565b905092915050565b7f4141343120746f6f206c6974746c6520766572696669636174696f6e47617300600082015250565b60006162ca601f83614502565b91506162d582616294565b602082019050919050565b600060208201905081810360008301526162f9816162bd565b9050919050565b7f41413331207061796d6173746572206465706f73697420746f6f206c6f770000600082015250565b6000616336601e83614502565b915061634182616300565b602082019050919050565b60006040820190506163616000830184613bf4565b818103602083015261637281616329565b905092915050565b600061638d61638884613cb4565b613c99565b9050828152602081018484840111156163a9576163a8613c23565b5b6163b4848285614850565b509392505050565b600082601f8301126163d1576163d0613c1e565b5b81516163e184826020860161637a565b91505092915050565b60008060408385031215616401576164006139a1565b5b600083015167ffffffffffffffff81111561641f5761641e6139a6565b5b61642b858286016163bc565b925050602061643c85828601615b5b565b9150509250929050565b7f414133332072657665727465643a200000000000000000000000000000000000815250565b600061647782616446565b600f8201915061648782846160e0565b915081905092915050565b7f4141333320726576657274656420286f72204f4f472900000000000000000000600082015250565b60006164c8601683614502565b91506164d382616492565b602082019050919050565b60006040820190506164f36000830184613bf4565b8181036020830152616504816164bb565b905092915050565b600061014082019050616522600083018d615080565b61652f602083018c613bf4565b61653c604083018b6143d5565b616549606083018a6143d5565b6165566080830189613bf4565b61656360a0830188613bf4565b61657060c0830187613bf4565b61657d60e0830186613bf4565b61658b610100830185613bf4565b6165996101208301846143d5565b9b9a5050505050505050505050565b7f414131302073656e64657220616c726561647920636f6e737472756374656400600082015250565b60006165de601f83614502565b91506165e9826165a8565b602082019050919050565b60006040820190506166096000830184613bf4565b818103602083015261661a816165d1565b905092915050565b7f4141313320696e6974436f6465206661696c6564206f72204f4f470000000000600082015250565b6000616658601b83614502565b915061666382616622565b602082019050919050565b60006040820190506166836000830184613bf4565b81810360208301526166948161664b565b905092915050565b7f4141313420696e6974436f6465206d7573742072657475726e2073656e646572600082015250565b60006166d2602083614502565b91506166dd8261669c565b602082019050919050565b60006040820190506166fd6000830184613bf4565b818103602083015261670e816166c5565b905092915050565b7f4141313520696e6974436f6465206d757374206372656174652073656e646572600082015250565b600061674c602083614502565b915061675782616716565b602082019050919050565b60006040820190506167776000830184613bf4565b81810360208301526167888161673f565b905092915050565b60006040820190506167a56000830185615080565b6167b26020830184615080565b939250505056fea2646970667358221220de14a528e111a727fabdbb6365dfeeb56b7cc57f0c733d940548f92639005c2e64736f6c63430008140033608060405234801561001057600080fd5b50610342806100206000396000f3fe608060405234801561001057600080fd5b506004361061002b5760003560e01c8063570e1a3614610030575b600080fd5b61004a6004803603810190610045919061017b565b610060565b6040516100579190610209565b60405180910390f35b60008083836000906014926100779392919061022e565b9061008291906102ad565b60601c905060008484601490809261009c9392919061022e565b8080601f016020809104026020016040519081016040528093929190818152602001838380828437600081840152601f19601f8201169050808301925050505050505090506000602060008351602085016000875af1905060005193508061010357600093505b50505092915050565b600080fd5b600080fd5b600080fd5b600080fd5b600080fd5b60008083601f84011261013b5761013a610116565b5b8235905067ffffffffffffffff8111156101585761015761011b565b5b60208301915083600182028301111561017457610173610120565b5b9250929050565b600080602083850312156101925761019161010c565b5b600083013567ffffffffffffffff8111156101b0576101af610111565b5b6101bc85828601610125565b92509250509250929050565b600073ffffffffffffffffffffffffffffffffffffffff82169050919050565b60006101f3826101c8565b9050919050565b610203816101e8565b82525050565b600060208201905061021e60008301846101fa565b92915050565b600080fd5b600080fd5b6000808585111561024257610241610224565b5b8386111561025357610252610229565b5b6001850283019150848603905094509492505050565b600082905092915050565b60007fffffffffffffffffffffffffffffffffffffffff00000000000000000000000082169050919050565b600082821b905092915050565b60006102b98383610269565b826102c48135610274565b92506014821015610304576102ff7fffffffffffffffffffffffffffffffffffffffff000000000000000000000000836014036008026102a0565b831692505b50509291505056fea26469706673582212204570fd6baed8eabaaba44a51f2d0441d21cf50b36366a6729085cdc2be51c77364736f6c63430008140033","opcodes":"PUSH1 0x80 PUSH1 0x40 MSTORE PUSH1 0x40 MLOAD PUSH3 0x12 SWAP1 PUSH3 0x84 JUMP JUMPDEST PUSH1 0x40 MLOAD DUP1 SWAP2 SUB SWAP1 PUSH1 0x0 CREATE DUP1 ISZERO DUP1 ISZERO PUSH3 0x2F JUMPI RETURNDATASIZE PUSH1 0x0 DUP1 RETURNDATACOPY RETURNDATASIZE PUSH1 0x0 REVERT JUMPDEST POP PUSH1 0x2 PUSH1 0x0 PUSH2 0x100 EXP DUP2 SLOAD DUP2 PUSH20 0xFFFFFFFFFFFFFFFFFFFFFFFFFFFFFFFFFFFFFFFF MUL NOT AND SWAP1 DUP4 PUSH20 0xFFFFFFFFFFFFFFFFFFFFFFFFFFFFFFFFFFFFFFFF AND MUL OR SWAP1 SSTORE POP CALLVALUE DUP1 ISZERO PUSH3 0x7D JUMPI PUSH1 0x0 DUP1 REVERT JUMPDEST POP PUSH3 0x92 JUMP JUMPDEST PUSH2 0x362 DUP1 PUSH3 0x6891 DUP4 CODECOPY ADD SWAP1 JUMP JUMPDEST PUSH2 0x67EF DUP1 PUSH3 0xA2 PUSH1 0x0 CODECOPY PUSH1 0x0 RETURN INVALID PUSH1 0x80 PUSH1 0x40 MSTORE PUSH1 0x4 CALLDATASIZE LT PUSH2 0x10D JUMPI PUSH1 0x0 CALLDATALOAD PUSH1 0xE0 SHR DUP1 PUSH4 0x5287CE12 GT PUSH2 0x95 JUMPI DUP1 PUSH4 0xA6193531 GT PUSH2 0x64 JUMPI DUP1 PUSH4 0xA6193531 EQ PUSH2 0x3A4 JUMPI DUP1 PUSH4 0xB760FAF9 EQ PUSH2 0x3E1 JUMPI DUP1 PUSH4 0xBB9FE6BF EQ PUSH2 0x3FD JUMPI DUP1 PUSH4 0xC23A5CEA EQ PUSH2 0x414 JUMPI DUP1 PUSH4 0xFC7E286D EQ PUSH2 0x43D JUMPI PUSH2 0x11D JUMP JUMPDEST DUP1 PUSH4 0x5287CE12 EQ PUSH2 0x2D6 JUMPI DUP1 PUSH4 0x70A08231 EQ PUSH2 0x313 JUMPI DUP1 PUSH4 0x8F41EC5A EQ PUSH2 0x350 JUMPI DUP1 PUSH4 0x9B249F69 EQ PUSH2 0x37B JUMPI PUSH2 0x11D JUMP JUMPDEST DUP1 PUSH4 0x1D732756 GT PUSH2 0xDC JUMPI DUP1 PUSH4 0x1D732756 EQ PUSH2 0x1E1 JUMPI DUP1 PUSH4 0x1FAD948C EQ PUSH2 0x21E JUMPI DUP1 PUSH4 0x205C2878 EQ PUSH2 0x247 JUMPI DUP1 PUSH4 0x35567E1A EQ PUSH2 0x270 JUMPI DUP1 PUSH4 0x4B1D7CF5 EQ PUSH2 0x2AD JUMPI PUSH2 0x11D JUMP JUMPDEST DUP1 PUSH4 0x1FFC9A7 EQ PUSH2 0x122 JUMPI DUP1 PUSH4 0x396CB60 EQ PUSH2 0x15F JUMPI DUP1 PUSH4 0xBD28E3B EQ PUSH2 0x17B JUMPI DUP1 PUSH4 0x1B2E01B8 EQ PUSH2 0x1A4 JUMPI PUSH2 0x11D JUMP JUMPDEST CALLDATASIZE PUSH2 0x11D JUMPI PUSH2 0x11B CALLER PUSH2 0x47E JUMP JUMPDEST STOP JUMPDEST PUSH1 0x0 DUP1 REVERT JUMPDEST CALLVALUE DUP1 ISZERO PUSH2 0x12E JUMPI PUSH1 0x0 DUP1 REVERT JUMPDEST POP PUSH2 0x149 PUSH1 0x4 DUP1 CALLDATASIZE SUB DUP2 ADD SWAP1 PUSH2 0x144 SWAP2 SWAP1 PUSH2 0x3A03 JUMP JUMPDEST PUSH2 0x53A JUMP JUMPDEST PUSH1 0x40 MLOAD PUSH2 0x156 SWAP2 SWAP1 PUSH2 0x3A4B JUMP JUMPDEST PUSH1 0x40 MLOAD DUP1 SWAP2 SUB SWAP1 RETURN JUMPDEST PUSH2 0x179 PUSH1 0x4 DUP1 CALLDATASIZE SUB DUP2 ADD SWAP1 PUSH2 0x174 SWAP2 SWAP1 PUSH2 0x3AA2 JUMP JUMPDEST PUSH2 0x730 JUMP JUMPDEST STOP JUMPDEST CALLVALUE DUP1 ISZERO PUSH2 0x187 JUMPI PUSH1 0x0 DUP1 REVERT JUMPDEST POP PUSH2 0x1A2 PUSH1 0x4 DUP1 CALLDATASIZE SUB DUP2 ADD SWAP1 PUSH2 0x19D SWAP2 SWAP1 PUSH2 0x3B1F JUMP JUMPDEST PUSH2 0xAE7 JUMP JUMPDEST STOP JUMPDEST CALLVALUE DUP1 ISZERO PUSH2 0x1B0 JUMPI PUSH1 0x0 DUP1 REVERT JUMPDEST POP PUSH2 0x1CB PUSH1 0x4 DUP1 CALLDATASIZE SUB DUP2 ADD SWAP1 PUSH2 0x1C6 SWAP2 SWAP1 PUSH2 0x3BAA JUMP JUMPDEST PUSH2 0xB84 JUMP JUMPDEST PUSH1 0x40 MLOAD PUSH2 0x1D8 SWAP2 SWAP1 PUSH2 0x3C03 JUMP JUMPDEST PUSH1 0x40 MLOAD DUP1 SWAP2 SUB SWAP1 RETURN JUMPDEST CALLVALUE DUP1 ISZERO PUSH2 0x1ED JUMPI PUSH1 0x0 DUP1 REVERT JUMPDEST POP PUSH2 0x208 PUSH1 0x4 DUP1 CALLDATASIZE SUB DUP2 ADD SWAP1 PUSH2 0x203 SWAP2 SWAP1 PUSH2 0x3F86 JUMP JUMPDEST PUSH2 0xBA9 JUMP JUMPDEST PUSH1 0x40 MLOAD PUSH2 0x215 SWAP2 SWAP1 PUSH2 0x3C03 JUMP JUMPDEST PUSH1 0x40 MLOAD DUP1 SWAP2 SUB SWAP1 RETURN JUMPDEST CALLVALUE DUP1 ISZERO PUSH2 0x22A JUMPI PUSH1 0x0 DUP1 REVERT JUMPDEST POP PUSH2 0x245 PUSH1 0x4 DUP1 CALLDATASIZE SUB DUP2 ADD SWAP1 PUSH2 0x240 SWAP2 SWAP1 PUSH2 0x40AC JUMP JUMPDEST PUSH2 0xD7D JUMP JUMPDEST STOP JUMPDEST CALLVALUE DUP1 ISZERO PUSH2 0x253 JUMPI PUSH1 0x0 DUP1 REVERT JUMPDEST POP PUSH2 0x26E PUSH1 0x4 DUP1 CALLDATASIZE SUB DUP2 ADD SWAP1 PUSH2 0x269 SWAP2 SWAP1 PUSH2 0x410C JUMP JUMPDEST PUSH2 0xF01 JUMP JUMPDEST STOP JUMPDEST CALLVALUE DUP1 ISZERO PUSH2 0x27C JUMPI PUSH1 0x0 DUP1 REVERT JUMPDEST POP PUSH2 0x297 PUSH1 0x4 DUP1 CALLDATASIZE SUB DUP2 ADD SWAP1 PUSH2 0x292 SWAP2 SWAP1 PUSH2 0x3BAA JUMP JUMPDEST PUSH2 0x1126 JUMP JUMPDEST PUSH1 0x40 MLOAD PUSH2 0x2A4 SWAP2 SWAP1 PUSH2 0x3C03 JUMP JUMPDEST PUSH1 0x40 MLOAD DUP1 SWAP2 SUB SWAP1 RETURN JUMPDEST CALLVALUE DUP1 ISZERO PUSH2 0x2B9 JUMPI PUSH1 0x0 DUP1 REVERT JUMPDEST POP PUSH2 0x2D4 PUSH1 0x4 DUP1 CALLDATASIZE SUB DUP2 ADD SWAP1 PUSH2 0x2CF SWAP2 SWAP1 PUSH2 0x41A2 JUMP JUMPDEST PUSH2 0x11D5 JUMP JUMPDEST STOP JUMPDEST CALLVALUE DUP1 ISZERO PUSH2 0x2E2 JUMPI PUSH1 0x0 DUP1 REVERT JUMPDEST POP PUSH2 0x2FD PUSH1 0x4 DUP1 CALLDATASIZE SUB DUP2 ADD SWAP1 PUSH2 0x2F8 SWAP2 SWAP1 PUSH2 0x4202 JUMP JUMPDEST PUSH2 0x16FA JUMP JUMPDEST PUSH1 0x40 MLOAD PUSH2 0x30A SWAP2 SWAP1 PUSH2 0x42FF JUMP JUMPDEST PUSH1 0x40 MLOAD DUP1 SWAP2 SUB SWAP1 RETURN JUMPDEST CALLVALUE DUP1 ISZERO PUSH2 0x31F JUMPI PUSH1 0x0 DUP1 REVERT JUMPDEST POP PUSH2 0x33A PUSH1 0x4 DUP1 CALLDATASIZE SUB DUP2 ADD SWAP1 PUSH2 0x335 SWAP2 SWAP1 PUSH2 0x4202 JUMP JUMPDEST PUSH2 0x1847 JUMP JUMPDEST PUSH1 0x40 MLOAD PUSH2 0x347 SWAP2 SWAP1 PUSH2 0x3C03 JUMP JUMPDEST PUSH1 0x40 MLOAD DUP1 SWAP2 SUB SWAP1 RETURN JUMPDEST CALLVALUE DUP1 ISZERO PUSH2 0x35C JUMPI PUSH1 0x0 DUP1 REVERT JUMPDEST POP PUSH2 0x365 PUSH2 0x18BC JUMP JUMPDEST PUSH1 0x40 MLOAD PUSH2 0x372 SWAP2 SWAP1 PUSH2 0x3C03 JUMP JUMPDEST PUSH1 0x40 MLOAD DUP1 SWAP2 SUB SWAP1 RETURN JUMPDEST CALLVALUE DUP1 ISZERO PUSH2 0x387 JUMPI PUSH1 0x0 DUP1 REVERT JUMPDEST POP PUSH2 0x3A2 PUSH1 0x4 DUP1 CALLDATASIZE SUB DUP2 ADD SWAP1 PUSH2 0x39D SWAP2 SWAP1 PUSH2 0x431A JUMP JUMPDEST PUSH2 0x18C1 JUMP JUMPDEST STOP JUMPDEST CALLVALUE DUP1 ISZERO PUSH2 0x3B0 JUMPI PUSH1 0x0 DUP1 REVERT JUMPDEST POP PUSH2 0x3CB PUSH1 0x4 DUP1 CALLDATASIZE SUB DUP2 ADD SWAP1 PUSH2 0x3C6 SWAP2 SWAP1 PUSH2 0x438C JUMP JUMPDEST PUSH2 0x19A2 JUMP JUMPDEST PUSH1 0x40 MLOAD PUSH2 0x3D8 SWAP2 SWAP1 PUSH2 0x43E4 JUMP JUMPDEST PUSH1 0x40 MLOAD DUP1 SWAP2 SUB SWAP1 RETURN JUMPDEST PUSH2 0x3FB PUSH1 0x4 DUP1 CALLDATASIZE SUB DUP2 ADD SWAP1 PUSH2 0x3F6 SWAP2 SWAP1 PUSH2 0x4202 JUMP JUMPDEST PUSH2 0x47E JUMP JUMPDEST STOP JUMPDEST CALLVALUE DUP1 ISZERO PUSH2 0x409 JUMPI PUSH1 0x0 DUP1 REVERT JUMPDEST POP PUSH2 0x412 PUSH2 0x19DE JUMP JUMPDEST STOP JUMPDEST CALLVALUE DUP1 ISZERO PUSH2 0x420 JUMPI PUSH1 0x0 DUP1 REVERT JUMPDEST POP PUSH2 0x43B PUSH1 0x4 DUP1 CALLDATASIZE SUB DUP2 ADD SWAP1 PUSH2 0x436 SWAP2 SWAP1 PUSH2 0x43FF JUMP JUMPDEST PUSH2 0x1B8E JUMP JUMPDEST STOP JUMPDEST CALLVALUE DUP1 ISZERO PUSH2 0x449 JUMPI PUSH1 0x0 DUP1 REVERT JUMPDEST POP PUSH2 0x464 PUSH1 0x4 DUP1 CALLDATASIZE SUB DUP2 ADD SWAP1 PUSH2 0x45F SWAP2 SWAP1 PUSH2 0x4202 JUMP JUMPDEST PUSH2 0x1E8E JUMP JUMPDEST PUSH1 0x40 MLOAD PUSH2 0x475 SWAP6 SWAP5 SWAP4 SWAP3 SWAP2 SWAP1 PUSH2 0x4459 JUMP JUMPDEST PUSH1 0x40 MLOAD DUP1 SWAP2 SUB SWAP1 RETURN JUMPDEST PUSH2 0x488 DUP2 CALLVALUE PUSH2 0x1F27 JUMP JUMPDEST PUSH1 0x0 DUP1 PUSH1 0x0 DUP4 PUSH20 0xFFFFFFFFFFFFFFFFFFFFFFFFFFFFFFFFFFFFFFFF AND PUSH20 0xFFFFFFFFFFFFFFFFFFFFFFFFFFFFFFFFFFFFFFFF AND DUP2 MSTORE PUSH1 0x20 ADD SWAP1 DUP2 MSTORE PUSH1 0x20 ADD PUSH1 0x0 KECCAK256 SWAP1 POP DUP2 PUSH20 0xFFFFFFFFFFFFFFFFFFFFFFFFFFFFFFFFFFFFFFFF AND PUSH32 0x2DA466A7B24304F47E87FA2E1E5A81B9831CE54FEC19055CE277CA2F39BA42C4 DUP3 PUSH1 0x0 ADD PUSH1 0x0 SWAP1 SLOAD SWAP1 PUSH2 0x100 EXP SWAP1 DIV PUSH14 0xFFFFFFFFFFFFFFFFFFFFFFFFFFFF AND PUSH1 0x40 MLOAD PUSH2 0x52E SWAP2 SWAP1 PUSH2 0x44E7 JUMP JUMPDEST PUSH1 0x40 MLOAD DUP1 SWAP2 SUB SWAP1 LOG2 POP POP JUMP JUMPDEST PUSH1 0x0 PUSH32 0x3E84F02100000000000000000000000000000000000000000000000000000000 PUSH32 0xCF28EF9700000000000000000000000000000000000000000000000000000000 PUSH32 0x698D422100000000000000000000000000000000000000000000000000000000 XOR XOR PUSH28 0xFFFFFFFFFFFFFFFFFFFFFFFFFFFFFFFFFFFFFFFFFFFFFFFFFFFFFFFF NOT AND DUP3 PUSH28 0xFFFFFFFFFFFFFFFFFFFFFFFFFFFFFFFFFFFFFFFFFFFFFFFFFFFFFFFF NOT AND EQ DUP1 PUSH2 0x649 JUMPI POP PUSH32 0x698D422100000000000000000000000000000000000000000000000000000000 PUSH28 0xFFFFFFFFFFFFFFFFFFFFFFFFFFFFFFFFFFFFFFFFFFFFFFFFFFFFFFFF NOT AND DUP3 PUSH28 0xFFFFFFFFFFFFFFFFFFFFFFFFFFFFFFFFFFFFFFFFFFFFFFFFFFFFFFFF NOT AND EQ JUMPDEST DUP1 PUSH2 0x6B1 JUMPI POP PUSH32 0xCF28EF9700000000000000000000000000000000000000000000000000000000 PUSH28 0xFFFFFFFFFFFFFFFFFFFFFFFFFFFFFFFFFFFFFFFFFFFFFFFFFFFFFFFF NOT AND DUP3 PUSH28 0xFFFFFFFFFFFFFFFFFFFFFFFFFFFFFFFFFFFFFFFFFFFFFFFFFFFFFFFF NOT AND EQ JUMPDEST DUP1 PUSH2 0x719 JUMPI POP PUSH32 0x3E84F02100000000000000000000000000000000000000000000000000000000 PUSH28 0xFFFFFFFFFFFFFFFFFFFFFFFFFFFFFFFFFFFFFFFFFFFFFFFFFFFFFFFF NOT AND DUP3 PUSH28 0xFFFFFFFFFFFFFFFFFFFFFFFFFFFFFFFFFFFFFFFFFFFFFFFFFFFFFFFF NOT AND EQ JUMPDEST DUP1 PUSH2 0x729 JUMPI POP PUSH2 0x728 DUP3 PUSH2 0x2037 JUMP JUMPDEST JUMPDEST SWAP1 POP SWAP2 SWAP1 POP JUMP JUMPDEST PUSH1 0x0 DUP1 PUSH1 0x0 CALLER PUSH20 0xFFFFFFFFFFFFFFFFFFFFFFFFFFFFFFFFFFFFFFFF AND PUSH20 0xFFFFFFFFFFFFFFFFFFFFFFFFFFFFFFFFFFFFFFFF AND DUP2 MSTORE PUSH1 0x20 ADD SWAP1 DUP2 MSTORE PUSH1 0x20 ADD PUSH1 0x0 KECCAK256 SWAP1 POP PUSH1 0x0 DUP3 PUSH4 0xFFFFFFFF AND GT PUSH2 0x7BB JUMPI PUSH1 0x40 MLOAD PUSH32 0x8C379A000000000000000000000000000000000000000000000000000000000 DUP2 MSTORE PUSH1 0x4 ADD PUSH2 0x7B2 SWAP1 PUSH2 0x455F JUMP JUMPDEST PUSH1 0x40 MLOAD DUP1 SWAP2 SUB SWAP1 REVERT JUMPDEST DUP1 PUSH1 0x1 ADD PUSH1 0x0 SWAP1 SLOAD SWAP1 PUSH2 0x100 EXP SWAP1 DIV PUSH4 0xFFFFFFFF AND PUSH4 0xFFFFFFFF AND DUP3 PUSH4 0xFFFFFFFF AND LT ISZERO PUSH2 0x81E JUMPI PUSH1 0x40 MLOAD PUSH32 0x8C379A000000000000000000000000000000000000000000000000000000000 DUP2 MSTORE PUSH1 0x4 ADD PUSH2 0x815 SWAP1 PUSH2 0x45CB JUMP JUMPDEST PUSH1 0x40 MLOAD DUP1 SWAP2 SUB SWAP1 REVERT JUMPDEST PUSH1 0x0 CALLVALUE DUP3 PUSH1 0x0 ADD PUSH1 0xF SWAP1 SLOAD SWAP1 PUSH2 0x100 EXP SWAP1 DIV PUSH14 0xFFFFFFFFFFFFFFFFFFFFFFFFFFFF AND PUSH14 0xFFFFFFFFFFFFFFFFFFFFFFFFFFFF AND PUSH2 0x85A SWAP2 SWAP1 PUSH2 0x461A JUMP JUMPDEST SWAP1 POP PUSH1 0x0 DUP2 GT PUSH2 0x89F JUMPI PUSH1 0x40 MLOAD PUSH32 0x8C379A000000000000000000000000000000000000000000000000000000000 DUP2 MSTORE PUSH1 0x4 ADD PUSH2 0x896 SWAP1 PUSH2 0x469A JUMP JUMPDEST PUSH1 0x40 MLOAD DUP1 SWAP2 SUB SWAP1 REVERT JUMPDEST PUSH14 0xFFFFFFFFFFFFFFFFFFFFFFFFFFFF DUP1 AND DUP2 GT ISZERO PUSH2 0x8F2 JUMPI PUSH1 0x40 MLOAD PUSH32 0x8C379A000000000000000000000000000000000000000000000000000000000 DUP2 MSTORE PUSH1 0x4 ADD PUSH2 0x8E9 SWAP1 PUSH2 0x4706 JUMP JUMPDEST PUSH1 0x40 MLOAD DUP1 SWAP2 SUB SWAP1 REVERT JUMPDEST PUSH1 0x40 MLOAD DUP1 PUSH1 0xA0 ADD PUSH1 0x40 MSTORE DUP1 DUP4 PUSH1 0x0 ADD PUSH1 0x0 SWAP1 SLOAD SWAP1 PUSH2 0x100 EXP SWAP1 DIV PUSH14 0xFFFFFFFFFFFFFFFFFFFFFFFFFFFF AND PUSH14 0xFFFFFFFFFFFFFFFFFFFFFFFFFFFF AND DUP2 MSTORE PUSH1 0x20 ADD PUSH1 0x1 ISZERO ISZERO DUP2 MSTORE PUSH1 0x20 ADD DUP3 PUSH14 0xFFFFFFFFFFFFFFFFFFFFFFFFFFFF AND DUP2 MSTORE PUSH1 0x20 ADD DUP5 PUSH4 0xFFFFFFFF AND DUP2 MSTORE PUSH1 0x20 ADD PUSH1 0x0 PUSH6 0xFFFFFFFFFFFF AND DUP2 MSTORE POP PUSH1 0x0 DUP1 CALLER PUSH20 0xFFFFFFFFFFFFFFFFFFFFFFFFFFFFFFFFFFFFFFFF AND PUSH20 0xFFFFFFFFFFFFFFFFFFFFFFFFFFFFFFFFFFFFFFFF AND DUP2 MSTORE PUSH1 0x20 ADD SWAP1 DUP2 MSTORE PUSH1 0x20 ADD PUSH1 0x0 KECCAK256 PUSH1 0x0 DUP3 ADD MLOAD DUP2 PUSH1 0x0 ADD PUSH1 0x0 PUSH2 0x100 EXP DUP2 SLOAD DUP2 PUSH14 0xFFFFFFFFFFFFFFFFFFFFFFFFFFFF MUL NOT AND SWAP1 DUP4 PUSH14 0xFFFFFFFFFFFFFFFFFFFFFFFFFFFF AND MUL OR SWAP1 SSTORE POP PUSH1 0x20 DUP3 ADD MLOAD DUP2 PUSH1 0x0 ADD PUSH1 0xE PUSH2 0x100 EXP DUP2 SLOAD DUP2 PUSH1 0xFF MUL NOT AND SWAP1 DUP4 ISZERO ISZERO MUL OR SWAP1 SSTORE POP PUSH1 0x40 DUP3 ADD MLOAD DUP2 PUSH1 0x0 ADD PUSH1 0xF PUSH2 0x100 EXP DUP2 SLOAD DUP2 PUSH14 0xFFFFFFFFFFFFFFFFFFFFFFFFFFFF MUL NOT AND SWAP1 DUP4 PUSH14 0xFFFFFFFFFFFFFFFFFFFFFFFFFFFF AND MUL OR SWAP1 SSTORE POP PUSH1 0x60 DUP3 ADD MLOAD DUP2 PUSH1 0x1 ADD PUSH1 0x0 PUSH2 0x100 EXP DUP2 SLOAD DUP2 PUSH4 0xFFFFFFFF MUL NOT AND SWAP1 DUP4 PUSH4 0xFFFFFFFF AND MUL OR SWAP1 SSTORE POP PUSH1 0x80 DUP3 ADD MLOAD DUP2 PUSH1 0x1 ADD PUSH1 0x4 PUSH2 0x100 EXP DUP2 SLOAD DUP2 PUSH6 0xFFFFFFFFFFFF MUL NOT AND SWAP1 DUP4 PUSH6 0xFFFFFFFFFFFF AND MUL OR SWAP1 SSTORE POP SWAP1 POP POP CALLER PUSH20 0xFFFFFFFFFFFFFFFFFFFFFFFFFFFFFFFFFFFFFFFF AND PUSH32 0xA5AE833D0BB1DCD632D98A8B70973E8516812898E19BF27B70071EBC8DC52C01 DUP3 DUP6 PUSH1 0x40 MLOAD PUSH2 0xADA SWAP3 SWAP2 SWAP1 PUSH2 0x4757 JUMP JUMPDEST PUSH1 0x40 MLOAD DUP1 SWAP2 SUB SWAP1 LOG2 POP POP POP JUMP JUMPDEST PUSH1 0x1 PUSH1 0x0 CALLER PUSH20 0xFFFFFFFFFFFFFFFFFFFFFFFFFFFFFFFFFFFFFFFF AND PUSH20 0xFFFFFFFFFFFFFFFFFFFFFFFFFFFFFFFFFFFFFFFF AND DUP2 MSTORE PUSH1 0x20 ADD SWAP1 DUP2 MSTORE PUSH1 0x20 ADD PUSH1 0x0 KECCAK256 PUSH1 0x0 DUP3 PUSH24 0xFFFFFFFFFFFFFFFFFFFFFFFFFFFFFFFFFFFFFFFFFFFFFFFF AND PUSH24 0xFFFFFFFFFFFFFFFFFFFFFFFFFFFFFFFFFFFFFFFFFFFFFFFF AND DUP2 MSTORE PUSH1 0x20 ADD SWAP1 DUP2 MSTORE PUSH1 0x20 ADD PUSH1 0x0 KECCAK256 PUSH1 0x0 DUP2 SLOAD DUP1 SWAP3 SWAP2 SWAP1 PUSH2 0xB7C SWAP1 PUSH2 0x4780 JUMP JUMPDEST SWAP2 SWAP1 POP SSTORE POP POP JUMP JUMPDEST PUSH1 0x1 PUSH1 0x20 MSTORE DUP2 PUSH1 0x0 MSTORE PUSH1 0x40 PUSH1 0x0 KECCAK256 PUSH1 0x20 MSTORE DUP1 PUSH1 0x0 MSTORE PUSH1 0x40 PUSH1 0x0 KECCAK256 PUSH1 0x0 SWAP2 POP SWAP2 POP POP SLOAD DUP2 JUMP JUMPDEST PUSH1 0x0 DUP1 GAS SWAP1 POP ADDRESS PUSH20 0xFFFFFFFFFFFFFFFFFFFFFFFFFFFFFFFFFFFFFFFF AND CALLER PUSH20 0xFFFFFFFFFFFFFFFFFFFFFFFFFFFFFFFFFFFFFFFF AND EQ PUSH2 0xC1D JUMPI PUSH1 0x40 MLOAD PUSH32 0x8C379A000000000000000000000000000000000000000000000000000000000 DUP2 MSTORE PUSH1 0x4 ADD PUSH2 0xC14 SWAP1 PUSH2 0x4814 JUMP JUMPDEST PUSH1 0x40 MLOAD DUP1 SWAP2 SUB SWAP1 REVERT JUMPDEST PUSH1 0x0 DUP6 PUSH1 0x0 ADD MLOAD SWAP1 POP PUSH1 0x0 DUP2 PUSH1 0x40 ADD MLOAD SWAP1 POP PUSH2 0x1388 DUP3 PUSH1 0x60 ADD MLOAD DUP3 ADD ADD GAS LT ISZERO PUSH2 0xC6B JUMPI PUSH32 0xDEADDEAD00000000000000000000000000000000000000000000000000000000 PUSH1 0x0 MSTORE PUSH1 0x20 PUSH1 0x0 REVERT JUMPDEST PUSH1 0x0 DUP1 DUP10 MLOAD GT ISZERO PUSH2 0xD0F JUMPI PUSH1 0x0 PUSH2 0xC89 DUP5 PUSH1 0x0 ADD MLOAD PUSH1 0x0 DUP13 DUP7 PUSH2 0x20A1 JUMP JUMPDEST SWAP1 POP DUP1 PUSH2 0xD0D JUMPI PUSH1 0x0 PUSH2 0xC9D PUSH2 0x800 PUSH2 0x20BA JUMP JUMPDEST SWAP1 POP PUSH1 0x0 DUP2 MLOAD GT ISZERO PUSH2 0xD07 JUMPI DUP5 PUSH1 0x0 ADD MLOAD PUSH20 0xFFFFFFFFFFFFFFFFFFFFFFFFFFFFFFFFFFFFFFFF AND DUP11 PUSH1 0x20 ADD MLOAD PUSH32 0x1C4FADA7374C0A9EE8841FC38AFE82932DC0F8E69012E927F061A8BAE611A201 DUP8 PUSH1 0x20 ADD MLOAD DUP5 PUSH1 0x40 MLOAD PUSH2 0xCFE SWAP3 SWAP2 SWAP1 PUSH2 0x48B3 JUMP JUMPDEST PUSH1 0x40 MLOAD DUP1 SWAP2 SUB SWAP1 LOG3 JUMPDEST PUSH1 0x1 SWAP3 POP POP JUMPDEST POP JUMPDEST PUSH1 0x0 DUP9 PUSH1 0x80 ADD MLOAD GAS DUP7 SUB ADD SWAP1 POP PUSH2 0xD6E PUSH1 0x0 DUP4 DUP12 DUP12 DUP12 DUP1 DUP1 PUSH1 0x1F ADD PUSH1 0x20 DUP1 SWAP2 DIV MUL PUSH1 0x20 ADD PUSH1 0x40 MLOAD SWAP1 DUP2 ADD PUSH1 0x40 MSTORE DUP1 SWAP4 SWAP3 SWAP2 SWAP1 DUP2 DUP2 MSTORE PUSH1 0x20 ADD DUP4 DUP4 DUP1 DUP3 DUP5 CALLDATACOPY PUSH1 0x0 DUP2 DUP5 ADD MSTORE PUSH1 0x1F NOT PUSH1 0x1F DUP3 ADD AND SWAP1 POP DUP1 DUP4 ADD SWAP3 POP POP POP POP POP POP POP DUP6 PUSH2 0x20EA JUMP JUMPDEST SWAP6 POP POP POP POP POP POP SWAP5 SWAP4 POP POP POP POP JUMP JUMPDEST PUSH1 0x0 DUP4 DUP4 SWAP1 POP SWAP1 POP PUSH1 0x0 DUP2 PUSH8 0xFFFFFFFFFFFFFFFF DUP2 GT ISZERO PUSH2 0xDA1 JUMPI PUSH2 0xDA0 PUSH2 0x3C39 JUMP JUMPDEST JUMPDEST PUSH1 0x40 MLOAD SWAP1 DUP1 DUP3 MSTORE DUP1 PUSH1 0x20 MUL PUSH1 0x20 ADD DUP3 ADD PUSH1 0x40 MSTORE DUP1 ISZERO PUSH2 0xDDA JUMPI DUP2 PUSH1 0x20 ADD JUMPDEST PUSH2 0xDC7 PUSH2 0x3848 JUMP JUMPDEST DUP2 MSTORE PUSH1 0x20 ADD SWAP1 PUSH1 0x1 SWAP1 SUB SWAP1 DUP2 PUSH2 0xDBF JUMPI SWAP1 POP JUMPDEST POP SWAP1 POP PUSH1 0x0 JUMPDEST DUP3 DUP2 LT ISZERO PUSH2 0xE5A JUMPI PUSH1 0x0 DUP3 DUP3 DUP2 MLOAD DUP2 LT PUSH2 0xDFD JUMPI PUSH2 0xDFC PUSH2 0x48E3 JUMP JUMPDEST JUMPDEST PUSH1 0x20 MUL PUSH1 0x20 ADD ADD MLOAD SWAP1 POP PUSH1 0x0 DUP1 PUSH2 0xE39 DUP5 DUP11 DUP11 DUP8 DUP2 DUP2 LT PUSH2 0xE21 JUMPI PUSH2 0xE20 PUSH2 0x48E3 JUMP JUMPDEST JUMPDEST SWAP1 POP PUSH1 0x20 MUL DUP2 ADD SWAP1 PUSH2 0xE33 SWAP2 SWAP1 PUSH2 0x4921 JUMP JUMPDEST DUP6 PUSH2 0x23C9 JUMP JUMPDEST SWAP2 POP SWAP2 POP PUSH2 0xE4A DUP5 DUP4 DUP4 PUSH1 0x0 PUSH2 0x25BE JUMP JUMPDEST POP POP POP DUP1 DUP1 PUSH1 0x1 ADD SWAP2 POP POP PUSH2 0xDE0 JUMP JUMPDEST POP PUSH1 0x0 PUSH32 0xBB47EE3E183A558B1A2FF0874B079F3FC5478B7454EACF2BFC5AF2FF5878F972 PUSH1 0x40 MLOAD PUSH1 0x40 MLOAD DUP1 SWAP2 SUB SWAP1 LOG1 PUSH1 0x0 JUMPDEST DUP4 DUP2 LT ISZERO PUSH2 0xEEE JUMPI PUSH2 0xEDD DUP2 DUP9 DUP9 DUP5 DUP2 DUP2 LT PUSH2 0xEAB JUMPI PUSH2 0xEAA PUSH2 0x48E3 JUMP JUMPDEST JUMPDEST SWAP1 POP PUSH1 0x20 MUL DUP2 ADD SWAP1 PUSH2 0xEBD SWAP2 SWAP1 PUSH2 0x4921 JUMP JUMPDEST DUP6 DUP5 DUP2 MLOAD DUP2 LT PUSH2 0xED0 JUMPI PUSH2 0xECF PUSH2 0x48E3 JUMP JUMPDEST JUMPDEST PUSH1 0x20 MUL PUSH1 0x20 ADD ADD MLOAD PUSH2 0x2751 JUMP JUMPDEST DUP3 ADD SWAP2 POP DUP1 DUP1 PUSH1 0x1 ADD SWAP2 POP POP PUSH2 0xE8C JUMP JUMPDEST POP PUSH2 0xEF9 DUP5 DUP3 PUSH2 0x2924 JUMP JUMPDEST POP POP POP POP POP POP JUMP JUMPDEST PUSH1 0x0 DUP1 PUSH1 0x0 CALLER PUSH20 0xFFFFFFFFFFFFFFFFFFFFFFFFFFFFFFFFFFFFFFFF AND PUSH20 0xFFFFFFFFFFFFFFFFFFFFFFFFFFFFFFFFFFFFFFFF AND DUP2 MSTORE PUSH1 0x20 ADD SWAP1 DUP2 MSTORE PUSH1 0x20 ADD PUSH1 0x0 KECCAK256 SWAP1 POP DUP1 PUSH1 0x0 ADD PUSH1 0x0 SWAP1 SLOAD SWAP1 PUSH2 0x100 EXP SWAP1 DIV PUSH14 0xFFFFFFFFFFFFFFFFFFFFFFFFFFFF AND PUSH14 0xFFFFFFFFFFFFFFFFFFFFFFFFFFFF AND DUP3 GT ISZERO PUSH2 0xFB4 JUMPI PUSH1 0x40 MLOAD PUSH32 0x8C379A000000000000000000000000000000000000000000000000000000000 DUP2 MSTORE PUSH1 0x4 ADD PUSH2 0xFAB SWAP1 PUSH2 0x4996 JUMP JUMPDEST PUSH1 0x40 MLOAD DUP1 SWAP2 SUB SWAP1 REVERT JUMPDEST DUP2 DUP2 PUSH1 0x0 ADD PUSH1 0x0 SWAP1 SLOAD SWAP1 PUSH2 0x100 EXP SWAP1 DIV PUSH14 0xFFFFFFFFFFFFFFFFFFFFFFFFFFFF AND PUSH14 0xFFFFFFFFFFFFFFFFFFFFFFFFFFFF AND PUSH2 0xFEE SWAP2 SWAP1 PUSH2 0x49B6 JUMP JUMPDEST DUP2 PUSH1 0x0 ADD PUSH1 0x0 PUSH2 0x100 EXP DUP2 SLOAD DUP2 PUSH14 0xFFFFFFFFFFFFFFFFFFFFFFFFFFFF MUL NOT AND SWAP1 DUP4 PUSH14 0xFFFFFFFFFFFFFFFFFFFFFFFFFFFF AND MUL OR SWAP1 SSTORE POP CALLER PUSH20 0xFFFFFFFFFFFFFFFFFFFFFFFFFFFFFFFFFFFFFFFF AND PUSH32 0xD1C19FBCD4551A5EDFB66D43D2E337C04837AFDA3482B42BDF569A8FCCDAE5FB DUP5 DUP5 PUSH1 0x40 MLOAD PUSH2 0x106C SWAP3 SWAP2 SWAP1 PUSH2 0x4A3F JUMP JUMPDEST PUSH1 0x40 MLOAD DUP1 SWAP2 SUB SWAP1 LOG2 PUSH1 0x0 DUP4 PUSH20 0xFFFFFFFFFFFFFFFFFFFFFFFFFFFFFFFFFFFFFFFF AND DUP4 PUSH1 0x40 MLOAD PUSH2 0x109A SWAP1 PUSH2 0x4A99 JUMP JUMPDEST PUSH1 0x0 PUSH1 0x40 MLOAD DUP1 DUP4 SUB DUP2 DUP6 DUP8 GAS CALL SWAP3 POP POP POP RETURNDATASIZE DUP1 PUSH1 0x0 DUP2 EQ PUSH2 0x10D7 JUMPI PUSH1 0x40 MLOAD SWAP2 POP PUSH1 0x1F NOT PUSH1 0x3F RETURNDATASIZE ADD AND DUP3 ADD PUSH1 0x40 MSTORE RETURNDATASIZE DUP3 MSTORE RETURNDATASIZE PUSH1 0x0 PUSH1 0x20 DUP5 ADD RETURNDATACOPY PUSH2 0x10DC JUMP JUMPDEST PUSH1 0x60 SWAP2 POP JUMPDEST POP POP SWAP1 POP DUP1 PUSH2 0x1120 JUMPI PUSH1 0x40 MLOAD PUSH32 0x8C379A000000000000000000000000000000000000000000000000000000000 DUP2 MSTORE PUSH1 0x4 ADD PUSH2 0x1117 SWAP1 PUSH2 0x4AFA JUMP JUMPDEST PUSH1 0x40 MLOAD DUP1 SWAP2 SUB SWAP1 REVERT JUMPDEST POP POP POP POP JUMP JUMPDEST PUSH1 0x0 PUSH1 0x40 DUP3 PUSH24 0xFFFFFFFFFFFFFFFFFFFFFFFFFFFFFFFFFFFFFFFFFFFFFFFF AND SWAP1 SHL PUSH1 0x1 PUSH1 0x0 DUP6 PUSH20 0xFFFFFFFFFFFFFFFFFFFFFFFFFFFFFFFFFFFFFFFF AND PUSH20 0xFFFFFFFFFFFFFFFFFFFFFFFFFFFFFFFFFFFFFFFF AND DUP2 MSTORE PUSH1 0x20 ADD SWAP1 DUP2 MSTORE PUSH1 0x20 ADD PUSH1 0x0 KECCAK256 PUSH1 0x0 DUP5 PUSH24 0xFFFFFFFFFFFFFFFFFFFFFFFFFFFFFFFFFFFFFFFFFFFFFFFF AND PUSH24 0xFFFFFFFFFFFFFFFFFFFFFFFFFFFFFFFFFFFFFFFFFFFFFFFF AND DUP2 MSTORE PUSH1 0x20 ADD SWAP1 DUP2 MSTORE PUSH1 0x20 ADD PUSH1 0x0 KECCAK256 SLOAD OR SWAP1 POP SWAP3 SWAP2 POP POP JUMP JUMPDEST PUSH1 0x0 DUP4 DUP4 SWAP1 POP SWAP1 POP PUSH1 0x0 DUP1 JUMPDEST DUP3 DUP2 LT ISZERO PUSH2 0x13C2 JUMPI CALLDATASIZE DUP7 DUP7 DUP4 DUP2 DUP2 LT PUSH2 0x11FD JUMPI PUSH2 0x11FC PUSH2 0x48E3 JUMP JUMPDEST JUMPDEST SWAP1 POP PUSH1 0x20 MUL DUP2 ADD SWAP1 PUSH2 0x120F SWAP2 SWAP1 PUSH2 0x4B1A JUMP JUMPDEST SWAP1 POP CALLDATASIZE PUSH1 0x0 DUP3 DUP1 PUSH1 0x0 ADD SWAP1 PUSH2 0x1224 SWAP2 SWAP1 PUSH2 0x4B42 JUMP JUMPDEST SWAP2 POP SWAP2 POP PUSH1 0x0 DUP4 PUSH1 0x20 ADD PUSH1 0x20 DUP2 ADD SWAP1 PUSH2 0x123D SWAP2 SWAP1 PUSH2 0x4BE3 JUMP JUMPDEST SWAP1 POP PUSH1 0x1 PUSH20 0xFFFFFFFFFFFFFFFFFFFFFFFFFFFFFFFFFFFFFFFF AND DUP2 PUSH20 0xFFFFFFFFFFFFFFFFFFFFFFFFFFFFFFFFFFFFFFFF AND SUB PUSH2 0x12AE JUMPI PUSH1 0x40 MLOAD PUSH32 0x8C379A000000000000000000000000000000000000000000000000000000000 DUP2 MSTORE PUSH1 0x4 ADD PUSH2 0x12A5 SWAP1 PUSH2 0x4C5C JUMP JUMPDEST PUSH1 0x40 MLOAD DUP1 SWAP2 SUB SWAP1 REVERT JUMPDEST PUSH1 0x0 PUSH20 0xFFFFFFFFFFFFFFFFFFFFFFFFFFFFFFFFFFFFFFFF AND DUP2 PUSH20 0xFFFFFFFFFFFFFFFFFFFFFFFFFFFFFFFFFFFFFFFF AND EQ PUSH2 0x139A JUMPI DUP1 PUSH20 0xFFFFFFFFFFFFFFFFFFFFFFFFFFFFFFFFFFFFFFFF AND PUSH4 0xE3563A4F DUP5 DUP5 DUP8 DUP1 PUSH1 0x40 ADD SWAP1 PUSH2 0x1310 SWAP2 SWAP1 PUSH2 0x4C7C JUMP JUMPDEST PUSH1 0x40 MLOAD DUP6 PUSH4 0xFFFFFFFF AND PUSH1 0xE0 SHL DUP2 MSTORE PUSH1 0x4 ADD PUSH2 0x132F SWAP5 SWAP4 SWAP3 SWAP2 SWAP1 PUSH2 0x5045 JUMP JUMPDEST PUSH1 0x0 PUSH1 0x40 MLOAD DUP1 DUP4 SUB DUP2 DUP7 DUP1 EXTCODESIZE ISZERO DUP1 ISZERO PUSH2 0x1347 JUMPI PUSH1 0x0 DUP1 REVERT JUMPDEST POP GAS STATICCALL SWAP3 POP POP POP DUP1 ISZERO PUSH2 0x1358 JUMPI POP PUSH1 0x1 JUMPDEST PUSH2 0x1399 JUMPI DUP1 PUSH1 0x40 MLOAD PUSH32 0x86A9F75000000000000000000000000000000000000000000000000000000000 DUP2 MSTORE PUSH1 0x4 ADD PUSH2 0x1390 SWAP2 SWAP1 PUSH2 0x508F JUMP JUMPDEST PUSH1 0x40 MLOAD DUP1 SWAP2 SUB SWAP1 REVERT JUMPDEST JUMPDEST DUP3 DUP3 SWAP1 POP DUP7 PUSH2 0x13A9 SWAP2 SWAP1 PUSH2 0x461A JUMP JUMPDEST SWAP6 POP POP POP POP POP DUP1 DUP1 PUSH2 0x13BA SWAP1 PUSH2 0x4780 JUMP JUMPDEST SWAP2 POP POP PUSH2 0x11E1 JUMP JUMPDEST POP PUSH1 0x0 DUP2 PUSH8 0xFFFFFFFFFFFFFFFF DUP2 GT ISZERO PUSH2 0x13DF JUMPI PUSH2 0x13DE PUSH2 0x3C39 JUMP JUMPDEST JUMPDEST PUSH1 0x40 MLOAD SWAP1 DUP1 DUP3 MSTORE DUP1 PUSH1 0x20 MUL PUSH1 0x20 ADD DUP3 ADD PUSH1 0x40 MSTORE DUP1 ISZERO PUSH2 0x1418 JUMPI DUP2 PUSH1 0x20 ADD JUMPDEST PUSH2 0x1405 PUSH2 0x3848 JUMP JUMPDEST DUP2 MSTORE PUSH1 0x20 ADD SWAP1 PUSH1 0x1 SWAP1 SUB SWAP1 DUP2 PUSH2 0x13FD JUMPI SWAP1 POP JUMPDEST POP SWAP1 POP PUSH1 0x0 DUP1 JUMPDEST DUP5 DUP2 LT ISZERO PUSH2 0x152E JUMPI CALLDATASIZE DUP9 DUP9 DUP4 DUP2 DUP2 LT PUSH2 0x143B JUMPI PUSH2 0x143A PUSH2 0x48E3 JUMP JUMPDEST JUMPDEST SWAP1 POP PUSH1 0x20 MUL DUP2 ADD SWAP1 PUSH2 0x144D SWAP2 SWAP1 PUSH2 0x4B1A JUMP JUMPDEST SWAP1 POP CALLDATASIZE PUSH1 0x0 DUP3 DUP1 PUSH1 0x0 ADD SWAP1 PUSH2 0x1462 SWAP2 SWAP1 PUSH2 0x4B42 JUMP JUMPDEST SWAP2 POP SWAP2 POP PUSH1 0x0 DUP4 PUSH1 0x20 ADD PUSH1 0x20 DUP2 ADD SWAP1 PUSH2 0x147B SWAP2 SWAP1 PUSH2 0x4BE3 JUMP JUMPDEST SWAP1 POP PUSH1 0x0 DUP4 DUP4 SWAP1 POP SWAP1 POP PUSH1 0x0 JUMPDEST DUP2 DUP2 LT ISZERO PUSH2 0x1515 JUMPI PUSH1 0x0 DUP10 DUP10 DUP2 MLOAD DUP2 LT PUSH2 0x14A5 JUMPI PUSH2 0x14A4 PUSH2 0x48E3 JUMP JUMPDEST JUMPDEST PUSH1 0x20 MUL PUSH1 0x20 ADD ADD MLOAD SWAP1 POP PUSH1 0x0 DUP1 PUSH2 0x14E1 DUP12 DUP10 DUP10 DUP8 DUP2 DUP2 LT PUSH2 0x14C9 JUMPI PUSH2 0x14C8 PUSH2 0x48E3 JUMP JUMPDEST JUMPDEST SWAP1 POP PUSH1 0x20 MUL DUP2 ADD SWAP1 PUSH2 0x14DB SWAP2 SWAP1 PUSH2 0x4921 JUMP JUMPDEST DUP6 PUSH2 0x23C9 JUMP JUMPDEST SWAP2 POP SWAP2 POP PUSH2 0x14F1 DUP5 DUP4 DUP4 DUP10 PUSH2 0x25BE JUMP JUMPDEST DUP11 DUP1 PUSH2 0x14FC SWAP1 PUSH2 0x4780 JUMP JUMPDEST SWAP12 POP POP POP POP POP DUP1 DUP1 PUSH2 0x150D SWAP1 PUSH2 0x4780 JUMP JUMPDEST SWAP2 POP POP PUSH2 0x1488 JUMP JUMPDEST POP POP POP POP POP POP DUP1 DUP1 PUSH2 0x1526 SWAP1 PUSH2 0x4780 JUMP JUMPDEST SWAP2 POP POP PUSH2 0x141F JUMP JUMPDEST POP PUSH32 0xBB47EE3E183A558B1A2FF0874B079F3FC5478B7454EACF2BFC5AF2FF5878F972 PUSH1 0x40 MLOAD PUSH1 0x40 MLOAD DUP1 SWAP2 SUB SWAP1 LOG1 PUSH1 0x0 DUP1 SWAP2 POP PUSH1 0x0 JUMPDEST DUP6 DUP2 LT ISZERO PUSH2 0x16A1 JUMPI CALLDATASIZE DUP10 DUP10 DUP4 DUP2 DUP2 LT PUSH2 0x157F JUMPI PUSH2 0x157E PUSH2 0x48E3 JUMP JUMPDEST JUMPDEST SWAP1 POP PUSH1 0x20 MUL DUP2 ADD SWAP1 PUSH2 0x1591 SWAP2 SWAP1 PUSH2 0x4B1A JUMP JUMPDEST SWAP1 POP DUP1 PUSH1 0x20 ADD PUSH1 0x20 DUP2 ADD SWAP1 PUSH2 0x15A6 SWAP2 SWAP1 PUSH2 0x4BE3 JUMP JUMPDEST PUSH20 0xFFFFFFFFFFFFFFFFFFFFFFFFFFFFFFFFFFFFFFFF AND PUSH32 0x575FF3ACADD5AB348FE1855E217E0F3678F8D767D7494C9F9FEFBEE2E17CCA4D PUSH1 0x40 MLOAD PUSH1 0x40 MLOAD DUP1 SWAP2 SUB SWAP1 LOG2 CALLDATASIZE PUSH1 0x0 DUP3 DUP1 PUSH1 0x0 ADD SWAP1 PUSH2 0x15FB SWAP2 SWAP1 PUSH2 0x4B42 JUMP JUMPDEST SWAP2 POP SWAP2 POP PUSH1 0x0 DUP3 DUP3 SWAP1 POP SWAP1 POP PUSH1 0x0 JUMPDEST DUP2 DUP2 LT ISZERO PUSH2 0x1689 JUMPI PUSH2 0x165B DUP9 DUP6 DUP6 DUP5 DUP2 DUP2 LT PUSH2 0x1629 JUMPI PUSH2 0x1628 PUSH2 0x48E3 JUMP JUMPDEST JUMPDEST SWAP1 POP PUSH1 0x20 MUL DUP2 ADD SWAP1 PUSH2 0x163B SWAP2 SWAP1 PUSH2 0x4921 JUMP JUMPDEST DUP12 DUP12 DUP2 MLOAD DUP2 LT PUSH2 0x164E JUMPI PUSH2 0x164D PUSH2 0x48E3 JUMP JUMPDEST JUMPDEST PUSH1 0x20 MUL PUSH1 0x20 ADD ADD MLOAD PUSH2 0x2751 JUMP JUMPDEST DUP8 PUSH2 0x1666 SWAP2 SWAP1 PUSH2 0x461A JUMP JUMPDEST SWAP7 POP DUP8 DUP1 PUSH2 0x1673 SWAP1 PUSH2 0x4780 JUMP JUMPDEST SWAP9 POP POP DUP1 DUP1 PUSH2 0x1681 SWAP1 PUSH2 0x4780 JUMP JUMPDEST SWAP2 POP POP PUSH2 0x160A JUMP JUMPDEST POP POP POP POP POP DUP1 DUP1 PUSH2 0x1699 SWAP1 PUSH2 0x4780 JUMP JUMPDEST SWAP2 POP POP PUSH2 0x1563 JUMP JUMPDEST POP PUSH1 0x0 PUSH20 0xFFFFFFFFFFFFFFFFFFFFFFFFFFFFFFFFFFFFFFFF AND PUSH32 0x575FF3ACADD5AB348FE1855E217E0F3678F8D767D7494C9F9FEFBEE2E17CCA4D PUSH1 0x40 MLOAD PUSH1 0x40 MLOAD DUP1 SWAP2 SUB SWAP1 LOG2 PUSH2 0x16F0 DUP7 DUP3 PUSH2 0x2924 JUMP JUMPDEST POP POP POP POP POP POP POP POP JUMP JUMPDEST PUSH2 0x1702 PUSH2 0x3880 JUMP JUMPDEST PUSH1 0x0 DUP1 DUP4 PUSH20 0xFFFFFFFFFFFFFFFFFFFFFFFFFFFFFFFFFFFFFFFF AND PUSH20 0xFFFFFFFFFFFFFFFFFFFFFFFFFFFFFFFFFFFFFFFF AND DUP2 MSTORE PUSH1 0x20 ADD SWAP1 DUP2 MSTORE PUSH1 0x20 ADD PUSH1 0x0 KECCAK256 PUSH1 0x40 MLOAD DUP1 PUSH1 0xA0 ADD PUSH1 0x40 MSTORE SWAP1 DUP2 PUSH1 0x0 DUP3 ADD PUSH1 0x0 SWAP1 SLOAD SWAP1 PUSH2 0x100 EXP SWAP1 DIV PUSH14 0xFFFFFFFFFFFFFFFFFFFFFFFFFFFF AND PUSH14 0xFFFFFFFFFFFFFFFFFFFFFFFFFFFF AND PUSH14 0xFFFFFFFFFFFFFFFFFFFFFFFFFFFF AND DUP2 MSTORE PUSH1 0x20 ADD PUSH1 0x0 DUP3 ADD PUSH1 0xE SWAP1 SLOAD SWAP1 PUSH2 0x100 EXP SWAP1 DIV PUSH1 0xFF AND ISZERO ISZERO ISZERO ISZERO DUP2 MSTORE PUSH1 0x20 ADD PUSH1 0x0 DUP3 ADD PUSH1 0xF SWAP1 SLOAD SWAP1 PUSH2 0x100 EXP SWAP1 DIV PUSH14 0xFFFFFFFFFFFFFFFFFFFFFFFFFFFF AND PUSH14 0xFFFFFFFFFFFFFFFFFFFFFFFFFFFF AND PUSH14 0xFFFFFFFFFFFFFFFFFFFFFFFFFFFF AND DUP2 MSTORE PUSH1 0x20 ADD PUSH1 0x1 DUP3 ADD PUSH1 0x0 SWAP1 SLOAD SWAP1 PUSH2 0x100 EXP SWAP1 DIV PUSH4 0xFFFFFFFF AND PUSH4 0xFFFFFFFF AND PUSH4 0xFFFFFFFF AND DUP2 MSTORE PUSH1 0x20 ADD PUSH1 0x1 DUP3 ADD PUSH1 0x4 SWAP1 SLOAD SWAP1 PUSH2 0x100 EXP SWAP1 DIV PUSH6 0xFFFFFFFFFFFF AND PUSH6 0xFFFFFFFFFFFF AND PUSH6 0xFFFFFFFFFFFF AND DUP2 MSTORE POP POP SWAP1 POP SWAP2 SWAP1 POP JUMP JUMPDEST PUSH1 0x0 DUP1 PUSH1 0x0 DUP4 PUSH20 0xFFFFFFFFFFFFFFFFFFFFFFFFFFFFFFFFFFFFFFFF AND PUSH20 0xFFFFFFFFFFFFFFFFFFFFFFFFFFFFFFFFFFFFFFFF AND DUP2 MSTORE PUSH1 0x20 ADD SWAP1 DUP2 MSTORE PUSH1 0x20 ADD PUSH1 0x0 KECCAK256 PUSH1 0x0 ADD PUSH1 0x0 SWAP1 SLOAD SWAP1 PUSH2 0x100 EXP SWAP1 DIV PUSH14 0xFFFFFFFFFFFFFFFFFFFFFFFFFFFF AND PUSH14 0xFFFFFFFFFFFFFFFFFFFFFFFFFFFF AND SWAP1 POP SWAP2 SWAP1 POP JUMP JUMPDEST PUSH1 0x1 DUP2 JUMP JUMPDEST PUSH1 0x0 PUSH1 0x2 PUSH1 0x0 SWAP1 SLOAD SWAP1 PUSH2 0x100 EXP SWAP1 DIV PUSH20 0xFFFFFFFFFFFFFFFFFFFFFFFFFFFFFFFFFFFFFFFF AND PUSH20 0xFFFFFFFFFFFFFFFFFFFFFFFFFFFFFFFFFFFFFFFF AND PUSH4 0x570E1A36 DUP5 DUP5 PUSH1 0x40 MLOAD DUP4 PUSH4 0xFFFFFFFF AND PUSH1 0xE0 SHL DUP2 MSTORE PUSH1 0x4 ADD PUSH2 0x1920 SWAP3 SWAP2 SWAP1 PUSH2 0x50AA JUMP JUMPDEST PUSH1 0x20 PUSH1 0x40 MLOAD DUP1 DUP4 SUB DUP2 PUSH1 0x0 DUP8 GAS CALL ISZERO DUP1 ISZERO PUSH2 0x193F JUMPI RETURNDATASIZE PUSH1 0x0 DUP1 RETURNDATACOPY RETURNDATASIZE PUSH1 0x0 REVERT JUMPDEST POP POP POP POP PUSH1 0x40 MLOAD RETURNDATASIZE PUSH1 0x1F NOT PUSH1 0x1F DUP3 ADD AND DUP3 ADD DUP1 PUSH1 0x40 MSTORE POP DUP2 ADD SWAP1 PUSH2 0x1963 SWAP2 SWAP1 PUSH2 0x50E3 JUMP JUMPDEST SWAP1 POP DUP1 PUSH1 0x40 MLOAD PUSH32 0x6CA7B80600000000000000000000000000000000000000000000000000000000 DUP2 MSTORE PUSH1 0x4 ADD PUSH2 0x1999 SWAP2 SWAP1 PUSH2 0x508F JUMP JUMPDEST PUSH1 0x40 MLOAD DUP1 SWAP2 SUB SWAP1 REVERT JUMPDEST PUSH1 0x0 PUSH2 0x19AD DUP3 PUSH2 0x2A44 JUMP JUMPDEST ADDRESS CHAINID PUSH1 0x40 MLOAD PUSH1 0x20 ADD PUSH2 0x19C1 SWAP4 SWAP3 SWAP2 SWAP1 PUSH2 0x5110 JUMP JUMPDEST PUSH1 0x40 MLOAD PUSH1 0x20 DUP2 DUP4 SUB SUB DUP2 MSTORE SWAP1 PUSH1 0x40 MSTORE DUP1 MLOAD SWAP1 PUSH1 0x20 ADD KECCAK256 SWAP1 POP SWAP2 SWAP1 POP JUMP JUMPDEST PUSH1 0x0 DUP1 PUSH1 0x0 CALLER PUSH20 0xFFFFFFFFFFFFFFFFFFFFFFFFFFFFFFFFFFFFFFFF AND PUSH20 0xFFFFFFFFFFFFFFFFFFFFFFFFFFFFFFFFFFFFFFFF AND DUP2 MSTORE PUSH1 0x20 ADD SWAP1 DUP2 MSTORE PUSH1 0x20 ADD PUSH1 0x0 KECCAK256 SWAP1 POP PUSH1 0x0 DUP2 PUSH1 0x1 ADD PUSH1 0x0 SWAP1 SLOAD SWAP1 PUSH2 0x100 EXP SWAP1 DIV PUSH4 0xFFFFFFFF AND PUSH4 0xFFFFFFFF AND SUB PUSH2 0x1A7D JUMPI PUSH1 0x40 MLOAD PUSH32 0x8C379A000000000000000000000000000000000000000000000000000000000 DUP2 MSTORE PUSH1 0x4 ADD PUSH2 0x1A74 SWAP1 PUSH2 0x5193 JUMP JUMPDEST PUSH1 0x40 MLOAD DUP1 SWAP2 SUB SWAP1 REVERT JUMPDEST DUP1 PUSH1 0x0 ADD PUSH1 0xE SWAP1 SLOAD SWAP1 PUSH2 0x100 EXP SWAP1 DIV PUSH1 0xFF AND PUSH2 0x1ACE JUMPI PUSH1 0x40 MLOAD PUSH32 0x8C379A000000000000000000000000000000000000000000000000000000000 DUP2 MSTORE PUSH1 0x4 ADD PUSH2 0x1AC5 SWAP1 PUSH2 0x51FF JUMP JUMPDEST PUSH1 0x40 MLOAD DUP1 SWAP2 SUB SWAP1 REVERT JUMPDEST PUSH1 0x0 DUP2 PUSH1 0x1 ADD PUSH1 0x0 SWAP1 SLOAD SWAP1 PUSH2 0x100 EXP SWAP1 DIV PUSH4 0xFFFFFFFF AND PUSH4 0xFFFFFFFF AND TIMESTAMP PUSH2 0x1AF6 SWAP2 SWAP1 PUSH2 0x521F JUMP JUMPDEST SWAP1 POP DUP1 DUP3 PUSH1 0x1 ADD PUSH1 0x4 PUSH2 0x100 EXP DUP2 SLOAD DUP2 PUSH6 0xFFFFFFFFFFFF MUL NOT AND SWAP1 DUP4 PUSH6 0xFFFFFFFFFFFF AND MUL OR SWAP1 SSTORE POP PUSH1 0x0 DUP3 PUSH1 0x0 ADD PUSH1 0xE PUSH2 0x100 EXP DUP2 SLOAD DUP2 PUSH1 0xFF MUL NOT AND SWAP1 DUP4 ISZERO ISZERO MUL OR SWAP1 SSTORE POP CALLER PUSH20 0xFFFFFFFFFFFFFFFFFFFFFFFFFFFFFFFFFFFFFFFF AND PUSH32 0xFA9B3C14CC825C412C9ED81B3BA365A5B459439403F18829E572ED53A4180F0A DUP3 PUSH1 0x40 MLOAD PUSH2 0x1B82 SWAP2 SWAP1 PUSH2 0x528A JUMP JUMPDEST PUSH1 0x40 MLOAD DUP1 SWAP2 SUB SWAP1 LOG2 POP POP JUMP JUMPDEST PUSH1 0x0 DUP1 PUSH1 0x0 CALLER PUSH20 0xFFFFFFFFFFFFFFFFFFFFFFFFFFFFFFFFFFFFFFFF AND PUSH20 0xFFFFFFFFFFFFFFFFFFFFFFFFFFFFFFFFFFFFFFFF AND DUP2 MSTORE PUSH1 0x20 ADD SWAP1 DUP2 MSTORE PUSH1 0x20 ADD PUSH1 0x0 KECCAK256 SWAP1 POP PUSH1 0x0 DUP2 PUSH1 0x0 ADD PUSH1 0xF SWAP1 SLOAD SWAP1 PUSH2 0x100 EXP SWAP1 DIV PUSH14 0xFFFFFFFFFFFFFFFFFFFFFFFFFFFF AND PUSH14 0xFFFFFFFFFFFFFFFFFFFFFFFFFFFF AND SWAP1 POP PUSH1 0x0 DUP2 GT PUSH2 0x1C46 JUMPI PUSH1 0x40 MLOAD PUSH32 0x8C379A000000000000000000000000000000000000000000000000000000000 DUP2 MSTORE PUSH1 0x4 ADD PUSH2 0x1C3D SWAP1 PUSH2 0x52F1 JUMP JUMPDEST PUSH1 0x40 MLOAD DUP1 SWAP2 SUB SWAP1 REVERT JUMPDEST PUSH1 0x0 DUP3 PUSH1 0x1 ADD PUSH1 0x4 SWAP1 SLOAD SWAP1 PUSH2 0x100 EXP SWAP1 DIV PUSH6 0xFFFFFFFFFFFF AND PUSH6 0xFFFFFFFFFFFF AND GT PUSH2 0x1CA7 JUMPI PUSH1 0x40 MLOAD PUSH32 0x8C379A000000000000000000000000000000000000000000000000000000000 DUP2 MSTORE PUSH1 0x4 ADD PUSH2 0x1C9E SWAP1 PUSH2 0x535D JUMP JUMPDEST PUSH1 0x40 MLOAD DUP1 SWAP2 SUB SWAP1 REVERT JUMPDEST TIMESTAMP DUP3 PUSH1 0x1 ADD PUSH1 0x4 SWAP1 SLOAD SWAP1 PUSH2 0x100 EXP SWAP1 DIV PUSH6 0xFFFFFFFFFFFF AND PUSH6 0xFFFFFFFFFFFF AND GT ISZERO PUSH2 0x1D08 JUMPI PUSH1 0x40 MLOAD PUSH32 0x8C379A000000000000000000000000000000000000000000000000000000000 DUP2 MSTORE PUSH1 0x4 ADD PUSH2 0x1CFF SWAP1 PUSH2 0x53C9 JUMP JUMPDEST PUSH1 0x40 MLOAD DUP1 SWAP2 SUB SWAP1 REVERT JUMPDEST PUSH1 0x0 DUP3 PUSH1 0x1 ADD PUSH1 0x0 PUSH2 0x100 EXP DUP2 SLOAD DUP2 PUSH4 0xFFFFFFFF MUL NOT AND SWAP1 DUP4 PUSH4 0xFFFFFFFF AND MUL OR SWAP1 SSTORE POP PUSH1 0x0 DUP3 PUSH1 0x1 ADD PUSH1 0x4 PUSH2 0x100 EXP DUP2 SLOAD DUP2 PUSH6 0xFFFFFFFFFFFF MUL NOT AND SWAP1 DUP4 PUSH6 0xFFFFFFFFFFFF AND MUL OR SWAP1 SSTORE POP PUSH1 0x0 DUP3 PUSH1 0x0 ADD PUSH1 0xF PUSH2 0x100 EXP DUP2 SLOAD DUP2 PUSH14 0xFFFFFFFFFFFFFFFFFFFFFFFFFFFF MUL NOT AND SWAP1 DUP4 PUSH14 0xFFFFFFFFFFFFFFFFFFFFFFFFFFFF AND MUL OR SWAP1 SSTORE POP CALLER PUSH20 0xFFFFFFFFFFFFFFFFFFFFFFFFFFFFFFFFFFFFFFFF AND PUSH32 0xB7C918E0E249F999E965CAFEB6C664271B3F4317D296461500E71DA39F0CBDA3 DUP5 DUP4 PUSH1 0x40 MLOAD PUSH2 0x1DD4 SWAP3 SWAP2 SWAP1 PUSH2 0x4A3F JUMP JUMPDEST PUSH1 0x40 MLOAD DUP1 SWAP2 SUB SWAP1 LOG2 PUSH1 0x0 DUP4 PUSH20 0xFFFFFFFFFFFFFFFFFFFFFFFFFFFFFFFFFFFFFFFF AND DUP3 PUSH1 0x40 MLOAD PUSH2 0x1E02 SWAP1 PUSH2 0x4A99 JUMP JUMPDEST PUSH1 0x0 PUSH1 0x40 MLOAD DUP1 DUP4 SUB DUP2 DUP6 DUP8 GAS CALL SWAP3 POP POP POP RETURNDATASIZE DUP1 PUSH1 0x0 DUP2 EQ PUSH2 0x1E3F JUMPI PUSH1 0x40 MLOAD SWAP2 POP PUSH1 0x1F NOT PUSH1 0x3F RETURNDATASIZE ADD AND DUP3 ADD PUSH1 0x40 MSTORE RETURNDATASIZE DUP3 MSTORE RETURNDATASIZE PUSH1 0x0 PUSH1 0x20 DUP5 ADD RETURNDATACOPY PUSH2 0x1E44 JUMP JUMPDEST PUSH1 0x60 SWAP2 POP JUMPDEST POP POP SWAP1 POP DUP1 PUSH2 0x1E88 JUMPI PUSH1 0x40 MLOAD PUSH32 0x8C379A000000000000000000000000000000000000000000000000000000000 DUP2 MSTORE PUSH1 0x4 ADD PUSH2 0x1E7F SWAP1 PUSH2 0x5435 JUMP JUMPDEST PUSH1 0x40 MLOAD DUP1 SWAP2 SUB SWAP1 REVERT JUMPDEST POP POP POP POP JUMP JUMPDEST PUSH1 0x0 PUSH1 0x20 MSTORE DUP1 PUSH1 0x0 MSTORE PUSH1 0x40 PUSH1 0x0 KECCAK256 PUSH1 0x0 SWAP2 POP SWAP1 POP DUP1 PUSH1 0x0 ADD PUSH1 0x0 SWAP1 SLOAD SWAP1 PUSH2 0x100 EXP SWAP1 DIV PUSH14 0xFFFFFFFFFFFFFFFFFFFFFFFFFFFF AND SWAP1 DUP1 PUSH1 0x0 ADD PUSH1 0xE SWAP1 SLOAD SWAP1 PUSH2 0x100 EXP SWAP1 DIV PUSH1 0xFF AND SWAP1 DUP1 PUSH1 0x0 ADD PUSH1 0xF SWAP1 SLOAD SWAP1 PUSH2 0x100 EXP SWAP1 DIV PUSH14 0xFFFFFFFFFFFFFFFFFFFFFFFFFFFF AND SWAP1 DUP1 PUSH1 0x1 ADD PUSH1 0x0 SWAP1 SLOAD SWAP1 PUSH2 0x100 EXP SWAP1 DIV PUSH4 0xFFFFFFFF AND SWAP1 DUP1 PUSH1 0x1 ADD PUSH1 0x4 SWAP1 SLOAD SWAP1 PUSH2 0x100 EXP SWAP1 DIV PUSH6 0xFFFFFFFFFFFF AND SWAP1 POP DUP6 JUMP JUMPDEST PUSH1 0x0 DUP1 PUSH1 0x0 DUP5 PUSH20 0xFFFFFFFFFFFFFFFFFFFFFFFFFFFFFFFFFFFFFFFF AND PUSH20 0xFFFFFFFFFFFFFFFFFFFFFFFFFFFFFFFFFFFFFFFF AND DUP2 MSTORE PUSH1 0x20 ADD SWAP1 DUP2 MSTORE PUSH1 0x20 ADD PUSH1 0x0 KECCAK256 SWAP1 POP PUSH1 0x0 DUP3 DUP3 PUSH1 0x0 ADD PUSH1 0x0 SWAP1 SLOAD SWAP1 PUSH2 0x100 EXP SWAP1 DIV PUSH14 0xFFFFFFFFFFFFFFFFFFFFFFFFFFFF AND PUSH14 0xFFFFFFFFFFFFFFFFFFFFFFFFFFFF AND PUSH2 0x1FA5 SWAP2 SWAP1 PUSH2 0x461A JUMP JUMPDEST SWAP1 POP PUSH14 0xFFFFFFFFFFFFFFFFFFFFFFFFFFFF DUP1 AND DUP2 GT ISZERO PUSH2 0x1FFA JUMPI PUSH1 0x40 MLOAD PUSH32 0x8C379A000000000000000000000000000000000000000000000000000000000 DUP2 MSTORE PUSH1 0x4 ADD PUSH2 0x1FF1 SWAP1 PUSH2 0x54A1 JUMP JUMPDEST PUSH1 0x40 MLOAD DUP1 SWAP2 SUB SWAP1 REVERT JUMPDEST DUP1 DUP3 PUSH1 0x0 ADD PUSH1 0x0 PUSH2 0x100 EXP DUP2 SLOAD DUP2 PUSH14 0xFFFFFFFFFFFFFFFFFFFFFFFFFFFF MUL NOT AND SWAP1 DUP4 PUSH14 0xFFFFFFFFFFFFFFFFFFFFFFFFFFFF AND MUL OR SWAP1 SSTORE POP POP POP POP POP JUMP JUMPDEST PUSH1 0x0 PUSH32 0x1FFC9A700000000000000000000000000000000000000000000000000000000 PUSH28 0xFFFFFFFFFFFFFFFFFFFFFFFFFFFFFFFFFFFFFFFFFFFFFFFFFFFFFFFF NOT AND DUP3 PUSH28 0xFFFFFFFFFFFFFFFFFFFFFFFFFFFFFFFFFFFFFFFFFFFFFFFFFFFFFFFF NOT AND EQ SWAP1 POP SWAP2 SWAP1 POP JUMP JUMPDEST PUSH1 0x0 DUP1 PUSH1 0x0 DUP5 MLOAD PUSH1 0x20 DUP7 ADD DUP8 DUP10 DUP8 CALL SWAP1 POP SWAP5 SWAP4 POP POP POP POP JUMP JUMPDEST PUSH1 0x60 RETURNDATASIZE DUP3 DUP2 GT ISZERO PUSH2 0x20C9 JUMPI DUP3 SWAP1 POP JUMPDEST PUSH1 0x40 MLOAD PUSH1 0x20 DUP3 ADD DUP2 ADD PUSH1 0x40 MSTORE DUP2 DUP2 MSTORE DUP2 PUSH1 0x0 PUSH1 0x20 DUP4 ADD RETURNDATACOPY DUP1 SWAP3 POP POP POP SWAP2 SWAP1 POP JUMP JUMPDEST PUSH1 0x0 DUP1 GAS SWAP1 POP PUSH1 0x0 DUP1 DUP7 PUSH1 0x0 ADD MLOAD SWAP1 POP PUSH1 0x0 PUSH2 0x2105 DUP3 PUSH2 0x2A5D JUMP JUMPDEST SWAP1 POP PUSH1 0x0 DUP3 PUSH1 0xA0 ADD MLOAD SWAP1 POP PUSH1 0x0 PUSH20 0xFFFFFFFFFFFFFFFFFFFFFFFFFFFFFFFFFFFFFFFF AND DUP2 PUSH20 0xFFFFFFFFFFFFFFFFFFFFFFFFFFFFFFFFFFFFFFFF AND SUB PUSH2 0x2150 JUMPI DUP3 PUSH1 0x0 ADD MLOAD SWAP4 POP PUSH2 0x224E JUMP JUMPDEST DUP1 SWAP4 POP PUSH1 0x0 DUP9 MLOAD GT ISZERO PUSH2 0x224D JUMPI DUP2 DUP8 MUL SWAP6 POP PUSH1 0x2 DUP1 DUP2 GT ISZERO PUSH2 0x2175 JUMPI PUSH2 0x2174 PUSH2 0x54C1 JUMP JUMPDEST JUMPDEST DUP11 PUSH1 0x2 DUP2 GT ISZERO PUSH2 0x2188 JUMPI PUSH2 0x2187 PUSH2 0x54C1 JUMP JUMPDEST JUMPDEST EQ PUSH2 0x224C JUMPI DUP1 PUSH20 0xFFFFFFFFFFFFFFFFFFFFFFFFFFFFFFFFFFFFFFFF AND PUSH4 0xA9A23409 DUP5 PUSH1 0x60 ADD MLOAD DUP13 DUP12 DUP11 PUSH1 0x40 MLOAD DUP6 PUSH4 0xFFFFFFFF AND PUSH1 0xE0 SHL DUP2 MSTORE PUSH1 0x4 ADD PUSH2 0x21CF SWAP4 SWAP3 SWAP2 SWAP1 PUSH2 0x5538 JUMP JUMPDEST PUSH1 0x0 PUSH1 0x40 MLOAD DUP1 DUP4 SUB DUP2 PUSH1 0x0 DUP9 DUP1 EXTCODESIZE ISZERO DUP1 ISZERO PUSH2 0x21E9 JUMPI PUSH1 0x0 DUP1 REVERT JUMPDEST POP DUP8 CALL SWAP4 POP POP POP POP DUP1 ISZERO PUSH2 0x21FB JUMPI POP PUSH1 0x1 JUMPDEST PUSH2 0x224B JUMPI PUSH1 0x0 PUSH2 0x220C PUSH2 0x800 PUSH2 0x20BA JUMP JUMPDEST SWAP1 POP DUP1 PUSH1 0x40 MLOAD PUSH32 0xAD7954BC00000000000000000000000000000000000000000000000000000000 DUP2 MSTORE PUSH1 0x4 ADD PUSH2 0x2242 SWAP2 SWAP1 PUSH2 0x5576 JUMP JUMPDEST PUSH1 0x40 MLOAD DUP1 SWAP2 SUB SWAP1 REVERT JUMPDEST JUMPDEST JUMPDEST JUMPDEST GAS DUP6 SUB DUP8 ADD SWAP7 POP PUSH1 0x0 DUP4 PUSH1 0x40 ADD MLOAD SWAP1 POP PUSH1 0x0 DUP10 MLOAD GT ISZERO PUSH2 0x2272 JUMPI DUP4 PUSH1 0x60 ADD MLOAD DUP2 ADD SWAP1 POP JUMPDEST PUSH1 0x0 DUP11 PUSH1 0x80 ADD MLOAD DUP10 SUB SWAP1 POP DUP1 DUP3 GT ISZERO PUSH2 0x22AD JUMPI PUSH1 0x0 DUP2 DUP4 SUB SWAP1 POP PUSH1 0x0 PUSH1 0x64 PUSH1 0xA DUP4 MUL DUP2 PUSH2 0x22A2 JUMPI PUSH2 0x22A1 PUSH2 0x5598 JUMP JUMPDEST JUMPDEST DIV SWAP1 POP DUP1 DUP12 ADD SWAP11 POP POP POP JUMPDEST POP POP DUP2 DUP8 MUL SWAP6 POP DUP6 DUP10 PUSH1 0x40 ADD MLOAD LT ISZERO PUSH2 0x22FD JUMPI DUP11 PUSH1 0x40 MLOAD PUSH32 0x220266B600000000000000000000000000000000000000000000000000000000 DUP2 MSTORE PUSH1 0x4 ADD PUSH2 0x22F4 SWAP2 SWAP1 PUSH2 0x5613 JUMP JUMPDEST PUSH1 0x40 MLOAD DUP1 SWAP2 SUB SWAP1 REVERT JUMPDEST PUSH1 0x0 DUP7 DUP11 PUSH1 0x40 ADD MLOAD SUB SWAP1 POP PUSH2 0x2312 DUP6 DUP3 PUSH2 0x1F27 JUMP JUMPDEST PUSH1 0x0 DUP1 PUSH1 0x2 DUP2 GT ISZERO PUSH2 0x2327 JUMPI PUSH2 0x2326 PUSH2 0x54C1 JUMP JUMPDEST JUMPDEST DUP13 PUSH1 0x2 DUP2 GT ISZERO PUSH2 0x233A JUMPI PUSH2 0x2339 PUSH2 0x54C1 JUMP JUMPDEST JUMPDEST EQ SWAP1 POP DUP5 PUSH1 0xA0 ADD MLOAD PUSH20 0xFFFFFFFFFFFFFFFFFFFFFFFFFFFFFFFFFFFFFFFF AND DUP6 PUSH1 0x0 ADD MLOAD PUSH20 0xFFFFFFFFFFFFFFFFFFFFFFFFFFFFFFFFFFFFFFFF AND DUP13 PUSH1 0x20 ADD MLOAD PUSH32 0x49628FD1471006C1482DA88028E9CE4DBB080B815C9B0344D39E5A8E6EC1419F DUP9 PUSH1 0x20 ADD MLOAD DUP6 DUP14 DUP16 PUSH1 0x40 MLOAD PUSH2 0x23B1 SWAP5 SWAP4 SWAP3 SWAP2 SWAP1 PUSH2 0x5641 JUMP JUMPDEST PUSH1 0x40 MLOAD DUP1 SWAP2 SUB SWAP1 LOG4 POP POP POP POP POP POP POP SWAP6 SWAP5 POP POP POP POP POP JUMP JUMPDEST PUSH1 0x0 DUP1 PUSH1 0x0 GAS SWAP1 POP PUSH1 0x0 DUP5 PUSH1 0x0 ADD MLOAD SWAP1 POP PUSH2 0x23E4 DUP7 DUP3 PUSH2 0x2A97 JUMP JUMPDEST PUSH2 0x23ED DUP7 PUSH2 0x19A2 JUMP JUMPDEST DUP6 PUSH1 0x20 ADD DUP2 DUP2 MSTORE POP POP PUSH1 0x0 DUP7 PUSH2 0x100 ADD CALLDATALOAD DUP8 PUSH1 0xE0 ADD CALLDATALOAD DUP4 PUSH1 0x40 ADD MLOAD DUP5 PUSH1 0x60 ADD MLOAD DUP6 PUSH1 0x80 ADD MLOAD OR OR OR OR SWAP1 POP PUSH15 0xFFFFFFFFFFFFFFFFFFFFFFFFFFFFFF DUP1 AND DUP2 GT ISZERO PUSH2 0x246C JUMPI PUSH1 0x40 MLOAD PUSH32 0x8C379A000000000000000000000000000000000000000000000000000000000 DUP2 MSTORE PUSH1 0x4 ADD PUSH2 0x2463 SWAP1 PUSH2 0x56D2 JUMP JUMPDEST PUSH1 0x40 MLOAD DUP1 SWAP2 SUB SWAP1 REVERT JUMPDEST PUSH1 0x0 DUP1 PUSH2 0x2478 DUP5 PUSH2 0x2C3F JUMP JUMPDEST SWAP1 POP PUSH2 0x2486 DUP11 DUP11 DUP11 DUP5 PUSH2 0x2CB0 JUMP JUMPDEST DUP1 SWAP9 POP DUP2 SWAP4 POP POP POP PUSH2 0x24A0 DUP5 PUSH1 0x0 ADD MLOAD DUP6 PUSH1 0x20 ADD MLOAD PUSH2 0x2FD1 JUMP JUMPDEST PUSH2 0x24E1 JUMPI DUP10 PUSH1 0x40 MLOAD PUSH32 0x220266B600000000000000000000000000000000000000000000000000000000 DUP2 MSTORE PUSH1 0x4 ADD PUSH2 0x24D8 SWAP2 SWAP1 PUSH2 0x573E JUMP JUMPDEST PUSH1 0x40 MLOAD DUP1 SWAP2 SUB SWAP1 REVERT JUMPDEST PUSH1 0x60 PUSH1 0x0 PUSH20 0xFFFFFFFFFFFFFFFFFFFFFFFFFFFFFFFFFFFFFFFF AND DUP6 PUSH1 0xA0 ADD MLOAD PUSH20 0xFFFFFFFFFFFFFFFFFFFFFFFFFFFFFFFFFFFFFFFF AND EQ PUSH2 0x2531 JUMPI PUSH2 0x2528 DUP12 DUP12 DUP12 DUP6 DUP8 PUSH2 0x308F JUMP JUMPDEST DUP1 SWAP9 POP DUP2 SWAP3 POP POP POP JUMPDEST PUSH1 0x0 GAS DUP8 SUB SWAP1 POP DUP1 DUP12 PUSH1 0xA0 ADD CALLDATALOAD LT ISZERO PUSH2 0x2581 JUMPI DUP12 PUSH1 0x40 MLOAD PUSH32 0x220266B600000000000000000000000000000000000000000000000000000000 DUP2 MSTORE PUSH1 0x4 ADD PUSH2 0x2578 SWAP2 SWAP1 PUSH2 0x57B8 JUMP JUMPDEST PUSH1 0x40 MLOAD DUP1 SWAP2 SUB SWAP1 REVERT JUMPDEST DUP3 DUP11 PUSH1 0x40 ADD DUP2 DUP2 MSTORE POP POP PUSH2 0x2594 DUP3 PUSH2 0x334D JUMP JUMPDEST DUP11 PUSH1 0x60 ADD DUP2 DUP2 MSTORE POP POP DUP11 PUSH1 0xC0 ADD CALLDATALOAD GAS DUP9 SUB ADD DUP11 PUSH1 0x80 ADD DUP2 DUP2 MSTORE POP POP POP POP POP POP POP POP POP SWAP4 POP SWAP4 SWAP2 POP POP JUMP JUMPDEST PUSH1 0x0 DUP1 PUSH2 0x25CA DUP6 PUSH2 0x3357 JUMP JUMPDEST SWAP2 POP SWAP2 POP DUP2 PUSH20 0xFFFFFFFFFFFFFFFFFFFFFFFFFFFFFFFFFFFFFFFF AND DUP4 PUSH20 0xFFFFFFFFFFFFFFFFFFFFFFFFFFFFFFFFFFFFFFFF AND EQ PUSH2 0x263E JUMPI DUP6 PUSH1 0x40 MLOAD PUSH32 0x220266B600000000000000000000000000000000000000000000000000000000 DUP2 MSTORE PUSH1 0x4 ADD PUSH2 0x2635 SWAP2 SWAP1 PUSH2 0x5832 JUMP JUMPDEST PUSH1 0x40 MLOAD DUP1 SWAP2 SUB SWAP1 REVERT JUMPDEST DUP1 ISZERO PUSH2 0x2681 JUMPI DUP6 PUSH1 0x40 MLOAD PUSH32 0x220266B600000000000000000000000000000000000000000000000000000000 DUP2 MSTORE PUSH1 0x4 ADD PUSH2 0x2678 SWAP2 SWAP1 PUSH2 0x58AC JUMP JUMPDEST PUSH1 0x40 MLOAD DUP1 SWAP2 SUB SWAP1 REVERT JUMPDEST PUSH1 0x0 PUSH2 0x268C DUP6 PUSH2 0x3357 JUMP JUMPDEST DUP1 SWAP4 POP DUP2 SWAP3 POP POP POP PUSH1 0x0 PUSH20 0xFFFFFFFFFFFFFFFFFFFFFFFFFFFFFFFFFFFFFFFF AND DUP2 PUSH20 0xFFFFFFFFFFFFFFFFFFFFFFFFFFFFFFFFFFFFFFFF AND EQ PUSH2 0x2705 JUMPI DUP7 PUSH1 0x40 MLOAD PUSH32 0x220266B600000000000000000000000000000000000000000000000000000000 DUP2 MSTORE PUSH1 0x4 ADD PUSH2 0x26FC SWAP2 SWAP1 PUSH2 0x5926 JUMP JUMPDEST PUSH1 0x40 MLOAD DUP1 SWAP2 SUB SWAP1 REVERT JUMPDEST DUP2 ISZERO PUSH2 0x2748 JUMPI DUP7 PUSH1 0x40 MLOAD PUSH32 0x220266B600000000000000000000000000000000000000000000000000000000 DUP2 MSTORE PUSH1 0x4 ADD PUSH2 0x273F SWAP2 SWAP1 PUSH2 0x59C6 JUMP JUMPDEST PUSH1 0x40 MLOAD DUP1 SWAP2 SUB SWAP1 REVERT JUMPDEST POP POP POP POP POP POP POP JUMP JUMPDEST PUSH1 0x0 DUP1 GAS SWAP1 POP PUSH1 0x0 PUSH2 0x2766 DUP5 PUSH1 0x60 ADD MLOAD PUSH2 0x33B0 JUMP JUMPDEST SWAP1 POP ADDRESS PUSH20 0xFFFFFFFFFFFFFFFFFFFFFFFFFFFFFFFFFFFFFFFF AND PUSH4 0x1D732756 DUP7 DUP1 PUSH1 0x60 ADD SWAP1 PUSH2 0x2794 SWAP2 SWAP1 PUSH2 0x4C7C JUMP JUMPDEST DUP8 DUP6 PUSH1 0x40 MLOAD DUP6 PUSH4 0xFFFFFFFF AND PUSH1 0xE0 SHL DUP2 MSTORE PUSH1 0x4 ADD PUSH2 0x27B5 SWAP5 SWAP4 SWAP3 SWAP2 SWAP1 PUSH2 0x5B12 JUMP JUMPDEST PUSH1 0x20 PUSH1 0x40 MLOAD DUP1 DUP4 SUB DUP2 PUSH1 0x0 DUP8 GAS CALL SWAP3 POP POP POP DUP1 ISZERO PUSH2 0x27F1 JUMPI POP PUSH1 0x40 MLOAD RETURNDATASIZE PUSH1 0x1F NOT PUSH1 0x1F DUP3 ADD AND DUP3 ADD DUP1 PUSH1 0x40 MSTORE POP DUP2 ADD SWAP1 PUSH2 0x27EE SWAP2 SWAP1 PUSH2 0x5B70 JUMP JUMPDEST PUSH1 0x1 JUMPDEST PUSH2 0x2916 JUMPI PUSH1 0x0 RETURNDATASIZE DUP1 PUSH1 0x20 SUB PUSH2 0x280C JUMPI PUSH1 0x20 PUSH1 0x0 DUP1 RETURNDATACOPY PUSH1 0x0 MLOAD SWAP2 POP JUMPDEST POP PUSH32 0xDEADDEAD00000000000000000000000000000000000000000000000000000000 DUP2 SUB PUSH2 0x2871 JUMPI DUP7 PUSH1 0x40 MLOAD PUSH32 0x220266B600000000000000000000000000000000000000000000000000000000 DUP2 MSTORE PUSH1 0x4 ADD PUSH2 0x2868 SWAP2 SWAP1 PUSH2 0x5BE9 JUMP JUMPDEST PUSH1 0x40 MLOAD DUP1 SWAP2 SUB SWAP1 REVERT JUMPDEST DUP5 PUSH1 0x0 ADD MLOAD PUSH1 0x0 ADD MLOAD PUSH20 0xFFFFFFFFFFFFFFFFFFFFFFFFFFFFFFFFFFFFFFFF AND DUP6 PUSH1 0x20 ADD MLOAD PUSH32 0xF62676F440FF169A3A9AFDBF812E89E7F95975EE8E5C31214FFDEF631C5F4792 DUP8 PUSH1 0x0 ADD MLOAD PUSH1 0x20 ADD MLOAD PUSH2 0x28CA PUSH2 0x800 PUSH2 0x20BA JUMP JUMPDEST PUSH1 0x40 MLOAD PUSH2 0x28D8 SWAP3 SWAP2 SWAP1 PUSH2 0x48B3 JUMP JUMPDEST PUSH1 0x40 MLOAD DUP1 SWAP2 SUB SWAP1 LOG3 PUSH1 0x0 DUP6 PUSH1 0x80 ADD MLOAD GAS DUP6 PUSH2 0x28F3 SWAP2 SWAP1 PUSH2 0x49B6 JUMP JUMPDEST PUSH2 0x28FD SWAP2 SWAP1 PUSH2 0x461A JUMP JUMPDEST SWAP1 POP PUSH2 0x290D DUP9 PUSH1 0x2 DUP9 DUP7 DUP6 PUSH2 0x20EA JUMP JUMPDEST SWAP5 POP POP POP PUSH2 0x291B JUMP JUMPDEST DUP1 SWAP4 POP POP JUMPDEST POP POP SWAP4 SWAP3 POP POP POP JUMP JUMPDEST PUSH1 0x0 PUSH20 0xFFFFFFFFFFFFFFFFFFFFFFFFFFFFFFFFFFFFFFFF AND DUP3 PUSH20 0xFFFFFFFFFFFFFFFFFFFFFFFFFFFFFFFFFFFFFFFF AND SUB PUSH2 0x2993 JUMPI PUSH1 0x40 MLOAD PUSH32 0x8C379A000000000000000000000000000000000000000000000000000000000 DUP2 MSTORE PUSH1 0x4 ADD PUSH2 0x298A SWAP1 PUSH2 0x5C63 JUMP JUMPDEST PUSH1 0x40 MLOAD DUP1 SWAP2 SUB SWAP1 REVERT JUMPDEST PUSH1 0x0 DUP3 PUSH20 0xFFFFFFFFFFFFFFFFFFFFFFFFFFFFFFFFFFFFFFFF AND DUP3 PUSH1 0x40 MLOAD PUSH2 0x29B9 SWAP1 PUSH2 0x4A99 JUMP JUMPDEST PUSH1 0x0 PUSH1 0x40 MLOAD DUP1 DUP4 SUB DUP2 DUP6 DUP8 GAS CALL SWAP3 POP POP POP RETURNDATASIZE DUP1 PUSH1 0x0 DUP2 EQ PUSH2 0x29F6 JUMPI PUSH1 0x40 MLOAD SWAP2 POP PUSH1 0x1F NOT PUSH1 0x3F RETURNDATASIZE ADD AND DUP3 ADD PUSH1 0x40 MSTORE RETURNDATASIZE DUP3 MSTORE RETURNDATASIZE PUSH1 0x0 PUSH1 0x20 DUP5 ADD RETURNDATACOPY PUSH2 0x29FB JUMP JUMPDEST PUSH1 0x60 SWAP2 POP JUMPDEST POP POP SWAP1 POP DUP1 PUSH2 0x2A3F JUMPI PUSH1 0x40 MLOAD PUSH32 0x8C379A000000000000000000000000000000000000000000000000000000000 DUP2 MSTORE PUSH1 0x4 ADD PUSH2 0x2A36 SWAP1 PUSH2 0x5CCF JUMP JUMPDEST PUSH1 0x40 MLOAD DUP1 SWAP2 SUB SWAP1 REVERT JUMPDEST POP POP POP JUMP JUMPDEST PUSH1 0x0 PUSH2 0x2A4F DUP3 PUSH2 0x33BA JUMP JUMPDEST DUP1 MLOAD SWAP1 PUSH1 0x20 ADD KECCAK256 SWAP1 POP SWAP2 SWAP1 POP JUMP JUMPDEST PUSH1 0x0 DUP1 DUP3 PUSH1 0xC0 ADD MLOAD SWAP1 POP PUSH1 0x0 DUP4 PUSH1 0xE0 ADD MLOAD SWAP1 POP DUP1 DUP3 SUB PUSH2 0x2A81 JUMPI DUP2 SWAP3 POP POP POP PUSH2 0x2A92 JUMP JUMPDEST PUSH2 0x2A8D DUP3 BASEFEE DUP4 ADD PUSH2 0x3498 JUMP JUMPDEST SWAP3 POP POP POP JUMPDEST SWAP2 SWAP1 POP JUMP JUMPDEST DUP2 PUSH1 0x0 ADD PUSH1 0x20 DUP2 ADD SWAP1 PUSH2 0x2AAA SWAP2 SWAP1 PUSH2 0x4202 JUMP JUMPDEST DUP2 PUSH1 0x0 ADD SWAP1 PUSH20 0xFFFFFFFFFFFFFFFFFFFFFFFFFFFFFFFFFFFFFFFF AND SWAP1 DUP2 PUSH20 0xFFFFFFFFFFFFFFFFFFFFFFFFFFFFFFFFFFFFFFFF AND DUP2 MSTORE POP POP DUP2 PUSH1 0x20 ADD CALLDATALOAD DUP2 PUSH1 0x20 ADD DUP2 DUP2 MSTORE POP POP DUP2 PUSH1 0x80 ADD CALLDATALOAD DUP2 PUSH1 0x40 ADD DUP2 DUP2 MSTORE POP POP DUP2 PUSH1 0xA0 ADD CALLDATALOAD DUP2 PUSH1 0x60 ADD DUP2 DUP2 MSTORE POP POP DUP2 PUSH1 0xC0 ADD CALLDATALOAD DUP2 PUSH1 0x80 ADD DUP2 DUP2 MSTORE POP POP DUP2 PUSH1 0xE0 ADD CALLDATALOAD DUP2 PUSH1 0xC0 ADD DUP2 DUP2 MSTORE POP POP DUP2 PUSH2 0x100 ADD CALLDATALOAD DUP2 PUSH1 0xE0 ADD DUP2 DUP2 MSTORE POP POP CALLDATASIZE PUSH1 0x0 DUP4 DUP1 PUSH2 0x120 ADD SWAP1 PUSH2 0x2B4A SWAP2 SWAP1 PUSH2 0x4C7C JUMP JUMPDEST SWAP2 POP SWAP2 POP PUSH1 0x0 DUP3 DUP3 SWAP1 POP GT ISZERO PUSH2 0x2BFF JUMPI PUSH1 0x14 DUP3 DUP3 SWAP1 POP LT ISZERO PUSH2 0x2BA1 JUMPI PUSH1 0x40 MLOAD PUSH32 0x8C379A000000000000000000000000000000000000000000000000000000000 DUP2 MSTORE PUSH1 0x4 ADD PUSH2 0x2B98 SWAP1 PUSH2 0x5D3B JUMP JUMPDEST PUSH1 0x40 MLOAD DUP1 SWAP2 SUB SWAP1 REVERT JUMPDEST DUP2 DUP2 PUSH1 0x0 SWAP1 PUSH1 0x14 SWAP3 PUSH2 0x2BB5 SWAP4 SWAP3 SWAP2 SWAP1 PUSH2 0x5D65 JUMP JUMPDEST SWAP1 PUSH2 0x2BC0 SWAP2 SWAP1 PUSH2 0x5DE4 JUMP JUMPDEST PUSH1 0x60 SHR DUP4 PUSH1 0xA0 ADD SWAP1 PUSH20 0xFFFFFFFFFFFFFFFFFFFFFFFFFFFFFFFFFFFFFFFF AND SWAP1 DUP2 PUSH20 0xFFFFFFFFFFFFFFFFFFFFFFFFFFFFFFFFFFFFFFFF AND DUP2 MSTORE POP POP PUSH2 0x2C39 JUMP JUMPDEST PUSH1 0x0 DUP4 PUSH1 0xA0 ADD SWAP1 PUSH20 0xFFFFFFFFFFFFFFFFFFFFFFFFFFFFFFFFFFFFFFFF AND SWAP1 DUP2 PUSH20 0xFFFFFFFFFFFFFFFFFFFFFFFFFFFFFFFFFFFFFFFF AND DUP2 MSTORE POP POP JUMPDEST POP POP POP POP JUMP JUMPDEST PUSH1 0x0 DUP1 PUSH1 0x0 PUSH20 0xFFFFFFFFFFFFFFFFFFFFFFFFFFFFFFFFFFFFFFFF AND DUP4 PUSH1 0xA0 ADD MLOAD PUSH20 0xFFFFFFFFFFFFFFFFFFFFFFFFFFFFFFFFFFFFFFFF AND SUB PUSH2 0x2C81 JUMPI PUSH1 0x1 PUSH2 0x2C84 JUMP JUMPDEST PUSH1 0x2 JUMPDEST PUSH1 0xFF AND SWAP1 POP PUSH1 0x0 DUP4 PUSH1 0x80 ADD MLOAD DUP3 DUP6 PUSH1 0x60 ADD MLOAD MUL DUP6 PUSH1 0x40 ADD MLOAD ADD ADD SWAP1 POP DUP4 PUSH1 0xC0 ADD MLOAD DUP2 MUL SWAP3 POP POP POP SWAP2 SWAP1 POP JUMP JUMPDEST PUSH1 0x0 DUP1 PUSH1 0x0 GAS SWAP1 POP PUSH1 0x0 DUP6 PUSH1 0x0 ADD MLOAD SWAP1 POP PUSH1 0x0 DUP2 PUSH1 0x0 ADD MLOAD SWAP1 POP PUSH2 0x2CE4 DUP10 DUP9 DUP11 DUP1 PUSH1 0x40 ADD SWAP1 PUSH2 0x2CDF SWAP2 SWAP1 PUSH2 0x4C7C JUMP JUMPDEST PUSH2 0x34B1 JUMP JUMPDEST PUSH1 0x0 DUP3 PUSH1 0xA0 ADD MLOAD SWAP1 POP PUSH1 0x0 DUP1 PUSH20 0xFFFFFFFFFFFFFFFFFFFFFFFFFFFFFFFFFFFFFFFF AND DUP3 PUSH20 0xFFFFFFFFFFFFFFFFFFFFFFFFFFFFFFFFFFFFFFFF AND SUB PUSH2 0x2D45 JUMPI PUSH1 0x0 PUSH2 0x2D2D DUP5 PUSH2 0x1847 JUMP JUMPDEST SWAP1 POP DUP9 DUP2 GT PUSH2 0x2D3E JUMPI DUP1 DUP10 SUB PUSH2 0x2D41 JUMP JUMPDEST PUSH1 0x0 JUMPDEST SWAP2 POP POP JUMPDEST DUP3 PUSH20 0xFFFFFFFFFFFFFFFFFFFFFFFFFFFFFFFFFFFFFFFF AND PUSH4 0x3A871CDD DUP6 PUSH1 0x60 ADD MLOAD DUP13 DUP13 PUSH1 0x20 ADD MLOAD DUP6 PUSH1 0x40 MLOAD DUP6 PUSH4 0xFFFFFFFF AND PUSH1 0xE0 SHL DUP2 MSTORE PUSH1 0x4 ADD PUSH2 0x2D8B SWAP4 SWAP3 SWAP2 SWAP1 PUSH2 0x5FA7 JUMP JUMPDEST PUSH1 0x20 PUSH1 0x40 MLOAD DUP1 DUP4 SUB DUP2 PUSH1 0x0 DUP9 DUP8 CALL SWAP4 POP POP POP POP DUP1 ISZERO PUSH2 0x2DC8 JUMPI POP PUSH1 0x40 MLOAD RETURNDATASIZE PUSH1 0x1F NOT PUSH1 0x1F DUP3 ADD AND DUP3 ADD DUP1 PUSH1 0x40 MSTORE POP DUP2 ADD SWAP1 PUSH2 0x2DC5 SWAP2 SWAP1 PUSH2 0x5B70 JUMP JUMPDEST PUSH1 0x1 JUMPDEST PUSH2 0x2E90 JUMPI PUSH2 0x2DD4 PUSH2 0x5FF2 JUMP JUMPDEST DUP1 PUSH4 0x8C379A0 SUB PUSH2 0x2E51 JUMPI POP PUSH2 0x2DE8 PUSH2 0x6014 JUMP JUMPDEST DUP1 PUSH2 0x2DF3 JUMPI POP PUSH2 0x2E53 JUMP JUMPDEST DUP12 DUP2 PUSH1 0x40 MLOAD PUSH1 0x20 ADD PUSH2 0x2E05 SWAP2 SWAP1 PUSH2 0x6111 JUMP JUMPDEST PUSH1 0x40 MLOAD PUSH1 0x20 DUP2 DUP4 SUB SUB DUP2 MSTORE SWAP1 PUSH1 0x40 MSTORE PUSH1 0x40 MLOAD PUSH32 0x220266B600000000000000000000000000000000000000000000000000000000 DUP2 MSTORE PUSH1 0x4 ADD PUSH2 0x2E48 SWAP3 SWAP2 SWAP1 PUSH2 0x6170 JUMP JUMPDEST PUSH1 0x40 MLOAD DUP1 SWAP2 SUB SWAP1 REVERT JUMPDEST POP JUMPDEST DUP11 PUSH1 0x40 MLOAD PUSH32 0x220266B600000000000000000000000000000000000000000000000000000000 DUP2 MSTORE PUSH1 0x4 ADD PUSH2 0x2E87 SWAP2 SWAP1 PUSH2 0x61EC JUMP JUMPDEST PUSH1 0x40 MLOAD DUP1 SWAP2 SUB SWAP1 REVERT JUMPDEST DUP1 SWAP7 POP POP PUSH1 0x0 PUSH20 0xFFFFFFFFFFFFFFFFFFFFFFFFFFFFFFFFFFFFFFFF AND DUP3 PUSH20 0xFFFFFFFFFFFFFFFFFFFFFFFFFFFFFFFFFFFFFFFF AND SUB PUSH2 0x2FBE JUMPI PUSH1 0x0 DUP1 PUSH1 0x0 DUP6 PUSH20 0xFFFFFFFFFFFFFFFFFFFFFFFFFFFFFFFFFFFFFFFF AND PUSH20 0xFFFFFFFFFFFFFFFFFFFFFFFFFFFFFFFFFFFFFFFF AND DUP2 MSTORE PUSH1 0x20 ADD SWAP1 DUP2 MSTORE PUSH1 0x20 ADD PUSH1 0x0 KECCAK256 SWAP1 POP PUSH1 0x0 DUP2 PUSH1 0x0 ADD PUSH1 0x0 SWAP1 SLOAD SWAP1 PUSH2 0x100 EXP SWAP1 DIV PUSH14 0xFFFFFFFFFFFFFFFFFFFFFFFFFFFF AND PUSH14 0xFFFFFFFFFFFFFFFFFFFFFFFFFFFF AND SWAP1 POP DUP1 DUP11 GT ISZERO PUSH2 0x2F82 JUMPI DUP13 PUSH1 0x40 MLOAD PUSH32 0x220266B600000000000000000000000000000000000000000000000000000000 DUP2 MSTORE PUSH1 0x4 ADD PUSH2 0x2F79 SWAP2 SWAP1 PUSH2 0x6266 JUMP JUMPDEST PUSH1 0x40 MLOAD DUP1 SWAP2 SUB SWAP1 REVERT JUMPDEST DUP10 DUP2 SUB DUP3 PUSH1 0x0 ADD PUSH1 0x0 PUSH2 0x100 EXP DUP2 SLOAD DUP2 PUSH14 0xFFFFFFFFFFFFFFFFFFFFFFFFFFFF MUL NOT AND SWAP1 DUP4 PUSH14 0xFFFFFFFFFFFFFFFFFFFFFFFFFFFF AND MUL OR SWAP1 SSTORE POP POP POP JUMPDEST GAS DUP6 SUB SWAP7 POP POP POP POP POP POP SWAP5 POP SWAP5 SWAP3 POP POP POP JUMP JUMPDEST PUSH1 0x0 DUP1 PUSH1 0x40 DUP4 SWAP1 SHR SWAP1 POP PUSH1 0x0 DUP4 SWAP1 POP DUP1 PUSH8 0xFFFFFFFFFFFFFFFF AND PUSH1 0x1 PUSH1 0x0 DUP8 PUSH20 0xFFFFFFFFFFFFFFFFFFFFFFFFFFFFFFFFFFFFFFFF AND PUSH20 0xFFFFFFFFFFFFFFFFFFFFFFFFFFFFFFFFFFFFFFFF AND DUP2 MSTORE PUSH1 0x20 ADD SWAP1 DUP2 MSTORE PUSH1 0x20 ADD PUSH1 0x0 KECCAK256 PUSH1 0x0 DUP5 PUSH24 0xFFFFFFFFFFFFFFFFFFFFFFFFFFFFFFFFFFFFFFFFFFFFFFFF AND PUSH24 0xFFFFFFFFFFFFFFFFFFFFFFFFFFFFFFFFFFFFFFFFFFFFFFFF AND DUP2 MSTORE PUSH1 0x20 ADD SWAP1 DUP2 MSTORE PUSH1 0x20 ADD PUSH1 0x0 KECCAK256 PUSH1 0x0 DUP2 SLOAD DUP1 SWAP3 SWAP2 SWAP1 PUSH2 0x3080 SWAP1 PUSH2 0x4780 JUMP JUMPDEST SWAP2 SWAP1 POP SSTORE EQ SWAP3 POP POP POP SWAP3 SWAP2 POP POP JUMP JUMPDEST PUSH1 0x60 PUSH1 0x0 DUP1 DUP6 PUSH1 0x0 ADD MLOAD SWAP1 POP PUSH1 0x0 DUP2 PUSH1 0x60 ADD MLOAD SWAP1 POP DUP5 DUP2 GT PUSH2 0x30E6 JUMPI PUSH1 0x40 MLOAD PUSH32 0x8C379A000000000000000000000000000000000000000000000000000000000 DUP2 MSTORE PUSH1 0x4 ADD PUSH2 0x30DD SWAP1 PUSH2 0x62E0 JUMP JUMPDEST PUSH1 0x40 MLOAD DUP1 SWAP2 SUB SWAP1 REVERT JUMPDEST PUSH1 0x0 DUP6 DUP3 SUB SWAP1 POP PUSH1 0x0 DUP4 PUSH1 0xA0 ADD MLOAD SWAP1 POP PUSH1 0x0 DUP1 PUSH1 0x0 DUP4 PUSH20 0xFFFFFFFFFFFFFFFFFFFFFFFFFFFFFFFFFFFFFFFF AND PUSH20 0xFFFFFFFFFFFFFFFFFFFFFFFFFFFFFFFFFFFFFFFF AND DUP2 MSTORE PUSH1 0x20 ADD SWAP1 DUP2 MSTORE PUSH1 0x20 ADD PUSH1 0x0 KECCAK256 SWAP1 POP PUSH1 0x0 DUP2 PUSH1 0x0 ADD PUSH1 0x0 SWAP1 SLOAD SWAP1 PUSH2 0x100 EXP SWAP1 DIV PUSH14 0xFFFFFFFFFFFFFFFFFFFFFFFFFFFF AND PUSH14 0xFFFFFFFFFFFFFFFFFFFFFFFFFFFF AND SWAP1 POP DUP10 DUP2 LT ISZERO PUSH2 0x31B0 JUMPI DUP13 PUSH1 0x40 MLOAD PUSH32 0x220266B600000000000000000000000000000000000000000000000000000000 DUP2 MSTORE PUSH1 0x4 ADD PUSH2 0x31A7 SWAP2 SWAP1 PUSH2 0x634C JUMP JUMPDEST PUSH1 0x40 MLOAD DUP1 SWAP2 SUB SWAP1 REVERT JUMPDEST DUP10 DUP2 SUB DUP3 PUSH1 0x0 ADD PUSH1 0x0 PUSH2 0x100 EXP DUP2 SLOAD DUP2 PUSH14 0xFFFFFFFFFFFFFFFFFFFFFFFFFFFF MUL NOT AND SWAP1 DUP4 PUSH14 0xFFFFFFFFFFFFFFFFFFFFFFFFFFFF AND MUL OR SWAP1 SSTORE POP DUP3 PUSH20 0xFFFFFFFFFFFFFFFFFFFFFFFFFFFFFFFFFFFFFFFF AND PUSH4 0xF465C77E DUP6 DUP15 DUP15 PUSH1 0x20 ADD MLOAD DUP15 PUSH1 0x40 MLOAD DUP6 PUSH4 0xFFFFFFFF AND PUSH1 0xE0 SHL DUP2 MSTORE PUSH1 0x4 ADD PUSH2 0x322B SWAP4 SWAP3 SWAP2 SWAP1 PUSH2 0x5FA7 JUMP JUMPDEST PUSH1 0x0 PUSH1 0x40 MLOAD DUP1 DUP4 SUB DUP2 PUSH1 0x0 DUP9 DUP8 CALL SWAP4 POP POP POP POP DUP1 ISZERO PUSH2 0x326D JUMPI POP PUSH1 0x40 MLOAD RETURNDATASIZE PUSH1 0x0 DUP3 RETURNDATACOPY RETURNDATASIZE PUSH1 0x1F NOT PUSH1 0x1F DUP3 ADD AND DUP3 ADD DUP1 PUSH1 0x40 MSTORE POP DUP2 ADD SWAP1 PUSH2 0x326A SWAP2 SWAP1 PUSH2 0x63EA JUMP JUMPDEST PUSH1 0x1 JUMPDEST PUSH2 0x3335 JUMPI PUSH2 0x3279 PUSH2 0x5FF2 JUMP JUMPDEST DUP1 PUSH4 0x8C379A0 SUB PUSH2 0x32F6 JUMPI POP PUSH2 0x328D PUSH2 0x6014 JUMP JUMPDEST DUP1 PUSH2 0x3298 JUMPI POP PUSH2 0x32F8 JUMP JUMPDEST DUP14 DUP2 PUSH1 0x40 MLOAD PUSH1 0x20 ADD PUSH2 0x32AA SWAP2 SWAP1 PUSH2 0x646C JUMP JUMPDEST PUSH1 0x40 MLOAD PUSH1 0x20 DUP2 DUP4 SUB SUB DUP2 MSTORE SWAP1 PUSH1 0x40 MSTORE PUSH1 0x40 MLOAD PUSH32 0x220266B600000000000000000000000000000000000000000000000000000000 DUP2 MSTORE PUSH1 0x4 ADD PUSH2 0x32ED SWAP3 SWAP2 SWAP1 PUSH2 0x6170 JUMP JUMPDEST PUSH1 0x40 MLOAD DUP1 SWAP2 SUB SWAP1 REVERT JUMPDEST POP JUMPDEST DUP13 PUSH1 0x40 MLOAD PUSH32 0x220266B600000000000000000000000000000000000000000000000000000000 DUP2 MSTORE PUSH1 0x4 ADD PUSH2 0x332C SWAP2 SWAP1 PUSH2 0x64DE JUMP JUMPDEST PUSH1 0x40 MLOAD DUP1 SWAP2 SUB SWAP1 REVERT JUMPDEST DUP2 SWAP10 POP DUP1 SWAP9 POP POP POP POP POP POP POP POP POP SWAP6 POP SWAP6 SWAP4 POP POP POP POP JUMP JUMPDEST PUSH1 0x0 DUP2 SWAP1 POP SWAP2 SWAP1 POP JUMP JUMPDEST PUSH1 0x0 DUP1 PUSH1 0x0 DUP4 SUB PUSH2 0x336E JUMPI PUSH1 0x0 DUP1 SWAP2 POP SWAP2 POP PUSH2 0x33AB JUMP JUMPDEST PUSH1 0x0 PUSH2 0x3379 DUP5 PUSH2 0x379D JUMP JUMPDEST SWAP1 POP DUP1 PUSH1 0x40 ADD MLOAD PUSH6 0xFFFFFFFFFFFF AND TIMESTAMP GT DUP1 PUSH2 0x33A0 JUMPI POP DUP1 PUSH1 0x20 ADD MLOAD PUSH6 0xFFFFFFFFFFFF AND TIMESTAMP LT JUMPDEST SWAP2 POP DUP1 PUSH1 0x0 ADD MLOAD SWAP3 POP POP JUMPDEST SWAP2 POP SWAP2 JUMP JUMPDEST PUSH1 0x60 DUP2 SWAP1 POP SWAP2 SWAP1 POP JUMP JUMPDEST PUSH1 0x60 PUSH1 0x0 PUSH2 0x33C7 DUP4 PUSH2 0x3821 JUMP JUMPDEST SWAP1 POP PUSH1 0x0 DUP4 PUSH1 0x20 ADD CALLDATALOAD SWAP1 POP PUSH1 0x0 PUSH2 0x33EC DUP6 DUP1 PUSH1 0x40 ADD SWAP1 PUSH2 0x33E7 SWAP2 SWAP1 PUSH2 0x4C7C JUMP JUMPDEST PUSH2 0x3831 JUMP JUMPDEST SWAP1 POP PUSH1 0x0 PUSH2 0x3408 DUP7 DUP1 PUSH1 0x60 ADD SWAP1 PUSH2 0x3403 SWAP2 SWAP1 PUSH2 0x4C7C JUMP JUMPDEST PUSH2 0x3831 JUMP JUMPDEST SWAP1 POP PUSH1 0x0 DUP7 PUSH1 0x80 ADD CALLDATALOAD SWAP1 POP PUSH1 0x0 DUP8 PUSH1 0xA0 ADD CALLDATALOAD SWAP1 POP PUSH1 0x0 DUP9 PUSH1 0xC0 ADD CALLDATALOAD SWAP1 POP PUSH1 0x0 DUP10 PUSH1 0xE0 ADD CALLDATALOAD SWAP1 POP PUSH1 0x0 DUP11 PUSH2 0x100 ADD CALLDATALOAD SWAP1 POP PUSH1 0x0 PUSH2 0x3453 DUP13 DUP1 PUSH2 0x120 ADD SWAP1 PUSH2 0x344E SWAP2 SWAP1 PUSH2 0x4C7C JUMP JUMPDEST PUSH2 0x3831 JUMP JUMPDEST SWAP1 POP DUP10 DUP10 DUP10 DUP10 DUP10 DUP10 DUP10 DUP10 DUP10 DUP10 PUSH1 0x40 MLOAD PUSH1 0x20 ADD PUSH2 0x3478 SWAP11 SWAP10 SWAP9 SWAP8 SWAP7 SWAP6 SWAP5 SWAP4 SWAP3 SWAP2 SWAP1 PUSH2 0x650C JUMP JUMPDEST PUSH1 0x40 MLOAD PUSH1 0x20 DUP2 DUP4 SUB SUB DUP2 MSTORE SWAP1 PUSH1 0x40 MSTORE SWAP11 POP POP POP POP POP POP POP POP POP POP POP SWAP2 SWAP1 POP JUMP JUMPDEST PUSH1 0x0 DUP2 DUP4 LT PUSH2 0x34A7 JUMPI DUP2 PUSH2 0x34A9 JUMP JUMPDEST DUP3 JUMPDEST SWAP1 POP SWAP3 SWAP2 POP POP JUMP JUMPDEST PUSH1 0x0 DUP3 DUP3 SWAP1 POP EQ PUSH2 0x3797 JUMPI PUSH1 0x0 DUP4 PUSH1 0x0 ADD MLOAD PUSH1 0x0 ADD MLOAD SWAP1 POP PUSH1 0x0 DUP2 PUSH20 0xFFFFFFFFFFFFFFFFFFFFFFFFFFFFFFFFFFFFFFFF AND EXTCODESIZE EQ PUSH2 0x3525 JUMPI DUP5 PUSH1 0x40 MLOAD PUSH32 0x220266B600000000000000000000000000000000000000000000000000000000 DUP2 MSTORE PUSH1 0x4 ADD PUSH2 0x351C SWAP2 SWAP1 PUSH2 0x65F4 JUMP JUMPDEST PUSH1 0x40 MLOAD DUP1 SWAP2 SUB SWAP1 REVERT JUMPDEST PUSH1 0x0 PUSH1 0x2 PUSH1 0x0 SWAP1 SLOAD SWAP1 PUSH2 0x100 EXP SWAP1 DIV PUSH20 0xFFFFFFFFFFFFFFFFFFFFFFFFFFFFFFFFFFFFFFFF AND PUSH20 0xFFFFFFFFFFFFFFFFFFFFFFFFFFFFFFFFFFFFFFFF AND PUSH4 0x570E1A36 DUP7 PUSH1 0x0 ADD MLOAD PUSH1 0x60 ADD MLOAD DUP7 DUP7 PUSH1 0x40 MLOAD DUP5 PUSH4 0xFFFFFFFF AND PUSH1 0xE0 SHL DUP2 MSTORE PUSH1 0x4 ADD PUSH2 0x358D SWAP3 SWAP2 SWAP1 PUSH2 0x50AA JUMP JUMPDEST PUSH1 0x20 PUSH1 0x40 MLOAD DUP1 DUP4 SUB DUP2 PUSH1 0x0 DUP9 DUP8 CALL ISZERO DUP1 ISZERO PUSH2 0x35AC JUMPI RETURNDATASIZE PUSH1 0x0 DUP1 RETURNDATACOPY RETURNDATASIZE PUSH1 0x0 REVERT JUMPDEST POP POP POP POP POP PUSH1 0x40 MLOAD RETURNDATASIZE PUSH1 0x1F NOT PUSH1 0x1F DUP3 ADD AND DUP3 ADD DUP1 PUSH1 0x40 MSTORE POP DUP2 ADD SWAP1 PUSH2 0x35D1 SWAP2 SWAP1 PUSH2 0x50E3 JUMP JUMPDEST SWAP1 POP PUSH1 0x0 PUSH20 0xFFFFFFFFFFFFFFFFFFFFFFFFFFFFFFFFFFFFFFFF AND DUP2 PUSH20 0xFFFFFFFFFFFFFFFFFFFFFFFFFFFFFFFFFFFFFFFF AND SUB PUSH2 0x3644 JUMPI DUP6 PUSH1 0x40 MLOAD PUSH32 0x220266B600000000000000000000000000000000000000000000000000000000 DUP2 MSTORE PUSH1 0x4 ADD PUSH2 0x363B SWAP2 SWAP1 PUSH2 0x666E JUMP JUMPDEST PUSH1 0x40 MLOAD DUP1 SWAP2 SUB SWAP1 REVERT JUMPDEST DUP2 PUSH20 0xFFFFFFFFFFFFFFFFFFFFFFFFFFFFFFFFFFFFFFFF AND DUP2 PUSH20 0xFFFFFFFFFFFFFFFFFFFFFFFFFFFFFFFFFFFFFFFF AND EQ PUSH2 0x36B4 JUMPI DUP6 PUSH1 0x40 MLOAD PUSH32 0x220266B600000000000000000000000000000000000000000000000000000000 DUP2 MSTORE PUSH1 0x4 ADD PUSH2 0x36AB SWAP2 SWAP1 PUSH2 0x66E8 JUMP JUMPDEST PUSH1 0x40 MLOAD DUP1 SWAP2 SUB SWAP1 REVERT JUMPDEST PUSH1 0x0 DUP2 PUSH20 0xFFFFFFFFFFFFFFFFFFFFFFFFFFFFFFFFFFFFFFFF AND EXTCODESIZE SUB PUSH2 0x3710 JUMPI DUP6 PUSH1 0x40 MLOAD PUSH32 0x220266B600000000000000000000000000000000000000000000000000000000 DUP2 MSTORE PUSH1 0x4 ADD PUSH2 0x3707 SWAP2 SWAP1 PUSH2 0x6762 JUMP JUMPDEST PUSH1 0x40 MLOAD DUP1 SWAP2 SUB SWAP1 REVERT JUMPDEST PUSH1 0x0 DUP5 DUP5 PUSH1 0x0 SWAP1 PUSH1 0x14 SWAP3 PUSH2 0x3726 SWAP4 SWAP3 SWAP2 SWAP1 PUSH2 0x5D65 JUMP JUMPDEST SWAP1 PUSH2 0x3731 SWAP2 SWAP1 PUSH2 0x5DE4 JUMP JUMPDEST PUSH1 0x60 SHR SWAP1 POP DUP3 PUSH20 0xFFFFFFFFFFFFFFFFFFFFFFFFFFFFFFFFFFFFFFFF AND DUP7 PUSH1 0x20 ADD MLOAD PUSH32 0xD51A9C61267AA6196961883ECF5FF2DA6619C37DAC0FA92122513FB32C032D2D DUP4 DUP10 PUSH1 0x0 ADD MLOAD PUSH1 0xA0 ADD MLOAD PUSH1 0x40 MLOAD PUSH2 0x378B SWAP3 SWAP2 SWAP1 PUSH2 0x6790 JUMP JUMPDEST PUSH1 0x40 MLOAD DUP1 SWAP2 SUB SWAP1 LOG3 POP POP POP JUMPDEST POP POP POP POP JUMP JUMPDEST PUSH2 0x37A5 PUSH2 0x38DF JUMP JUMPDEST PUSH1 0x0 DUP3 SWAP1 POP PUSH1 0x0 PUSH1 0xA0 DUP5 SWAP1 SHR SWAP1 POP PUSH1 0x0 DUP2 PUSH6 0xFFFFFFFFFFFF AND SUB PUSH2 0x37CD JUMPI PUSH6 0xFFFFFFFFFFFF SWAP1 POP JUMPDEST PUSH1 0x0 PUSH1 0xD0 DUP6 SWAP1 SHR SWAP1 POP PUSH1 0x40 MLOAD DUP1 PUSH1 0x60 ADD PUSH1 0x40 MSTORE DUP1 DUP5 PUSH20 0xFFFFFFFFFFFFFFFFFFFFFFFFFFFFFFFFFFFFFFFF AND DUP2 MSTORE PUSH1 0x20 ADD DUP3 PUSH6 0xFFFFFFFFFFFF AND DUP2 MSTORE PUSH1 0x20 ADD DUP4 PUSH6 0xFFFFFFFFFFFF AND DUP2 MSTORE POP SWAP4 POP POP POP POP SWAP2 SWAP1 POP JUMP JUMPDEST PUSH1 0x0 DUP1 DUP3 CALLDATALOAD SWAP1 POP DUP1 SWAP2 POP POP SWAP2 SWAP1 POP JUMP JUMPDEST PUSH1 0x0 PUSH1 0x40 MLOAD DUP3 DUP1 DUP6 DUP4 CALLDATACOPY DUP1 DUP3 KECCAK256 SWAP3 POP POP POP SWAP3 SWAP2 POP POP JUMP JUMPDEST PUSH1 0x40 MLOAD DUP1 PUSH1 0xA0 ADD PUSH1 0x40 MSTORE DUP1 PUSH2 0x385B PUSH2 0x3926 JUMP JUMPDEST DUP2 MSTORE PUSH1 0x20 ADD PUSH1 0x0 DUP1 NOT AND DUP2 MSTORE PUSH1 0x20 ADD PUSH1 0x0 DUP2 MSTORE PUSH1 0x20 ADD PUSH1 0x0 DUP2 MSTORE PUSH1 0x20 ADD PUSH1 0x0 DUP2 MSTORE POP SWAP1 JUMP JUMPDEST PUSH1 0x40 MLOAD DUP1 PUSH1 0xA0 ADD PUSH1 0x40 MSTORE DUP1 PUSH1 0x0 PUSH14 0xFFFFFFFFFFFFFFFFFFFFFFFFFFFF AND DUP2 MSTORE PUSH1 0x20 ADD PUSH1 0x0 ISZERO ISZERO DUP2 MSTORE PUSH1 0x20 ADD PUSH1 0x0 PUSH14 0xFFFFFFFFFFFFFFFFFFFFFFFFFFFF AND DUP2 MSTORE PUSH1 0x20 ADD PUSH1 0x0 PUSH4 0xFFFFFFFF AND DUP2 MSTORE PUSH1 0x20 ADD PUSH1 0x0 PUSH6 0xFFFFFFFFFFFF AND DUP2 MSTORE POP SWAP1 JUMP JUMPDEST PUSH1 0x40 MLOAD DUP1 PUSH1 0x60 ADD PUSH1 0x40 MSTORE DUP1 PUSH1 0x0 PUSH20 0xFFFFFFFFFFFFFFFFFFFFFFFFFFFFFFFFFFFFFFFF AND DUP2 MSTORE PUSH1 0x20 ADD PUSH1 0x0 PUSH6 0xFFFFFFFFFFFF AND DUP2 MSTORE PUSH1 0x20 ADD PUSH1 0x0 PUSH6 0xFFFFFFFFFFFF AND DUP2 MSTORE POP SWAP1 JUMP JUMPDEST PUSH1 0x40 MLOAD DUP1 PUSH2 0x100 ADD PUSH1 0x40 MSTORE DUP1 PUSH1 0x0 PUSH20 0xFFFFFFFFFFFFFFFFFFFFFFFFFFFFFFFFFFFFFFFF AND DUP2 MSTORE PUSH1 0x20 ADD PUSH1 0x0 DUP2 MSTORE PUSH1 0x20 ADD PUSH1 0x0 DUP2 MSTORE PUSH1 0x20 ADD PUSH1 0x0 DUP2 MSTORE PUSH1 0x20 ADD PUSH1 0x0 DUP2 MSTORE PUSH1 0x20 ADD PUSH1 0x0 PUSH20 0xFFFFFFFFFFFFFFFFFFFFFFFFFFFFFFFFFFFFFFFF AND DUP2 MSTORE PUSH1 0x20 ADD PUSH1 0x0 DUP2 MSTORE PUSH1 0x20 ADD PUSH1 0x0 DUP2 MSTORE POP SWAP1 JUMP JUMPDEST PUSH1 0x0 PUSH1 0x40 MLOAD SWAP1 POP SWAP1 JUMP JUMPDEST PUSH1 0x0 DUP1 REVERT JUMPDEST PUSH1 0x0 DUP1 REVERT JUMPDEST PUSH1 0x0 PUSH32 0xFFFFFFFF00000000000000000000000000000000000000000000000000000000 DUP3 AND SWAP1 POP SWAP2 SWAP1 POP JUMP JUMPDEST PUSH2 0x39E0 DUP2 PUSH2 0x39AB JUMP JUMPDEST DUP2 EQ PUSH2 0x39EB JUMPI PUSH1 0x0 DUP1 REVERT JUMPDEST POP JUMP JUMPDEST PUSH1 0x0 DUP2 CALLDATALOAD SWAP1 POP PUSH2 0x39FD DUP2 PUSH2 0x39D7 JUMP JUMPDEST SWAP3 SWAP2 POP POP JUMP JUMPDEST PUSH1 0x0 PUSH1 0x20 DUP3 DUP5 SUB SLT ISZERO PUSH2 0x3A19 JUMPI PUSH2 0x3A18 PUSH2 0x39A1 JUMP JUMPDEST JUMPDEST PUSH1 0x0 PUSH2 0x3A27 DUP5 DUP3 DUP6 ADD PUSH2 0x39EE JUMP JUMPDEST SWAP2 POP POP SWAP3 SWAP2 POP POP JUMP JUMPDEST PUSH1 0x0 DUP2 ISZERO ISZERO SWAP1 POP SWAP2 SWAP1 POP JUMP JUMPDEST PUSH2 0x3A45 DUP2 PUSH2 0x3A30 JUMP JUMPDEST DUP3 MSTORE POP POP JUMP JUMPDEST PUSH1 0x0 PUSH1 0x20 DUP3 ADD SWAP1 POP PUSH2 0x3A60 PUSH1 0x0 DUP4 ADD DUP5 PUSH2 0x3A3C JUMP JUMPDEST SWAP3 SWAP2 POP POP JUMP JUMPDEST PUSH1 0x0 PUSH4 0xFFFFFFFF DUP3 AND SWAP1 POP SWAP2 SWAP1 POP JUMP JUMPDEST PUSH2 0x3A7F DUP2 PUSH2 0x3A66 JUMP JUMPDEST DUP2 EQ PUSH2 0x3A8A JUMPI PUSH1 0x0 DUP1 REVERT JUMPDEST POP JUMP JUMPDEST PUSH1 0x0 DUP2 CALLDATALOAD SWAP1 POP PUSH2 0x3A9C DUP2 PUSH2 0x3A76 JUMP JUMPDEST SWAP3 SWAP2 POP POP JUMP JUMPDEST PUSH1 0x0 PUSH1 0x20 DUP3 DUP5 SUB SLT ISZERO PUSH2 0x3AB8 JUMPI PUSH2 0x3AB7 PUSH2 0x39A1 JUMP JUMPDEST JUMPDEST PUSH1 0x0 PUSH2 0x3AC6 DUP5 DUP3 DUP6 ADD PUSH2 0x3A8D JUMP JUMPDEST SWAP2 POP POP SWAP3 SWAP2 POP POP JUMP JUMPDEST PUSH1 0x0 PUSH24 0xFFFFFFFFFFFFFFFFFFFFFFFFFFFFFFFFFFFFFFFFFFFFFFFF DUP3 AND SWAP1 POP SWAP2 SWAP1 POP JUMP JUMPDEST PUSH2 0x3AFC DUP2 PUSH2 0x3ACF JUMP JUMPDEST DUP2 EQ PUSH2 0x3B07 JUMPI PUSH1 0x0 DUP1 REVERT JUMPDEST POP JUMP JUMPDEST PUSH1 0x0 DUP2 CALLDATALOAD SWAP1 POP PUSH2 0x3B19 DUP2 PUSH2 0x3AF3 JUMP JUMPDEST SWAP3 SWAP2 POP POP JUMP JUMPDEST PUSH1 0x0 PUSH1 0x20 DUP3 DUP5 SUB SLT ISZERO PUSH2 0x3B35 JUMPI PUSH2 0x3B34 PUSH2 0x39A1 JUMP JUMPDEST JUMPDEST PUSH1 0x0 PUSH2 0x3B43 DUP5 DUP3 DUP6 ADD PUSH2 0x3B0A JUMP JUMPDEST SWAP2 POP POP SWAP3 SWAP2 POP POP JUMP JUMPDEST PUSH1 0x0 PUSH20 0xFFFFFFFFFFFFFFFFFFFFFFFFFFFFFFFFFFFFFFFF DUP3 AND SWAP1 POP SWAP2 SWAP1 POP JUMP JUMPDEST PUSH1 0x0 PUSH2 0x3B77 DUP3 PUSH2 0x3B4C JUMP JUMPDEST SWAP1 POP SWAP2 SWAP1 POP JUMP JUMPDEST PUSH2 0x3B87 DUP2 PUSH2 0x3B6C JUMP JUMPDEST DUP2 EQ PUSH2 0x3B92 JUMPI PUSH1 0x0 DUP1 REVERT JUMPDEST POP JUMP JUMPDEST PUSH1 0x0 DUP2 CALLDATALOAD SWAP1 POP PUSH2 0x3BA4 DUP2 PUSH2 0x3B7E JUMP JUMPDEST SWAP3 SWAP2 POP POP JUMP JUMPDEST PUSH1 0x0 DUP1 PUSH1 0x40 DUP4 DUP6 SUB SLT ISZERO PUSH2 0x3BC1 JUMPI PUSH2 0x3BC0 PUSH2 0x39A1 JUMP JUMPDEST JUMPDEST PUSH1 0x0 PUSH2 0x3BCF DUP6 DUP3 DUP7 ADD PUSH2 0x3B95 JUMP JUMPDEST SWAP3 POP POP PUSH1 0x20 PUSH2 0x3BE0 DUP6 DUP3 DUP7 ADD PUSH2 0x3B0A JUMP JUMPDEST SWAP2 POP POP SWAP3 POP SWAP3 SWAP1 POP JUMP JUMPDEST PUSH1 0x0 DUP2 SWAP1 POP SWAP2 SWAP1 POP JUMP JUMPDEST PUSH2 0x3BFD DUP2 PUSH2 0x3BEA JUMP JUMPDEST DUP3 MSTORE POP POP JUMP JUMPDEST PUSH1 0x0 PUSH1 0x20 DUP3 ADD SWAP1 POP PUSH2 0x3C18 PUSH1 0x0 DUP4 ADD DUP5 PUSH2 0x3BF4 JUMP JUMPDEST SWAP3 SWAP2 POP POP JUMP JUMPDEST PUSH1 0x0 DUP1 REVERT JUMPDEST PUSH1 0x0 DUP1 REVERT JUMPDEST PUSH1 0x0 PUSH1 0x1F NOT PUSH1 0x1F DUP4 ADD AND SWAP1 POP SWAP2 SWAP1 POP JUMP JUMPDEST PUSH32 0x4E487B7100000000000000000000000000000000000000000000000000000000 PUSH1 0x0 MSTORE PUSH1 0x41 PUSH1 0x4 MSTORE PUSH1 0x24 PUSH1 0x0 REVERT JUMPDEST PUSH2 0x3C71 DUP3 PUSH2 0x3C28 JUMP JUMPDEST DUP2 ADD DUP2 DUP2 LT PUSH8 0xFFFFFFFFFFFFFFFF DUP3 GT OR ISZERO PUSH2 0x3C90 JUMPI PUSH2 0x3C8F PUSH2 0x3C39 JUMP JUMPDEST JUMPDEST DUP1 PUSH1 0x40 MSTORE POP POP POP JUMP JUMPDEST PUSH1 0x0 PUSH2 0x3CA3 PUSH2 0x3997 JUMP JUMPDEST SWAP1 POP PUSH2 0x3CAF DUP3 DUP3 PUSH2 0x3C68 JUMP JUMPDEST SWAP2 SWAP1 POP JUMP JUMPDEST PUSH1 0x0 PUSH8 0xFFFFFFFFFFFFFFFF DUP3 GT ISZERO PUSH2 0x3CCF JUMPI PUSH2 0x3CCE PUSH2 0x3C39 JUMP JUMPDEST JUMPDEST PUSH2 0x3CD8 DUP3 PUSH2 0x3C28 JUMP JUMPDEST SWAP1 POP PUSH1 0x20 DUP2 ADD SWAP1 POP SWAP2 SWAP1 POP JUMP JUMPDEST DUP3 DUP2 DUP4 CALLDATACOPY PUSH1 0x0 DUP4 DUP4 ADD MSTORE POP POP POP JUMP JUMPDEST PUSH1 0x0 PUSH2 0x3D07 PUSH2 0x3D02 DUP5 PUSH2 0x3CB4 JUMP JUMPDEST PUSH2 0x3C99 JUMP JUMPDEST SWAP1 POP DUP3 DUP2 MSTORE PUSH1 0x20 DUP2 ADD DUP5 DUP5 DUP5 ADD GT ISZERO PUSH2 0x3D23 JUMPI PUSH2 0x3D22 PUSH2 0x3C23 JUMP JUMPDEST JUMPDEST PUSH2 0x3D2E DUP5 DUP3 DUP6 PUSH2 0x3CE5 JUMP JUMPDEST POP SWAP4 SWAP3 POP POP POP JUMP JUMPDEST PUSH1 0x0 DUP3 PUSH1 0x1F DUP4 ADD SLT PUSH2 0x3D4B JUMPI PUSH2 0x3D4A PUSH2 0x3C1E JUMP JUMPDEST JUMPDEST DUP2 CALLDATALOAD PUSH2 0x3D5B DUP5 DUP3 PUSH1 0x20 DUP7 ADD PUSH2 0x3CF4 JUMP JUMPDEST SWAP2 POP POP SWAP3 SWAP2 POP POP JUMP JUMPDEST PUSH1 0x0 DUP1 REVERT JUMPDEST PUSH2 0x3D72 DUP2 PUSH2 0x3BEA JUMP JUMPDEST DUP2 EQ PUSH2 0x3D7D JUMPI PUSH1 0x0 DUP1 REVERT JUMPDEST POP JUMP JUMPDEST PUSH1 0x0 DUP2 CALLDATALOAD SWAP1 POP PUSH2 0x3D8F DUP2 PUSH2 0x3D69 JUMP JUMPDEST SWAP3 SWAP2 POP POP JUMP JUMPDEST PUSH1 0x0 PUSH2 0x100 DUP3 DUP5 SUB SLT ISZERO PUSH2 0x3DAC JUMPI PUSH2 0x3DAB PUSH2 0x3D64 JUMP JUMPDEST JUMPDEST PUSH2 0x3DB7 PUSH2 0x100 PUSH2 0x3C99 JUMP JUMPDEST SWAP1 POP PUSH1 0x0 PUSH2 0x3DC7 DUP5 DUP3 DUP6 ADD PUSH2 0x3B95 JUMP JUMPDEST PUSH1 0x0 DUP4 ADD MSTORE POP PUSH1 0x20 PUSH2 0x3DDB DUP5 DUP3 DUP6 ADD PUSH2 0x3D80 JUMP JUMPDEST PUSH1 0x20 DUP4 ADD MSTORE POP PUSH1 0x40 PUSH2 0x3DEF DUP5 DUP3 DUP6 ADD PUSH2 0x3D80 JUMP JUMPDEST PUSH1 0x40 DUP4 ADD MSTORE POP PUSH1 0x60 PUSH2 0x3E03 DUP5 DUP3 DUP6 ADD PUSH2 0x3D80 JUMP JUMPDEST PUSH1 0x60 DUP4 ADD MSTORE POP PUSH1 0x80 PUSH2 0x3E17 DUP5 DUP3 DUP6 ADD PUSH2 0x3D80 JUMP JUMPDEST PUSH1 0x80 DUP4 ADD MSTORE POP PUSH1 0xA0 PUSH2 0x3E2B DUP5 DUP3 DUP6 ADD PUSH2 0x3B95 JUMP JUMPDEST PUSH1 0xA0 DUP4 ADD MSTORE POP PUSH1 0xC0 PUSH2 0x3E3F DUP5 DUP3 DUP6 ADD PUSH2 0x3D80 JUMP JUMPDEST PUSH1 0xC0 DUP4 ADD MSTORE POP PUSH1 0xE0 PUSH2 0x3E53 DUP5 DUP3 DUP6 ADD PUSH2 0x3D80 JUMP JUMPDEST PUSH1 0xE0 DUP4 ADD MSTORE POP SWAP3 SWAP2 POP POP JUMP JUMPDEST PUSH1 0x0 DUP2 SWAP1 POP SWAP2 SWAP1 POP JUMP JUMPDEST PUSH2 0x3E72 DUP2 PUSH2 0x3E5F JUMP JUMPDEST DUP2 EQ PUSH2 0x3E7D JUMPI PUSH1 0x0 DUP1 REVERT JUMPDEST POP JUMP JUMPDEST PUSH1 0x0 DUP2 CALLDATALOAD SWAP1 POP PUSH2 0x3E8F DUP2 PUSH2 0x3E69 JUMP JUMPDEST SWAP3 SWAP2 POP POP JUMP JUMPDEST PUSH1 0x0 PUSH2 0x180 DUP3 DUP5 SUB SLT ISZERO PUSH2 0x3EAC JUMPI PUSH2 0x3EAB PUSH2 0x3D64 JUMP JUMPDEST JUMPDEST PUSH2 0x3EB6 PUSH1 0xA0 PUSH2 0x3C99 JUMP JUMPDEST SWAP1 POP PUSH1 0x0 PUSH2 0x3EC6 DUP5 DUP3 DUP6 ADD PUSH2 0x3D95 JUMP JUMPDEST PUSH1 0x0 DUP4 ADD MSTORE POP PUSH2 0x100 PUSH2 0x3EDB DUP5 DUP3 DUP6 ADD PUSH2 0x3E80 JUMP JUMPDEST PUSH1 0x20 DUP4 ADD MSTORE POP PUSH2 0x120 PUSH2 0x3EF0 DUP5 DUP3 DUP6 ADD PUSH2 0x3D80 JUMP JUMPDEST PUSH1 0x40 DUP4 ADD MSTORE POP PUSH2 0x140 PUSH2 0x3F05 DUP5 DUP3 DUP6 ADD PUSH2 0x3D80 JUMP JUMPDEST PUSH1 0x60 DUP4 ADD MSTORE POP PUSH2 0x160 PUSH2 0x3F1A DUP5 DUP3 DUP6 ADD PUSH2 0x3D80 JUMP JUMPDEST PUSH1 0x80 DUP4 ADD MSTORE POP SWAP3 SWAP2 POP POP JUMP JUMPDEST PUSH1 0x0 DUP1 REVERT JUMPDEST PUSH1 0x0 DUP1 REVERT JUMPDEST PUSH1 0x0 DUP1 DUP4 PUSH1 0x1F DUP5 ADD SLT PUSH2 0x3F46 JUMPI PUSH2 0x3F45 PUSH2 0x3C1E JUMP JUMPDEST JUMPDEST DUP3 CALLDATALOAD SWAP1 POP PUSH8 0xFFFFFFFFFFFFFFFF DUP2 GT ISZERO PUSH2 0x3F63 JUMPI PUSH2 0x3F62 PUSH2 0x3F26 JUMP JUMPDEST JUMPDEST PUSH1 0x20 DUP4 ADD SWAP2 POP DUP4 PUSH1 0x1 DUP3 MUL DUP4 ADD GT ISZERO PUSH2 0x3F7F JUMPI PUSH2 0x3F7E PUSH2 0x3F2B JUMP JUMPDEST JUMPDEST SWAP3 POP SWAP3 SWAP1 POP JUMP JUMPDEST PUSH1 0x0 DUP1 PUSH1 0x0 DUP1 PUSH2 0x1C0 DUP6 DUP8 SUB SLT ISZERO PUSH2 0x3FA1 JUMPI PUSH2 0x3FA0 PUSH2 0x39A1 JUMP JUMPDEST JUMPDEST PUSH1 0x0 DUP6 ADD CALLDATALOAD PUSH8 0xFFFFFFFFFFFFFFFF DUP2 GT ISZERO PUSH2 0x3FBF JUMPI PUSH2 0x3FBE PUSH2 0x39A6 JUMP JUMPDEST JUMPDEST PUSH2 0x3FCB DUP8 DUP3 DUP9 ADD PUSH2 0x3D36 JUMP JUMPDEST SWAP5 POP POP PUSH1 0x20 PUSH2 0x3FDC DUP8 DUP3 DUP9 ADD PUSH2 0x3E95 JUMP JUMPDEST SWAP4 POP POP PUSH2 0x1A0 DUP6 ADD CALLDATALOAD PUSH8 0xFFFFFFFFFFFFFFFF DUP2 GT ISZERO PUSH2 0x3FFE JUMPI PUSH2 0x3FFD PUSH2 0x39A6 JUMP JUMPDEST JUMPDEST PUSH2 0x400A DUP8 DUP3 DUP9 ADD PUSH2 0x3F30 JUMP JUMPDEST SWAP3 POP SWAP3 POP POP SWAP3 SWAP6 SWAP2 SWAP5 POP SWAP3 POP JUMP JUMPDEST PUSH1 0x0 DUP1 DUP4 PUSH1 0x1F DUP5 ADD SLT PUSH2 0x402E JUMPI PUSH2 0x402D PUSH2 0x3C1E JUMP JUMPDEST JUMPDEST DUP3 CALLDATALOAD SWAP1 POP PUSH8 0xFFFFFFFFFFFFFFFF DUP2 GT ISZERO PUSH2 0x404B JUMPI PUSH2 0x404A PUSH2 0x3F26 JUMP JUMPDEST JUMPDEST PUSH1 0x20 DUP4 ADD SWAP2 POP DUP4 PUSH1 0x20 DUP3 MUL DUP4 ADD GT ISZERO PUSH2 0x4067 JUMPI PUSH2 0x4066 PUSH2 0x3F2B JUMP JUMPDEST JUMPDEST SWAP3 POP SWAP3 SWAP1 POP JUMP JUMPDEST PUSH1 0x0 PUSH2 0x4079 DUP3 PUSH2 0x3B4C JUMP JUMPDEST SWAP1 POP SWAP2 SWAP1 POP JUMP JUMPDEST PUSH2 0x4089 DUP2 PUSH2 0x406E JUMP JUMPDEST DUP2 EQ PUSH2 0x4094 JUMPI PUSH1 0x0 DUP1 REVERT JUMPDEST POP JUMP JUMPDEST PUSH1 0x0 DUP2 CALLDATALOAD SWAP1 POP PUSH2 0x40A6 DUP2 PUSH2 0x4080 JUMP JUMPDEST SWAP3 SWAP2 POP POP JUMP JUMPDEST PUSH1 0x0 DUP1 PUSH1 0x0 PUSH1 0x40 DUP5 DUP7 SUB SLT ISZERO PUSH2 0x40C5 JUMPI PUSH2 0x40C4 PUSH2 0x39A1 JUMP JUMPDEST JUMPDEST PUSH1 0x0 DUP5 ADD CALLDATALOAD PUSH8 0xFFFFFFFFFFFFFFFF DUP2 GT ISZERO PUSH2 0x40E3 JUMPI PUSH2 0x40E2 PUSH2 0x39A6 JUMP JUMPDEST JUMPDEST PUSH2 0x40EF DUP7 DUP3 DUP8 ADD PUSH2 0x4018 JUMP JUMPDEST SWAP4 POP SWAP4 POP POP PUSH1 0x20 PUSH2 0x4102 DUP7 DUP3 DUP8 ADD PUSH2 0x4097 JUMP JUMPDEST SWAP2 POP POP SWAP3 POP SWAP3 POP SWAP3 JUMP JUMPDEST PUSH1 0x0 DUP1 PUSH1 0x40 DUP4 DUP6 SUB SLT ISZERO PUSH2 0x4123 JUMPI PUSH2 0x4122 PUSH2 0x39A1 JUMP JUMPDEST JUMPDEST PUSH1 0x0 PUSH2 0x4131 DUP6 DUP3 DUP7 ADD PUSH2 0x4097 JUMP JUMPDEST SWAP3 POP POP PUSH1 0x20 PUSH2 0x4142 DUP6 DUP3 DUP7 ADD PUSH2 0x3D80 JUMP JUMPDEST SWAP2 POP POP SWAP3 POP SWAP3 SWAP1 POP JUMP JUMPDEST PUSH1 0x0 DUP1 DUP4 PUSH1 0x1F DUP5 ADD SLT PUSH2 0x4162 JUMPI PUSH2 0x4161 PUSH2 0x3C1E JUMP JUMPDEST JUMPDEST DUP3 CALLDATALOAD SWAP1 POP PUSH8 0xFFFFFFFFFFFFFFFF DUP2 GT ISZERO PUSH2 0x417F JUMPI PUSH2 0x417E PUSH2 0x3F26 JUMP JUMPDEST JUMPDEST PUSH1 0x20 DUP4 ADD SWAP2 POP DUP4 PUSH1 0x20 DUP3 MUL DUP4 ADD GT ISZERO PUSH2 0x419B JUMPI PUSH2 0x419A PUSH2 0x3F2B JUMP JUMPDEST JUMPDEST SWAP3 POP SWAP3 SWAP1 POP JUMP JUMPDEST PUSH1 0x0 DUP1 PUSH1 0x0 PUSH1 0x40 DUP5 DUP7 SUB SLT ISZERO PUSH2 0x41BB JUMPI PUSH2 0x41BA PUSH2 0x39A1 JUMP JUMPDEST JUMPDEST PUSH1 0x0 DUP5 ADD CALLDATALOAD PUSH8 0xFFFFFFFFFFFFFFFF DUP2 GT ISZERO PUSH2 0x41D9 JUMPI PUSH2 0x41D8 PUSH2 0x39A6 JUMP JUMPDEST JUMPDEST PUSH2 0x41E5 DUP7 DUP3 DUP8 ADD PUSH2 0x414C JUMP JUMPDEST SWAP4 POP SWAP4 POP POP PUSH1 0x20 PUSH2 0x41F8 DUP7 DUP3 DUP8 ADD PUSH2 0x4097 JUMP JUMPDEST SWAP2 POP POP SWAP3 POP SWAP3 POP SWAP3 JUMP JUMPDEST PUSH1 0x0 PUSH1 0x20 DUP3 DUP5 SUB SLT ISZERO PUSH2 0x4218 JUMPI PUSH2 0x4217 PUSH2 0x39A1 JUMP JUMPDEST JUMPDEST PUSH1 0x0 PUSH2 0x4226 DUP5 DUP3 DUP6 ADD PUSH2 0x3B95 JUMP JUMPDEST SWAP2 POP POP SWAP3 SWAP2 POP POP JUMP JUMPDEST PUSH1 0x0 PUSH14 0xFFFFFFFFFFFFFFFFFFFFFFFFFFFF DUP3 AND SWAP1 POP SWAP2 SWAP1 POP JUMP JUMPDEST PUSH2 0x4252 DUP2 PUSH2 0x422F JUMP JUMPDEST DUP3 MSTORE POP POP JUMP JUMPDEST PUSH2 0x4261 DUP2 PUSH2 0x3A30 JUMP JUMPDEST DUP3 MSTORE POP POP JUMP JUMPDEST PUSH2 0x4270 DUP2 PUSH2 0x3A66 JUMP JUMPDEST DUP3 MSTORE POP POP JUMP JUMPDEST PUSH1 0x0 PUSH6 0xFFFFFFFFFFFF DUP3 AND SWAP1 POP SWAP2 SWAP1 POP JUMP JUMPDEST PUSH2 0x4291 DUP2 PUSH2 0x4276 JUMP JUMPDEST DUP3 MSTORE POP POP JUMP JUMPDEST PUSH1 0xA0 DUP3 ADD PUSH1 0x0 DUP3 ADD MLOAD PUSH2 0x42AD PUSH1 0x0 DUP6 ADD DUP3 PUSH2 0x4249 JUMP JUMPDEST POP PUSH1 0x20 DUP3 ADD MLOAD PUSH2 0x42C0 PUSH1 0x20 DUP6 ADD DUP3 PUSH2 0x4258 JUMP JUMPDEST POP PUSH1 0x40 DUP3 ADD MLOAD PUSH2 0x42D3 PUSH1 0x40 DUP6 ADD DUP3 PUSH2 0x4249 JUMP JUMPDEST POP PUSH1 0x60 DUP3 ADD MLOAD PUSH2 0x42E6 PUSH1 0x60 DUP6 ADD DUP3 PUSH2 0x4267 JUMP JUMPDEST POP PUSH1 0x80 DUP3 ADD MLOAD PUSH2 0x42F9 PUSH1 0x80 DUP6 ADD DUP3 PUSH2 0x4288 JUMP JUMPDEST POP POP POP POP JUMP JUMPDEST PUSH1 0x0 PUSH1 0xA0 DUP3 ADD SWAP1 POP PUSH2 0x4314 PUSH1 0x0 DUP4 ADD DUP5 PUSH2 0x4297 JUMP JUMPDEST SWAP3 SWAP2 POP POP JUMP JUMPDEST PUSH1 0x0 DUP1 PUSH1 0x20 DUP4 DUP6 SUB SLT ISZERO PUSH2 0x4331 JUMPI PUSH2 0x4330 PUSH2 0x39A1 JUMP JUMPDEST JUMPDEST PUSH1 0x0 DUP4 ADD CALLDATALOAD PUSH8 0xFFFFFFFFFFFFFFFF DUP2 GT ISZERO PUSH2 0x434F JUMPI PUSH2 0x434E PUSH2 0x39A6 JUMP JUMPDEST JUMPDEST PUSH2 0x435B DUP6 DUP3 DUP7 ADD PUSH2 0x3F30 JUMP JUMPDEST SWAP3 POP SWAP3 POP POP SWAP3 POP SWAP3 SWAP1 POP JUMP JUMPDEST PUSH1 0x0 DUP1 REVERT JUMPDEST PUSH1 0x0 PUSH2 0x160 DUP3 DUP5 SUB SLT ISZERO PUSH2 0x4383 JUMPI PUSH2 0x4382 PUSH2 0x4367 JUMP JUMPDEST JUMPDEST DUP2 SWAP1 POP SWAP3 SWAP2 POP POP JUMP JUMPDEST PUSH1 0x0 PUSH1 0x20 DUP3 DUP5 SUB SLT ISZERO PUSH2 0x43A2 JUMPI PUSH2 0x43A1 PUSH2 0x39A1 JUMP JUMPDEST JUMPDEST PUSH1 0x0 DUP3 ADD CALLDATALOAD PUSH8 0xFFFFFFFFFFFFFFFF DUP2 GT ISZERO PUSH2 0x43C0 JUMPI PUSH2 0x43BF PUSH2 0x39A6 JUMP JUMPDEST JUMPDEST PUSH2 0x43CC DUP5 DUP3 DUP6 ADD PUSH2 0x436C JUMP JUMPDEST SWAP2 POP POP SWAP3 SWAP2 POP POP JUMP JUMPDEST PUSH2 0x43DE DUP2 PUSH2 0x3E5F JUMP JUMPDEST DUP3 MSTORE POP POP JUMP JUMPDEST PUSH1 0x0 PUSH1 0x20 DUP3 ADD SWAP1 POP PUSH2 0x43F9 PUSH1 0x0 DUP4 ADD DUP5 PUSH2 0x43D5 JUMP JUMPDEST SWAP3 SWAP2 POP POP JUMP JUMPDEST PUSH1 0x0 PUSH1 0x20 DUP3 DUP5 SUB SLT ISZERO PUSH2 0x4415 JUMPI PUSH2 0x4414 PUSH2 0x39A1 JUMP JUMPDEST JUMPDEST PUSH1 0x0 PUSH2 0x4423 DUP5 DUP3 DUP6 ADD PUSH2 0x4097 JUMP JUMPDEST SWAP2 POP POP SWAP3 SWAP2 POP POP JUMP JUMPDEST PUSH2 0x4435 DUP2 PUSH2 0x422F JUMP JUMPDEST DUP3 MSTORE POP POP JUMP JUMPDEST PUSH2 0x4444 DUP2 PUSH2 0x3A66 JUMP JUMPDEST DUP3 MSTORE POP POP JUMP JUMPDEST PUSH2 0x4453 DUP2 PUSH2 0x4276 JUMP JUMPDEST DUP3 MSTORE POP POP JUMP JUMPDEST PUSH1 0x0 PUSH1 0xA0 DUP3 ADD SWAP1 POP PUSH2 0x446E PUSH1 0x0 DUP4 ADD DUP9 PUSH2 0x442C JUMP JUMPDEST PUSH2 0x447B PUSH1 0x20 DUP4 ADD DUP8 PUSH2 0x3A3C JUMP JUMPDEST PUSH2 0x4488 PUSH1 0x40 DUP4 ADD DUP7 PUSH2 0x442C JUMP JUMPDEST PUSH2 0x4495 PUSH1 0x60 DUP4 ADD DUP6 PUSH2 0x443B JUMP JUMPDEST PUSH2 0x44A2 PUSH1 0x80 DUP4 ADD DUP5 PUSH2 0x444A JUMP JUMPDEST SWAP7 SWAP6 POP POP POP POP POP POP JUMP JUMPDEST PUSH1 0x0 DUP2 SWAP1 POP SWAP2 SWAP1 POP JUMP JUMPDEST PUSH1 0x0 PUSH2 0x44D1 PUSH2 0x44CC PUSH2 0x44C7 DUP5 PUSH2 0x422F JUMP JUMPDEST PUSH2 0x44AC JUMP JUMPDEST PUSH2 0x3BEA JUMP JUMPDEST SWAP1 POP SWAP2 SWAP1 POP JUMP JUMPDEST PUSH2 0x44E1 DUP2 PUSH2 0x44B6 JUMP JUMPDEST DUP3 MSTORE POP POP JUMP JUMPDEST PUSH1 0x0 PUSH1 0x20 DUP3 ADD SWAP1 POP PUSH2 0x44FC PUSH1 0x0 DUP4 ADD DUP5 PUSH2 0x44D8 JUMP JUMPDEST SWAP3 SWAP2 POP POP JUMP JUMPDEST PUSH1 0x0 DUP3 DUP3 MSTORE PUSH1 0x20 DUP3 ADD SWAP1 POP SWAP3 SWAP2 POP POP JUMP JUMPDEST PUSH32 0x6D757374207370656369667920756E7374616B652064656C6179000000000000 PUSH1 0x0 DUP3 ADD MSTORE POP JUMP JUMPDEST PUSH1 0x0 PUSH2 0x4549 PUSH1 0x1A DUP4 PUSH2 0x4502 JUMP JUMPDEST SWAP2 POP PUSH2 0x4554 DUP3 PUSH2 0x4513 JUMP JUMPDEST PUSH1 0x20 DUP3 ADD SWAP1 POP SWAP2 SWAP1 POP JUMP JUMPDEST PUSH1 0x0 PUSH1 0x20 DUP3 ADD SWAP1 POP DUP2 DUP2 SUB PUSH1 0x0 DUP4 ADD MSTORE PUSH2 0x4578 DUP2 PUSH2 0x453C JUMP JUMPDEST SWAP1 POP SWAP2 SWAP1 POP JUMP JUMPDEST PUSH32 0x63616E6E6F7420646563726561736520756E7374616B652074696D6500000000 PUSH1 0x0 DUP3 ADD MSTORE POP JUMP JUMPDEST PUSH1 0x0 PUSH2 0x45B5 PUSH1 0x1C DUP4 PUSH2 0x4502 JUMP JUMPDEST SWAP2 POP PUSH2 0x45C0 DUP3 PUSH2 0x457F JUMP JUMPDEST PUSH1 0x20 DUP3 ADD SWAP1 POP SWAP2 SWAP1 POP JUMP JUMPDEST PUSH1 0x0 PUSH1 0x20 DUP3 ADD SWAP1 POP DUP2 DUP2 SUB PUSH1 0x0 DUP4 ADD MSTORE PUSH2 0x45E4 DUP2 PUSH2 0x45A8 JUMP JUMPDEST SWAP1 POP SWAP2 SWAP1 POP JUMP JUMPDEST PUSH32 0x4E487B7100000000000000000000000000000000000000000000000000000000 PUSH1 0x0 MSTORE PUSH1 0x11 PUSH1 0x4 MSTORE PUSH1 0x24 PUSH1 0x0 REVERT JUMPDEST PUSH1 0x0 PUSH2 0x4625 DUP3 PUSH2 0x3BEA JUMP JUMPDEST SWAP2 POP PUSH2 0x4630 DUP4 PUSH2 0x3BEA JUMP JUMPDEST SWAP3 POP DUP3 DUP3 ADD SWAP1 POP DUP1 DUP3 GT ISZERO PUSH2 0x4648 JUMPI PUSH2 0x4647 PUSH2 0x45EB JUMP JUMPDEST JUMPDEST SWAP3 SWAP2 POP POP JUMP JUMPDEST PUSH32 0x6E6F207374616B65207370656369666965640000000000000000000000000000 PUSH1 0x0 DUP3 ADD MSTORE POP JUMP JUMPDEST PUSH1 0x0 PUSH2 0x4684 PUSH1 0x12 DUP4 PUSH2 0x4502 JUMP JUMPDEST SWAP2 POP PUSH2 0x468F DUP3 PUSH2 0x464E JUMP JUMPDEST PUSH1 0x20 DUP3 ADD SWAP1 POP SWAP2 SWAP1 POP JUMP JUMPDEST PUSH1 0x0 PUSH1 0x20 DUP3 ADD SWAP1 POP DUP2 DUP2 SUB PUSH1 0x0 DUP4 ADD MSTORE PUSH2 0x46B3 DUP2 PUSH2 0x4677 JUMP JUMPDEST SWAP1 POP SWAP2 SWAP1 POP JUMP JUMPDEST PUSH32 0x7374616B65206F766572666C6F77000000000000000000000000000000000000 PUSH1 0x0 DUP3 ADD MSTORE POP JUMP JUMPDEST PUSH1 0x0 PUSH2 0x46F0 PUSH1 0xE DUP4 PUSH2 0x4502 JUMP JUMPDEST SWAP2 POP PUSH2 0x46FB DUP3 PUSH2 0x46BA JUMP JUMPDEST PUSH1 0x20 DUP3 ADD SWAP1 POP SWAP2 SWAP1 POP JUMP JUMPDEST PUSH1 0x0 PUSH1 0x20 DUP3 ADD SWAP1 POP DUP2 DUP2 SUB PUSH1 0x0 DUP4 ADD MSTORE PUSH2 0x471F DUP2 PUSH2 0x46E3 JUMP JUMPDEST SWAP1 POP SWAP2 SWAP1 POP JUMP JUMPDEST PUSH1 0x0 PUSH2 0x4741 PUSH2 0x473C PUSH2 0x4737 DUP5 PUSH2 0x3A66 JUMP JUMPDEST PUSH2 0x44AC JUMP JUMPDEST PUSH2 0x3BEA JUMP JUMPDEST SWAP1 POP SWAP2 SWAP1 POP JUMP JUMPDEST PUSH2 0x4751 DUP2 PUSH2 0x4726 JUMP JUMPDEST DUP3 MSTORE POP POP JUMP JUMPDEST PUSH1 0x0 PUSH1 0x40 DUP3 ADD SWAP1 POP PUSH2 0x476C PUSH1 0x0 DUP4 ADD DUP6 PUSH2 0x3BF4 JUMP JUMPDEST PUSH2 0x4779 PUSH1 0x20 DUP4 ADD DUP5 PUSH2 0x4748 JUMP JUMPDEST SWAP4 SWAP3 POP POP POP JUMP JUMPDEST PUSH1 0x0 PUSH2 0x478B DUP3 PUSH2 0x3BEA JUMP JUMPDEST SWAP2 POP PUSH32 0xFFFFFFFFFFFFFFFFFFFFFFFFFFFFFFFFFFFFFFFFFFFFFFFFFFFFFFFFFFFFFFFF DUP3 SUB PUSH2 0x47BD JUMPI PUSH2 0x47BC PUSH2 0x45EB JUMP JUMPDEST JUMPDEST PUSH1 0x1 DUP3 ADD SWAP1 POP SWAP2 SWAP1 POP JUMP JUMPDEST PUSH32 0x4141393220696E7465726E616C2063616C6C206F6E6C79000000000000000000 PUSH1 0x0 DUP3 ADD MSTORE POP JUMP JUMPDEST PUSH1 0x0 PUSH2 0x47FE PUSH1 0x17 DUP4 PUSH2 0x4502 JUMP JUMPDEST SWAP2 POP PUSH2 0x4809 DUP3 PUSH2 0x47C8 JUMP JUMPDEST PUSH1 0x20 DUP3 ADD SWAP1 POP SWAP2 SWAP1 POP JUMP JUMPDEST PUSH1 0x0 PUSH1 0x20 DUP3 ADD SWAP1 POP DUP2 DUP2 SUB PUSH1 0x0 DUP4 ADD MSTORE PUSH2 0x482D DUP2 PUSH2 0x47F1 JUMP JUMPDEST SWAP1 POP SWAP2 SWAP1 POP JUMP JUMPDEST PUSH1 0x0 DUP2 MLOAD SWAP1 POP SWAP2 SWAP1 POP JUMP JUMPDEST PUSH1 0x0 DUP3 DUP3 MSTORE PUSH1 0x20 DUP3 ADD SWAP1 POP SWAP3 SWAP2 POP POP JUMP JUMPDEST PUSH1 0x0 JUMPDEST DUP4 DUP2 LT ISZERO PUSH2 0x486E JUMPI DUP1 DUP3 ADD MLOAD DUP2 DUP5 ADD MSTORE PUSH1 0x20 DUP2 ADD SWAP1 POP PUSH2 0x4853 JUMP JUMPDEST PUSH1 0x0 DUP5 DUP5 ADD MSTORE POP POP POP POP JUMP JUMPDEST PUSH1 0x0 PUSH2 0x4885 DUP3 PUSH2 0x4834 JUMP JUMPDEST PUSH2 0x488F DUP2 DUP6 PUSH2 0x483F JUMP JUMPDEST SWAP4 POP PUSH2 0x489F DUP2 DUP6 PUSH1 0x20 DUP7 ADD PUSH2 0x4850 JUMP JUMPDEST PUSH2 0x48A8 DUP2 PUSH2 0x3C28 JUMP JUMPDEST DUP5 ADD SWAP2 POP POP SWAP3 SWAP2 POP POP JUMP JUMPDEST PUSH1 0x0 PUSH1 0x40 DUP3 ADD SWAP1 POP PUSH2 0x48C8 PUSH1 0x0 DUP4 ADD DUP6 PUSH2 0x3BF4 JUMP JUMPDEST DUP2 DUP2 SUB PUSH1 0x20 DUP4 ADD MSTORE PUSH2 0x48DA DUP2 DUP5 PUSH2 0x487A JUMP JUMPDEST SWAP1 POP SWAP4 SWAP3 POP POP POP JUMP JUMPDEST PUSH32 0x4E487B7100000000000000000000000000000000000000000000000000000000 PUSH1 0x0 MSTORE PUSH1 0x32 PUSH1 0x4 MSTORE PUSH1 0x24 PUSH1 0x0 REVERT JUMPDEST PUSH1 0x0 DUP1 REVERT JUMPDEST PUSH1 0x0 DUP1 REVERT JUMPDEST PUSH1 0x0 DUP1 REVERT JUMPDEST PUSH1 0x0 DUP3 CALLDATALOAD PUSH1 0x1 PUSH2 0x160 SUB DUP4 CALLDATASIZE SUB SUB DUP2 SLT PUSH2 0x493E JUMPI PUSH2 0x493D PUSH2 0x4912 JUMP JUMPDEST JUMPDEST DUP1 DUP4 ADD SWAP2 POP POP SWAP3 SWAP2 POP POP JUMP JUMPDEST PUSH32 0x576974686472617720616D6F756E7420746F6F206C6172676500000000000000 PUSH1 0x0 DUP3 ADD MSTORE POP JUMP JUMPDEST PUSH1 0x0 PUSH2 0x4980 PUSH1 0x19 DUP4 PUSH2 0x4502 JUMP JUMPDEST SWAP2 POP PUSH2 0x498B DUP3 PUSH2 0x494A JUMP JUMPDEST PUSH1 0x20 DUP3 ADD SWAP1 POP SWAP2 SWAP1 POP JUMP JUMPDEST PUSH1 0x0 PUSH1 0x20 DUP3 ADD SWAP1 POP DUP2 DUP2 SUB PUSH1 0x0 DUP4 ADD MSTORE PUSH2 0x49AF DUP2 PUSH2 0x4973 JUMP JUMPDEST SWAP1 POP SWAP2 SWAP1 POP JUMP JUMPDEST PUSH1 0x0 PUSH2 0x49C1 DUP3 PUSH2 0x3BEA JUMP JUMPDEST SWAP2 POP PUSH2 0x49CC DUP4 PUSH2 0x3BEA JUMP JUMPDEST SWAP3 POP DUP3 DUP3 SUB SWAP1 POP DUP2 DUP2 GT ISZERO PUSH2 0x49E4 JUMPI PUSH2 0x49E3 PUSH2 0x45EB JUMP JUMPDEST JUMPDEST SWAP3 SWAP2 POP POP JUMP JUMPDEST PUSH1 0x0 PUSH2 0x4A05 PUSH2 0x4A00 PUSH2 0x49FB DUP5 PUSH2 0x3B4C JUMP JUMPDEST PUSH2 0x44AC JUMP JUMPDEST PUSH2 0x3B4C JUMP JUMPDEST SWAP1 POP SWAP2 SWAP1 POP JUMP JUMPDEST PUSH1 0x0 PUSH2 0x4A17 DUP3 PUSH2 0x49EA JUMP JUMPDEST SWAP1 POP SWAP2 SWAP1 POP JUMP JUMPDEST PUSH1 0x0 PUSH2 0x4A29 DUP3 PUSH2 0x4A0C JUMP JUMPDEST SWAP1 POP SWAP2 SWAP1 POP JUMP JUMPDEST PUSH2 0x4A39 DUP2 PUSH2 0x4A1E JUMP JUMPDEST DUP3 MSTORE POP POP JUMP JUMPDEST PUSH1 0x0 PUSH1 0x40 DUP3 ADD SWAP1 POP PUSH2 0x4A54 PUSH1 0x0 DUP4 ADD DUP6 PUSH2 0x4A30 JUMP JUMPDEST PUSH2 0x4A61 PUSH1 0x20 DUP4 ADD DUP5 PUSH2 0x3BF4 JUMP JUMPDEST SWAP4 SWAP3 POP POP POP JUMP JUMPDEST PUSH1 0x0 DUP2 SWAP1 POP SWAP3 SWAP2 POP POP JUMP JUMPDEST POP JUMP JUMPDEST PUSH1 0x0 PUSH2 0x4A83 PUSH1 0x0 DUP4 PUSH2 0x4A68 JUMP JUMPDEST SWAP2 POP PUSH2 0x4A8E DUP3 PUSH2 0x4A73 JUMP JUMPDEST PUSH1 0x0 DUP3 ADD SWAP1 POP SWAP2 SWAP1 POP JUMP JUMPDEST PUSH1 0x0 PUSH2 0x4AA4 DUP3 PUSH2 0x4A76 JUMP JUMPDEST SWAP2 POP DUP2 SWAP1 POP SWAP2 SWAP1 POP JUMP JUMPDEST PUSH32 0x6661696C656420746F2077697468647261770000000000000000000000000000 PUSH1 0x0 DUP3 ADD MSTORE POP JUMP JUMPDEST PUSH1 0x0 PUSH2 0x4AE4 PUSH1 0x12 DUP4 PUSH2 0x4502 JUMP JUMPDEST SWAP2 POP PUSH2 0x4AEF DUP3 PUSH2 0x4AAE JUMP JUMPDEST PUSH1 0x20 DUP3 ADD SWAP1 POP SWAP2 SWAP1 POP JUMP JUMPDEST PUSH1 0x0 PUSH1 0x20 DUP3 ADD SWAP1 POP DUP2 DUP2 SUB PUSH1 0x0 DUP4 ADD MSTORE PUSH2 0x4B13 DUP2 PUSH2 0x4AD7 JUMP JUMPDEST SWAP1 POP SWAP2 SWAP1 POP JUMP JUMPDEST PUSH1 0x0 DUP3 CALLDATALOAD PUSH1 0x1 PUSH1 0x60 SUB DUP4 CALLDATASIZE SUB SUB DUP2 SLT PUSH2 0x4B36 JUMPI PUSH2 0x4B35 PUSH2 0x4912 JUMP JUMPDEST JUMPDEST DUP1 DUP4 ADD SWAP2 POP POP SWAP3 SWAP2 POP POP JUMP JUMPDEST PUSH1 0x0 DUP1 DUP4 CALLDATALOAD PUSH1 0x1 PUSH1 0x20 SUB DUP5 CALLDATASIZE SUB SUB DUP2 SLT PUSH2 0x4B5F JUMPI PUSH2 0x4B5E PUSH2 0x4912 JUMP JUMPDEST JUMPDEST DUP1 DUP5 ADD SWAP3 POP DUP3 CALLDATALOAD SWAP2 POP PUSH8 0xFFFFFFFFFFFFFFFF DUP3 GT ISZERO PUSH2 0x4B81 JUMPI PUSH2 0x4B80 PUSH2 0x4917 JUMP JUMPDEST JUMPDEST PUSH1 0x20 DUP4 ADD SWAP3 POP PUSH1 0x20 DUP3 MUL CALLDATASIZE SUB DUP4 SGT ISZERO PUSH2 0x4B9D JUMPI PUSH2 0x4B9C PUSH2 0x491C JUMP JUMPDEST JUMPDEST POP SWAP3 POP SWAP3 SWAP1 POP JUMP JUMPDEST PUSH1 0x0 PUSH2 0x4BB0 DUP3 PUSH2 0x3B6C JUMP JUMPDEST SWAP1 POP SWAP2 SWAP1 POP JUMP JUMPDEST PUSH2 0x4BC0 DUP2 PUSH2 0x4BA5 JUMP JUMPDEST DUP2 EQ PUSH2 0x4BCB JUMPI PUSH1 0x0 DUP1 REVERT JUMPDEST POP JUMP JUMPDEST PUSH1 0x0 DUP2 CALLDATALOAD SWAP1 POP PUSH2 0x4BDD DUP2 PUSH2 0x4BB7 JUMP JUMPDEST SWAP3 SWAP2 POP POP JUMP JUMPDEST PUSH1 0x0 PUSH1 0x20 DUP3 DUP5 SUB SLT ISZERO PUSH2 0x4BF9 JUMPI PUSH2 0x4BF8 PUSH2 0x39A1 JUMP JUMPDEST JUMPDEST PUSH1 0x0 PUSH2 0x4C07 DUP5 DUP3 DUP6 ADD PUSH2 0x4BCE JUMP JUMPDEST SWAP2 POP POP SWAP3 SWAP2 POP POP JUMP JUMPDEST PUSH32 0x4141393620696E76616C69642061676772656761746F72000000000000000000 PUSH1 0x0 DUP3 ADD MSTORE POP JUMP JUMPDEST PUSH1 0x0 PUSH2 0x4C46 PUSH1 0x17 DUP4 PUSH2 0x4502 JUMP JUMPDEST SWAP2 POP PUSH2 0x4C51 DUP3 PUSH2 0x4C10 JUMP JUMPDEST PUSH1 0x20 DUP3 ADD SWAP1 POP SWAP2 SWAP1 POP JUMP JUMPDEST PUSH1 0x0 PUSH1 0x20 DUP3 ADD SWAP1 POP DUP2 DUP2 SUB PUSH1 0x0 DUP4 ADD MSTORE PUSH2 0x4C75 DUP2 PUSH2 0x4C39 JUMP JUMPDEST SWAP1 POP SWAP2 SWAP1 POP JUMP JUMPDEST PUSH1 0x0 DUP1 DUP4 CALLDATALOAD PUSH1 0x1 PUSH1 0x20 SUB DUP5 CALLDATASIZE SUB SUB DUP2 SLT PUSH2 0x4C99 JUMPI PUSH2 0x4C98 PUSH2 0x4912 JUMP JUMPDEST JUMPDEST DUP1 DUP5 ADD SWAP3 POP DUP3 CALLDATALOAD SWAP2 POP PUSH8 0xFFFFFFFFFFFFFFFF DUP3 GT ISZERO PUSH2 0x4CBB JUMPI PUSH2 0x4CBA PUSH2 0x4917 JUMP JUMPDEST JUMPDEST PUSH1 0x20 DUP4 ADD SWAP3 POP PUSH1 0x1 DUP3 MUL CALLDATASIZE SUB DUP4 SGT ISZERO PUSH2 0x4CD7 JUMPI PUSH2 0x4CD6 PUSH2 0x491C JUMP JUMPDEST JUMPDEST POP SWAP3 POP SWAP3 SWAP1 POP JUMP JUMPDEST PUSH1 0x0 DUP3 DUP3 MSTORE PUSH1 0x20 DUP3 ADD SWAP1 POP SWAP3 SWAP2 POP POP JUMP JUMPDEST PUSH1 0x0 DUP2 SWAP1 POP SWAP2 SWAP1 POP JUMP JUMPDEST PUSH1 0x0 PUSH2 0x4D09 PUSH1 0x20 DUP5 ADD DUP5 PUSH2 0x3B95 JUMP JUMPDEST SWAP1 POP SWAP3 SWAP2 POP POP JUMP JUMPDEST PUSH2 0x4D1A DUP2 PUSH2 0x3B6C JUMP JUMPDEST DUP3 MSTORE POP POP JUMP JUMPDEST PUSH1 0x0 PUSH2 0x4D2F PUSH1 0x20 DUP5 ADD DUP5 PUSH2 0x3D80 JUMP JUMPDEST SWAP1 POP SWAP3 SWAP2 POP POP JUMP JUMPDEST PUSH2 0x4D40 DUP2 PUSH2 0x3BEA JUMP JUMPDEST DUP3 MSTORE POP POP JUMP JUMPDEST PUSH1 0x0 DUP1 REVERT JUMPDEST PUSH1 0x0 DUP1 REVERT JUMPDEST PUSH1 0x0 DUP1 REVERT JUMPDEST PUSH1 0x0 DUP1 DUP4 CALLDATALOAD PUSH1 0x1 PUSH1 0x20 SUB DUP5 CALLDATASIZE SUB SUB DUP2 SLT PUSH2 0x4D72 JUMPI PUSH2 0x4D71 PUSH2 0x4D50 JUMP JUMPDEST JUMPDEST DUP4 DUP2 ADD SWAP3 POP DUP3 CALLDATALOAD SWAP2 POP PUSH1 0x20 DUP4 ADD SWAP3 POP PUSH8 0xFFFFFFFFFFFFFFFF DUP3 GT ISZERO PUSH2 0x4D9A JUMPI PUSH2 0x4D99 PUSH2 0x4D46 JUMP JUMPDEST JUMPDEST PUSH1 0x1 DUP3 MUL CALLDATASIZE SUB DUP4 SGT ISZERO PUSH2 0x4DB0 JUMPI PUSH2 0x4DAF PUSH2 0x4D4B JUMP JUMPDEST JUMPDEST POP SWAP3 POP SWAP3 SWAP1 POP JUMP JUMPDEST PUSH1 0x0 DUP3 DUP3 MSTORE PUSH1 0x20 DUP3 ADD SWAP1 POP SWAP3 SWAP2 POP POP JUMP JUMPDEST PUSH1 0x0 PUSH2 0x4DD5 DUP4 DUP6 PUSH2 0x4DB8 JUMP JUMPDEST SWAP4 POP PUSH2 0x4DE2 DUP4 DUP6 DUP5 PUSH2 0x3CE5 JUMP JUMPDEST PUSH2 0x4DEB DUP4 PUSH2 0x3C28 JUMP JUMPDEST DUP5 ADD SWAP1 POP SWAP4 SWAP3 POP POP POP JUMP JUMPDEST PUSH1 0x0 PUSH2 0x160 DUP4 ADD PUSH2 0x4E0A PUSH1 0x0 DUP5 ADD DUP5 PUSH2 0x4CFA JUMP JUMPDEST PUSH2 0x4E17 PUSH1 0x0 DUP7 ADD DUP3 PUSH2 0x4D11 JUMP JUMPDEST POP PUSH2 0x4E25 PUSH1 0x20 DUP5 ADD DUP5 PUSH2 0x4D20 JUMP JUMPDEST PUSH2 0x4E32 PUSH1 0x20 DUP7 ADD DUP3 PUSH2 0x4D37 JUMP JUMPDEST POP PUSH2 0x4E40 PUSH1 0x40 DUP5 ADD DUP5 PUSH2 0x4D55 JUMP JUMPDEST DUP6 DUP4 SUB PUSH1 0x40 DUP8 ADD MSTORE PUSH2 0x4E53 DUP4 DUP3 DUP5 PUSH2 0x4DC9 JUMP JUMPDEST SWAP3 POP POP POP PUSH2 0x4E64 PUSH1 0x60 DUP5 ADD DUP5 PUSH2 0x4D55 JUMP JUMPDEST DUP6 DUP4 SUB PUSH1 0x60 DUP8 ADD MSTORE PUSH2 0x4E77 DUP4 DUP3 DUP5 PUSH2 0x4DC9 JUMP JUMPDEST SWAP3 POP POP POP PUSH2 0x4E88 PUSH1 0x80 DUP5 ADD DUP5 PUSH2 0x4D20 JUMP JUMPDEST PUSH2 0x4E95 PUSH1 0x80 DUP7 ADD DUP3 PUSH2 0x4D37 JUMP JUMPDEST POP PUSH2 0x4EA3 PUSH1 0xA0 DUP5 ADD DUP5 PUSH2 0x4D20 JUMP JUMPDEST PUSH2 0x4EB0 PUSH1 0xA0 DUP7 ADD DUP3 PUSH2 0x4D37 JUMP JUMPDEST POP PUSH2 0x4EBE PUSH1 0xC0 DUP5 ADD DUP5 PUSH2 0x4D20 JUMP JUMPDEST PUSH2 0x4ECB PUSH1 0xC0 DUP7 ADD DUP3 PUSH2 0x4D37 JUMP JUMPDEST POP PUSH2 0x4ED9 PUSH1 0xE0 DUP5 ADD DUP5 PUSH2 0x4D20 JUMP JUMPDEST PUSH2 0x4EE6 PUSH1 0xE0 DUP7 ADD DUP3 PUSH2 0x4D37 JUMP JUMPDEST POP PUSH2 0x4EF5 PUSH2 0x100 DUP5 ADD DUP5 PUSH2 0x4D20 JUMP JUMPDEST PUSH2 0x4F03 PUSH2 0x100 DUP7 ADD DUP3 PUSH2 0x4D37 JUMP JUMPDEST POP PUSH2 0x4F12 PUSH2 0x120 DUP5 ADD DUP5 PUSH2 0x4D55 JUMP JUMPDEST DUP6 DUP4 SUB PUSH2 0x120 DUP8 ADD MSTORE PUSH2 0x4F26 DUP4 DUP3 DUP5 PUSH2 0x4DC9 JUMP JUMPDEST SWAP3 POP POP POP PUSH2 0x4F38 PUSH2 0x140 DUP5 ADD DUP5 PUSH2 0x4D55 JUMP JUMPDEST DUP6 DUP4 SUB PUSH2 0x140 DUP8 ADD MSTORE PUSH2 0x4F4C DUP4 DUP3 DUP5 PUSH2 0x4DC9 JUMP JUMPDEST SWAP3 POP POP POP DUP1 SWAP2 POP POP SWAP3 SWAP2 POP POP JUMP JUMPDEST PUSH1 0x0 PUSH2 0x4F66 DUP4 DUP4 PUSH2 0x4DF6 JUMP JUMPDEST SWAP1 POP SWAP3 SWAP2 POP POP JUMP JUMPDEST PUSH1 0x0 DUP3 CALLDATALOAD PUSH1 0x1 PUSH2 0x160 SUB DUP4 CALLDATASIZE SUB SUB DUP2 SLT PUSH2 0x4F8B JUMPI PUSH2 0x4F8A PUSH2 0x4D50 JUMP JUMPDEST JUMPDEST DUP3 DUP2 ADD SWAP2 POP POP SWAP3 SWAP2 POP POP JUMP JUMPDEST PUSH1 0x0 PUSH1 0x20 DUP3 ADD SWAP1 POP SWAP2 SWAP1 POP JUMP JUMPDEST PUSH1 0x0 PUSH2 0x4FB0 DUP4 DUP6 PUSH2 0x4CDF JUMP JUMPDEST SWAP4 POP DUP4 PUSH1 0x20 DUP5 MUL DUP6 ADD PUSH2 0x4FC2 DUP5 PUSH2 0x4CF0 JUMP JUMPDEST DUP1 PUSH1 0x0 JUMPDEST DUP8 DUP2 LT ISZERO PUSH2 0x5006 JUMPI DUP5 DUP5 SUB DUP10 MSTORE PUSH2 0x4FDD DUP3 DUP5 PUSH2 0x4F6E JUMP JUMPDEST PUSH2 0x4FE7 DUP6 DUP3 PUSH2 0x4F5A JUMP JUMPDEST SWAP5 POP PUSH2 0x4FF2 DUP4 PUSH2 0x4F97 JUMP JUMPDEST SWAP3 POP PUSH1 0x20 DUP11 ADD SWAP10 POP POP PUSH1 0x1 DUP2 ADD SWAP1 POP PUSH2 0x4FC6 JUMP JUMPDEST POP DUP3 SWAP8 POP DUP8 SWAP5 POP POP POP POP POP SWAP4 SWAP3 POP POP POP JUMP JUMPDEST PUSH1 0x0 PUSH2 0x5024 DUP4 DUP6 PUSH2 0x483F JUMP JUMPDEST SWAP4 POP PUSH2 0x5031 DUP4 DUP6 DUP5 PUSH2 0x3CE5 JUMP JUMPDEST PUSH2 0x503A DUP4 PUSH2 0x3C28 JUMP JUMPDEST DUP5 ADD SWAP1 POP SWAP4 SWAP3 POP POP POP JUMP JUMPDEST PUSH1 0x0 PUSH1 0x40 DUP3 ADD SWAP1 POP DUP2 DUP2 SUB PUSH1 0x0 DUP4 ADD MSTORE PUSH2 0x5060 DUP2 DUP7 DUP9 PUSH2 0x4FA4 JUMP JUMPDEST SWAP1 POP DUP2 DUP2 SUB PUSH1 0x20 DUP4 ADD MSTORE PUSH2 0x5075 DUP2 DUP5 DUP7 PUSH2 0x5018 JUMP JUMPDEST SWAP1 POP SWAP6 SWAP5 POP POP POP POP POP JUMP JUMPDEST PUSH2 0x5089 DUP2 PUSH2 0x3B6C JUMP JUMPDEST DUP3 MSTORE POP POP JUMP JUMPDEST PUSH1 0x0 PUSH1 0x20 DUP3 ADD SWAP1 POP PUSH2 0x50A4 PUSH1 0x0 DUP4 ADD DUP5 PUSH2 0x5080 JUMP JUMPDEST SWAP3 SWAP2 POP POP JUMP JUMPDEST PUSH1 0x0 PUSH1 0x20 DUP3 ADD SWAP1 POP DUP2 DUP2 SUB PUSH1 0x0 DUP4 ADD MSTORE PUSH2 0x50C5 DUP2 DUP5 DUP7 PUSH2 0x5018 JUMP JUMPDEST SWAP1 POP SWAP4 SWAP3 POP POP POP JUMP JUMPDEST PUSH1 0x0 DUP2 MLOAD SWAP1 POP PUSH2 0x50DD DUP2 PUSH2 0x3B7E JUMP JUMPDEST SWAP3 SWAP2 POP POP JUMP JUMPDEST PUSH1 0x0 PUSH1 0x20 DUP3 DUP5 SUB SLT ISZERO PUSH2 0x50F9 JUMPI PUSH2 0x50F8 PUSH2 0x39A1 JUMP JUMPDEST JUMPDEST PUSH1 0x0 PUSH2 0x5107 DUP5 DUP3 DUP6 ADD PUSH2 0x50CE JUMP JUMPDEST SWAP2 POP POP SWAP3 SWAP2 POP POP JUMP JUMPDEST PUSH1 0x0 PUSH1 0x60 DUP3 ADD SWAP1 POP PUSH2 0x5125 PUSH1 0x0 DUP4 ADD DUP7 PUSH2 0x43D5 JUMP JUMPDEST PUSH2 0x5132 PUSH1 0x20 DUP4 ADD DUP6 PUSH2 0x5080 JUMP JUMPDEST PUSH2 0x513F PUSH1 0x40 DUP4 ADD DUP5 PUSH2 0x3BF4 JUMP JUMPDEST SWAP5 SWAP4 POP POP POP POP JUMP JUMPDEST PUSH32 0x6E6F74207374616B656400000000000000000000000000000000000000000000 PUSH1 0x0 DUP3 ADD MSTORE POP JUMP JUMPDEST PUSH1 0x0 PUSH2 0x517D PUSH1 0xA DUP4 PUSH2 0x4502 JUMP JUMPDEST SWAP2 POP PUSH2 0x5188 DUP3 PUSH2 0x5147 JUMP JUMPDEST PUSH1 0x20 DUP3 ADD SWAP1 POP SWAP2 SWAP1 POP JUMP JUMPDEST PUSH1 0x0 PUSH1 0x20 DUP3 ADD SWAP1 POP DUP2 DUP2 SUB PUSH1 0x0 DUP4 ADD MSTORE PUSH2 0x51AC DUP2 PUSH2 0x5170 JUMP JUMPDEST SWAP1 POP SWAP2 SWAP1 POP JUMP JUMPDEST PUSH32 0x616C726561647920756E7374616B696E67000000000000000000000000000000 PUSH1 0x0 DUP3 ADD MSTORE POP JUMP JUMPDEST PUSH1 0x0 PUSH2 0x51E9 PUSH1 0x11 DUP4 PUSH2 0x4502 JUMP JUMPDEST SWAP2 POP PUSH2 0x51F4 DUP3 PUSH2 0x51B3 JUMP JUMPDEST PUSH1 0x20 DUP3 ADD SWAP1 POP SWAP2 SWAP1 POP JUMP JUMPDEST PUSH1 0x0 PUSH1 0x20 DUP3 ADD SWAP1 POP DUP2 DUP2 SUB PUSH1 0x0 DUP4 ADD MSTORE PUSH2 0x5218 DUP2 PUSH2 0x51DC JUMP JUMPDEST SWAP1 POP SWAP2 SWAP1 POP JUMP JUMPDEST PUSH1 0x0 PUSH2 0x522A DUP3 PUSH2 0x4276 JUMP JUMPDEST SWAP2 POP PUSH2 0x5235 DUP4 PUSH2 0x4276 JUMP JUMPDEST SWAP3 POP DUP3 DUP3 ADD SWAP1 POP PUSH6 0xFFFFFFFFFFFF DUP2 GT ISZERO PUSH2 0x5253 JUMPI PUSH2 0x5252 PUSH2 0x45EB JUMP JUMPDEST JUMPDEST SWAP3 SWAP2 POP POP JUMP JUMPDEST PUSH1 0x0 PUSH2 0x5274 PUSH2 0x526F PUSH2 0x526A DUP5 PUSH2 0x4276 JUMP JUMPDEST PUSH2 0x44AC JUMP JUMPDEST PUSH2 0x3BEA JUMP JUMPDEST SWAP1 POP SWAP2 SWAP1 POP JUMP JUMPDEST PUSH2 0x5284 DUP2 PUSH2 0x5259 JUMP JUMPDEST DUP3 MSTORE POP POP JUMP JUMPDEST PUSH1 0x0 PUSH1 0x20 DUP3 ADD SWAP1 POP PUSH2 0x529F PUSH1 0x0 DUP4 ADD DUP5 PUSH2 0x527B JUMP JUMPDEST SWAP3 SWAP2 POP POP JUMP JUMPDEST PUSH32 0x4E6F207374616B6520746F207769746864726177000000000000000000000000 PUSH1 0x0 DUP3 ADD MSTORE POP JUMP JUMPDEST PUSH1 0x0 PUSH2 0x52DB PUSH1 0x14 DUP4 PUSH2 0x4502 JUMP JUMPDEST SWAP2 POP PUSH2 0x52E6 DUP3 PUSH2 0x52A5 JUMP JUMPDEST PUSH1 0x20 DUP3 ADD SWAP1 POP SWAP2 SWAP1 POP JUMP JUMPDEST PUSH1 0x0 PUSH1 0x20 DUP3 ADD SWAP1 POP DUP2 DUP2 SUB PUSH1 0x0 DUP4 ADD MSTORE PUSH2 0x530A DUP2 PUSH2 0x52CE JUMP JUMPDEST SWAP1 POP SWAP2 SWAP1 POP JUMP JUMPDEST PUSH32 0x6D7573742063616C6C20756E6C6F636B5374616B652829206669727374000000 PUSH1 0x0 DUP3 ADD MSTORE POP JUMP JUMPDEST PUSH1 0x0 PUSH2 0x5347 PUSH1 0x1D DUP4 PUSH2 0x4502 JUMP JUMPDEST SWAP2 POP PUSH2 0x5352 DUP3 PUSH2 0x5311 JUMP JUMPDEST PUSH1 0x20 DUP3 ADD SWAP1 POP SWAP2 SWAP1 POP JUMP JUMPDEST PUSH1 0x0 PUSH1 0x20 DUP3 ADD SWAP1 POP DUP2 DUP2 SUB PUSH1 0x0 DUP4 ADD MSTORE PUSH2 0x5376 DUP2 PUSH2 0x533A JUMP JUMPDEST SWAP1 POP SWAP2 SWAP1 POP JUMP JUMPDEST PUSH32 0x5374616B65207769746864726177616C206973206E6F74206475650000000000 PUSH1 0x0 DUP3 ADD MSTORE POP JUMP JUMPDEST PUSH1 0x0 PUSH2 0x53B3 PUSH1 0x1B DUP4 PUSH2 0x4502 JUMP JUMPDEST SWAP2 POP PUSH2 0x53BE DUP3 PUSH2 0x537D JUMP JUMPDEST PUSH1 0x20 DUP3 ADD SWAP1 POP SWAP2 SWAP1 POP JUMP JUMPDEST PUSH1 0x0 PUSH1 0x20 DUP3 ADD SWAP1 POP DUP2 DUP2 SUB PUSH1 0x0 DUP4 ADD MSTORE PUSH2 0x53E2 DUP2 PUSH2 0x53A6 JUMP JUMPDEST SWAP1 POP SWAP2 SWAP1 POP JUMP JUMPDEST PUSH32 0x6661696C656420746F207769746864726177207374616B650000000000000000 PUSH1 0x0 DUP3 ADD MSTORE POP JUMP JUMPDEST PUSH1 0x0 PUSH2 0x541F PUSH1 0x18 DUP4 PUSH2 0x4502 JUMP JUMPDEST SWAP2 POP PUSH2 0x542A DUP3 PUSH2 0x53E9 JUMP JUMPDEST PUSH1 0x20 DUP3 ADD SWAP1 POP SWAP2 SWAP1 POP JUMP JUMPDEST PUSH1 0x0 PUSH1 0x20 DUP3 ADD SWAP1 POP DUP2 DUP2 SUB PUSH1 0x0 DUP4 ADD MSTORE PUSH2 0x544E DUP2 PUSH2 0x5412 JUMP JUMPDEST SWAP1 POP SWAP2 SWAP1 POP JUMP JUMPDEST PUSH32 0x6465706F736974206F766572666C6F7700000000000000000000000000000000 PUSH1 0x0 DUP3 ADD MSTORE POP JUMP JUMPDEST PUSH1 0x0 PUSH2 0x548B PUSH1 0x10 DUP4 PUSH2 0x4502 JUMP JUMPDEST SWAP2 POP PUSH2 0x5496 DUP3 PUSH2 0x5455 JUMP JUMPDEST PUSH1 0x20 DUP3 ADD SWAP1 POP SWAP2 SWAP1 POP JUMP JUMPDEST PUSH1 0x0 PUSH1 0x20 DUP3 ADD SWAP1 POP DUP2 DUP2 SUB PUSH1 0x0 DUP4 ADD MSTORE PUSH2 0x54BA DUP2 PUSH2 0x547E JUMP JUMPDEST SWAP1 POP SWAP2 SWAP1 POP JUMP JUMPDEST PUSH32 0x4E487B7100000000000000000000000000000000000000000000000000000000 PUSH1 0x0 MSTORE PUSH1 0x21 PUSH1 0x4 MSTORE PUSH1 0x24 PUSH1 0x0 REVERT JUMPDEST PUSH1 0x3 DUP2 LT PUSH2 0x5501 JUMPI PUSH2 0x5500 PUSH2 0x54C1 JUMP JUMPDEST JUMPDEST POP JUMP JUMPDEST PUSH1 0x0 DUP2 SWAP1 POP PUSH2 0x5512 DUP3 PUSH2 0x54F0 JUMP JUMPDEST SWAP2 SWAP1 POP JUMP JUMPDEST PUSH1 0x0 PUSH2 0x5522 DUP3 PUSH2 0x5504 JUMP JUMPDEST SWAP1 POP SWAP2 SWAP1 POP JUMP JUMPDEST PUSH2 0x5532 DUP2 PUSH2 0x5517 JUMP JUMPDEST DUP3 MSTORE POP POP JUMP JUMPDEST PUSH1 0x0 PUSH1 0x60 DUP3 ADD SWAP1 POP PUSH2 0x554D PUSH1 0x0 DUP4 ADD DUP7 PUSH2 0x5529 JUMP JUMPDEST DUP2 DUP2 SUB PUSH1 0x20 DUP4 ADD MSTORE PUSH2 0x555F DUP2 DUP6 PUSH2 0x487A JUMP JUMPDEST SWAP1 POP PUSH2 0x556E PUSH1 0x40 DUP4 ADD DUP5 PUSH2 0x3BF4 JUMP JUMPDEST SWAP5 SWAP4 POP POP POP POP JUMP JUMPDEST PUSH1 0x0 PUSH1 0x20 DUP3 ADD SWAP1 POP DUP2 DUP2 SUB PUSH1 0x0 DUP4 ADD MSTORE PUSH2 0x5590 DUP2 DUP5 PUSH2 0x487A JUMP JUMPDEST SWAP1 POP SWAP3 SWAP2 POP POP JUMP JUMPDEST PUSH32 0x4E487B7100000000000000000000000000000000000000000000000000000000 PUSH1 0x0 MSTORE PUSH1 0x12 PUSH1 0x4 MSTORE PUSH1 0x24 PUSH1 0x0 REVERT JUMPDEST PUSH32 0x414135312070726566756E642062656C6F772061637475616C476173436F7374 PUSH1 0x0 DUP3 ADD MSTORE POP JUMP JUMPDEST PUSH1 0x0 PUSH2 0x55FD PUSH1 0x20 DUP4 PUSH2 0x4502 JUMP JUMPDEST SWAP2 POP PUSH2 0x5608 DUP3 PUSH2 0x55C7 JUMP JUMPDEST PUSH1 0x20 DUP3 ADD SWAP1 POP SWAP2 SWAP1 POP JUMP JUMPDEST PUSH1 0x0 PUSH1 0x40 DUP3 ADD SWAP1 POP PUSH2 0x5628 PUSH1 0x0 DUP4 ADD DUP5 PUSH2 0x3BF4 JUMP JUMPDEST DUP2 DUP2 SUB PUSH1 0x20 DUP4 ADD MSTORE PUSH2 0x5639 DUP2 PUSH2 0x55F0 JUMP JUMPDEST SWAP1 POP SWAP3 SWAP2 POP POP JUMP JUMPDEST PUSH1 0x0 PUSH1 0x80 DUP3 ADD SWAP1 POP PUSH2 0x5656 PUSH1 0x0 DUP4 ADD DUP8 PUSH2 0x3BF4 JUMP JUMPDEST PUSH2 0x5663 PUSH1 0x20 DUP4 ADD DUP7 PUSH2 0x3A3C JUMP JUMPDEST PUSH2 0x5670 PUSH1 0x40 DUP4 ADD DUP6 PUSH2 0x3BF4 JUMP JUMPDEST PUSH2 0x567D PUSH1 0x60 DUP4 ADD DUP5 PUSH2 0x3BF4 JUMP JUMPDEST SWAP6 SWAP5 POP POP POP POP POP JUMP JUMPDEST PUSH32 0x41413934206761732076616C756573206F766572666C6F770000000000000000 PUSH1 0x0 DUP3 ADD MSTORE POP JUMP JUMPDEST PUSH1 0x0 PUSH2 0x56BC PUSH1 0x18 DUP4 PUSH2 0x4502 JUMP JUMPDEST SWAP2 POP PUSH2 0x56C7 DUP3 PUSH2 0x5686 JUMP JUMPDEST PUSH1 0x20 DUP3 ADD SWAP1 POP SWAP2 SWAP1 POP JUMP JUMPDEST PUSH1 0x0 PUSH1 0x20 DUP3 ADD SWAP1 POP DUP2 DUP2 SUB PUSH1 0x0 DUP4 ADD MSTORE PUSH2 0x56EB DUP2 PUSH2 0x56AF JUMP JUMPDEST SWAP1 POP SWAP2 SWAP1 POP JUMP JUMPDEST PUSH32 0x4141323520696E76616C6964206163636F756E74206E6F6E6365000000000000 PUSH1 0x0 DUP3 ADD MSTORE POP JUMP JUMPDEST PUSH1 0x0 PUSH2 0x5728 PUSH1 0x1A DUP4 PUSH2 0x4502 JUMP JUMPDEST SWAP2 POP PUSH2 0x5733 DUP3 PUSH2 0x56F2 JUMP JUMPDEST PUSH1 0x20 DUP3 ADD SWAP1 POP SWAP2 SWAP1 POP JUMP JUMPDEST PUSH1 0x0 PUSH1 0x40 DUP3 ADD SWAP1 POP PUSH2 0x5753 PUSH1 0x0 DUP4 ADD DUP5 PUSH2 0x3BF4 JUMP JUMPDEST DUP2 DUP2 SUB PUSH1 0x20 DUP4 ADD MSTORE PUSH2 0x5764 DUP2 PUSH2 0x571B JUMP JUMPDEST SWAP1 POP SWAP3 SWAP2 POP POP JUMP JUMPDEST PUSH32 0x41413430206F76657220766572696669636174696F6E4761734C696D69740000 PUSH1 0x0 DUP3 ADD MSTORE POP JUMP JUMPDEST PUSH1 0x0 PUSH2 0x57A2 PUSH1 0x1E DUP4 PUSH2 0x4502 JUMP JUMPDEST SWAP2 POP PUSH2 0x57AD DUP3 PUSH2 0x576C JUMP JUMPDEST PUSH1 0x20 DUP3 ADD SWAP1 POP SWAP2 SWAP1 POP JUMP JUMPDEST PUSH1 0x0 PUSH1 0x40 DUP3 ADD SWAP1 POP PUSH2 0x57CD PUSH1 0x0 DUP4 ADD DUP5 PUSH2 0x3BF4 JUMP JUMPDEST DUP2 DUP2 SUB PUSH1 0x20 DUP4 ADD MSTORE PUSH2 0x57DE DUP2 PUSH2 0x5795 JUMP JUMPDEST SWAP1 POP SWAP3 SWAP2 POP POP JUMP JUMPDEST PUSH32 0x41413234207369676E6174757265206572726F72000000000000000000000000 PUSH1 0x0 DUP3 ADD MSTORE POP JUMP JUMPDEST PUSH1 0x0 PUSH2 0x581C PUSH1 0x14 DUP4 PUSH2 0x4502 JUMP JUMPDEST SWAP2 POP PUSH2 0x5827 DUP3 PUSH2 0x57E6 JUMP JUMPDEST PUSH1 0x20 DUP3 ADD SWAP1 POP SWAP2 SWAP1 POP JUMP JUMPDEST PUSH1 0x0 PUSH1 0x40 DUP3 ADD SWAP1 POP PUSH2 0x5847 PUSH1 0x0 DUP4 ADD DUP5 PUSH2 0x3BF4 JUMP JUMPDEST DUP2 DUP2 SUB PUSH1 0x20 DUP4 ADD MSTORE PUSH2 0x5858 DUP2 PUSH2 0x580F JUMP JUMPDEST SWAP1 POP SWAP3 SWAP2 POP POP JUMP JUMPDEST PUSH32 0x414132322065787069726564206F72206E6F7420647565000000000000000000 PUSH1 0x0 DUP3 ADD MSTORE POP JUMP JUMPDEST PUSH1 0x0 PUSH2 0x5896 PUSH1 0x17 DUP4 PUSH2 0x4502 JUMP JUMPDEST SWAP2 POP PUSH2 0x58A1 DUP3 PUSH2 0x5860 JUMP JUMPDEST PUSH1 0x20 DUP3 ADD SWAP1 POP SWAP2 SWAP1 POP JUMP JUMPDEST PUSH1 0x0 PUSH1 0x40 DUP3 ADD SWAP1 POP PUSH2 0x58C1 PUSH1 0x0 DUP4 ADD DUP5 PUSH2 0x3BF4 JUMP JUMPDEST DUP2 DUP2 SUB PUSH1 0x20 DUP4 ADD MSTORE PUSH2 0x58D2 DUP2 PUSH2 0x5889 JUMP JUMPDEST SWAP1 POP SWAP3 SWAP2 POP POP JUMP JUMPDEST PUSH32 0x41413334207369676E6174757265206572726F72000000000000000000000000 PUSH1 0x0 DUP3 ADD MSTORE POP JUMP JUMPDEST PUSH1 0x0 PUSH2 0x5910 PUSH1 0x14 DUP4 PUSH2 0x4502 JUMP JUMPDEST SWAP2 POP PUSH2 0x591B DUP3 PUSH2 0x58DA JUMP JUMPDEST PUSH1 0x20 DUP3 ADD SWAP1 POP SWAP2 SWAP1 POP JUMP JUMPDEST PUSH1 0x0 PUSH1 0x40 DUP3 ADD SWAP1 POP PUSH2 0x593B PUSH1 0x0 DUP4 ADD DUP5 PUSH2 0x3BF4 JUMP JUMPDEST DUP2 DUP2 SUB PUSH1 0x20 DUP4 ADD MSTORE PUSH2 0x594C DUP2 PUSH2 0x5903 JUMP JUMPDEST SWAP1 POP SWAP3 SWAP2 POP POP JUMP JUMPDEST PUSH32 0x41413332207061796D61737465722065787069726564206F72206E6F74206475 PUSH1 0x0 DUP3 ADD MSTORE PUSH32 0x6500000000000000000000000000000000000000000000000000000000000000 PUSH1 0x20 DUP3 ADD MSTORE POP JUMP JUMPDEST PUSH1 0x0 PUSH2 0x59B0 PUSH1 0x21 DUP4 PUSH2 0x4502 JUMP JUMPDEST SWAP2 POP PUSH2 0x59BB DUP3 PUSH2 0x5954 JUMP JUMPDEST PUSH1 0x40 DUP3 ADD SWAP1 POP SWAP2 SWAP1 POP JUMP JUMPDEST PUSH1 0x0 PUSH1 0x40 DUP3 ADD SWAP1 POP PUSH2 0x59DB PUSH1 0x0 DUP4 ADD DUP5 PUSH2 0x3BF4 JUMP JUMPDEST DUP2 DUP2 SUB PUSH1 0x20 DUP4 ADD MSTORE PUSH2 0x59EC DUP2 PUSH2 0x59A3 JUMP JUMPDEST SWAP1 POP SWAP3 SWAP2 POP POP JUMP JUMPDEST PUSH2 0x100 DUP3 ADD PUSH1 0x0 DUP3 ADD MLOAD PUSH2 0x5A0B PUSH1 0x0 DUP6 ADD DUP3 PUSH2 0x4D11 JUMP JUMPDEST POP PUSH1 0x20 DUP3 ADD MLOAD PUSH2 0x5A1E PUSH1 0x20 DUP6 ADD DUP3 PUSH2 0x4D37 JUMP JUMPDEST POP PUSH1 0x40 DUP3 ADD MLOAD PUSH2 0x5A31 PUSH1 0x40 DUP6 ADD DUP3 PUSH2 0x4D37 JUMP JUMPDEST POP PUSH1 0x60 DUP3 ADD MLOAD PUSH2 0x5A44 PUSH1 0x60 DUP6 ADD DUP3 PUSH2 0x4D37 JUMP JUMPDEST POP PUSH1 0x80 DUP3 ADD MLOAD PUSH2 0x5A57 PUSH1 0x80 DUP6 ADD DUP3 PUSH2 0x4D37 JUMP JUMPDEST POP PUSH1 0xA0 DUP3 ADD MLOAD PUSH2 0x5A6A PUSH1 0xA0 DUP6 ADD DUP3 PUSH2 0x4D11 JUMP JUMPDEST POP PUSH1 0xC0 DUP3 ADD MLOAD PUSH2 0x5A7D PUSH1 0xC0 DUP6 ADD DUP3 PUSH2 0x4D37 JUMP JUMPDEST POP PUSH1 0xE0 DUP3 ADD MLOAD PUSH2 0x5A90 PUSH1 0xE0 DUP6 ADD DUP3 PUSH2 0x4D37 JUMP JUMPDEST POP POP POP POP JUMP JUMPDEST PUSH2 0x5A9F DUP2 PUSH2 0x3E5F JUMP JUMPDEST DUP3 MSTORE POP POP JUMP JUMPDEST PUSH2 0x180 DUP3 ADD PUSH1 0x0 DUP3 ADD MLOAD PUSH2 0x5ABC PUSH1 0x0 DUP6 ADD DUP3 PUSH2 0x59F4 JUMP JUMPDEST POP PUSH1 0x20 DUP3 ADD MLOAD PUSH2 0x5AD0 PUSH2 0x100 DUP6 ADD DUP3 PUSH2 0x5A96 JUMP JUMPDEST POP PUSH1 0x40 DUP3 ADD MLOAD PUSH2 0x5AE4 PUSH2 0x120 DUP6 ADD DUP3 PUSH2 0x4D37 JUMP JUMPDEST POP PUSH1 0x60 DUP3 ADD MLOAD PUSH2 0x5AF8 PUSH2 0x140 DUP6 ADD DUP3 PUSH2 0x4D37 JUMP JUMPDEST POP PUSH1 0x80 DUP3 ADD MLOAD PUSH2 0x5B0C PUSH2 0x160 DUP6 ADD DUP3 PUSH2 0x4D37 JUMP JUMPDEST POP POP POP POP JUMP JUMPDEST PUSH1 0x0 PUSH2 0x1C0 DUP3 ADD SWAP1 POP DUP2 DUP2 SUB PUSH1 0x0 DUP4 ADD MSTORE PUSH2 0x5B2E DUP2 DUP7 DUP9 PUSH2 0x5018 JUMP JUMPDEST SWAP1 POP PUSH2 0x5B3D PUSH1 0x20 DUP4 ADD DUP6 PUSH2 0x5AA5 JUMP JUMPDEST DUP2 DUP2 SUB PUSH2 0x1A0 DUP4 ADD MSTORE PUSH2 0x5B50 DUP2 DUP5 PUSH2 0x487A JUMP JUMPDEST SWAP1 POP SWAP6 SWAP5 POP POP POP POP POP JUMP JUMPDEST PUSH1 0x0 DUP2 MLOAD SWAP1 POP PUSH2 0x5B6A DUP2 PUSH2 0x3D69 JUMP JUMPDEST SWAP3 SWAP2 POP POP JUMP JUMPDEST PUSH1 0x0 PUSH1 0x20 DUP3 DUP5 SUB SLT ISZERO PUSH2 0x5B86 JUMPI PUSH2 0x5B85 PUSH2 0x39A1 JUMP JUMPDEST JUMPDEST PUSH1 0x0 PUSH2 0x5B94 DUP5 DUP3 DUP6 ADD PUSH2 0x5B5B JUMP JUMPDEST SWAP2 POP POP SWAP3 SWAP2 POP POP JUMP JUMPDEST PUSH32 0x41413935206F7574206F66206761730000000000000000000000000000000000 PUSH1 0x0 DUP3 ADD MSTORE POP JUMP JUMPDEST PUSH1 0x0 PUSH2 0x5BD3 PUSH1 0xF DUP4 PUSH2 0x4502 JUMP JUMPDEST SWAP2 POP PUSH2 0x5BDE DUP3 PUSH2 0x5B9D JUMP JUMPDEST PUSH1 0x20 DUP3 ADD SWAP1 POP SWAP2 SWAP1 POP JUMP JUMPDEST PUSH1 0x0 PUSH1 0x40 DUP3 ADD SWAP1 POP PUSH2 0x5BFE PUSH1 0x0 DUP4 ADD DUP5 PUSH2 0x3BF4 JUMP JUMPDEST DUP2 DUP2 SUB PUSH1 0x20 DUP4 ADD MSTORE PUSH2 0x5C0F DUP2 PUSH2 0x5BC6 JUMP JUMPDEST SWAP1 POP SWAP3 SWAP2 POP POP JUMP JUMPDEST PUSH32 0x4141393020696E76616C69642062656E65666963696172790000000000000000 PUSH1 0x0 DUP3 ADD MSTORE POP JUMP JUMPDEST PUSH1 0x0 PUSH2 0x5C4D PUSH1 0x18 DUP4 PUSH2 0x4502 JUMP JUMPDEST SWAP2 POP PUSH2 0x5C58 DUP3 PUSH2 0x5C17 JUMP JUMPDEST PUSH1 0x20 DUP3 ADD SWAP1 POP SWAP2 SWAP1 POP JUMP JUMPDEST PUSH1 0x0 PUSH1 0x20 DUP3 ADD SWAP1 POP DUP2 DUP2 SUB PUSH1 0x0 DUP4 ADD MSTORE PUSH2 0x5C7C DUP2 PUSH2 0x5C40 JUMP JUMPDEST SWAP1 POP SWAP2 SWAP1 POP JUMP JUMPDEST PUSH32 0x41413931206661696C65642073656E6420746F2062656E656669636961727900 PUSH1 0x0 DUP3 ADD MSTORE POP JUMP JUMPDEST PUSH1 0x0 PUSH2 0x5CB9 PUSH1 0x1F DUP4 PUSH2 0x4502 JUMP JUMPDEST SWAP2 POP PUSH2 0x5CC4 DUP3 PUSH2 0x5C83 JUMP JUMPDEST PUSH1 0x20 DUP3 ADD SWAP1 POP SWAP2 SWAP1 POP JUMP JUMPDEST PUSH1 0x0 PUSH1 0x20 DUP3 ADD SWAP1 POP DUP2 DUP2 SUB PUSH1 0x0 DUP4 ADD MSTORE PUSH2 0x5CE8 DUP2 PUSH2 0x5CAC JUMP JUMPDEST SWAP1 POP SWAP2 SWAP1 POP JUMP JUMPDEST PUSH32 0x4141393320696E76616C6964207061796D6173746572416E6444617461000000 PUSH1 0x0 DUP3 ADD MSTORE POP JUMP JUMPDEST PUSH1 0x0 PUSH2 0x5D25 PUSH1 0x1D DUP4 PUSH2 0x4502 JUMP JUMPDEST SWAP2 POP PUSH2 0x5D30 DUP3 PUSH2 0x5CEF JUMP JUMPDEST PUSH1 0x20 DUP3 ADD SWAP1 POP SWAP2 SWAP1 POP JUMP JUMPDEST PUSH1 0x0 PUSH1 0x20 DUP3 ADD SWAP1 POP DUP2 DUP2 SUB PUSH1 0x0 DUP4 ADD MSTORE PUSH2 0x5D54 DUP2 PUSH2 0x5D18 JUMP JUMPDEST SWAP1 POP SWAP2 SWAP1 POP JUMP JUMPDEST PUSH1 0x0 DUP1 REVERT JUMPDEST PUSH1 0x0 DUP1 REVERT JUMPDEST PUSH1 0x0 DUP1 DUP6 DUP6 GT ISZERO PUSH2 0x5D79 JUMPI PUSH2 0x5D78 PUSH2 0x5D5B JUMP JUMPDEST JUMPDEST DUP4 DUP7 GT ISZERO PUSH2 0x5D8A JUMPI PUSH2 0x5D89 PUSH2 0x5D60 JUMP JUMPDEST JUMPDEST PUSH1 0x1 DUP6 MUL DUP4 ADD SWAP2 POP DUP5 DUP7 SUB SWAP1 POP SWAP5 POP SWAP5 SWAP3 POP POP POP JUMP JUMPDEST PUSH1 0x0 DUP3 SWAP1 POP SWAP3 SWAP2 POP POP JUMP JUMPDEST PUSH1 0x0 PUSH32 0xFFFFFFFFFFFFFFFFFFFFFFFFFFFFFFFFFFFFFFFF000000000000000000000000 DUP3 AND SWAP1 POP SWAP2 SWAP1 POP JUMP JUMPDEST PUSH1 0x0 DUP3 DUP3 SHL SWAP1 POP SWAP3 SWAP2 POP POP JUMP JUMPDEST PUSH1 0x0 PUSH2 0x5DF0 DUP4 DUP4 PUSH2 0x5DA0 JUMP JUMPDEST DUP3 PUSH2 0x5DFB DUP2 CALLDATALOAD PUSH2 0x5DAB JUMP JUMPDEST SWAP3 POP PUSH1 0x14 DUP3 LT ISZERO PUSH2 0x5E3B JUMPI PUSH2 0x5E36 PUSH32 0xFFFFFFFFFFFFFFFFFFFFFFFFFFFFFFFFFFFFFFFF000000000000000000000000 DUP4 PUSH1 0x14 SUB PUSH1 0x8 MUL PUSH2 0x5DD7 JUMP JUMPDEST DUP4 AND SWAP3 POP JUMPDEST POP POP SWAP3 SWAP2 POP POP JUMP JUMPDEST PUSH1 0x0 PUSH2 0x160 DUP4 ADD PUSH2 0x5E57 PUSH1 0x0 DUP5 ADD DUP5 PUSH2 0x4CFA JUMP JUMPDEST PUSH2 0x5E64 PUSH1 0x0 DUP7 ADD DUP3 PUSH2 0x4D11 JUMP JUMPDEST POP PUSH2 0x5E72 PUSH1 0x20 DUP5 ADD DUP5 PUSH2 0x4D20 JUMP JUMPDEST PUSH2 0x5E7F PUSH1 0x20 DUP7 ADD DUP3 PUSH2 0x4D37 JUMP JUMPDEST POP PUSH2 0x5E8D PUSH1 0x40 DUP5 ADD DUP5 PUSH2 0x4D55 JUMP JUMPDEST DUP6 DUP4 SUB PUSH1 0x40 DUP8 ADD MSTORE PUSH2 0x5EA0 DUP4 DUP3 DUP5 PUSH2 0x4DC9 JUMP JUMPDEST SWAP3 POP POP POP PUSH2 0x5EB1 PUSH1 0x60 DUP5 ADD DUP5 PUSH2 0x4D55 JUMP JUMPDEST DUP6 DUP4 SUB PUSH1 0x60 DUP8 ADD MSTORE PUSH2 0x5EC4 DUP4 DUP3 DUP5 PUSH2 0x4DC9 JUMP JUMPDEST SWAP3 POP POP POP PUSH2 0x5ED5 PUSH1 0x80 DUP5 ADD DUP5 PUSH2 0x4D20 JUMP JUMPDEST PUSH2 0x5EE2 PUSH1 0x80 DUP7 ADD DUP3 PUSH2 0x4D37 JUMP JUMPDEST POP PUSH2 0x5EF0 PUSH1 0xA0 DUP5 ADD DUP5 PUSH2 0x4D20 JUMP JUMPDEST PUSH2 0x5EFD PUSH1 0xA0 DUP7 ADD DUP3 PUSH2 0x4D37 JUMP JUMPDEST POP PUSH2 0x5F0B PUSH1 0xC0 DUP5 ADD DUP5 PUSH2 0x4D20 JUMP JUMPDEST PUSH2 0x5F18 PUSH1 0xC0 DUP7 ADD DUP3 PUSH2 0x4D37 JUMP JUMPDEST POP PUSH2 0x5F26 PUSH1 0xE0 DUP5 ADD DUP5 PUSH2 0x4D20 JUMP JUMPDEST PUSH2 0x5F33 PUSH1 0xE0 DUP7 ADD DUP3 PUSH2 0x4D37 JUMP JUMPDEST POP PUSH2 0x5F42 PUSH2 0x100 DUP5 ADD DUP5 PUSH2 0x4D20 JUMP JUMPDEST PUSH2 0x5F50 PUSH2 0x100 DUP7 ADD DUP3 PUSH2 0x4D37 JUMP JUMPDEST POP PUSH2 0x5F5F PUSH2 0x120 DUP5 ADD DUP5 PUSH2 0x4D55 JUMP JUMPDEST DUP6 DUP4 SUB PUSH2 0x120 DUP8 ADD MSTORE PUSH2 0x5F73 DUP4 DUP3 DUP5 PUSH2 0x4DC9 JUMP JUMPDEST SWAP3 POP POP POP PUSH2 0x5F85 PUSH2 0x140 DUP5 ADD DUP5 PUSH2 0x4D55 JUMP JUMPDEST DUP6 DUP4 SUB PUSH2 0x140 DUP8 ADD MSTORE PUSH2 0x5F99 DUP4 DUP3 DUP5 PUSH2 0x4DC9 JUMP JUMPDEST SWAP3 POP POP POP DUP1 SWAP2 POP POP SWAP3 SWAP2 POP POP JUMP JUMPDEST PUSH1 0x0 PUSH1 0x60 DUP3 ADD SWAP1 POP DUP2 DUP2 SUB PUSH1 0x0 DUP4 ADD MSTORE PUSH2 0x5FC1 DUP2 DUP7 PUSH2 0x5E43 JUMP JUMPDEST SWAP1 POP PUSH2 0x5FD0 PUSH1 0x20 DUP4 ADD DUP6 PUSH2 0x43D5 JUMP JUMPDEST PUSH2 0x5FDD PUSH1 0x40 DUP4 ADD DUP5 PUSH2 0x3BF4 JUMP JUMPDEST SWAP5 SWAP4 POP POP POP POP JUMP JUMPDEST PUSH1 0x0 DUP2 PUSH1 0xE0 SHR SWAP1 POP SWAP2 SWAP1 POP JUMP JUMPDEST PUSH1 0x0 PUSH1 0x3 RETURNDATASIZE GT ISZERO PUSH2 0x6011 JUMPI PUSH1 0x4 PUSH1 0x0 DUP1 RETURNDATACOPY PUSH2 0x600E PUSH1 0x0 MLOAD PUSH2 0x5FE5 JUMP JUMPDEST SWAP1 POP JUMPDEST SWAP1 JUMP JUMPDEST PUSH1 0x0 PUSH1 0x44 RETURNDATASIZE LT PUSH2 0x60A1 JUMPI PUSH2 0x6026 PUSH2 0x3997 JUMP JUMPDEST PUSH1 0x4 RETURNDATASIZE SUB PUSH1 0x4 DUP3 RETURNDATACOPY DUP1 MLOAD RETURNDATASIZE PUSH1 0x24 DUP3 ADD GT PUSH8 0xFFFFFFFFFFFFFFFF DUP3 GT OR ISZERO PUSH2 0x604E JUMPI POP POP PUSH2 0x60A1 JUMP JUMPDEST DUP1 DUP3 ADD DUP1 MLOAD PUSH8 0xFFFFFFFFFFFFFFFF DUP2 GT ISZERO PUSH2 0x606C JUMPI POP POP POP POP PUSH2 0x60A1 JUMP JUMPDEST DUP1 PUSH1 0x20 DUP4 ADD ADD PUSH1 0x4 RETURNDATASIZE SUB DUP6 ADD DUP2 GT ISZERO PUSH2 0x6089 JUMPI POP POP POP POP POP PUSH2 0x60A1 JUMP JUMPDEST PUSH2 0x6098 DUP3 PUSH1 0x20 ADD DUP6 ADD DUP7 PUSH2 0x3C68 JUMP JUMPDEST DUP3 SWAP6 POP POP POP POP POP POP JUMPDEST SWAP1 JUMP JUMPDEST PUSH32 0x414132332072657665727465643A200000000000000000000000000000000000 DUP2 MSTORE POP JUMP JUMPDEST PUSH1 0x0 DUP2 MLOAD SWAP1 POP SWAP2 SWAP1 POP JUMP JUMPDEST PUSH1 0x0 DUP2 SWAP1 POP SWAP3 SWAP2 POP POP JUMP JUMPDEST PUSH1 0x0 PUSH2 0x60EB DUP3 PUSH2 0x60CA JUMP JUMPDEST PUSH2 0x60F5 DUP2 DUP6 PUSH2 0x60D5 JUMP JUMPDEST SWAP4 POP PUSH2 0x6105 DUP2 DUP6 PUSH1 0x20 DUP7 ADD PUSH2 0x4850 JUMP JUMPDEST DUP1 DUP5 ADD SWAP2 POP POP SWAP3 SWAP2 POP POP JUMP JUMPDEST PUSH1 0x0 PUSH2 0x611C DUP3 PUSH2 0x60A4 JUMP JUMPDEST PUSH1 0xF DUP3 ADD SWAP2 POP PUSH2 0x612C DUP3 DUP5 PUSH2 0x60E0 JUMP JUMPDEST SWAP2 POP DUP2 SWAP1 POP SWAP3 SWAP2 POP POP JUMP JUMPDEST PUSH1 0x0 PUSH2 0x6142 DUP3 PUSH2 0x60CA JUMP JUMPDEST PUSH2 0x614C DUP2 DUP6 PUSH2 0x4502 JUMP JUMPDEST SWAP4 POP PUSH2 0x615C DUP2 DUP6 PUSH1 0x20 DUP7 ADD PUSH2 0x4850 JUMP JUMPDEST PUSH2 0x6165 DUP2 PUSH2 0x3C28 JUMP JUMPDEST DUP5 ADD SWAP2 POP POP SWAP3 SWAP2 POP POP JUMP JUMPDEST PUSH1 0x0 PUSH1 0x40 DUP3 ADD SWAP1 POP PUSH2 0x6185 PUSH1 0x0 DUP4 ADD DUP6 PUSH2 0x3BF4 JUMP JUMPDEST DUP2 DUP2 SUB PUSH1 0x20 DUP4 ADD MSTORE PUSH2 0x6197 DUP2 DUP5 PUSH2 0x6137 JUMP JUMPDEST SWAP1 POP SWAP4 SWAP3 POP POP POP JUMP JUMPDEST PUSH32 0x4141323320726576657274656420286F72204F4F472900000000000000000000 PUSH1 0x0 DUP3 ADD MSTORE POP JUMP JUMPDEST PUSH1 0x0 PUSH2 0x61D6 PUSH1 0x16 DUP4 PUSH2 0x4502 JUMP JUMPDEST SWAP2 POP PUSH2 0x61E1 DUP3 PUSH2 0x61A0 JUMP JUMPDEST PUSH1 0x20 DUP3 ADD SWAP1 POP SWAP2 SWAP1 POP JUMP JUMPDEST PUSH1 0x0 PUSH1 0x40 DUP3 ADD SWAP1 POP PUSH2 0x6201 PUSH1 0x0 DUP4 ADD DUP5 PUSH2 0x3BF4 JUMP JUMPDEST DUP2 DUP2 SUB PUSH1 0x20 DUP4 ADD MSTORE PUSH2 0x6212 DUP2 PUSH2 0x61C9 JUMP JUMPDEST SWAP1 POP SWAP3 SWAP2 POP POP JUMP JUMPDEST PUSH32 0x41413231206469646E2774207061792070726566756E64000000000000000000 PUSH1 0x0 DUP3 ADD MSTORE POP JUMP JUMPDEST PUSH1 0x0 PUSH2 0x6250 PUSH1 0x17 DUP4 PUSH2 0x4502 JUMP JUMPDEST SWAP2 POP PUSH2 0x625B DUP3 PUSH2 0x621A JUMP JUMPDEST PUSH1 0x20 DUP3 ADD SWAP1 POP SWAP2 SWAP1 POP JUMP JUMPDEST PUSH1 0x0 PUSH1 0x40 DUP3 ADD SWAP1 POP PUSH2 0x627B PUSH1 0x0 DUP4 ADD DUP5 PUSH2 0x3BF4 JUMP JUMPDEST DUP2 DUP2 SUB PUSH1 0x20 DUP4 ADD MSTORE PUSH2 0x628C DUP2 PUSH2 0x6243 JUMP JUMPDEST SWAP1 POP SWAP3 SWAP2 POP POP JUMP JUMPDEST PUSH32 0x4141343120746F6F206C6974746C6520766572696669636174696F6E47617300 PUSH1 0x0 DUP3 ADD MSTORE POP JUMP JUMPDEST PUSH1 0x0 PUSH2 0x62CA PUSH1 0x1F DUP4 PUSH2 0x4502 JUMP JUMPDEST SWAP2 POP PUSH2 0x62D5 DUP3 PUSH2 0x6294 JUMP JUMPDEST PUSH1 0x20 DUP3 ADD SWAP1 POP SWAP2 SWAP1 POP JUMP JUMPDEST PUSH1 0x0 PUSH1 0x20 DUP3 ADD SWAP1 POP DUP2 DUP2 SUB PUSH1 0x0 DUP4 ADD MSTORE PUSH2 0x62F9 DUP2 PUSH2 0x62BD JUMP JUMPDEST SWAP1 POP SWAP2 SWAP1 POP JUMP JUMPDEST PUSH32 0x41413331207061796D6173746572206465706F73697420746F6F206C6F770000 PUSH1 0x0 DUP3 ADD MSTORE POP JUMP JUMPDEST PUSH1 0x0 PUSH2 0x6336 PUSH1 0x1E DUP4 PUSH2 0x4502 JUMP JUMPDEST SWAP2 POP PUSH2 0x6341 DUP3 PUSH2 0x6300 JUMP JUMPDEST PUSH1 0x20 DUP3 ADD SWAP1 POP SWAP2 SWAP1 POP JUMP JUMPDEST PUSH1 0x0 PUSH1 0x40 DUP3 ADD SWAP1 POP PUSH2 0x6361 PUSH1 0x0 DUP4 ADD DUP5 PUSH2 0x3BF4 JUMP JUMPDEST DUP2 DUP2 SUB PUSH1 0x20 DUP4 ADD MSTORE PUSH2 0x6372 DUP2 PUSH2 0x6329 JUMP JUMPDEST SWAP1 POP SWAP3 SWAP2 POP POP JUMP JUMPDEST PUSH1 0x0 PUSH2 0x638D PUSH2 0x6388 DUP5 PUSH2 0x3CB4 JUMP JUMPDEST PUSH2 0x3C99 JUMP JUMPDEST SWAP1 POP DUP3 DUP2 MSTORE PUSH1 0x20 DUP2 ADD DUP5 DUP5 DUP5 ADD GT ISZERO PUSH2 0x63A9 JUMPI PUSH2 0x63A8 PUSH2 0x3C23 JUMP JUMPDEST JUMPDEST PUSH2 0x63B4 DUP5 DUP3 DUP6 PUSH2 0x4850 JUMP JUMPDEST POP SWAP4 SWAP3 POP POP POP JUMP JUMPDEST PUSH1 0x0 DUP3 PUSH1 0x1F DUP4 ADD SLT PUSH2 0x63D1 JUMPI PUSH2 0x63D0 PUSH2 0x3C1E JUMP JUMPDEST JUMPDEST DUP2 MLOAD PUSH2 0x63E1 DUP5 DUP3 PUSH1 0x20 DUP7 ADD PUSH2 0x637A JUMP JUMPDEST SWAP2 POP POP SWAP3 SWAP2 POP POP JUMP JUMPDEST PUSH1 0x0 DUP1 PUSH1 0x40 DUP4 DUP6 SUB SLT ISZERO PUSH2 0x6401 JUMPI PUSH2 0x6400 PUSH2 0x39A1 JUMP JUMPDEST JUMPDEST PUSH1 0x0 DUP4 ADD MLOAD PUSH8 0xFFFFFFFFFFFFFFFF DUP2 GT ISZERO PUSH2 0x641F JUMPI PUSH2 0x641E PUSH2 0x39A6 JUMP JUMPDEST JUMPDEST PUSH2 0x642B DUP6 DUP3 DUP7 ADD PUSH2 0x63BC JUMP JUMPDEST SWAP3 POP POP PUSH1 0x20 PUSH2 0x643C DUP6 DUP3 DUP7 ADD PUSH2 0x5B5B JUMP JUMPDEST SWAP2 POP POP SWAP3 POP SWAP3 SWAP1 POP JUMP JUMPDEST PUSH32 0x414133332072657665727465643A200000000000000000000000000000000000 DUP2 MSTORE POP JUMP JUMPDEST PUSH1 0x0 PUSH2 0x6477 DUP3 PUSH2 0x6446 JUMP JUMPDEST PUSH1 0xF DUP3 ADD SWAP2 POP PUSH2 0x6487 DUP3 DUP5 PUSH2 0x60E0 JUMP JUMPDEST SWAP2 POP DUP2 SWAP1 POP SWAP3 SWAP2 POP POP JUMP JUMPDEST PUSH32 0x4141333320726576657274656420286F72204F4F472900000000000000000000 PUSH1 0x0 DUP3 ADD MSTORE POP JUMP JUMPDEST PUSH1 0x0 PUSH2 0x64C8 PUSH1 0x16 DUP4 PUSH2 0x4502 JUMP JUMPDEST SWAP2 POP PUSH2 0x64D3 DUP3 PUSH2 0x6492 JUMP JUMPDEST PUSH1 0x20 DUP3 ADD SWAP1 POP SWAP2 SWAP1 POP JUMP JUMPDEST PUSH1 0x0 PUSH1 0x40 DUP3 ADD SWAP1 POP PUSH2 0x64F3 PUSH1 0x0 DUP4 ADD DUP5 PUSH2 0x3BF4 JUMP JUMPDEST DUP2 DUP2 SUB PUSH1 0x20 DUP4 ADD MSTORE PUSH2 0x6504 DUP2 PUSH2 0x64BB JUMP JUMPDEST SWAP1 POP SWAP3 SWAP2 POP POP JUMP JUMPDEST PUSH1 0x0 PUSH2 0x140 DUP3 ADD SWAP1 POP PUSH2 0x6522 PUSH1 0x0 DUP4 ADD DUP14 PUSH2 0x5080 JUMP JUMPDEST PUSH2 0x652F PUSH1 0x20 DUP4 ADD DUP13 PUSH2 0x3BF4 JUMP JUMPDEST PUSH2 0x653C PUSH1 0x40 DUP4 ADD DUP12 PUSH2 0x43D5 JUMP JUMPDEST PUSH2 0x6549 PUSH1 0x60 DUP4 ADD DUP11 PUSH2 0x43D5 JUMP JUMPDEST PUSH2 0x6556 PUSH1 0x80 DUP4 ADD DUP10 PUSH2 0x3BF4 JUMP JUMPDEST PUSH2 0x6563 PUSH1 0xA0 DUP4 ADD DUP9 PUSH2 0x3BF4 JUMP JUMPDEST PUSH2 0x6570 PUSH1 0xC0 DUP4 ADD DUP8 PUSH2 0x3BF4 JUMP JUMPDEST PUSH2 0x657D PUSH1 0xE0 DUP4 ADD DUP7 PUSH2 0x3BF4 JUMP JUMPDEST PUSH2 0x658B PUSH2 0x100 DUP4 ADD DUP6 PUSH2 0x3BF4 JUMP JUMPDEST PUSH2 0x6599 PUSH2 0x120 DUP4 ADD DUP5 PUSH2 0x43D5 JUMP JUMPDEST SWAP12 SWAP11 POP POP POP POP POP POP POP POP POP POP POP JUMP JUMPDEST PUSH32 0x414131302073656E64657220616C726561647920636F6E737472756374656400 PUSH1 0x0 DUP3 ADD MSTORE POP JUMP JUMPDEST PUSH1 0x0 PUSH2 0x65DE PUSH1 0x1F DUP4 PUSH2 0x4502 JUMP JUMPDEST SWAP2 POP PUSH2 0x65E9 DUP3 PUSH2 0x65A8 JUMP JUMPDEST PUSH1 0x20 DUP3 ADD SWAP1 POP SWAP2 SWAP1 POP JUMP JUMPDEST PUSH1 0x0 PUSH1 0x40 DUP3 ADD SWAP1 POP PUSH2 0x6609 PUSH1 0x0 DUP4 ADD DUP5 PUSH2 0x3BF4 JUMP JUMPDEST DUP2 DUP2 SUB PUSH1 0x20 DUP4 ADD MSTORE PUSH2 0x661A DUP2 PUSH2 0x65D1 JUMP JUMPDEST SWAP1 POP SWAP3 SWAP2 POP POP JUMP JUMPDEST PUSH32 0x4141313320696E6974436F6465206661696C6564206F72204F4F470000000000 PUSH1 0x0 DUP3 ADD MSTORE POP JUMP JUMPDEST PUSH1 0x0 PUSH2 0x6658 PUSH1 0x1B DUP4 PUSH2 0x4502 JUMP JUMPDEST SWAP2 POP PUSH2 0x6663 DUP3 PUSH2 0x6622 JUMP JUMPDEST PUSH1 0x20 DUP3 ADD SWAP1 POP SWAP2 SWAP1 POP JUMP JUMPDEST PUSH1 0x0 PUSH1 0x40 DUP3 ADD SWAP1 POP PUSH2 0x6683 PUSH1 0x0 DUP4 ADD DUP5 PUSH2 0x3BF4 JUMP JUMPDEST DUP2 DUP2 SUB PUSH1 0x20 DUP4 ADD MSTORE PUSH2 0x6694 DUP2 PUSH2 0x664B JUMP JUMPDEST SWAP1 POP SWAP3 SWAP2 POP POP JUMP JUMPDEST PUSH32 0x4141313420696E6974436F6465206D7573742072657475726E2073656E646572 PUSH1 0x0 DUP3 ADD MSTORE POP JUMP JUMPDEST PUSH1 0x0 PUSH2 0x66D2 PUSH1 0x20 DUP4 PUSH2 0x4502 JUMP JUMPDEST SWAP2 POP PUSH2 0x66DD DUP3 PUSH2 0x669C JUMP JUMPDEST PUSH1 0x20 DUP3 ADD SWAP1 POP SWAP2 SWAP1 POP JUMP JUMPDEST PUSH1 0x0 PUSH1 0x40 DUP3 ADD SWAP1 POP PUSH2 0x66FD PUSH1 0x0 DUP4 ADD DUP5 PUSH2 0x3BF4 JUMP JUMPDEST DUP2 DUP2 SUB PUSH1 0x20 DUP4 ADD MSTORE PUSH2 0x670E DUP2 PUSH2 0x66C5 JUMP JUMPDEST SWAP1 POP SWAP3 SWAP2 POP POP JUMP JUMPDEST PUSH32 0x4141313520696E6974436F6465206D757374206372656174652073656E646572 PUSH1 0x0 DUP3 ADD MSTORE POP JUMP JUMPDEST PUSH1 0x0 PUSH2 0x674C PUSH1 0x20 DUP4 PUSH2 0x4502 JUMP JUMPDEST SWAP2 POP PUSH2 0x6757 DUP3 PUSH2 0x6716 JUMP JUMPDEST PUSH1 0x20 DUP3 ADD SWAP1 POP SWAP2 SWAP1 POP JUMP JUMPDEST PUSH1 0x0 PUSH1 0x40 DUP3 ADD SWAP1 POP PUSH2 0x6777 PUSH1 0x0 DUP4 ADD DUP5 PUSH2 0x3BF4 JUMP JUMPDEST DUP2 DUP2 SUB PUSH1 0x20 DUP4 ADD MSTORE PUSH2 0x6788 DUP2 PUSH2 0x673F JUMP JUMPDEST SWAP1 POP SWAP3 SWAP2 POP POP JUMP JUMPDEST PUSH1 0x0 PUSH1 0x40 DUP3 ADD SWAP1 POP PUSH2 0x67A5 PUSH1 0x0 DUP4 ADD DUP6 PUSH2 0x5080 JUMP JUMPDEST PUSH2 0x67B2 PUSH1 0x20 DUP4 ADD DUP5 PUSH2 0x5080 JUMP JUMPDEST SWAP4 SWAP3 POP POP POP JUMP INVALID LOG2 PUSH5 0x6970667358 0x22 SLT KECCAK256 0xDE EQ 0xA5 0x28 0xE1 GT 0xA7 0x27 STATICCALL 0xBD 0xBB PUSH4 0x65DFEEB5 PUSH12 0x7CC57F0C733D940548F92639 STOP 0x5C 0x2E PUSH5 0x736F6C6343 STOP ADDMOD EQ STOP CALLER PUSH1 0x80 PUSH1 0x40 MSTORE CALLVALUE DUP1 ISZERO PUSH2 0x10 JUMPI PUSH1 0x0 DUP1 REVERT JUMPDEST POP PUSH2 0x342 DUP1 PUSH2 0x20 PUSH1 0x0 CODECOPY PUSH1 0x0 RETURN INVALID PUSH1 0x80 PUSH1 0x40 MSTORE CALLVALUE DUP1 ISZERO PUSH2 0x10 JUMPI PUSH1 0x0 DUP1 REVERT JUMPDEST POP PUSH1 0x4 CALLDATASIZE LT PUSH2 0x2B JUMPI PUSH1 0x0 CALLDATALOAD PUSH1 0xE0 SHR DUP1 PUSH4 0x570E1A36 EQ PUSH2 0x30 JUMPI JUMPDEST PUSH1 0x0 DUP1 REVERT JUMPDEST PUSH2 0x4A PUSH1 0x4 DUP1 CALLDATASIZE SUB DUP2 ADD SWAP1 PUSH2 0x45 SWAP2 SWAP1 PUSH2 0x17B JUMP JUMPDEST PUSH2 0x60 JUMP JUMPDEST PUSH1 0x40 MLOAD PUSH2 0x57 SWAP2 SWAP1 PUSH2 0x209 JUMP JUMPDEST PUSH1 0x40 MLOAD DUP1 SWAP2 SUB SWAP1 RETURN JUMPDEST PUSH1 0x0 DUP1 DUP4 DUP4 PUSH1 0x0 SWAP1 PUSH1 0x14 SWAP3 PUSH2 0x77 SWAP4 SWAP3 SWAP2 SWAP1 PUSH2 0x22E JUMP JUMPDEST SWAP1 PUSH2 0x82 SWAP2 SWAP1 PUSH2 0x2AD JUMP JUMPDEST PUSH1 0x60 SHR SWAP1 POP PUSH1 0x0 DUP5 DUP5 PUSH1 0x14 SWAP1 DUP1 SWAP3 PUSH2 0x9C SWAP4 SWAP3 SWAP2 SWAP1 PUSH2 0x22E JUMP JUMPDEST DUP1 DUP1 PUSH1 0x1F ADD PUSH1 0x20 DUP1 SWAP2 DIV MUL PUSH1 0x20 ADD PUSH1 0x40 MLOAD SWAP1 DUP2 ADD PUSH1 0x40 MSTORE DUP1 SWAP4 SWAP3 SWAP2 SWAP1 DUP2 DUP2 MSTORE PUSH1 0x20 ADD DUP4 DUP4 DUP1 DUP3 DUP5 CALLDATACOPY PUSH1 0x0 DUP2 DUP5 ADD MSTORE PUSH1 0x1F NOT PUSH1 0x1F DUP3 ADD AND SWAP1 POP DUP1 DUP4 ADD SWAP3 POP POP POP POP POP POP POP SWAP1 POP PUSH1 0x0 PUSH1 0x20 PUSH1 0x0 DUP4 MLOAD PUSH1 0x20 DUP6 ADD PUSH1 0x0 DUP8 GAS CALL SWAP1 POP PUSH1 0x0 MLOAD SWAP4 POP DUP1 PUSH2 0x103 JUMPI PUSH1 0x0 SWAP4 POP JUMPDEST POP POP POP SWAP3 SWAP2 POP POP JUMP JUMPDEST PUSH1 0x0 DUP1 REVERT JUMPDEST PUSH1 0x0 DUP1 REVERT JUMPDEST PUSH1 0x0 DUP1 REVERT JUMPDEST PUSH1 0x0 DUP1 REVERT JUMPDEST PUSH1 0x0 DUP1 REVERT JUMPDEST PUSH1 0x0 DUP1 DUP4 PUSH1 0x1F DUP5 ADD SLT PUSH2 0x13B JUMPI PUSH2 0x13A PUSH2 0x116 JUMP JUMPDEST JUMPDEST DUP3 CALLDATALOAD SWAP1 POP PUSH8 0xFFFFFFFFFFFFFFFF DUP2 GT ISZERO PUSH2 0x158 JUMPI PUSH2 0x157 PUSH2 0x11B JUMP JUMPDEST JUMPDEST PUSH1 0x20 DUP4 ADD SWAP2 POP DUP4 PUSH1 0x1 DUP3 MUL DUP4 ADD GT ISZERO PUSH2 0x174 JUMPI PUSH2 0x173 PUSH2 0x120 JUMP JUMPDEST JUMPDEST SWAP3 POP SWAP3 SWAP1 POP JUMP JUMPDEST PUSH1 0x0 DUP1 PUSH1 0x20 DUP4 DUP6 SUB SLT ISZERO PUSH2 0x192 JUMPI PUSH2 0x191 PUSH2 0x10C JUMP JUMPDEST JUMPDEST PUSH1 0x0 DUP4 ADD CALLDATALOAD PUSH8 0xFFFFFFFFFFFFFFFF DUP2 GT ISZERO PUSH2 0x1B0 JUMPI PUSH2 0x1AF PUSH2 0x111 JUMP JUMPDEST JUMPDEST PUSH2 0x1BC DUP6 DUP3 DUP7 ADD PUSH2 0x125 JUMP JUMPDEST SWAP3 POP SWAP3 POP POP SWAP3 POP SWAP3 SWAP1 POP JUMP JUMPDEST PUSH1 0x0 PUSH20 0xFFFFFFFFFFFFFFFFFFFFFFFFFFFFFFFFFFFFFFFF DUP3 AND SWAP1 POP SWAP2 SWAP1 POP JUMP JUMPDEST PUSH1 0x0 PUSH2 0x1F3 DUP3 PUSH2 0x1C8 JUMP JUMPDEST SWAP1 POP SWAP2 SWAP1 POP JUMP JUMPDEST PUSH2 0x203 DUP2 PUSH2 0x1E8 JUMP JUMPDEST DUP3 MSTORE POP POP JUMP JUMPDEST PUSH1 0x0 PUSH1 0x20 DUP3 ADD SWAP1 POP PUSH2 0x21E PUSH1 0x0 DUP4 ADD DUP5 PUSH2 0x1FA JUMP JUMPDEST SWAP3 SWAP2 POP POP JUMP JUMPDEST PUSH1 0x0 DUP1 REVERT JUMPDEST PUSH1 0x0 DUP1 REVERT JUMPDEST PUSH1 0x0 DUP1 DUP6 DUP6 GT ISZERO PUSH2 0x242 JUMPI PUSH2 0x241 PUSH2 0x224 JUMP JUMPDEST JUMPDEST DUP4 DUP7 GT ISZERO PUSH2 0x253 JUMPI PUSH2 0x252 PUSH2 0x229 JUMP JUMPDEST JUMPDEST PUSH1 0x1 DUP6 MUL DUP4 ADD SWAP2 POP DUP5 DUP7 SUB SWAP1 POP SWAP5 POP SWAP5 SWAP3 POP POP POP JUMP JUMPDEST PUSH1 0x0 DUP3 SWAP1 POP SWAP3 SWAP2 POP POP JUMP JUMPDEST PUSH1 0x0 PUSH32 0xFFFFFFFFFFFFFFFFFFFFFFFFFFFFFFFFFFFFFFFF000000000000000000000000 DUP3 AND SWAP1 POP SWAP2 SWAP1 POP JUMP JUMPDEST PUSH1 0x0 DUP3 DUP3 SHL SWAP1 POP SWAP3 SWAP2 POP POP JUMP JUMPDEST PUSH1 0x0 PUSH2 0x2B9 DUP4 DUP4 PUSH2 0x269 JUMP JUMPDEST DUP3 PUSH2 0x2C4 DUP2 CALLDATALOAD PUSH2 0x274 JUMP JUMPDEST SWAP3 POP PUSH1 0x14 DUP3 LT ISZERO PUSH2 0x304 JUMPI PUSH2 0x2FF PUSH32 0xFFFFFFFFFFFFFFFFFFFFFFFFFFFFFFFFFFFFFFFF000000000000000000000000 DUP4 PUSH1 0x14 SUB PUSH1 0x8 MUL PUSH2 0x2A0 JUMP JUMPDEST DUP4 AND SWAP3 POP JUMPDEST POP POP SWAP3 SWAP2 POP POP JUMP INVALID LOG2 PUSH5 0x6970667358 0x22 SLT KECCAK256 GASLIMIT PUSH17 0xFD6BAED8EABAABA44A51F2D0441D21CF50 0xB3 PUSH4 0x66A67290 DUP6 0xCD 0xC2 0xBE MLOAD 0xC7 PUSH20 0x64736F6C63430008140033000000000000000000 "},"methodIdentifiers":{"SIG_VALIDATION_FAILED()":"8f41ec5a","addStake(uint32)":"0396cb60","balanceOf(address)":"70a08231","depositTo(address)":"b760faf9","deposits(address)":"fc7e286d","getDepositInfo(address)":"5287ce12","getNonce(address,uint192)":"35567e1a","getSenderAddress(bytes)":"9b249f69","getUserOpHash((address,uint256,bytes,bytes,uint256,uint256,uint256,uint256,uint256,bytes,bytes))":"a6193531","handleAggregatedOps(((address,uint256,bytes,bytes,uint256,uint256,uint256,uint256,uint256,bytes,bytes)[],address,bytes)[],address)":"4b1d7cf5","handleOps((address,uint256,bytes,bytes,uint256,uint256,uint256,uint256,uint256,bytes,bytes)[],address)":"1fad948c","incrementNonce(uint192)":"0bd28e3b","innerHandleOp(bytes,((address,uint256,uint256,uint256,uint256,address,uint256,uint256),bytes32,uint256,uint256,uint256),bytes)":"1d732756","nonceSequenceNumber(address,uint192)":"1b2e01b8","supportsInterface(bytes4)":"01ffc9a7","unlockStake()":"bb9fe6bf","withdrawStake(address)":"c23a5cea","withdrawTo(address,uint256)":"205c2878"}}}}}