{"contracts/utils/TokenPaymaster.sol":{"TokenPaymaster":{"abi":[{"inputs":[{"internalType":"contract IERC20Metadata","name":"_token","type":"address"},{"internalType":"contract IEntryPoint","name":"_entryPoint","type":"address"},{"components":[{"internalType":"uint256","name":"priceMarkup","type":"uint256"},{"internalType":"uint256","name":"refundPostopCost","type":"uint256"},{"internalType":"uint256","name":"priceMaxAge","type":"uint256"}],"internalType":"struct TokenPaymaster.TokenPaymasterConfig","name":"_tokenPaymasterConfig","type":"tuple"},{"internalType":"address","name":"_owner","type":"address"}],"stateMutability":"nonpayable","type":"constructor"},{"inputs":[{"internalType":"address","name":"target","type":"address"}],"name":"AddressEmptyCode","type":"error"},{"inputs":[{"internalType":"address","name":"account","type":"address"}],"name":"AddressInsufficientBalance","type":"error"},{"inputs":[],"name":"FailedInnerCall","type":"error"},{"inputs":[{"internalType":"address","name":"owner","type":"address"}],"name":"OwnableInvalidOwner","type":"error"},{"inputs":[{"internalType":"address","name":"account","type":"address"}],"name":"OwnableUnauthorizedAccount","type":"error"},{"inputs":[{"internalType":"address","name":"token","type":"address"}],"name":"SafeERC20FailedOperation","type":"error"},{"anonymous":false,"inputs":[{"components":[{"internalType":"uint256","name":"priceMarkup","type":"uint256"},{"internalType":"uint256","name":"refundPostopCost","type":"uint256"},{"internalType":"uint256","name":"priceMaxAge","type":"uint256"}],"indexed":false,"internalType":"struct TokenPaymaster.TokenPaymasterConfig","name":"tokenPaymasterConfig","type":"tuple"}],"name":"ConfigUpdated","type":"event"},{"anonymous":false,"inputs":[{"indexed":true,"internalType":"address","name":"previousOwner","type":"address"},{"indexed":true,"internalType":"address","name":"newOwner","type":"address"}],"name":"OwnershipTransferred","type":"event"},{"anonymous":false,"inputs":[{"indexed":true,"internalType":"address","name":"user","type":"address"},{"indexed":false,"internalType":"uint256","name":"preCharge","type":"uint256"}],"name":"PostOpReverted","type":"event"},{"anonymous":false,"inputs":[{"indexed":true,"internalType":"address","name":"sender","type":"address"},{"indexed":false,"internalType":"uint256","name":"value","type":"uint256"}],"name":"Received","type":"event"},{"anonymous":false,"inputs":[{"indexed":true,"internalType":"address","name":"user","type":"address"},{"indexed":false,"internalType":"uint256","name":"actualTokenCharge","type":"uint256"},{"indexed":false,"internalType":"uint256","name":"actualGasCost","type":"uint256"},{"indexed":false,"internalType":"uint256","name":"actualTokenPrice","type":"uint256"}],"name":"UserOperationSponsored","type":"event"},{"inputs":[{"internalType":"uint32","name":"unstakeDelaySec","type":"uint32"}],"name":"addStake","outputs":[],"stateMutability":"payable","type":"function"},{"inputs":[],"name":"cachedPriceTimestamp","outputs":[{"internalType":"uint256","name":"","type":"uint256"}],"stateMutability":"view","type":"function"},{"inputs":[],"name":"deposit","outputs":[],"stateMutability":"payable","type":"function"},{"inputs":[],"name":"entryPoint","outputs":[{"internalType":"contract IEntryPoint","name":"","type":"address"}],"stateMutability":"view","type":"function"},{"inputs":[],"name":"getDeposit","outputs":[{"internalType":"uint256","name":"","type":"uint256"}],"stateMutability":"view","type":"function"},{"inputs":[],"name":"owner","outputs":[{"internalType":"address","name":"","type":"address"}],"stateMutability":"view","type":"function"},{"inputs":[{"internalType":"enum IPaymaster.PostOpMode","name":"mode","type":"uint8"},{"internalType":"bytes","name":"context","type":"bytes"},{"internalType":"uint256","name":"actualGasCost","type":"uint256"}],"name":"postOp","outputs":[],"stateMutability":"nonpayable","type":"function"},{"inputs":[],"name":"renounceOwnership","outputs":[],"stateMutability":"nonpayable","type":"function"},{"inputs":[{"components":[{"internalType":"uint256","name":"priceMarkup","type":"uint256"},{"internalType":"uint256","name":"refundPostopCost","type":"uint256"},{"internalType":"uint256","name":"priceMaxAge","type":"uint256"}],"internalType":"struct TokenPaymaster.TokenPaymasterConfig","name":"_tokenPaymasterConfig","type":"tuple"}],"name":"setTokenPaymasterConfig","outputs":[],"stateMutability":"nonpayable","type":"function"},{"inputs":[],"name":"token","outputs":[{"internalType":"contract IERC20","name":"","type":"address"}],"stateMutability":"view","type":"function"},{"inputs":[{"internalType":"address","name":"newOwner","type":"address"}],"name":"transferOwnership","outputs":[],"stateMutability":"nonpayable","type":"function"},{"inputs":[],"name":"unlockStake","outputs":[],"stateMutability":"nonpayable","type":"function"},{"inputs":[{"components":[{"internalType":"address","name":"sender","type":"address"},{"internalType":"uint256","name":"nonce","type":"uint256"},{"internalType":"bytes","name":"initCode","type":"bytes"},{"internalType":"bytes","name":"callData","type":"bytes"},{"internalType":"uint256","name":"callGasLimit","type":"uint256"},{"internalType":"uint256","name":"verificationGasLimit","type":"uint256"},{"internalType":"uint256","name":"preVerificationGas","type":"uint256"},{"internalType":"uint256","name":"maxFeePerGas","type":"uint256"},{"internalType":"uint256","name":"maxPriorityFeePerGas","type":"uint256"},{"internalType":"bytes","name":"paymasterAndData","type":"bytes"},{"internalType":"bytes","name":"signature","type":"bytes"}],"internalType":"struct UserOperation","name":"userOp","type":"tuple"},{"internalType":"bytes32","name":"userOpHash","type":"bytes32"},{"internalType":"uint256","name":"maxCost","type":"uint256"}],"name":"validatePaymasterUserOp","outputs":[{"internalType":"bytes","name":"context","type":"bytes"},{"internalType":"uint256","name":"validationData","type":"uint256"}],"stateMutability":"nonpayable","type":"function"},{"inputs":[{"internalType":"uint256","name":"amount","type":"uint256"},{"internalType":"uint256","name":"price","type":"uint256"}],"name":"weiToToken","outputs":[{"internalType":"uint256","name":"","type":"uint256"}],"stateMutability":"pure","type":"function"},{"inputs":[{"internalType":"address payable","name":"withdrawAddress","type":"address"}],"name":"withdrawStake","outputs":[],"stateMutability":"nonpayable","type":"function"},{"inputs":[{"internalType":"address payable","name":"withdrawAddress","type":"address"},{"internalType":"uint256","name":"amount","type":"uint256"}],"name":"withdrawTo","outputs":[],"stateMutability":"nonpayable","type":"function"},{"inputs":[{"internalType":"address","name":"to","type":"address"},{"internalType":"uint256","name":"amount","type":"uint256"}],"name":"withdrawToken","outputs":[],"stateMutability":"nonpayable","type":"function"},{"stateMutability":"payable","type":"receive"}],"evm":{"bytecode":{"linkReferences":{},"object":"60c06040523480156200001157600080fd5b5060405162002b3638038062002b368339818101604052810190620000379190620006ee565b8232600073ffffffffffffffffffffffffffffffffffffffff168173ffffffffffffffffffffffffffffffffffffffff1603620000ae5760006040517f1e4fbdf7000000000000000000000000000000000000000000000000000000008152600401620000a5919062000771565b60405180910390fd5b620000bf816200015c60201b60201c565b508073ffffffffffffffffffffffffffffffffffffffff1660808173ffffffffffffffffffffffffffffffffffffffff16815250505062000106826200022060201b60201c565b62000117816200034060201b60201c565b8373ffffffffffffffffffffffffffffffffffffffff1660a08173ffffffffffffffffffffffffffffffffffffffff1681525050426004819055505050505062000973565b60008060009054906101000a900473ffffffffffffffffffffffffffffffffffffffff169050816000806101000a81548173ffffffffffffffffffffffffffffffffffffffff021916908373ffffffffffffffffffffffffffffffffffffffff1602179055508173ffffffffffffffffffffffffffffffffffffffff168173ffffffffffffffffffffffffffffffffffffffff167f8be0079c531659141344cd1fd0a4f28419497f9722a3daafe3b4186f6b6457e060405160405180910390a35050565b62000230620003d960201b60201c565b6a52b7d2dcc80cd2e400000060026200024a9190620007bd565b8160000151111562000293576040517f08c379a00000000000000000000000000000000000000000000000000000000081526004016200028a9062000869565b60405180910390fd5b620f424081600001511015620002e0576040517f08c379a0000000000000000000000000000000000000000000000000000000008152600401620002d790620008db565b60405180910390fd5b8060016000820151816000015560208201518160010155604082015181600201559050507f5ae532796eeeb25558550dab6b9aff6802247590213ad83ad7366b1557b1cbf08160405162000335919062000956565b60405180910390a150565b62000350620003d960201b60201c565b600073ffffffffffffffffffffffffffffffffffffffff168173ffffffffffffffffffffffffffffffffffffffff1603620003c55760006040517f1e4fbdf7000000000000000000000000000000000000000000000000000000008152600401620003bc919062000771565b60405180910390fd5b620003d6816200015c60201b60201c565b50565b620003e96200047b60201b60201c565b73ffffffffffffffffffffffffffffffffffffffff166200040f6200048360201b60201c565b73ffffffffffffffffffffffffffffffffffffffff161462000479576200043b6200047b60201b60201c565b6040517f118cdaa700000000000000000000000000000000000000000000000000000000815260040162000470919062000771565b60405180910390fd5b565b600033905090565b60008060009054906101000a900473ffffffffffffffffffffffffffffffffffffffff16905090565b6000604051905090565b600080fd5b600073ffffffffffffffffffffffffffffffffffffffff82169050919050565b6000620004e882620004bb565b9050919050565b6000620004fc82620004db565b9050919050565b6200050e81620004ef565b81146200051a57600080fd5b50565b6000815190506200052e8162000503565b92915050565b60006200054182620004db565b9050919050565b620005538162000534565b81146200055f57600080fd5b50565b600081519050620005738162000548565b92915050565b600080fd5b6000601f19601f8301169050919050565b7f4e487b7100000000000000000000000000000000000000000000000000000000600052604160045260246000fd5b620005c9826200057e565b810181811067ffffffffffffffff82111715620005eb57620005ea6200058f565b5b80604052505050565b600062000600620004ac565b90506200060e8282620005be565b919050565b6000819050919050565b620006288162000613565b81146200063457600080fd5b50565b60008151905062000648816200061d565b92915050565b60006060828403121562000667576200066662000579565b5b620006736060620005f4565b90506000620006858482850162000637565b60008301525060206200069b8482850162000637565b6020830152506040620006b18482850162000637565b60408301525092915050565b620006c881620004db565b8114620006d457600080fd5b50565b600081519050620006e881620006bd565b92915050565b60008060008060c085870312156200070b576200070a620004b6565b5b60006200071b878288016200051d565b94505060206200072e8782880162000562565b935050604062000741878288016200064e565b92505060a06200075487828801620006d7565b91505092959194509250565b6200076b81620004db565b82525050565b600060208201905062000788600083018462000760565b92915050565b7f4e487b7100000000000000000000000000000000000000000000000000000000600052601160045260246000fd5b6000620007ca8262000613565b9150620007d78362000613565b9250828202620007e78162000613565b915082820484148315176200080157620008006200078e565b5b5092915050565b600082825260208201905092915050565b7f54504d3a207072696365206d61726b757020746f6f2068696768000000000000600082015250565b600062000851601a8362000808565b91506200085e8262000819565b602082019050919050565b60006020820190508181036000830152620008848162000842565b9050919050565b7f54504d3a207072696365206d61726b757020746f6f206c6f7700000000000000600082015250565b6000620008c360198362000808565b9150620008d0826200088b565b602082019050919050565b60006020820190508181036000830152620008f681620008b4565b9050919050565b620009088162000613565b82525050565b606082016000820151620009266000850182620008fd565b5060208201516200093b6020850182620008fd565b506040820151620009506040850182620008fd565b50505050565b60006060820190506200096d60008301846200090e565b92915050565b60805160a051612150620009e66000396000818161059e01528181610a1401528181610d1e01528181610d580152610efa01526000818161040201528181610499015281816105e40152818161071e015281816107a801528181610838015281816108d70152610c0201526121506000f3fe6080604052600436106101025760003560e01c8063b1a6cfec11610095578063d0e30db011610064578063d0e30db014610331578063e1d8153c1461033b578063f2fde38b14610366578063f465c77e1461038f578063fc0c546a146103cd57610157565b8063b1a6cfec1461029d578063bb9fe6bf146102c6578063c23a5cea146102dd578063c399ec881461030657610157565b80638da5cb5b116100d15780638da5cb5b146101f55780639e281a9814610220578063a9a2340914610249578063b0d691fe1461027257610157565b80630396cb601461015c578063205c287814610178578063715018a6146101a15780637c986aac146101b857610157565b36610157573373ffffffffffffffffffffffffffffffffffffffff167f88a5966d370b9919b20f3e2c13ff65706f196a4e32cc2c12bf57088f885258743460405161014d919061130d565b60405180910390a2005b600080fd5b61017660048036038101906101719190611378565b6103f8565b005b34801561018457600080fd5b5061019f600480360381019061019a919061142f565b61048f565b005b3480156101ad57600080fd5b506101b6610528565b005b3480156101c457600080fd5b506101df60048036038101906101da919061146f565b61053c565b6040516101ec919061130d565b60405180910390f35b34801561020157600080fd5b5061020a610568565b60405161021791906114d0565b60405180910390f35b34801561022c57600080fd5b5061024760048036038101906102429190611517565b610591565b005b34801561025557600080fd5b50610270600480360381019061026b91906115e1565b6105c8565b005b34801561027e57600080fd5b506102876105e2565b60405161029491906116b4565b60405180910390f35b3480156102a957600080fd5b506102c460048036038101906102bf91906117c4565b610606565b005b3480156102d257600080fd5b506102db610714565b005b3480156102e957600080fd5b5061030460048036038101906102ff91906117f1565b61079e565b005b34801561031257600080fd5b5061031b610834565b604051610328919061130d565b60405180910390f35b6103396108d5565b005b34801561034757600080fd5b50610350610963565b60405161035d919061130d565b60405180910390f35b34801561037257600080fd5b5061038d6004803603810190610388919061181e565b610969565b005b34801561039b57600080fd5b506103b660048036038101906103b191906118a6565b6109ef565b6040516103c4929190611994565b60405180910390f35b3480156103d957600080fd5b506103e2610a12565b6040516103ef91906119e5565b60405180910390f35b610400610a36565b7f000000000000000000000000000000000000000000000000000000000000000073ffffffffffffffffffffffffffffffffffffffff16630396cb6034836040518363ffffffff1660e01b815260040161045a9190611a0f565b6000604051808303818588803b15801561047357600080fd5b505af1158015610487573d6000803e3d6000fd5b505050505050565b610497610a36565b7f000000000000000000000000000000000000000000000000000000000000000073ffffffffffffffffffffffffffffffffffffffff1663205c287883836040518363ffffffff1660e01b81526004016104f2929190611a39565b600060405180830381600087803b15801561050c57600080fd5b505af1158015610520573d6000803e3d6000fd5b505050505050565b610530610a36565b61053a6000610abd565b565b6000816a52b7d2dcc80cd2e4000000846105569190611a91565b6105609190611b02565b905092915050565b60008060009054906101000a900473ffffffffffffffffffffffffffffffffffffffff16905090565b610599610a36565b6105c47f00000000000000000000000000000000000000000000000000000000000000008383610b81565b5050565b6105d0610c00565b6105dc84848484610c90565b50505050565b7f000000000000000000000000000000000000000000000000000000000000000081565b61060e610a36565b6a52b7d2dcc80cd2e400000060026106269190611a91565b8160000151111561066c576040517f08c379a000000000000000000000000000000000000000000000000000000000815260040161066390611b90565b60405180910390fd5b620f4240816000015110156106b6576040517f08c379a00000000000000000000000000000000000000000000000000000000081526004016106ad90611bfc565b60405180910390fd5b8060016000820151816000015560208201518160010155604082015181600201559050507f5ae532796eeeb25558550dab6b9aff6802247590213ad83ad7366b1557b1cbf0816040516107099190611c6d565b60405180910390a150565b61071c610a36565b7f000000000000000000000000000000000000000000000000000000000000000073ffffffffffffffffffffffffffffffffffffffff1663bb9fe6bf6040518163ffffffff1660e01b8152600401600060405180830381600087803b15801561078457600080fd5b505af1158015610798573d6000803e3d6000fd5b50505050565b6107a6610a36565b7f000000000000000000000000000000000000000000000000000000000000000073ffffffffffffffffffffffffffffffffffffffff1663c23a5cea826040518263ffffffff1660e01b81526004016107ff9190611c88565b600060405180830381600087803b15801561081957600080fd5b505af115801561082d573d6000803e3d6000fd5b5050505050565b60007f000000000000000000000000000000000000000000000000000000000000000073ffffffffffffffffffffffffffffffffffffffff166370a08231306040518263ffffffff1660e01b815260040161088f91906114d0565b602060405180830381865afa1580156108ac573d6000803e3d6000fd5b505050506040513d601f19601f820116820180604052508101906108d09190611cb8565b905090565b7f000000000000000000000000000000000000000000000000000000000000000073ffffffffffffffffffffffffffffffffffffffff1663b760faf934306040518363ffffffff1660e01b815260040161092f91906114d0565b6000604051808303818588803b15801561094857600080fd5b505af115801561095c573d6000803e3d6000fd5b5050505050565b60045481565b610971610a36565b600073ffffffffffffffffffffffffffffffffffffffff168173ffffffffffffffffffffffffffffffffffffffff16036109e35760006040517f1e4fbdf70000000000000000000000000000000000000000000000000000000081526004016109da91906114d0565b60405180910390fd5b6109ec81610abd565b50565b606060006109fb610c00565b610a06858585610dec565b91509150935093915050565b7f000000000000000000000000000000000000000000000000000000000000000081565b610a3e610f9b565b73ffffffffffffffffffffffffffffffffffffffff16610a5c610568565b73ffffffffffffffffffffffffffffffffffffffff1614610abb57610a7f610f9b565b6040517f118cdaa7000000000000000000000000000000000000000000000000000000008152600401610ab291906114d0565b60405180910390fd5b565b60008060009054906101000a900473ffffffffffffffffffffffffffffffffffffffff169050816000806101000a81548173ffffffffffffffffffffffffffffffffffffffff021916908373ffffffffffffffffffffffffffffffffffffffff1602179055508173ffffffffffffffffffffffffffffffffffffffff168173ffffffffffffffffffffffffffffffffffffffff167f8be0079c531659141344cd1fd0a4f28419497f9722a3daafe3b4186f6b6457e060405160405180910390a35050565b610bfb838473ffffffffffffffffffffffffffffffffffffffff1663a9059cbb8585604051602401610bb4929190611ce5565b604051602081830303815290604052915060e01b6020820180517bffffffffffffffffffffffffffffffffffffffffffffffffffffffff8381831617835250505050610fa3565b505050565b7f000000000000000000000000000000000000000000000000000000000000000073ffffffffffffffffffffffffffffffffffffffff163373ffffffffffffffffffffffffffffffffffffffff1614610c8e576040517f08c379a0000000000000000000000000000000000000000000000000000000008152600401610c8590611d5a565b60405180910390fd5b565b600060016000015490506000806000808787810190610caf9190611d7a565b93509350935093506000610cc3848461103a565b90506000866a52b7d2dcc80cd2e400000067016345785d8a00000281610cec57610ceb611ad3565b5b04905042600481905550600082600180015402890190506000610d0f828461053c565b905080881115610d4b57610d467f000000000000000000000000000000000000000000000000000000000000000086838b03610b81565b610d83565b80881015610d8257610d817f000000000000000000000000000000000000000000000000000000000000000086308b8503611069565b5b5b8473ffffffffffffffffffffffffffffffffffffffff167f46caa0511cf037f06f57a0bf273a2ff04229f5b12fb04675234a6cbe2e7f1a89828c67016345785d8a0000604051610dd593929190611de1565b60405180910390a250505050505050505050505050565b606060008060016000015490506000601487806101200190610e0e9190611e27565b90500390506000811480610e225750602081145b610e61576040517f08c379a0000000000000000000000000000000000000000000000000000000008152600401610e5890611ed6565b60405180910390fd5b60008760e00135600180015402860190506000836a52b7d2dcc80cd2e400000067016345785d8a00000281610e9957610e98611ad3565b5b04905060208303610ee757600089806101200190610eb79190611e27565b601490603492610ec993929190611f00565b90610ed49190611f53565b60001c905081811015610ee5578091505b505b6000610ef3838361053c565b9050610f337f00000000000000000000000000000000000000000000000000000000000000008b6000016020810190610f2c919061181e565b3084611069565b808a60e001358b61010001358c6000016020810190610f52919061181e565b604051602001610f659493929190611fb2565b6040516020818303038152906040529650610f8c60006001600201546004540160006110eb565b95505050505050935093915050565b600033905090565b6000610fce828473ffffffffffffffffffffffffffffffffffffffff1661112490919063ffffffff16565b90506000815114158015610ff3575080806020019051810190610ff1919061202f565b155b1561103557826040517f5274afe700000000000000000000000000000000000000000000000000000000815260040161102c91906114d0565b60405180910390fd5b505050565b600081830361104b57829050611063565b61106083488461105b919061205c565b61113a565b90505b92915050565b6110e5848573ffffffffffffffffffffffffffffffffffffffff166323b872dd86868660405160240161109e93929190612090565b604051602081830303815290604052915060e01b6020820180517bffffffffffffffffffffffffffffffffffffffffffffffffffffffff8381831617835250505050610fa3565b50505050565b600060d08265ffffffffffff16901b60a08465ffffffffffff16901b85611113576000611116565b60015b60ff16171790509392505050565b606061113283836000611153565b905092915050565b6000818310611149578161114b565b825b905092915050565b60608147101561119a57306040517fcd78605900000000000000000000000000000000000000000000000000000000815260040161119191906114d0565b60405180910390fd5b6000808573ffffffffffffffffffffffffffffffffffffffff1684866040516111c39190612103565b60006040518083038185875af1925050503d8060008114611200576040519150601f19603f3d011682016040523d82523d6000602084013e611205565b606091505b5091509150611215868383611220565b925050509392505050565b60608261123557611230826112af565b6112a7565b6000825114801561125d575060008473ffffffffffffffffffffffffffffffffffffffff163b145b1561129f57836040517f9996b31500000000000000000000000000000000000000000000000000000000815260040161129691906114d0565b60405180910390fd5b8190506112a8565b5b9392505050565b6000815111156112c25780518082602001fd5b6040517f1425ea4200000000000000000000000000000000000000000000000000000000815260040160405180910390fd5b6000819050919050565b611307816112f4565b82525050565b600060208201905061132260008301846112fe565b92915050565b6000604051905090565b600080fd5b600080fd5b600063ffffffff82169050919050565b6113558161133c565b811461136057600080fd5b50565b6000813590506113728161134c565b92915050565b60006020828403121561138e5761138d611332565b5b600061139c84828501611363565b91505092915050565b600073ffffffffffffffffffffffffffffffffffffffff82169050919050565b60006113d0826113a5565b9050919050565b6113e0816113c5565b81146113eb57600080fd5b50565b6000813590506113fd816113d7565b92915050565b61140c816112f4565b811461141757600080fd5b50565b60008135905061142981611403565b92915050565b6000806040838503121561144657611445611332565b5b6000611454858286016113ee565b92505060206114658582860161141a565b9150509250929050565b6000806040838503121561148657611485611332565b5b60006114948582860161141a565b92505060206114a58582860161141a565b9150509250929050565b60006114ba826113a5565b9050919050565b6114ca816114af565b82525050565b60006020820190506114e560008301846114c1565b92915050565b6114f4816114af565b81146114ff57600080fd5b50565b600081359050611511816114eb565b92915050565b6000806040838503121561152e5761152d611332565b5b600061153c85828601611502565b925050602061154d8582860161141a565b9150509250929050565b6003811061156457600080fd5b50565b60008135905061157681611557565b92915050565b600080fd5b600080fd5b600080fd5b60008083601f8401126115a1576115a061157c565b5b8235905067ffffffffffffffff8111156115be576115bd611581565b5b6020830191508360018202830111156115da576115d9611586565b5b9250929050565b600080600080606085870312156115fb576115fa611332565b5b600061160987828801611567565b945050602085013567ffffffffffffffff81111561162a57611629611337565b5b6116368782880161158b565b935093505060406116498782880161141a565b91505092959194509250565b6000819050919050565b600061167a611675611670846113a5565b611655565b6113a5565b9050919050565b600061168c8261165f565b9050919050565b600061169e82611681565b9050919050565b6116ae81611693565b82525050565b60006020820190506116c960008301846116a5565b92915050565b600080fd5b6000601f19601f8301169050919050565b7f4e487b7100000000000000000000000000000000000000000000000000000000600052604160045260246000fd5b61171d826116d4565b810181811067ffffffffffffffff8211171561173c5761173b6116e5565b5b80604052505050565b600061174f611328565b905061175b8282611714565b919050565b600060608284031215611776576117756116cf565b5b6117806060611745565b905060006117908482850161141a565b60008301525060206117a48482850161141a565b60208301525060406117b88482850161141a565b60408301525092915050565b6000606082840312156117da576117d9611332565b5b60006117e884828501611760565b91505092915050565b60006020828403121561180757611806611332565b5b6000611815848285016113ee565b91505092915050565b60006020828403121561183457611833611332565b5b600061184284828501611502565b91505092915050565b600080fd5b600061016082840312156118675761186661184b565b5b81905092915050565b6000819050919050565b61188381611870565b811461188e57600080fd5b50565b6000813590506118a08161187a565b92915050565b6000806000606084860312156118bf576118be611332565b5b600084013567ffffffffffffffff8111156118dd576118dc611337565b5b6118e986828701611850565b93505060206118fa86828701611891565b925050604061190b8682870161141a565b9150509250925092565b600081519050919050565b600082825260208201905092915050565b60005b8381101561194f578082015181840152602081019050611934565b60008484015250505050565b600061196682611915565b6119708185611920565b9350611980818560208601611931565b611989816116d4565b840191505092915050565b600060408201905081810360008301526119ae818561195b565b90506119bd60208301846112fe565b9392505050565b60006119cf82611681565b9050919050565b6119df816119c4565b82525050565b60006020820190506119fa60008301846119d6565b92915050565b611a098161133c565b82525050565b6000602082019050611a246000830184611a00565b92915050565b611a33816113c5565b82525050565b6000604082019050611a4e6000830185611a2a565b611a5b60208301846112fe565b9392505050565b7f4e487b7100000000000000000000000000000000000000000000000000000000600052601160045260246000fd5b6000611a9c826112f4565b9150611aa7836112f4565b9250828202611ab5816112f4565b91508282048414831517611acc57611acb611a62565b5b5092915050565b7f4e487b7100000000000000000000000000000000000000000000000000000000600052601260045260246000fd5b6000611b0d826112f4565b9150611b18836112f4565b925082611b2857611b27611ad3565b5b828204905092915050565b600082825260208201905092915050565b7f54504d3a207072696365206d61726b757020746f6f2068696768000000000000600082015250565b6000611b7a601a83611b33565b9150611b8582611b44565b602082019050919050565b60006020820190508181036000830152611ba981611b6d565b9050919050565b7f54504d3a207072696365206d61726b757020746f6f206c6f7700000000000000600082015250565b6000611be6601983611b33565b9150611bf182611bb0565b602082019050919050565b60006020820190508181036000830152611c1581611bd9565b9050919050565b611c25816112f4565b82525050565b606082016000820151611c416000850182611c1c565b506020820151611c546020850182611c1c565b506040820151611c676040850182611c1c565b50505050565b6000606082019050611c826000830184611c2b565b92915050565b6000602082019050611c9d6000830184611a2a565b92915050565b600081519050611cb281611403565b92915050565b600060208284031215611cce57611ccd611332565b5b6000611cdc84828501611ca3565b91505092915050565b6000604082019050611cfa60008301856114c1565b611d0760208301846112fe565b9392505050565b7f53656e646572206e6f7420456e747279506f696e740000000000000000000000600082015250565b6000611d44601583611b33565b9150611d4f82611d0e565b602082019050919050565b60006020820190508181036000830152611d7381611d37565b9050919050565b60008060008060808587031215611d9457611d93611332565b5b6000611da28782880161141a565b9450506020611db38782880161141a565b9350506040611dc48782880161141a565b9250506060611dd5878288016113ee565b91505092959194509250565b6000606082019050611df660008301866112fe565b611e0360208301856112fe565b611e1060408301846112fe565b949350505050565b600080fd5b600080fd5b600080fd5b60008083356001602003843603038112611e4457611e43611e18565b5b80840192508235915067ffffffffffffffff821115611e6657611e65611e1d565b5b602083019250600182023603831315611e8257611e81611e22565b5b509250929050565b7f54504d3a20696e76616c69642064617461206c656e6774680000000000000000600082015250565b6000611ec0601883611b33565b9150611ecb82611e8a565b602082019050919050565b60006020820190508181036000830152611eef81611eb3565b9050919050565b600080fd5b600080fd5b60008085851115611f1457611f13611ef6565b5b83861115611f2557611f24611efb565b5b6001850283019150848603905094509492505050565b600082905092915050565b600082821b905092915050565b6000611f5f8383611f3b565b82611f6a8135611870565b92506020821015611faa57611fa57fffffffffffffffffffffffffffffffffffffffffffffffffffffffffffffffff83602003600802611f46565b831692505b505092915050565b6000608082019050611fc760008301876112fe565b611fd460208301866112fe565b611fe160408301856112fe565b611fee60608301846114c1565b95945050505050565b60008115159050919050565b61200c81611ff7565b811461201757600080fd5b50565b60008151905061202981612003565b92915050565b60006020828403121561204557612044611332565b5b60006120538482850161201a565b91505092915050565b6000612067826112f4565b9150612072836112f4565b925082820190508082111561208a57612089611a62565b5b92915050565b60006060820190506120a560008301866114c1565b6120b260208301856114c1565b6120bf60408301846112fe565b949350505050565b600081905092915050565b60006120dd82611915565b6120e781856120c7565b93506120f7818560208601611931565b80840191505092915050565b600061210f82846120d2565b91508190509291505056fea2646970667358221220b741688f6a609f0e03145efd2e48d11dc97de6963a0b4b6c54eb8a80530375cd64736f6c63430008140033","opcodes":"PUSH1 0xC0 PUSH1 0x40 MSTORE CALLVALUE DUP1 ISZERO PUSH3 0x11 JUMPI PUSH1 0x0 DUP1 REVERT JUMPDEST POP PUSH1 0x40 MLOAD PUSH3 0x2B36 CODESIZE SUB DUP1 PUSH3 0x2B36 DUP4 CODECOPY DUP2 DUP2 ADD PUSH1 0x40 MSTORE DUP2 ADD SWAP1 PUSH3 0x37 SWAP2 SWAP1 PUSH3 0x6EE JUMP JUMPDEST DUP3 ORIGIN PUSH1 0x0 PUSH20 0xFFFFFFFFFFFFFFFFFFFFFFFFFFFFFFFFFFFFFFFF AND DUP2 PUSH20 0xFFFFFFFFFFFFFFFFFFFFFFFFFFFFFFFFFFFFFFFF AND SUB PUSH3 0xAE JUMPI PUSH1 0x0 PUSH1 0x40 MLOAD PUSH32 0x1E4FBDF700000000000000000000000000000000000000000000000000000000 DUP2 MSTORE PUSH1 0x4 ADD PUSH3 0xA5 SWAP2 SWAP1 PUSH3 0x771 JUMP JUMPDEST PUSH1 0x40 MLOAD DUP1 SWAP2 SUB SWAP1 REVERT JUMPDEST PUSH3 0xBF DUP2 PUSH3 0x15C PUSH1 0x20 SHL PUSH1 0x20 SHR JUMP JUMPDEST POP DUP1 PUSH20 0xFFFFFFFFFFFFFFFFFFFFFFFFFFFFFFFFFFFFFFFF AND PUSH1 0x80 DUP2 PUSH20 0xFFFFFFFFFFFFFFFFFFFFFFFFFFFFFFFFFFFFFFFF AND DUP2 MSTORE POP POP POP PUSH3 0x106 DUP3 PUSH3 0x220 PUSH1 0x20 SHL PUSH1 0x20 SHR JUMP JUMPDEST PUSH3 0x117 DUP2 PUSH3 0x340 PUSH1 0x20 SHL PUSH1 0x20 SHR JUMP JUMPDEST DUP4 PUSH20 0xFFFFFFFFFFFFFFFFFFFFFFFFFFFFFFFFFFFFFFFF AND PUSH1 0xA0 DUP2 PUSH20 0xFFFFFFFFFFFFFFFFFFFFFFFFFFFFFFFFFFFFFFFF AND DUP2 MSTORE POP POP TIMESTAMP PUSH1 0x4 DUP2 SWAP1 SSTORE POP POP POP POP POP PUSH3 0x973 JUMP JUMPDEST PUSH1 0x0 DUP1 PUSH1 0x0 SWAP1 SLOAD SWAP1 PUSH2 0x100 EXP SWAP1 DIV PUSH20 0xFFFFFFFFFFFFFFFFFFFFFFFFFFFFFFFFFFFFFFFF AND SWAP1 POP DUP2 PUSH1 0x0 DUP1 PUSH2 0x100 EXP DUP2 SLOAD DUP2 PUSH20 0xFFFFFFFFFFFFFFFFFFFFFFFFFFFFFFFFFFFFFFFF MUL NOT AND SWAP1 DUP4 PUSH20 0xFFFFFFFFFFFFFFFFFFFFFFFFFFFFFFFFFFFFFFFF AND MUL OR SWAP1 SSTORE POP DUP2 PUSH20 0xFFFFFFFFFFFFFFFFFFFFFFFFFFFFFFFFFFFFFFFF AND DUP2 PUSH20 0xFFFFFFFFFFFFFFFFFFFFFFFFFFFFFFFFFFFFFFFF AND PUSH32 0x8BE0079C531659141344CD1FD0A4F28419497F9722A3DAAFE3B4186F6B6457E0 PUSH1 0x40 MLOAD PUSH1 0x40 MLOAD DUP1 SWAP2 SUB SWAP1 LOG3 POP POP JUMP JUMPDEST PUSH3 0x230 PUSH3 0x3D9 PUSH1 0x20 SHL PUSH1 0x20 SHR JUMP JUMPDEST PUSH11 0x52B7D2DCC80CD2E4000000 PUSH1 0x2 PUSH3 0x24A SWAP2 SWAP1 PUSH3 0x7BD JUMP JUMPDEST DUP2 PUSH1 0x0 ADD MLOAD GT ISZERO PUSH3 0x293 JUMPI PUSH1 0x40 MLOAD PUSH32 0x8C379A000000000000000000000000000000000000000000000000000000000 DUP2 MSTORE PUSH1 0x4 ADD PUSH3 0x28A SWAP1 PUSH3 0x869 JUMP JUMPDEST PUSH1 0x40 MLOAD DUP1 SWAP2 SUB SWAP1 REVERT JUMPDEST PUSH3 0xF4240 DUP2 PUSH1 0x0 ADD MLOAD LT ISZERO PUSH3 0x2E0 JUMPI PUSH1 0x40 MLOAD PUSH32 0x8C379A000000000000000000000000000000000000000000000000000000000 DUP2 MSTORE PUSH1 0x4 ADD PUSH3 0x2D7 SWAP1 PUSH3 0x8DB JUMP JUMPDEST PUSH1 0x40 MLOAD DUP1 SWAP2 SUB SWAP1 REVERT JUMPDEST DUP1 PUSH1 0x1 PUSH1 0x0 DUP3 ADD MLOAD DUP2 PUSH1 0x0 ADD SSTORE PUSH1 0x20 DUP3 ADD MLOAD DUP2 PUSH1 0x1 ADD SSTORE PUSH1 0x40 DUP3 ADD MLOAD DUP2 PUSH1 0x2 ADD SSTORE SWAP1 POP POP PUSH32 0x5AE532796EEEB25558550DAB6B9AFF6802247590213AD83AD7366B1557B1CBF0 DUP2 PUSH1 0x40 MLOAD PUSH3 0x335 SWAP2 SWAP1 PUSH3 0x956 JUMP JUMPDEST PUSH1 0x40 MLOAD DUP1 SWAP2 SUB SWAP1 LOG1 POP JUMP JUMPDEST PUSH3 0x350 PUSH3 0x3D9 PUSH1 0x20 SHL PUSH1 0x20 SHR JUMP JUMPDEST PUSH1 0x0 PUSH20 0xFFFFFFFFFFFFFFFFFFFFFFFFFFFFFFFFFFFFFFFF AND DUP2 PUSH20 0xFFFFFFFFFFFFFFFFFFFFFFFFFFFFFFFFFFFFFFFF AND SUB PUSH3 0x3C5 JUMPI PUSH1 0x0 PUSH1 0x40 MLOAD PUSH32 0x1E4FBDF700000000000000000000000000000000000000000000000000000000 DUP2 MSTORE PUSH1 0x4 ADD PUSH3 0x3BC SWAP2 SWAP1 PUSH3 0x771 JUMP JUMPDEST PUSH1 0x40 MLOAD DUP1 SWAP2 SUB SWAP1 REVERT JUMPDEST PUSH3 0x3D6 DUP2 PUSH3 0x15C PUSH1 0x20 SHL PUSH1 0x20 SHR JUMP JUMPDEST POP JUMP JUMPDEST PUSH3 0x3E9 PUSH3 0x47B PUSH1 0x20 SHL PUSH1 0x20 SHR JUMP JUMPDEST PUSH20 0xFFFFFFFFFFFFFFFFFFFFFFFFFFFFFFFFFFFFFFFF AND PUSH3 0x40F PUSH3 0x483 PUSH1 0x20 SHL PUSH1 0x20 SHR JUMP JUMPDEST PUSH20 0xFFFFFFFFFFFFFFFFFFFFFFFFFFFFFFFFFFFFFFFF AND EQ PUSH3 0x479 JUMPI PUSH3 0x43B PUSH3 0x47B PUSH1 0x20 SHL PUSH1 0x20 SHR JUMP JUMPDEST PUSH1 0x40 MLOAD PUSH32 0x118CDAA700000000000000000000000000000000000000000000000000000000 DUP2 MSTORE PUSH1 0x4 ADD PUSH3 0x470 SWAP2 SWAP1 PUSH3 0x771 JUMP JUMPDEST PUSH1 0x40 MLOAD DUP1 SWAP2 SUB SWAP1 REVERT JUMPDEST JUMP JUMPDEST PUSH1 0x0 CALLER SWAP1 POP SWAP1 JUMP JUMPDEST PUSH1 0x0 DUP1 PUSH1 0x0 SWAP1 SLOAD SWAP1 PUSH2 0x100 EXP SWAP1 DIV PUSH20 0xFFFFFFFFFFFFFFFFFFFFFFFFFFFFFFFFFFFFFFFF AND SWAP1 POP SWAP1 JUMP JUMPDEST PUSH1 0x0 PUSH1 0x40 MLOAD SWAP1 POP SWAP1 JUMP JUMPDEST PUSH1 0x0 DUP1 REVERT JUMPDEST PUSH1 0x0 PUSH20 0xFFFFFFFFFFFFFFFFFFFFFFFFFFFFFFFFFFFFFFFF DUP3 AND SWAP1 POP SWAP2 SWAP1 POP JUMP JUMPDEST PUSH1 0x0 PUSH3 0x4E8 DUP3 PUSH3 0x4BB JUMP JUMPDEST SWAP1 POP SWAP2 SWAP1 POP JUMP JUMPDEST PUSH1 0x0 PUSH3 0x4FC DUP3 PUSH3 0x4DB JUMP JUMPDEST SWAP1 POP SWAP2 SWAP1 POP JUMP JUMPDEST PUSH3 0x50E DUP2 PUSH3 0x4EF JUMP JUMPDEST DUP2 EQ PUSH3 0x51A JUMPI PUSH1 0x0 DUP1 REVERT JUMPDEST POP JUMP JUMPDEST PUSH1 0x0 DUP2 MLOAD SWAP1 POP PUSH3 0x52E DUP2 PUSH3 0x503 JUMP JUMPDEST SWAP3 SWAP2 POP POP JUMP JUMPDEST PUSH1 0x0 PUSH3 0x541 DUP3 PUSH3 0x4DB JUMP JUMPDEST SWAP1 POP SWAP2 SWAP1 POP JUMP JUMPDEST PUSH3 0x553 DUP2 PUSH3 0x534 JUMP JUMPDEST DUP2 EQ PUSH3 0x55F JUMPI PUSH1 0x0 DUP1 REVERT JUMPDEST POP JUMP JUMPDEST PUSH1 0x0 DUP2 MLOAD SWAP1 POP PUSH3 0x573 DUP2 PUSH3 0x548 JUMP JUMPDEST SWAP3 SWAP2 POP POP JUMP JUMPDEST PUSH1 0x0 DUP1 REVERT JUMPDEST PUSH1 0x0 PUSH1 0x1F NOT PUSH1 0x1F DUP4 ADD AND SWAP1 POP SWAP2 SWAP1 POP JUMP JUMPDEST PUSH32 0x4E487B7100000000000000000000000000000000000000000000000000000000 PUSH1 0x0 MSTORE PUSH1 0x41 PUSH1 0x4 MSTORE PUSH1 0x24 PUSH1 0x0 REVERT JUMPDEST PUSH3 0x5C9 DUP3 PUSH3 0x57E JUMP JUMPDEST DUP2 ADD DUP2 DUP2 LT PUSH8 0xFFFFFFFFFFFFFFFF DUP3 GT OR ISZERO PUSH3 0x5EB JUMPI PUSH3 0x5EA PUSH3 0x58F JUMP JUMPDEST JUMPDEST DUP1 PUSH1 0x40 MSTORE POP POP POP JUMP JUMPDEST PUSH1 0x0 PUSH3 0x600 PUSH3 0x4AC JUMP JUMPDEST SWAP1 POP PUSH3 0x60E DUP3 DUP3 PUSH3 0x5BE JUMP JUMPDEST SWAP2 SWAP1 POP JUMP JUMPDEST PUSH1 0x0 DUP2 SWAP1 POP SWAP2 SWAP1 POP JUMP JUMPDEST PUSH3 0x628 DUP2 PUSH3 0x613 JUMP JUMPDEST DUP2 EQ PUSH3 0x634 JUMPI PUSH1 0x0 DUP1 REVERT JUMPDEST POP JUMP JUMPDEST PUSH1 0x0 DUP2 MLOAD SWAP1 POP PUSH3 0x648 DUP2 PUSH3 0x61D JUMP JUMPDEST SWAP3 SWAP2 POP POP JUMP JUMPDEST PUSH1 0x0 PUSH1 0x60 DUP3 DUP5 SUB SLT ISZERO PUSH3 0x667 JUMPI PUSH3 0x666 PUSH3 0x579 JUMP JUMPDEST JUMPDEST PUSH3 0x673 PUSH1 0x60 PUSH3 0x5F4 JUMP JUMPDEST SWAP1 POP PUSH1 0x0 PUSH3 0x685 DUP5 DUP3 DUP6 ADD PUSH3 0x637 JUMP JUMPDEST PUSH1 0x0 DUP4 ADD MSTORE POP PUSH1 0x20 PUSH3 0x69B DUP5 DUP3 DUP6 ADD PUSH3 0x637 JUMP JUMPDEST PUSH1 0x20 DUP4 ADD MSTORE POP PUSH1 0x40 PUSH3 0x6B1 DUP5 DUP3 DUP6 ADD PUSH3 0x637 JUMP JUMPDEST PUSH1 0x40 DUP4 ADD MSTORE POP SWAP3 SWAP2 POP POP JUMP JUMPDEST PUSH3 0x6C8 DUP2 PUSH3 0x4DB JUMP JUMPDEST DUP2 EQ PUSH3 0x6D4 JUMPI PUSH1 0x0 DUP1 REVERT JUMPDEST POP JUMP JUMPDEST PUSH1 0x0 DUP2 MLOAD SWAP1 POP PUSH3 0x6E8 DUP2 PUSH3 0x6BD JUMP JUMPDEST SWAP3 SWAP2 POP POP JUMP JUMPDEST PUSH1 0x0 DUP1 PUSH1 0x0 DUP1 PUSH1 0xC0 DUP6 DUP8 SUB SLT ISZERO PUSH3 0x70B JUMPI PUSH3 0x70A PUSH3 0x4B6 JUMP JUMPDEST JUMPDEST PUSH1 0x0 PUSH3 0x71B DUP8 DUP3 DUP9 ADD PUSH3 0x51D JUMP JUMPDEST SWAP5 POP POP PUSH1 0x20 PUSH3 0x72E DUP8 DUP3 DUP9 ADD PUSH3 0x562 JUMP JUMPDEST SWAP4 POP POP PUSH1 0x40 PUSH3 0x741 DUP8 DUP3 DUP9 ADD PUSH3 0x64E JUMP JUMPDEST SWAP3 POP POP PUSH1 0xA0 PUSH3 0x754 DUP8 DUP3 DUP9 ADD PUSH3 0x6D7 JUMP JUMPDEST SWAP2 POP POP SWAP3 SWAP6 SWAP2 SWAP5 POP SWAP3 POP JUMP JUMPDEST PUSH3 0x76B DUP2 PUSH3 0x4DB JUMP JUMPDEST DUP3 MSTORE POP POP JUMP JUMPDEST PUSH1 0x0 PUSH1 0x20 DUP3 ADD SWAP1 POP PUSH3 0x788 PUSH1 0x0 DUP4 ADD DUP5 PUSH3 0x760 JUMP JUMPDEST SWAP3 SWAP2 POP POP JUMP JUMPDEST PUSH32 0x4E487B7100000000000000000000000000000000000000000000000000000000 PUSH1 0x0 MSTORE PUSH1 0x11 PUSH1 0x4 MSTORE PUSH1 0x24 PUSH1 0x0 REVERT JUMPDEST PUSH1 0x0 PUSH3 0x7CA DUP3 PUSH3 0x613 JUMP JUMPDEST SWAP2 POP PUSH3 0x7D7 DUP4 PUSH3 0x613 JUMP JUMPDEST SWAP3 POP DUP3 DUP3 MUL PUSH3 0x7E7 DUP2 PUSH3 0x613 JUMP JUMPDEST SWAP2 POP DUP3 DUP3 DIV DUP5 EQ DUP4 ISZERO OR PUSH3 0x801 JUMPI PUSH3 0x800 PUSH3 0x78E JUMP JUMPDEST JUMPDEST POP SWAP3 SWAP2 POP POP JUMP JUMPDEST PUSH1 0x0 DUP3 DUP3 MSTORE PUSH1 0x20 DUP3 ADD SWAP1 POP SWAP3 SWAP2 POP POP JUMP JUMPDEST PUSH32 0x54504D3A207072696365206D61726B757020746F6F2068696768000000000000 PUSH1 0x0 DUP3 ADD MSTORE POP JUMP JUMPDEST PUSH1 0x0 PUSH3 0x851 PUSH1 0x1A DUP4 PUSH3 0x808 JUMP JUMPDEST SWAP2 POP PUSH3 0x85E DUP3 PUSH3 0x819 JUMP JUMPDEST PUSH1 0x20 DUP3 ADD SWAP1 POP SWAP2 SWAP1 POP JUMP JUMPDEST PUSH1 0x0 PUSH1 0x20 DUP3 ADD SWAP1 POP DUP2 DUP2 SUB PUSH1 0x0 DUP4 ADD MSTORE PUSH3 0x884 DUP2 PUSH3 0x842 JUMP JUMPDEST SWAP1 POP SWAP2 SWAP1 POP JUMP JUMPDEST PUSH32 0x54504D3A207072696365206D61726B757020746F6F206C6F7700000000000000 PUSH1 0x0 DUP3 ADD MSTORE POP JUMP JUMPDEST PUSH1 0x0 PUSH3 0x8C3 PUSH1 0x19 DUP4 PUSH3 0x808 JUMP JUMPDEST SWAP2 POP PUSH3 0x8D0 DUP3 PUSH3 0x88B JUMP JUMPDEST PUSH1 0x20 DUP3 ADD SWAP1 POP SWAP2 SWAP1 POP JUMP JUMPDEST PUSH1 0x0 PUSH1 0x20 DUP3 ADD SWAP1 POP DUP2 DUP2 SUB PUSH1 0x0 DUP4 ADD MSTORE PUSH3 0x8F6 DUP2 PUSH3 0x8B4 JUMP JUMPDEST SWAP1 POP SWAP2 SWAP1 POP JUMP JUMPDEST PUSH3 0x908 DUP2 PUSH3 0x613 JUMP JUMPDEST DUP3 MSTORE POP POP JUMP JUMPDEST PUSH1 0x60 DUP3 ADD PUSH1 0x0 DUP3 ADD MLOAD PUSH3 0x926 PUSH1 0x0 DUP6 ADD DUP3 PUSH3 0x8FD JUMP JUMPDEST POP PUSH1 0x20 DUP3 ADD MLOAD PUSH3 0x93B PUSH1 0x20 DUP6 ADD DUP3 PUSH3 0x8FD JUMP JUMPDEST POP PUSH1 0x40 DUP3 ADD MLOAD PUSH3 0x950 PUSH1 0x40 DUP6 ADD DUP3 PUSH3 0x8FD JUMP JUMPDEST POP POP POP POP JUMP JUMPDEST PUSH1 0x0 PUSH1 0x60 DUP3 ADD SWAP1 POP PUSH3 0x96D PUSH1 0x0 DUP4 ADD DUP5 PUSH3 0x90E JUMP JUMPDEST SWAP3 SWAP2 POP POP JUMP JUMPDEST PUSH1 0x80 MLOAD PUSH1 0xA0 MLOAD PUSH2 0x2150 PUSH3 0x9E6 PUSH1 0x0 CODECOPY PUSH1 0x0 DUP2 DUP2 PUSH2 0x59E ADD MSTORE DUP2 DUP2 PUSH2 0xA14 ADD MSTORE DUP2 DUP2 PUSH2 0xD1E ADD MSTORE DUP2 DUP2 PUSH2 0xD58 ADD MSTORE PUSH2 0xEFA ADD MSTORE PUSH1 0x0 DUP2 DUP2 PUSH2 0x402 ADD MSTORE DUP2 DUP2 PUSH2 0x499 ADD MSTORE DUP2 DUP2 PUSH2 0x5E4 ADD MSTORE DUP2 DUP2 PUSH2 0x71E ADD MSTORE DUP2 DUP2 PUSH2 0x7A8 ADD MSTORE DUP2 DUP2 PUSH2 0x838 ADD MSTORE DUP2 DUP2 PUSH2 0x8D7 ADD MSTORE PUSH2 0xC02 ADD MSTORE PUSH2 0x2150 PUSH1 0x0 RETURN INVALID PUSH1 0x80 PUSH1 0x40 MSTORE PUSH1 0x4 CALLDATASIZE LT PUSH2 0x102 JUMPI PUSH1 0x0 CALLDATALOAD PUSH1 0xE0 SHR DUP1 PUSH4 0xB1A6CFEC GT PUSH2 0x95 JUMPI DUP1 PUSH4 0xD0E30DB0 GT PUSH2 0x64 JUMPI DUP1 PUSH4 0xD0E30DB0 EQ PUSH2 0x331 JUMPI DUP1 PUSH4 0xE1D8153C EQ PUSH2 0x33B JUMPI DUP1 PUSH4 0xF2FDE38B EQ PUSH2 0x366 JUMPI DUP1 PUSH4 0xF465C77E EQ PUSH2 0x38F JUMPI DUP1 PUSH4 0xFC0C546A EQ PUSH2 0x3CD JUMPI PUSH2 0x157 JUMP JUMPDEST DUP1 PUSH4 0xB1A6CFEC EQ PUSH2 0x29D JUMPI DUP1 PUSH4 0xBB9FE6BF EQ PUSH2 0x2C6 JUMPI DUP1 PUSH4 0xC23A5CEA EQ PUSH2 0x2DD JUMPI DUP1 PUSH4 0xC399EC88 EQ PUSH2 0x306 JUMPI PUSH2 0x157 JUMP JUMPDEST DUP1 PUSH4 0x8DA5CB5B GT PUSH2 0xD1 JUMPI DUP1 PUSH4 0x8DA5CB5B EQ PUSH2 0x1F5 JUMPI DUP1 PUSH4 0x9E281A98 EQ PUSH2 0x220 JUMPI DUP1 PUSH4 0xA9A23409 EQ PUSH2 0x249 JUMPI DUP1 PUSH4 0xB0D691FE EQ PUSH2 0x272 JUMPI PUSH2 0x157 JUMP JUMPDEST DUP1 PUSH4 0x396CB60 EQ PUSH2 0x15C JUMPI DUP1 PUSH4 0x205C2878 EQ PUSH2 0x178 JUMPI DUP1 PUSH4 0x715018A6 EQ PUSH2 0x1A1 JUMPI DUP1 PUSH4 0x7C986AAC EQ PUSH2 0x1B8 JUMPI PUSH2 0x157 JUMP JUMPDEST CALLDATASIZE PUSH2 0x157 JUMPI CALLER PUSH20 0xFFFFFFFFFFFFFFFFFFFFFFFFFFFFFFFFFFFFFFFF AND PUSH32 0x88A5966D370B9919B20F3E2C13FF65706F196A4E32CC2C12BF57088F88525874 CALLVALUE PUSH1 0x40 MLOAD PUSH2 0x14D SWAP2 SWAP1 PUSH2 0x130D JUMP JUMPDEST PUSH1 0x40 MLOAD DUP1 SWAP2 SUB SWAP1 LOG2 STOP JUMPDEST PUSH1 0x0 DUP1 REVERT JUMPDEST PUSH2 0x176 PUSH1 0x4 DUP1 CALLDATASIZE SUB DUP2 ADD SWAP1 PUSH2 0x171 SWAP2 SWAP1 PUSH2 0x1378 JUMP JUMPDEST PUSH2 0x3F8 JUMP JUMPDEST STOP JUMPDEST CALLVALUE DUP1 ISZERO PUSH2 0x184 JUMPI PUSH1 0x0 DUP1 REVERT JUMPDEST POP PUSH2 0x19F PUSH1 0x4 DUP1 CALLDATASIZE SUB DUP2 ADD SWAP1 PUSH2 0x19A SWAP2 SWAP1 PUSH2 0x142F JUMP JUMPDEST PUSH2 0x48F JUMP JUMPDEST STOP JUMPDEST CALLVALUE DUP1 ISZERO PUSH2 0x1AD JUMPI PUSH1 0x0 DUP1 REVERT JUMPDEST POP PUSH2 0x1B6 PUSH2 0x528 JUMP JUMPDEST STOP JUMPDEST CALLVALUE DUP1 ISZERO PUSH2 0x1C4 JUMPI PUSH1 0x0 DUP1 REVERT JUMPDEST POP PUSH2 0x1DF PUSH1 0x4 DUP1 CALLDATASIZE SUB DUP2 ADD SWAP1 PUSH2 0x1DA SWAP2 SWAP1 PUSH2 0x146F JUMP JUMPDEST PUSH2 0x53C JUMP JUMPDEST PUSH1 0x40 MLOAD PUSH2 0x1EC SWAP2 SWAP1 PUSH2 0x130D JUMP JUMPDEST PUSH1 0x40 MLOAD DUP1 SWAP2 SUB SWAP1 RETURN JUMPDEST CALLVALUE DUP1 ISZERO PUSH2 0x201 JUMPI PUSH1 0x0 DUP1 REVERT JUMPDEST POP PUSH2 0x20A PUSH2 0x568 JUMP JUMPDEST PUSH1 0x40 MLOAD PUSH2 0x217 SWAP2 SWAP1 PUSH2 0x14D0 JUMP JUMPDEST PUSH1 0x40 MLOAD DUP1 SWAP2 SUB SWAP1 RETURN JUMPDEST CALLVALUE DUP1 ISZERO PUSH2 0x22C JUMPI PUSH1 0x0 DUP1 REVERT JUMPDEST POP PUSH2 0x247 PUSH1 0x4 DUP1 CALLDATASIZE SUB DUP2 ADD SWAP1 PUSH2 0x242 SWAP2 SWAP1 PUSH2 0x1517 JUMP JUMPDEST PUSH2 0x591 JUMP JUMPDEST STOP JUMPDEST CALLVALUE DUP1 ISZERO PUSH2 0x255 JUMPI PUSH1 0x0 DUP1 REVERT JUMPDEST POP PUSH2 0x270 PUSH1 0x4 DUP1 CALLDATASIZE SUB DUP2 ADD SWAP1 PUSH2 0x26B SWAP2 SWAP1 PUSH2 0x15E1 JUMP JUMPDEST PUSH2 0x5C8 JUMP JUMPDEST STOP JUMPDEST CALLVALUE DUP1 ISZERO PUSH2 0x27E JUMPI PUSH1 0x0 DUP1 REVERT JUMPDEST POP PUSH2 0x287 PUSH2 0x5E2 JUMP JUMPDEST PUSH1 0x40 MLOAD PUSH2 0x294 SWAP2 SWAP1 PUSH2 0x16B4 JUMP JUMPDEST PUSH1 0x40 MLOAD DUP1 SWAP2 SUB SWAP1 RETURN JUMPDEST CALLVALUE DUP1 ISZERO PUSH2 0x2A9 JUMPI PUSH1 0x0 DUP1 REVERT JUMPDEST POP PUSH2 0x2C4 PUSH1 0x4 DUP1 CALLDATASIZE SUB DUP2 ADD SWAP1 PUSH2 0x2BF SWAP2 SWAP1 PUSH2 0x17C4 JUMP JUMPDEST PUSH2 0x606 JUMP JUMPDEST STOP JUMPDEST CALLVALUE DUP1 ISZERO PUSH2 0x2D2 JUMPI PUSH1 0x0 DUP1 REVERT JUMPDEST POP PUSH2 0x2DB PUSH2 0x714 JUMP JUMPDEST STOP JUMPDEST CALLVALUE DUP1 ISZERO PUSH2 0x2E9 JUMPI PUSH1 0x0 DUP1 REVERT JUMPDEST POP PUSH2 0x304 PUSH1 0x4 DUP1 CALLDATASIZE SUB DUP2 ADD SWAP1 PUSH2 0x2FF SWAP2 SWAP1 PUSH2 0x17F1 JUMP JUMPDEST PUSH2 0x79E JUMP JUMPDEST STOP JUMPDEST CALLVALUE DUP1 ISZERO PUSH2 0x312 JUMPI PUSH1 0x0 DUP1 REVERT JUMPDEST POP PUSH2 0x31B PUSH2 0x834 JUMP JUMPDEST PUSH1 0x40 MLOAD PUSH2 0x328 SWAP2 SWAP1 PUSH2 0x130D JUMP JUMPDEST PUSH1 0x40 MLOAD DUP1 SWAP2 SUB SWAP1 RETURN JUMPDEST PUSH2 0x339 PUSH2 0x8D5 JUMP JUMPDEST STOP JUMPDEST CALLVALUE DUP1 ISZERO PUSH2 0x347 JUMPI PUSH1 0x0 DUP1 REVERT JUMPDEST POP PUSH2 0x350 PUSH2 0x963 JUMP JUMPDEST PUSH1 0x40 MLOAD PUSH2 0x35D SWAP2 SWAP1 PUSH2 0x130D JUMP JUMPDEST PUSH1 0x40 MLOAD DUP1 SWAP2 SUB SWAP1 RETURN JUMPDEST CALLVALUE DUP1 ISZERO PUSH2 0x372 JUMPI PUSH1 0x0 DUP1 REVERT JUMPDEST POP PUSH2 0x38D PUSH1 0x4 DUP1 CALLDATASIZE SUB DUP2 ADD SWAP1 PUSH2 0x388 SWAP2 SWAP1 PUSH2 0x181E JUMP JUMPDEST PUSH2 0x969 JUMP JUMPDEST STOP JUMPDEST CALLVALUE DUP1 ISZERO PUSH2 0x39B JUMPI PUSH1 0x0 DUP1 REVERT JUMPDEST POP PUSH2 0x3B6 PUSH1 0x4 DUP1 CALLDATASIZE SUB DUP2 ADD SWAP1 PUSH2 0x3B1 SWAP2 SWAP1 PUSH2 0x18A6 JUMP JUMPDEST PUSH2 0x9EF JUMP JUMPDEST PUSH1 0x40 MLOAD PUSH2 0x3C4 SWAP3 SWAP2 SWAP1 PUSH2 0x1994 JUMP JUMPDEST PUSH1 0x40 MLOAD DUP1 SWAP2 SUB SWAP1 RETURN JUMPDEST CALLVALUE DUP1 ISZERO PUSH2 0x3D9 JUMPI PUSH1 0x0 DUP1 REVERT JUMPDEST POP PUSH2 0x3E2 PUSH2 0xA12 JUMP JUMPDEST PUSH1 0x40 MLOAD PUSH2 0x3EF SWAP2 SWAP1 PUSH2 0x19E5 JUMP JUMPDEST PUSH1 0x40 MLOAD DUP1 SWAP2 SUB SWAP1 RETURN JUMPDEST PUSH2 0x400 PUSH2 0xA36 JUMP JUMPDEST PUSH32 0x0 PUSH20 0xFFFFFFFFFFFFFFFFFFFFFFFFFFFFFFFFFFFFFFFF AND PUSH4 0x396CB60 CALLVALUE DUP4 PUSH1 0x40 MLOAD DUP4 PUSH4 0xFFFFFFFF AND PUSH1 0xE0 SHL DUP2 MSTORE PUSH1 0x4 ADD PUSH2 0x45A SWAP2 SWAP1 PUSH2 0x1A0F JUMP JUMPDEST PUSH1 0x0 PUSH1 0x40 MLOAD DUP1 DUP4 SUB DUP2 DUP6 DUP9 DUP1 EXTCODESIZE ISZERO DUP1 ISZERO PUSH2 0x473 JUMPI PUSH1 0x0 DUP1 REVERT JUMPDEST POP GAS CALL ISZERO DUP1 ISZERO PUSH2 0x487 JUMPI RETURNDATASIZE PUSH1 0x0 DUP1 RETURNDATACOPY RETURNDATASIZE PUSH1 0x0 REVERT JUMPDEST POP POP POP POP POP POP JUMP JUMPDEST PUSH2 0x497 PUSH2 0xA36 JUMP JUMPDEST PUSH32 0x0 PUSH20 0xFFFFFFFFFFFFFFFFFFFFFFFFFFFFFFFFFFFFFFFF AND PUSH4 0x205C2878 DUP4 DUP4 PUSH1 0x40 MLOAD DUP4 PUSH4 0xFFFFFFFF AND PUSH1 0xE0 SHL DUP2 MSTORE PUSH1 0x4 ADD PUSH2 0x4F2 SWAP3 SWAP2 SWAP1 PUSH2 0x1A39 JUMP JUMPDEST PUSH1 0x0 PUSH1 0x40 MLOAD DUP1 DUP4 SUB DUP2 PUSH1 0x0 DUP8 DUP1 EXTCODESIZE ISZERO DUP1 ISZERO PUSH2 0x50C JUMPI PUSH1 0x0 DUP1 REVERT JUMPDEST POP GAS CALL ISZERO DUP1 ISZERO PUSH2 0x520 JUMPI RETURNDATASIZE PUSH1 0x0 DUP1 RETURNDATACOPY RETURNDATASIZE PUSH1 0x0 REVERT JUMPDEST POP POP POP POP POP POP JUMP JUMPDEST PUSH2 0x530 PUSH2 0xA36 JUMP JUMPDEST PUSH2 0x53A PUSH1 0x0 PUSH2 0xABD JUMP JUMPDEST JUMP JUMPDEST PUSH1 0x0 DUP2 PUSH11 0x52B7D2DCC80CD2E4000000 DUP5 PUSH2 0x556 SWAP2 SWAP1 PUSH2 0x1A91 JUMP JUMPDEST PUSH2 0x560 SWAP2 SWAP1 PUSH2 0x1B02 JUMP JUMPDEST SWAP1 POP SWAP3 SWAP2 POP POP JUMP JUMPDEST PUSH1 0x0 DUP1 PUSH1 0x0 SWAP1 SLOAD SWAP1 PUSH2 0x100 EXP SWAP1 DIV PUSH20 0xFFFFFFFFFFFFFFFFFFFFFFFFFFFFFFFFFFFFFFFF AND SWAP1 POP SWAP1 JUMP JUMPDEST PUSH2 0x599 PUSH2 0xA36 JUMP JUMPDEST PUSH2 0x5C4 PUSH32 0x0 DUP4 DUP4 PUSH2 0xB81 JUMP JUMPDEST POP POP JUMP JUMPDEST PUSH2 0x5D0 PUSH2 0xC00 JUMP JUMPDEST PUSH2 0x5DC DUP5 DUP5 DUP5 DUP5 PUSH2 0xC90 JUMP JUMPDEST POP POP POP POP JUMP JUMPDEST PUSH32 0x0 DUP2 JUMP JUMPDEST PUSH2 0x60E PUSH2 0xA36 JUMP JUMPDEST PUSH11 0x52B7D2DCC80CD2E4000000 PUSH1 0x2 PUSH2 0x626 SWAP2 SWAP1 PUSH2 0x1A91 JUMP JUMPDEST DUP2 PUSH1 0x0 ADD MLOAD GT ISZERO PUSH2 0x66C JUMPI PUSH1 0x40 MLOAD PUSH32 0x8C379A000000000000000000000000000000000000000000000000000000000 DUP2 MSTORE PUSH1 0x4 ADD PUSH2 0x663 SWAP1 PUSH2 0x1B90 JUMP JUMPDEST PUSH1 0x40 MLOAD DUP1 SWAP2 SUB SWAP1 REVERT JUMPDEST PUSH3 0xF4240 DUP2 PUSH1 0x0 ADD MLOAD LT ISZERO PUSH2 0x6B6 JUMPI PUSH1 0x40 MLOAD PUSH32 0x8C379A000000000000000000000000000000000000000000000000000000000 DUP2 MSTORE PUSH1 0x4 ADD PUSH2 0x6AD SWAP1 PUSH2 0x1BFC JUMP JUMPDEST PUSH1 0x40 MLOAD DUP1 SWAP2 SUB SWAP1 REVERT JUMPDEST DUP1 PUSH1 0x1 PUSH1 0x0 DUP3 ADD MLOAD DUP2 PUSH1 0x0 ADD SSTORE PUSH1 0x20 DUP3 ADD MLOAD DUP2 PUSH1 0x1 ADD SSTORE PUSH1 0x40 DUP3 ADD MLOAD DUP2 PUSH1 0x2 ADD SSTORE SWAP1 POP POP PUSH32 0x5AE532796EEEB25558550DAB6B9AFF6802247590213AD83AD7366B1557B1CBF0 DUP2 PUSH1 0x40 MLOAD PUSH2 0x709 SWAP2 SWAP1 PUSH2 0x1C6D JUMP JUMPDEST PUSH1 0x40 MLOAD DUP1 SWAP2 SUB SWAP1 LOG1 POP JUMP JUMPDEST PUSH2 0x71C PUSH2 0xA36 JUMP JUMPDEST PUSH32 0x0 PUSH20 0xFFFFFFFFFFFFFFFFFFFFFFFFFFFFFFFFFFFFFFFF AND PUSH4 0xBB9FE6BF PUSH1 0x40 MLOAD DUP2 PUSH4 0xFFFFFFFF AND PUSH1 0xE0 SHL DUP2 MSTORE PUSH1 0x4 ADD PUSH1 0x0 PUSH1 0x40 MLOAD DUP1 DUP4 SUB DUP2 PUSH1 0x0 DUP8 DUP1 EXTCODESIZE ISZERO DUP1 ISZERO PUSH2 0x784 JUMPI PUSH1 0x0 DUP1 REVERT JUMPDEST POP GAS CALL ISZERO DUP1 ISZERO PUSH2 0x798 JUMPI RETURNDATASIZE PUSH1 0x0 DUP1 RETURNDATACOPY RETURNDATASIZE PUSH1 0x0 REVERT JUMPDEST POP POP POP POP JUMP JUMPDEST PUSH2 0x7A6 PUSH2 0xA36 JUMP JUMPDEST PUSH32 0x0 PUSH20 0xFFFFFFFFFFFFFFFFFFFFFFFFFFFFFFFFFFFFFFFF AND PUSH4 0xC23A5CEA DUP3 PUSH1 0x40 MLOAD DUP3 PUSH4 0xFFFFFFFF AND PUSH1 0xE0 SHL DUP2 MSTORE PUSH1 0x4 ADD PUSH2 0x7FF SWAP2 SWAP1 PUSH2 0x1C88 JUMP JUMPDEST PUSH1 0x0 PUSH1 0x40 MLOAD DUP1 DUP4 SUB DUP2 PUSH1 0x0 DUP8 DUP1 EXTCODESIZE ISZERO DUP1 ISZERO PUSH2 0x819 JUMPI PUSH1 0x0 DUP1 REVERT JUMPDEST POP GAS CALL ISZERO DUP1 ISZERO PUSH2 0x82D JUMPI RETURNDATASIZE PUSH1 0x0 DUP1 RETURNDATACOPY RETURNDATASIZE PUSH1 0x0 REVERT JUMPDEST POP POP POP POP POP JUMP JUMPDEST PUSH1 0x0 PUSH32 0x0 PUSH20 0xFFFFFFFFFFFFFFFFFFFFFFFFFFFFFFFFFFFFFFFF AND PUSH4 0x70A08231 ADDRESS PUSH1 0x40 MLOAD DUP3 PUSH4 0xFFFFFFFF AND PUSH1 0xE0 SHL DUP2 MSTORE PUSH1 0x4 ADD PUSH2 0x88F SWAP2 SWAP1 PUSH2 0x14D0 JUMP JUMPDEST PUSH1 0x20 PUSH1 0x40 MLOAD DUP1 DUP4 SUB DUP2 DUP7 GAS STATICCALL ISZERO DUP1 ISZERO PUSH2 0x8AC JUMPI RETURNDATASIZE PUSH1 0x0 DUP1 RETURNDATACOPY RETURNDATASIZE PUSH1 0x0 REVERT JUMPDEST POP POP POP POP PUSH1 0x40 MLOAD RETURNDATASIZE PUSH1 0x1F NOT PUSH1 0x1F DUP3 ADD AND DUP3 ADD DUP1 PUSH1 0x40 MSTORE POP DUP2 ADD SWAP1 PUSH2 0x8D0 SWAP2 SWAP1 PUSH2 0x1CB8 JUMP JUMPDEST SWAP1 POP SWAP1 JUMP JUMPDEST PUSH32 0x0 PUSH20 0xFFFFFFFFFFFFFFFFFFFFFFFFFFFFFFFFFFFFFFFF AND PUSH4 0xB760FAF9 CALLVALUE ADDRESS PUSH1 0x40 MLOAD DUP4 PUSH4 0xFFFFFFFF AND PUSH1 0xE0 SHL DUP2 MSTORE PUSH1 0x4 ADD PUSH2 0x92F SWAP2 SWAP1 PUSH2 0x14D0 JUMP JUMPDEST PUSH1 0x0 PUSH1 0x40 MLOAD DUP1 DUP4 SUB DUP2 DUP6 DUP9 DUP1 EXTCODESIZE ISZERO DUP1 ISZERO PUSH2 0x948 JUMPI PUSH1 0x0 DUP1 REVERT JUMPDEST POP GAS CALL ISZERO DUP1 ISZERO PUSH2 0x95C JUMPI RETURNDATASIZE PUSH1 0x0 DUP1 RETURNDATACOPY RETURNDATASIZE PUSH1 0x0 REVERT JUMPDEST POP POP POP POP POP JUMP JUMPDEST PUSH1 0x4 SLOAD DUP2 JUMP JUMPDEST PUSH2 0x971 PUSH2 0xA36 JUMP JUMPDEST PUSH1 0x0 PUSH20 0xFFFFFFFFFFFFFFFFFFFFFFFFFFFFFFFFFFFFFFFF AND DUP2 PUSH20 0xFFFFFFFFFFFFFFFFFFFFFFFFFFFFFFFFFFFFFFFF AND SUB PUSH2 0x9E3 JUMPI PUSH1 0x0 PUSH1 0x40 MLOAD PUSH32 0x1E4FBDF700000000000000000000000000000000000000000000000000000000 DUP2 MSTORE PUSH1 0x4 ADD PUSH2 0x9DA SWAP2 SWAP1 PUSH2 0x14D0 JUMP JUMPDEST PUSH1 0x40 MLOAD DUP1 SWAP2 SUB SWAP1 REVERT JUMPDEST PUSH2 0x9EC DUP2 PUSH2 0xABD JUMP JUMPDEST POP JUMP JUMPDEST PUSH1 0x60 PUSH1 0x0 PUSH2 0x9FB PUSH2 0xC00 JUMP JUMPDEST PUSH2 0xA06 DUP6 DUP6 DUP6 PUSH2 0xDEC JUMP JUMPDEST SWAP2 POP SWAP2 POP SWAP4 POP SWAP4 SWAP2 POP POP JUMP JUMPDEST PUSH32 0x0 DUP2 JUMP JUMPDEST PUSH2 0xA3E PUSH2 0xF9B JUMP JUMPDEST PUSH20 0xFFFFFFFFFFFFFFFFFFFFFFFFFFFFFFFFFFFFFFFF AND PUSH2 0xA5C PUSH2 0x568 JUMP JUMPDEST PUSH20 0xFFFFFFFFFFFFFFFFFFFFFFFFFFFFFFFFFFFFFFFF AND EQ PUSH2 0xABB JUMPI PUSH2 0xA7F PUSH2 0xF9B JUMP JUMPDEST PUSH1 0x40 MLOAD PUSH32 0x118CDAA700000000000000000000000000000000000000000000000000000000 DUP2 MSTORE PUSH1 0x4 ADD PUSH2 0xAB2 SWAP2 SWAP1 PUSH2 0x14D0 JUMP JUMPDEST PUSH1 0x40 MLOAD DUP1 SWAP2 SUB SWAP1 REVERT JUMPDEST JUMP JUMPDEST PUSH1 0x0 DUP1 PUSH1 0x0 SWAP1 SLOAD SWAP1 PUSH2 0x100 EXP SWAP1 DIV PUSH20 0xFFFFFFFFFFFFFFFFFFFFFFFFFFFFFFFFFFFFFFFF AND SWAP1 POP DUP2 PUSH1 0x0 DUP1 PUSH2 0x100 EXP DUP2 SLOAD DUP2 PUSH20 0xFFFFFFFFFFFFFFFFFFFFFFFFFFFFFFFFFFFFFFFF MUL NOT AND SWAP1 DUP4 PUSH20 0xFFFFFFFFFFFFFFFFFFFFFFFFFFFFFFFFFFFFFFFF AND MUL OR SWAP1 SSTORE POP DUP2 PUSH20 0xFFFFFFFFFFFFFFFFFFFFFFFFFFFFFFFFFFFFFFFF AND DUP2 PUSH20 0xFFFFFFFFFFFFFFFFFFFFFFFFFFFFFFFFFFFFFFFF AND PUSH32 0x8BE0079C531659141344CD1FD0A4F28419497F9722A3DAAFE3B4186F6B6457E0 PUSH1 0x40 MLOAD PUSH1 0x40 MLOAD DUP1 SWAP2 SUB SWAP1 LOG3 POP POP JUMP JUMPDEST PUSH2 0xBFB DUP4 DUP5 PUSH20 0xFFFFFFFFFFFFFFFFFFFFFFFFFFFFFFFFFFFFFFFF AND PUSH4 0xA9059CBB DUP6 DUP6 PUSH1 0x40 MLOAD PUSH1 0x24 ADD PUSH2 0xBB4 SWAP3 SWAP2 SWAP1 PUSH2 0x1CE5 JUMP JUMPDEST PUSH1 0x40 MLOAD PUSH1 0x20 DUP2 DUP4 SUB SUB DUP2 MSTORE SWAP1 PUSH1 0x40 MSTORE SWAP2 POP PUSH1 0xE0 SHL PUSH1 0x20 DUP3 ADD DUP1 MLOAD PUSH28 0xFFFFFFFFFFFFFFFFFFFFFFFFFFFFFFFFFFFFFFFFFFFFFFFFFFFFFFFF DUP4 DUP2 DUP4 AND OR DUP4 MSTORE POP POP POP POP PUSH2 0xFA3 JUMP JUMPDEST POP POP POP JUMP JUMPDEST PUSH32 0x0 PUSH20 0xFFFFFFFFFFFFFFFFFFFFFFFFFFFFFFFFFFFFFFFF AND CALLER PUSH20 0xFFFFFFFFFFFFFFFFFFFFFFFFFFFFFFFFFFFFFFFF AND EQ PUSH2 0xC8E JUMPI PUSH1 0x40 MLOAD PUSH32 0x8C379A000000000000000000000000000000000000000000000000000000000 DUP2 MSTORE PUSH1 0x4 ADD PUSH2 0xC85 SWAP1 PUSH2 0x1D5A JUMP JUMPDEST PUSH1 0x40 MLOAD DUP1 SWAP2 SUB SWAP1 REVERT JUMPDEST JUMP JUMPDEST PUSH1 0x0 PUSH1 0x1 PUSH1 0x0 ADD SLOAD SWAP1 POP PUSH1 0x0 DUP1 PUSH1 0x0 DUP1 DUP8 DUP8 DUP2 ADD SWAP1 PUSH2 0xCAF SWAP2 SWAP1 PUSH2 0x1D7A JUMP JUMPDEST SWAP4 POP SWAP4 POP SWAP4 POP SWAP4 POP PUSH1 0x0 PUSH2 0xCC3 DUP5 DUP5 PUSH2 0x103A JUMP JUMPDEST SWAP1 POP PUSH1 0x0 DUP7 PUSH11 0x52B7D2DCC80CD2E4000000 PUSH8 0x16345785D8A0000 MUL DUP2 PUSH2 0xCEC JUMPI PUSH2 0xCEB PUSH2 0x1AD3 JUMP JUMPDEST JUMPDEST DIV SWAP1 POP TIMESTAMP PUSH1 0x4 DUP2 SWAP1 SSTORE POP PUSH1 0x0 DUP3 PUSH1 0x1 DUP1 ADD SLOAD MUL DUP10 ADD SWAP1 POP PUSH1 0x0 PUSH2 0xD0F DUP3 DUP5 PUSH2 0x53C JUMP JUMPDEST SWAP1 POP DUP1 DUP9 GT ISZERO PUSH2 0xD4B JUMPI PUSH2 0xD46 PUSH32 0x0 DUP7 DUP4 DUP12 SUB PUSH2 0xB81 JUMP JUMPDEST PUSH2 0xD83 JUMP JUMPDEST DUP1 DUP9 LT ISZERO PUSH2 0xD82 JUMPI PUSH2 0xD81 PUSH32 0x0 DUP7 ADDRESS DUP12 DUP6 SUB PUSH2 0x1069 JUMP JUMPDEST JUMPDEST JUMPDEST DUP5 PUSH20 0xFFFFFFFFFFFFFFFFFFFFFFFFFFFFFFFFFFFFFFFF AND PUSH32 0x46CAA0511CF037F06F57A0BF273A2FF04229F5B12FB04675234A6CBE2E7F1A89 DUP3 DUP13 PUSH8 0x16345785D8A0000 PUSH1 0x40 MLOAD PUSH2 0xDD5 SWAP4 SWAP3 SWAP2 SWAP1 PUSH2 0x1DE1 JUMP JUMPDEST PUSH1 0x40 MLOAD DUP1 SWAP2 SUB SWAP1 LOG2 POP POP POP POP POP POP POP POP POP POP POP POP POP JUMP JUMPDEST PUSH1 0x60 PUSH1 0x0 DUP1 PUSH1 0x1 PUSH1 0x0 ADD SLOAD SWAP1 POP PUSH1 0x0 PUSH1 0x14 DUP8 DUP1 PUSH2 0x120 ADD SWAP1 PUSH2 0xE0E SWAP2 SWAP1 PUSH2 0x1E27 JUMP JUMPDEST SWAP1 POP SUB SWAP1 POP PUSH1 0x0 DUP2 EQ DUP1 PUSH2 0xE22 JUMPI POP PUSH1 0x20 DUP2 EQ JUMPDEST PUSH2 0xE61 JUMPI PUSH1 0x40 MLOAD PUSH32 0x8C379A000000000000000000000000000000000000000000000000000000000 DUP2 MSTORE PUSH1 0x4 ADD PUSH2 0xE58 SWAP1 PUSH2 0x1ED6 JUMP JUMPDEST PUSH1 0x40 MLOAD DUP1 SWAP2 SUB SWAP1 REVERT JUMPDEST PUSH1 0x0 DUP8 PUSH1 0xE0 ADD CALLDATALOAD PUSH1 0x1 DUP1 ADD SLOAD MUL DUP7 ADD SWAP1 POP PUSH1 0x0 DUP4 PUSH11 0x52B7D2DCC80CD2E4000000 PUSH8 0x16345785D8A0000 MUL DUP2 PUSH2 0xE99 JUMPI PUSH2 0xE98 PUSH2 0x1AD3 JUMP JUMPDEST JUMPDEST DIV SWAP1 POP PUSH1 0x20 DUP4 SUB PUSH2 0xEE7 JUMPI PUSH1 0x0 DUP10 DUP1 PUSH2 0x120 ADD SWAP1 PUSH2 0xEB7 SWAP2 SWAP1 PUSH2 0x1E27 JUMP JUMPDEST PUSH1 0x14 SWAP1 PUSH1 0x34 SWAP3 PUSH2 0xEC9 SWAP4 SWAP3 SWAP2 SWAP1 PUSH2 0x1F00 JUMP JUMPDEST SWAP1 PUSH2 0xED4 SWAP2 SWAP1 PUSH2 0x1F53 JUMP JUMPDEST PUSH1 0x0 SHR SWAP1 POP DUP2 DUP2 LT ISZERO PUSH2 0xEE5 JUMPI DUP1 SWAP2 POP JUMPDEST POP JUMPDEST PUSH1 0x0 PUSH2 0xEF3 DUP4 DUP4 PUSH2 0x53C JUMP JUMPDEST SWAP1 POP PUSH2 0xF33 PUSH32 0x0 DUP12 PUSH1 0x0 ADD PUSH1 0x20 DUP2 ADD SWAP1 PUSH2 0xF2C SWAP2 SWAP1 PUSH2 0x181E JUMP JUMPDEST ADDRESS DUP5 PUSH2 0x1069 JUMP JUMPDEST DUP1 DUP11 PUSH1 0xE0 ADD CALLDATALOAD DUP12 PUSH2 0x100 ADD CALLDATALOAD DUP13 PUSH1 0x0 ADD PUSH1 0x20 DUP2 ADD SWAP1 PUSH2 0xF52 SWAP2 SWAP1 PUSH2 0x181E JUMP JUMPDEST PUSH1 0x40 MLOAD PUSH1 0x20 ADD PUSH2 0xF65 SWAP5 SWAP4 SWAP3 SWAP2 SWAP1 PUSH2 0x1FB2 JUMP JUMPDEST PUSH1 0x40 MLOAD PUSH1 0x20 DUP2 DUP4 SUB SUB DUP2 MSTORE SWAP1 PUSH1 0x40 MSTORE SWAP7 POP PUSH2 0xF8C PUSH1 0x0 PUSH1 0x1 PUSH1 0x2 ADD SLOAD PUSH1 0x4 SLOAD ADD PUSH1 0x0 PUSH2 0x10EB JUMP JUMPDEST SWAP6 POP POP POP POP POP POP SWAP4 POP SWAP4 SWAP2 POP POP JUMP JUMPDEST PUSH1 0x0 CALLER SWAP1 POP SWAP1 JUMP JUMPDEST PUSH1 0x0 PUSH2 0xFCE DUP3 DUP5 PUSH20 0xFFFFFFFFFFFFFFFFFFFFFFFFFFFFFFFFFFFFFFFF AND PUSH2 0x1124 SWAP1 SWAP2 SWAP1 PUSH4 0xFFFFFFFF AND JUMP JUMPDEST SWAP1 POP PUSH1 0x0 DUP2 MLOAD EQ ISZERO DUP1 ISZERO PUSH2 0xFF3 JUMPI POP DUP1 DUP1 PUSH1 0x20 ADD SWAP1 MLOAD DUP2 ADD SWAP1 PUSH2 0xFF1 SWAP2 SWAP1 PUSH2 0x202F JUMP JUMPDEST ISZERO JUMPDEST ISZERO PUSH2 0x1035 JUMPI DUP3 PUSH1 0x40 MLOAD PUSH32 0x5274AFE700000000000000000000000000000000000000000000000000000000 DUP2 MSTORE PUSH1 0x4 ADD PUSH2 0x102C SWAP2 SWAP1 PUSH2 0x14D0 JUMP JUMPDEST PUSH1 0x40 MLOAD DUP1 SWAP2 SUB SWAP1 REVERT JUMPDEST POP POP POP JUMP JUMPDEST PUSH1 0x0 DUP2 DUP4 SUB PUSH2 0x104B JUMPI DUP3 SWAP1 POP PUSH2 0x1063 JUMP JUMPDEST PUSH2 0x1060 DUP4 BASEFEE DUP5 PUSH2 0x105B SWAP2 SWAP1 PUSH2 0x205C JUMP JUMPDEST PUSH2 0x113A JUMP JUMPDEST SWAP1 POP JUMPDEST SWAP3 SWAP2 POP POP JUMP JUMPDEST PUSH2 0x10E5 DUP5 DUP6 PUSH20 0xFFFFFFFFFFFFFFFFFFFFFFFFFFFFFFFFFFFFFFFF AND PUSH4 0x23B872DD DUP7 DUP7 DUP7 PUSH1 0x40 MLOAD PUSH1 0x24 ADD PUSH2 0x109E SWAP4 SWAP3 SWAP2 SWAP1 PUSH2 0x2090 JUMP JUMPDEST PUSH1 0x40 MLOAD PUSH1 0x20 DUP2 DUP4 SUB SUB DUP2 MSTORE SWAP1 PUSH1 0x40 MSTORE SWAP2 POP PUSH1 0xE0 SHL PUSH1 0x20 DUP3 ADD DUP1 MLOAD PUSH28 0xFFFFFFFFFFFFFFFFFFFFFFFFFFFFFFFFFFFFFFFFFFFFFFFFFFFFFFFF DUP4 DUP2 DUP4 AND OR DUP4 MSTORE POP POP POP POP PUSH2 0xFA3 JUMP JUMPDEST POP POP POP POP JUMP JUMPDEST PUSH1 0x0 PUSH1 0xD0 DUP3 PUSH6 0xFFFFFFFFFFFF AND SWAP1 SHL PUSH1 0xA0 DUP5 PUSH6 0xFFFFFFFFFFFF AND SWAP1 SHL DUP6 PUSH2 0x1113 JUMPI PUSH1 0x0 PUSH2 0x1116 JUMP JUMPDEST PUSH1 0x1 JUMPDEST PUSH1 0xFF AND OR OR SWAP1 POP SWAP4 SWAP3 POP POP POP JUMP JUMPDEST PUSH1 0x60 PUSH2 0x1132 DUP4 DUP4 PUSH1 0x0 PUSH2 0x1153 JUMP JUMPDEST SWAP1 POP SWAP3 SWAP2 POP POP JUMP JUMPDEST PUSH1 0x0 DUP2 DUP4 LT PUSH2 0x1149 JUMPI DUP2 PUSH2 0x114B JUMP JUMPDEST DUP3 JUMPDEST SWAP1 POP SWAP3 SWAP2 POP POP JUMP JUMPDEST PUSH1 0x60 DUP2 SELFBALANCE LT ISZERO PUSH2 0x119A JUMPI ADDRESS PUSH1 0x40 MLOAD PUSH32 0xCD78605900000000000000000000000000000000000000000000000000000000 DUP2 MSTORE PUSH1 0x4 ADD PUSH2 0x1191 SWAP2 SWAP1 PUSH2 0x14D0 JUMP JUMPDEST PUSH1 0x40 MLOAD DUP1 SWAP2 SUB SWAP1 REVERT JUMPDEST PUSH1 0x0 DUP1 DUP6 PUSH20 0xFFFFFFFFFFFFFFFFFFFFFFFFFFFFFFFFFFFFFFFF AND DUP5 DUP7 PUSH1 0x40 MLOAD PUSH2 0x11C3 SWAP2 SWAP1 PUSH2 0x2103 JUMP JUMPDEST PUSH1 0x0 PUSH1 0x40 MLOAD DUP1 DUP4 SUB DUP2 DUP6 DUP8 GAS CALL SWAP3 POP POP POP RETURNDATASIZE DUP1 PUSH1 0x0 DUP2 EQ PUSH2 0x1200 JUMPI PUSH1 0x40 MLOAD SWAP2 POP PUSH1 0x1F NOT PUSH1 0x3F RETURNDATASIZE ADD AND DUP3 ADD PUSH1 0x40 MSTORE RETURNDATASIZE DUP3 MSTORE RETURNDATASIZE PUSH1 0x0 PUSH1 0x20 DUP5 ADD RETURNDATACOPY PUSH2 0x1205 JUMP JUMPDEST PUSH1 0x60 SWAP2 POP JUMPDEST POP SWAP2 POP SWAP2 POP PUSH2 0x1215 DUP7 DUP4 DUP4 PUSH2 0x1220 JUMP JUMPDEST SWAP3 POP POP POP SWAP4 SWAP3 POP POP POP JUMP JUMPDEST PUSH1 0x60 DUP3 PUSH2 0x1235 JUMPI PUSH2 0x1230 DUP3 PUSH2 0x12AF JUMP JUMPDEST PUSH2 0x12A7 JUMP JUMPDEST PUSH1 0x0 DUP3 MLOAD EQ DUP1 ISZERO PUSH2 0x125D JUMPI POP PUSH1 0x0 DUP5 PUSH20 0xFFFFFFFFFFFFFFFFFFFFFFFFFFFFFFFFFFFFFFFF AND EXTCODESIZE EQ JUMPDEST ISZERO PUSH2 0x129F JUMPI DUP4 PUSH1 0x40 MLOAD PUSH32 0x9996B31500000000000000000000000000000000000000000000000000000000 DUP2 MSTORE PUSH1 0x4 ADD PUSH2 0x1296 SWAP2 SWAP1 PUSH2 0x14D0 JUMP JUMPDEST PUSH1 0x40 MLOAD DUP1 SWAP2 SUB SWAP1 REVERT JUMPDEST DUP2 SWAP1 POP PUSH2 0x12A8 JUMP JUMPDEST JUMPDEST SWAP4 SWAP3 POP POP POP JUMP JUMPDEST PUSH1 0x0 DUP2 MLOAD GT ISZERO PUSH2 0x12C2 JUMPI DUP1 MLOAD DUP1 DUP3 PUSH1 0x20 ADD REVERT JUMPDEST PUSH1 0x40 MLOAD PUSH32 0x1425EA4200000000000000000000000000000000000000000000000000000000 DUP2 MSTORE PUSH1 0x4 ADD PUSH1 0x40 MLOAD DUP1 SWAP2 SUB SWAP1 REVERT JUMPDEST PUSH1 0x0 DUP2 SWAP1 POP SWAP2 SWAP1 POP JUMP JUMPDEST PUSH2 0x1307 DUP2 PUSH2 0x12F4 JUMP JUMPDEST DUP3 MSTORE POP POP JUMP JUMPDEST PUSH1 0x0 PUSH1 0x20 DUP3 ADD SWAP1 POP PUSH2 0x1322 PUSH1 0x0 DUP4 ADD DUP5 PUSH2 0x12FE JUMP JUMPDEST SWAP3 SWAP2 POP POP JUMP JUMPDEST PUSH1 0x0 PUSH1 0x40 MLOAD SWAP1 POP SWAP1 JUMP JUMPDEST PUSH1 0x0 DUP1 REVERT JUMPDEST PUSH1 0x0 DUP1 REVERT JUMPDEST PUSH1 0x0 PUSH4 0xFFFFFFFF DUP3 AND SWAP1 POP SWAP2 SWAP1 POP JUMP JUMPDEST PUSH2 0x1355 DUP2 PUSH2 0x133C JUMP JUMPDEST DUP2 EQ PUSH2 0x1360 JUMPI PUSH1 0x0 DUP1 REVERT JUMPDEST POP JUMP JUMPDEST PUSH1 0x0 DUP2 CALLDATALOAD SWAP1 POP PUSH2 0x1372 DUP2 PUSH2 0x134C JUMP JUMPDEST SWAP3 SWAP2 POP POP JUMP JUMPDEST PUSH1 0x0 PUSH1 0x20 DUP3 DUP5 SUB SLT ISZERO PUSH2 0x138E JUMPI PUSH2 0x138D PUSH2 0x1332 JUMP JUMPDEST JUMPDEST PUSH1 0x0 PUSH2 0x139C DUP5 DUP3 DUP6 ADD PUSH2 0x1363 JUMP JUMPDEST SWAP2 POP POP SWAP3 SWAP2 POP POP JUMP JUMPDEST PUSH1 0x0 PUSH20 0xFFFFFFFFFFFFFFFFFFFFFFFFFFFFFFFFFFFFFFFF DUP3 AND SWAP1 POP SWAP2 SWAP1 POP JUMP JUMPDEST PUSH1 0x0 PUSH2 0x13D0 DUP3 PUSH2 0x13A5 JUMP JUMPDEST SWAP1 POP SWAP2 SWAP1 POP JUMP JUMPDEST PUSH2 0x13E0 DUP2 PUSH2 0x13C5 JUMP JUMPDEST DUP2 EQ PUSH2 0x13EB JUMPI PUSH1 0x0 DUP1 REVERT JUMPDEST POP JUMP JUMPDEST PUSH1 0x0 DUP2 CALLDATALOAD SWAP1 POP PUSH2 0x13FD DUP2 PUSH2 0x13D7 JUMP JUMPDEST SWAP3 SWAP2 POP POP JUMP JUMPDEST PUSH2 0x140C DUP2 PUSH2 0x12F4 JUMP JUMPDEST DUP2 EQ PUSH2 0x1417 JUMPI PUSH1 0x0 DUP1 REVERT JUMPDEST POP JUMP JUMPDEST PUSH1 0x0 DUP2 CALLDATALOAD SWAP1 POP PUSH2 0x1429 DUP2 PUSH2 0x1403 JUMP JUMPDEST SWAP3 SWAP2 POP POP JUMP JUMPDEST PUSH1 0x0 DUP1 PUSH1 0x40 DUP4 DUP6 SUB SLT ISZERO PUSH2 0x1446 JUMPI PUSH2 0x1445 PUSH2 0x1332 JUMP JUMPDEST JUMPDEST PUSH1 0x0 PUSH2 0x1454 DUP6 DUP3 DUP7 ADD PUSH2 0x13EE JUMP JUMPDEST SWAP3 POP POP PUSH1 0x20 PUSH2 0x1465 DUP6 DUP3 DUP7 ADD PUSH2 0x141A JUMP JUMPDEST SWAP2 POP POP SWAP3 POP SWAP3 SWAP1 POP JUMP JUMPDEST PUSH1 0x0 DUP1 PUSH1 0x40 DUP4 DUP6 SUB SLT ISZERO PUSH2 0x1486 JUMPI PUSH2 0x1485 PUSH2 0x1332 JUMP JUMPDEST JUMPDEST PUSH1 0x0 PUSH2 0x1494 DUP6 DUP3 DUP7 ADD PUSH2 0x141A JUMP JUMPDEST SWAP3 POP POP PUSH1 0x20 PUSH2 0x14A5 DUP6 DUP3 DUP7 ADD PUSH2 0x141A JUMP JUMPDEST SWAP2 POP POP SWAP3 POP SWAP3 SWAP1 POP JUMP JUMPDEST PUSH1 0x0 PUSH2 0x14BA DUP3 PUSH2 0x13A5 JUMP JUMPDEST SWAP1 POP SWAP2 SWAP1 POP JUMP JUMPDEST PUSH2 0x14CA DUP2 PUSH2 0x14AF JUMP JUMPDEST DUP3 MSTORE POP POP JUMP JUMPDEST PUSH1 0x0 PUSH1 0x20 DUP3 ADD SWAP1 POP PUSH2 0x14E5 PUSH1 0x0 DUP4 ADD DUP5 PUSH2 0x14C1 JUMP JUMPDEST SWAP3 SWAP2 POP POP JUMP JUMPDEST PUSH2 0x14F4 DUP2 PUSH2 0x14AF JUMP JUMPDEST DUP2 EQ PUSH2 0x14FF JUMPI PUSH1 0x0 DUP1 REVERT JUMPDEST POP JUMP JUMPDEST PUSH1 0x0 DUP2 CALLDATALOAD SWAP1 POP PUSH2 0x1511 DUP2 PUSH2 0x14EB JUMP JUMPDEST SWAP3 SWAP2 POP POP JUMP JUMPDEST PUSH1 0x0 DUP1 PUSH1 0x40 DUP4 DUP6 SUB SLT ISZERO PUSH2 0x152E JUMPI PUSH2 0x152D PUSH2 0x1332 JUMP JUMPDEST JUMPDEST PUSH1 0x0 PUSH2 0x153C DUP6 DUP3 DUP7 ADD PUSH2 0x1502 JUMP JUMPDEST SWAP3 POP POP PUSH1 0x20 PUSH2 0x154D DUP6 DUP3 DUP7 ADD PUSH2 0x141A JUMP JUMPDEST SWAP2 POP POP SWAP3 POP SWAP3 SWAP1 POP JUMP JUMPDEST PUSH1 0x3 DUP2 LT PUSH2 0x1564 JUMPI PUSH1 0x0 DUP1 REVERT JUMPDEST POP JUMP JUMPDEST PUSH1 0x0 DUP2 CALLDATALOAD SWAP1 POP PUSH2 0x1576 DUP2 PUSH2 0x1557 JUMP JUMPDEST SWAP3 SWAP2 POP POP JUMP JUMPDEST PUSH1 0x0 DUP1 REVERT JUMPDEST PUSH1 0x0 DUP1 REVERT JUMPDEST PUSH1 0x0 DUP1 REVERT JUMPDEST PUSH1 0x0 DUP1 DUP4 PUSH1 0x1F DUP5 ADD SLT PUSH2 0x15A1 JUMPI PUSH2 0x15A0 PUSH2 0x157C JUMP JUMPDEST JUMPDEST DUP3 CALLDATALOAD SWAP1 POP PUSH8 0xFFFFFFFFFFFFFFFF DUP2 GT ISZERO PUSH2 0x15BE JUMPI PUSH2 0x15BD PUSH2 0x1581 JUMP JUMPDEST JUMPDEST PUSH1 0x20 DUP4 ADD SWAP2 POP DUP4 PUSH1 0x1 DUP3 MUL DUP4 ADD GT ISZERO PUSH2 0x15DA JUMPI PUSH2 0x15D9 PUSH2 0x1586 JUMP JUMPDEST JUMPDEST SWAP3 POP SWAP3 SWAP1 POP JUMP JUMPDEST PUSH1 0x0 DUP1 PUSH1 0x0 DUP1 PUSH1 0x60 DUP6 DUP8 SUB SLT ISZERO PUSH2 0x15FB JUMPI PUSH2 0x15FA PUSH2 0x1332 JUMP JUMPDEST JUMPDEST PUSH1 0x0 PUSH2 0x1609 DUP8 DUP3 DUP9 ADD PUSH2 0x1567 JUMP JUMPDEST SWAP5 POP POP PUSH1 0x20 DUP6 ADD CALLDATALOAD PUSH8 0xFFFFFFFFFFFFFFFF DUP2 GT ISZERO PUSH2 0x162A JUMPI PUSH2 0x1629 PUSH2 0x1337 JUMP JUMPDEST JUMPDEST PUSH2 0x1636 DUP8 DUP3 DUP9 ADD PUSH2 0x158B JUMP JUMPDEST SWAP4 POP SWAP4 POP POP PUSH1 0x40 PUSH2 0x1649 DUP8 DUP3 DUP9 ADD PUSH2 0x141A JUMP JUMPDEST SWAP2 POP POP SWAP3 SWAP6 SWAP2 SWAP5 POP SWAP3 POP JUMP JUMPDEST PUSH1 0x0 DUP2 SWAP1 POP SWAP2 SWAP1 POP JUMP JUMPDEST PUSH1 0x0 PUSH2 0x167A PUSH2 0x1675 PUSH2 0x1670 DUP5 PUSH2 0x13A5 JUMP JUMPDEST PUSH2 0x1655 JUMP JUMPDEST PUSH2 0x13A5 JUMP JUMPDEST SWAP1 POP SWAP2 SWAP1 POP JUMP JUMPDEST PUSH1 0x0 PUSH2 0x168C DUP3 PUSH2 0x165F JUMP JUMPDEST SWAP1 POP SWAP2 SWAP1 POP JUMP JUMPDEST PUSH1 0x0 PUSH2 0x169E DUP3 PUSH2 0x1681 JUMP JUMPDEST SWAP1 POP SWAP2 SWAP1 POP JUMP JUMPDEST PUSH2 0x16AE DUP2 PUSH2 0x1693 JUMP JUMPDEST DUP3 MSTORE POP POP JUMP JUMPDEST PUSH1 0x0 PUSH1 0x20 DUP3 ADD SWAP1 POP PUSH2 0x16C9 PUSH1 0x0 DUP4 ADD DUP5 PUSH2 0x16A5 JUMP JUMPDEST SWAP3 SWAP2 POP POP JUMP JUMPDEST PUSH1 0x0 DUP1 REVERT JUMPDEST PUSH1 0x0 PUSH1 0x1F NOT PUSH1 0x1F DUP4 ADD AND SWAP1 POP SWAP2 SWAP1 POP JUMP JUMPDEST PUSH32 0x4E487B7100000000000000000000000000000000000000000000000000000000 PUSH1 0x0 MSTORE PUSH1 0x41 PUSH1 0x4 MSTORE PUSH1 0x24 PUSH1 0x0 REVERT JUMPDEST PUSH2 0x171D DUP3 PUSH2 0x16D4 JUMP JUMPDEST DUP2 ADD DUP2 DUP2 LT PUSH8 0xFFFFFFFFFFFFFFFF DUP3 GT OR ISZERO PUSH2 0x173C JUMPI PUSH2 0x173B PUSH2 0x16E5 JUMP JUMPDEST JUMPDEST DUP1 PUSH1 0x40 MSTORE POP POP POP JUMP JUMPDEST PUSH1 0x0 PUSH2 0x174F PUSH2 0x1328 JUMP JUMPDEST SWAP1 POP PUSH2 0x175B DUP3 DUP3 PUSH2 0x1714 JUMP JUMPDEST SWAP2 SWAP1 POP JUMP JUMPDEST PUSH1 0x0 PUSH1 0x60 DUP3 DUP5 SUB SLT ISZERO PUSH2 0x1776 JUMPI PUSH2 0x1775 PUSH2 0x16CF JUMP JUMPDEST JUMPDEST PUSH2 0x1780 PUSH1 0x60 PUSH2 0x1745 JUMP JUMPDEST SWAP1 POP PUSH1 0x0 PUSH2 0x1790 DUP5 DUP3 DUP6 ADD PUSH2 0x141A JUMP JUMPDEST PUSH1 0x0 DUP4 ADD MSTORE POP PUSH1 0x20 PUSH2 0x17A4 DUP5 DUP3 DUP6 ADD PUSH2 0x141A JUMP JUMPDEST PUSH1 0x20 DUP4 ADD MSTORE POP PUSH1 0x40 PUSH2 0x17B8 DUP5 DUP3 DUP6 ADD PUSH2 0x141A JUMP JUMPDEST PUSH1 0x40 DUP4 ADD MSTORE POP SWAP3 SWAP2 POP POP JUMP JUMPDEST PUSH1 0x0 PUSH1 0x60 DUP3 DUP5 SUB SLT ISZERO PUSH2 0x17DA JUMPI PUSH2 0x17D9 PUSH2 0x1332 JUMP JUMPDEST JUMPDEST PUSH1 0x0 PUSH2 0x17E8 DUP5 DUP3 DUP6 ADD PUSH2 0x1760 JUMP JUMPDEST SWAP2 POP POP SWAP3 SWAP2 POP POP JUMP JUMPDEST PUSH1 0x0 PUSH1 0x20 DUP3 DUP5 SUB SLT ISZERO PUSH2 0x1807 JUMPI PUSH2 0x1806 PUSH2 0x1332 JUMP JUMPDEST JUMPDEST PUSH1 0x0 PUSH2 0x1815 DUP5 DUP3 DUP6 ADD PUSH2 0x13EE JUMP JUMPDEST SWAP2 POP POP SWAP3 SWAP2 POP POP JUMP JUMPDEST PUSH1 0x0 PUSH1 0x20 DUP3 DUP5 SUB SLT ISZERO PUSH2 0x1834 JUMPI PUSH2 0x1833 PUSH2 0x1332 JUMP JUMPDEST JUMPDEST PUSH1 0x0 PUSH2 0x1842 DUP5 DUP3 DUP6 ADD PUSH2 0x1502 JUMP JUMPDEST SWAP2 POP POP SWAP3 SWAP2 POP POP JUMP JUMPDEST PUSH1 0x0 DUP1 REVERT JUMPDEST PUSH1 0x0 PUSH2 0x160 DUP3 DUP5 SUB SLT ISZERO PUSH2 0x1867 JUMPI PUSH2 0x1866 PUSH2 0x184B JUMP JUMPDEST JUMPDEST DUP2 SWAP1 POP SWAP3 SWAP2 POP POP JUMP JUMPDEST PUSH1 0x0 DUP2 SWAP1 POP SWAP2 SWAP1 POP JUMP JUMPDEST PUSH2 0x1883 DUP2 PUSH2 0x1870 JUMP JUMPDEST DUP2 EQ PUSH2 0x188E JUMPI PUSH1 0x0 DUP1 REVERT JUMPDEST POP JUMP JUMPDEST PUSH1 0x0 DUP2 CALLDATALOAD SWAP1 POP PUSH2 0x18A0 DUP2 PUSH2 0x187A JUMP JUMPDEST SWAP3 SWAP2 POP POP JUMP JUMPDEST PUSH1 0x0 DUP1 PUSH1 0x0 PUSH1 0x60 DUP5 DUP7 SUB SLT ISZERO PUSH2 0x18BF JUMPI PUSH2 0x18BE PUSH2 0x1332 JUMP JUMPDEST JUMPDEST PUSH1 0x0 DUP5 ADD CALLDATALOAD PUSH8 0xFFFFFFFFFFFFFFFF DUP2 GT ISZERO PUSH2 0x18DD JUMPI PUSH2 0x18DC PUSH2 0x1337 JUMP JUMPDEST JUMPDEST PUSH2 0x18E9 DUP7 DUP3 DUP8 ADD PUSH2 0x1850 JUMP JUMPDEST SWAP4 POP POP PUSH1 0x20 PUSH2 0x18FA DUP7 DUP3 DUP8 ADD PUSH2 0x1891 JUMP JUMPDEST SWAP3 POP POP PUSH1 0x40 PUSH2 0x190B DUP7 DUP3 DUP8 ADD PUSH2 0x141A JUMP JUMPDEST SWAP2 POP POP SWAP3 POP SWAP3 POP SWAP3 JUMP JUMPDEST PUSH1 0x0 DUP2 MLOAD SWAP1 POP SWAP2 SWAP1 POP JUMP JUMPDEST PUSH1 0x0 DUP3 DUP3 MSTORE PUSH1 0x20 DUP3 ADD SWAP1 POP SWAP3 SWAP2 POP POP JUMP JUMPDEST PUSH1 0x0 JUMPDEST DUP4 DUP2 LT ISZERO PUSH2 0x194F JUMPI DUP1 DUP3 ADD MLOAD DUP2 DUP5 ADD MSTORE PUSH1 0x20 DUP2 ADD SWAP1 POP PUSH2 0x1934 JUMP JUMPDEST PUSH1 0x0 DUP5 DUP5 ADD MSTORE POP POP POP POP JUMP JUMPDEST PUSH1 0x0 PUSH2 0x1966 DUP3 PUSH2 0x1915 JUMP JUMPDEST PUSH2 0x1970 DUP2 DUP6 PUSH2 0x1920 JUMP JUMPDEST SWAP4 POP PUSH2 0x1980 DUP2 DUP6 PUSH1 0x20 DUP7 ADD PUSH2 0x1931 JUMP JUMPDEST PUSH2 0x1989 DUP2 PUSH2 0x16D4 JUMP JUMPDEST DUP5 ADD SWAP2 POP POP SWAP3 SWAP2 POP POP JUMP JUMPDEST PUSH1 0x0 PUSH1 0x40 DUP3 ADD SWAP1 POP DUP2 DUP2 SUB PUSH1 0x0 DUP4 ADD MSTORE PUSH2 0x19AE DUP2 DUP6 PUSH2 0x195B JUMP JUMPDEST SWAP1 POP PUSH2 0x19BD PUSH1 0x20 DUP4 ADD DUP5 PUSH2 0x12FE JUMP JUMPDEST SWAP4 SWAP3 POP POP POP JUMP JUMPDEST PUSH1 0x0 PUSH2 0x19CF DUP3 PUSH2 0x1681 JUMP JUMPDEST SWAP1 POP SWAP2 SWAP1 POP JUMP JUMPDEST PUSH2 0x19DF DUP2 PUSH2 0x19C4 JUMP JUMPDEST DUP3 MSTORE POP POP JUMP JUMPDEST PUSH1 0x0 PUSH1 0x20 DUP3 ADD SWAP1 POP PUSH2 0x19FA PUSH1 0x0 DUP4 ADD DUP5 PUSH2 0x19D6 JUMP JUMPDEST SWAP3 SWAP2 POP POP JUMP JUMPDEST PUSH2 0x1A09 DUP2 PUSH2 0x133C JUMP JUMPDEST DUP3 MSTORE POP POP JUMP JUMPDEST PUSH1 0x0 PUSH1 0x20 DUP3 ADD SWAP1 POP PUSH2 0x1A24 PUSH1 0x0 DUP4 ADD DUP5 PUSH2 0x1A00 JUMP JUMPDEST SWAP3 SWAP2 POP POP JUMP JUMPDEST PUSH2 0x1A33 DUP2 PUSH2 0x13C5 JUMP JUMPDEST DUP3 MSTORE POP POP JUMP JUMPDEST PUSH1 0x0 PUSH1 0x40 DUP3 ADD SWAP1 POP PUSH2 0x1A4E PUSH1 0x0 DUP4 ADD DUP6 PUSH2 0x1A2A JUMP JUMPDEST PUSH2 0x1A5B PUSH1 0x20 DUP4 ADD DUP5 PUSH2 0x12FE JUMP JUMPDEST SWAP4 SWAP3 POP POP POP JUMP JUMPDEST PUSH32 0x4E487B7100000000000000000000000000000000000000000000000000000000 PUSH1 0x0 MSTORE PUSH1 0x11 PUSH1 0x4 MSTORE PUSH1 0x24 PUSH1 0x0 REVERT JUMPDEST PUSH1 0x0 PUSH2 0x1A9C DUP3 PUSH2 0x12F4 JUMP JUMPDEST SWAP2 POP PUSH2 0x1AA7 DUP4 PUSH2 0x12F4 JUMP JUMPDEST SWAP3 POP DUP3 DUP3 MUL PUSH2 0x1AB5 DUP2 PUSH2 0x12F4 JUMP JUMPDEST SWAP2 POP DUP3 DUP3 DIV DUP5 EQ DUP4 ISZERO OR PUSH2 0x1ACC JUMPI PUSH2 0x1ACB PUSH2 0x1A62 JUMP JUMPDEST JUMPDEST POP SWAP3 SWAP2 POP POP JUMP JUMPDEST PUSH32 0x4E487B7100000000000000000000000000000000000000000000000000000000 PUSH1 0x0 MSTORE PUSH1 0x12 PUSH1 0x4 MSTORE PUSH1 0x24 PUSH1 0x0 REVERT JUMPDEST PUSH1 0x0 PUSH2 0x1B0D DUP3 PUSH2 0x12F4 JUMP JUMPDEST SWAP2 POP PUSH2 0x1B18 DUP4 PUSH2 0x12F4 JUMP JUMPDEST SWAP3 POP DUP3 PUSH2 0x1B28 JUMPI PUSH2 0x1B27 PUSH2 0x1AD3 JUMP JUMPDEST JUMPDEST DUP3 DUP3 DIV SWAP1 POP SWAP3 SWAP2 POP POP JUMP JUMPDEST PUSH1 0x0 DUP3 DUP3 MSTORE PUSH1 0x20 DUP3 ADD SWAP1 POP SWAP3 SWAP2 POP POP JUMP JUMPDEST PUSH32 0x54504D3A207072696365206D61726B757020746F6F2068696768000000000000 PUSH1 0x0 DUP3 ADD MSTORE POP JUMP JUMPDEST PUSH1 0x0 PUSH2 0x1B7A PUSH1 0x1A DUP4 PUSH2 0x1B33 JUMP JUMPDEST SWAP2 POP PUSH2 0x1B85 DUP3 PUSH2 0x1B44 JUMP JUMPDEST PUSH1 0x20 DUP3 ADD SWAP1 POP SWAP2 SWAP1 POP JUMP JUMPDEST PUSH1 0x0 PUSH1 0x20 DUP3 ADD SWAP1 POP DUP2 DUP2 SUB PUSH1 0x0 DUP4 ADD MSTORE PUSH2 0x1BA9 DUP2 PUSH2 0x1B6D JUMP JUMPDEST SWAP1 POP SWAP2 SWAP1 POP JUMP JUMPDEST PUSH32 0x54504D3A207072696365206D61726B757020746F6F206C6F7700000000000000 PUSH1 0x0 DUP3 ADD MSTORE POP JUMP JUMPDEST PUSH1 0x0 PUSH2 0x1BE6 PUSH1 0x19 DUP4 PUSH2 0x1B33 JUMP JUMPDEST SWAP2 POP PUSH2 0x1BF1 DUP3 PUSH2 0x1BB0 JUMP JUMPDEST PUSH1 0x20 DUP3 ADD SWAP1 POP SWAP2 SWAP1 POP JUMP JUMPDEST PUSH1 0x0 PUSH1 0x20 DUP3 ADD SWAP1 POP DUP2 DUP2 SUB PUSH1 0x0 DUP4 ADD MSTORE PUSH2 0x1C15 DUP2 PUSH2 0x1BD9 JUMP JUMPDEST SWAP1 POP SWAP2 SWAP1 POP JUMP JUMPDEST PUSH2 0x1C25 DUP2 PUSH2 0x12F4 JUMP JUMPDEST DUP3 MSTORE POP POP JUMP JUMPDEST PUSH1 0x60 DUP3 ADD PUSH1 0x0 DUP3 ADD MLOAD PUSH2 0x1C41 PUSH1 0x0 DUP6 ADD DUP3 PUSH2 0x1C1C JUMP JUMPDEST POP PUSH1 0x20 DUP3 ADD MLOAD PUSH2 0x1C54 PUSH1 0x20 DUP6 ADD DUP3 PUSH2 0x1C1C JUMP JUMPDEST POP PUSH1 0x40 DUP3 ADD MLOAD PUSH2 0x1C67 PUSH1 0x40 DUP6 ADD DUP3 PUSH2 0x1C1C JUMP JUMPDEST POP POP POP POP JUMP JUMPDEST PUSH1 0x0 PUSH1 0x60 DUP3 ADD SWAP1 POP PUSH2 0x1C82 PUSH1 0x0 DUP4 ADD DUP5 PUSH2 0x1C2B JUMP JUMPDEST SWAP3 SWAP2 POP POP JUMP JUMPDEST PUSH1 0x0 PUSH1 0x20 DUP3 ADD SWAP1 POP PUSH2 0x1C9D PUSH1 0x0 DUP4 ADD DUP5 PUSH2 0x1A2A JUMP JUMPDEST SWAP3 SWAP2 POP POP JUMP JUMPDEST PUSH1 0x0 DUP2 MLOAD SWAP1 POP PUSH2 0x1CB2 DUP2 PUSH2 0x1403 JUMP JUMPDEST SWAP3 SWAP2 POP POP JUMP JUMPDEST PUSH1 0x0 PUSH1 0x20 DUP3 DUP5 SUB SLT ISZERO PUSH2 0x1CCE JUMPI PUSH2 0x1CCD PUSH2 0x1332 JUMP JUMPDEST JUMPDEST PUSH1 0x0 PUSH2 0x1CDC DUP5 DUP3 DUP6 ADD PUSH2 0x1CA3 JUMP JUMPDEST SWAP2 POP POP SWAP3 SWAP2 POP POP JUMP JUMPDEST PUSH1 0x0 PUSH1 0x40 DUP3 ADD SWAP1 POP PUSH2 0x1CFA PUSH1 0x0 DUP4 ADD DUP6 PUSH2 0x14C1 JUMP JUMPDEST PUSH2 0x1D07 PUSH1 0x20 DUP4 ADD DUP5 PUSH2 0x12FE JUMP JUMPDEST SWAP4 SWAP3 POP POP POP JUMP JUMPDEST PUSH32 0x53656E646572206E6F7420456E747279506F696E740000000000000000000000 PUSH1 0x0 DUP3 ADD MSTORE POP JUMP JUMPDEST PUSH1 0x0 PUSH2 0x1D44 PUSH1 0x15 DUP4 PUSH2 0x1B33 JUMP JUMPDEST SWAP2 POP PUSH2 0x1D4F DUP3 PUSH2 0x1D0E JUMP JUMPDEST PUSH1 0x20 DUP3 ADD SWAP1 POP SWAP2 SWAP1 POP JUMP JUMPDEST PUSH1 0x0 PUSH1 0x20 DUP3 ADD SWAP1 POP DUP2 DUP2 SUB PUSH1 0x0 DUP4 ADD MSTORE PUSH2 0x1D73 DUP2 PUSH2 0x1D37 JUMP JUMPDEST SWAP1 POP SWAP2 SWAP1 POP JUMP JUMPDEST PUSH1 0x0 DUP1 PUSH1 0x0 DUP1 PUSH1 0x80 DUP6 DUP8 SUB SLT ISZERO PUSH2 0x1D94 JUMPI PUSH2 0x1D93 PUSH2 0x1332 JUMP JUMPDEST JUMPDEST PUSH1 0x0 PUSH2 0x1DA2 DUP8 DUP3 DUP9 ADD PUSH2 0x141A JUMP JUMPDEST SWAP5 POP POP PUSH1 0x20 PUSH2 0x1DB3 DUP8 DUP3 DUP9 ADD PUSH2 0x141A JUMP JUMPDEST SWAP4 POP POP PUSH1 0x40 PUSH2 0x1DC4 DUP8 DUP3 DUP9 ADD PUSH2 0x141A JUMP JUMPDEST SWAP3 POP POP PUSH1 0x60 PUSH2 0x1DD5 DUP8 DUP3 DUP9 ADD PUSH2 0x13EE JUMP JUMPDEST SWAP2 POP POP SWAP3 SWAP6 SWAP2 SWAP5 POP SWAP3 POP JUMP JUMPDEST PUSH1 0x0 PUSH1 0x60 DUP3 ADD SWAP1 POP PUSH2 0x1DF6 PUSH1 0x0 DUP4 ADD DUP7 PUSH2 0x12FE JUMP JUMPDEST PUSH2 0x1E03 PUSH1 0x20 DUP4 ADD DUP6 PUSH2 0x12FE JUMP JUMPDEST PUSH2 0x1E10 PUSH1 0x40 DUP4 ADD DUP5 PUSH2 0x12FE JUMP JUMPDEST SWAP5 SWAP4 POP POP POP POP JUMP JUMPDEST PUSH1 0x0 DUP1 REVERT JUMPDEST PUSH1 0x0 DUP1 REVERT JUMPDEST PUSH1 0x0 DUP1 REVERT JUMPDEST PUSH1 0x0 DUP1 DUP4 CALLDATALOAD PUSH1 0x1 PUSH1 0x20 SUB DUP5 CALLDATASIZE SUB SUB DUP2 SLT PUSH2 0x1E44 JUMPI PUSH2 0x1E43 PUSH2 0x1E18 JUMP JUMPDEST JUMPDEST DUP1 DUP5 ADD SWAP3 POP DUP3 CALLDATALOAD SWAP2 POP PUSH8 0xFFFFFFFFFFFFFFFF DUP3 GT ISZERO PUSH2 0x1E66 JUMPI PUSH2 0x1E65 PUSH2 0x1E1D JUMP JUMPDEST JUMPDEST PUSH1 0x20 DUP4 ADD SWAP3 POP PUSH1 0x1 DUP3 MUL CALLDATASIZE SUB DUP4 SGT ISZERO PUSH2 0x1E82 JUMPI PUSH2 0x1E81 PUSH2 0x1E22 JUMP JUMPDEST JUMPDEST POP SWAP3 POP SWAP3 SWAP1 POP JUMP JUMPDEST PUSH32 0x54504D3A20696E76616C69642064617461206C656E6774680000000000000000 PUSH1 0x0 DUP3 ADD MSTORE POP JUMP JUMPDEST PUSH1 0x0 PUSH2 0x1EC0 PUSH1 0x18 DUP4 PUSH2 0x1B33 JUMP JUMPDEST SWAP2 POP PUSH2 0x1ECB DUP3 PUSH2 0x1E8A JUMP JUMPDEST PUSH1 0x20 DUP3 ADD SWAP1 POP SWAP2 SWAP1 POP JUMP JUMPDEST PUSH1 0x0 PUSH1 0x20 DUP3 ADD SWAP1 POP DUP2 DUP2 SUB PUSH1 0x0 DUP4 ADD MSTORE PUSH2 0x1EEF DUP2 PUSH2 0x1EB3 JUMP JUMPDEST SWAP1 POP SWAP2 SWAP1 POP JUMP JUMPDEST PUSH1 0x0 DUP1 REVERT JUMPDEST PUSH1 0x0 DUP1 REVERT JUMPDEST PUSH1 0x0 DUP1 DUP6 DUP6 GT ISZERO PUSH2 0x1F14 JUMPI PUSH2 0x1F13 PUSH2 0x1EF6 JUMP JUMPDEST JUMPDEST DUP4 DUP7 GT ISZERO PUSH2 0x1F25 JUMPI PUSH2 0x1F24 PUSH2 0x1EFB JUMP JUMPDEST JUMPDEST PUSH1 0x1 DUP6 MUL DUP4 ADD SWAP2 POP DUP5 DUP7 SUB SWAP1 POP SWAP5 POP SWAP5 SWAP3 POP POP POP JUMP JUMPDEST PUSH1 0x0 DUP3 SWAP1 POP SWAP3 SWAP2 POP POP JUMP JUMPDEST PUSH1 0x0 DUP3 DUP3 SHL SWAP1 POP SWAP3 SWAP2 POP POP JUMP JUMPDEST PUSH1 0x0 PUSH2 0x1F5F DUP4 DUP4 PUSH2 0x1F3B JUMP JUMPDEST DUP3 PUSH2 0x1F6A DUP2 CALLDATALOAD PUSH2 0x1870 JUMP JUMPDEST SWAP3 POP PUSH1 0x20 DUP3 LT ISZERO PUSH2 0x1FAA JUMPI PUSH2 0x1FA5 PUSH32 0xFFFFFFFFFFFFFFFFFFFFFFFFFFFFFFFFFFFFFFFFFFFFFFFFFFFFFFFFFFFFFFFF DUP4 PUSH1 0x20 SUB PUSH1 0x8 MUL PUSH2 0x1F46 JUMP JUMPDEST DUP4 AND SWAP3 POP JUMPDEST POP POP SWAP3 SWAP2 POP POP JUMP JUMPDEST PUSH1 0x0 PUSH1 0x80 DUP3 ADD SWAP1 POP PUSH2 0x1FC7 PUSH1 0x0 DUP4 ADD DUP8 PUSH2 0x12FE JUMP JUMPDEST PUSH2 0x1FD4 PUSH1 0x20 DUP4 ADD DUP7 PUSH2 0x12FE JUMP JUMPDEST PUSH2 0x1FE1 PUSH1 0x40 DUP4 ADD DUP6 PUSH2 0x12FE JUMP JUMPDEST PUSH2 0x1FEE PUSH1 0x60 DUP4 ADD DUP5 PUSH2 0x14C1 JUMP JUMPDEST SWAP6 SWAP5 POP POP POP POP POP JUMP JUMPDEST PUSH1 0x0 DUP2 ISZERO ISZERO SWAP1 POP SWAP2 SWAP1 POP JUMP JUMPDEST PUSH2 0x200C DUP2 PUSH2 0x1FF7 JUMP JUMPDEST DUP2 EQ PUSH2 0x2017 JUMPI PUSH1 0x0 DUP1 REVERT JUMPDEST POP JUMP JUMPDEST PUSH1 0x0 DUP2 MLOAD SWAP1 POP PUSH2 0x2029 DUP2 PUSH2 0x2003 JUMP JUMPDEST SWAP3 SWAP2 POP POP JUMP JUMPDEST PUSH1 0x0 PUSH1 0x20 DUP3 DUP5 SUB SLT ISZERO PUSH2 0x2045 JUMPI PUSH2 0x2044 PUSH2 0x1332 JUMP JUMPDEST JUMPDEST PUSH1 0x0 PUSH2 0x2053 DUP5 DUP3 DUP6 ADD PUSH2 0x201A JUMP JUMPDEST SWAP2 POP POP SWAP3 SWAP2 POP POP JUMP JUMPDEST PUSH1 0x0 PUSH2 0x2067 DUP3 PUSH2 0x12F4 JUMP JUMPDEST SWAP2 POP PUSH2 0x2072 DUP4 PUSH2 0x12F4 JUMP JUMPDEST SWAP3 POP DUP3 DUP3 ADD SWAP1 POP DUP1 DUP3 GT ISZERO PUSH2 0x208A JUMPI PUSH2 0x2089 PUSH2 0x1A62 JUMP JUMPDEST JUMPDEST SWAP3 SWAP2 POP POP JUMP JUMPDEST PUSH1 0x0 PUSH1 0x60 DUP3 ADD SWAP1 POP PUSH2 0x20A5 PUSH1 0x0 DUP4 ADD DUP7 PUSH2 0x14C1 JUMP JUMPDEST PUSH2 0x20B2 PUSH1 0x20 DUP4 ADD DUP6 PUSH2 0x14C1 JUMP JUMPDEST PUSH2 0x20BF PUSH1 0x40 DUP4 ADD DUP5 PUSH2 0x12FE JUMP JUMPDEST SWAP5 SWAP4 POP POP POP POP JUMP JUMPDEST PUSH1 0x0 DUP2 SWAP1 POP SWAP3 SWAP2 POP POP JUMP JUMPDEST PUSH1 0x0 PUSH2 0x20DD DUP3 PUSH2 0x1915 JUMP JUMPDEST PUSH2 0x20E7 DUP2 DUP6 PUSH2 0x20C7 JUMP JUMPDEST SWAP4 POP PUSH2 0x20F7 DUP2 DUP6 PUSH1 0x20 DUP7 ADD PUSH2 0x1931 JUMP JUMPDEST DUP1 DUP5 ADD SWAP2 POP POP SWAP3 SWAP2 POP POP JUMP JUMPDEST PUSH1 0x0 PUSH2 0x210F DUP3 DUP5 PUSH2 0x20D2 JUMP JUMPDEST SWAP2 POP DUP2 SWAP1 POP SWAP3 SWAP2 POP POP JUMP INVALID LOG2 PUSH5 0x6970667358 0x22 SLT KECCAK256 0xB7 COINBASE PUSH9 0x8F6A609F0E03145EFD 0x2E BASEFEE 0xD1 SAR 0xC9 PUSH30 0xE6963A0B4B6C54EB8A80530375CD64736F6C634300081400330000000000 "},"methodIdentifiers":{"addStake(uint32)":"0396cb60","cachedPriceTimestamp()":"e1d8153c","deposit()":"d0e30db0","entryPoint()":"b0d691fe","getDeposit()":"c399ec88","owner()":"8da5cb5b","postOp(uint8,bytes,uint256)":"a9a23409","renounceOwnership()":"715018a6","setTokenPaymasterConfig((uint256,uint256,uint256))":"b1a6cfec","token()":"fc0c546a","transferOwnership(address)":"f2fde38b","unlockStake()":"bb9fe6bf","validatePaymasterUserOp((address,uint256,bytes,bytes,uint256,uint256,uint256,uint256,uint256,bytes,bytes),bytes32,uint256)":"f465c77e","weiToToken(uint256,uint256)":"7c986aac","withdrawStake(address)":"c23a5cea","withdrawTo(address,uint256)":"205c2878","withdrawToken(address,uint256)":"9e281a98"}}}}}