{"contracts/utils/TokenPaymaster.sol":{"TokenPaymaster":{"abi":[{"inputs":[{"internalType":"contract IERC20Metadata","name":"_token","type":"address"},{"internalType":"contract IEntryPoint","name":"_entryPoint","type":"address"},{"internalType":"contract IERC20","name":"_wrappedNative","type":"address"},{"internalType":"contract ISwapRouter","name":"_uniswap","type":"address"},{"components":[{"internalType":"uint256","name":"priceMarkup","type":"uint256"},{"internalType":"uint256","name":"minEntryPointBalance","type":"uint256"},{"internalType":"uint256","name":"refundPostopCost","type":"uint256"},{"internalType":"uint256","name":"priceMaxAge","type":"uint256"}],"internalType":"struct TokenPaymaster.TokenPaymasterConfig","name":"_tokenPaymasterConfig","type":"tuple"},{"components":[{"internalType":"contract IOracle","name":"tokenOracle","type":"address"},{"internalType":"contract IOracle","name":"nativeOracle","type":"address"},{"internalType":"bool","name":"tokenToNativeOracle","type":"bool"},{"internalType":"bool","name":"tokenOracleReverse","type":"bool"},{"internalType":"bool","name":"nativeOracleReverse","type":"bool"},{"internalType":"uint256","name":"priceUpdateThreshold","type":"uint256"},{"internalType":"uint256","name":"cacheTimeToLive","type":"uint256"}],"internalType":"struct OracleHelper.OracleHelperConfig","name":"_oracleHelperConfig","type":"tuple"},{"components":[{"internalType":"uint256","name":"minSwapAmount","type":"uint256"},{"internalType":"uint24","name":"uniswapPoolFee","type":"uint24"},{"internalType":"uint8","name":"slippage","type":"uint8"}],"internalType":"struct UniswapHelper.UniswapHelperConfig","name":"_uniswapHelperConfig","type":"tuple"},{"internalType":"address","name":"_owner","type":"address"}],"stateMutability":"nonpayable","type":"constructor"},{"inputs":[{"internalType":"address","name":"target","type":"address"}],"name":"AddressEmptyCode","type":"error"},{"inputs":[{"internalType":"address","name":"account","type":"address"}],"name":"AddressInsufficientBalance","type":"error"},{"inputs":[],"name":"FailedInnerCall","type":"error"},{"inputs":[{"internalType":"address","name":"owner","type":"address"}],"name":"OwnableInvalidOwner","type":"error"},{"inputs":[{"internalType":"address","name":"account","type":"address"}],"name":"OwnableUnauthorizedAccount","type":"error"},{"inputs":[{"internalType":"address","name":"token","type":"address"}],"name":"SafeERC20FailedOperation","type":"error"},{"anonymous":false,"inputs":[{"components":[{"internalType":"uint256","name":"priceMarkup","type":"uint256"},{"internalType":"uint256","name":"minEntryPointBalance","type":"uint256"},{"internalType":"uint256","name":"refundPostopCost","type":"uint256"},{"internalType":"uint256","name":"priceMaxAge","type":"uint256"}],"indexed":false,"internalType":"struct TokenPaymaster.TokenPaymasterConfig","name":"tokenPaymasterConfig","type":"tuple"}],"name":"ConfigUpdated","type":"event"},{"anonymous":false,"inputs":[{"indexed":true,"internalType":"address","name":"previousOwner","type":"address"},{"indexed":true,"internalType":"address","name":"newOwner","type":"address"}],"name":"OwnershipTransferred","type":"event"},{"anonymous":false,"inputs":[{"indexed":true,"internalType":"address","name":"user","type":"address"},{"indexed":false,"internalType":"uint256","name":"preCharge","type":"uint256"}],"name":"PostOpReverted","type":"event"},{"anonymous":false,"inputs":[{"indexed":true,"internalType":"address","name":"sender","type":"address"},{"indexed":false,"internalType":"uint256","name":"value","type":"uint256"}],"name":"Received","type":"event"},{"anonymous":false,"inputs":[{"indexed":false,"internalType":"uint256","name":"currentPrice","type":"uint256"},{"indexed":false,"internalType":"uint256","name":"previousPrice","type":"uint256"},{"indexed":false,"internalType":"uint256","name":"cachedPriceTimestamp","type":"uint256"}],"name":"TokenPriceUpdated","type":"event"},{"anonymous":false,"inputs":[{"indexed":false,"internalType":"address","name":"tokenIn","type":"address"},{"indexed":false,"internalType":"address","name":"tokenOut","type":"address"},{"indexed":false,"internalType":"uint256","name":"amountIn","type":"uint256"},{"indexed":false,"internalType":"uint256","name":"amountOutMin","type":"uint256"}],"name":"UniswapReverted","type":"event"},{"anonymous":false,"inputs":[{"indexed":true,"internalType":"address","name":"user","type":"address"},{"indexed":false,"internalType":"uint256","name":"actualTokenCharge","type":"uint256"},{"indexed":false,"internalType":"uint256","name":"actualGasCost","type":"uint256"},{"indexed":false,"internalType":"uint256","name":"actualTokenPrice","type":"uint256"}],"name":"UserOperationSponsored","type":"event"},{"inputs":[{"internalType":"uint32","name":"unstakeDelaySec","type":"uint32"}],"name":"addStake","outputs":[],"stateMutability":"payable","type":"function"},{"inputs":[],"name":"cachedPrice","outputs":[{"internalType":"uint256","name":"","type":"uint256"}],"stateMutability":"view","type":"function"},{"inputs":[],"name":"cachedPriceTimestamp","outputs":[{"internalType":"uint256","name":"","type":"uint256"}],"stateMutability":"view","type":"function"},{"inputs":[],"name":"deposit","outputs":[],"stateMutability":"payable","type":"function"},{"inputs":[],"name":"entryPoint","outputs":[{"internalType":"contract IEntryPoint","name":"","type":"address"}],"stateMutability":"view","type":"function"},{"inputs":[],"name":"getDeposit","outputs":[{"internalType":"uint256","name":"","type":"uint256"}],"stateMutability":"view","type":"function"},{"inputs":[],"name":"owner","outputs":[{"internalType":"address","name":"","type":"address"}],"stateMutability":"view","type":"function"},{"inputs":[{"internalType":"enum IPaymaster.PostOpMode","name":"mode","type":"uint8"},{"internalType":"bytes","name":"context","type":"bytes"},{"internalType":"uint256","name":"actualGasCost","type":"uint256"}],"name":"postOp","outputs":[],"stateMutability":"nonpayable","type":"function"},{"inputs":[],"name":"renounceOwnership","outputs":[],"stateMutability":"nonpayable","type":"function"},{"inputs":[{"components":[{"internalType":"uint256","name":"priceMarkup","type":"uint256"},{"internalType":"uint256","name":"minEntryPointBalance","type":"uint256"},{"internalType":"uint256","name":"refundPostopCost","type":"uint256"},{"internalType":"uint256","name":"priceMaxAge","type":"uint256"}],"internalType":"struct TokenPaymaster.TokenPaymasterConfig","name":"_tokenPaymasterConfig","type":"tuple"}],"name":"setTokenPaymasterConfig","outputs":[],"stateMutability":"nonpayable","type":"function"},{"inputs":[{"components":[{"internalType":"uint256","name":"minSwapAmount","type":"uint256"},{"internalType":"uint24","name":"uniswapPoolFee","type":"uint24"},{"internalType":"uint8","name":"slippage","type":"uint8"}],"internalType":"struct UniswapHelper.UniswapHelperConfig","name":"_uniswapHelperConfig","type":"tuple"}],"name":"setUniswapConfiguration","outputs":[],"stateMutability":"nonpayable","type":"function"},{"inputs":[],"name":"token","outputs":[{"internalType":"contract IERC20","name":"","type":"address"}],"stateMutability":"view","type":"function"},{"inputs":[{"internalType":"uint256","name":"amount","type":"uint256"},{"internalType":"uint256","name":"price","type":"uint256"}],"name":"tokenToWei","outputs":[{"internalType":"uint256","name":"","type":"uint256"}],"stateMutability":"pure","type":"function"},{"inputs":[{"internalType":"address","name":"newOwner","type":"address"}],"name":"transferOwnership","outputs":[],"stateMutability":"nonpayable","type":"function"},{"inputs":[],"name":"uniswap","outputs":[{"internalType":"contract ISwapRouter","name":"","type":"address"}],"stateMutability":"view","type":"function"},{"inputs":[],"name":"unlockStake","outputs":[],"stateMutability":"nonpayable","type":"function"},{"inputs":[{"internalType":"bool","name":"force","type":"bool"}],"name":"updateCachedPrice","outputs":[{"internalType":"uint256","name":"newPrice","type":"uint256"}],"stateMutability":"nonpayable","type":"function"},{"inputs":[{"components":[{"internalType":"address","name":"sender","type":"address"},{"internalType":"uint256","name":"nonce","type":"uint256"},{"internalType":"bytes","name":"initCode","type":"bytes"},{"internalType":"bytes","name":"callData","type":"bytes"},{"internalType":"uint256","name":"callGasLimit","type":"uint256"},{"internalType":"uint256","name":"verificationGasLimit","type":"uint256"},{"internalType":"uint256","name":"preVerificationGas","type":"uint256"},{"internalType":"uint256","name":"maxFeePerGas","type":"uint256"},{"internalType":"uint256","name":"maxPriorityFeePerGas","type":"uint256"},{"internalType":"bytes","name":"paymasterAndData","type":"bytes"},{"internalType":"bytes","name":"signature","type":"bytes"}],"internalType":"struct UserOperation","name":"userOp","type":"tuple"},{"internalType":"bytes32","name":"userOpHash","type":"bytes32"},{"internalType":"uint256","name":"maxCost","type":"uint256"}],"name":"validatePaymasterUserOp","outputs":[{"internalType":"bytes","name":"context","type":"bytes"},{"internalType":"uint256","name":"validationData","type":"uint256"}],"stateMutability":"nonpayable","type":"function"},{"inputs":[{"internalType":"uint256","name":"amount","type":"uint256"},{"internalType":"uint256","name":"price","type":"uint256"}],"name":"weiToToken","outputs":[{"internalType":"uint256","name":"","type":"uint256"}],"stateMutability":"pure","type":"function"},{"inputs":[{"internalType":"address payable","name":"withdrawAddress","type":"address"}],"name":"withdrawStake","outputs":[],"stateMutability":"nonpayable","type":"function"},{"inputs":[{"internalType":"address payable","name":"withdrawAddress","type":"address"},{"internalType":"uint256","name":"amount","type":"uint256"}],"name":"withdrawTo","outputs":[],"stateMutability":"nonpayable","type":"function"},{"inputs":[{"internalType":"address","name":"to","type":"address"},{"internalType":"uint256","name":"amount","type":"uint256"}],"name":"withdrawToken","outputs":[],"stateMutability":"nonpayable","type":"function"},{"inputs":[],"name":"wrappedNative","outputs":[{"internalType":"contract IERC20","name":"","type":"address"}],"stateMutability":"view","type":"function"},{"stateMutability":"payable","type":"receive"}],"evm":{"bytecode":{"linkReferences":{},"object":"6101206040523480156200001257600080fd5b506040516200479338038062004793833981810160405281019062000038919062000ec4565b828887878b73ffffffffffffffffffffffffffffffffffffffff1663313ce5676040518163ffffffff1660e01b8152600401602060405180830381865afa15801562000088573d6000803e3d6000fd5b505050506040513d601f19601f82011682018060405250810190620000ae919062000f90565b600a620000bc919062001145565b868c32600073ffffffffffffffffffffffffffffffffffffffff168173ffffffffffffffffffffffffffffffffffffffff1603620001345760006040517f1e4fbdf70000000000000000000000000000000000000000000000000000000081526004016200012b9190620011a7565b60405180910390fd5b62000145816200034360201b60201c565b508073ffffffffffffffffffffffffffffffffffffffff1660808173ffffffffffffffffffffffffffffffffffffffff1681525050508473ffffffffffffffffffffffffffffffffffffffff1663095ea7b3847fffffffffffffffffffffffffffffffffffffffffffffffffffffffffffffffff6040518363ffffffff1660e01b8152600401620001d8929190620011d5565b6020604051808303816000875af1158015620001f8573d6000803e3d6000fd5b505050506040513d601f19601f820116820180604052508101906200021e919062001202565b508473ffffffffffffffffffffffffffffffffffffffff1660c08173ffffffffffffffffffffffffffffffffffffffff16815250508373ffffffffffffffffffffffffffffffffffffffff1660e08173ffffffffffffffffffffffffffffffffffffffff16815250508273ffffffffffffffffffffffffffffffffffffffff1660a08173ffffffffffffffffffffffffffffffffffffffff1681525050816101008181525050620002d5816200040760201b60201c565b50505050507fffffffffffffffffffffffffffffffffffffffffffffffffffffffffffffffff60038190555062000312816200046060201b60201c565b5062000324846200070e60201b60201c565b62000335816200084060201b60201c565b505050505050505062001471565b60008060009054906101000a900473ffffffffffffffffffffffffffffffffffffffff169050816000806101000a81548173ffffffffffffffffffffffffffffffffffffffff021916908373ffffffffffffffffffffffffffffffffffffffff1602179055508173ffffffffffffffffffffffffffffffffffffffff168173ffffffffffffffffffffffffffffffffffffffff167f8be0079c531659141344cd1fd0a4f28419497f9722a3daafe3b4186f6b6457e060405160405180910390a35050565b8060016000820151816000015560208201518160010160006101000a81548162ffffff021916908362ffffff16021790555060408201518160010160036101000a81548160ff021916908360ff16021790555090505050565b80600560008201518160000160006101000a81548173ffffffffffffffffffffffffffffffffffffffff021916908373ffffffffffffffffffffffffffffffffffffffff16021790555060208201518160010160006101000a81548173ffffffffffffffffffffffffffffffffffffffff021916908373ffffffffffffffffffffffffffffffffffffffff16021790555060408201518160010160146101000a81548160ff02191690831515021790555060608201518160010160156101000a81548160ff02191690831515021790555060808201518160010160166101000a81548160ff02191690831515021790555060a0820151816002015560c08201518160030155905050620f42408160a001511115620005b5576040517f08c379a0000000000000000000000000000000000000000000000000000000008152600401620005ac9062001295565b60405180910390fd5b600560000160009054906101000a900473ffffffffffffffffffffffffffffffffffffffff1673ffffffffffffffffffffffffffffffffffffffff1663313ce5676040518163ffffffff1660e01b8152600401602060405180830381865afa15801562000626573d6000803e3d6000fd5b505050506040513d601f19601f820116820180604052508101906200064c919062000f90565b600a6200065a919062001145565b600981905550600560010160009054906101000a900473ffffffffffffffffffffffffffffffffffffffff1673ffffffffffffffffffffffffffffffffffffffff1663313ce5676040518163ffffffff1660e01b8152600401602060405180830381865afa158015620006d1573d6000803e3d6000fd5b505050506040513d601f19601f82011682018060405250810190620006f7919062000f90565b600a62000705919062001145565b600a8190555050565b6200071e620008d960201b60201c565b6a52b7d2dcc80cd2e40000006002620007389190620012b7565b8160000151111562000781576040517f08c379a0000000000000000000000000000000000000000000000000000000008152600401620007789062001352565b60405180910390fd5b6a52b7d2dcc80cd2e400000081600001511015620007d6576040517f08c379a0000000000000000000000000000000000000000000000000000000008152600401620007cd90620013c4565b60405180910390fd5b80600b600082015181600001556020820151816001015560408201518160020155606082015181600301559050507f9359e69ea224934f7cfbc6e6336e1a65f96eb6607c898f94589b52f4806eece88160405162000835919062001454565b60405180910390a150565b62000850620008d960201b60201c565b600073ffffffffffffffffffffffffffffffffffffffff168173ffffffffffffffffffffffffffffffffffffffff1603620008c55760006040517f1e4fbdf7000000000000000000000000000000000000000000000000000000008152600401620008bc9190620011a7565b60405180910390fd5b620008d6816200034360201b60201c565b50565b620008e96200097b60201b60201c565b73ffffffffffffffffffffffffffffffffffffffff166200090f6200098360201b60201c565b73ffffffffffffffffffffffffffffffffffffffff161462000979576200093b6200097b60201b60201c565b6040517f118cdaa7000000000000000000000000000000000000000000000000000000008152600401620009709190620011a7565b60405180910390fd5b565b600033905090565b60008060009054906101000a900473ffffffffffffffffffffffffffffffffffffffff16905090565b6000604051905090565b600080fd5b600073ffffffffffffffffffffffffffffffffffffffff82169050919050565b6000620009e882620009bb565b9050919050565b6000620009fc82620009db565b9050919050565b62000a0e81620009ef565b811462000a1a57600080fd5b50565b60008151905062000a2e8162000a03565b92915050565b600062000a4182620009db565b9050919050565b62000a538162000a34565b811462000a5f57600080fd5b50565b60008151905062000a738162000a48565b92915050565b600062000a8682620009db565b9050919050565b62000a988162000a79565b811462000aa457600080fd5b50565b60008151905062000ab88162000a8d565b92915050565b600062000acb82620009db565b9050919050565b62000add8162000abe565b811462000ae957600080fd5b50565b60008151905062000afd8162000ad2565b92915050565b600080fd5b6000601f19601f8301169050919050565b7f4e487b7100000000000000000000000000000000000000000000000000000000600052604160045260246000fd5b62000b538262000b08565b810181811067ffffffffffffffff8211171562000b755762000b7462000b19565b5b80604052505050565b600062000b8a620009ac565b905062000b98828262000b48565b919050565b6000819050919050565b62000bb28162000b9d565b811462000bbe57600080fd5b50565b60008151905062000bd28162000ba7565b92915050565b60006080828403121562000bf15762000bf062000b03565b5b62000bfd608062000b7e565b9050600062000c0f8482850162000bc1565b600083015250602062000c258482850162000bc1565b602083015250604062000c3b8482850162000bc1565b604083015250606062000c518482850162000bc1565b60608301525092915050565b600062000c6a82620009db565b9050919050565b62000c7c8162000c5d565b811462000c8857600080fd5b50565b60008151905062000c9c8162000c71565b92915050565b60008115159050919050565b62000cb98162000ca2565b811462000cc557600080fd5b50565b60008151905062000cd98162000cae565b92915050565b600060e0828403121562000cf85762000cf762000b03565b5b62000d0460e062000b7e565b9050600062000d168482850162000c8b565b600083015250602062000d2c8482850162000c8b565b602083015250604062000d428482850162000cc8565b604083015250606062000d588482850162000cc8565b606083015250608062000d6e8482850162000cc8565b60808301525060a062000d848482850162000bc1565b60a08301525060c062000d9a8482850162000bc1565b60c08301525092915050565b600062ffffff82169050919050565b62000dc08162000da6565b811462000dcc57600080fd5b50565b60008151905062000de08162000db5565b92915050565b600060ff82169050919050565b62000dfe8162000de6565b811462000e0a57600080fd5b50565b60008151905062000e1e8162000df3565b92915050565b60006060828403121562000e3d5762000e3c62000b03565b5b62000e49606062000b7e565b9050600062000e5b8482850162000bc1565b600083015250602062000e718482850162000dcf565b602083015250604062000e878482850162000e0d565b60408301525092915050565b62000e9e81620009db565b811462000eaa57600080fd5b50565b60008151905062000ebe8162000e93565b92915050565b600080600080600080600080610260898b03121562000ee85762000ee7620009b6565b5b600062000ef88b828c0162000a1d565b985050602062000f0b8b828c0162000a62565b975050604062000f1e8b828c0162000aa7565b965050606062000f318b828c0162000aec565b955050608062000f448b828c0162000bd8565b94505061010062000f588b828c0162000cdf565b9350506101e062000f6c8b828c0162000e24565b92505061024062000f808b828c0162000ead565b9150509295985092959890939650565b60006020828403121562000fa95762000fa8620009b6565b5b600062000fb98482850162000e0d565b91505092915050565b7f4e487b7100000000000000000000000000000000000000000000000000000000600052601160045260246000fd5b60008160011c9050919050565b6000808291508390505b6001851115620010505780860481111562001028576200102762000fc2565b5b6001851615620010385780820291505b8081029050620010488562000ff1565b945062001008565b94509492505050565b6000826200106b57600190506200113e565b816200107b57600090506200113e565b81600181146200109457600281146200109f57620010d5565b60019150506200113e565b60ff841115620010b457620010b362000fc2565b5b8360020a915084821115620010ce57620010cd62000fc2565b5b506200113e565b5060208310610133831016604e8410600b84101617156200110f5782820a90508381111562001109576200110862000fc2565b5b6200113e565b6200111e848484600162000ffe565b9250905081840481111562001138576200113762000fc2565b5b81810290505b9392505050565b6000620011528262000b9d565b91506200115f8362000de6565b92506200118e7fffffffffffffffffffffffffffffffffffffffffffffffffffffffffffffffff848462001059565b905092915050565b620011a181620009db565b82525050565b6000602082019050620011be600083018462001196565b92915050565b620011cf8162000b9d565b82525050565b6000604082019050620011ec600083018562001196565b620011fb6020830184620011c4565b9392505050565b6000602082840312156200121b576200121a620009b6565b5b60006200122b8482850162000cc8565b91505092915050565b600082825260208201905092915050565b7f54504d3a20757064617465207468726573686f6c6420746f6f20686967680000600082015250565b60006200127d601e8362001234565b91506200128a8262001245565b602082019050919050565b60006020820190508181036000830152620012b0816200126e565b9050919050565b6000620012c48262000b9d565b9150620012d18362000b9d565b9250828202620012e18162000b9d565b91508282048414831517620012fb57620012fa62000fc2565b5b5092915050565b7f54504d3a207072696365206d61726b757020746f6f2068696768000000000000600082015250565b60006200133a601a8362001234565b9150620013478262001302565b602082019050919050565b600060208201905081810360008301526200136d816200132b565b9050919050565b7f54504d3a207072696365206d61726b757020746f6f206c6f7700000000000000600082015250565b6000620013ac60198362001234565b9150620013b98262001374565b602082019050919050565b60006020820190508181036000830152620013df816200139d565b9050919050565b620013f18162000b9d565b82525050565b6080820160008201516200140f6000850182620013e6565b506020820151620014246020850182620013e6565b506040820151620014396040850182620013e6565b5060608201516200144e6060850182620013e6565b50505050565b60006080820190506200146b6000830184620013f7565b92915050565b60805160a05160c05160e05161010051613262620015316000396000505060008181610d3c01526119fc01526000818161091d01528181610e0f01528181611391015281816113cb0152818161156a015261180d01526000818161069001528181611a4301528181611c290152611c94015260008181610568015281816105ff01528181610977015281816109a301528181610a2d01528181610abd01528181610c7c015281816112750152818161175f015261183f01526132626000f3fe6080604052600436106101445760003560e01c8063bb9fe6bf116100b6578063e1d8153c1161006f578063e1d8153c1461044b578063eb6d3a1114610476578063f2fde38b146104a1578063f465c77e146104ca578063f60fdcb314610508578063fc0c546a1461053357610199565b8063bb9fe6bf14610370578063c23a5cea14610387578063c399ec88146103b0578063c63dcf6a146103db578063d0e30db014610404578063d7a23b3c1461040e57610199565b80637c986aac116101085780637c986aac146102625780638da5cb5b1461029f5780639e281a98146102ca578063a0840fa7146102f3578063a9a234091461031c578063b0d691fe1461034557610199565b80630396cb601461019e578063205c2878146101ba5780632681f7e4146101e35780633ba9290f1461020e578063715018a61461024b57610199565b36610199573373ffffffffffffffffffffffffffffffffffffffff167f88a5966d370b9919b20f3e2c13ff65706f196a4e32cc2c12bf57088f885258743460405161018f9190611e6d565b60405180910390a2005b600080fd5b6101b860048036038101906101b39190611ed8565b61055e565b005b3480156101c657600080fd5b506101e160048036038101906101dc9190611f8f565b6105f5565b005b3480156101ef57600080fd5b506101f861068e565b604051610205919061202e565b60405180910390f35b34801561021a57600080fd5b5061023560048036038101906102309190612081565b6106b2565b6040516102429190611e6d565b60405180910390f35b34801561025757600080fd5b506102606108a7565b005b34801561026e57600080fd5b50610289600480360381019061028491906120ae565b6108bb565b6040516102969190611e6d565b60405180910390f35b3480156102ab57600080fd5b506102b46108e7565b6040516102c1919061210f565b60405180910390f35b3480156102d657600080fd5b506102f160048036038101906102ec9190612156565b610910565b005b3480156102ff57600080fd5b5061031a600480360381019061031591906122ff565b610947565b005b34801561032857600080fd5b50610343600480360381019061033e91906123b6565b61095b565b005b34801561035157600080fd5b5061035a610975565b604051610367919061244b565b60405180910390f35b34801561037c57600080fd5b50610385610999565b005b34801561039357600080fd5b506103ae60048036038101906103a99190612466565b610a23565b005b3480156103bc57600080fd5b506103c5610ab9565b6040516103d29190611e6d565b60405180910390f35b3480156103e757600080fd5b5061040260048036038101906103fd919061250b565b610b5a565b005b61040c610c7a565b005b34801561041a57600080fd5b50610435600480360381019061043091906120ae565b610d08565b6040516104429190611e6d565b60405180910390f35b34801561045757600080fd5b50610460610d34565b60405161046d9190611e6d565b60405180910390f35b34801561048257600080fd5b5061048b610d3a565b6040516104989190612559565b60405180910390f35b3480156104ad57600080fd5b506104c860048036038101906104c39190612574565b610d5e565b005b3480156104d657600080fd5b506104f160048036038101906104ec91906125fc565b610de4565b6040516104ff9291906126ea565b60405180910390f35b34801561051457600080fd5b5061051d610e07565b60405161052a9190611e6d565b60405180910390f35b34801561053f57600080fd5b50610548610e0d565b6040516105559190612559565b60405180910390f35b610566610e31565b7f000000000000000000000000000000000000000000000000000000000000000073ffffffffffffffffffffffffffffffffffffffff16630396cb6034836040518363ffffffff1660e01b81526004016105c09190612729565b6000604051808303818588803b1580156105d957600080fd5b505af11580156105ed573d6000803e3d6000fd5b505050505050565b6105fd610e31565b7f000000000000000000000000000000000000000000000000000000000000000073ffffffffffffffffffffffffffffffffffffffff1663205c287883836040518363ffffffff1660e01b8152600401610658929190612753565b600060405180830381600087803b15801561067257600080fd5b505af1158015610686573d6000803e3d6000fd5b505050505050565b7f000000000000000000000000000000000000000000000000000000000000000081565b60008060056003015490506000600454426106cd91906127ab565b9050831580156106dd5750818111155b156106ee57600354925050506108a2565b600060056002015490506000600560000160009054906101000a900473ffffffffffffffffffffffffffffffffffffffff1690506000600560010160009054906101000a900473ffffffffffffffffffffffffffffffffffffffff16905060006003549050600061075e84610eb8565b9050600060019050600560010160149054906101000a900460ff166107895761078684610eb8565b90505b60006107bb8383600560010160159054906101000a900460ff16600560010160169054906101000a900460ff16611033565b90506000846a52b7d2dcc80cd2e4000000836107d791906127df565b6107e19190612850565b905060008c806108065750886a52b7d2dcc80cd2e40000006108039190612881565b82115b806108265750886a52b7d2dcc80cd2e400000061082391906127ab565b82105b90508061084057859b5050505050505050505050506108a2565b600086905083965086600381905550426004819055507ed4fe314618b73a96886b87817a53a5ed51433b0234c85a5e9dafe2cb7b8842878260045460405161088a939291906128b5565b60405180910390a1869c505050505050505050505050505b919050565b6108af610e31565b6108b960006110d7565b565b6000816a52b7d2dcc80cd2e4000000846108d591906127df565b6108df9190612850565b905092915050565b60008060009054906101000a900473ffffffffffffffffffffffffffffffffffffffff16905090565b610918610e31565b6109437f0000000000000000000000000000000000000000000000000000000000000000838361119b565b5050565b61094f610e31565b6109588161121a565b50565b610963611273565b61096f84848484611303565b50505050565b7f000000000000000000000000000000000000000000000000000000000000000081565b6109a1610e31565b7f000000000000000000000000000000000000000000000000000000000000000073ffffffffffffffffffffffffffffffffffffffff1663bb9fe6bf6040518163ffffffff1660e01b8152600401600060405180830381600087803b158015610a0957600080fd5b505af1158015610a1d573d6000803e3d6000fd5b50505050565b610a2b610e31565b7f000000000000000000000000000000000000000000000000000000000000000073ffffffffffffffffffffffffffffffffffffffff1663c23a5cea826040518263ffffffff1660e01b8152600401610a8491906128ec565b600060405180830381600087803b158015610a9e57600080fd5b505af1158015610ab2573d6000803e3d6000fd5b5050505050565b60007f000000000000000000000000000000000000000000000000000000000000000073ffffffffffffffffffffffffffffffffffffffff166370a08231306040518263ffffffff1660e01b8152600401610b14919061210f565b602060405180830381865afa158015610b31573d6000803e3d6000fd5b505050506040513d601f19601f82011682018060405250810190610b55919061291c565b905090565b610b62610e31565b6a52b7d2dcc80cd2e40000006002610b7a91906127df565b81600001511115610bc0576040517f08c379a0000000000000000000000000000000000000000000000000000000008152600401610bb7906129a6565b60405180910390fd5b6a52b7d2dcc80cd2e400000081600001511015610c12576040517f08c379a0000000000000000000000000000000000000000000000000000000008152600401610c0990612a12565b60405180910390fd5b80600b600082015181600001556020820151816001015560408201518160020155606082015181600301559050507f9359e69ea224934f7cfbc6e6336e1a65f96eb6607c898f94589b52f4806eece881604051610c6f9190612a96565b60405180910390a150565b7f000000000000000000000000000000000000000000000000000000000000000073ffffffffffffffffffffffffffffffffffffffff1663b760faf934306040518363ffffffff1660e01b8152600401610cd4919061210f565b6000604051808303818588803b158015610ced57600080fd5b505af1158015610d01573d6000803e3d6000fd5b5050505050565b60006a52b7d2dcc80cd2e40000008284610d2291906127df565b610d2c9190612850565b905092915050565b60045481565b7f000000000000000000000000000000000000000000000000000000000000000081565b610d66610e31565b600073ffffffffffffffffffffffffffffffffffffffff168173ffffffffffffffffffffffffffffffffffffffff1603610dd85760006040517f1e4fbdf7000000000000000000000000000000000000000000000000000000008152600401610dcf919061210f565b60405180910390fd5b610de1816110d7565b50565b60606000610df0611273565b610dfb858585611461565b91509150935093915050565b60035481565b7f000000000000000000000000000000000000000000000000000000000000000081565b610e3961160b565b73ffffffffffffffffffffffffffffffffffffffff16610e576108e7565b73ffffffffffffffffffffffffffffffffffffffff1614610eb657610e7a61160b565b6040517f118cdaa7000000000000000000000000000000000000000000000000000000008152600401610ead919061210f565b60405180910390fd5b565b60008060008060008573ffffffffffffffffffffffffffffffffffffffff1663feaf968c6040518163ffffffff1660e01b815260040160a060405180830381865afa158015610f0b573d6000803e3d6000fd5b505050506040513d601f19601f82011682018060405250810190610f2f9190612b29565b94509450509350935060008313610f7b576040517f08c379a0000000000000000000000000000000000000000000000000000000008152600401610f7290612bf0565b60405180910390fd5b6202a30042610f8a91906127ab565b821015610fcc576040517f08c379a0000000000000000000000000000000000000000000000000000000008152600401610fc390612c5c565b60405180910390fd5b8369ffffffffffffffffffff168169ffffffffffffffffffff161015611027576040517f08c379a000000000000000000000000000000000000000000000000000000000815260040161101e90612cc8565b60405180910390fd5b82945050505050919050565b6000821561106657846009546a52b7d2dcc80cd2e400000061105591906127df565b61105f9190612850565b945061108d565b600954856a52b7d2dcc80cd2e400000061108091906127df565b61108a9190612850565b94505b81156110b357600a5485856110a291906127df565b6110ac9190612850565b90506110cf565b83600a54866110c291906127df565b6110cc9190612850565b90505b949350505050565b60008060009054906101000a900473ffffffffffffffffffffffffffffffffffffffff169050816000806101000a81548173ffffffffffffffffffffffffffffffffffffffff021916908373ffffffffffffffffffffffffffffffffffffffff1602179055508173ffffffffffffffffffffffffffffffffffffffff168173ffffffffffffffffffffffffffffffffffffffff167f8be0079c531659141344cd1fd0a4f28419497f9722a3daafe3b4186f6b6457e060405160405180910390a35050565b611215838473ffffffffffffffffffffffffffffffffffffffff1663a9059cbb85856040516024016111ce929190612ce8565b604051602081830303815290604052915060e01b6020820180517bffffffffffffffffffffffffffffffffffffffffffffffffffffffff8381831617835250505050611613565b505050565b8060016000820151816000015560208201518160010160006101000a81548162ffffff021916908362ffffff16021790555060408201518160010160036101000a81548160ff021916908360ff16021790555090505050565b7f000000000000000000000000000000000000000000000000000000000000000073ffffffffffffffffffffffffffffffffffffffff163373ffffffffffffffffffffffffffffffffffffffff1614611301576040517f08c379a00000000000000000000000000000000000000000000000000000000081526004016112f890612d5d565b60405180910390fd5b565b6000600b60000154905060008060008087878101906113229190612d7d565b9350935093509350600061133684846116aa565b9050600061134460006106b2565b90506000876a52b7d2dcc80cd2e400000083028161136557611364612821565b5b049050600083600b60020154028a019050600061138282846108bb565b9050808911156113be576113b97f000000000000000000000000000000000000000000000000000000000000000087838c0361119b565b6113f6565b808910156113f5576113f47f000000000000000000000000000000000000000000000000000000000000000087308c85036116d9565b5b5b8573ffffffffffffffffffffffffffffffffffffffff167f46caa0511cf037f06f57a0bf273a2ff04229f5b12fb04675234a6cbe2e7f1a89828d87604051611440939291906128b5565b60405180910390a26114518461175b565b5050505050505050505050505050565b6060600080600b60000154905060006014878061012001906114839190612df3565b905003905060008114806114975750602081145b6114d6576040517f08c379a00000000000000000000000000000000000000000000000000000000081526004016114cd90612ea2565b60405180910390fd5b60008760e00135600b6002015402860190506000836a52b7d2dcc80cd2e4000000600354028161150957611508612821565b5b04905060208303611557576000898061012001906115279190612df3565b60149060349261153993929190612ecc565b906115449190612f1f565b60001c905081811015611555578091505b505b600061156383836108bb565b90506115a37f00000000000000000000000000000000000000000000000000000000000000008b600001602081019061159c9190612574565b30846116d9565b808a60e001358b61010001358c60000160208101906115c29190612574565b6040516020016115d59493929190612f7e565b60405160208183030381529060405296506115fc6000600b600301546004540160006118cf565b95505050505050935093915050565b600033905090565b600061163e828473ffffffffffffffffffffffffffffffffffffffff1661190890919063ffffffff16565b905060008151141580156116635750808060200190518101906116619190612fd8565b155b156116a557826040517f5274afe700000000000000000000000000000000000000000000000000000000815260040161169c919061210f565b60405180910390fd5b505050565b60008183036116bb578290506116d3565b6116d08348846116cb9190612881565b61191e565b90505b92915050565b611755848573ffffffffffffffffffffffffffffffffffffffff166323b872dd86868660405160240161170e93929190613005565b604051602081830303815290604052915060e01b6020820180517bffffffffffffffffffffffffffffffffffffffffffffffffffffffff8381831617835250505050611613565b50505050565b60007f000000000000000000000000000000000000000000000000000000000000000073ffffffffffffffffffffffffffffffffffffffff166370a08231306040518263ffffffff1660e01b81526004016117b6919061210f565b602060405180830381865afa1580156117d3573d6000803e3d6000fd5b505050506040513d601f19601f820116820180604052508101906117f7919061291c565b9050600b600101548110156118cb5760006118327f000000000000000000000000000000000000000000000000000000000000000084611937565b905061183d81611a41565b7f000000000000000000000000000000000000000000000000000000000000000073ffffffffffffffffffffffffffffffffffffffff1663b760faf947306040518363ffffffff1660e01b8152600401611897919061210f565b6000604051808303818588803b1580156118b057600080fd5b505af11580156118c4573d6000803e3d6000fd5b5050505050505b5050565b600060d08265ffffffffffff16901b60a08465ffffffffffff16901b856118f75760006118fa565b60015b60ff16171790509392505050565b606061191683836000611ad1565b905092915050565b600081831061192d578161192f565b825b905092915050565b6000808373ffffffffffffffffffffffffffffffffffffffff166370a08231306040518263ffffffff1660e01b8152600401611973919061210f565b602060405180830381865afa158015611990573d6000803e3d6000fd5b505050506040513d601f19601f820116820180604052508101906119b4919061291c565b905060006119dc6119c58386610d08565b6001800160039054906101000a900460ff16611b9e565b90506001600001548110156119f657600092505050611a3b565b611a36857f000000000000000000000000000000000000000000000000000000000000000084846001800160009054906101000a900462ffffff16611bd5565b925050505b92915050565b7f000000000000000000000000000000000000000000000000000000000000000073ffffffffffffffffffffffffffffffffffffffff166349404b7c82306040518363ffffffff1660e01b8152600401611a9c92919061303c565b600060405180830381600087803b158015611ab657600080fd5b505af1158015611aca573d6000803e3d6000fd5b5050505050565b606081471015611b1857306040517fcd786059000000000000000000000000000000000000000000000000000000008152600401611b0f919061210f565b60405180910390fd5b6000808573ffffffffffffffffffffffffffffffffffffffff168486604051611b4191906130a1565b60006040518083038185875af1925050503d8060008114611b7e576040519150601f19603f3d011682016040523d82523d6000602084013e611b83565b606091505b5091509150611b93868383611d80565b925050509392505050565b60006103e88260ff166103e8611bb491906130c6565b61ffff1684611bc391906127df565b611bcd9190612850565b905092915050565b6000806040518061010001604052808873ffffffffffffffffffffffffffffffffffffffff1681526020018773ffffffffffffffffffffffffffffffffffffffff1681526020018462ffffff1681526020017f000000000000000000000000000000000000000000000000000000000000000073ffffffffffffffffffffffffffffffffffffffff168152602001428152602001868152602001858152602001600073ffffffffffffffffffffffffffffffffffffffff1681525090507f000000000000000000000000000000000000000000000000000000000000000073ffffffffffffffffffffffffffffffffffffffff1663414bf389826040518263ffffffff1660e01b8152600401611ceb91906131cb565b6020604051808303816000875af1925050508015611d2757506040513d601f19601f82011682018060405250810190611d24919061291c565b60015b611d71577ff7edd4c6ec425decf715a8b8eaa3b65d3d86e31ad0ff750aa60fa834190f515f87878787604051611d6094939291906131e7565b60405180910390a160009150611d76565b809250505b5095945050505050565b606082611d9557611d9082611e0f565b611e07565b60008251148015611dbd575060008473ffffffffffffffffffffffffffffffffffffffff163b145b15611dff57836040517f9996b315000000000000000000000000000000000000000000000000000000008152600401611df6919061210f565b60405180910390fd5b819050611e08565b5b9392505050565b600081511115611e225780518082602001fd5b6040517f1425ea4200000000000000000000000000000000000000000000000000000000815260040160405180910390fd5b6000819050919050565b611e6781611e54565b82525050565b6000602082019050611e826000830184611e5e565b92915050565b6000604051905090565b600080fd5b600080fd5b600063ffffffff82169050919050565b611eb581611e9c565b8114611ec057600080fd5b50565b600081359050611ed281611eac565b92915050565b600060208284031215611eee57611eed611e92565b5b6000611efc84828501611ec3565b91505092915050565b600073ffffffffffffffffffffffffffffffffffffffff82169050919050565b6000611f3082611f05565b9050919050565b611f4081611f25565b8114611f4b57600080fd5b50565b600081359050611f5d81611f37565b92915050565b611f6c81611e54565b8114611f7757600080fd5b50565b600081359050611f8981611f63565b92915050565b60008060408385031215611fa657611fa5611e92565b5b6000611fb485828601611f4e565b9250506020611fc585828601611f7a565b9150509250929050565b6000819050919050565b6000611ff4611fef611fea84611f05565b611fcf565b611f05565b9050919050565b600061200682611fd9565b9050919050565b600061201882611ffb565b9050919050565b6120288161200d565b82525050565b6000602082019050612043600083018461201f565b92915050565b60008115159050919050565b61205e81612049565b811461206957600080fd5b50565b60008135905061207b81612055565b92915050565b60006020828403121561209757612096611e92565b5b60006120a58482850161206c565b91505092915050565b600080604083850312156120c5576120c4611e92565b5b60006120d385828601611f7a565b92505060206120e485828601611f7a565b9150509250929050565b60006120f982611f05565b9050919050565b612109816120ee565b82525050565b60006020820190506121246000830184612100565b92915050565b612133816120ee565b811461213e57600080fd5b50565b6000813590506121508161212a565b92915050565b6000806040838503121561216d5761216c611e92565b5b600061217b85828601612141565b925050602061218c85828601611f7a565b9150509250929050565b600080fd5b6000601f19601f8301169050919050565b7f4e487b7100000000000000000000000000000000000000000000000000000000600052604160045260246000fd5b6121e48261219b565b810181811067ffffffffffffffff82111715612203576122026121ac565b5b80604052505050565b6000612216611e88565b905061222282826121db565b919050565b600062ffffff82169050919050565b61223f81612227565b811461224a57600080fd5b50565b60008135905061225c81612236565b92915050565b600060ff82169050919050565b61227881612262565b811461228357600080fd5b50565b6000813590506122958161226f565b92915050565b6000606082840312156122b1576122b0612196565b5b6122bb606061220c565b905060006122cb84828501611f7a565b60008301525060206122df8482850161224d565b60208301525060406122f384828501612286565b60408301525092915050565b60006060828403121561231557612314611e92565b5b60006123238482850161229b565b91505092915050565b6003811061233957600080fd5b50565b60008135905061234b8161232c565b92915050565b600080fd5b600080fd5b600080fd5b60008083601f84011261237657612375612351565b5b8235905067ffffffffffffffff81111561239357612392612356565b5b6020830191508360018202830111156123af576123ae61235b565b5b9250929050565b600080600080606085870312156123d0576123cf611e92565b5b60006123de8782880161233c565b945050602085013567ffffffffffffffff8111156123ff576123fe611e97565b5b61240b87828801612360565b9350935050604061241e87828801611f7a565b91505092959194509250565b600061243582611ffb565b9050919050565b6124458161242a565b82525050565b6000602082019050612460600083018461243c565b92915050565b60006020828403121561247c5761247b611e92565b5b600061248a84828501611f4e565b91505092915050565b6000608082840312156124a9576124a8612196565b5b6124b3608061220c565b905060006124c384828501611f7a565b60008301525060206124d784828501611f7a565b60208301525060406124eb84828501611f7a565b60408301525060606124ff84828501611f7a565b60608301525092915050565b60006080828403121561252157612520611e92565b5b600061252f84828501612493565b91505092915050565b600061254382611ffb565b9050919050565b61255381612538565b82525050565b600060208201905061256e600083018461254a565b92915050565b60006020828403121561258a57612589611e92565b5b600061259884828501612141565b91505092915050565b600080fd5b600061016082840312156125bd576125bc6125a1565b5b81905092915050565b6000819050919050565b6125d9816125c6565b81146125e457600080fd5b50565b6000813590506125f6816125d0565b92915050565b60008060006060848603121561261557612614611e92565b5b600084013567ffffffffffffffff81111561263357612632611e97565b5b61263f868287016125a6565b9350506020612650868287016125e7565b925050604061266186828701611f7a565b9150509250925092565b600081519050919050565b600082825260208201905092915050565b60005b838110156126a557808201518184015260208101905061268a565b60008484015250505050565b60006126bc8261266b565b6126c68185612676565b93506126d6818560208601612687565b6126df8161219b565b840191505092915050565b6000604082019050818103600083015261270481856126b1565b90506127136020830184611e5e565b9392505050565b61272381611e9c565b82525050565b600060208201905061273e600083018461271a565b92915050565b61274d81611f25565b82525050565b60006040820190506127686000830185612744565b6127756020830184611e5e565b9392505050565b7f4e487b7100000000000000000000000000000000000000000000000000000000600052601160045260246000fd5b60006127b682611e54565b91506127c183611e54565b92508282039050818111156127d9576127d861277c565b5b92915050565b60006127ea82611e54565b91506127f583611e54565b925082820261280381611e54565b9150828204841483151761281a5761281961277c565b5b5092915050565b7f4e487b7100000000000000000000000000000000000000000000000000000000600052601260045260246000fd5b600061285b82611e54565b915061286683611e54565b92508261287657612875612821565b5b828204905092915050565b600061288c82611e54565b915061289783611e54565b92508282019050808211156128af576128ae61277c565b5b92915050565b60006060820190506128ca6000830186611e5e565b6128d76020830185611e5e565b6128e46040830184611e5e565b949350505050565b60006020820190506129016000830184612744565b92915050565b60008151905061291681611f63565b92915050565b60006020828403121561293257612931611e92565b5b600061294084828501612907565b91505092915050565b600082825260208201905092915050565b7f54504d3a207072696365206d61726b757020746f6f2068696768000000000000600082015250565b6000612990601a83612949565b915061299b8261295a565b602082019050919050565b600060208201905081810360008301526129bf81612983565b9050919050565b7f54504d3a207072696365206d61726b757020746f6f206c6f7700000000000000600082015250565b60006129fc601983612949565b9150612a07826129c6565b602082019050919050565b60006020820190508181036000830152612a2b816129ef565b9050919050565b612a3b81611e54565b82525050565b608082016000820151612a576000850182612a32565b506020820151612a6a6020850182612a32565b506040820151612a7d6040850182612a32565b506060820151612a906060850182612a32565b50505050565b6000608082019050612aab6000830184612a41565b92915050565b600069ffffffffffffffffffff82169050919050565b612ad081612ab1565b8114612adb57600080fd5b50565b600081519050612aed81612ac7565b92915050565b6000819050919050565b612b0681612af3565b8114612b1157600080fd5b50565b600081519050612b2381612afd565b92915050565b600080600080600060a08688031215612b4557612b44611e92565b5b6000612b5388828901612ade565b9550506020612b6488828901612b14565b9450506040612b7588828901612907565b9350506060612b8688828901612907565b9250506080612b9788828901612ade565b9150509295509295909350565b7f54504d3a20436861696e6c696e6b207072696365203c3d203000000000000000600082015250565b6000612bda601983612949565b9150612be582612ba4565b602082019050919050565b60006020820190508181036000830152612c0981612bcd565b9050919050565b7f54504d3a20496e636f6d706c65746520726f756e640000000000000000000000600082015250565b6000612c46601583612949565b9150612c5182612c10565b602082019050919050565b60006020820190508181036000830152612c7581612c39565b9050919050565b7f54504d3a205374616c6520707269636500000000000000000000000000000000600082015250565b6000612cb2601083612949565b9150612cbd82612c7c565b602082019050919050565b60006020820190508181036000830152612ce181612ca5565b9050919050565b6000604082019050612cfd6000830185612100565b612d0a6020830184611e5e565b9392505050565b7f53656e646572206e6f7420456e747279506f696e740000000000000000000000600082015250565b6000612d47601583612949565b9150612d5282612d11565b602082019050919050565b60006020820190508181036000830152612d7681612d3a565b9050919050565b60008060008060808587031215612d9757612d96611e92565b5b6000612da587828801611f7a565b9450506020612db687828801611f7a565b9350506040612dc787828801611f7a565b9250506060612dd887828801611f4e565b91505092959194509250565b600080fd5b600080fd5b600080fd5b60008083356001602003843603038112612e1057612e0f612de4565b5b80840192508235915067ffffffffffffffff821115612e3257612e31612de9565b5b602083019250600182023603831315612e4e57612e4d612dee565b5b509250929050565b7f54504d3a20696e76616c69642064617461206c656e6774680000000000000000600082015250565b6000612e8c601883612949565b9150612e9782612e56565b602082019050919050565b60006020820190508181036000830152612ebb81612e7f565b9050919050565b600080fd5b600080fd5b60008085851115612ee057612edf612ec2565b5b83861115612ef157612ef0612ec7565b5b6001850283019150848603905094509492505050565b600082905092915050565b600082821b905092915050565b6000612f2b8383612f07565b82612f3681356125c6565b92506020821015612f7657612f717fffffffffffffffffffffffffffffffffffffffffffffffffffffffffffffffff83602003600802612f12565b831692505b505092915050565b6000608082019050612f936000830187611e5e565b612fa06020830186611e5e565b612fad6040830185611e5e565b612fba6060830184612100565b95945050505050565b600081519050612fd281612055565b92915050565b600060208284031215612fee57612fed611e92565b5b6000612ffc84828501612fc3565b91505092915050565b600060608201905061301a6000830186612100565b6130276020830185612100565b6130346040830184611e5e565b949350505050565b60006040820190506130516000830185611e5e565b61305e6020830184612100565b9392505050565b600081905092915050565b600061307b8261266b565b6130858185613065565b9350613095818560208601612687565b80840191505092915050565b60006130ad8284613070565b915081905092915050565b600061ffff82169050919050565b60006130d1826130b8565b91506130dc836130b8565b9250828203905061ffff8111156130f6576130f561277c565b5b92915050565b613105816120ee565b82525050565b61311481612227565b82525050565b61312381611f05565b82525050565b6101008201600082015161314060008501826130fc565b50602082015161315360208501826130fc565b506040820151613166604085018261310b565b50606082015161317960608501826130fc565b50608082015161318c6080850182612a32565b5060a082015161319f60a0850182612a32565b5060c08201516131b260c0850182612a32565b5060e08201516131c560e085018261311a565b50505050565b6000610100820190506131e16000830184613129565b92915050565b60006080820190506131fc6000830187612100565b6132096020830186612100565b6132166040830185611e5e565b6132236060830184611e5e565b9594505050505056fea26469706673582212207e206d081ad617e430d210f0a1b7050fdfea3195a438b5f6917217c950a959cf64736f6c63430008140033","opcodes":"PUSH2 0x120 PUSH1 0x40 MSTORE CALLVALUE DUP1 ISZERO PUSH3 0x12 JUMPI PUSH1 0x0 DUP1 REVERT JUMPDEST POP PUSH1 0x40 MLOAD PUSH3 0x4793 CODESIZE SUB DUP1 PUSH3 0x4793 DUP4 CODECOPY DUP2 DUP2 ADD PUSH1 0x40 MSTORE DUP2 ADD SWAP1 PUSH3 0x38 SWAP2 SWAP1 PUSH3 0xEC4 JUMP JUMPDEST DUP3 DUP9 DUP8 DUP8 DUP12 PUSH20 0xFFFFFFFFFFFFFFFFFFFFFFFFFFFFFFFFFFFFFFFF AND PUSH4 0x313CE567 PUSH1 0x40 MLOAD DUP2 PUSH4 0xFFFFFFFF AND PUSH1 0xE0 SHL DUP2 MSTORE PUSH1 0x4 ADD PUSH1 0x20 PUSH1 0x40 MLOAD DUP1 DUP4 SUB DUP2 DUP7 GAS STATICCALL ISZERO DUP1 ISZERO PUSH3 0x88 JUMPI RETURNDATASIZE PUSH1 0x0 DUP1 RETURNDATACOPY RETURNDATASIZE PUSH1 0x0 REVERT JUMPDEST POP POP POP POP PUSH1 0x40 MLOAD RETURNDATASIZE PUSH1 0x1F NOT PUSH1 0x1F DUP3 ADD AND DUP3 ADD DUP1 PUSH1 0x40 MSTORE POP DUP2 ADD SWAP1 PUSH3 0xAE SWAP2 SWAP1 PUSH3 0xF90 JUMP JUMPDEST PUSH1 0xA PUSH3 0xBC SWAP2 SWAP1 PUSH3 0x1145 JUMP JUMPDEST DUP7 DUP13 ORIGIN PUSH1 0x0 PUSH20 0xFFFFFFFFFFFFFFFFFFFFFFFFFFFFFFFFFFFFFFFF AND DUP2 PUSH20 0xFFFFFFFFFFFFFFFFFFFFFFFFFFFFFFFFFFFFFFFF AND SUB PUSH3 0x134 JUMPI PUSH1 0x0 PUSH1 0x40 MLOAD PUSH32 0x1E4FBDF700000000000000000000000000000000000000000000000000000000 DUP2 MSTORE PUSH1 0x4 ADD PUSH3 0x12B SWAP2 SWAP1 PUSH3 0x11A7 JUMP JUMPDEST PUSH1 0x40 MLOAD DUP1 SWAP2 SUB SWAP1 REVERT JUMPDEST PUSH3 0x145 DUP2 PUSH3 0x343 PUSH1 0x20 SHL PUSH1 0x20 SHR JUMP JUMPDEST POP DUP1 PUSH20 0xFFFFFFFFFFFFFFFFFFFFFFFFFFFFFFFFFFFFFFFF AND PUSH1 0x80 DUP2 PUSH20 0xFFFFFFFFFFFFFFFFFFFFFFFFFFFFFFFFFFFFFFFF AND DUP2 MSTORE POP POP POP DUP5 PUSH20 0xFFFFFFFFFFFFFFFFFFFFFFFFFFFFFFFFFFFFFFFF AND PUSH4 0x95EA7B3 DUP5 PUSH32 0xFFFFFFFFFFFFFFFFFFFFFFFFFFFFFFFFFFFFFFFFFFFFFFFFFFFFFFFFFFFFFFFF PUSH1 0x40 MLOAD DUP4 PUSH4 0xFFFFFFFF AND PUSH1 0xE0 SHL DUP2 MSTORE PUSH1 0x4 ADD PUSH3 0x1D8 SWAP3 SWAP2 SWAP1 PUSH3 0x11D5 JUMP JUMPDEST PUSH1 0x20 PUSH1 0x40 MLOAD DUP1 DUP4 SUB DUP2 PUSH1 0x0 DUP8 GAS CALL ISZERO DUP1 ISZERO PUSH3 0x1F8 JUMPI RETURNDATASIZE PUSH1 0x0 DUP1 RETURNDATACOPY RETURNDATASIZE PUSH1 0x0 REVERT JUMPDEST POP POP POP POP PUSH1 0x40 MLOAD RETURNDATASIZE PUSH1 0x1F NOT PUSH1 0x1F DUP3 ADD AND DUP3 ADD DUP1 PUSH1 0x40 MSTORE POP DUP2 ADD SWAP1 PUSH3 0x21E SWAP2 SWAP1 PUSH3 0x1202 JUMP JUMPDEST POP DUP5 PUSH20 0xFFFFFFFFFFFFFFFFFFFFFFFFFFFFFFFFFFFFFFFF AND PUSH1 0xC0 DUP2 PUSH20 0xFFFFFFFFFFFFFFFFFFFFFFFFFFFFFFFFFFFFFFFF AND DUP2 MSTORE POP POP DUP4 PUSH20 0xFFFFFFFFFFFFFFFFFFFFFFFFFFFFFFFFFFFFFFFF AND PUSH1 0xE0 DUP2 PUSH20 0xFFFFFFFFFFFFFFFFFFFFFFFFFFFFFFFFFFFFFFFF AND DUP2 MSTORE POP POP DUP3 PUSH20 0xFFFFFFFFFFFFFFFFFFFFFFFFFFFFFFFFFFFFFFFF AND PUSH1 0xA0 DUP2 PUSH20 0xFFFFFFFFFFFFFFFFFFFFFFFFFFFFFFFFFFFFFFFF AND DUP2 MSTORE POP POP DUP2 PUSH2 0x100 DUP2 DUP2 MSTORE POP POP PUSH3 0x2D5 DUP2 PUSH3 0x407 PUSH1 0x20 SHL PUSH1 0x20 SHR JUMP JUMPDEST POP POP POP POP POP PUSH32 0xFFFFFFFFFFFFFFFFFFFFFFFFFFFFFFFFFFFFFFFFFFFFFFFFFFFFFFFFFFFFFFFF PUSH1 0x3 DUP2 SWAP1 SSTORE POP PUSH3 0x312 DUP2 PUSH3 0x460 PUSH1 0x20 SHL PUSH1 0x20 SHR JUMP JUMPDEST POP PUSH3 0x324 DUP5 PUSH3 0x70E PUSH1 0x20 SHL PUSH1 0x20 SHR JUMP JUMPDEST PUSH3 0x335 DUP2 PUSH3 0x840 PUSH1 0x20 SHL PUSH1 0x20 SHR JUMP JUMPDEST POP POP POP POP POP POP POP POP PUSH3 0x1471 JUMP JUMPDEST PUSH1 0x0 DUP1 PUSH1 0x0 SWAP1 SLOAD SWAP1 PUSH2 0x100 EXP SWAP1 DIV PUSH20 0xFFFFFFFFFFFFFFFFFFFFFFFFFFFFFFFFFFFFFFFF AND SWAP1 POP DUP2 PUSH1 0x0 DUP1 PUSH2 0x100 EXP DUP2 SLOAD DUP2 PUSH20 0xFFFFFFFFFFFFFFFFFFFFFFFFFFFFFFFFFFFFFFFF MUL NOT AND SWAP1 DUP4 PUSH20 0xFFFFFFFFFFFFFFFFFFFFFFFFFFFFFFFFFFFFFFFF AND MUL OR SWAP1 SSTORE POP DUP2 PUSH20 0xFFFFFFFFFFFFFFFFFFFFFFFFFFFFFFFFFFFFFFFF AND DUP2 PUSH20 0xFFFFFFFFFFFFFFFFFFFFFFFFFFFFFFFFFFFFFFFF AND PUSH32 0x8BE0079C531659141344CD1FD0A4F28419497F9722A3DAAFE3B4186F6B6457E0 PUSH1 0x40 MLOAD PUSH1 0x40 MLOAD DUP1 SWAP2 SUB SWAP1 LOG3 POP POP JUMP JUMPDEST DUP1 PUSH1 0x1 PUSH1 0x0 DUP3 ADD MLOAD DUP2 PUSH1 0x0 ADD SSTORE PUSH1 0x20 DUP3 ADD MLOAD DUP2 PUSH1 0x1 ADD PUSH1 0x0 PUSH2 0x100 EXP DUP2 SLOAD DUP2 PUSH3 0xFFFFFF MUL NOT AND SWAP1 DUP4 PUSH3 0xFFFFFF AND MUL OR SWAP1 SSTORE POP PUSH1 0x40 DUP3 ADD MLOAD DUP2 PUSH1 0x1 ADD PUSH1 0x3 PUSH2 0x100 EXP DUP2 SLOAD DUP2 PUSH1 0xFF MUL NOT AND SWAP1 DUP4 PUSH1 0xFF AND MUL OR SWAP1 SSTORE POP SWAP1 POP POP POP JUMP JUMPDEST DUP1 PUSH1 0x5 PUSH1 0x0 DUP3 ADD MLOAD DUP2 PUSH1 0x0 ADD PUSH1 0x0 PUSH2 0x100 EXP DUP2 SLOAD DUP2 PUSH20 0xFFFFFFFFFFFFFFFFFFFFFFFFFFFFFFFFFFFFFFFF MUL NOT AND SWAP1 DUP4 PUSH20 0xFFFFFFFFFFFFFFFFFFFFFFFFFFFFFFFFFFFFFFFF AND MUL OR SWAP1 SSTORE POP PUSH1 0x20 DUP3 ADD MLOAD DUP2 PUSH1 0x1 ADD PUSH1 0x0 PUSH2 0x100 EXP DUP2 SLOAD DUP2 PUSH20 0xFFFFFFFFFFFFFFFFFFFFFFFFFFFFFFFFFFFFFFFF MUL NOT AND SWAP1 DUP4 PUSH20 0xFFFFFFFFFFFFFFFFFFFFFFFFFFFFFFFFFFFFFFFF AND MUL OR SWAP1 SSTORE POP PUSH1 0x40 DUP3 ADD MLOAD DUP2 PUSH1 0x1 ADD PUSH1 0x14 PUSH2 0x100 EXP DUP2 SLOAD DUP2 PUSH1 0xFF MUL NOT AND SWAP1 DUP4 ISZERO ISZERO MUL OR SWAP1 SSTORE POP PUSH1 0x60 DUP3 ADD MLOAD DUP2 PUSH1 0x1 ADD PUSH1 0x15 PUSH2 0x100 EXP DUP2 SLOAD DUP2 PUSH1 0xFF MUL NOT AND SWAP1 DUP4 ISZERO ISZERO MUL OR SWAP1 SSTORE POP PUSH1 0x80 DUP3 ADD MLOAD DUP2 PUSH1 0x1 ADD PUSH1 0x16 PUSH2 0x100 EXP DUP2 SLOAD DUP2 PUSH1 0xFF MUL NOT AND SWAP1 DUP4 ISZERO ISZERO MUL OR SWAP1 SSTORE POP PUSH1 0xA0 DUP3 ADD MLOAD DUP2 PUSH1 0x2 ADD SSTORE PUSH1 0xC0 DUP3 ADD MLOAD DUP2 PUSH1 0x3 ADD SSTORE SWAP1 POP POP PUSH3 0xF4240 DUP2 PUSH1 0xA0 ADD MLOAD GT ISZERO PUSH3 0x5B5 JUMPI PUSH1 0x40 MLOAD PUSH32 0x8C379A000000000000000000000000000000000000000000000000000000000 DUP2 MSTORE PUSH1 0x4 ADD PUSH3 0x5AC SWAP1 PUSH3 0x1295 JUMP JUMPDEST PUSH1 0x40 MLOAD DUP1 SWAP2 SUB SWAP1 REVERT JUMPDEST PUSH1 0x5 PUSH1 0x0 ADD PUSH1 0x0 SWAP1 SLOAD SWAP1 PUSH2 0x100 EXP SWAP1 DIV PUSH20 0xFFFFFFFFFFFFFFFFFFFFFFFFFFFFFFFFFFFFFFFF AND PUSH20 0xFFFFFFFFFFFFFFFFFFFFFFFFFFFFFFFFFFFFFFFF AND PUSH4 0x313CE567 PUSH1 0x40 MLOAD DUP2 PUSH4 0xFFFFFFFF AND PUSH1 0xE0 SHL DUP2 MSTORE PUSH1 0x4 ADD PUSH1 0x20 PUSH1 0x40 MLOAD DUP1 DUP4 SUB DUP2 DUP7 GAS STATICCALL ISZERO DUP1 ISZERO PUSH3 0x626 JUMPI RETURNDATASIZE PUSH1 0x0 DUP1 RETURNDATACOPY RETURNDATASIZE PUSH1 0x0 REVERT JUMPDEST POP POP POP POP PUSH1 0x40 MLOAD RETURNDATASIZE PUSH1 0x1F NOT PUSH1 0x1F DUP3 ADD AND DUP3 ADD DUP1 PUSH1 0x40 MSTORE POP DUP2 ADD SWAP1 PUSH3 0x64C SWAP2 SWAP1 PUSH3 0xF90 JUMP JUMPDEST PUSH1 0xA PUSH3 0x65A SWAP2 SWAP1 PUSH3 0x1145 JUMP JUMPDEST PUSH1 0x9 DUP2 SWAP1 SSTORE POP PUSH1 0x5 PUSH1 0x1 ADD PUSH1 0x0 SWAP1 SLOAD SWAP1 PUSH2 0x100 EXP SWAP1 DIV PUSH20 0xFFFFFFFFFFFFFFFFFFFFFFFFFFFFFFFFFFFFFFFF AND PUSH20 0xFFFFFFFFFFFFFFFFFFFFFFFFFFFFFFFFFFFFFFFF AND PUSH4 0x313CE567 PUSH1 0x40 MLOAD DUP2 PUSH4 0xFFFFFFFF AND PUSH1 0xE0 SHL DUP2 MSTORE PUSH1 0x4 ADD PUSH1 0x20 PUSH1 0x40 MLOAD DUP1 DUP4 SUB DUP2 DUP7 GAS STATICCALL ISZERO DUP1 ISZERO PUSH3 0x6D1 JUMPI RETURNDATASIZE PUSH1 0x0 DUP1 RETURNDATACOPY RETURNDATASIZE PUSH1 0x0 REVERT JUMPDEST POP POP POP POP PUSH1 0x40 MLOAD RETURNDATASIZE PUSH1 0x1F NOT PUSH1 0x1F DUP3 ADD AND DUP3 ADD DUP1 PUSH1 0x40 MSTORE POP DUP2 ADD SWAP1 PUSH3 0x6F7 SWAP2 SWAP1 PUSH3 0xF90 JUMP JUMPDEST PUSH1 0xA PUSH3 0x705 SWAP2 SWAP1 PUSH3 0x1145 JUMP JUMPDEST PUSH1 0xA DUP2 SWAP1 SSTORE POP POP JUMP JUMPDEST PUSH3 0x71E PUSH3 0x8D9 PUSH1 0x20 SHL PUSH1 0x20 SHR JUMP JUMPDEST PUSH11 0x52B7D2DCC80CD2E4000000 PUSH1 0x2 PUSH3 0x738 SWAP2 SWAP1 PUSH3 0x12B7 JUMP JUMPDEST DUP2 PUSH1 0x0 ADD MLOAD GT ISZERO PUSH3 0x781 JUMPI PUSH1 0x40 MLOAD PUSH32 0x8C379A000000000000000000000000000000000000000000000000000000000 DUP2 MSTORE PUSH1 0x4 ADD PUSH3 0x778 SWAP1 PUSH3 0x1352 JUMP JUMPDEST PUSH1 0x40 MLOAD DUP1 SWAP2 SUB SWAP1 REVERT JUMPDEST PUSH11 0x52B7D2DCC80CD2E4000000 DUP2 PUSH1 0x0 ADD MLOAD LT ISZERO PUSH3 0x7D6 JUMPI PUSH1 0x40 MLOAD PUSH32 0x8C379A000000000000000000000000000000000000000000000000000000000 DUP2 MSTORE PUSH1 0x4 ADD PUSH3 0x7CD SWAP1 PUSH3 0x13C4 JUMP JUMPDEST PUSH1 0x40 MLOAD DUP1 SWAP2 SUB SWAP1 REVERT JUMPDEST DUP1 PUSH1 0xB PUSH1 0x0 DUP3 ADD MLOAD DUP2 PUSH1 0x0 ADD SSTORE PUSH1 0x20 DUP3 ADD MLOAD DUP2 PUSH1 0x1 ADD SSTORE PUSH1 0x40 DUP3 ADD MLOAD DUP2 PUSH1 0x2 ADD SSTORE PUSH1 0x60 DUP3 ADD MLOAD DUP2 PUSH1 0x3 ADD SSTORE SWAP1 POP POP PUSH32 0x9359E69EA224934F7CFBC6E6336E1A65F96EB6607C898F94589B52F4806EECE8 DUP2 PUSH1 0x40 MLOAD PUSH3 0x835 SWAP2 SWAP1 PUSH3 0x1454 JUMP JUMPDEST PUSH1 0x40 MLOAD DUP1 SWAP2 SUB SWAP1 LOG1 POP JUMP JUMPDEST PUSH3 0x850 PUSH3 0x8D9 PUSH1 0x20 SHL PUSH1 0x20 SHR JUMP JUMPDEST PUSH1 0x0 PUSH20 0xFFFFFFFFFFFFFFFFFFFFFFFFFFFFFFFFFFFFFFFF AND DUP2 PUSH20 0xFFFFFFFFFFFFFFFFFFFFFFFFFFFFFFFFFFFFFFFF AND SUB PUSH3 0x8C5 JUMPI PUSH1 0x0 PUSH1 0x40 MLOAD PUSH32 0x1E4FBDF700000000000000000000000000000000000000000000000000000000 DUP2 MSTORE PUSH1 0x4 ADD PUSH3 0x8BC SWAP2 SWAP1 PUSH3 0x11A7 JUMP JUMPDEST PUSH1 0x40 MLOAD DUP1 SWAP2 SUB SWAP1 REVERT JUMPDEST PUSH3 0x8D6 DUP2 PUSH3 0x343 PUSH1 0x20 SHL PUSH1 0x20 SHR JUMP JUMPDEST POP JUMP JUMPDEST PUSH3 0x8E9 PUSH3 0x97B PUSH1 0x20 SHL PUSH1 0x20 SHR JUMP JUMPDEST PUSH20 0xFFFFFFFFFFFFFFFFFFFFFFFFFFFFFFFFFFFFFFFF AND PUSH3 0x90F PUSH3 0x983 PUSH1 0x20 SHL PUSH1 0x20 SHR JUMP JUMPDEST PUSH20 0xFFFFFFFFFFFFFFFFFFFFFFFFFFFFFFFFFFFFFFFF AND EQ PUSH3 0x979 JUMPI PUSH3 0x93B PUSH3 0x97B PUSH1 0x20 SHL PUSH1 0x20 SHR JUMP JUMPDEST PUSH1 0x40 MLOAD PUSH32 0x118CDAA700000000000000000000000000000000000000000000000000000000 DUP2 MSTORE PUSH1 0x4 ADD PUSH3 0x970 SWAP2 SWAP1 PUSH3 0x11A7 JUMP JUMPDEST PUSH1 0x40 MLOAD DUP1 SWAP2 SUB SWAP1 REVERT JUMPDEST JUMP JUMPDEST PUSH1 0x0 CALLER SWAP1 POP SWAP1 JUMP JUMPDEST PUSH1 0x0 DUP1 PUSH1 0x0 SWAP1 SLOAD SWAP1 PUSH2 0x100 EXP SWAP1 DIV PUSH20 0xFFFFFFFFFFFFFFFFFFFFFFFFFFFFFFFFFFFFFFFF AND SWAP1 POP SWAP1 JUMP JUMPDEST PUSH1 0x0 PUSH1 0x40 MLOAD SWAP1 POP SWAP1 JUMP JUMPDEST PUSH1 0x0 DUP1 REVERT JUMPDEST PUSH1 0x0 PUSH20 0xFFFFFFFFFFFFFFFFFFFFFFFFFFFFFFFFFFFFFFFF DUP3 AND SWAP1 POP SWAP2 SWAP1 POP JUMP JUMPDEST PUSH1 0x0 PUSH3 0x9E8 DUP3 PUSH3 0x9BB JUMP JUMPDEST SWAP1 POP SWAP2 SWAP1 POP JUMP JUMPDEST PUSH1 0x0 PUSH3 0x9FC DUP3 PUSH3 0x9DB JUMP JUMPDEST SWAP1 POP SWAP2 SWAP1 POP JUMP JUMPDEST PUSH3 0xA0E DUP2 PUSH3 0x9EF JUMP JUMPDEST DUP2 EQ PUSH3 0xA1A JUMPI PUSH1 0x0 DUP1 REVERT JUMPDEST POP JUMP JUMPDEST PUSH1 0x0 DUP2 MLOAD SWAP1 POP PUSH3 0xA2E DUP2 PUSH3 0xA03 JUMP JUMPDEST SWAP3 SWAP2 POP POP JUMP JUMPDEST PUSH1 0x0 PUSH3 0xA41 DUP3 PUSH3 0x9DB JUMP JUMPDEST SWAP1 POP SWAP2 SWAP1 POP JUMP JUMPDEST PUSH3 0xA53 DUP2 PUSH3 0xA34 JUMP JUMPDEST DUP2 EQ PUSH3 0xA5F JUMPI PUSH1 0x0 DUP1 REVERT JUMPDEST POP JUMP JUMPDEST PUSH1 0x0 DUP2 MLOAD SWAP1 POP PUSH3 0xA73 DUP2 PUSH3 0xA48 JUMP JUMPDEST SWAP3 SWAP2 POP POP JUMP JUMPDEST PUSH1 0x0 PUSH3 0xA86 DUP3 PUSH3 0x9DB JUMP JUMPDEST SWAP1 POP SWAP2 SWAP1 POP JUMP JUMPDEST PUSH3 0xA98 DUP2 PUSH3 0xA79 JUMP JUMPDEST DUP2 EQ PUSH3 0xAA4 JUMPI PUSH1 0x0 DUP1 REVERT JUMPDEST POP JUMP JUMPDEST PUSH1 0x0 DUP2 MLOAD SWAP1 POP PUSH3 0xAB8 DUP2 PUSH3 0xA8D JUMP JUMPDEST SWAP3 SWAP2 POP POP JUMP JUMPDEST PUSH1 0x0 PUSH3 0xACB DUP3 PUSH3 0x9DB JUMP JUMPDEST SWAP1 POP SWAP2 SWAP1 POP JUMP JUMPDEST PUSH3 0xADD DUP2 PUSH3 0xABE JUMP JUMPDEST DUP2 EQ PUSH3 0xAE9 JUMPI PUSH1 0x0 DUP1 REVERT JUMPDEST POP JUMP JUMPDEST PUSH1 0x0 DUP2 MLOAD SWAP1 POP PUSH3 0xAFD DUP2 PUSH3 0xAD2 JUMP JUMPDEST SWAP3 SWAP2 POP POP JUMP JUMPDEST PUSH1 0x0 DUP1 REVERT JUMPDEST PUSH1 0x0 PUSH1 0x1F NOT PUSH1 0x1F DUP4 ADD AND SWAP1 POP SWAP2 SWAP1 POP JUMP JUMPDEST PUSH32 0x4E487B7100000000000000000000000000000000000000000000000000000000 PUSH1 0x0 MSTORE PUSH1 0x41 PUSH1 0x4 MSTORE PUSH1 0x24 PUSH1 0x0 REVERT JUMPDEST PUSH3 0xB53 DUP3 PUSH3 0xB08 JUMP JUMPDEST DUP2 ADD DUP2 DUP2 LT PUSH8 0xFFFFFFFFFFFFFFFF DUP3 GT OR ISZERO PUSH3 0xB75 JUMPI PUSH3 0xB74 PUSH3 0xB19 JUMP JUMPDEST JUMPDEST DUP1 PUSH1 0x40 MSTORE POP POP POP JUMP JUMPDEST PUSH1 0x0 PUSH3 0xB8A PUSH3 0x9AC JUMP JUMPDEST SWAP1 POP PUSH3 0xB98 DUP3 DUP3 PUSH3 0xB48 JUMP JUMPDEST SWAP2 SWAP1 POP JUMP JUMPDEST PUSH1 0x0 DUP2 SWAP1 POP SWAP2 SWAP1 POP JUMP JUMPDEST PUSH3 0xBB2 DUP2 PUSH3 0xB9D JUMP JUMPDEST DUP2 EQ PUSH3 0xBBE JUMPI PUSH1 0x0 DUP1 REVERT JUMPDEST POP JUMP JUMPDEST PUSH1 0x0 DUP2 MLOAD SWAP1 POP PUSH3 0xBD2 DUP2 PUSH3 0xBA7 JUMP JUMPDEST SWAP3 SWAP2 POP POP JUMP JUMPDEST PUSH1 0x0 PUSH1 0x80 DUP3 DUP5 SUB SLT ISZERO PUSH3 0xBF1 JUMPI PUSH3 0xBF0 PUSH3 0xB03 JUMP JUMPDEST JUMPDEST PUSH3 0xBFD PUSH1 0x80 PUSH3 0xB7E JUMP JUMPDEST SWAP1 POP PUSH1 0x0 PUSH3 0xC0F DUP5 DUP3 DUP6 ADD PUSH3 0xBC1 JUMP JUMPDEST PUSH1 0x0 DUP4 ADD MSTORE POP PUSH1 0x20 PUSH3 0xC25 DUP5 DUP3 DUP6 ADD PUSH3 0xBC1 JUMP JUMPDEST PUSH1 0x20 DUP4 ADD MSTORE POP PUSH1 0x40 PUSH3 0xC3B DUP5 DUP3 DUP6 ADD PUSH3 0xBC1 JUMP JUMPDEST PUSH1 0x40 DUP4 ADD MSTORE POP PUSH1 0x60 PUSH3 0xC51 DUP5 DUP3 DUP6 ADD PUSH3 0xBC1 JUMP JUMPDEST PUSH1 0x60 DUP4 ADD MSTORE POP SWAP3 SWAP2 POP POP JUMP JUMPDEST PUSH1 0x0 PUSH3 0xC6A DUP3 PUSH3 0x9DB JUMP JUMPDEST SWAP1 POP SWAP2 SWAP1 POP JUMP JUMPDEST PUSH3 0xC7C DUP2 PUSH3 0xC5D JUMP JUMPDEST DUP2 EQ PUSH3 0xC88 JUMPI PUSH1 0x0 DUP1 REVERT JUMPDEST POP JUMP JUMPDEST PUSH1 0x0 DUP2 MLOAD SWAP1 POP PUSH3 0xC9C DUP2 PUSH3 0xC71 JUMP JUMPDEST SWAP3 SWAP2 POP POP JUMP JUMPDEST PUSH1 0x0 DUP2 ISZERO ISZERO SWAP1 POP SWAP2 SWAP1 POP JUMP JUMPDEST PUSH3 0xCB9 DUP2 PUSH3 0xCA2 JUMP JUMPDEST DUP2 EQ PUSH3 0xCC5 JUMPI PUSH1 0x0 DUP1 REVERT JUMPDEST POP JUMP JUMPDEST PUSH1 0x0 DUP2 MLOAD SWAP1 POP PUSH3 0xCD9 DUP2 PUSH3 0xCAE JUMP JUMPDEST SWAP3 SWAP2 POP POP JUMP JUMPDEST PUSH1 0x0 PUSH1 0xE0 DUP3 DUP5 SUB SLT ISZERO PUSH3 0xCF8 JUMPI PUSH3 0xCF7 PUSH3 0xB03 JUMP JUMPDEST JUMPDEST PUSH3 0xD04 PUSH1 0xE0 PUSH3 0xB7E JUMP JUMPDEST SWAP1 POP PUSH1 0x0 PUSH3 0xD16 DUP5 DUP3 DUP6 ADD PUSH3 0xC8B JUMP JUMPDEST PUSH1 0x0 DUP4 ADD MSTORE POP PUSH1 0x20 PUSH3 0xD2C DUP5 DUP3 DUP6 ADD PUSH3 0xC8B JUMP JUMPDEST PUSH1 0x20 DUP4 ADD MSTORE POP PUSH1 0x40 PUSH3 0xD42 DUP5 DUP3 DUP6 ADD PUSH3 0xCC8 JUMP JUMPDEST PUSH1 0x40 DUP4 ADD MSTORE POP PUSH1 0x60 PUSH3 0xD58 DUP5 DUP3 DUP6 ADD PUSH3 0xCC8 JUMP JUMPDEST PUSH1 0x60 DUP4 ADD MSTORE POP PUSH1 0x80 PUSH3 0xD6E DUP5 DUP3 DUP6 ADD PUSH3 0xCC8 JUMP JUMPDEST PUSH1 0x80 DUP4 ADD MSTORE POP PUSH1 0xA0 PUSH3 0xD84 DUP5 DUP3 DUP6 ADD PUSH3 0xBC1 JUMP JUMPDEST PUSH1 0xA0 DUP4 ADD MSTORE POP PUSH1 0xC0 PUSH3 0xD9A DUP5 DUP3 DUP6 ADD PUSH3 0xBC1 JUMP JUMPDEST PUSH1 0xC0 DUP4 ADD MSTORE POP SWAP3 SWAP2 POP POP JUMP JUMPDEST PUSH1 0x0 PUSH3 0xFFFFFF DUP3 AND SWAP1 POP SWAP2 SWAP1 POP JUMP JUMPDEST PUSH3 0xDC0 DUP2 PUSH3 0xDA6 JUMP JUMPDEST DUP2 EQ PUSH3 0xDCC JUMPI PUSH1 0x0 DUP1 REVERT JUMPDEST POP JUMP JUMPDEST PUSH1 0x0 DUP2 MLOAD SWAP1 POP PUSH3 0xDE0 DUP2 PUSH3 0xDB5 JUMP JUMPDEST SWAP3 SWAP2 POP POP JUMP JUMPDEST PUSH1 0x0 PUSH1 0xFF DUP3 AND SWAP1 POP SWAP2 SWAP1 POP JUMP JUMPDEST PUSH3 0xDFE DUP2 PUSH3 0xDE6 JUMP JUMPDEST DUP2 EQ PUSH3 0xE0A JUMPI PUSH1 0x0 DUP1 REVERT JUMPDEST POP JUMP JUMPDEST PUSH1 0x0 DUP2 MLOAD SWAP1 POP PUSH3 0xE1E DUP2 PUSH3 0xDF3 JUMP JUMPDEST SWAP3 SWAP2 POP POP JUMP JUMPDEST PUSH1 0x0 PUSH1 0x60 DUP3 DUP5 SUB SLT ISZERO PUSH3 0xE3D JUMPI PUSH3 0xE3C PUSH3 0xB03 JUMP JUMPDEST JUMPDEST PUSH3 0xE49 PUSH1 0x60 PUSH3 0xB7E JUMP JUMPDEST SWAP1 POP PUSH1 0x0 PUSH3 0xE5B DUP5 DUP3 DUP6 ADD PUSH3 0xBC1 JUMP JUMPDEST PUSH1 0x0 DUP4 ADD MSTORE POP PUSH1 0x20 PUSH3 0xE71 DUP5 DUP3 DUP6 ADD PUSH3 0xDCF JUMP JUMPDEST PUSH1 0x20 DUP4 ADD MSTORE POP PUSH1 0x40 PUSH3 0xE87 DUP5 DUP3 DUP6 ADD PUSH3 0xE0D JUMP JUMPDEST PUSH1 0x40 DUP4 ADD MSTORE POP SWAP3 SWAP2 POP POP JUMP JUMPDEST PUSH3 0xE9E DUP2 PUSH3 0x9DB JUMP JUMPDEST DUP2 EQ PUSH3 0xEAA JUMPI PUSH1 0x0 DUP1 REVERT JUMPDEST POP JUMP JUMPDEST PUSH1 0x0 DUP2 MLOAD SWAP1 POP PUSH3 0xEBE DUP2 PUSH3 0xE93 JUMP JUMPDEST SWAP3 SWAP2 POP POP JUMP JUMPDEST PUSH1 0x0 DUP1 PUSH1 0x0 DUP1 PUSH1 0x0 DUP1 PUSH1 0x0 DUP1 PUSH2 0x260 DUP10 DUP12 SUB SLT ISZERO PUSH3 0xEE8 JUMPI PUSH3 0xEE7 PUSH3 0x9B6 JUMP JUMPDEST JUMPDEST PUSH1 0x0 PUSH3 0xEF8 DUP12 DUP3 DUP13 ADD PUSH3 0xA1D JUMP JUMPDEST SWAP9 POP POP PUSH1 0x20 PUSH3 0xF0B DUP12 DUP3 DUP13 ADD PUSH3 0xA62 JUMP JUMPDEST SWAP8 POP POP PUSH1 0x40 PUSH3 0xF1E DUP12 DUP3 DUP13 ADD PUSH3 0xAA7 JUMP JUMPDEST SWAP7 POP POP PUSH1 0x60 PUSH3 0xF31 DUP12 DUP3 DUP13 ADD PUSH3 0xAEC JUMP JUMPDEST SWAP6 POP POP PUSH1 0x80 PUSH3 0xF44 DUP12 DUP3 DUP13 ADD PUSH3 0xBD8 JUMP JUMPDEST SWAP5 POP POP PUSH2 0x100 PUSH3 0xF58 DUP12 DUP3 DUP13 ADD PUSH3 0xCDF JUMP JUMPDEST SWAP4 POP POP PUSH2 0x1E0 PUSH3 0xF6C DUP12 DUP3 DUP13 ADD PUSH3 0xE24 JUMP JUMPDEST SWAP3 POP POP PUSH2 0x240 PUSH3 0xF80 DUP12 DUP3 DUP13 ADD PUSH3 0xEAD JUMP JUMPDEST SWAP2 POP POP SWAP3 SWAP6 SWAP9 POP SWAP3 SWAP6 SWAP9 SWAP1 SWAP4 SWAP7 POP JUMP JUMPDEST PUSH1 0x0 PUSH1 0x20 DUP3 DUP5 SUB SLT ISZERO PUSH3 0xFA9 JUMPI PUSH3 0xFA8 PUSH3 0x9B6 JUMP JUMPDEST JUMPDEST PUSH1 0x0 PUSH3 0xFB9 DUP5 DUP3 DUP6 ADD PUSH3 0xE0D JUMP JUMPDEST SWAP2 POP POP SWAP3 SWAP2 POP POP JUMP JUMPDEST PUSH32 0x4E487B7100000000000000000000000000000000000000000000000000000000 PUSH1 0x0 MSTORE PUSH1 0x11 PUSH1 0x4 MSTORE PUSH1 0x24 PUSH1 0x0 REVERT JUMPDEST PUSH1 0x0 DUP2 PUSH1 0x1 SHR SWAP1 POP SWAP2 SWAP1 POP JUMP JUMPDEST PUSH1 0x0 DUP1 DUP3 SWAP2 POP DUP4 SWAP1 POP JUMPDEST PUSH1 0x1 DUP6 GT ISZERO PUSH3 0x1050 JUMPI DUP1 DUP7 DIV DUP2 GT ISZERO PUSH3 0x1028 JUMPI PUSH3 0x1027 PUSH3 0xFC2 JUMP JUMPDEST JUMPDEST PUSH1 0x1 DUP6 AND ISZERO PUSH3 0x1038 JUMPI DUP1 DUP3 MUL SWAP2 POP JUMPDEST DUP1 DUP2 MUL SWAP1 POP PUSH3 0x1048 DUP6 PUSH3 0xFF1 JUMP JUMPDEST SWAP5 POP PUSH3 0x1008 JUMP JUMPDEST SWAP5 POP SWAP5 SWAP3 POP POP POP JUMP JUMPDEST PUSH1 0x0 DUP3 PUSH3 0x106B JUMPI PUSH1 0x1 SWAP1 POP PUSH3 0x113E JUMP JUMPDEST DUP2 PUSH3 0x107B JUMPI PUSH1 0x0 SWAP1 POP PUSH3 0x113E JUMP JUMPDEST DUP2 PUSH1 0x1 DUP2 EQ PUSH3 0x1094 JUMPI PUSH1 0x2 DUP2 EQ PUSH3 0x109F JUMPI PUSH3 0x10D5 JUMP JUMPDEST PUSH1 0x1 SWAP2 POP POP PUSH3 0x113E JUMP JUMPDEST PUSH1 0xFF DUP5 GT ISZERO PUSH3 0x10B4 JUMPI PUSH3 0x10B3 PUSH3 0xFC2 JUMP JUMPDEST JUMPDEST DUP4 PUSH1 0x2 EXP SWAP2 POP DUP5 DUP3 GT ISZERO PUSH3 0x10CE JUMPI PUSH3 0x10CD PUSH3 0xFC2 JUMP JUMPDEST JUMPDEST POP PUSH3 0x113E JUMP JUMPDEST POP PUSH1 0x20 DUP4 LT PUSH2 0x133 DUP4 LT AND PUSH1 0x4E DUP5 LT PUSH1 0xB DUP5 LT AND OR ISZERO PUSH3 0x110F JUMPI DUP3 DUP3 EXP SWAP1 POP DUP4 DUP2 GT ISZERO PUSH3 0x1109 JUMPI PUSH3 0x1108 PUSH3 0xFC2 JUMP JUMPDEST JUMPDEST PUSH3 0x113E JUMP JUMPDEST PUSH3 0x111E DUP5 DUP5 DUP5 PUSH1 0x1 PUSH3 0xFFE JUMP JUMPDEST SWAP3 POP SWAP1 POP DUP2 DUP5 DIV DUP2 GT ISZERO PUSH3 0x1138 JUMPI PUSH3 0x1137 PUSH3 0xFC2 JUMP JUMPDEST JUMPDEST DUP2 DUP2 MUL SWAP1 POP JUMPDEST SWAP4 SWAP3 POP POP POP JUMP JUMPDEST PUSH1 0x0 PUSH3 0x1152 DUP3 PUSH3 0xB9D JUMP JUMPDEST SWAP2 POP PUSH3 0x115F DUP4 PUSH3 0xDE6 JUMP JUMPDEST SWAP3 POP PUSH3 0x118E PUSH32 0xFFFFFFFFFFFFFFFFFFFFFFFFFFFFFFFFFFFFFFFFFFFFFFFFFFFFFFFFFFFFFFFF DUP5 DUP5 PUSH3 0x1059 JUMP JUMPDEST SWAP1 POP SWAP3 SWAP2 POP POP JUMP JUMPDEST PUSH3 0x11A1 DUP2 PUSH3 0x9DB JUMP JUMPDEST DUP3 MSTORE POP POP JUMP JUMPDEST PUSH1 0x0 PUSH1 0x20 DUP3 ADD SWAP1 POP PUSH3 0x11BE PUSH1 0x0 DUP4 ADD DUP5 PUSH3 0x1196 JUMP JUMPDEST SWAP3 SWAP2 POP POP JUMP JUMPDEST PUSH3 0x11CF DUP2 PUSH3 0xB9D JUMP JUMPDEST DUP3 MSTORE POP POP JUMP JUMPDEST PUSH1 0x0 PUSH1 0x40 DUP3 ADD SWAP1 POP PUSH3 0x11EC PUSH1 0x0 DUP4 ADD DUP6 PUSH3 0x1196 JUMP JUMPDEST PUSH3 0x11FB PUSH1 0x20 DUP4 ADD DUP5 PUSH3 0x11C4 JUMP JUMPDEST SWAP4 SWAP3 POP POP POP JUMP JUMPDEST PUSH1 0x0 PUSH1 0x20 DUP3 DUP5 SUB SLT ISZERO PUSH3 0x121B JUMPI PUSH3 0x121A PUSH3 0x9B6 JUMP JUMPDEST JUMPDEST PUSH1 0x0 PUSH3 0x122B DUP5 DUP3 DUP6 ADD PUSH3 0xCC8 JUMP JUMPDEST SWAP2 POP POP SWAP3 SWAP2 POP POP JUMP JUMPDEST PUSH1 0x0 DUP3 DUP3 MSTORE PUSH1 0x20 DUP3 ADD SWAP1 POP SWAP3 SWAP2 POP POP JUMP JUMPDEST PUSH32 0x54504D3A20757064617465207468726573686F6C6420746F6F20686967680000 PUSH1 0x0 DUP3 ADD MSTORE POP JUMP JUMPDEST PUSH1 0x0 PUSH3 0x127D PUSH1 0x1E DUP4 PUSH3 0x1234 JUMP JUMPDEST SWAP2 POP PUSH3 0x128A DUP3 PUSH3 0x1245 JUMP JUMPDEST PUSH1 0x20 DUP3 ADD SWAP1 POP SWAP2 SWAP1 POP JUMP JUMPDEST PUSH1 0x0 PUSH1 0x20 DUP3 ADD SWAP1 POP DUP2 DUP2 SUB PUSH1 0x0 DUP4 ADD MSTORE PUSH3 0x12B0 DUP2 PUSH3 0x126E JUMP JUMPDEST SWAP1 POP SWAP2 SWAP1 POP JUMP JUMPDEST PUSH1 0x0 PUSH3 0x12C4 DUP3 PUSH3 0xB9D JUMP JUMPDEST SWAP2 POP PUSH3 0x12D1 DUP4 PUSH3 0xB9D JUMP JUMPDEST SWAP3 POP DUP3 DUP3 MUL PUSH3 0x12E1 DUP2 PUSH3 0xB9D JUMP JUMPDEST SWAP2 POP DUP3 DUP3 DIV DUP5 EQ DUP4 ISZERO OR PUSH3 0x12FB JUMPI PUSH3 0x12FA PUSH3 0xFC2 JUMP JUMPDEST JUMPDEST POP SWAP3 SWAP2 POP POP JUMP JUMPDEST PUSH32 0x54504D3A207072696365206D61726B757020746F6F2068696768000000000000 PUSH1 0x0 DUP3 ADD MSTORE POP JUMP JUMPDEST PUSH1 0x0 PUSH3 0x133A PUSH1 0x1A DUP4 PUSH3 0x1234 JUMP JUMPDEST SWAP2 POP PUSH3 0x1347 DUP3 PUSH3 0x1302 JUMP JUMPDEST PUSH1 0x20 DUP3 ADD SWAP1 POP SWAP2 SWAP1 POP JUMP JUMPDEST PUSH1 0x0 PUSH1 0x20 DUP3 ADD SWAP1 POP DUP2 DUP2 SUB PUSH1 0x0 DUP4 ADD MSTORE PUSH3 0x136D DUP2 PUSH3 0x132B JUMP JUMPDEST SWAP1 POP SWAP2 SWAP1 POP JUMP JUMPDEST PUSH32 0x54504D3A207072696365206D61726B757020746F6F206C6F7700000000000000 PUSH1 0x0 DUP3 ADD MSTORE POP JUMP JUMPDEST PUSH1 0x0 PUSH3 0x13AC PUSH1 0x19 DUP4 PUSH3 0x1234 JUMP JUMPDEST SWAP2 POP PUSH3 0x13B9 DUP3 PUSH3 0x1374 JUMP JUMPDEST PUSH1 0x20 DUP3 ADD SWAP1 POP SWAP2 SWAP1 POP JUMP JUMPDEST PUSH1 0x0 PUSH1 0x20 DUP3 ADD SWAP1 POP DUP2 DUP2 SUB PUSH1 0x0 DUP4 ADD MSTORE PUSH3 0x13DF DUP2 PUSH3 0x139D JUMP JUMPDEST SWAP1 POP SWAP2 SWAP1 POP JUMP JUMPDEST PUSH3 0x13F1 DUP2 PUSH3 0xB9D JUMP JUMPDEST DUP3 MSTORE POP POP JUMP JUMPDEST PUSH1 0x80 DUP3 ADD PUSH1 0x0 DUP3 ADD MLOAD PUSH3 0x140F PUSH1 0x0 DUP6 ADD DUP3 PUSH3 0x13E6 JUMP JUMPDEST POP PUSH1 0x20 DUP3 ADD MLOAD PUSH3 0x1424 PUSH1 0x20 DUP6 ADD DUP3 PUSH3 0x13E6 JUMP JUMPDEST POP PUSH1 0x40 DUP3 ADD MLOAD PUSH3 0x1439 PUSH1 0x40 DUP6 ADD DUP3 PUSH3 0x13E6 JUMP JUMPDEST POP PUSH1 0x60 DUP3 ADD MLOAD PUSH3 0x144E PUSH1 0x60 DUP6 ADD DUP3 PUSH3 0x13E6 JUMP JUMPDEST POP POP POP POP JUMP JUMPDEST PUSH1 0x0 PUSH1 0x80 DUP3 ADD SWAP1 POP PUSH3 0x146B PUSH1 0x0 DUP4 ADD DUP5 PUSH3 0x13F7 JUMP JUMPDEST SWAP3 SWAP2 POP POP JUMP JUMPDEST PUSH1 0x80 MLOAD PUSH1 0xA0 MLOAD PUSH1 0xC0 MLOAD PUSH1 0xE0 MLOAD PUSH2 0x100 MLOAD PUSH2 0x3262 PUSH3 0x1531 PUSH1 0x0 CODECOPY PUSH1 0x0 POP POP PUSH1 0x0 DUP2 DUP2 PUSH2 0xD3C ADD MSTORE PUSH2 0x19FC ADD MSTORE PUSH1 0x0 DUP2 DUP2 PUSH2 0x91D ADD MSTORE DUP2 DUP2 PUSH2 0xE0F ADD MSTORE DUP2 DUP2 PUSH2 0x1391 ADD MSTORE DUP2 DUP2 PUSH2 0x13CB ADD MSTORE DUP2 DUP2 PUSH2 0x156A ADD MSTORE PUSH2 0x180D ADD MSTORE PUSH1 0x0 DUP2 DUP2 PUSH2 0x690 ADD MSTORE DUP2 DUP2 PUSH2 0x1A43 ADD MSTORE DUP2 DUP2 PUSH2 0x1C29 ADD MSTORE PUSH2 0x1C94 ADD MSTORE PUSH1 0x0 DUP2 DUP2 PUSH2 0x568 ADD MSTORE DUP2 DUP2 PUSH2 0x5FF ADD MSTORE DUP2 DUP2 PUSH2 0x977 ADD MSTORE DUP2 DUP2 PUSH2 0x9A3 ADD MSTORE DUP2 DUP2 PUSH2 0xA2D ADD MSTORE DUP2 DUP2 PUSH2 0xABD ADD MSTORE DUP2 DUP2 PUSH2 0xC7C ADD MSTORE DUP2 DUP2 PUSH2 0x1275 ADD MSTORE DUP2 DUP2 PUSH2 0x175F ADD MSTORE PUSH2 0x183F ADD MSTORE PUSH2 0x3262 PUSH1 0x0 RETURN INVALID PUSH1 0x80 PUSH1 0x40 MSTORE PUSH1 0x4 CALLDATASIZE LT PUSH2 0x144 JUMPI PUSH1 0x0 CALLDATALOAD PUSH1 0xE0 SHR DUP1 PUSH4 0xBB9FE6BF GT PUSH2 0xB6 JUMPI DUP1 PUSH4 0xE1D8153C GT PUSH2 0x6F JUMPI DUP1 PUSH4 0xE1D8153C EQ PUSH2 0x44B JUMPI DUP1 PUSH4 0xEB6D3A11 EQ PUSH2 0x476 JUMPI DUP1 PUSH4 0xF2FDE38B EQ PUSH2 0x4A1 JUMPI DUP1 PUSH4 0xF465C77E EQ PUSH2 0x4CA JUMPI DUP1 PUSH4 0xF60FDCB3 EQ PUSH2 0x508 JUMPI DUP1 PUSH4 0xFC0C546A EQ PUSH2 0x533 JUMPI PUSH2 0x199 JUMP JUMPDEST DUP1 PUSH4 0xBB9FE6BF EQ PUSH2 0x370 JUMPI DUP1 PUSH4 0xC23A5CEA EQ PUSH2 0x387 JUMPI DUP1 PUSH4 0xC399EC88 EQ PUSH2 0x3B0 JUMPI DUP1 PUSH4 0xC63DCF6A EQ PUSH2 0x3DB JUMPI DUP1 PUSH4 0xD0E30DB0 EQ PUSH2 0x404 JUMPI DUP1 PUSH4 0xD7A23B3C EQ PUSH2 0x40E JUMPI PUSH2 0x199 JUMP JUMPDEST DUP1 PUSH4 0x7C986AAC GT PUSH2 0x108 JUMPI DUP1 PUSH4 0x7C986AAC EQ PUSH2 0x262 JUMPI DUP1 PUSH4 0x8DA5CB5B EQ PUSH2 0x29F JUMPI DUP1 PUSH4 0x9E281A98 EQ PUSH2 0x2CA JUMPI DUP1 PUSH4 0xA0840FA7 EQ PUSH2 0x2F3 JUMPI DUP1 PUSH4 0xA9A23409 EQ PUSH2 0x31C JUMPI DUP1 PUSH4 0xB0D691FE EQ PUSH2 0x345 JUMPI PUSH2 0x199 JUMP JUMPDEST DUP1 PUSH4 0x396CB60 EQ PUSH2 0x19E JUMPI DUP1 PUSH4 0x205C2878 EQ PUSH2 0x1BA JUMPI DUP1 PUSH4 0x2681F7E4 EQ PUSH2 0x1E3 JUMPI DUP1 PUSH4 0x3BA9290F EQ PUSH2 0x20E JUMPI DUP1 PUSH4 0x715018A6 EQ PUSH2 0x24B JUMPI PUSH2 0x199 JUMP JUMPDEST CALLDATASIZE PUSH2 0x199 JUMPI CALLER PUSH20 0xFFFFFFFFFFFFFFFFFFFFFFFFFFFFFFFFFFFFFFFF AND PUSH32 0x88A5966D370B9919B20F3E2C13FF65706F196A4E32CC2C12BF57088F88525874 CALLVALUE PUSH1 0x40 MLOAD PUSH2 0x18F SWAP2 SWAP1 PUSH2 0x1E6D JUMP JUMPDEST PUSH1 0x40 MLOAD DUP1 SWAP2 SUB SWAP1 LOG2 STOP JUMPDEST PUSH1 0x0 DUP1 REVERT JUMPDEST PUSH2 0x1B8 PUSH1 0x4 DUP1 CALLDATASIZE SUB DUP2 ADD SWAP1 PUSH2 0x1B3 SWAP2 SWAP1 PUSH2 0x1ED8 JUMP JUMPDEST PUSH2 0x55E JUMP JUMPDEST STOP JUMPDEST CALLVALUE DUP1 ISZERO PUSH2 0x1C6 JUMPI PUSH1 0x0 DUP1 REVERT JUMPDEST POP PUSH2 0x1E1 PUSH1 0x4 DUP1 CALLDATASIZE SUB DUP2 ADD SWAP1 PUSH2 0x1DC SWAP2 SWAP1 PUSH2 0x1F8F JUMP JUMPDEST PUSH2 0x5F5 JUMP JUMPDEST STOP JUMPDEST CALLVALUE DUP1 ISZERO PUSH2 0x1EF JUMPI PUSH1 0x0 DUP1 REVERT JUMPDEST POP PUSH2 0x1F8 PUSH2 0x68E JUMP JUMPDEST PUSH1 0x40 MLOAD PUSH2 0x205 SWAP2 SWAP1 PUSH2 0x202E JUMP JUMPDEST PUSH1 0x40 MLOAD DUP1 SWAP2 SUB SWAP1 RETURN JUMPDEST CALLVALUE DUP1 ISZERO PUSH2 0x21A JUMPI PUSH1 0x0 DUP1 REVERT JUMPDEST POP PUSH2 0x235 PUSH1 0x4 DUP1 CALLDATASIZE SUB DUP2 ADD SWAP1 PUSH2 0x230 SWAP2 SWAP1 PUSH2 0x2081 JUMP JUMPDEST PUSH2 0x6B2 JUMP JUMPDEST PUSH1 0x40 MLOAD PUSH2 0x242 SWAP2 SWAP1 PUSH2 0x1E6D JUMP JUMPDEST PUSH1 0x40 MLOAD DUP1 SWAP2 SUB SWAP1 RETURN JUMPDEST CALLVALUE DUP1 ISZERO PUSH2 0x257 JUMPI PUSH1 0x0 DUP1 REVERT JUMPDEST POP PUSH2 0x260 PUSH2 0x8A7 JUMP JUMPDEST STOP JUMPDEST CALLVALUE DUP1 ISZERO PUSH2 0x26E JUMPI PUSH1 0x0 DUP1 REVERT JUMPDEST POP PUSH2 0x289 PUSH1 0x4 DUP1 CALLDATASIZE SUB DUP2 ADD SWAP1 PUSH2 0x284 SWAP2 SWAP1 PUSH2 0x20AE JUMP JUMPDEST PUSH2 0x8BB JUMP JUMPDEST PUSH1 0x40 MLOAD PUSH2 0x296 SWAP2 SWAP1 PUSH2 0x1E6D JUMP JUMPDEST PUSH1 0x40 MLOAD DUP1 SWAP2 SUB SWAP1 RETURN JUMPDEST CALLVALUE DUP1 ISZERO PUSH2 0x2AB JUMPI PUSH1 0x0 DUP1 REVERT JUMPDEST POP PUSH2 0x2B4 PUSH2 0x8E7 JUMP JUMPDEST PUSH1 0x40 MLOAD PUSH2 0x2C1 SWAP2 SWAP1 PUSH2 0x210F JUMP JUMPDEST PUSH1 0x40 MLOAD DUP1 SWAP2 SUB SWAP1 RETURN JUMPDEST CALLVALUE DUP1 ISZERO PUSH2 0x2D6 JUMPI PUSH1 0x0 DUP1 REVERT JUMPDEST POP PUSH2 0x2F1 PUSH1 0x4 DUP1 CALLDATASIZE SUB DUP2 ADD SWAP1 PUSH2 0x2EC SWAP2 SWAP1 PUSH2 0x2156 JUMP JUMPDEST PUSH2 0x910 JUMP JUMPDEST STOP JUMPDEST CALLVALUE DUP1 ISZERO PUSH2 0x2FF JUMPI PUSH1 0x0 DUP1 REVERT JUMPDEST POP PUSH2 0x31A PUSH1 0x4 DUP1 CALLDATASIZE SUB DUP2 ADD SWAP1 PUSH2 0x315 SWAP2 SWAP1 PUSH2 0x22FF JUMP JUMPDEST PUSH2 0x947 JUMP JUMPDEST STOP JUMPDEST CALLVALUE DUP1 ISZERO PUSH2 0x328 JUMPI PUSH1 0x0 DUP1 REVERT JUMPDEST POP PUSH2 0x343 PUSH1 0x4 DUP1 CALLDATASIZE SUB DUP2 ADD SWAP1 PUSH2 0x33E SWAP2 SWAP1 PUSH2 0x23B6 JUMP JUMPDEST PUSH2 0x95B JUMP JUMPDEST STOP JUMPDEST CALLVALUE DUP1 ISZERO PUSH2 0x351 JUMPI PUSH1 0x0 DUP1 REVERT JUMPDEST POP PUSH2 0x35A PUSH2 0x975 JUMP JUMPDEST PUSH1 0x40 MLOAD PUSH2 0x367 SWAP2 SWAP1 PUSH2 0x244B JUMP JUMPDEST PUSH1 0x40 MLOAD DUP1 SWAP2 SUB SWAP1 RETURN JUMPDEST CALLVALUE DUP1 ISZERO PUSH2 0x37C JUMPI PUSH1 0x0 DUP1 REVERT JUMPDEST POP PUSH2 0x385 PUSH2 0x999 JUMP JUMPDEST STOP JUMPDEST CALLVALUE DUP1 ISZERO PUSH2 0x393 JUMPI PUSH1 0x0 DUP1 REVERT JUMPDEST POP PUSH2 0x3AE PUSH1 0x4 DUP1 CALLDATASIZE SUB DUP2 ADD SWAP1 PUSH2 0x3A9 SWAP2 SWAP1 PUSH2 0x2466 JUMP JUMPDEST PUSH2 0xA23 JUMP JUMPDEST STOP JUMPDEST CALLVALUE DUP1 ISZERO PUSH2 0x3BC JUMPI PUSH1 0x0 DUP1 REVERT JUMPDEST POP PUSH2 0x3C5 PUSH2 0xAB9 JUMP JUMPDEST PUSH1 0x40 MLOAD PUSH2 0x3D2 SWAP2 SWAP1 PUSH2 0x1E6D JUMP JUMPDEST PUSH1 0x40 MLOAD DUP1 SWAP2 SUB SWAP1 RETURN JUMPDEST CALLVALUE DUP1 ISZERO PUSH2 0x3E7 JUMPI PUSH1 0x0 DUP1 REVERT JUMPDEST POP PUSH2 0x402 PUSH1 0x4 DUP1 CALLDATASIZE SUB DUP2 ADD SWAP1 PUSH2 0x3FD SWAP2 SWAP1 PUSH2 0x250B JUMP JUMPDEST PUSH2 0xB5A JUMP JUMPDEST STOP JUMPDEST PUSH2 0x40C PUSH2 0xC7A JUMP JUMPDEST STOP JUMPDEST CALLVALUE DUP1 ISZERO PUSH2 0x41A JUMPI PUSH1 0x0 DUP1 REVERT JUMPDEST POP PUSH2 0x435 PUSH1 0x4 DUP1 CALLDATASIZE SUB DUP2 ADD SWAP1 PUSH2 0x430 SWAP2 SWAP1 PUSH2 0x20AE JUMP JUMPDEST PUSH2 0xD08 JUMP JUMPDEST PUSH1 0x40 MLOAD PUSH2 0x442 SWAP2 SWAP1 PUSH2 0x1E6D JUMP JUMPDEST PUSH1 0x40 MLOAD DUP1 SWAP2 SUB SWAP1 RETURN JUMPDEST CALLVALUE DUP1 ISZERO PUSH2 0x457 JUMPI PUSH1 0x0 DUP1 REVERT JUMPDEST POP PUSH2 0x460 PUSH2 0xD34 JUMP JUMPDEST PUSH1 0x40 MLOAD PUSH2 0x46D SWAP2 SWAP1 PUSH2 0x1E6D JUMP JUMPDEST PUSH1 0x40 MLOAD DUP1 SWAP2 SUB SWAP1 RETURN JUMPDEST CALLVALUE DUP1 ISZERO PUSH2 0x482 JUMPI PUSH1 0x0 DUP1 REVERT JUMPDEST POP PUSH2 0x48B PUSH2 0xD3A JUMP JUMPDEST PUSH1 0x40 MLOAD PUSH2 0x498 SWAP2 SWAP1 PUSH2 0x2559 JUMP JUMPDEST PUSH1 0x40 MLOAD DUP1 SWAP2 SUB SWAP1 RETURN JUMPDEST CALLVALUE DUP1 ISZERO PUSH2 0x4AD JUMPI PUSH1 0x0 DUP1 REVERT JUMPDEST POP PUSH2 0x4C8 PUSH1 0x4 DUP1 CALLDATASIZE SUB DUP2 ADD SWAP1 PUSH2 0x4C3 SWAP2 SWAP1 PUSH2 0x2574 JUMP JUMPDEST PUSH2 0xD5E JUMP JUMPDEST STOP JUMPDEST CALLVALUE DUP1 ISZERO PUSH2 0x4D6 JUMPI PUSH1 0x0 DUP1 REVERT JUMPDEST POP PUSH2 0x4F1 PUSH1 0x4 DUP1 CALLDATASIZE SUB DUP2 ADD SWAP1 PUSH2 0x4EC SWAP2 SWAP1 PUSH2 0x25FC JUMP JUMPDEST PUSH2 0xDE4 JUMP JUMPDEST PUSH1 0x40 MLOAD PUSH2 0x4FF SWAP3 SWAP2 SWAP1 PUSH2 0x26EA JUMP JUMPDEST PUSH1 0x40 MLOAD DUP1 SWAP2 SUB SWAP1 RETURN JUMPDEST CALLVALUE DUP1 ISZERO PUSH2 0x514 JUMPI PUSH1 0x0 DUP1 REVERT JUMPDEST POP PUSH2 0x51D PUSH2 0xE07 JUMP JUMPDEST PUSH1 0x40 MLOAD PUSH2 0x52A SWAP2 SWAP1 PUSH2 0x1E6D JUMP JUMPDEST PUSH1 0x40 MLOAD DUP1 SWAP2 SUB SWAP1 RETURN JUMPDEST CALLVALUE DUP1 ISZERO PUSH2 0x53F JUMPI PUSH1 0x0 DUP1 REVERT JUMPDEST POP PUSH2 0x548 PUSH2 0xE0D JUMP JUMPDEST PUSH1 0x40 MLOAD PUSH2 0x555 SWAP2 SWAP1 PUSH2 0x2559 JUMP JUMPDEST PUSH1 0x40 MLOAD DUP1 SWAP2 SUB SWAP1 RETURN JUMPDEST PUSH2 0x566 PUSH2 0xE31 JUMP JUMPDEST PUSH32 0x0 PUSH20 0xFFFFFFFFFFFFFFFFFFFFFFFFFFFFFFFFFFFFFFFF AND PUSH4 0x396CB60 CALLVALUE DUP4 PUSH1 0x40 MLOAD DUP4 PUSH4 0xFFFFFFFF AND PUSH1 0xE0 SHL DUP2 MSTORE PUSH1 0x4 ADD PUSH2 0x5C0 SWAP2 SWAP1 PUSH2 0x2729 JUMP JUMPDEST PUSH1 0x0 PUSH1 0x40 MLOAD DUP1 DUP4 SUB DUP2 DUP6 DUP9 DUP1 EXTCODESIZE ISZERO DUP1 ISZERO PUSH2 0x5D9 JUMPI PUSH1 0x0 DUP1 REVERT JUMPDEST POP GAS CALL ISZERO DUP1 ISZERO PUSH2 0x5ED JUMPI RETURNDATASIZE PUSH1 0x0 DUP1 RETURNDATACOPY RETURNDATASIZE PUSH1 0x0 REVERT JUMPDEST POP POP POP POP POP POP JUMP JUMPDEST PUSH2 0x5FD PUSH2 0xE31 JUMP JUMPDEST PUSH32 0x0 PUSH20 0xFFFFFFFFFFFFFFFFFFFFFFFFFFFFFFFFFFFFFFFF AND PUSH4 0x205C2878 DUP4 DUP4 PUSH1 0x40 MLOAD DUP4 PUSH4 0xFFFFFFFF AND PUSH1 0xE0 SHL DUP2 MSTORE PUSH1 0x4 ADD PUSH2 0x658 SWAP3 SWAP2 SWAP1 PUSH2 0x2753 JUMP JUMPDEST PUSH1 0x0 PUSH1 0x40 MLOAD DUP1 DUP4 SUB DUP2 PUSH1 0x0 DUP8 DUP1 EXTCODESIZE ISZERO DUP1 ISZERO PUSH2 0x672 JUMPI PUSH1 0x0 DUP1 REVERT JUMPDEST POP GAS CALL ISZERO DUP1 ISZERO PUSH2 0x686 JUMPI RETURNDATASIZE PUSH1 0x0 DUP1 RETURNDATACOPY RETURNDATASIZE PUSH1 0x0 REVERT JUMPDEST POP POP POP POP POP POP JUMP JUMPDEST PUSH32 0x0 DUP2 JUMP JUMPDEST PUSH1 0x0 DUP1 PUSH1 0x5 PUSH1 0x3 ADD SLOAD SWAP1 POP PUSH1 0x0 PUSH1 0x4 SLOAD TIMESTAMP PUSH2 0x6CD SWAP2 SWAP1 PUSH2 0x27AB JUMP JUMPDEST SWAP1 POP DUP4 ISZERO DUP1 ISZERO PUSH2 0x6DD JUMPI POP DUP2 DUP2 GT ISZERO JUMPDEST ISZERO PUSH2 0x6EE JUMPI PUSH1 0x3 SLOAD SWAP3 POP POP POP PUSH2 0x8A2 JUMP JUMPDEST PUSH1 0x0 PUSH1 0x5 PUSH1 0x2 ADD SLOAD SWAP1 POP PUSH1 0x0 PUSH1 0x5 PUSH1 0x0 ADD PUSH1 0x0 SWAP1 SLOAD SWAP1 PUSH2 0x100 EXP SWAP1 DIV PUSH20 0xFFFFFFFFFFFFFFFFFFFFFFFFFFFFFFFFFFFFFFFF AND SWAP1 POP PUSH1 0x0 PUSH1 0x5 PUSH1 0x1 ADD PUSH1 0x0 SWAP1 SLOAD SWAP1 PUSH2 0x100 EXP SWAP1 DIV PUSH20 0xFFFFFFFFFFFFFFFFFFFFFFFFFFFFFFFFFFFFFFFF AND SWAP1 POP PUSH1 0x0 PUSH1 0x3 SLOAD SWAP1 POP PUSH1 0x0 PUSH2 0x75E DUP5 PUSH2 0xEB8 JUMP JUMPDEST SWAP1 POP PUSH1 0x0 PUSH1 0x1 SWAP1 POP PUSH1 0x5 PUSH1 0x1 ADD PUSH1 0x14 SWAP1 SLOAD SWAP1 PUSH2 0x100 EXP SWAP1 DIV PUSH1 0xFF AND PUSH2 0x789 JUMPI PUSH2 0x786 DUP5 PUSH2 0xEB8 JUMP JUMPDEST SWAP1 POP JUMPDEST PUSH1 0x0 PUSH2 0x7BB DUP4 DUP4 PUSH1 0x5 PUSH1 0x1 ADD PUSH1 0x15 SWAP1 SLOAD SWAP1 PUSH2 0x100 EXP SWAP1 DIV PUSH1 0xFF AND PUSH1 0x5 PUSH1 0x1 ADD PUSH1 0x16 SWAP1 SLOAD SWAP1 PUSH2 0x100 EXP SWAP1 DIV PUSH1 0xFF AND PUSH2 0x1033 JUMP JUMPDEST SWAP1 POP PUSH1 0x0 DUP5 PUSH11 0x52B7D2DCC80CD2E4000000 DUP4 PUSH2 0x7D7 SWAP2 SWAP1 PUSH2 0x27DF JUMP JUMPDEST PUSH2 0x7E1 SWAP2 SWAP1 PUSH2 0x2850 JUMP JUMPDEST SWAP1 POP PUSH1 0x0 DUP13 DUP1 PUSH2 0x806 JUMPI POP DUP9 PUSH11 0x52B7D2DCC80CD2E4000000 PUSH2 0x803 SWAP2 SWAP1 PUSH2 0x2881 JUMP JUMPDEST DUP3 GT JUMPDEST DUP1 PUSH2 0x826 JUMPI POP DUP9 PUSH11 0x52B7D2DCC80CD2E4000000 PUSH2 0x823 SWAP2 SWAP1 PUSH2 0x27AB JUMP JUMPDEST DUP3 LT JUMPDEST SWAP1 POP DUP1 PUSH2 0x840 JUMPI DUP6 SWAP12 POP POP POP POP POP POP POP POP POP POP POP POP PUSH2 0x8A2 JUMP JUMPDEST PUSH1 0x0 DUP7 SWAP1 POP DUP4 SWAP7 POP DUP7 PUSH1 0x3 DUP2 SWAP1 SSTORE POP TIMESTAMP PUSH1 0x4 DUP2 SWAP1 SSTORE POP PUSH31 0xD4FE314618B73A96886B87817A53A5ED51433B0234C85A5E9DAFE2CB7B8842 DUP8 DUP3 PUSH1 0x4 SLOAD PUSH1 0x40 MLOAD PUSH2 0x88A SWAP4 SWAP3 SWAP2 SWAP1 PUSH2 0x28B5 JUMP JUMPDEST PUSH1 0x40 MLOAD DUP1 SWAP2 SUB SWAP1 LOG1 DUP7 SWAP13 POP POP POP POP POP POP POP POP POP POP POP POP POP JUMPDEST SWAP2 SWAP1 POP JUMP JUMPDEST PUSH2 0x8AF PUSH2 0xE31 JUMP JUMPDEST PUSH2 0x8B9 PUSH1 0x0 PUSH2 0x10D7 JUMP JUMPDEST JUMP JUMPDEST PUSH1 0x0 DUP2 PUSH11 0x52B7D2DCC80CD2E4000000 DUP5 PUSH2 0x8D5 SWAP2 SWAP1 PUSH2 0x27DF JUMP JUMPDEST PUSH2 0x8DF SWAP2 SWAP1 PUSH2 0x2850 JUMP JUMPDEST SWAP1 POP SWAP3 SWAP2 POP POP JUMP JUMPDEST PUSH1 0x0 DUP1 PUSH1 0x0 SWAP1 SLOAD SWAP1 PUSH2 0x100 EXP SWAP1 DIV PUSH20 0xFFFFFFFFFFFFFFFFFFFFFFFFFFFFFFFFFFFFFFFF AND SWAP1 POP SWAP1 JUMP JUMPDEST PUSH2 0x918 PUSH2 0xE31 JUMP JUMPDEST PUSH2 0x943 PUSH32 0x0 DUP4 DUP4 PUSH2 0x119B JUMP JUMPDEST POP POP JUMP JUMPDEST PUSH2 0x94F PUSH2 0xE31 JUMP JUMPDEST PUSH2 0x958 DUP2 PUSH2 0x121A JUMP JUMPDEST POP JUMP JUMPDEST PUSH2 0x963 PUSH2 0x1273 JUMP JUMPDEST PUSH2 0x96F DUP5 DUP5 DUP5 DUP5 PUSH2 0x1303 JUMP JUMPDEST POP POP POP POP JUMP JUMPDEST PUSH32 0x0 DUP2 JUMP JUMPDEST PUSH2 0x9A1 PUSH2 0xE31 JUMP JUMPDEST PUSH32 0x0 PUSH20 0xFFFFFFFFFFFFFFFFFFFFFFFFFFFFFFFFFFFFFFFF AND PUSH4 0xBB9FE6BF PUSH1 0x40 MLOAD DUP2 PUSH4 0xFFFFFFFF AND PUSH1 0xE0 SHL DUP2 MSTORE PUSH1 0x4 ADD PUSH1 0x0 PUSH1 0x40 MLOAD DUP1 DUP4 SUB DUP2 PUSH1 0x0 DUP8 DUP1 EXTCODESIZE ISZERO DUP1 ISZERO PUSH2 0xA09 JUMPI PUSH1 0x0 DUP1 REVERT JUMPDEST POP GAS CALL ISZERO DUP1 ISZERO PUSH2 0xA1D JUMPI RETURNDATASIZE PUSH1 0x0 DUP1 RETURNDATACOPY RETURNDATASIZE PUSH1 0x0 REVERT JUMPDEST POP POP POP POP JUMP JUMPDEST PUSH2 0xA2B PUSH2 0xE31 JUMP JUMPDEST PUSH32 0x0 PUSH20 0xFFFFFFFFFFFFFFFFFFFFFFFFFFFFFFFFFFFFFFFF AND PUSH4 0xC23A5CEA DUP3 PUSH1 0x40 MLOAD DUP3 PUSH4 0xFFFFFFFF AND PUSH1 0xE0 SHL DUP2 MSTORE PUSH1 0x4 ADD PUSH2 0xA84 SWAP2 SWAP1 PUSH2 0x28EC JUMP JUMPDEST PUSH1 0x0 PUSH1 0x40 MLOAD DUP1 DUP4 SUB DUP2 PUSH1 0x0 DUP8 DUP1 EXTCODESIZE ISZERO DUP1 ISZERO PUSH2 0xA9E JUMPI PUSH1 0x0 DUP1 REVERT JUMPDEST POP GAS CALL ISZERO DUP1 ISZERO PUSH2 0xAB2 JUMPI RETURNDATASIZE PUSH1 0x0 DUP1 RETURNDATACOPY RETURNDATASIZE PUSH1 0x0 REVERT JUMPDEST POP POP POP POP POP JUMP JUMPDEST PUSH1 0x0 PUSH32 0x0 PUSH20 0xFFFFFFFFFFFFFFFFFFFFFFFFFFFFFFFFFFFFFFFF AND PUSH4 0x70A08231 ADDRESS PUSH1 0x40 MLOAD DUP3 PUSH4 0xFFFFFFFF AND PUSH1 0xE0 SHL DUP2 MSTORE PUSH1 0x4 ADD PUSH2 0xB14 SWAP2 SWAP1 PUSH2 0x210F JUMP JUMPDEST PUSH1 0x20 PUSH1 0x40 MLOAD DUP1 DUP4 SUB DUP2 DUP7 GAS STATICCALL ISZERO DUP1 ISZERO PUSH2 0xB31 JUMPI RETURNDATASIZE PUSH1 0x0 DUP1 RETURNDATACOPY RETURNDATASIZE PUSH1 0x0 REVERT JUMPDEST POP POP POP POP PUSH1 0x40 MLOAD RETURNDATASIZE PUSH1 0x1F NOT PUSH1 0x1F DUP3 ADD AND DUP3 ADD DUP1 PUSH1 0x40 MSTORE POP DUP2 ADD SWAP1 PUSH2 0xB55 SWAP2 SWAP1 PUSH2 0x291C JUMP JUMPDEST SWAP1 POP SWAP1 JUMP JUMPDEST PUSH2 0xB62 PUSH2 0xE31 JUMP JUMPDEST PUSH11 0x52B7D2DCC80CD2E4000000 PUSH1 0x2 PUSH2 0xB7A SWAP2 SWAP1 PUSH2 0x27DF JUMP JUMPDEST DUP2 PUSH1 0x0 ADD MLOAD GT ISZERO PUSH2 0xBC0 JUMPI PUSH1 0x40 MLOAD PUSH32 0x8C379A000000000000000000000000000000000000000000000000000000000 DUP2 MSTORE PUSH1 0x4 ADD PUSH2 0xBB7 SWAP1 PUSH2 0x29A6 JUMP JUMPDEST PUSH1 0x40 MLOAD DUP1 SWAP2 SUB SWAP1 REVERT JUMPDEST PUSH11 0x52B7D2DCC80CD2E4000000 DUP2 PUSH1 0x0 ADD MLOAD LT ISZERO PUSH2 0xC12 JUMPI PUSH1 0x40 MLOAD PUSH32 0x8C379A000000000000000000000000000000000000000000000000000000000 DUP2 MSTORE PUSH1 0x4 ADD PUSH2 0xC09 SWAP1 PUSH2 0x2A12 JUMP JUMPDEST PUSH1 0x40 MLOAD DUP1 SWAP2 SUB SWAP1 REVERT JUMPDEST DUP1 PUSH1 0xB PUSH1 0x0 DUP3 ADD MLOAD DUP2 PUSH1 0x0 ADD SSTORE PUSH1 0x20 DUP3 ADD MLOAD DUP2 PUSH1 0x1 ADD SSTORE PUSH1 0x40 DUP3 ADD MLOAD DUP2 PUSH1 0x2 ADD SSTORE PUSH1 0x60 DUP3 ADD MLOAD DUP2 PUSH1 0x3 ADD SSTORE SWAP1 POP POP PUSH32 0x9359E69EA224934F7CFBC6E6336E1A65F96EB6607C898F94589B52F4806EECE8 DUP2 PUSH1 0x40 MLOAD PUSH2 0xC6F SWAP2 SWAP1 PUSH2 0x2A96 JUMP JUMPDEST PUSH1 0x40 MLOAD DUP1 SWAP2 SUB SWAP1 LOG1 POP JUMP JUMPDEST PUSH32 0x0 PUSH20 0xFFFFFFFFFFFFFFFFFFFFFFFFFFFFFFFFFFFFFFFF AND PUSH4 0xB760FAF9 CALLVALUE ADDRESS PUSH1 0x40 MLOAD DUP4 PUSH4 0xFFFFFFFF AND PUSH1 0xE0 SHL DUP2 MSTORE PUSH1 0x4 ADD PUSH2 0xCD4 SWAP2 SWAP1 PUSH2 0x210F JUMP JUMPDEST PUSH1 0x0 PUSH1 0x40 MLOAD DUP1 DUP4 SUB DUP2 DUP6 DUP9 DUP1 EXTCODESIZE ISZERO DUP1 ISZERO PUSH2 0xCED JUMPI PUSH1 0x0 DUP1 REVERT JUMPDEST POP GAS CALL ISZERO DUP1 ISZERO PUSH2 0xD01 JUMPI RETURNDATASIZE PUSH1 0x0 DUP1 RETURNDATACOPY RETURNDATASIZE PUSH1 0x0 REVERT JUMPDEST POP POP POP POP POP JUMP JUMPDEST PUSH1 0x0 PUSH11 0x52B7D2DCC80CD2E4000000 DUP3 DUP5 PUSH2 0xD22 SWAP2 SWAP1 PUSH2 0x27DF JUMP JUMPDEST PUSH2 0xD2C SWAP2 SWAP1 PUSH2 0x2850 JUMP JUMPDEST SWAP1 POP SWAP3 SWAP2 POP POP JUMP JUMPDEST PUSH1 0x4 SLOAD DUP2 JUMP JUMPDEST PUSH32 0x0 DUP2 JUMP JUMPDEST PUSH2 0xD66 PUSH2 0xE31 JUMP JUMPDEST PUSH1 0x0 PUSH20 0xFFFFFFFFFFFFFFFFFFFFFFFFFFFFFFFFFFFFFFFF AND DUP2 PUSH20 0xFFFFFFFFFFFFFFFFFFFFFFFFFFFFFFFFFFFFFFFF AND SUB PUSH2 0xDD8 JUMPI PUSH1 0x0 PUSH1 0x40 MLOAD PUSH32 0x1E4FBDF700000000000000000000000000000000000000000000000000000000 DUP2 MSTORE PUSH1 0x4 ADD PUSH2 0xDCF SWAP2 SWAP1 PUSH2 0x210F JUMP JUMPDEST PUSH1 0x40 MLOAD DUP1 SWAP2 SUB SWAP1 REVERT JUMPDEST PUSH2 0xDE1 DUP2 PUSH2 0x10D7 JUMP JUMPDEST POP JUMP JUMPDEST PUSH1 0x60 PUSH1 0x0 PUSH2 0xDF0 PUSH2 0x1273 JUMP JUMPDEST PUSH2 0xDFB DUP6 DUP6 DUP6 PUSH2 0x1461 JUMP JUMPDEST SWAP2 POP SWAP2 POP SWAP4 POP SWAP4 SWAP2 POP POP JUMP JUMPDEST PUSH1 0x3 SLOAD DUP2 JUMP JUMPDEST PUSH32 0x0 DUP2 JUMP JUMPDEST PUSH2 0xE39 PUSH2 0x160B JUMP JUMPDEST PUSH20 0xFFFFFFFFFFFFFFFFFFFFFFFFFFFFFFFFFFFFFFFF AND PUSH2 0xE57 PUSH2 0x8E7 JUMP JUMPDEST PUSH20 0xFFFFFFFFFFFFFFFFFFFFFFFFFFFFFFFFFFFFFFFF AND EQ PUSH2 0xEB6 JUMPI PUSH2 0xE7A PUSH2 0x160B JUMP JUMPDEST PUSH1 0x40 MLOAD PUSH32 0x118CDAA700000000000000000000000000000000000000000000000000000000 DUP2 MSTORE PUSH1 0x4 ADD PUSH2 0xEAD SWAP2 SWAP1 PUSH2 0x210F JUMP JUMPDEST PUSH1 0x40 MLOAD DUP1 SWAP2 SUB SWAP1 REVERT JUMPDEST JUMP JUMPDEST PUSH1 0x0 DUP1 PUSH1 0x0 DUP1 PUSH1 0x0 DUP6 PUSH20 0xFFFFFFFFFFFFFFFFFFFFFFFFFFFFFFFFFFFFFFFF AND PUSH4 0xFEAF968C PUSH1 0x40 MLOAD DUP2 PUSH4 0xFFFFFFFF AND PUSH1 0xE0 SHL DUP2 MSTORE PUSH1 0x4 ADD PUSH1 0xA0 PUSH1 0x40 MLOAD DUP1 DUP4 SUB DUP2 DUP7 GAS STATICCALL ISZERO DUP1 ISZERO PUSH2 0xF0B JUMPI RETURNDATASIZE PUSH1 0x0 DUP1 RETURNDATACOPY RETURNDATASIZE PUSH1 0x0 REVERT JUMPDEST POP POP POP POP PUSH1 0x40 MLOAD RETURNDATASIZE PUSH1 0x1F NOT PUSH1 0x1F DUP3 ADD AND DUP3 ADD DUP1 PUSH1 0x40 MSTORE POP DUP2 ADD SWAP1 PUSH2 0xF2F SWAP2 SWAP1 PUSH2 0x2B29 JUMP JUMPDEST SWAP5 POP SWAP5 POP POP SWAP4 POP SWAP4 POP PUSH1 0x0 DUP4 SGT PUSH2 0xF7B JUMPI PUSH1 0x40 MLOAD PUSH32 0x8C379A000000000000000000000000000000000000000000000000000000000 DUP2 MSTORE PUSH1 0x4 ADD PUSH2 0xF72 SWAP1 PUSH2 0x2BF0 JUMP JUMPDEST PUSH1 0x40 MLOAD DUP1 SWAP2 SUB SWAP1 REVERT JUMPDEST PUSH3 0x2A300 TIMESTAMP PUSH2 0xF8A SWAP2 SWAP1 PUSH2 0x27AB JUMP JUMPDEST DUP3 LT ISZERO PUSH2 0xFCC JUMPI PUSH1 0x40 MLOAD PUSH32 0x8C379A000000000000000000000000000000000000000000000000000000000 DUP2 MSTORE PUSH1 0x4 ADD PUSH2 0xFC3 SWAP1 PUSH2 0x2C5C JUMP JUMPDEST PUSH1 0x40 MLOAD DUP1 SWAP2 SUB SWAP1 REVERT JUMPDEST DUP4 PUSH10 0xFFFFFFFFFFFFFFFFFFFF AND DUP2 PUSH10 0xFFFFFFFFFFFFFFFFFFFF AND LT ISZERO PUSH2 0x1027 JUMPI PUSH1 0x40 MLOAD PUSH32 0x8C379A000000000000000000000000000000000000000000000000000000000 DUP2 MSTORE PUSH1 0x4 ADD PUSH2 0x101E SWAP1 PUSH2 0x2CC8 JUMP JUMPDEST PUSH1 0x40 MLOAD DUP1 SWAP2 SUB SWAP1 REVERT JUMPDEST DUP3 SWAP5 POP POP POP POP POP SWAP2 SWAP1 POP JUMP JUMPDEST PUSH1 0x0 DUP3 ISZERO PUSH2 0x1066 JUMPI DUP5 PUSH1 0x9 SLOAD PUSH11 0x52B7D2DCC80CD2E4000000 PUSH2 0x1055 SWAP2 SWAP1 PUSH2 0x27DF JUMP JUMPDEST PUSH2 0x105F SWAP2 SWAP1 PUSH2 0x2850 JUMP JUMPDEST SWAP5 POP PUSH2 0x108D JUMP JUMPDEST PUSH1 0x9 SLOAD DUP6 PUSH11 0x52B7D2DCC80CD2E4000000 PUSH2 0x1080 SWAP2 SWAP1 PUSH2 0x27DF JUMP JUMPDEST PUSH2 0x108A SWAP2 SWAP1 PUSH2 0x2850 JUMP JUMPDEST SWAP5 POP JUMPDEST DUP2 ISZERO PUSH2 0x10B3 JUMPI PUSH1 0xA SLOAD DUP6 DUP6 PUSH2 0x10A2 SWAP2 SWAP1 PUSH2 0x27DF JUMP JUMPDEST PUSH2 0x10AC SWAP2 SWAP1 PUSH2 0x2850 JUMP JUMPDEST SWAP1 POP PUSH2 0x10CF JUMP JUMPDEST DUP4 PUSH1 0xA SLOAD DUP7 PUSH2 0x10C2 SWAP2 SWAP1 PUSH2 0x27DF JUMP JUMPDEST PUSH2 0x10CC SWAP2 SWAP1 PUSH2 0x2850 JUMP JUMPDEST SWAP1 POP JUMPDEST SWAP5 SWAP4 POP POP POP POP JUMP JUMPDEST PUSH1 0x0 DUP1 PUSH1 0x0 SWAP1 SLOAD SWAP1 PUSH2 0x100 EXP SWAP1 DIV PUSH20 0xFFFFFFFFFFFFFFFFFFFFFFFFFFFFFFFFFFFFFFFF AND SWAP1 POP DUP2 PUSH1 0x0 DUP1 PUSH2 0x100 EXP DUP2 SLOAD DUP2 PUSH20 0xFFFFFFFFFFFFFFFFFFFFFFFFFFFFFFFFFFFFFFFF MUL NOT AND SWAP1 DUP4 PUSH20 0xFFFFFFFFFFFFFFFFFFFFFFFFFFFFFFFFFFFFFFFF AND MUL OR SWAP1 SSTORE POP DUP2 PUSH20 0xFFFFFFFFFFFFFFFFFFFFFFFFFFFFFFFFFFFFFFFF AND DUP2 PUSH20 0xFFFFFFFFFFFFFFFFFFFFFFFFFFFFFFFFFFFFFFFF AND PUSH32 0x8BE0079C531659141344CD1FD0A4F28419497F9722A3DAAFE3B4186F6B6457E0 PUSH1 0x40 MLOAD PUSH1 0x40 MLOAD DUP1 SWAP2 SUB SWAP1 LOG3 POP POP JUMP JUMPDEST PUSH2 0x1215 DUP4 DUP5 PUSH20 0xFFFFFFFFFFFFFFFFFFFFFFFFFFFFFFFFFFFFFFFF AND PUSH4 0xA9059CBB DUP6 DUP6 PUSH1 0x40 MLOAD PUSH1 0x24 ADD PUSH2 0x11CE SWAP3 SWAP2 SWAP1 PUSH2 0x2CE8 JUMP JUMPDEST PUSH1 0x40 MLOAD PUSH1 0x20 DUP2 DUP4 SUB SUB DUP2 MSTORE SWAP1 PUSH1 0x40 MSTORE SWAP2 POP PUSH1 0xE0 SHL PUSH1 0x20 DUP3 ADD DUP1 MLOAD PUSH28 0xFFFFFFFFFFFFFFFFFFFFFFFFFFFFFFFFFFFFFFFFFFFFFFFFFFFFFFFF DUP4 DUP2 DUP4 AND OR DUP4 MSTORE POP POP POP POP PUSH2 0x1613 JUMP JUMPDEST POP POP POP JUMP JUMPDEST DUP1 PUSH1 0x1 PUSH1 0x0 DUP3 ADD MLOAD DUP2 PUSH1 0x0 ADD SSTORE PUSH1 0x20 DUP3 ADD MLOAD DUP2 PUSH1 0x1 ADD PUSH1 0x0 PUSH2 0x100 EXP DUP2 SLOAD DUP2 PUSH3 0xFFFFFF MUL NOT AND SWAP1 DUP4 PUSH3 0xFFFFFF AND MUL OR SWAP1 SSTORE POP PUSH1 0x40 DUP3 ADD MLOAD DUP2 PUSH1 0x1 ADD PUSH1 0x3 PUSH2 0x100 EXP DUP2 SLOAD DUP2 PUSH1 0xFF MUL NOT AND SWAP1 DUP4 PUSH1 0xFF AND MUL OR SWAP1 SSTORE POP SWAP1 POP POP POP JUMP JUMPDEST PUSH32 0x0 PUSH20 0xFFFFFFFFFFFFFFFFFFFFFFFFFFFFFFFFFFFFFFFF AND CALLER PUSH20 0xFFFFFFFFFFFFFFFFFFFFFFFFFFFFFFFFFFFFFFFF AND EQ PUSH2 0x1301 JUMPI PUSH1 0x40 MLOAD PUSH32 0x8C379A000000000000000000000000000000000000000000000000000000000 DUP2 MSTORE PUSH1 0x4 ADD PUSH2 0x12F8 SWAP1 PUSH2 0x2D5D JUMP JUMPDEST PUSH1 0x40 MLOAD DUP1 SWAP2 SUB SWAP1 REVERT JUMPDEST JUMP JUMPDEST PUSH1 0x0 PUSH1 0xB PUSH1 0x0 ADD SLOAD SWAP1 POP PUSH1 0x0 DUP1 PUSH1 0x0 DUP1 DUP8 DUP8 DUP2 ADD SWAP1 PUSH2 0x1322 SWAP2 SWAP1 PUSH2 0x2D7D JUMP JUMPDEST SWAP4 POP SWAP4 POP SWAP4 POP SWAP4 POP PUSH1 0x0 PUSH2 0x1336 DUP5 DUP5 PUSH2 0x16AA JUMP JUMPDEST SWAP1 POP PUSH1 0x0 PUSH2 0x1344 PUSH1 0x0 PUSH2 0x6B2 JUMP JUMPDEST SWAP1 POP PUSH1 0x0 DUP8 PUSH11 0x52B7D2DCC80CD2E4000000 DUP4 MUL DUP2 PUSH2 0x1365 JUMPI PUSH2 0x1364 PUSH2 0x2821 JUMP JUMPDEST JUMPDEST DIV SWAP1 POP PUSH1 0x0 DUP4 PUSH1 0xB PUSH1 0x2 ADD SLOAD MUL DUP11 ADD SWAP1 POP PUSH1 0x0 PUSH2 0x1382 DUP3 DUP5 PUSH2 0x8BB JUMP JUMPDEST SWAP1 POP DUP1 DUP10 GT ISZERO PUSH2 0x13BE JUMPI PUSH2 0x13B9 PUSH32 0x0 DUP8 DUP4 DUP13 SUB PUSH2 0x119B JUMP JUMPDEST PUSH2 0x13F6 JUMP JUMPDEST DUP1 DUP10 LT ISZERO PUSH2 0x13F5 JUMPI PUSH2 0x13F4 PUSH32 0x0 DUP8 ADDRESS DUP13 DUP6 SUB PUSH2 0x16D9 JUMP JUMPDEST JUMPDEST JUMPDEST DUP6 PUSH20 0xFFFFFFFFFFFFFFFFFFFFFFFFFFFFFFFFFFFFFFFF AND PUSH32 0x46CAA0511CF037F06F57A0BF273A2FF04229F5B12FB04675234A6CBE2E7F1A89 DUP3 DUP14 DUP8 PUSH1 0x40 MLOAD PUSH2 0x1440 SWAP4 SWAP3 SWAP2 SWAP1 PUSH2 0x28B5 JUMP JUMPDEST PUSH1 0x40 MLOAD DUP1 SWAP2 SUB SWAP1 LOG2 PUSH2 0x1451 DUP5 PUSH2 0x175B JUMP JUMPDEST POP POP POP POP POP POP POP POP POP POP POP POP POP POP JUMP JUMPDEST PUSH1 0x60 PUSH1 0x0 DUP1 PUSH1 0xB PUSH1 0x0 ADD SLOAD SWAP1 POP PUSH1 0x0 PUSH1 0x14 DUP8 DUP1 PUSH2 0x120 ADD SWAP1 PUSH2 0x1483 SWAP2 SWAP1 PUSH2 0x2DF3 JUMP JUMPDEST SWAP1 POP SUB SWAP1 POP PUSH1 0x0 DUP2 EQ DUP1 PUSH2 0x1497 JUMPI POP PUSH1 0x20 DUP2 EQ JUMPDEST PUSH2 0x14D6 JUMPI PUSH1 0x40 MLOAD PUSH32 0x8C379A000000000000000000000000000000000000000000000000000000000 DUP2 MSTORE PUSH1 0x4 ADD PUSH2 0x14CD SWAP1 PUSH2 0x2EA2 JUMP JUMPDEST PUSH1 0x40 MLOAD DUP1 SWAP2 SUB SWAP1 REVERT JUMPDEST PUSH1 0x0 DUP8 PUSH1 0xE0 ADD CALLDATALOAD PUSH1 0xB PUSH1 0x2 ADD SLOAD MUL DUP7 ADD SWAP1 POP PUSH1 0x0 DUP4 PUSH11 0x52B7D2DCC80CD2E4000000 PUSH1 0x3 SLOAD MUL DUP2 PUSH2 0x1509 JUMPI PUSH2 0x1508 PUSH2 0x2821 JUMP JUMPDEST JUMPDEST DIV SWAP1 POP PUSH1 0x20 DUP4 SUB PUSH2 0x1557 JUMPI PUSH1 0x0 DUP10 DUP1 PUSH2 0x120 ADD SWAP1 PUSH2 0x1527 SWAP2 SWAP1 PUSH2 0x2DF3 JUMP JUMPDEST PUSH1 0x14 SWAP1 PUSH1 0x34 SWAP3 PUSH2 0x1539 SWAP4 SWAP3 SWAP2 SWAP1 PUSH2 0x2ECC JUMP JUMPDEST SWAP1 PUSH2 0x1544 SWAP2 SWAP1 PUSH2 0x2F1F JUMP JUMPDEST PUSH1 0x0 SHR SWAP1 POP DUP2 DUP2 LT ISZERO PUSH2 0x1555 JUMPI DUP1 SWAP2 POP JUMPDEST POP JUMPDEST PUSH1 0x0 PUSH2 0x1563 DUP4 DUP4 PUSH2 0x8BB JUMP JUMPDEST SWAP1 POP PUSH2 0x15A3 PUSH32 0x0 DUP12 PUSH1 0x0 ADD PUSH1 0x20 DUP2 ADD SWAP1 PUSH2 0x159C SWAP2 SWAP1 PUSH2 0x2574 JUMP JUMPDEST ADDRESS DUP5 PUSH2 0x16D9 JUMP JUMPDEST DUP1 DUP11 PUSH1 0xE0 ADD CALLDATALOAD DUP12 PUSH2 0x100 ADD CALLDATALOAD DUP13 PUSH1 0x0 ADD PUSH1 0x20 DUP2 ADD SWAP1 PUSH2 0x15C2 SWAP2 SWAP1 PUSH2 0x2574 JUMP JUMPDEST PUSH1 0x40 MLOAD PUSH1 0x20 ADD PUSH2 0x15D5 SWAP5 SWAP4 SWAP3 SWAP2 SWAP1 PUSH2 0x2F7E JUMP JUMPDEST PUSH1 0x40 MLOAD PUSH1 0x20 DUP2 DUP4 SUB SUB DUP2 MSTORE SWAP1 PUSH1 0x40 MSTORE SWAP7 POP PUSH2 0x15FC PUSH1 0x0 PUSH1 0xB PUSH1 0x3 ADD SLOAD PUSH1 0x4 SLOAD ADD PUSH1 0x0 PUSH2 0x18CF JUMP JUMPDEST SWAP6 POP POP POP POP POP POP SWAP4 POP SWAP4 SWAP2 POP POP JUMP JUMPDEST PUSH1 0x0 CALLER SWAP1 POP SWAP1 JUMP JUMPDEST PUSH1 0x0 PUSH2 0x163E DUP3 DUP5 PUSH20 0xFFFFFFFFFFFFFFFFFFFFFFFFFFFFFFFFFFFFFFFF AND PUSH2 0x1908 SWAP1 SWAP2 SWAP1 PUSH4 0xFFFFFFFF AND JUMP JUMPDEST SWAP1 POP PUSH1 0x0 DUP2 MLOAD EQ ISZERO DUP1 ISZERO PUSH2 0x1663 JUMPI POP DUP1 DUP1 PUSH1 0x20 ADD SWAP1 MLOAD DUP2 ADD SWAP1 PUSH2 0x1661 SWAP2 SWAP1 PUSH2 0x2FD8 JUMP JUMPDEST ISZERO JUMPDEST ISZERO PUSH2 0x16A5 JUMPI DUP3 PUSH1 0x40 MLOAD PUSH32 0x5274AFE700000000000000000000000000000000000000000000000000000000 DUP2 MSTORE PUSH1 0x4 ADD PUSH2 0x169C SWAP2 SWAP1 PUSH2 0x210F JUMP JUMPDEST PUSH1 0x40 MLOAD DUP1 SWAP2 SUB SWAP1 REVERT JUMPDEST POP POP POP JUMP JUMPDEST PUSH1 0x0 DUP2 DUP4 SUB PUSH2 0x16BB JUMPI DUP3 SWAP1 POP PUSH2 0x16D3 JUMP JUMPDEST PUSH2 0x16D0 DUP4 BASEFEE DUP5 PUSH2 0x16CB SWAP2 SWAP1 PUSH2 0x2881 JUMP JUMPDEST PUSH2 0x191E JUMP JUMPDEST SWAP1 POP JUMPDEST SWAP3 SWAP2 POP POP JUMP JUMPDEST PUSH2 0x1755 DUP5 DUP6 PUSH20 0xFFFFFFFFFFFFFFFFFFFFFFFFFFFFFFFFFFFFFFFF AND PUSH4 0x23B872DD DUP7 DUP7 DUP7 PUSH1 0x40 MLOAD PUSH1 0x24 ADD PUSH2 0x170E SWAP4 SWAP3 SWAP2 SWAP1 PUSH2 0x3005 JUMP JUMPDEST PUSH1 0x40 MLOAD PUSH1 0x20 DUP2 DUP4 SUB SUB DUP2 MSTORE SWAP1 PUSH1 0x40 MSTORE SWAP2 POP PUSH1 0xE0 SHL PUSH1 0x20 DUP3 ADD DUP1 MLOAD PUSH28 0xFFFFFFFFFFFFFFFFFFFFFFFFFFFFFFFFFFFFFFFFFFFFFFFFFFFFFFFF DUP4 DUP2 DUP4 AND OR DUP4 MSTORE POP POP POP POP PUSH2 0x1613 JUMP JUMPDEST POP POP POP POP JUMP JUMPDEST PUSH1 0x0 PUSH32 0x0 PUSH20 0xFFFFFFFFFFFFFFFFFFFFFFFFFFFFFFFFFFFFFFFF AND PUSH4 0x70A08231 ADDRESS PUSH1 0x40 MLOAD DUP3 PUSH4 0xFFFFFFFF AND PUSH1 0xE0 SHL DUP2 MSTORE PUSH1 0x4 ADD PUSH2 0x17B6 SWAP2 SWAP1 PUSH2 0x210F JUMP JUMPDEST PUSH1 0x20 PUSH1 0x40 MLOAD DUP1 DUP4 SUB DUP2 DUP7 GAS STATICCALL ISZERO DUP1 ISZERO PUSH2 0x17D3 JUMPI RETURNDATASIZE PUSH1 0x0 DUP1 RETURNDATACOPY RETURNDATASIZE PUSH1 0x0 REVERT JUMPDEST POP POP POP POP PUSH1 0x40 MLOAD RETURNDATASIZE PUSH1 0x1F NOT PUSH1 0x1F DUP3 ADD AND DUP3 ADD DUP1 PUSH1 0x40 MSTORE POP DUP2 ADD SWAP1 PUSH2 0x17F7 SWAP2 SWAP1 PUSH2 0x291C JUMP JUMPDEST SWAP1 POP PUSH1 0xB PUSH1 0x1 ADD SLOAD DUP2 LT ISZERO PUSH2 0x18CB JUMPI PUSH1 0x0 PUSH2 0x1832 PUSH32 0x0 DUP5 PUSH2 0x1937 JUMP JUMPDEST SWAP1 POP PUSH2 0x183D DUP2 PUSH2 0x1A41 JUMP JUMPDEST PUSH32 0x0 PUSH20 0xFFFFFFFFFFFFFFFFFFFFFFFFFFFFFFFFFFFFFFFF AND PUSH4 0xB760FAF9 SELFBALANCE ADDRESS PUSH1 0x40 MLOAD DUP4 PUSH4 0xFFFFFFFF AND PUSH1 0xE0 SHL DUP2 MSTORE PUSH1 0x4 ADD PUSH2 0x1897 SWAP2 SWAP1 PUSH2 0x210F JUMP JUMPDEST PUSH1 0x0 PUSH1 0x40 MLOAD DUP1 DUP4 SUB DUP2 DUP6 DUP9 DUP1 EXTCODESIZE ISZERO DUP1 ISZERO PUSH2 0x18B0 JUMPI PUSH1 0x0 DUP1 REVERT JUMPDEST POP GAS CALL ISZERO DUP1 ISZERO PUSH2 0x18C4 JUMPI RETURNDATASIZE PUSH1 0x0 DUP1 RETURNDATACOPY RETURNDATASIZE PUSH1 0x0 REVERT JUMPDEST POP POP POP POP POP POP JUMPDEST POP POP JUMP JUMPDEST PUSH1 0x0 PUSH1 0xD0 DUP3 PUSH6 0xFFFFFFFFFFFF AND SWAP1 SHL PUSH1 0xA0 DUP5 PUSH6 0xFFFFFFFFFFFF AND SWAP1 SHL DUP6 PUSH2 0x18F7 JUMPI PUSH1 0x0 PUSH2 0x18FA JUMP JUMPDEST PUSH1 0x1 JUMPDEST PUSH1 0xFF AND OR OR SWAP1 POP SWAP4 SWAP3 POP POP POP JUMP JUMPDEST PUSH1 0x60 PUSH2 0x1916 DUP4 DUP4 PUSH1 0x0 PUSH2 0x1AD1 JUMP JUMPDEST SWAP1 POP SWAP3 SWAP2 POP POP JUMP JUMPDEST PUSH1 0x0 DUP2 DUP4 LT PUSH2 0x192D JUMPI DUP2 PUSH2 0x192F JUMP JUMPDEST DUP3 JUMPDEST SWAP1 POP SWAP3 SWAP2 POP POP JUMP JUMPDEST PUSH1 0x0 DUP1 DUP4 PUSH20 0xFFFFFFFFFFFFFFFFFFFFFFFFFFFFFFFFFFFFFFFF AND PUSH4 0x70A08231 ADDRESS PUSH1 0x40 MLOAD DUP3 PUSH4 0xFFFFFFFF AND PUSH1 0xE0 SHL DUP2 MSTORE PUSH1 0x4 ADD PUSH2 0x1973 SWAP2 SWAP1 PUSH2 0x210F JUMP JUMPDEST PUSH1 0x20 PUSH1 0x40 MLOAD DUP1 DUP4 SUB DUP2 DUP7 GAS STATICCALL ISZERO DUP1 ISZERO PUSH2 0x1990 JUMPI RETURNDATASIZE PUSH1 0x0 DUP1 RETURNDATACOPY RETURNDATASIZE PUSH1 0x0 REVERT JUMPDEST POP POP POP POP PUSH1 0x40 MLOAD RETURNDATASIZE PUSH1 0x1F NOT PUSH1 0x1F DUP3 ADD AND DUP3 ADD DUP1 PUSH1 0x40 MSTORE POP DUP2 ADD SWAP1 PUSH2 0x19B4 SWAP2 SWAP1 PUSH2 0x291C JUMP JUMPDEST SWAP1 POP PUSH1 0x0 PUSH2 0x19DC PUSH2 0x19C5 DUP4 DUP7 PUSH2 0xD08 JUMP JUMPDEST PUSH1 0x1 DUP1 ADD PUSH1 0x3 SWAP1 SLOAD SWAP1 PUSH2 0x100 EXP SWAP1 DIV PUSH1 0xFF AND PUSH2 0x1B9E JUMP JUMPDEST SWAP1 POP PUSH1 0x1 PUSH1 0x0 ADD SLOAD DUP2 LT ISZERO PUSH2 0x19F6 JUMPI PUSH1 0x0 SWAP3 POP POP POP PUSH2 0x1A3B JUMP JUMPDEST PUSH2 0x1A36 DUP6 PUSH32 0x0 DUP5 DUP5 PUSH1 0x1 DUP1 ADD PUSH1 0x0 SWAP1 SLOAD SWAP1 PUSH2 0x100 EXP SWAP1 DIV PUSH3 0xFFFFFF AND PUSH2 0x1BD5 JUMP JUMPDEST SWAP3 POP POP POP JUMPDEST SWAP3 SWAP2 POP POP JUMP JUMPDEST PUSH32 0x0 PUSH20 0xFFFFFFFFFFFFFFFFFFFFFFFFFFFFFFFFFFFFFFFF AND PUSH4 0x49404B7C DUP3 ADDRESS PUSH1 0x40 MLOAD DUP4 PUSH4 0xFFFFFFFF AND PUSH1 0xE0 SHL DUP2 MSTORE PUSH1 0x4 ADD PUSH2 0x1A9C SWAP3 SWAP2 SWAP1 PUSH2 0x303C JUMP JUMPDEST PUSH1 0x0 PUSH1 0x40 MLOAD DUP1 DUP4 SUB DUP2 PUSH1 0x0 DUP8 DUP1 EXTCODESIZE ISZERO DUP1 ISZERO PUSH2 0x1AB6 JUMPI PUSH1 0x0 DUP1 REVERT JUMPDEST POP GAS CALL ISZERO DUP1 ISZERO PUSH2 0x1ACA JUMPI RETURNDATASIZE PUSH1 0x0 DUP1 RETURNDATACOPY RETURNDATASIZE PUSH1 0x0 REVERT JUMPDEST POP POP POP POP POP JUMP JUMPDEST PUSH1 0x60 DUP2 SELFBALANCE LT ISZERO PUSH2 0x1B18 JUMPI ADDRESS PUSH1 0x40 MLOAD PUSH32 0xCD78605900000000000000000000000000000000000000000000000000000000 DUP2 MSTORE PUSH1 0x4 ADD PUSH2 0x1B0F SWAP2 SWAP1 PUSH2 0x210F JUMP JUMPDEST PUSH1 0x40 MLOAD DUP1 SWAP2 SUB SWAP1 REVERT JUMPDEST PUSH1 0x0 DUP1 DUP6 PUSH20 0xFFFFFFFFFFFFFFFFFFFFFFFFFFFFFFFFFFFFFFFF AND DUP5 DUP7 PUSH1 0x40 MLOAD PUSH2 0x1B41 SWAP2 SWAP1 PUSH2 0x30A1 JUMP JUMPDEST PUSH1 0x0 PUSH1 0x40 MLOAD DUP1 DUP4 SUB DUP2 DUP6 DUP8 GAS CALL SWAP3 POP POP POP RETURNDATASIZE DUP1 PUSH1 0x0 DUP2 EQ PUSH2 0x1B7E JUMPI PUSH1 0x40 MLOAD SWAP2 POP PUSH1 0x1F NOT PUSH1 0x3F RETURNDATASIZE ADD AND DUP3 ADD PUSH1 0x40 MSTORE RETURNDATASIZE DUP3 MSTORE RETURNDATASIZE PUSH1 0x0 PUSH1 0x20 DUP5 ADD RETURNDATACOPY PUSH2 0x1B83 JUMP JUMPDEST PUSH1 0x60 SWAP2 POP JUMPDEST POP SWAP2 POP SWAP2 POP PUSH2 0x1B93 DUP7 DUP4 DUP4 PUSH2 0x1D80 JUMP JUMPDEST SWAP3 POP POP POP SWAP4 SWAP3 POP POP POP JUMP JUMPDEST PUSH1 0x0 PUSH2 0x3E8 DUP3 PUSH1 0xFF AND PUSH2 0x3E8 PUSH2 0x1BB4 SWAP2 SWAP1 PUSH2 0x30C6 JUMP JUMPDEST PUSH2 0xFFFF AND DUP5 PUSH2 0x1BC3 SWAP2 SWAP1 PUSH2 0x27DF JUMP JUMPDEST PUSH2 0x1BCD SWAP2 SWAP1 PUSH2 0x2850 JUMP JUMPDEST SWAP1 POP SWAP3 SWAP2 POP POP JUMP JUMPDEST PUSH1 0x0 DUP1 PUSH1 0x40 MLOAD DUP1 PUSH2 0x100 ADD PUSH1 0x40 MSTORE DUP1 DUP9 PUSH20 0xFFFFFFFFFFFFFFFFFFFFFFFFFFFFFFFFFFFFFFFF AND DUP2 MSTORE PUSH1 0x20 ADD DUP8 PUSH20 0xFFFFFFFFFFFFFFFFFFFFFFFFFFFFFFFFFFFFFFFF AND DUP2 MSTORE PUSH1 0x20 ADD DUP5 PUSH3 0xFFFFFF AND DUP2 MSTORE PUSH1 0x20 ADD PUSH32 0x0 PUSH20 0xFFFFFFFFFFFFFFFFFFFFFFFFFFFFFFFFFFFFFFFF AND DUP2 MSTORE PUSH1 0x20 ADD TIMESTAMP DUP2 MSTORE PUSH1 0x20 ADD DUP7 DUP2 MSTORE PUSH1 0x20 ADD DUP6 DUP2 MSTORE PUSH1 0x20 ADD PUSH1 0x0 PUSH20 0xFFFFFFFFFFFFFFFFFFFFFFFFFFFFFFFFFFFFFFFF AND DUP2 MSTORE POP SWAP1 POP PUSH32 0x0 PUSH20 0xFFFFFFFFFFFFFFFFFFFFFFFFFFFFFFFFFFFFFFFF AND PUSH4 0x414BF389 DUP3 PUSH1 0x40 MLOAD DUP3 PUSH4 0xFFFFFFFF AND PUSH1 0xE0 SHL DUP2 MSTORE PUSH1 0x4 ADD PUSH2 0x1CEB SWAP2 SWAP1 PUSH2 0x31CB JUMP JUMPDEST PUSH1 0x20 PUSH1 0x40 MLOAD DUP1 DUP4 SUB DUP2 PUSH1 0x0 DUP8 GAS CALL SWAP3 POP POP POP DUP1 ISZERO PUSH2 0x1D27 JUMPI POP PUSH1 0x40 MLOAD RETURNDATASIZE PUSH1 0x1F NOT PUSH1 0x1F DUP3 ADD AND DUP3 ADD DUP1 PUSH1 0x40 MSTORE POP DUP2 ADD SWAP1 PUSH2 0x1D24 SWAP2 SWAP1 PUSH2 0x291C JUMP JUMPDEST PUSH1 0x1 JUMPDEST PUSH2 0x1D71 JUMPI PUSH32 0xF7EDD4C6EC425DECF715A8B8EAA3B65D3D86E31AD0FF750AA60FA834190F515F DUP8 DUP8 DUP8 DUP8 PUSH1 0x40 MLOAD PUSH2 0x1D60 SWAP5 SWAP4 SWAP3 SWAP2 SWAP1 PUSH2 0x31E7 JUMP JUMPDEST PUSH1 0x40 MLOAD DUP1 SWAP2 SUB SWAP1 LOG1 PUSH1 0x0 SWAP2 POP PUSH2 0x1D76 JUMP JUMPDEST DUP1 SWAP3 POP POP JUMPDEST POP SWAP6 SWAP5 POP POP POP POP POP JUMP JUMPDEST PUSH1 0x60 DUP3 PUSH2 0x1D95 JUMPI PUSH2 0x1D90 DUP3 PUSH2 0x1E0F JUMP JUMPDEST PUSH2 0x1E07 JUMP JUMPDEST PUSH1 0x0 DUP3 MLOAD EQ DUP1 ISZERO PUSH2 0x1DBD JUMPI POP PUSH1 0x0 DUP5 PUSH20 0xFFFFFFFFFFFFFFFFFFFFFFFFFFFFFFFFFFFFFFFF AND EXTCODESIZE EQ JUMPDEST ISZERO PUSH2 0x1DFF JUMPI DUP4 PUSH1 0x40 MLOAD PUSH32 0x9996B31500000000000000000000000000000000000000000000000000000000 DUP2 MSTORE PUSH1 0x4 ADD PUSH2 0x1DF6 SWAP2 SWAP1 PUSH2 0x210F JUMP JUMPDEST PUSH1 0x40 MLOAD DUP1 SWAP2 SUB SWAP1 REVERT JUMPDEST DUP2 SWAP1 POP PUSH2 0x1E08 JUMP JUMPDEST JUMPDEST SWAP4 SWAP3 POP POP POP JUMP JUMPDEST PUSH1 0x0 DUP2 MLOAD GT ISZERO PUSH2 0x1E22 JUMPI DUP1 MLOAD DUP1 DUP3 PUSH1 0x20 ADD REVERT JUMPDEST PUSH1 0x40 MLOAD PUSH32 0x1425EA4200000000000000000000000000000000000000000000000000000000 DUP2 MSTORE PUSH1 0x4 ADD PUSH1 0x40 MLOAD DUP1 SWAP2 SUB SWAP1 REVERT JUMPDEST PUSH1 0x0 DUP2 SWAP1 POP SWAP2 SWAP1 POP JUMP JUMPDEST PUSH2 0x1E67 DUP2 PUSH2 0x1E54 JUMP JUMPDEST DUP3 MSTORE POP POP JUMP JUMPDEST PUSH1 0x0 PUSH1 0x20 DUP3 ADD SWAP1 POP PUSH2 0x1E82 PUSH1 0x0 DUP4 ADD DUP5 PUSH2 0x1E5E JUMP JUMPDEST SWAP3 SWAP2 POP POP JUMP JUMPDEST PUSH1 0x0 PUSH1 0x40 MLOAD SWAP1 POP SWAP1 JUMP JUMPDEST PUSH1 0x0 DUP1 REVERT JUMPDEST PUSH1 0x0 DUP1 REVERT JUMPDEST PUSH1 0x0 PUSH4 0xFFFFFFFF DUP3 AND SWAP1 POP SWAP2 SWAP1 POP JUMP JUMPDEST PUSH2 0x1EB5 DUP2 PUSH2 0x1E9C JUMP JUMPDEST DUP2 EQ PUSH2 0x1EC0 JUMPI PUSH1 0x0 DUP1 REVERT JUMPDEST POP JUMP JUMPDEST PUSH1 0x0 DUP2 CALLDATALOAD SWAP1 POP PUSH2 0x1ED2 DUP2 PUSH2 0x1EAC JUMP JUMPDEST SWAP3 SWAP2 POP POP JUMP JUMPDEST PUSH1 0x0 PUSH1 0x20 DUP3 DUP5 SUB SLT ISZERO PUSH2 0x1EEE JUMPI PUSH2 0x1EED PUSH2 0x1E92 JUMP JUMPDEST JUMPDEST PUSH1 0x0 PUSH2 0x1EFC DUP5 DUP3 DUP6 ADD PUSH2 0x1EC3 JUMP JUMPDEST SWAP2 POP POP SWAP3 SWAP2 POP POP JUMP JUMPDEST PUSH1 0x0 PUSH20 0xFFFFFFFFFFFFFFFFFFFFFFFFFFFFFFFFFFFFFFFF DUP3 AND SWAP1 POP SWAP2 SWAP1 POP JUMP JUMPDEST PUSH1 0x0 PUSH2 0x1F30 DUP3 PUSH2 0x1F05 JUMP JUMPDEST SWAP1 POP SWAP2 SWAP1 POP JUMP JUMPDEST PUSH2 0x1F40 DUP2 PUSH2 0x1F25 JUMP JUMPDEST DUP2 EQ PUSH2 0x1F4B JUMPI PUSH1 0x0 DUP1 REVERT JUMPDEST POP JUMP JUMPDEST PUSH1 0x0 DUP2 CALLDATALOAD SWAP1 POP PUSH2 0x1F5D DUP2 PUSH2 0x1F37 JUMP JUMPDEST SWAP3 SWAP2 POP POP JUMP JUMPDEST PUSH2 0x1F6C DUP2 PUSH2 0x1E54 JUMP JUMPDEST DUP2 EQ PUSH2 0x1F77 JUMPI PUSH1 0x0 DUP1 REVERT JUMPDEST POP JUMP JUMPDEST PUSH1 0x0 DUP2 CALLDATALOAD SWAP1 POP PUSH2 0x1F89 DUP2 PUSH2 0x1F63 JUMP JUMPDEST SWAP3 SWAP2 POP POP JUMP JUMPDEST PUSH1 0x0 DUP1 PUSH1 0x40 DUP4 DUP6 SUB SLT ISZERO PUSH2 0x1FA6 JUMPI PUSH2 0x1FA5 PUSH2 0x1E92 JUMP JUMPDEST JUMPDEST PUSH1 0x0 PUSH2 0x1FB4 DUP6 DUP3 DUP7 ADD PUSH2 0x1F4E JUMP JUMPDEST SWAP3 POP POP PUSH1 0x20 PUSH2 0x1FC5 DUP6 DUP3 DUP7 ADD PUSH2 0x1F7A JUMP JUMPDEST SWAP2 POP POP SWAP3 POP SWAP3 SWAP1 POP JUMP JUMPDEST PUSH1 0x0 DUP2 SWAP1 POP SWAP2 SWAP1 POP JUMP JUMPDEST PUSH1 0x0 PUSH2 0x1FF4 PUSH2 0x1FEF PUSH2 0x1FEA DUP5 PUSH2 0x1F05 JUMP JUMPDEST PUSH2 0x1FCF JUMP JUMPDEST PUSH2 0x1F05 JUMP JUMPDEST SWAP1 POP SWAP2 SWAP1 POP JUMP JUMPDEST PUSH1 0x0 PUSH2 0x2006 DUP3 PUSH2 0x1FD9 JUMP JUMPDEST SWAP1 POP SWAP2 SWAP1 POP JUMP JUMPDEST PUSH1 0x0 PUSH2 0x2018 DUP3 PUSH2 0x1FFB JUMP JUMPDEST SWAP1 POP SWAP2 SWAP1 POP JUMP JUMPDEST PUSH2 0x2028 DUP2 PUSH2 0x200D JUMP JUMPDEST DUP3 MSTORE POP POP JUMP JUMPDEST PUSH1 0x0 PUSH1 0x20 DUP3 ADD SWAP1 POP PUSH2 0x2043 PUSH1 0x0 DUP4 ADD DUP5 PUSH2 0x201F JUMP JUMPDEST SWAP3 SWAP2 POP POP JUMP JUMPDEST PUSH1 0x0 DUP2 ISZERO ISZERO SWAP1 POP SWAP2 SWAP1 POP JUMP JUMPDEST PUSH2 0x205E DUP2 PUSH2 0x2049 JUMP JUMPDEST DUP2 EQ PUSH2 0x2069 JUMPI PUSH1 0x0 DUP1 REVERT JUMPDEST POP JUMP JUMPDEST PUSH1 0x0 DUP2 CALLDATALOAD SWAP1 POP PUSH2 0x207B DUP2 PUSH2 0x2055 JUMP JUMPDEST SWAP3 SWAP2 POP POP JUMP JUMPDEST PUSH1 0x0 PUSH1 0x20 DUP3 DUP5 SUB SLT ISZERO PUSH2 0x2097 JUMPI PUSH2 0x2096 PUSH2 0x1E92 JUMP JUMPDEST JUMPDEST PUSH1 0x0 PUSH2 0x20A5 DUP5 DUP3 DUP6 ADD PUSH2 0x206C JUMP JUMPDEST SWAP2 POP POP SWAP3 SWAP2 POP POP JUMP JUMPDEST PUSH1 0x0 DUP1 PUSH1 0x40 DUP4 DUP6 SUB SLT ISZERO PUSH2 0x20C5 JUMPI PUSH2 0x20C4 PUSH2 0x1E92 JUMP JUMPDEST JUMPDEST PUSH1 0x0 PUSH2 0x20D3 DUP6 DUP3 DUP7 ADD PUSH2 0x1F7A JUMP JUMPDEST SWAP3 POP POP PUSH1 0x20 PUSH2 0x20E4 DUP6 DUP3 DUP7 ADD PUSH2 0x1F7A JUMP JUMPDEST SWAP2 POP POP SWAP3 POP SWAP3 SWAP1 POP JUMP JUMPDEST PUSH1 0x0 PUSH2 0x20F9 DUP3 PUSH2 0x1F05 JUMP JUMPDEST SWAP1 POP SWAP2 SWAP1 POP JUMP JUMPDEST PUSH2 0x2109 DUP2 PUSH2 0x20EE JUMP JUMPDEST DUP3 MSTORE POP POP JUMP JUMPDEST PUSH1 0x0 PUSH1 0x20 DUP3 ADD SWAP1 POP PUSH2 0x2124 PUSH1 0x0 DUP4 ADD DUP5 PUSH2 0x2100 JUMP JUMPDEST SWAP3 SWAP2 POP POP JUMP JUMPDEST PUSH2 0x2133 DUP2 PUSH2 0x20EE JUMP JUMPDEST DUP2 EQ PUSH2 0x213E JUMPI PUSH1 0x0 DUP1 REVERT JUMPDEST POP JUMP JUMPDEST PUSH1 0x0 DUP2 CALLDATALOAD SWAP1 POP PUSH2 0x2150 DUP2 PUSH2 0x212A JUMP JUMPDEST SWAP3 SWAP2 POP POP JUMP JUMPDEST PUSH1 0x0 DUP1 PUSH1 0x40 DUP4 DUP6 SUB SLT ISZERO PUSH2 0x216D JUMPI PUSH2 0x216C PUSH2 0x1E92 JUMP JUMPDEST JUMPDEST PUSH1 0x0 PUSH2 0x217B DUP6 DUP3 DUP7 ADD PUSH2 0x2141 JUMP JUMPDEST SWAP3 POP POP PUSH1 0x20 PUSH2 0x218C DUP6 DUP3 DUP7 ADD PUSH2 0x1F7A JUMP JUMPDEST SWAP2 POP POP SWAP3 POP SWAP3 SWAP1 POP JUMP JUMPDEST PUSH1 0x0 DUP1 REVERT JUMPDEST PUSH1 0x0 PUSH1 0x1F NOT PUSH1 0x1F DUP4 ADD AND SWAP1 POP SWAP2 SWAP1 POP JUMP JUMPDEST PUSH32 0x4E487B7100000000000000000000000000000000000000000000000000000000 PUSH1 0x0 MSTORE PUSH1 0x41 PUSH1 0x4 MSTORE PUSH1 0x24 PUSH1 0x0 REVERT JUMPDEST PUSH2 0x21E4 DUP3 PUSH2 0x219B JUMP JUMPDEST DUP2 ADD DUP2 DUP2 LT PUSH8 0xFFFFFFFFFFFFFFFF DUP3 GT OR ISZERO PUSH2 0x2203 JUMPI PUSH2 0x2202 PUSH2 0x21AC JUMP JUMPDEST JUMPDEST DUP1 PUSH1 0x40 MSTORE POP POP POP JUMP JUMPDEST PUSH1 0x0 PUSH2 0x2216 PUSH2 0x1E88 JUMP JUMPDEST SWAP1 POP PUSH2 0x2222 DUP3 DUP3 PUSH2 0x21DB JUMP JUMPDEST SWAP2 SWAP1 POP JUMP JUMPDEST PUSH1 0x0 PUSH3 0xFFFFFF DUP3 AND SWAP1 POP SWAP2 SWAP1 POP JUMP JUMPDEST PUSH2 0x223F DUP2 PUSH2 0x2227 JUMP JUMPDEST DUP2 EQ PUSH2 0x224A JUMPI PUSH1 0x0 DUP1 REVERT JUMPDEST POP JUMP JUMPDEST PUSH1 0x0 DUP2 CALLDATALOAD SWAP1 POP PUSH2 0x225C DUP2 PUSH2 0x2236 JUMP JUMPDEST SWAP3 SWAP2 POP POP JUMP JUMPDEST PUSH1 0x0 PUSH1 0xFF DUP3 AND SWAP1 POP SWAP2 SWAP1 POP JUMP JUMPDEST PUSH2 0x2278 DUP2 PUSH2 0x2262 JUMP JUMPDEST DUP2 EQ PUSH2 0x2283 JUMPI PUSH1 0x0 DUP1 REVERT JUMPDEST POP JUMP JUMPDEST PUSH1 0x0 DUP2 CALLDATALOAD SWAP1 POP PUSH2 0x2295 DUP2 PUSH2 0x226F JUMP JUMPDEST SWAP3 SWAP2 POP POP JUMP JUMPDEST PUSH1 0x0 PUSH1 0x60 DUP3 DUP5 SUB SLT ISZERO PUSH2 0x22B1 JUMPI PUSH2 0x22B0 PUSH2 0x2196 JUMP JUMPDEST JUMPDEST PUSH2 0x22BB PUSH1 0x60 PUSH2 0x220C JUMP JUMPDEST SWAP1 POP PUSH1 0x0 PUSH2 0x22CB DUP5 DUP3 DUP6 ADD PUSH2 0x1F7A JUMP JUMPDEST PUSH1 0x0 DUP4 ADD MSTORE POP PUSH1 0x20 PUSH2 0x22DF DUP5 DUP3 DUP6 ADD PUSH2 0x224D JUMP JUMPDEST PUSH1 0x20 DUP4 ADD MSTORE POP PUSH1 0x40 PUSH2 0x22F3 DUP5 DUP3 DUP6 ADD PUSH2 0x2286 JUMP JUMPDEST PUSH1 0x40 DUP4 ADD MSTORE POP SWAP3 SWAP2 POP POP JUMP JUMPDEST PUSH1 0x0 PUSH1 0x60 DUP3 DUP5 SUB SLT ISZERO PUSH2 0x2315 JUMPI PUSH2 0x2314 PUSH2 0x1E92 JUMP JUMPDEST JUMPDEST PUSH1 0x0 PUSH2 0x2323 DUP5 DUP3 DUP6 ADD PUSH2 0x229B JUMP JUMPDEST SWAP2 POP POP SWAP3 SWAP2 POP POP JUMP JUMPDEST PUSH1 0x3 DUP2 LT PUSH2 0x2339 JUMPI PUSH1 0x0 DUP1 REVERT JUMPDEST POP JUMP JUMPDEST PUSH1 0x0 DUP2 CALLDATALOAD SWAP1 POP PUSH2 0x234B DUP2 PUSH2 0x232C JUMP JUMPDEST SWAP3 SWAP2 POP POP JUMP JUMPDEST PUSH1 0x0 DUP1 REVERT JUMPDEST PUSH1 0x0 DUP1 REVERT JUMPDEST PUSH1 0x0 DUP1 REVERT JUMPDEST PUSH1 0x0 DUP1 DUP4 PUSH1 0x1F DUP5 ADD SLT PUSH2 0x2376 JUMPI PUSH2 0x2375 PUSH2 0x2351 JUMP JUMPDEST JUMPDEST DUP3 CALLDATALOAD SWAP1 POP PUSH8 0xFFFFFFFFFFFFFFFF DUP2 GT ISZERO PUSH2 0x2393 JUMPI PUSH2 0x2392 PUSH2 0x2356 JUMP JUMPDEST JUMPDEST PUSH1 0x20 DUP4 ADD SWAP2 POP DUP4 PUSH1 0x1 DUP3 MUL DUP4 ADD GT ISZERO PUSH2 0x23AF JUMPI PUSH2 0x23AE PUSH2 0x235B JUMP JUMPDEST JUMPDEST SWAP3 POP SWAP3 SWAP1 POP JUMP JUMPDEST PUSH1 0x0 DUP1 PUSH1 0x0 DUP1 PUSH1 0x60 DUP6 DUP8 SUB SLT ISZERO PUSH2 0x23D0 JUMPI PUSH2 0x23CF PUSH2 0x1E92 JUMP JUMPDEST JUMPDEST PUSH1 0x0 PUSH2 0x23DE DUP8 DUP3 DUP9 ADD PUSH2 0x233C JUMP JUMPDEST SWAP5 POP POP PUSH1 0x20 DUP6 ADD CALLDATALOAD PUSH8 0xFFFFFFFFFFFFFFFF DUP2 GT ISZERO PUSH2 0x23FF JUMPI PUSH2 0x23FE PUSH2 0x1E97 JUMP JUMPDEST JUMPDEST PUSH2 0x240B DUP8 DUP3 DUP9 ADD PUSH2 0x2360 JUMP JUMPDEST SWAP4 POP SWAP4 POP POP PUSH1 0x40 PUSH2 0x241E DUP8 DUP3 DUP9 ADD PUSH2 0x1F7A JUMP JUMPDEST SWAP2 POP POP SWAP3 SWAP6 SWAP2 SWAP5 POP SWAP3 POP JUMP JUMPDEST PUSH1 0x0 PUSH2 0x2435 DUP3 PUSH2 0x1FFB JUMP JUMPDEST SWAP1 POP SWAP2 SWAP1 POP JUMP JUMPDEST PUSH2 0x2445 DUP2 PUSH2 0x242A JUMP JUMPDEST DUP3 MSTORE POP POP JUMP JUMPDEST PUSH1 0x0 PUSH1 0x20 DUP3 ADD SWAP1 POP PUSH2 0x2460 PUSH1 0x0 DUP4 ADD DUP5 PUSH2 0x243C JUMP JUMPDEST SWAP3 SWAP2 POP POP JUMP JUMPDEST PUSH1 0x0 PUSH1 0x20 DUP3 DUP5 SUB SLT ISZERO PUSH2 0x247C JUMPI PUSH2 0x247B PUSH2 0x1E92 JUMP JUMPDEST JUMPDEST PUSH1 0x0 PUSH2 0x248A DUP5 DUP3 DUP6 ADD PUSH2 0x1F4E JUMP JUMPDEST SWAP2 POP POP SWAP3 SWAP2 POP POP JUMP JUMPDEST PUSH1 0x0 PUSH1 0x80 DUP3 DUP5 SUB SLT ISZERO PUSH2 0x24A9 JUMPI PUSH2 0x24A8 PUSH2 0x2196 JUMP JUMPDEST JUMPDEST PUSH2 0x24B3 PUSH1 0x80 PUSH2 0x220C JUMP JUMPDEST SWAP1 POP PUSH1 0x0 PUSH2 0x24C3 DUP5 DUP3 DUP6 ADD PUSH2 0x1F7A JUMP JUMPDEST PUSH1 0x0 DUP4 ADD MSTORE POP PUSH1 0x20 PUSH2 0x24D7 DUP5 DUP3 DUP6 ADD PUSH2 0x1F7A JUMP JUMPDEST PUSH1 0x20 DUP4 ADD MSTORE POP PUSH1 0x40 PUSH2 0x24EB DUP5 DUP3 DUP6 ADD PUSH2 0x1F7A JUMP JUMPDEST PUSH1 0x40 DUP4 ADD MSTORE POP PUSH1 0x60 PUSH2 0x24FF DUP5 DUP3 DUP6 ADD PUSH2 0x1F7A JUMP JUMPDEST PUSH1 0x60 DUP4 ADD MSTORE POP SWAP3 SWAP2 POP POP JUMP JUMPDEST PUSH1 0x0 PUSH1 0x80 DUP3 DUP5 SUB SLT ISZERO PUSH2 0x2521 JUMPI PUSH2 0x2520 PUSH2 0x1E92 JUMP JUMPDEST JUMPDEST PUSH1 0x0 PUSH2 0x252F DUP5 DUP3 DUP6 ADD PUSH2 0x2493 JUMP JUMPDEST SWAP2 POP POP SWAP3 SWAP2 POP POP JUMP JUMPDEST PUSH1 0x0 PUSH2 0x2543 DUP3 PUSH2 0x1FFB JUMP JUMPDEST SWAP1 POP SWAP2 SWAP1 POP JUMP JUMPDEST PUSH2 0x2553 DUP2 PUSH2 0x2538 JUMP JUMPDEST DUP3 MSTORE POP POP JUMP JUMPDEST PUSH1 0x0 PUSH1 0x20 DUP3 ADD SWAP1 POP PUSH2 0x256E PUSH1 0x0 DUP4 ADD DUP5 PUSH2 0x254A JUMP JUMPDEST SWAP3 SWAP2 POP POP JUMP JUMPDEST PUSH1 0x0 PUSH1 0x20 DUP3 DUP5 SUB SLT ISZERO PUSH2 0x258A JUMPI PUSH2 0x2589 PUSH2 0x1E92 JUMP JUMPDEST JUMPDEST PUSH1 0x0 PUSH2 0x2598 DUP5 DUP3 DUP6 ADD PUSH2 0x2141 JUMP JUMPDEST SWAP2 POP POP SWAP3 SWAP2 POP POP JUMP JUMPDEST PUSH1 0x0 DUP1 REVERT JUMPDEST PUSH1 0x0 PUSH2 0x160 DUP3 DUP5 SUB SLT ISZERO PUSH2 0x25BD JUMPI PUSH2 0x25BC PUSH2 0x25A1 JUMP JUMPDEST JUMPDEST DUP2 SWAP1 POP SWAP3 SWAP2 POP POP JUMP JUMPDEST PUSH1 0x0 DUP2 SWAP1 POP SWAP2 SWAP1 POP JUMP JUMPDEST PUSH2 0x25D9 DUP2 PUSH2 0x25C6 JUMP JUMPDEST DUP2 EQ PUSH2 0x25E4 JUMPI PUSH1 0x0 DUP1 REVERT JUMPDEST POP JUMP JUMPDEST PUSH1 0x0 DUP2 CALLDATALOAD SWAP1 POP PUSH2 0x25F6 DUP2 PUSH2 0x25D0 JUMP JUMPDEST SWAP3 SWAP2 POP POP JUMP JUMPDEST PUSH1 0x0 DUP1 PUSH1 0x0 PUSH1 0x60 DUP5 DUP7 SUB SLT ISZERO PUSH2 0x2615 JUMPI PUSH2 0x2614 PUSH2 0x1E92 JUMP JUMPDEST JUMPDEST PUSH1 0x0 DUP5 ADD CALLDATALOAD PUSH8 0xFFFFFFFFFFFFFFFF DUP2 GT ISZERO PUSH2 0x2633 JUMPI PUSH2 0x2632 PUSH2 0x1E97 JUMP JUMPDEST JUMPDEST PUSH2 0x263F DUP7 DUP3 DUP8 ADD PUSH2 0x25A6 JUMP JUMPDEST SWAP4 POP POP PUSH1 0x20 PUSH2 0x2650 DUP7 DUP3 DUP8 ADD PUSH2 0x25E7 JUMP JUMPDEST SWAP3 POP POP PUSH1 0x40 PUSH2 0x2661 DUP7 DUP3 DUP8 ADD PUSH2 0x1F7A JUMP JUMPDEST SWAP2 POP POP SWAP3 POP SWAP3 POP SWAP3 JUMP JUMPDEST PUSH1 0x0 DUP2 MLOAD SWAP1 POP SWAP2 SWAP1 POP JUMP JUMPDEST PUSH1 0x0 DUP3 DUP3 MSTORE PUSH1 0x20 DUP3 ADD SWAP1 POP SWAP3 SWAP2 POP POP JUMP JUMPDEST PUSH1 0x0 JUMPDEST DUP4 DUP2 LT ISZERO PUSH2 0x26A5 JUMPI DUP1 DUP3 ADD MLOAD DUP2 DUP5 ADD MSTORE PUSH1 0x20 DUP2 ADD SWAP1 POP PUSH2 0x268A JUMP JUMPDEST PUSH1 0x0 DUP5 DUP5 ADD MSTORE POP POP POP POP JUMP JUMPDEST PUSH1 0x0 PUSH2 0x26BC DUP3 PUSH2 0x266B JUMP JUMPDEST PUSH2 0x26C6 DUP2 DUP6 PUSH2 0x2676 JUMP JUMPDEST SWAP4 POP PUSH2 0x26D6 DUP2 DUP6 PUSH1 0x20 DUP7 ADD PUSH2 0x2687 JUMP JUMPDEST PUSH2 0x26DF DUP2 PUSH2 0x219B JUMP JUMPDEST DUP5 ADD SWAP2 POP POP SWAP3 SWAP2 POP POP JUMP JUMPDEST PUSH1 0x0 PUSH1 0x40 DUP3 ADD SWAP1 POP DUP2 DUP2 SUB PUSH1 0x0 DUP4 ADD MSTORE PUSH2 0x2704 DUP2 DUP6 PUSH2 0x26B1 JUMP JUMPDEST SWAP1 POP PUSH2 0x2713 PUSH1 0x20 DUP4 ADD DUP5 PUSH2 0x1E5E JUMP JUMPDEST SWAP4 SWAP3 POP POP POP JUMP JUMPDEST PUSH2 0x2723 DUP2 PUSH2 0x1E9C JUMP JUMPDEST DUP3 MSTORE POP POP JUMP JUMPDEST PUSH1 0x0 PUSH1 0x20 DUP3 ADD SWAP1 POP PUSH2 0x273E PUSH1 0x0 DUP4 ADD DUP5 PUSH2 0x271A JUMP JUMPDEST SWAP3 SWAP2 POP POP JUMP JUMPDEST PUSH2 0x274D DUP2 PUSH2 0x1F25 JUMP JUMPDEST DUP3 MSTORE POP POP JUMP JUMPDEST PUSH1 0x0 PUSH1 0x40 DUP3 ADD SWAP1 POP PUSH2 0x2768 PUSH1 0x0 DUP4 ADD DUP6 PUSH2 0x2744 JUMP JUMPDEST PUSH2 0x2775 PUSH1 0x20 DUP4 ADD DUP5 PUSH2 0x1E5E JUMP JUMPDEST SWAP4 SWAP3 POP POP POP JUMP JUMPDEST PUSH32 0x4E487B7100000000000000000000000000000000000000000000000000000000 PUSH1 0x0 MSTORE PUSH1 0x11 PUSH1 0x4 MSTORE PUSH1 0x24 PUSH1 0x0 REVERT JUMPDEST PUSH1 0x0 PUSH2 0x27B6 DUP3 PUSH2 0x1E54 JUMP JUMPDEST SWAP2 POP PUSH2 0x27C1 DUP4 PUSH2 0x1E54 JUMP JUMPDEST SWAP3 POP DUP3 DUP3 SUB SWAP1 POP DUP2 DUP2 GT ISZERO PUSH2 0x27D9 JUMPI PUSH2 0x27D8 PUSH2 0x277C JUMP JUMPDEST JUMPDEST SWAP3 SWAP2 POP POP JUMP JUMPDEST PUSH1 0x0 PUSH2 0x27EA DUP3 PUSH2 0x1E54 JUMP JUMPDEST SWAP2 POP PUSH2 0x27F5 DUP4 PUSH2 0x1E54 JUMP JUMPDEST SWAP3 POP DUP3 DUP3 MUL PUSH2 0x2803 DUP2 PUSH2 0x1E54 JUMP JUMPDEST SWAP2 POP DUP3 DUP3 DIV DUP5 EQ DUP4 ISZERO OR PUSH2 0x281A JUMPI PUSH2 0x2819 PUSH2 0x277C JUMP JUMPDEST JUMPDEST POP SWAP3 SWAP2 POP POP JUMP JUMPDEST PUSH32 0x4E487B7100000000000000000000000000000000000000000000000000000000 PUSH1 0x0 MSTORE PUSH1 0x12 PUSH1 0x4 MSTORE PUSH1 0x24 PUSH1 0x0 REVERT JUMPDEST PUSH1 0x0 PUSH2 0x285B DUP3 PUSH2 0x1E54 JUMP JUMPDEST SWAP2 POP PUSH2 0x2866 DUP4 PUSH2 0x1E54 JUMP JUMPDEST SWAP3 POP DUP3 PUSH2 0x2876 JUMPI PUSH2 0x2875 PUSH2 0x2821 JUMP JUMPDEST JUMPDEST DUP3 DUP3 DIV SWAP1 POP SWAP3 SWAP2 POP POP JUMP JUMPDEST PUSH1 0x0 PUSH2 0x288C DUP3 PUSH2 0x1E54 JUMP JUMPDEST SWAP2 POP PUSH2 0x2897 DUP4 PUSH2 0x1E54 JUMP JUMPDEST SWAP3 POP DUP3 DUP3 ADD SWAP1 POP DUP1 DUP3 GT ISZERO PUSH2 0x28AF JUMPI PUSH2 0x28AE PUSH2 0x277C JUMP JUMPDEST JUMPDEST SWAP3 SWAP2 POP POP JUMP JUMPDEST PUSH1 0x0 PUSH1 0x60 DUP3 ADD SWAP1 POP PUSH2 0x28CA PUSH1 0x0 DUP4 ADD DUP7 PUSH2 0x1E5E JUMP JUMPDEST PUSH2 0x28D7 PUSH1 0x20 DUP4 ADD DUP6 PUSH2 0x1E5E JUMP JUMPDEST PUSH2 0x28E4 PUSH1 0x40 DUP4 ADD DUP5 PUSH2 0x1E5E JUMP JUMPDEST SWAP5 SWAP4 POP POP POP POP JUMP JUMPDEST PUSH1 0x0 PUSH1 0x20 DUP3 ADD SWAP1 POP PUSH2 0x2901 PUSH1 0x0 DUP4 ADD DUP5 PUSH2 0x2744 JUMP JUMPDEST SWAP3 SWAP2 POP POP JUMP JUMPDEST PUSH1 0x0 DUP2 MLOAD SWAP1 POP PUSH2 0x2916 DUP2 PUSH2 0x1F63 JUMP JUMPDEST SWAP3 SWAP2 POP POP JUMP JUMPDEST PUSH1 0x0 PUSH1 0x20 DUP3 DUP5 SUB SLT ISZERO PUSH2 0x2932 JUMPI PUSH2 0x2931 PUSH2 0x1E92 JUMP JUMPDEST JUMPDEST PUSH1 0x0 PUSH2 0x2940 DUP5 DUP3 DUP6 ADD PUSH2 0x2907 JUMP JUMPDEST SWAP2 POP POP SWAP3 SWAP2 POP POP JUMP JUMPDEST PUSH1 0x0 DUP3 DUP3 MSTORE PUSH1 0x20 DUP3 ADD SWAP1 POP SWAP3 SWAP2 POP POP JUMP JUMPDEST PUSH32 0x54504D3A207072696365206D61726B757020746F6F2068696768000000000000 PUSH1 0x0 DUP3 ADD MSTORE POP JUMP JUMPDEST PUSH1 0x0 PUSH2 0x2990 PUSH1 0x1A DUP4 PUSH2 0x2949 JUMP JUMPDEST SWAP2 POP PUSH2 0x299B DUP3 PUSH2 0x295A JUMP JUMPDEST PUSH1 0x20 DUP3 ADD SWAP1 POP SWAP2 SWAP1 POP JUMP JUMPDEST PUSH1 0x0 PUSH1 0x20 DUP3 ADD SWAP1 POP DUP2 DUP2 SUB PUSH1 0x0 DUP4 ADD MSTORE PUSH2 0x29BF DUP2 PUSH2 0x2983 JUMP JUMPDEST SWAP1 POP SWAP2 SWAP1 POP JUMP JUMPDEST PUSH32 0x54504D3A207072696365206D61726B757020746F6F206C6F7700000000000000 PUSH1 0x0 DUP3 ADD MSTORE POP JUMP JUMPDEST PUSH1 0x0 PUSH2 0x29FC PUSH1 0x19 DUP4 PUSH2 0x2949 JUMP JUMPDEST SWAP2 POP PUSH2 0x2A07 DUP3 PUSH2 0x29C6 JUMP JUMPDEST PUSH1 0x20 DUP3 ADD SWAP1 POP SWAP2 SWAP1 POP JUMP JUMPDEST PUSH1 0x0 PUSH1 0x20 DUP3 ADD SWAP1 POP DUP2 DUP2 SUB PUSH1 0x0 DUP4 ADD MSTORE PUSH2 0x2A2B DUP2 PUSH2 0x29EF JUMP JUMPDEST SWAP1 POP SWAP2 SWAP1 POP JUMP JUMPDEST PUSH2 0x2A3B DUP2 PUSH2 0x1E54 JUMP JUMPDEST DUP3 MSTORE POP POP JUMP JUMPDEST PUSH1 0x80 DUP3 ADD PUSH1 0x0 DUP3 ADD MLOAD PUSH2 0x2A57 PUSH1 0x0 DUP6 ADD DUP3 PUSH2 0x2A32 JUMP JUMPDEST POP PUSH1 0x20 DUP3 ADD MLOAD PUSH2 0x2A6A PUSH1 0x20 DUP6 ADD DUP3 PUSH2 0x2A32 JUMP JUMPDEST POP PUSH1 0x40 DUP3 ADD MLOAD PUSH2 0x2A7D PUSH1 0x40 DUP6 ADD DUP3 PUSH2 0x2A32 JUMP JUMPDEST POP PUSH1 0x60 DUP3 ADD MLOAD PUSH2 0x2A90 PUSH1 0x60 DUP6 ADD DUP3 PUSH2 0x2A32 JUMP JUMPDEST POP POP POP POP JUMP JUMPDEST PUSH1 0x0 PUSH1 0x80 DUP3 ADD SWAP1 POP PUSH2 0x2AAB PUSH1 0x0 DUP4 ADD DUP5 PUSH2 0x2A41 JUMP JUMPDEST SWAP3 SWAP2 POP POP JUMP JUMPDEST PUSH1 0x0 PUSH10 0xFFFFFFFFFFFFFFFFFFFF DUP3 AND SWAP1 POP SWAP2 SWAP1 POP JUMP JUMPDEST PUSH2 0x2AD0 DUP2 PUSH2 0x2AB1 JUMP JUMPDEST DUP2 EQ PUSH2 0x2ADB JUMPI PUSH1 0x0 DUP1 REVERT JUMPDEST POP JUMP JUMPDEST PUSH1 0x0 DUP2 MLOAD SWAP1 POP PUSH2 0x2AED DUP2 PUSH2 0x2AC7 JUMP JUMPDEST SWAP3 SWAP2 POP POP JUMP JUMPDEST PUSH1 0x0 DUP2 SWAP1 POP SWAP2 SWAP1 POP JUMP JUMPDEST PUSH2 0x2B06 DUP2 PUSH2 0x2AF3 JUMP JUMPDEST DUP2 EQ PUSH2 0x2B11 JUMPI PUSH1 0x0 DUP1 REVERT JUMPDEST POP JUMP JUMPDEST PUSH1 0x0 DUP2 MLOAD SWAP1 POP PUSH2 0x2B23 DUP2 PUSH2 0x2AFD JUMP JUMPDEST SWAP3 SWAP2 POP POP JUMP JUMPDEST PUSH1 0x0 DUP1 PUSH1 0x0 DUP1 PUSH1 0x0 PUSH1 0xA0 DUP7 DUP9 SUB SLT ISZERO PUSH2 0x2B45 JUMPI PUSH2 0x2B44 PUSH2 0x1E92 JUMP JUMPDEST JUMPDEST PUSH1 0x0 PUSH2 0x2B53 DUP9 DUP3 DUP10 ADD PUSH2 0x2ADE JUMP JUMPDEST SWAP6 POP POP PUSH1 0x20 PUSH2 0x2B64 DUP9 DUP3 DUP10 ADD PUSH2 0x2B14 JUMP JUMPDEST SWAP5 POP POP PUSH1 0x40 PUSH2 0x2B75 DUP9 DUP3 DUP10 ADD PUSH2 0x2907 JUMP JUMPDEST SWAP4 POP POP PUSH1 0x60 PUSH2 0x2B86 DUP9 DUP3 DUP10 ADD PUSH2 0x2907 JUMP JUMPDEST SWAP3 POP POP PUSH1 0x80 PUSH2 0x2B97 DUP9 DUP3 DUP10 ADD PUSH2 0x2ADE JUMP JUMPDEST SWAP2 POP POP SWAP3 SWAP6 POP SWAP3 SWAP6 SWAP1 SWAP4 POP JUMP JUMPDEST PUSH32 0x54504D3A20436861696E6C696E6B207072696365203C3D203000000000000000 PUSH1 0x0 DUP3 ADD MSTORE POP JUMP JUMPDEST PUSH1 0x0 PUSH2 0x2BDA PUSH1 0x19 DUP4 PUSH2 0x2949 JUMP JUMPDEST SWAP2 POP PUSH2 0x2BE5 DUP3 PUSH2 0x2BA4 JUMP JUMPDEST PUSH1 0x20 DUP3 ADD SWAP1 POP SWAP2 SWAP1 POP JUMP JUMPDEST PUSH1 0x0 PUSH1 0x20 DUP3 ADD SWAP1 POP DUP2 DUP2 SUB PUSH1 0x0 DUP4 ADD MSTORE PUSH2 0x2C09 DUP2 PUSH2 0x2BCD JUMP JUMPDEST SWAP1 POP SWAP2 SWAP1 POP JUMP JUMPDEST PUSH32 0x54504D3A20496E636F6D706C65746520726F756E640000000000000000000000 PUSH1 0x0 DUP3 ADD MSTORE POP JUMP JUMPDEST PUSH1 0x0 PUSH2 0x2C46 PUSH1 0x15 DUP4 PUSH2 0x2949 JUMP JUMPDEST SWAP2 POP PUSH2 0x2C51 DUP3 PUSH2 0x2C10 JUMP JUMPDEST PUSH1 0x20 DUP3 ADD SWAP1 POP SWAP2 SWAP1 POP JUMP JUMPDEST PUSH1 0x0 PUSH1 0x20 DUP3 ADD SWAP1 POP DUP2 DUP2 SUB PUSH1 0x0 DUP4 ADD MSTORE PUSH2 0x2C75 DUP2 PUSH2 0x2C39 JUMP JUMPDEST SWAP1 POP SWAP2 SWAP1 POP JUMP JUMPDEST PUSH32 0x54504D3A205374616C6520707269636500000000000000000000000000000000 PUSH1 0x0 DUP3 ADD MSTORE POP JUMP JUMPDEST PUSH1 0x0 PUSH2 0x2CB2 PUSH1 0x10 DUP4 PUSH2 0x2949 JUMP JUMPDEST SWAP2 POP PUSH2 0x2CBD DUP3 PUSH2 0x2C7C JUMP JUMPDEST PUSH1 0x20 DUP3 ADD SWAP1 POP SWAP2 SWAP1 POP JUMP JUMPDEST PUSH1 0x0 PUSH1 0x20 DUP3 ADD SWAP1 POP DUP2 DUP2 SUB PUSH1 0x0 DUP4 ADD MSTORE PUSH2 0x2CE1 DUP2 PUSH2 0x2CA5 JUMP JUMPDEST SWAP1 POP SWAP2 SWAP1 POP JUMP JUMPDEST PUSH1 0x0 PUSH1 0x40 DUP3 ADD SWAP1 POP PUSH2 0x2CFD PUSH1 0x0 DUP4 ADD DUP6 PUSH2 0x2100 JUMP JUMPDEST PUSH2 0x2D0A PUSH1 0x20 DUP4 ADD DUP5 PUSH2 0x1E5E JUMP JUMPDEST SWAP4 SWAP3 POP POP POP JUMP JUMPDEST PUSH32 0x53656E646572206E6F7420456E747279506F696E740000000000000000000000 PUSH1 0x0 DUP3 ADD MSTORE POP JUMP JUMPDEST PUSH1 0x0 PUSH2 0x2D47 PUSH1 0x15 DUP4 PUSH2 0x2949 JUMP JUMPDEST SWAP2 POP PUSH2 0x2D52 DUP3 PUSH2 0x2D11 JUMP JUMPDEST PUSH1 0x20 DUP3 ADD SWAP1 POP SWAP2 SWAP1 POP JUMP JUMPDEST PUSH1 0x0 PUSH1 0x20 DUP3 ADD SWAP1 POP DUP2 DUP2 SUB PUSH1 0x0 DUP4 ADD MSTORE PUSH2 0x2D76 DUP2 PUSH2 0x2D3A JUMP JUMPDEST SWAP1 POP SWAP2 SWAP1 POP JUMP JUMPDEST PUSH1 0x0 DUP1 PUSH1 0x0 DUP1 PUSH1 0x80 DUP6 DUP8 SUB SLT ISZERO PUSH2 0x2D97 JUMPI PUSH2 0x2D96 PUSH2 0x1E92 JUMP JUMPDEST JUMPDEST PUSH1 0x0 PUSH2 0x2DA5 DUP8 DUP3 DUP9 ADD PUSH2 0x1F7A JUMP JUMPDEST SWAP5 POP POP PUSH1 0x20 PUSH2 0x2DB6 DUP8 DUP3 DUP9 ADD PUSH2 0x1F7A JUMP JUMPDEST SWAP4 POP POP PUSH1 0x40 PUSH2 0x2DC7 DUP8 DUP3 DUP9 ADD PUSH2 0x1F7A JUMP JUMPDEST SWAP3 POP POP PUSH1 0x60 PUSH2 0x2DD8 DUP8 DUP3 DUP9 ADD PUSH2 0x1F4E JUMP JUMPDEST SWAP2 POP POP SWAP3 SWAP6 SWAP2 SWAP5 POP SWAP3 POP JUMP JUMPDEST PUSH1 0x0 DUP1 REVERT JUMPDEST PUSH1 0x0 DUP1 REVERT JUMPDEST PUSH1 0x0 DUP1 REVERT JUMPDEST PUSH1 0x0 DUP1 DUP4 CALLDATALOAD PUSH1 0x1 PUSH1 0x20 SUB DUP5 CALLDATASIZE SUB SUB DUP2 SLT PUSH2 0x2E10 JUMPI PUSH2 0x2E0F PUSH2 0x2DE4 JUMP JUMPDEST JUMPDEST DUP1 DUP5 ADD SWAP3 POP DUP3 CALLDATALOAD SWAP2 POP PUSH8 0xFFFFFFFFFFFFFFFF DUP3 GT ISZERO PUSH2 0x2E32 JUMPI PUSH2 0x2E31 PUSH2 0x2DE9 JUMP JUMPDEST JUMPDEST PUSH1 0x20 DUP4 ADD SWAP3 POP PUSH1 0x1 DUP3 MUL CALLDATASIZE SUB DUP4 SGT ISZERO PUSH2 0x2E4E JUMPI PUSH2 0x2E4D PUSH2 0x2DEE JUMP JUMPDEST JUMPDEST POP SWAP3 POP SWAP3 SWAP1 POP JUMP JUMPDEST PUSH32 0x54504D3A20696E76616C69642064617461206C656E6774680000000000000000 PUSH1 0x0 DUP3 ADD MSTORE POP JUMP JUMPDEST PUSH1 0x0 PUSH2 0x2E8C PUSH1 0x18 DUP4 PUSH2 0x2949 JUMP JUMPDEST SWAP2 POP PUSH2 0x2E97 DUP3 PUSH2 0x2E56 JUMP JUMPDEST PUSH1 0x20 DUP3 ADD SWAP1 POP SWAP2 SWAP1 POP JUMP JUMPDEST PUSH1 0x0 PUSH1 0x20 DUP3 ADD SWAP1 POP DUP2 DUP2 SUB PUSH1 0x0 DUP4 ADD MSTORE PUSH2 0x2EBB DUP2 PUSH2 0x2E7F JUMP JUMPDEST SWAP1 POP SWAP2 SWAP1 POP JUMP JUMPDEST PUSH1 0x0 DUP1 REVERT JUMPDEST PUSH1 0x0 DUP1 REVERT JUMPDEST PUSH1 0x0 DUP1 DUP6 DUP6 GT ISZERO PUSH2 0x2EE0 JUMPI PUSH2 0x2EDF PUSH2 0x2EC2 JUMP JUMPDEST JUMPDEST DUP4 DUP7 GT ISZERO PUSH2 0x2EF1 JUMPI PUSH2 0x2EF0 PUSH2 0x2EC7 JUMP JUMPDEST JUMPDEST PUSH1 0x1 DUP6 MUL DUP4 ADD SWAP2 POP DUP5 DUP7 SUB SWAP1 POP SWAP5 POP SWAP5 SWAP3 POP POP POP JUMP JUMPDEST PUSH1 0x0 DUP3 SWAP1 POP SWAP3 SWAP2 POP POP JUMP JUMPDEST PUSH1 0x0 DUP3 DUP3 SHL SWAP1 POP SWAP3 SWAP2 POP POP JUMP JUMPDEST PUSH1 0x0 PUSH2 0x2F2B DUP4 DUP4 PUSH2 0x2F07 JUMP JUMPDEST DUP3 PUSH2 0x2F36 DUP2 CALLDATALOAD PUSH2 0x25C6 JUMP JUMPDEST SWAP3 POP PUSH1 0x20 DUP3 LT ISZERO PUSH2 0x2F76 JUMPI PUSH2 0x2F71 PUSH32 0xFFFFFFFFFFFFFFFFFFFFFFFFFFFFFFFFFFFFFFFFFFFFFFFFFFFFFFFFFFFFFFFF DUP4 PUSH1 0x20 SUB PUSH1 0x8 MUL PUSH2 0x2F12 JUMP JUMPDEST DUP4 AND SWAP3 POP JUMPDEST POP POP SWAP3 SWAP2 POP POP JUMP JUMPDEST PUSH1 0x0 PUSH1 0x80 DUP3 ADD SWAP1 POP PUSH2 0x2F93 PUSH1 0x0 DUP4 ADD DUP8 PUSH2 0x1E5E JUMP JUMPDEST PUSH2 0x2FA0 PUSH1 0x20 DUP4 ADD DUP7 PUSH2 0x1E5E JUMP JUMPDEST PUSH2 0x2FAD PUSH1 0x40 DUP4 ADD DUP6 PUSH2 0x1E5E JUMP JUMPDEST PUSH2 0x2FBA PUSH1 0x60 DUP4 ADD DUP5 PUSH2 0x2100 JUMP JUMPDEST SWAP6 SWAP5 POP POP POP POP POP JUMP JUMPDEST PUSH1 0x0 DUP2 MLOAD SWAP1 POP PUSH2 0x2FD2 DUP2 PUSH2 0x2055 JUMP JUMPDEST SWAP3 SWAP2 POP POP JUMP JUMPDEST PUSH1 0x0 PUSH1 0x20 DUP3 DUP5 SUB SLT ISZERO PUSH2 0x2FEE JUMPI PUSH2 0x2FED PUSH2 0x1E92 JUMP JUMPDEST JUMPDEST PUSH1 0x0 PUSH2 0x2FFC DUP5 DUP3 DUP6 ADD PUSH2 0x2FC3 JUMP JUMPDEST SWAP2 POP POP SWAP3 SWAP2 POP POP JUMP JUMPDEST PUSH1 0x0 PUSH1 0x60 DUP3 ADD SWAP1 POP PUSH2 0x301A PUSH1 0x0 DUP4 ADD DUP7 PUSH2 0x2100 JUMP JUMPDEST PUSH2 0x3027 PUSH1 0x20 DUP4 ADD DUP6 PUSH2 0x2100 JUMP JUMPDEST PUSH2 0x3034 PUSH1 0x40 DUP4 ADD DUP5 PUSH2 0x1E5E JUMP JUMPDEST SWAP5 SWAP4 POP POP POP POP JUMP JUMPDEST PUSH1 0x0 PUSH1 0x40 DUP3 ADD SWAP1 POP PUSH2 0x3051 PUSH1 0x0 DUP4 ADD DUP6 PUSH2 0x1E5E JUMP JUMPDEST PUSH2 0x305E PUSH1 0x20 DUP4 ADD DUP5 PUSH2 0x2100 JUMP JUMPDEST SWAP4 SWAP3 POP POP POP JUMP JUMPDEST PUSH1 0x0 DUP2 SWAP1 POP SWAP3 SWAP2 POP POP JUMP JUMPDEST PUSH1 0x0 PUSH2 0x307B DUP3 PUSH2 0x266B JUMP JUMPDEST PUSH2 0x3085 DUP2 DUP6 PUSH2 0x3065 JUMP JUMPDEST SWAP4 POP PUSH2 0x3095 DUP2 DUP6 PUSH1 0x20 DUP7 ADD PUSH2 0x2687 JUMP JUMPDEST DUP1 DUP5 ADD SWAP2 POP POP SWAP3 SWAP2 POP POP JUMP JUMPDEST PUSH1 0x0 PUSH2 0x30AD DUP3 DUP5 PUSH2 0x3070 JUMP JUMPDEST SWAP2 POP DUP2 SWAP1 POP SWAP3 SWAP2 POP POP JUMP JUMPDEST PUSH1 0x0 PUSH2 0xFFFF DUP3 AND SWAP1 POP SWAP2 SWAP1 POP JUMP JUMPDEST PUSH1 0x0 PUSH2 0x30D1 DUP3 PUSH2 0x30B8 JUMP JUMPDEST SWAP2 POP PUSH2 0x30DC DUP4 PUSH2 0x30B8 JUMP JUMPDEST SWAP3 POP DUP3 DUP3 SUB SWAP1 POP PUSH2 0xFFFF DUP2 GT ISZERO PUSH2 0x30F6 JUMPI PUSH2 0x30F5 PUSH2 0x277C JUMP JUMPDEST JUMPDEST SWAP3 SWAP2 POP POP JUMP JUMPDEST PUSH2 0x3105 DUP2 PUSH2 0x20EE JUMP JUMPDEST DUP3 MSTORE POP POP JUMP JUMPDEST PUSH2 0x3114 DUP2 PUSH2 0x2227 JUMP JUMPDEST DUP3 MSTORE POP POP JUMP JUMPDEST PUSH2 0x3123 DUP2 PUSH2 0x1F05 JUMP JUMPDEST DUP3 MSTORE POP POP JUMP JUMPDEST PUSH2 0x100 DUP3 ADD PUSH1 0x0 DUP3 ADD MLOAD PUSH2 0x3140 PUSH1 0x0 DUP6 ADD DUP3 PUSH2 0x30FC JUMP JUMPDEST POP PUSH1 0x20 DUP3 ADD MLOAD PUSH2 0x3153 PUSH1 0x20 DUP6 ADD DUP3 PUSH2 0x30FC JUMP JUMPDEST POP PUSH1 0x40 DUP3 ADD MLOAD PUSH2 0x3166 PUSH1 0x40 DUP6 ADD DUP3 PUSH2 0x310B JUMP JUMPDEST POP PUSH1 0x60 DUP3 ADD MLOAD PUSH2 0x3179 PUSH1 0x60 DUP6 ADD DUP3 PUSH2 0x30FC JUMP JUMPDEST POP PUSH1 0x80 DUP3 ADD MLOAD PUSH2 0x318C PUSH1 0x80 DUP6 ADD DUP3 PUSH2 0x2A32 JUMP JUMPDEST POP PUSH1 0xA0 DUP3 ADD MLOAD PUSH2 0x319F PUSH1 0xA0 DUP6 ADD DUP3 PUSH2 0x2A32 JUMP JUMPDEST POP PUSH1 0xC0 DUP3 ADD MLOAD PUSH2 0x31B2 PUSH1 0xC0 DUP6 ADD DUP3 PUSH2 0x2A32 JUMP JUMPDEST POP PUSH1 0xE0 DUP3 ADD MLOAD PUSH2 0x31C5 PUSH1 0xE0 DUP6 ADD DUP3 PUSH2 0x311A JUMP JUMPDEST POP POP POP POP JUMP JUMPDEST PUSH1 0x0 PUSH2 0x100 DUP3 ADD SWAP1 POP PUSH2 0x31E1 PUSH1 0x0 DUP4 ADD DUP5 PUSH2 0x3129 JUMP JUMPDEST SWAP3 SWAP2 POP POP JUMP JUMPDEST PUSH1 0x0 PUSH1 0x80 DUP3 ADD SWAP1 POP PUSH2 0x31FC PUSH1 0x0 DUP4 ADD DUP8 PUSH2 0x2100 JUMP JUMPDEST PUSH2 0x3209 PUSH1 0x20 DUP4 ADD DUP7 PUSH2 0x2100 JUMP JUMPDEST PUSH2 0x3216 PUSH1 0x40 DUP4 ADD DUP6 PUSH2 0x1E5E JUMP JUMPDEST PUSH2 0x3223 PUSH1 0x60 DUP4 ADD DUP5 PUSH2 0x1E5E JUMP JUMPDEST SWAP6 SWAP5 POP POP POP POP POP JUMP INVALID LOG2 PUSH5 0x6970667358 0x22 SLT KECCAK256 PUSH31 0x206D081AD617E430D210F0A1B7050FDFEA3195A438B5F6917217C950A959CF PUSH5 0x736F6C6343 STOP ADDMOD EQ STOP CALLER "},"methodIdentifiers":{"addStake(uint32)":"0396cb60","cachedPrice()":"f60fdcb3","cachedPriceTimestamp()":"e1d8153c","deposit()":"d0e30db0","entryPoint()":"b0d691fe","getDeposit()":"c399ec88","owner()":"8da5cb5b","postOp(uint8,bytes,uint256)":"a9a23409","renounceOwnership()":"715018a6","setTokenPaymasterConfig((uint256,uint256,uint256,uint256))":"c63dcf6a","setUniswapConfiguration((uint256,uint24,uint8))":"a0840fa7","token()":"fc0c546a","tokenToWei(uint256,uint256)":"d7a23b3c","transferOwnership(address)":"f2fde38b","uniswap()":"2681f7e4","unlockStake()":"bb9fe6bf","updateCachedPrice(bool)":"3ba9290f","validatePaymasterUserOp((address,uint256,bytes,bytes,uint256,uint256,uint256,uint256,uint256,bytes,bytes),bytes32,uint256)":"f465c77e","weiToToken(uint256,uint256)":"7c986aac","withdrawStake(address)":"c23a5cea","withdrawTo(address,uint256)":"205c2878","withdrawToken(address,uint256)":"9e281a98","wrappedNative()":"eb6d3a11"}}}}}