{"contracts/utils/BiconomyTokenPaymaster.sol":{"BiconomyTokenPaymaster":{"abi":[{"inputs":[{"internalType":"address","name":"_owner","type":"address"},{"internalType":"contract IEntryPoint","name":"_entryPoint","type":"address"},{"internalType":"address","name":"_verifyingSigner","type":"address"}],"stateMutability":"payable","type":"constructor"},{"inputs":[],"name":"CanNotWithdrawToZeroAddress","type":"error"},{"inputs":[],"name":"CannotBeUnrealisticValue","type":"error"},{"inputs":[],"name":"DEXRouterCannotBeZero","type":"error"},{"inputs":[],"name":"DepositCanNotBeZero","type":"error"},{"inputs":[],"name":"ECDSAInvalidSignature","type":"error"},{"inputs":[{"internalType":"uint256","name":"length","type":"uint256"}],"name":"ECDSAInvalidSignatureLength","type":"error"},{"inputs":[{"internalType":"bytes32","name":"s","type":"bytes32"}],"name":"ECDSAInvalidSignatureS","type":"error"},{"inputs":[],"name":"EntryPointCannotBeZero","type":"error"},{"inputs":[],"name":"FeeReceiverCannotBeZero","type":"error"},{"inputs":[],"name":"NativeTokenBalanceZero","type":"error"},{"inputs":[],"name":"NativeTokensWithdrawalFailed","type":"error"},{"inputs":[{"internalType":"address","name":"owner","type":"address"}],"name":"OwnableInvalidOwner","type":"error"},{"inputs":[{"internalType":"address","name":"account","type":"address"}],"name":"OwnableUnauthorizedAccount","type":"error"},{"inputs":[],"name":"OwnerCannotBeZero","type":"error"},{"inputs":[],"name":"TokensAndAmountsLengthMismatch","type":"error"},{"inputs":[],"name":"VerifyingSignerCannotBeZero","type":"error"},{"anonymous":false,"inputs":[{"indexed":true,"internalType":"uint256","name":"_oldOverheadCost","type":"uint256"},{"indexed":true,"internalType":"uint256","name":"_newOverheadCost","type":"uint256"},{"indexed":true,"internalType":"address","name":"_actor","type":"address"}],"name":"EPGasOverheadChanged","type":"event"},{"anonymous":false,"inputs":[{"indexed":true,"internalType":"address","name":"_oldfeeReceiver","type":"address"},{"indexed":true,"internalType":"address","name":"_newfeeReceiver","type":"address"},{"indexed":true,"internalType":"address","name":"_actor","type":"address"}],"name":"FeeReceiverChanged","type":"event"},{"anonymous":false,"inputs":[{"indexed":true,"internalType":"address","name":"previousOwner","type":"address"},{"indexed":true,"internalType":"address","name":"newOwner","type":"address"}],"name":"OwnershipTransferred","type":"event"},{"anonymous":false,"inputs":[{"indexed":true,"internalType":"address","name":"sender","type":"address"},{"indexed":false,"internalType":"uint256","name":"value","type":"uint256"}],"name":"Received","type":"event"},{"anonymous":false,"inputs":[{"indexed":true,"internalType":"address","name":"sender","type":"address"},{"indexed":true,"internalType":"address","name":"token","type":"address"},{"indexed":true,"internalType":"uint256","name":"totalCharge","type":"uint256"},{"indexed":false,"internalType":"address","name":"oracleAggregator","type":"address"},{"indexed":false,"internalType":"uint32","name":"priceMarkup","type":"uint32"},{"indexed":false,"internalType":"bytes32","name":"userOpHash","type":"bytes32"},{"indexed":false,"internalType":"uint256","name":"exchangeRate","type":"uint256"},{"indexed":false,"internalType":"enum BiconomyTokenPaymaster.ExchangeRateSource","name":"priceSource","type":"uint8"}],"name":"TokenPaymasterOperation","type":"event"},{"anonymous":false,"inputs":[{"indexed":true,"internalType":"address","name":"token","type":"address"},{"indexed":true,"internalType":"address","name":"account","type":"address"},{"indexed":true,"internalType":"uint256","name":"charge","type":"uint256"}],"name":"TokenPaymentDue","type":"event"},{"anonymous":false,"inputs":[{"indexed":true,"internalType":"address","name":"_oldSigner","type":"address"},{"indexed":true,"internalType":"address","name":"_newSigner","type":"address"},{"indexed":true,"internalType":"address","name":"_actor","type":"address"}],"name":"VerifyingSignerChanged","type":"event"},{"inputs":[],"name":"UNACCOUNTED_COST","outputs":[{"internalType":"uint256","name":"","type":"uint256"}],"stateMutability":"view","type":"function"},{"inputs":[{"internalType":"uint32","name":"unstakeDelaySec","type":"uint32"}],"name":"addStake","outputs":[],"stateMutability":"payable","type":"function"},{"inputs":[],"name":"deposit","outputs":[],"stateMutability":"payable","type":"function"},{"inputs":[],"name":"entryPoint","outputs":[{"internalType":"contract IEntryPoint","name":"","type":"address"}],"stateMutability":"view","type":"function"},{"inputs":[],"name":"feeReceiver","outputs":[{"internalType":"address","name":"","type":"address"}],"stateMutability":"view","type":"function"},{"inputs":[],"name":"getDeposit","outputs":[{"internalType":"uint256","name":"","type":"uint256"}],"stateMutability":"view","type":"function"},{"inputs":[{"components":[{"internalType":"address","name":"sender","type":"address"},{"internalType":"uint256","name":"nonce","type":"uint256"},{"internalType":"bytes","name":"initCode","type":"bytes"},{"internalType":"bytes","name":"callData","type":"bytes"},{"internalType":"uint256","name":"callGasLimit","type":"uint256"},{"internalType":"uint256","name":"verificationGasLimit","type":"uint256"},{"internalType":"uint256","name":"preVerificationGas","type":"uint256"},{"internalType":"uint256","name":"maxFeePerGas","type":"uint256"},{"internalType":"uint256","name":"maxPriorityFeePerGas","type":"uint256"},{"internalType":"bytes","name":"paymasterAndData","type":"bytes"},{"internalType":"bytes","name":"signature","type":"bytes"}],"internalType":"struct UserOperation","name":"userOp","type":"tuple"},{"internalType":"enum BiconomyTokenPaymaster.ExchangeRateSource","name":"priceSource","type":"uint8"},{"internalType":"uint48","name":"validUntil","type":"uint48"},{"internalType":"uint48","name":"validAfter","type":"uint48"},{"internalType":"address","name":"feeToken","type":"address"},{"internalType":"address","name":"oracleAggregator","type":"address"},{"internalType":"uint256","name":"exchangeRate","type":"uint256"},{"internalType":"uint32","name":"priceMarkup","type":"uint32"}],"name":"getHash","outputs":[{"internalType":"bytes32","name":"","type":"bytes32"}],"stateMutability":"view","type":"function"},{"inputs":[],"name":"owner","outputs":[{"internalType":"address","name":"","type":"address"}],"stateMutability":"view","type":"function"},{"inputs":[{"internalType":"bytes","name":"paymasterAndData","type":"bytes"}],"name":"parsePaymasterAndData","outputs":[{"components":[{"internalType":"enum BiconomyTokenPaymaster.ExchangeRateSource","name":"priceSource","type":"uint8"},{"internalType":"uint48","name":"validUntil","type":"uint48"},{"internalType":"uint48","name":"validAfter","type":"uint48"},{"internalType":"address","name":"feeToken","type":"address"},{"internalType":"address","name":"oracleAggregator","type":"address"},{"internalType":"uint256","name":"exchangeRate","type":"uint256"},{"internalType":"uint32","name":"priceMarkup","type":"uint32"},{"internalType":"bytes","name":"signature","type":"bytes"}],"internalType":"struct BiconomyTokenPaymaster.PaymasterData","name":"","type":"tuple"}],"stateMutability":"pure","type":"function"},{"inputs":[{"internalType":"enum IPaymaster.PostOpMode","name":"mode","type":"uint8"},{"internalType":"bytes","name":"context","type":"bytes"},{"internalType":"uint256","name":"actualGasCost","type":"uint256"}],"name":"postOp","outputs":[],"stateMutability":"nonpayable","type":"function"},{"inputs":[],"name":"renounceOwnership","outputs":[],"stateMutability":"nonpayable","type":"function"},{"inputs":[{"internalType":"address","name":"_newFeeReceiver","type":"address"}],"name":"setFeeReceiver","outputs":[],"stateMutability":"payable","type":"function"},{"inputs":[{"internalType":"uint256","name":"_newOverheadCost","type":"uint256"}],"name":"setUnaccountedEPGasOverhead","outputs":[],"stateMutability":"payable","type":"function"},{"inputs":[{"internalType":"address","name":"_newVerifyingSigner","type":"address"}],"name":"setVerifyingSigner","outputs":[],"stateMutability":"payable","type":"function"},{"inputs":[{"internalType":"address","name":"newOwner","type":"address"}],"name":"transferOwnership","outputs":[],"stateMutability":"nonpayable","type":"function"},{"inputs":[],"name":"unlockStake","outputs":[],"stateMutability":"nonpayable","type":"function"},{"inputs":[{"components":[{"internalType":"address","name":"sender","type":"address"},{"internalType":"uint256","name":"nonce","type":"uint256"},{"internalType":"bytes","name":"initCode","type":"bytes"},{"internalType":"bytes","name":"callData","type":"bytes"},{"internalType":"uint256","name":"callGasLimit","type":"uint256"},{"internalType":"uint256","name":"verificationGasLimit","type":"uint256"},{"internalType":"uint256","name":"preVerificationGas","type":"uint256"},{"internalType":"uint256","name":"maxFeePerGas","type":"uint256"},{"internalType":"uint256","name":"maxPriorityFeePerGas","type":"uint256"},{"internalType":"bytes","name":"paymasterAndData","type":"bytes"},{"internalType":"bytes","name":"signature","type":"bytes"}],"internalType":"struct UserOperation","name":"userOp","type":"tuple"},{"internalType":"bytes32","name":"userOpHash","type":"bytes32"},{"internalType":"uint256","name":"maxCost","type":"uint256"}],"name":"validatePaymasterUserOp","outputs":[{"internalType":"bytes","name":"context","type":"bytes"},{"internalType":"uint256","name":"validationData","type":"uint256"}],"stateMutability":"nonpayable","type":"function"},{"inputs":[],"name":"verifyingSigner","outputs":[{"internalType":"address","name":"","type":"address"}],"stateMutability":"view","type":"function"},{"inputs":[{"internalType":"address","name":"dest","type":"address"}],"name":"withdrawAllNative","outputs":[],"stateMutability":"payable","type":"function"},{"inputs":[{"internalType":"contract IERC20","name":"token","type":"address"},{"internalType":"address","name":"target","type":"address"},{"internalType":"uint256","name":"amount","type":"uint256"}],"name":"withdrawERC20","outputs":[],"stateMutability":"payable","type":"function"},{"inputs":[{"internalType":"contract IERC20","name":"token","type":"address"},{"internalType":"address","name":"target","type":"address"}],"name":"withdrawERC20Full","outputs":[],"stateMutability":"payable","type":"function"},{"inputs":[{"internalType":"contract IERC20[]","name":"token","type":"address[]"},{"internalType":"address","name":"target","type":"address"},{"internalType":"uint256[]","name":"amount","type":"uint256[]"}],"name":"withdrawMultipleERC20","outputs":[],"stateMutability":"payable","type":"function"},{"inputs":[{"internalType":"contract IERC20[]","name":"token","type":"address[]"},{"internalType":"address","name":"target","type":"address"}],"name":"withdrawMultipleERC20Full","outputs":[],"stateMutability":"payable","type":"function"},{"inputs":[{"internalType":"address payable","name":"withdrawAddress","type":"address"}],"name":"withdrawStake","outputs":[],"stateMutability":"nonpayable","type":"function"},{"inputs":[{"internalType":"address payable","name":"withdrawAddress","type":"address"},{"internalType":"uint256","name":"amount","type":"uint256"}],"name":"withdrawTo","outputs":[],"stateMutability":"nonpayable","type":"function"},{"inputs":[{"internalType":"address payable","name":"withdrawAddress","type":"address"},{"internalType":"uint256","name":"amount","type":"uint256"}],"name":"withdrawToCheck","outputs":[],"stateMutability":"nonpayable","type":"function"},{"stateMutability":"payable","type":"receive"}],"evm":{"bytecode":{"linkReferences":{},"object":"60a060405261afc8600155604051620040fd380380620040fd83398181016040528101906200002f9190620003a6565b8132600073ffffffffffffffffffffffffffffffffffffffff168173ffffffffffffffffffffffffffffffffffffffff1603620000a65760006040517f1e4fbdf70000000000000000000000000000000000000000000000000000000081526004016200009d919062000413565b60405180910390fd5b620000b7816200023360201b60201c565b508073ffffffffffffffffffffffffffffffffffffffff1660808173ffffffffffffffffffffffffffffffffffffffff168152505050600073ffffffffffffffffffffffffffffffffffffffff168373ffffffffffffffffffffffffffffffffffffffff160362000154576040517f9b15e16f00000000000000000000000000000000000000000000000000000000815260040160405180910390fd5b600073ffffffffffffffffffffffffffffffffffffffff168273ffffffffffffffffffffffffffffffffffffffff1603620001bb576040517f245d23e400000000000000000000000000000000000000000000000000000000815260040160405180910390fd5b600073ffffffffffffffffffffffffffffffffffffffff168173ffffffffffffffffffffffffffffffffffffffff160362000222576040517f8fc6a93100000000000000000000000000000000000000000000000000000000815260040160405180910390fd5b806002553060035550505062000430565b60008060009054906101000a900473ffffffffffffffffffffffffffffffffffffffff169050816000806101000a81548173ffffffffffffffffffffffffffffffffffffffff021916908373ffffffffffffffffffffffffffffffffffffffff1602179055508173ffffffffffffffffffffffffffffffffffffffff168173ffffffffffffffffffffffffffffffffffffffff167f8be0079c531659141344cd1fd0a4f28419497f9722a3daafe3b4186f6b6457e060405160405180910390a35050565b600080fd5b600073ffffffffffffffffffffffffffffffffffffffff82169050919050565b60006200032982620002fc565b9050919050565b6200033b816200031c565b81146200034757600080fd5b50565b6000815190506200035b8162000330565b92915050565b60006200036e826200031c565b9050919050565b620003808162000361565b81146200038c57600080fd5b50565b600081519050620003a08162000375565b92915050565b600080600060608486031215620003c257620003c1620002f7565b5b6000620003d2868287016200034a565b9350506020620003e5868287016200038f565b9250506040620003f8868287016200034a565b9150509250925092565b6200040d816200031c565b82525050565b60006020820190506200042a600083018462000402565b92915050565b608051613c7962000484600039600081816105a40152818161063b0152818161077801528181610c6c01528181610cbe01528181610d4801528181610dd801528181610ece01526115e60152613c796000f3fe6080604052600436106101855760003560e01c8063b3f00674116100d1578063d0e30db01161008a578063efdcd97411610064578063efdcd974146104fb578063f2fde38b14610517578063f465c77e14610540578063f5cba98c1461057e576101da565b8063d0e30db0146104b9578063d9f66db1146104c3578063deeb3874146104df576101da565b8063b3f00674146103bb578063bb9fe6bf146103e6578063c23a5cea146103fd578063c399ec8814610426578063c6e7a95714610451578063d0db6f751461047c576101da565b8063617d057a1161013e5780638da5cb5b116101185780638da5cb5b146102ff57806394d4ad601461032a578063a9a2340914610367578063b0d691fe14610390576101da565b8063617d057a146102b0578063715018a6146102cc57806378b1da23146102e3576101da565b80630396cb60146101df578063205c2878146101fb57806323d9ac9b1461022457806344004cc11461024f57806345499d461461026b5780635deef2aa14610294576101da565b366101da573373ffffffffffffffffffffffffffffffffffffffff167f88a5966d370b9919b20f3e2c13ff65706f196a4e32cc2c12bf57088f88525874346040516101d09190612405565b60405180910390a2005b600080fd5b6101f960048036038101906101f49190612466565b61059a565b005b34801561020757600080fd5b50610222600480360381019061021d919061251d565b610631565b005b34801561023057600080fd5b506102396106ca565b604051610246919061257e565b60405180910390f35b61026960048036038101906102649190612603565b6106f0565b005b34801561027757600080fd5b50610292600480360381019061028d919061251d565b610708565b005b6102ae60048036038101906102a99190612656565b610807565b005b6102ca60048036038101906102c59190612751565b61089d565b005b3480156102d857600080fd5b506102e1610950565b005b6102fd60048036038101906102f891906127e6565b610964565b005b34801561030b57600080fd5b50610314610a63565b604051610321919061257e565b60405180910390f35b34801561033657600080fd5b50610351600480360381019061034c919061289c565b610a8c565b60405161035e9190612aee565b60405180910390f35b34801561037357600080fd5b5061038e60048036038101906103899190612b35565b610c50565b005b34801561039c57600080fd5b506103a5610c6a565b6040516103b29190612c08565b60405180910390f35b3480156103c757600080fd5b506103d0610c8e565b6040516103dd919061257e565b60405180910390f35b3480156103f257600080fd5b506103fb610cb4565b005b34801561040957600080fd5b50610424600480360381019061041f9190612c23565b610d3e565b005b34801561043257600080fd5b5061043b610dd4565b6040516104489190612405565b60405180910390f35b34801561045d57600080fd5b50610466610e75565b6040516104739190612405565b60405180910390f35b34801561048857600080fd5b506104a3600480360381019061049e9190612cc6565b610e7b565b6040516104b09190612db1565b60405180910390f35b6104c1610ecc565b005b6104dd60048036038101906104d89190612dcc565b610f5a565b005b6104f960048036038101906104f49190612df9565b611051565b005b61051560048036038101906105109190612dcc565b6110ea565b005b34801561052357600080fd5b5061053e60048036038101906105399190612dcc565b6111f8565b005b34801561054c57600080fd5b5061056760048036038101906105629190612e52565b61127e565b604051610575929190612f0b565b60405180910390f35b61059860048036038101906105939190612dcc565b6112a1565b005b6105a26113af565b7f000000000000000000000000000000000000000000000000000000000000000073ffffffffffffffffffffffffffffffffffffffff16630396cb6034836040518363ffffffff1660e01b81526004016105fc9190612f4a565b6000604051808303818588803b15801561061557600080fd5b505af1158015610629573d6000803e3d6000fd5b505050505050565b6106396113af565b7f000000000000000000000000000000000000000000000000000000000000000073ffffffffffffffffffffffffffffffffffffffff1663205c287883836040518363ffffffff1660e01b8152600401610694929190612f74565b600060405180830381600087803b1580156106ae57600080fd5b505af11580156106c2573d6000803e3d6000fd5b505050505050565b600260009054906101000a900473ffffffffffffffffffffffffffffffffffffffff1681565b6106f86113af565b610703838383611436565b505050565b6107106113af565b600073ffffffffffffffffffffffffffffffffffffffff168273ffffffffffffffffffffffffffffffffffffffff1603610776576040517f92bc9df300000000000000000000000000000000000000000000000000000000815260040160405180910390fd5b7f000000000000000000000000000000000000000000000000000000000000000073ffffffffffffffffffffffffffffffffffffffff1663205c287883836040518363ffffffff1660e01b81526004016107d1929190612f74565b600060405180830381600087803b1580156107eb57600080fd5b505af11580156107ff573d6000803e3d6000fd5b505050505050565b61080f6113af565b60008273ffffffffffffffffffffffffffffffffffffffff166370a08231306040518263ffffffff1660e01b815260040161084a919061257e565b602060405180830381865afa158015610867573d6000803e3d6000fd5b505050506040513d601f19601f8201168201806040525081019061088b9190612fb2565b9050610898838383611436565b505050565b6108a56113af565b8181905085859050146108e4576040517f0906708600000000000000000000000000000000000000000000000000000000815260040160405180910390fd5b60005b858590508110156109485761093d86868381811061090857610907612fdf565b5b905060200201602081019061091d919061300e565b8585858581811061093157610930612fdf565b5b90506020020135611436565b8060010190506108e7565b505050505050565b6109586113af565b6109626000611520565b565b61096c6113af565b60005b83839050811015610a5d57600084848381811061098f5761098e612fdf565b5b90506020020160208101906109a4919061300e565b73ffffffffffffffffffffffffffffffffffffffff166370a08231306040518263ffffffff1660e01b81526004016109dc919061257e565b602060405180830381865afa1580156109f9573d6000803e3d6000fd5b505050506040513d601f19601f82011682018060405250810190610a1d9190612fb2565b9050610a51858584818110610a3557610a34612fdf565b5b9050602002016020810190610a4a919061300e565b8483611436565b8160010191505061096f565b50505050565b60008060009054906101000a900473ffffffffffffffffffffffffffffffffffffffff16905090565b610a94612353565b60d5838390501015610adb576040517f08c379a0000000000000000000000000000000000000000000000000000000008152600401610ad2906130be565b60405180910390fd5b6000838360016015610aed919061310d565b90601592610afd9392919061314b565b90610b0891906131ca565b60f81c60ff166001811115610b2057610b1f6128e9565b5b9050600080600080600080898960159060d592610b3f9392919061314b565b810190610b4c9190613229565b95509550955095509550955060008a8a60d5908092610b6d9392919061314b565b8080601f016020809104026020016040519081016040528093929190818152602001838380828437600081840152601f19601f820116905080830192505050505050509050604051806101000160405280896001811115610bd157610bd06128e9565b5b81526020018865ffffffffffff1681526020018765ffffffffffff1681526020018673ffffffffffffffffffffffffffffffffffffffff1681526020018573ffffffffffffffffffffffffffffffffffffffff1681526020018481526020018363ffffffff168152602001828152509850505050505050505092915050565b610c586115e4565b610c6484848484611674565b50505050565b7f000000000000000000000000000000000000000000000000000000000000000081565b600360009054906101000a900473ffffffffffffffffffffffffffffffffffffffff1681565b610cbc6113af565b7f000000000000000000000000000000000000000000000000000000000000000073ffffffffffffffffffffffffffffffffffffffff1663bb9fe6bf6040518163ffffffff1660e01b8152600401600060405180830381600087803b158015610d2457600080fd5b505af1158015610d38573d6000803e3d6000fd5b50505050565b610d466113af565b7f000000000000000000000000000000000000000000000000000000000000000073ffffffffffffffffffffffffffffffffffffffff1663c23a5cea826040518263ffffffff1660e01b8152600401610d9f91906132b6565b600060405180830381600087803b158015610db957600080fd5b505af1158015610dcd573d6000803e3d6000fd5b5050505050565b60007f000000000000000000000000000000000000000000000000000000000000000073ffffffffffffffffffffffffffffffffffffffff166370a08231306040518263ffffffff1660e01b8152600401610e2f919061257e565b602060405180830381865afa158015610e4c573d6000803e3d6000fd5b505050506040513d601f19601f82011682018060405250810190610e709190612fb2565b905090565b60015481565b6000610e8689611a94565b46308a8a8a8a8a8a8a604051602001610ea89a999897969594939291906132ef565b60405160208183030381529060405280519060200120905098975050505050505050565b7f000000000000000000000000000000000000000000000000000000000000000073ffffffffffffffffffffffffffffffffffffffff1663b760faf934306040518363ffffffff1660e01b8152600401610f26919061257e565b6000604051808303818588803b158015610f3f57600080fd5b505af1158015610f53573d6000803e3d6000fd5b5050505050565b610f626113af565b600047905060008103610fa1576040517fd17e42bf00000000000000000000000000000000000000000000000000000000815260040160405180910390fd5b600073ffffffffffffffffffffffffffffffffffffffff168273ffffffffffffffffffffffffffffffffffffffff1603611007576040517f92bc9df300000000000000000000000000000000000000000000000000000000815260040160405180910390fd5b600080600080600085875af190508061104c576040517fcdf0648900000000000000000000000000000000000000000000000000000000815260040160405180910390fd5b505050565b6110596113af565b62030d40811115611096576040517ffb57d4ea00000000000000000000000000000000000000000000000000000000815260040160405180910390fd5b60006001549050816001553373ffffffffffffffffffffffffffffffffffffffff1682827f303a4cca6d7dba1a29764b1c0aabac67516608dd37f88e064abc64c24b9c274360405160405180910390a45050565b6110f26113af565b600073ffffffffffffffffffffffffffffffffffffffff168173ffffffffffffffffffffffffffffffffffffffff1603611158576040517fc9dd43d800000000000000000000000000000000000000000000000000000000815260040160405180910390fd5b6000600360009054906101000a900473ffffffffffffffffffffffffffffffffffffffff169050816003553373ffffffffffffffffffffffffffffffffffffffff168273ffffffffffffffffffffffffffffffffffffffff168273ffffffffffffffffffffffffffffffffffffffff167fff179728e4df4b0421c7de2106b1968d0604e1670493f8da3f907f2d020bb6d560405160405180910390a45050565b6112006113af565b600073ffffffffffffffffffffffffffffffffffffffff168173ffffffffffffffffffffffffffffffffffffffff16036112725760006040517f1e4fbdf7000000000000000000000000000000000000000000000000000000008152600401611269919061257e565b60405180910390fd5b61127b81611520565b50565b6060600061128a6115e4565b611295858585611b3e565b91509150935093915050565b6112a96113af565b600073ffffffffffffffffffffffffffffffffffffffff168173ffffffffffffffffffffffffffffffffffffffff160361130f576040517f8fc6a93100000000000000000000000000000000000000000000000000000000815260040160405180910390fd5b6000600260009054906101000a900473ffffffffffffffffffffffffffffffffffffffff169050816002553373ffffffffffffffffffffffffffffffffffffffff168273ffffffffffffffffffffffffffffffffffffffff168273ffffffffffffffffffffffffffffffffffffffff167fe1f62c0e6d7bb6d470828565415bf2e87dbfea50e52d2d753788b529bd0c6d6260405160405180910390a45050565b6113b7611f36565b73ffffffffffffffffffffffffffffffffffffffff166113d5610a63565b73ffffffffffffffffffffffffffffffffffffffff1614611434576113f8611f36565b6040517f118cdaa700000000000000000000000000000000000000000000000000000000815260040161142b919061257e565b60405180910390fd5b565b600073ffffffffffffffffffffffffffffffffffffffff168273ffffffffffffffffffffffffffffffffffffffff160361149c576040517f92bc9df300000000000000000000000000000000000000000000000000000000815260040160405180910390fd5b8273ffffffffffffffffffffffffffffffffffffffff1663a9059cbb83836040518363ffffffff1660e01b81526004016114d7929190613392565b6020604051808303816000875af11580156114f6573d6000803e3d6000fd5b505050506040513d601f19601f8201168201806040525081019061151a91906133f3565b50505050565b60008060009054906101000a900473ffffffffffffffffffffffffffffffffffffffff169050816000806101000a81548173ffffffffffffffffffffffffffffffffffffffff021916908373ffffffffffffffffffffffffffffffffffffffff1602179055508173ffffffffffffffffffffffffffffffffffffffff168173ffffffffffffffffffffffffffffffffffffffff167f8be0079c531659141344cd1fd0a4f28419497f9722a3daafe3b4186f6b6457e060405160405180910390a35050565b7f000000000000000000000000000000000000000000000000000000000000000073ffffffffffffffffffffffffffffffffffffffff163373ffffffffffffffffffffffffffffffffffffffff1614611672576040517f08c379a00000000000000000000000000000000000000000000000000000000081526004016116699061346c565b60405180910390fd5b565b6000806000806000806000898981019061168e919061348c565b965096509650965096509650965060008390506001808111156116b4576116b36128e9565b5b8560018111156116c7576116c66128e9565b5b148015611714575073eeeeeeeeeeeeeeeeeeeeeeeeeeeeeeeeeeeeeeee73ffffffffffffffffffffffffffffffffffffffff168673ffffffffffffffffffffffffffffffffffffffff1614155b801561174d5750600073ffffffffffffffffffffffffffffffffffffffff168673ffffffffffffffffffffffffffffffffffffffff1614155b1561176e57600061175e8888611f3e565b90506000811461176c578091505b505b600080670de0b6b3a7640000833a600154611789919061352e565b8d6117949190613570565b61179e919061352e565b6117a891906135d3565b9050620f424063ffffffff168563ffffffff16826117c6919061352e565b6117d091906135d3565b9150506002808111156117e6576117e56128e9565b5b8d60028111156117f9576117f86128e9565b5b14611914578773ffffffffffffffffffffffffffffffffffffffff166323b872dd8a600360009054906101000a900473ffffffffffffffffffffffffffffffffffffffff16846040518463ffffffff1660e01b815260040161185d93929190613604565b6020604051808303816000875af115801561187c573d6000803e3d6000fd5b505050506040513d601f19601f820116820180604052508101906118a091906133f3565b50808873ffffffffffffffffffffffffffffffffffffffff168a73ffffffffffffffffffffffffffffffffffffffff167f7c405b9cef9e824a5cf31a09e7b8810d01d9db34ee384388f33b438608807e1a8a8888888d60405161190795949392919061363b565b60405180910390a4611a85565b60006323b872dd60e01b8a600360009054906101000a900473ffffffffffffffffffffffffffffffffffffffff168460405160240161195593929190613604565b604051602081830303815290604052907bffffffffffffffffffffffffffffffffffffffffffffffffffffffff19166020820180517bffffffffffffffffffffffffffffffffffffffffffffffffffffffff8381831617835250505050905060008973ffffffffffffffffffffffffffffffffffffffff16826040516119db91906136ca565b6000604051808303816000865af19150503d8060008114611a18576040519150601f19603f3d011682016040523d82523d6000602084013e611a1d565b606091505b5050905080611a8257828b73ffffffffffffffffffffffffffffffffffffffff168b73ffffffffffffffffffffffffffffffffffffffff167f41614445ea2ab6d87c504bdfc83cb5cb840e7219aa772383baff1ab0dd2a311360405160405180910390a45b50505b50505050505050505050505050565b60606000611aa183611fcb565b9050808360200135848060400190611ab991906136f0565b604051611ac7929190613787565b6040518091039020858060600190611adf91906136f0565b604051611aed929190613787565b604051809103902086608001358760a001358860c001358960e001358a6101000135604051602001611b27999897969594939291906137a0565b604051602081830303815290604052915050919050565b606060006001548560a0013511611b8a576040517f08c379a0000000000000000000000000000000000000000000000000000000008152600401611b8190613879565b60405180910390fd5b6000611ba586806101200190611ba091906136f0565b610a8c565b905060418160e001515114611bef576040517f08c379a0000000000000000000000000000000000000000000000000000000008152600401611be69061390b565b60405180910390fd5b6000611c1d87836000015184602001518560400151866060015187608001518860a001518960c00151610e7b565b9050604051806020016040528060008152509350611c508260e00151611c4283611fdb565b61201190919063ffffffff16565b73ffffffffffffffffffffffffffffffffffffffff16600260009054906101000a900473ffffffffffffffffffffffffffffffffffffffff1673ffffffffffffffffffffffffffffffffffffffff1614611cc45783611cb960018460200151856040015161203d565b935093505050611f2e565b6000670de0b6b3a76400008360a00151611cdd8a612076565b611ce7919061352e565b611cf191906135d3565b905060008103611d36576040517f08c379a0000000000000000000000000000000000000000000000000000000008152600401611d2d9061399d565b60405180910390fd5b621e84808360c0015163ffffffff161115611d86576040517f08c379a0000000000000000000000000000000000000000000000000000000008152600401611d7d90613a2f565b60405180910390fd5b620f42408360c0015163ffffffff161015611dd6576040517f08c379a0000000000000000000000000000000000000000000000000000000008152600401611dcd90613ac1565b60405180910390fd5b620f424063ffffffff168360c0015163ffffffff1682611df6919061352e565b611e0091906135d3565b836060015173ffffffffffffffffffffffffffffffffffffffff166370a08231611e298b611fcb565b6040518263ffffffff1660e01b8152600401611e45919061257e565b602060405180830381865afa158015611e62573d6000803e3d6000fd5b505050506040513d601f19601f82011682018060405250810190611e869190612fb2565b1015611ec7576040517f08c379a0000000000000000000000000000000000000000000000000000000008152600401611ebe90613b53565b60405180910390fd5b611ed088611fcb565b8360600151846080015185600001518660a001518760c001518c604051602001611f009796959493929190613b73565b604051602081830303815290604052945084611f2660008560200151866040015161203d565b945094505050505b935093915050565b600033905090565b60008173ffffffffffffffffffffffffffffffffffffffff16637f02a712846040518263ffffffff1660e01b8152600401611f79919061257e565b602060405180830381865afa925050508015611fb357506040513d601f19601f82011682018060405250810190611fb09190612fb2565b60015b611fc05760009050611fc5565b809150505b92915050565b6000808235905080915050919050565b60007f19457468657265756d205369676e6564204d6573736167653a0a33320000000060005281601c52603c6000209050919050565b600080600080612021868661209f565b92509250925061203182826120fb565b82935050505092915050565b600060d08265ffffffffffff16901b60a08465ffffffffffff16901b85612065576000612068565b60015b60ff16171790509392505050565b6000806001548360c001358460a00135856080013501010190508260e001358102915050919050565b600080600060418451036120e45760008060006020870151925060408701519150606087015160001a90506120d68882858561225f565b9550955095505050506120f4565b60006002855160001b9250925092505b9250925092565b6000600381111561210f5761210e6128e9565b5b826003811115612122576121216128e9565b5b031561225b576001600381111561213c5761213b6128e9565b5b82600381111561214f5761214e6128e9565b5b03612186576040517ff645eedf00000000000000000000000000000000000000000000000000000000815260040160405180910390fd5b6002600381111561219a576121996128e9565b5b8260038111156121ad576121ac6128e9565b5b036121f2578060001c6040517ffce698f70000000000000000000000000000000000000000000000000000000081526004016121e99190612405565b60405180910390fd5b600380811115612205576122046128e9565b5b826003811115612218576122176128e9565b5b0361225a57806040517fd78bce0c0000000000000000000000000000000000000000000000000000000081526004016122519190612db1565b60405180910390fd5b5b5050565b60008060007f7fffffffffffffffffffffffffffffff5d576e7357a4501ddfe92f46681b20a08460001c111561229f576000600385925092509250612349565b6000600188888888604051600081526020016040526040516122c49493929190613bfe565b6020604051602081039080840390855afa1580156122e6573d6000803e3d6000fd5b505050602060405103519050600073ffffffffffffffffffffffffffffffffffffffff168173ffffffffffffffffffffffffffffffffffffffff160361233a57600060016000801b93509350935050612349565b8060008060001b935093509350505b9450945094915050565b60405180610100016040528060006001811115612373576123726128e9565b5b8152602001600065ffffffffffff168152602001600065ffffffffffff168152602001600073ffffffffffffffffffffffffffffffffffffffff168152602001600073ffffffffffffffffffffffffffffffffffffffff16815260200160008152602001600063ffffffff168152602001606081525090565b6000819050919050565b6123ff816123ec565b82525050565b600060208201905061241a60008301846123f6565b92915050565b600080fd5b600080fd5b600063ffffffff82169050919050565b6124438161242a565b811461244e57600080fd5b50565b6000813590506124608161243a565b92915050565b60006020828403121561247c5761247b612420565b5b600061248a84828501612451565b91505092915050565b600073ffffffffffffffffffffffffffffffffffffffff82169050919050565b60006124be82612493565b9050919050565b6124ce816124b3565b81146124d957600080fd5b50565b6000813590506124eb816124c5565b92915050565b6124fa816123ec565b811461250557600080fd5b50565b600081359050612517816124f1565b92915050565b6000806040838503121561253457612533612420565b5b6000612542858286016124dc565b925050602061255385828601612508565b9150509250929050565b600061256882612493565b9050919050565b6125788161255d565b82525050565b6000602082019050612593600083018461256f565b92915050565b60006125a48261255d565b9050919050565b6125b481612599565b81146125bf57600080fd5b50565b6000813590506125d1816125ab565b92915050565b6125e08161255d565b81146125eb57600080fd5b50565b6000813590506125fd816125d7565b92915050565b60008060006060848603121561261c5761261b612420565b5b600061262a868287016125c2565b935050602061263b868287016125ee565b925050604061264c86828701612508565b9150509250925092565b6000806040838503121561266d5761266c612420565b5b600061267b858286016125c2565b925050602061268c858286016125ee565b9150509250929050565b600080fd5b600080fd5b600080fd5b60008083601f8401126126bb576126ba612696565b5b8235905067ffffffffffffffff8111156126d8576126d761269b565b5b6020830191508360208202830111156126f4576126f36126a0565b5b9250929050565b60008083601f84011261271157612710612696565b5b8235905067ffffffffffffffff81111561272e5761272d61269b565b5b60208301915083602082028301111561274a576127496126a0565b5b9250929050565b60008060008060006060868803121561276d5761276c612420565b5b600086013567ffffffffffffffff81111561278b5761278a612425565b5b612797888289016126a5565b955095505060206127aa888289016125ee565b935050604086013567ffffffffffffffff8111156127cb576127ca612425565b5b6127d7888289016126fb565b92509250509295509295909350565b6000806000604084860312156127ff576127fe612420565b5b600084013567ffffffffffffffff81111561281d5761281c612425565b5b612829868287016126a5565b9350935050602061283c868287016125ee565b9150509250925092565b60008083601f84011261285c5761285b612696565b5b8235905067ffffffffffffffff8111156128795761287861269b565b5b602083019150836001820283011115612895576128946126a0565b5b9250929050565b600080602083850312156128b3576128b2612420565b5b600083013567ffffffffffffffff8111156128d1576128d0612425565b5b6128dd85828601612846565b92509250509250929050565b7f4e487b7100000000000000000000000000000000000000000000000000000000600052602160045260246000fd5b60028110612929576129286128e9565b5b50565b600081905061293a82612918565b919050565b600061294a8261292c565b9050919050565b61295a8161293f565b82525050565b600065ffffffffffff82169050919050565b61297b81612960565b82525050565b61298a8161255d565b82525050565b612999816123ec565b82525050565b6129a88161242a565b82525050565b600081519050919050565b600082825260208201905092915050565b60005b838110156129e85780820151818401526020810190506129cd565b60008484015250505050565b6000601f19601f8301169050919050565b6000612a10826129ae565b612a1a81856129b9565b9350612a2a8185602086016129ca565b612a33816129f4565b840191505092915050565b600061010083016000830151612a576000860182612951565b506020830151612a6a6020860182612972565b506040830151612a7d6040860182612972565b506060830151612a906060860182612981565b506080830151612aa36080860182612981565b5060a0830151612ab660a0860182612990565b5060c0830151612ac960c086018261299f565b5060e083015184820360e0860152612ae18282612a05565b9150508091505092915050565b60006020820190508181036000830152612b088184612a3e565b905092915050565b60038110612b1d57600080fd5b50565b600081359050612b2f81612b10565b92915050565b60008060008060608587031215612b4f57612b4e612420565b5b6000612b5d87828801612b20565b945050602085013567ffffffffffffffff811115612b7e57612b7d612425565b5b612b8a87828801612846565b93509350506040612b9d87828801612508565b91505092959194509250565b6000819050919050565b6000612bce612bc9612bc484612493565b612ba9565b612493565b9050919050565b6000612be082612bb3565b9050919050565b6000612bf282612bd5565b9050919050565b612c0281612be7565b82525050565b6000602082019050612c1d6000830184612bf9565b92915050565b600060208284031215612c3957612c38612420565b5b6000612c47848285016124dc565b91505092915050565b600080fd5b60006101608284031215612c6c57612c6b612c50565b5b81905092915050565b60028110612c8257600080fd5b50565b600081359050612c9481612c75565b92915050565b612ca381612960565b8114612cae57600080fd5b50565b600081359050612cc081612c9a565b92915050565b600080600080600080600080610100898b031215612ce757612ce6612420565b5b600089013567ffffffffffffffff811115612d0557612d04612425565b5b612d118b828c01612c55565b9850506020612d228b828c01612c85565b9750506040612d338b828c01612cb1565b9650506060612d448b828c01612cb1565b9550506080612d558b828c016125ee565b94505060a0612d668b828c016125ee565b93505060c0612d778b828c01612508565b92505060e0612d888b828c01612451565b9150509295985092959890939650565b6000819050919050565b612dab81612d98565b82525050565b6000602082019050612dc66000830184612da2565b92915050565b600060208284031215612de257612de1612420565b5b6000612df0848285016125ee565b91505092915050565b600060208284031215612e0f57612e0e612420565b5b6000612e1d84828501612508565b91505092915050565b612e2f81612d98565b8114612e3a57600080fd5b50565b600081359050612e4c81612e26565b92915050565b600080600060608486031215612e6b57612e6a612420565b5b600084013567ffffffffffffffff811115612e8957612e88612425565b5b612e9586828701612c55565b9350506020612ea686828701612e3d565b9250506040612eb786828701612508565b9150509250925092565b600082825260208201905092915050565b6000612edd826129ae565b612ee78185612ec1565b9350612ef78185602086016129ca565b612f00816129f4565b840191505092915050565b60006040820190508181036000830152612f258185612ed2565b9050612f3460208301846123f6565b9392505050565b612f448161242a565b82525050565b6000602082019050612f5f6000830184612f3b565b92915050565b612f6e816124b3565b82525050565b6000604082019050612f896000830185612f65565b612f9660208301846123f6565b9392505050565b600081519050612fac816124f1565b92915050565b600060208284031215612fc857612fc7612420565b5b6000612fd684828501612f9d565b91505092915050565b7f4e487b7100000000000000000000000000000000000000000000000000000000600052603260045260246000fd5b60006020828403121561302457613023612420565b5b6000613032848285016125c2565b91505092915050565b600082825260208201905092915050565b7f4254504d3a20496e76616c6964206c656e67746820666f72207061796d61737460008201527f6572416e64446174610000000000000000000000000000000000000000000000602082015250565b60006130a860298361303b565b91506130b38261304c565b604082019050919050565b600060208201905081810360008301526130d78161309b565b9050919050565b7f4e487b7100000000000000000000000000000000000000000000000000000000600052601160045260246000fd5b6000613118826123ec565b9150613123836123ec565b925082820390508181111561313b5761313a6130de565b5b92915050565b600080fd5b600080fd5b6000808585111561315f5761315e613141565b5b838611156131705761316f613146565b5b6001850283019150848603905094509492505050565b600082905092915050565b60007fff0000000000000000000000000000000000000000000000000000000000000082169050919050565b600082821b905092915050565b60006131d68383613186565b826131e18135613191565b925060018210156132215761321c7fff00000000000000000000000000000000000000000000000000000000000000836001036008026131bd565b831692505b505092915050565b60008060008060008060c0878903121561324657613245612420565b5b600061325489828a01612cb1565b965050602061326589828a01612cb1565b955050604061327689828a016124dc565b945050606061328789828a016124dc565b935050608061329889828a01612508565b92505060a06132a989828a01612451565b9150509295509295509295565b60006020820190506132cb6000830184612f65565b92915050565b6132da8161293f565b82525050565b6132e981612960565b82525050565b600061014082019050818103600083015261330a818d612ed2565b9050613319602083018c6123f6565b613326604083018b61256f565b613333606083018a6132d1565b61334060808301896132e0565b61334d60a08301886132e0565b61335a60c083018761256f565b61336760e083018661256f565b6133756101008301856123f6565b613383610120830184612f3b565b9b9a5050505050505050505050565b60006040820190506133a7600083018561256f565b6133b460208301846123f6565b9392505050565b60008115159050919050565b6133d0816133bb565b81146133db57600080fd5b50565b6000815190506133ed816133c7565b92915050565b60006020828403121561340957613408612420565b5b6000613417848285016133de565b91505092915050565b7f53656e646572206e6f7420456e747279506f696e740000000000000000000000600082015250565b600061345660158361303b565b915061346182613420565b602082019050919050565b6000602082019050818103600083015261348581613449565b9050919050565b600080600080600080600060e0888a0312156134ab576134aa612420565b5b60006134b98a828b016124dc565b97505060206134ca8a828b016125c2565b96505060406134db8a828b016124dc565b95505060606134ec8a828b01612c85565b94505060806134fd8a828b01612508565b93505060a061350e8a828b01612451565b92505060c061351f8a828b01612e3d565b91505092959891949750929550565b6000613539826123ec565b9150613544836123ec565b9250828202613552816123ec565b91508282048414831517613569576135686130de565b5b5092915050565b600061357b826123ec565b9150613586836123ec565b925082820190508082111561359e5761359d6130de565b5b92915050565b7f4e487b7100000000000000000000000000000000000000000000000000000000600052601260045260246000fd5b60006135de826123ec565b91506135e9836123ec565b9250826135f9576135f86135a4565b5b828204905092915050565b6000606082019050613619600083018661256f565b613626602083018561256f565b61363360408301846123f6565b949350505050565b600060a082019050613650600083018861256f565b61365d6020830187612f3b565b61366a6040830186612da2565b61367760608301856123f6565b61368460808301846132d1565b9695505050505050565b600081905092915050565b60006136a4826129ae565b6136ae818561368e565b93506136be8185602086016129ca565b80840191505092915050565b60006136d68284613699565b915081905092915050565b600080fd5b600080fd5b600080fd5b6000808335600160200384360303811261370d5761370c6136e1565b5b80840192508235915067ffffffffffffffff82111561372f5761372e6136e6565b5b60208301925060018202360383131561374b5761374a6136eb565b5b509250929050565b82818337600083830152505050565b600061376e838561368e565b935061377b838584613753565b82840190509392505050565b6000613794828486613762565b91508190509392505050565b6000610120820190506137b6600083018c61256f565b6137c3602083018b6123f6565b6137d0604083018a612da2565b6137dd6060830189612da2565b6137ea60808301886123f6565b6137f760a08301876123f6565b61380460c08301866123f6565b61381160e08301856123f6565b61381f6101008301846123f6565b9a9950505050505050505050565b7f4254504d3a2067617320746f6f206c6f7720666f7220706f73744f7000000000600082015250565b6000613863601c8361303b565b915061386e8261382d565b602082019050919050565b6000602082019050818103600083015261389281613856565b9050919050565b7f4254504d3a20696e76616c6964207369676e6174757265206c656e677468206960008201527f6e207061796d6173746572416e64446174610000000000000000000000000000602082015250565b60006138f560328361303b565b915061390082613899565b604082019050919050565b60006020820190508181036000830152613924816138e8565b9050919050565b7f4254504d3a2063616c63756c6174656420746f6b656e2063686172676520696e60008201527f76616c6964000000000000000000000000000000000000000000000000000000602082015250565b600061398760258361303b565b91506139928261392b565b604082019050919050565b600060208201905081810360008301526139b68161397a565b9050919050565b7f4254504d3a207072696365206d61726b75702070657263656e7461676520746f60008201527f6f20686967680000000000000000000000000000000000000000000000000000602082015250565b6000613a1960268361303b565b9150613a24826139bd565b604082019050919050565b60006020820190508181036000830152613a4881613a0c565b9050919050565b7f4254504d3a207072696365206d61726b75702070657263656e7461676520746f60008201527f6f206c6f77000000000000000000000000000000000000000000000000000000602082015250565b6000613aab60258361303b565b9150613ab682613a4f565b604082019050919050565b60006020820190508181036000830152613ada81613a9e565b9050919050565b7f4254504d3a206163636f756e7420646f6573206e6f74206861766520656e6f7560008201527f676820746f6b656e2062616c616e636500000000000000000000000000000000602082015250565b6000613b3d60308361303b565b9150613b4882613ae1565b604082019050919050565b60006020820190508181036000830152613b6c81613b30565b9050919050565b600060e082019050613b88600083018a61256f565b613b95602083018961256f565b613ba2604083018861256f565b613baf60608301876132d1565b613bbc60808301866123f6565b613bc960a0830185612f3b565b613bd660c0830184612da2565b98975050505050505050565b600060ff82169050919050565b613bf881613be2565b82525050565b6000608082019050613c136000830187612da2565b613c206020830186613bef565b613c2d6040830185612da2565b613c3a6060830184612da2565b9594505050505056fea2646970667358221220f7e23fe169906b6c1f004e69486176a7ee2f9758f992452bf4ace0d72459df4c64736f6c63430008140033","opcodes":"PUSH1 0xA0 PUSH1 0x40 MSTORE PUSH2 0xAFC8 PUSH1 0x1 SSTORE PUSH1 0x40 MLOAD PUSH3 0x40FD CODESIZE SUB DUP1 PUSH3 0x40FD DUP4 CODECOPY DUP2 DUP2 ADD PUSH1 0x40 MSTORE DUP2 ADD SWAP1 PUSH3 0x2F SWAP2 SWAP1 PUSH3 0x3A6 JUMP JUMPDEST DUP2 ORIGIN PUSH1 0x0 PUSH20 0xFFFFFFFFFFFFFFFFFFFFFFFFFFFFFFFFFFFFFFFF AND DUP2 PUSH20 0xFFFFFFFFFFFFFFFFFFFFFFFFFFFFFFFFFFFFFFFF AND SUB PUSH3 0xA6 JUMPI PUSH1 0x0 PUSH1 0x40 MLOAD PUSH32 0x1E4FBDF700000000000000000000000000000000000000000000000000000000 DUP2 MSTORE PUSH1 0x4 ADD PUSH3 0x9D SWAP2 SWAP1 PUSH3 0x413 JUMP JUMPDEST PUSH1 0x40 MLOAD DUP1 SWAP2 SUB SWAP1 REVERT JUMPDEST PUSH3 0xB7 DUP2 PUSH3 0x233 PUSH1 0x20 SHL PUSH1 0x20 SHR JUMP JUMPDEST POP DUP1 PUSH20 0xFFFFFFFFFFFFFFFFFFFFFFFFFFFFFFFFFFFFFFFF AND PUSH1 0x80 DUP2 PUSH20 0xFFFFFFFFFFFFFFFFFFFFFFFFFFFFFFFFFFFFFFFF AND DUP2 MSTORE POP POP POP PUSH1 0x0 PUSH20 0xFFFFFFFFFFFFFFFFFFFFFFFFFFFFFFFFFFFFFFFF AND DUP4 PUSH20 0xFFFFFFFFFFFFFFFFFFFFFFFFFFFFFFFFFFFFFFFF AND SUB PUSH3 0x154 JUMPI PUSH1 0x40 MLOAD PUSH32 0x9B15E16F00000000000000000000000000000000000000000000000000000000 DUP2 MSTORE PUSH1 0x4 ADD PUSH1 0x40 MLOAD DUP1 SWAP2 SUB SWAP1 REVERT JUMPDEST PUSH1 0x0 PUSH20 0xFFFFFFFFFFFFFFFFFFFFFFFFFFFFFFFFFFFFFFFF AND DUP3 PUSH20 0xFFFFFFFFFFFFFFFFFFFFFFFFFFFFFFFFFFFFFFFF AND SUB PUSH3 0x1BB JUMPI PUSH1 0x40 MLOAD PUSH32 0x245D23E400000000000000000000000000000000000000000000000000000000 DUP2 MSTORE PUSH1 0x4 ADD PUSH1 0x40 MLOAD DUP1 SWAP2 SUB SWAP1 REVERT JUMPDEST PUSH1 0x0 PUSH20 0xFFFFFFFFFFFFFFFFFFFFFFFFFFFFFFFFFFFFFFFF AND DUP2 PUSH20 0xFFFFFFFFFFFFFFFFFFFFFFFFFFFFFFFFFFFFFFFF AND SUB PUSH3 0x222 JUMPI PUSH1 0x40 MLOAD PUSH32 0x8FC6A93100000000000000000000000000000000000000000000000000000000 DUP2 MSTORE PUSH1 0x4 ADD PUSH1 0x40 MLOAD DUP1 SWAP2 SUB SWAP1 REVERT JUMPDEST DUP1 PUSH1 0x2 SSTORE ADDRESS PUSH1 0x3 SSTORE POP POP POP PUSH3 0x430 JUMP JUMPDEST PUSH1 0x0 DUP1 PUSH1 0x0 SWAP1 SLOAD SWAP1 PUSH2 0x100 EXP SWAP1 DIV PUSH20 0xFFFFFFFFFFFFFFFFFFFFFFFFFFFFFFFFFFFFFFFF AND SWAP1 POP DUP2 PUSH1 0x0 DUP1 PUSH2 0x100 EXP DUP2 SLOAD DUP2 PUSH20 0xFFFFFFFFFFFFFFFFFFFFFFFFFFFFFFFFFFFFFFFF MUL NOT AND SWAP1 DUP4 PUSH20 0xFFFFFFFFFFFFFFFFFFFFFFFFFFFFFFFFFFFFFFFF AND MUL OR SWAP1 SSTORE POP DUP2 PUSH20 0xFFFFFFFFFFFFFFFFFFFFFFFFFFFFFFFFFFFFFFFF AND DUP2 PUSH20 0xFFFFFFFFFFFFFFFFFFFFFFFFFFFFFFFFFFFFFFFF AND PUSH32 0x8BE0079C531659141344CD1FD0A4F28419497F9722A3DAAFE3B4186F6B6457E0 PUSH1 0x40 MLOAD PUSH1 0x40 MLOAD DUP1 SWAP2 SUB SWAP1 LOG3 POP POP JUMP JUMPDEST PUSH1 0x0 DUP1 REVERT JUMPDEST PUSH1 0x0 PUSH20 0xFFFFFFFFFFFFFFFFFFFFFFFFFFFFFFFFFFFFFFFF DUP3 AND SWAP1 POP SWAP2 SWAP1 POP JUMP JUMPDEST PUSH1 0x0 PUSH3 0x329 DUP3 PUSH3 0x2FC JUMP JUMPDEST SWAP1 POP SWAP2 SWAP1 POP JUMP JUMPDEST PUSH3 0x33B DUP2 PUSH3 0x31C JUMP JUMPDEST DUP2 EQ PUSH3 0x347 JUMPI PUSH1 0x0 DUP1 REVERT JUMPDEST POP JUMP JUMPDEST PUSH1 0x0 DUP2 MLOAD SWAP1 POP PUSH3 0x35B DUP2 PUSH3 0x330 JUMP JUMPDEST SWAP3 SWAP2 POP POP JUMP JUMPDEST PUSH1 0x0 PUSH3 0x36E DUP3 PUSH3 0x31C JUMP JUMPDEST SWAP1 POP SWAP2 SWAP1 POP JUMP JUMPDEST PUSH3 0x380 DUP2 PUSH3 0x361 JUMP JUMPDEST DUP2 EQ PUSH3 0x38C JUMPI PUSH1 0x0 DUP1 REVERT JUMPDEST POP JUMP JUMPDEST PUSH1 0x0 DUP2 MLOAD SWAP1 POP PUSH3 0x3A0 DUP2 PUSH3 0x375 JUMP JUMPDEST SWAP3 SWAP2 POP POP JUMP JUMPDEST PUSH1 0x0 DUP1 PUSH1 0x0 PUSH1 0x60 DUP5 DUP7 SUB SLT ISZERO PUSH3 0x3C2 JUMPI PUSH3 0x3C1 PUSH3 0x2F7 JUMP JUMPDEST JUMPDEST PUSH1 0x0 PUSH3 0x3D2 DUP7 DUP3 DUP8 ADD PUSH3 0x34A JUMP JUMPDEST SWAP4 POP POP PUSH1 0x20 PUSH3 0x3E5 DUP7 DUP3 DUP8 ADD PUSH3 0x38F JUMP JUMPDEST SWAP3 POP POP PUSH1 0x40 PUSH3 0x3F8 DUP7 DUP3 DUP8 ADD PUSH3 0x34A JUMP JUMPDEST SWAP2 POP POP SWAP3 POP SWAP3 POP SWAP3 JUMP JUMPDEST PUSH3 0x40D DUP2 PUSH3 0x31C JUMP JUMPDEST DUP3 MSTORE POP POP JUMP JUMPDEST PUSH1 0x0 PUSH1 0x20 DUP3 ADD SWAP1 POP PUSH3 0x42A PUSH1 0x0 DUP4 ADD DUP5 PUSH3 0x402 JUMP JUMPDEST SWAP3 SWAP2 POP POP JUMP JUMPDEST PUSH1 0x80 MLOAD PUSH2 0x3C79 PUSH3 0x484 PUSH1 0x0 CODECOPY PUSH1 0x0 DUP2 DUP2 PUSH2 0x5A4 ADD MSTORE DUP2 DUP2 PUSH2 0x63B ADD MSTORE DUP2 DUP2 PUSH2 0x778 ADD MSTORE DUP2 DUP2 PUSH2 0xC6C ADD MSTORE DUP2 DUP2 PUSH2 0xCBE ADD MSTORE DUP2 DUP2 PUSH2 0xD48 ADD MSTORE DUP2 DUP2 PUSH2 0xDD8 ADD MSTORE DUP2 DUP2 PUSH2 0xECE ADD MSTORE PUSH2 0x15E6 ADD MSTORE PUSH2 0x3C79 PUSH1 0x0 RETURN INVALID PUSH1 0x80 PUSH1 0x40 MSTORE PUSH1 0x4 CALLDATASIZE LT PUSH2 0x185 JUMPI PUSH1 0x0 CALLDATALOAD PUSH1 0xE0 SHR DUP1 PUSH4 0xB3F00674 GT PUSH2 0xD1 JUMPI DUP1 PUSH4 0xD0E30DB0 GT PUSH2 0x8A JUMPI DUP1 PUSH4 0xEFDCD974 GT PUSH2 0x64 JUMPI DUP1 PUSH4 0xEFDCD974 EQ PUSH2 0x4FB JUMPI DUP1 PUSH4 0xF2FDE38B EQ PUSH2 0x517 JUMPI DUP1 PUSH4 0xF465C77E EQ PUSH2 0x540 JUMPI DUP1 PUSH4 0xF5CBA98C EQ PUSH2 0x57E JUMPI PUSH2 0x1DA JUMP JUMPDEST DUP1 PUSH4 0xD0E30DB0 EQ PUSH2 0x4B9 JUMPI DUP1 PUSH4 0xD9F66DB1 EQ PUSH2 0x4C3 JUMPI DUP1 PUSH4 0xDEEB3874 EQ PUSH2 0x4DF JUMPI PUSH2 0x1DA JUMP JUMPDEST DUP1 PUSH4 0xB3F00674 EQ PUSH2 0x3BB JUMPI DUP1 PUSH4 0xBB9FE6BF EQ PUSH2 0x3E6 JUMPI DUP1 PUSH4 0xC23A5CEA EQ PUSH2 0x3FD JUMPI DUP1 PUSH4 0xC399EC88 EQ PUSH2 0x426 JUMPI DUP1 PUSH4 0xC6E7A957 EQ PUSH2 0x451 JUMPI DUP1 PUSH4 0xD0DB6F75 EQ PUSH2 0x47C JUMPI PUSH2 0x1DA JUMP JUMPDEST DUP1 PUSH4 0x617D057A GT PUSH2 0x13E JUMPI DUP1 PUSH4 0x8DA5CB5B GT PUSH2 0x118 JUMPI DUP1 PUSH4 0x8DA5CB5B EQ PUSH2 0x2FF JUMPI DUP1 PUSH4 0x94D4AD60 EQ PUSH2 0x32A JUMPI DUP1 PUSH4 0xA9A23409 EQ PUSH2 0x367 JUMPI DUP1 PUSH4 0xB0D691FE EQ PUSH2 0x390 JUMPI PUSH2 0x1DA JUMP JUMPDEST DUP1 PUSH4 0x617D057A EQ PUSH2 0x2B0 JUMPI DUP1 PUSH4 0x715018A6 EQ PUSH2 0x2CC JUMPI DUP1 PUSH4 0x78B1DA23 EQ PUSH2 0x2E3 JUMPI PUSH2 0x1DA JUMP JUMPDEST DUP1 PUSH4 0x396CB60 EQ PUSH2 0x1DF JUMPI DUP1 PUSH4 0x205C2878 EQ PUSH2 0x1FB JUMPI DUP1 PUSH4 0x23D9AC9B EQ PUSH2 0x224 JUMPI DUP1 PUSH4 0x44004CC1 EQ PUSH2 0x24F JUMPI DUP1 PUSH4 0x45499D46 EQ PUSH2 0x26B JUMPI DUP1 PUSH4 0x5DEEF2AA EQ PUSH2 0x294 JUMPI PUSH2 0x1DA JUMP JUMPDEST CALLDATASIZE PUSH2 0x1DA JUMPI CALLER PUSH20 0xFFFFFFFFFFFFFFFFFFFFFFFFFFFFFFFFFFFFFFFF AND PUSH32 0x88A5966D370B9919B20F3E2C13FF65706F196A4E32CC2C12BF57088F88525874 CALLVALUE PUSH1 0x40 MLOAD PUSH2 0x1D0 SWAP2 SWAP1 PUSH2 0x2405 JUMP JUMPDEST PUSH1 0x40 MLOAD DUP1 SWAP2 SUB SWAP1 LOG2 STOP JUMPDEST PUSH1 0x0 DUP1 REVERT JUMPDEST PUSH2 0x1F9 PUSH1 0x4 DUP1 CALLDATASIZE SUB DUP2 ADD SWAP1 PUSH2 0x1F4 SWAP2 SWAP1 PUSH2 0x2466 JUMP JUMPDEST PUSH2 0x59A JUMP JUMPDEST STOP JUMPDEST CALLVALUE DUP1 ISZERO PUSH2 0x207 JUMPI PUSH1 0x0 DUP1 REVERT JUMPDEST POP PUSH2 0x222 PUSH1 0x4 DUP1 CALLDATASIZE SUB DUP2 ADD SWAP1 PUSH2 0x21D SWAP2 SWAP1 PUSH2 0x251D JUMP JUMPDEST PUSH2 0x631 JUMP JUMPDEST STOP JUMPDEST CALLVALUE DUP1 ISZERO PUSH2 0x230 JUMPI PUSH1 0x0 DUP1 REVERT JUMPDEST POP PUSH2 0x239 PUSH2 0x6CA JUMP JUMPDEST PUSH1 0x40 MLOAD PUSH2 0x246 SWAP2 SWAP1 PUSH2 0x257E JUMP JUMPDEST PUSH1 0x40 MLOAD DUP1 SWAP2 SUB SWAP1 RETURN JUMPDEST PUSH2 0x269 PUSH1 0x4 DUP1 CALLDATASIZE SUB DUP2 ADD SWAP1 PUSH2 0x264 SWAP2 SWAP1 PUSH2 0x2603 JUMP JUMPDEST PUSH2 0x6F0 JUMP JUMPDEST STOP JUMPDEST CALLVALUE DUP1 ISZERO PUSH2 0x277 JUMPI PUSH1 0x0 DUP1 REVERT JUMPDEST POP PUSH2 0x292 PUSH1 0x4 DUP1 CALLDATASIZE SUB DUP2 ADD SWAP1 PUSH2 0x28D SWAP2 SWAP1 PUSH2 0x251D JUMP JUMPDEST PUSH2 0x708 JUMP JUMPDEST STOP JUMPDEST PUSH2 0x2AE PUSH1 0x4 DUP1 CALLDATASIZE SUB DUP2 ADD SWAP1 PUSH2 0x2A9 SWAP2 SWAP1 PUSH2 0x2656 JUMP JUMPDEST PUSH2 0x807 JUMP JUMPDEST STOP JUMPDEST PUSH2 0x2CA PUSH1 0x4 DUP1 CALLDATASIZE SUB DUP2 ADD SWAP1 PUSH2 0x2C5 SWAP2 SWAP1 PUSH2 0x2751 JUMP JUMPDEST PUSH2 0x89D JUMP JUMPDEST STOP JUMPDEST CALLVALUE DUP1 ISZERO PUSH2 0x2D8 JUMPI PUSH1 0x0 DUP1 REVERT JUMPDEST POP PUSH2 0x2E1 PUSH2 0x950 JUMP JUMPDEST STOP JUMPDEST PUSH2 0x2FD PUSH1 0x4 DUP1 CALLDATASIZE SUB DUP2 ADD SWAP1 PUSH2 0x2F8 SWAP2 SWAP1 PUSH2 0x27E6 JUMP JUMPDEST PUSH2 0x964 JUMP JUMPDEST STOP JUMPDEST CALLVALUE DUP1 ISZERO PUSH2 0x30B JUMPI PUSH1 0x0 DUP1 REVERT JUMPDEST POP PUSH2 0x314 PUSH2 0xA63 JUMP JUMPDEST PUSH1 0x40 MLOAD PUSH2 0x321 SWAP2 SWAP1 PUSH2 0x257E JUMP JUMPDEST PUSH1 0x40 MLOAD DUP1 SWAP2 SUB SWAP1 RETURN JUMPDEST CALLVALUE DUP1 ISZERO PUSH2 0x336 JUMPI PUSH1 0x0 DUP1 REVERT JUMPDEST POP PUSH2 0x351 PUSH1 0x4 DUP1 CALLDATASIZE SUB DUP2 ADD SWAP1 PUSH2 0x34C SWAP2 SWAP1 PUSH2 0x289C JUMP JUMPDEST PUSH2 0xA8C JUMP JUMPDEST PUSH1 0x40 MLOAD PUSH2 0x35E SWAP2 SWAP1 PUSH2 0x2AEE JUMP JUMPDEST PUSH1 0x40 MLOAD DUP1 SWAP2 SUB SWAP1 RETURN JUMPDEST CALLVALUE DUP1 ISZERO PUSH2 0x373 JUMPI PUSH1 0x0 DUP1 REVERT JUMPDEST POP PUSH2 0x38E PUSH1 0x4 DUP1 CALLDATASIZE SUB DUP2 ADD SWAP1 PUSH2 0x389 SWAP2 SWAP1 PUSH2 0x2B35 JUMP JUMPDEST PUSH2 0xC50 JUMP JUMPDEST STOP JUMPDEST CALLVALUE DUP1 ISZERO PUSH2 0x39C JUMPI PUSH1 0x0 DUP1 REVERT JUMPDEST POP PUSH2 0x3A5 PUSH2 0xC6A JUMP JUMPDEST PUSH1 0x40 MLOAD PUSH2 0x3B2 SWAP2 SWAP1 PUSH2 0x2C08 JUMP JUMPDEST PUSH1 0x40 MLOAD DUP1 SWAP2 SUB SWAP1 RETURN JUMPDEST CALLVALUE DUP1 ISZERO PUSH2 0x3C7 JUMPI PUSH1 0x0 DUP1 REVERT JUMPDEST POP PUSH2 0x3D0 PUSH2 0xC8E JUMP JUMPDEST PUSH1 0x40 MLOAD PUSH2 0x3DD SWAP2 SWAP1 PUSH2 0x257E JUMP JUMPDEST PUSH1 0x40 MLOAD DUP1 SWAP2 SUB SWAP1 RETURN JUMPDEST CALLVALUE DUP1 ISZERO PUSH2 0x3F2 JUMPI PUSH1 0x0 DUP1 REVERT JUMPDEST POP PUSH2 0x3FB PUSH2 0xCB4 JUMP JUMPDEST STOP JUMPDEST CALLVALUE DUP1 ISZERO PUSH2 0x409 JUMPI PUSH1 0x0 DUP1 REVERT JUMPDEST POP PUSH2 0x424 PUSH1 0x4 DUP1 CALLDATASIZE SUB DUP2 ADD SWAP1 PUSH2 0x41F SWAP2 SWAP1 PUSH2 0x2C23 JUMP JUMPDEST PUSH2 0xD3E JUMP JUMPDEST STOP JUMPDEST CALLVALUE DUP1 ISZERO PUSH2 0x432 JUMPI PUSH1 0x0 DUP1 REVERT JUMPDEST POP PUSH2 0x43B PUSH2 0xDD4 JUMP JUMPDEST PUSH1 0x40 MLOAD PUSH2 0x448 SWAP2 SWAP1 PUSH2 0x2405 JUMP JUMPDEST PUSH1 0x40 MLOAD DUP1 SWAP2 SUB SWAP1 RETURN JUMPDEST CALLVALUE DUP1 ISZERO PUSH2 0x45D JUMPI PUSH1 0x0 DUP1 REVERT JUMPDEST POP PUSH2 0x466 PUSH2 0xE75 JUMP JUMPDEST PUSH1 0x40 MLOAD PUSH2 0x473 SWAP2 SWAP1 PUSH2 0x2405 JUMP JUMPDEST PUSH1 0x40 MLOAD DUP1 SWAP2 SUB SWAP1 RETURN JUMPDEST CALLVALUE DUP1 ISZERO PUSH2 0x488 JUMPI PUSH1 0x0 DUP1 REVERT JUMPDEST POP PUSH2 0x4A3 PUSH1 0x4 DUP1 CALLDATASIZE SUB DUP2 ADD SWAP1 PUSH2 0x49E SWAP2 SWAP1 PUSH2 0x2CC6 JUMP JUMPDEST PUSH2 0xE7B JUMP JUMPDEST PUSH1 0x40 MLOAD PUSH2 0x4B0 SWAP2 SWAP1 PUSH2 0x2DB1 JUMP JUMPDEST PUSH1 0x40 MLOAD DUP1 SWAP2 SUB SWAP1 RETURN JUMPDEST PUSH2 0x4C1 PUSH2 0xECC JUMP JUMPDEST STOP JUMPDEST PUSH2 0x4DD PUSH1 0x4 DUP1 CALLDATASIZE SUB DUP2 ADD SWAP1 PUSH2 0x4D8 SWAP2 SWAP1 PUSH2 0x2DCC JUMP JUMPDEST PUSH2 0xF5A JUMP JUMPDEST STOP JUMPDEST PUSH2 0x4F9 PUSH1 0x4 DUP1 CALLDATASIZE SUB DUP2 ADD SWAP1 PUSH2 0x4F4 SWAP2 SWAP1 PUSH2 0x2DF9 JUMP JUMPDEST PUSH2 0x1051 JUMP JUMPDEST STOP JUMPDEST PUSH2 0x515 PUSH1 0x4 DUP1 CALLDATASIZE SUB DUP2 ADD SWAP1 PUSH2 0x510 SWAP2 SWAP1 PUSH2 0x2DCC JUMP JUMPDEST PUSH2 0x10EA JUMP JUMPDEST STOP JUMPDEST CALLVALUE DUP1 ISZERO PUSH2 0x523 JUMPI PUSH1 0x0 DUP1 REVERT JUMPDEST POP PUSH2 0x53E PUSH1 0x4 DUP1 CALLDATASIZE SUB DUP2 ADD SWAP1 PUSH2 0x539 SWAP2 SWAP1 PUSH2 0x2DCC JUMP JUMPDEST PUSH2 0x11F8 JUMP JUMPDEST STOP JUMPDEST CALLVALUE DUP1 ISZERO PUSH2 0x54C JUMPI PUSH1 0x0 DUP1 REVERT JUMPDEST POP PUSH2 0x567 PUSH1 0x4 DUP1 CALLDATASIZE SUB DUP2 ADD SWAP1 PUSH2 0x562 SWAP2 SWAP1 PUSH2 0x2E52 JUMP JUMPDEST PUSH2 0x127E JUMP JUMPDEST PUSH1 0x40 MLOAD PUSH2 0x575 SWAP3 SWAP2 SWAP1 PUSH2 0x2F0B JUMP JUMPDEST PUSH1 0x40 MLOAD DUP1 SWAP2 SUB SWAP1 RETURN JUMPDEST PUSH2 0x598 PUSH1 0x4 DUP1 CALLDATASIZE SUB DUP2 ADD SWAP1 PUSH2 0x593 SWAP2 SWAP1 PUSH2 0x2DCC JUMP JUMPDEST PUSH2 0x12A1 JUMP JUMPDEST STOP JUMPDEST PUSH2 0x5A2 PUSH2 0x13AF JUMP JUMPDEST PUSH32 0x0 PUSH20 0xFFFFFFFFFFFFFFFFFFFFFFFFFFFFFFFFFFFFFFFF AND PUSH4 0x396CB60 CALLVALUE DUP4 PUSH1 0x40 MLOAD DUP4 PUSH4 0xFFFFFFFF AND PUSH1 0xE0 SHL DUP2 MSTORE PUSH1 0x4 ADD PUSH2 0x5FC SWAP2 SWAP1 PUSH2 0x2F4A JUMP JUMPDEST PUSH1 0x0 PUSH1 0x40 MLOAD DUP1 DUP4 SUB DUP2 DUP6 DUP9 DUP1 EXTCODESIZE ISZERO DUP1 ISZERO PUSH2 0x615 JUMPI PUSH1 0x0 DUP1 REVERT JUMPDEST POP GAS CALL ISZERO DUP1 ISZERO PUSH2 0x629 JUMPI RETURNDATASIZE PUSH1 0x0 DUP1 RETURNDATACOPY RETURNDATASIZE PUSH1 0x0 REVERT JUMPDEST POP POP POP POP POP POP JUMP JUMPDEST PUSH2 0x639 PUSH2 0x13AF JUMP JUMPDEST PUSH32 0x0 PUSH20 0xFFFFFFFFFFFFFFFFFFFFFFFFFFFFFFFFFFFFFFFF AND PUSH4 0x205C2878 DUP4 DUP4 PUSH1 0x40 MLOAD DUP4 PUSH4 0xFFFFFFFF AND PUSH1 0xE0 SHL DUP2 MSTORE PUSH1 0x4 ADD PUSH2 0x694 SWAP3 SWAP2 SWAP1 PUSH2 0x2F74 JUMP JUMPDEST PUSH1 0x0 PUSH1 0x40 MLOAD DUP1 DUP4 SUB DUP2 PUSH1 0x0 DUP8 DUP1 EXTCODESIZE ISZERO DUP1 ISZERO PUSH2 0x6AE JUMPI PUSH1 0x0 DUP1 REVERT JUMPDEST POP GAS CALL ISZERO DUP1 ISZERO PUSH2 0x6C2 JUMPI RETURNDATASIZE PUSH1 0x0 DUP1 RETURNDATACOPY RETURNDATASIZE PUSH1 0x0 REVERT JUMPDEST POP POP POP POP POP POP JUMP JUMPDEST PUSH1 0x2 PUSH1 0x0 SWAP1 SLOAD SWAP1 PUSH2 0x100 EXP SWAP1 DIV PUSH20 0xFFFFFFFFFFFFFFFFFFFFFFFFFFFFFFFFFFFFFFFF AND DUP2 JUMP JUMPDEST PUSH2 0x6F8 PUSH2 0x13AF JUMP JUMPDEST PUSH2 0x703 DUP4 DUP4 DUP4 PUSH2 0x1436 JUMP JUMPDEST POP POP POP JUMP JUMPDEST PUSH2 0x710 PUSH2 0x13AF JUMP JUMPDEST PUSH1 0x0 PUSH20 0xFFFFFFFFFFFFFFFFFFFFFFFFFFFFFFFFFFFFFFFF AND DUP3 PUSH20 0xFFFFFFFFFFFFFFFFFFFFFFFFFFFFFFFFFFFFFFFF AND SUB PUSH2 0x776 JUMPI PUSH1 0x40 MLOAD PUSH32 0x92BC9DF300000000000000000000000000000000000000000000000000000000 DUP2 MSTORE PUSH1 0x4 ADD PUSH1 0x40 MLOAD DUP1 SWAP2 SUB SWAP1 REVERT JUMPDEST PUSH32 0x0 PUSH20 0xFFFFFFFFFFFFFFFFFFFFFFFFFFFFFFFFFFFFFFFF AND PUSH4 0x205C2878 DUP4 DUP4 PUSH1 0x40 MLOAD DUP4 PUSH4 0xFFFFFFFF AND PUSH1 0xE0 SHL DUP2 MSTORE PUSH1 0x4 ADD PUSH2 0x7D1 SWAP3 SWAP2 SWAP1 PUSH2 0x2F74 JUMP JUMPDEST PUSH1 0x0 PUSH1 0x40 MLOAD DUP1 DUP4 SUB DUP2 PUSH1 0x0 DUP8 DUP1 EXTCODESIZE ISZERO DUP1 ISZERO PUSH2 0x7EB JUMPI PUSH1 0x0 DUP1 REVERT JUMPDEST POP GAS CALL ISZERO DUP1 ISZERO PUSH2 0x7FF JUMPI RETURNDATASIZE PUSH1 0x0 DUP1 RETURNDATACOPY RETURNDATASIZE PUSH1 0x0 REVERT JUMPDEST POP POP POP POP POP POP JUMP JUMPDEST PUSH2 0x80F PUSH2 0x13AF JUMP JUMPDEST PUSH1 0x0 DUP3 PUSH20 0xFFFFFFFFFFFFFFFFFFFFFFFFFFFFFFFFFFFFFFFF AND PUSH4 0x70A08231 ADDRESS PUSH1 0x40 MLOAD DUP3 PUSH4 0xFFFFFFFF AND PUSH1 0xE0 SHL DUP2 MSTORE PUSH1 0x4 ADD PUSH2 0x84A SWAP2 SWAP1 PUSH2 0x257E JUMP JUMPDEST PUSH1 0x20 PUSH1 0x40 MLOAD DUP1 DUP4 SUB DUP2 DUP7 GAS STATICCALL ISZERO DUP1 ISZERO PUSH2 0x867 JUMPI RETURNDATASIZE PUSH1 0x0 DUP1 RETURNDATACOPY RETURNDATASIZE PUSH1 0x0 REVERT JUMPDEST POP POP POP POP PUSH1 0x40 MLOAD RETURNDATASIZE PUSH1 0x1F NOT PUSH1 0x1F DUP3 ADD AND DUP3 ADD DUP1 PUSH1 0x40 MSTORE POP DUP2 ADD SWAP1 PUSH2 0x88B SWAP2 SWAP1 PUSH2 0x2FB2 JUMP JUMPDEST SWAP1 POP PUSH2 0x898 DUP4 DUP4 DUP4 PUSH2 0x1436 JUMP JUMPDEST POP POP POP JUMP JUMPDEST PUSH2 0x8A5 PUSH2 0x13AF JUMP JUMPDEST DUP2 DUP2 SWAP1 POP DUP6 DUP6 SWAP1 POP EQ PUSH2 0x8E4 JUMPI PUSH1 0x40 MLOAD PUSH32 0x906708600000000000000000000000000000000000000000000000000000000 DUP2 MSTORE PUSH1 0x4 ADD PUSH1 0x40 MLOAD DUP1 SWAP2 SUB SWAP1 REVERT JUMPDEST PUSH1 0x0 JUMPDEST DUP6 DUP6 SWAP1 POP DUP2 LT ISZERO PUSH2 0x948 JUMPI PUSH2 0x93D DUP7 DUP7 DUP4 DUP2 DUP2 LT PUSH2 0x908 JUMPI PUSH2 0x907 PUSH2 0x2FDF JUMP JUMPDEST JUMPDEST SWAP1 POP PUSH1 0x20 MUL ADD PUSH1 0x20 DUP2 ADD SWAP1 PUSH2 0x91D SWAP2 SWAP1 PUSH2 0x300E JUMP JUMPDEST DUP6 DUP6 DUP6 DUP6 DUP2 DUP2 LT PUSH2 0x931 JUMPI PUSH2 0x930 PUSH2 0x2FDF JUMP JUMPDEST JUMPDEST SWAP1 POP PUSH1 0x20 MUL ADD CALLDATALOAD PUSH2 0x1436 JUMP JUMPDEST DUP1 PUSH1 0x1 ADD SWAP1 POP PUSH2 0x8E7 JUMP JUMPDEST POP POP POP POP POP POP JUMP JUMPDEST PUSH2 0x958 PUSH2 0x13AF JUMP JUMPDEST PUSH2 0x962 PUSH1 0x0 PUSH2 0x1520 JUMP JUMPDEST JUMP JUMPDEST PUSH2 0x96C PUSH2 0x13AF JUMP JUMPDEST PUSH1 0x0 JUMPDEST DUP4 DUP4 SWAP1 POP DUP2 LT ISZERO PUSH2 0xA5D JUMPI PUSH1 0x0 DUP5 DUP5 DUP4 DUP2 DUP2 LT PUSH2 0x98F JUMPI PUSH2 0x98E PUSH2 0x2FDF JUMP JUMPDEST JUMPDEST SWAP1 POP PUSH1 0x20 MUL ADD PUSH1 0x20 DUP2 ADD SWAP1 PUSH2 0x9A4 SWAP2 SWAP1 PUSH2 0x300E JUMP JUMPDEST PUSH20 0xFFFFFFFFFFFFFFFFFFFFFFFFFFFFFFFFFFFFFFFF AND PUSH4 0x70A08231 ADDRESS PUSH1 0x40 MLOAD DUP3 PUSH4 0xFFFFFFFF AND PUSH1 0xE0 SHL DUP2 MSTORE PUSH1 0x4 ADD PUSH2 0x9DC SWAP2 SWAP1 PUSH2 0x257E JUMP JUMPDEST PUSH1 0x20 PUSH1 0x40 MLOAD DUP1 DUP4 SUB DUP2 DUP7 GAS STATICCALL ISZERO DUP1 ISZERO PUSH2 0x9F9 JUMPI RETURNDATASIZE PUSH1 0x0 DUP1 RETURNDATACOPY RETURNDATASIZE PUSH1 0x0 REVERT JUMPDEST POP POP POP POP PUSH1 0x40 MLOAD RETURNDATASIZE PUSH1 0x1F NOT PUSH1 0x1F DUP3 ADD AND DUP3 ADD DUP1 PUSH1 0x40 MSTORE POP DUP2 ADD SWAP1 PUSH2 0xA1D SWAP2 SWAP1 PUSH2 0x2FB2 JUMP JUMPDEST SWAP1 POP PUSH2 0xA51 DUP6 DUP6 DUP5 DUP2 DUP2 LT PUSH2 0xA35 JUMPI PUSH2 0xA34 PUSH2 0x2FDF JUMP JUMPDEST JUMPDEST SWAP1 POP PUSH1 0x20 MUL ADD PUSH1 0x20 DUP2 ADD SWAP1 PUSH2 0xA4A SWAP2 SWAP1 PUSH2 0x300E JUMP JUMPDEST DUP5 DUP4 PUSH2 0x1436 JUMP JUMPDEST DUP2 PUSH1 0x1 ADD SWAP2 POP POP PUSH2 0x96F JUMP JUMPDEST POP POP POP POP JUMP JUMPDEST PUSH1 0x0 DUP1 PUSH1 0x0 SWAP1 SLOAD SWAP1 PUSH2 0x100 EXP SWAP1 DIV PUSH20 0xFFFFFFFFFFFFFFFFFFFFFFFFFFFFFFFFFFFFFFFF AND SWAP1 POP SWAP1 JUMP JUMPDEST PUSH2 0xA94 PUSH2 0x2353 JUMP JUMPDEST PUSH1 0xD5 DUP4 DUP4 SWAP1 POP LT ISZERO PUSH2 0xADB JUMPI PUSH1 0x40 MLOAD PUSH32 0x8C379A000000000000000000000000000000000000000000000000000000000 DUP2 MSTORE PUSH1 0x4 ADD PUSH2 0xAD2 SWAP1 PUSH2 0x30BE JUMP JUMPDEST PUSH1 0x40 MLOAD DUP1 SWAP2 SUB SWAP1 REVERT JUMPDEST PUSH1 0x0 DUP4 DUP4 PUSH1 0x1 PUSH1 0x15 PUSH2 0xAED SWAP2 SWAP1 PUSH2 0x310D JUMP JUMPDEST SWAP1 PUSH1 0x15 SWAP3 PUSH2 0xAFD SWAP4 SWAP3 SWAP2 SWAP1 PUSH2 0x314B JUMP JUMPDEST SWAP1 PUSH2 0xB08 SWAP2 SWAP1 PUSH2 0x31CA JUMP JUMPDEST PUSH1 0xF8 SHR PUSH1 0xFF AND PUSH1 0x1 DUP2 GT ISZERO PUSH2 0xB20 JUMPI PUSH2 0xB1F PUSH2 0x28E9 JUMP JUMPDEST JUMPDEST SWAP1 POP PUSH1 0x0 DUP1 PUSH1 0x0 DUP1 PUSH1 0x0 DUP1 DUP10 DUP10 PUSH1 0x15 SWAP1 PUSH1 0xD5 SWAP3 PUSH2 0xB3F SWAP4 SWAP3 SWAP2 SWAP1 PUSH2 0x314B JUMP JUMPDEST DUP2 ADD SWAP1 PUSH2 0xB4C SWAP2 SWAP1 PUSH2 0x3229 JUMP JUMPDEST SWAP6 POP SWAP6 POP SWAP6 POP SWAP6 POP SWAP6 POP SWAP6 POP PUSH1 0x0 DUP11 DUP11 PUSH1 0xD5 SWAP1 DUP1 SWAP3 PUSH2 0xB6D SWAP4 SWAP3 SWAP2 SWAP1 PUSH2 0x314B JUMP JUMPDEST DUP1 DUP1 PUSH1 0x1F ADD PUSH1 0x20 DUP1 SWAP2 DIV MUL PUSH1 0x20 ADD PUSH1 0x40 MLOAD SWAP1 DUP2 ADD PUSH1 0x40 MSTORE DUP1 SWAP4 SWAP3 SWAP2 SWAP1 DUP2 DUP2 MSTORE PUSH1 0x20 ADD DUP4 DUP4 DUP1 DUP3 DUP5 CALLDATACOPY PUSH1 0x0 DUP2 DUP5 ADD MSTORE PUSH1 0x1F NOT PUSH1 0x1F DUP3 ADD AND SWAP1 POP DUP1 DUP4 ADD SWAP3 POP POP POP POP POP POP POP SWAP1 POP PUSH1 0x40 MLOAD DUP1 PUSH2 0x100 ADD PUSH1 0x40 MSTORE DUP1 DUP10 PUSH1 0x1 DUP2 GT ISZERO PUSH2 0xBD1 JUMPI PUSH2 0xBD0 PUSH2 0x28E9 JUMP JUMPDEST JUMPDEST DUP2 MSTORE PUSH1 0x20 ADD DUP9 PUSH6 0xFFFFFFFFFFFF AND DUP2 MSTORE PUSH1 0x20 ADD DUP8 PUSH6 0xFFFFFFFFFFFF AND DUP2 MSTORE PUSH1 0x20 ADD DUP7 PUSH20 0xFFFFFFFFFFFFFFFFFFFFFFFFFFFFFFFFFFFFFFFF AND DUP2 MSTORE PUSH1 0x20 ADD DUP6 PUSH20 0xFFFFFFFFFFFFFFFFFFFFFFFFFFFFFFFFFFFFFFFF AND DUP2 MSTORE PUSH1 0x20 ADD DUP5 DUP2 MSTORE PUSH1 0x20 ADD DUP4 PUSH4 0xFFFFFFFF AND DUP2 MSTORE PUSH1 0x20 ADD DUP3 DUP2 MSTORE POP SWAP9 POP POP POP POP POP POP POP POP POP SWAP3 SWAP2 POP POP JUMP JUMPDEST PUSH2 0xC58 PUSH2 0x15E4 JUMP JUMPDEST PUSH2 0xC64 DUP5 DUP5 DUP5 DUP5 PUSH2 0x1674 JUMP JUMPDEST POP POP POP POP JUMP JUMPDEST PUSH32 0x0 DUP2 JUMP JUMPDEST PUSH1 0x3 PUSH1 0x0 SWAP1 SLOAD SWAP1 PUSH2 0x100 EXP SWAP1 DIV PUSH20 0xFFFFFFFFFFFFFFFFFFFFFFFFFFFFFFFFFFFFFFFF AND DUP2 JUMP JUMPDEST PUSH2 0xCBC PUSH2 0x13AF JUMP JUMPDEST PUSH32 0x0 PUSH20 0xFFFFFFFFFFFFFFFFFFFFFFFFFFFFFFFFFFFFFFFF AND PUSH4 0xBB9FE6BF PUSH1 0x40 MLOAD DUP2 PUSH4 0xFFFFFFFF AND PUSH1 0xE0 SHL DUP2 MSTORE PUSH1 0x4 ADD PUSH1 0x0 PUSH1 0x40 MLOAD DUP1 DUP4 SUB DUP2 PUSH1 0x0 DUP8 DUP1 EXTCODESIZE ISZERO DUP1 ISZERO PUSH2 0xD24 JUMPI PUSH1 0x0 DUP1 REVERT JUMPDEST POP GAS CALL ISZERO DUP1 ISZERO PUSH2 0xD38 JUMPI RETURNDATASIZE PUSH1 0x0 DUP1 RETURNDATACOPY RETURNDATASIZE PUSH1 0x0 REVERT JUMPDEST POP POP POP POP JUMP JUMPDEST PUSH2 0xD46 PUSH2 0x13AF JUMP JUMPDEST PUSH32 0x0 PUSH20 0xFFFFFFFFFFFFFFFFFFFFFFFFFFFFFFFFFFFFFFFF AND PUSH4 0xC23A5CEA DUP3 PUSH1 0x40 MLOAD DUP3 PUSH4 0xFFFFFFFF AND PUSH1 0xE0 SHL DUP2 MSTORE PUSH1 0x4 ADD PUSH2 0xD9F SWAP2 SWAP1 PUSH2 0x32B6 JUMP JUMPDEST PUSH1 0x0 PUSH1 0x40 MLOAD DUP1 DUP4 SUB DUP2 PUSH1 0x0 DUP8 DUP1 EXTCODESIZE ISZERO DUP1 ISZERO PUSH2 0xDB9 JUMPI PUSH1 0x0 DUP1 REVERT JUMPDEST POP GAS CALL ISZERO DUP1 ISZERO PUSH2 0xDCD JUMPI RETURNDATASIZE PUSH1 0x0 DUP1 RETURNDATACOPY RETURNDATASIZE PUSH1 0x0 REVERT JUMPDEST POP POP POP POP POP JUMP JUMPDEST PUSH1 0x0 PUSH32 0x0 PUSH20 0xFFFFFFFFFFFFFFFFFFFFFFFFFFFFFFFFFFFFFFFF AND PUSH4 0x70A08231 ADDRESS PUSH1 0x40 MLOAD DUP3 PUSH4 0xFFFFFFFF AND PUSH1 0xE0 SHL DUP2 MSTORE PUSH1 0x4 ADD PUSH2 0xE2F SWAP2 SWAP1 PUSH2 0x257E JUMP JUMPDEST PUSH1 0x20 PUSH1 0x40 MLOAD DUP1 DUP4 SUB DUP2 DUP7 GAS STATICCALL ISZERO DUP1 ISZERO PUSH2 0xE4C JUMPI RETURNDATASIZE PUSH1 0x0 DUP1 RETURNDATACOPY RETURNDATASIZE PUSH1 0x0 REVERT JUMPDEST POP POP POP POP PUSH1 0x40 MLOAD RETURNDATASIZE PUSH1 0x1F NOT PUSH1 0x1F DUP3 ADD AND DUP3 ADD DUP1 PUSH1 0x40 MSTORE POP DUP2 ADD SWAP1 PUSH2 0xE70 SWAP2 SWAP1 PUSH2 0x2FB2 JUMP JUMPDEST SWAP1 POP SWAP1 JUMP JUMPDEST PUSH1 0x1 SLOAD DUP2 JUMP JUMPDEST PUSH1 0x0 PUSH2 0xE86 DUP10 PUSH2 0x1A94 JUMP JUMPDEST CHAINID ADDRESS DUP11 DUP11 DUP11 DUP11 DUP11 DUP11 DUP11 PUSH1 0x40 MLOAD PUSH1 0x20 ADD PUSH2 0xEA8 SWAP11 SWAP10 SWAP9 SWAP8 SWAP7 SWAP6 SWAP5 SWAP4 SWAP3 SWAP2 SWAP1 PUSH2 0x32EF JUMP JUMPDEST PUSH1 0x40 MLOAD PUSH1 0x20 DUP2 DUP4 SUB SUB DUP2 MSTORE SWAP1 PUSH1 0x40 MSTORE DUP1 MLOAD SWAP1 PUSH1 0x20 ADD KECCAK256 SWAP1 POP SWAP9 SWAP8 POP POP POP POP POP POP POP POP JUMP JUMPDEST PUSH32 0x0 PUSH20 0xFFFFFFFFFFFFFFFFFFFFFFFFFFFFFFFFFFFFFFFF AND PUSH4 0xB760FAF9 CALLVALUE ADDRESS PUSH1 0x40 MLOAD DUP4 PUSH4 0xFFFFFFFF AND PUSH1 0xE0 SHL DUP2 MSTORE PUSH1 0x4 ADD PUSH2 0xF26 SWAP2 SWAP1 PUSH2 0x257E JUMP JUMPDEST PUSH1 0x0 PUSH1 0x40 MLOAD DUP1 DUP4 SUB DUP2 DUP6 DUP9 DUP1 EXTCODESIZE ISZERO DUP1 ISZERO PUSH2 0xF3F JUMPI PUSH1 0x0 DUP1 REVERT JUMPDEST POP GAS CALL ISZERO DUP1 ISZERO PUSH2 0xF53 JUMPI RETURNDATASIZE PUSH1 0x0 DUP1 RETURNDATACOPY RETURNDATASIZE PUSH1 0x0 REVERT JUMPDEST POP POP POP POP POP JUMP JUMPDEST PUSH2 0xF62 PUSH2 0x13AF JUMP JUMPDEST PUSH1 0x0 SELFBALANCE SWAP1 POP PUSH1 0x0 DUP2 SUB PUSH2 0xFA1 JUMPI PUSH1 0x40 MLOAD PUSH32 0xD17E42BF00000000000000000000000000000000000000000000000000000000 DUP2 MSTORE PUSH1 0x4 ADD PUSH1 0x40 MLOAD DUP1 SWAP2 SUB SWAP1 REVERT JUMPDEST PUSH1 0x0 PUSH20 0xFFFFFFFFFFFFFFFFFFFFFFFFFFFFFFFFFFFFFFFF AND DUP3 PUSH20 0xFFFFFFFFFFFFFFFFFFFFFFFFFFFFFFFFFFFFFFFF AND SUB PUSH2 0x1007 JUMPI PUSH1 0x40 MLOAD PUSH32 0x92BC9DF300000000000000000000000000000000000000000000000000000000 DUP2 MSTORE PUSH1 0x4 ADD PUSH1 0x40 MLOAD DUP1 SWAP2 SUB SWAP1 REVERT JUMPDEST PUSH1 0x0 DUP1 PUSH1 0x0 DUP1 PUSH1 0x0 DUP6 DUP8 GAS CALL SWAP1 POP DUP1 PUSH2 0x104C JUMPI PUSH1 0x40 MLOAD PUSH32 0xCDF0648900000000000000000000000000000000000000000000000000000000 DUP2 MSTORE PUSH1 0x4 ADD PUSH1 0x40 MLOAD DUP1 SWAP2 SUB SWAP1 REVERT JUMPDEST POP POP POP JUMP JUMPDEST PUSH2 0x1059 PUSH2 0x13AF JUMP JUMPDEST PUSH3 0x30D40 DUP2 GT ISZERO PUSH2 0x1096 JUMPI PUSH1 0x40 MLOAD PUSH32 0xFB57D4EA00000000000000000000000000000000000000000000000000000000 DUP2 MSTORE PUSH1 0x4 ADD PUSH1 0x40 MLOAD DUP1 SWAP2 SUB SWAP1 REVERT JUMPDEST PUSH1 0x0 PUSH1 0x1 SLOAD SWAP1 POP DUP2 PUSH1 0x1 SSTORE CALLER PUSH20 0xFFFFFFFFFFFFFFFFFFFFFFFFFFFFFFFFFFFFFFFF AND DUP3 DUP3 PUSH32 0x303A4CCA6D7DBA1A29764B1C0AABAC67516608DD37F88E064ABC64C24B9C2743 PUSH1 0x40 MLOAD PUSH1 0x40 MLOAD DUP1 SWAP2 SUB SWAP1 LOG4 POP POP JUMP JUMPDEST PUSH2 0x10F2 PUSH2 0x13AF JUMP JUMPDEST PUSH1 0x0 PUSH20 0xFFFFFFFFFFFFFFFFFFFFFFFFFFFFFFFFFFFFFFFF AND DUP2 PUSH20 0xFFFFFFFFFFFFFFFFFFFFFFFFFFFFFFFFFFFFFFFF AND SUB PUSH2 0x1158 JUMPI PUSH1 0x40 MLOAD PUSH32 0xC9DD43D800000000000000000000000000000000000000000000000000000000 DUP2 MSTORE PUSH1 0x4 ADD PUSH1 0x40 MLOAD DUP1 SWAP2 SUB SWAP1 REVERT JUMPDEST PUSH1 0x0 PUSH1 0x3 PUSH1 0x0 SWAP1 SLOAD SWAP1 PUSH2 0x100 EXP SWAP1 DIV PUSH20 0xFFFFFFFFFFFFFFFFFFFFFFFFFFFFFFFFFFFFFFFF AND SWAP1 POP DUP2 PUSH1 0x3 SSTORE CALLER PUSH20 0xFFFFFFFFFFFFFFFFFFFFFFFFFFFFFFFFFFFFFFFF AND DUP3 PUSH20 0xFFFFFFFFFFFFFFFFFFFFFFFFFFFFFFFFFFFFFFFF AND DUP3 PUSH20 0xFFFFFFFFFFFFFFFFFFFFFFFFFFFFFFFFFFFFFFFF AND PUSH32 0xFF179728E4DF4B0421C7DE2106B1968D0604E1670493F8DA3F907F2D020BB6D5 PUSH1 0x40 MLOAD PUSH1 0x40 MLOAD DUP1 SWAP2 SUB SWAP1 LOG4 POP POP JUMP JUMPDEST PUSH2 0x1200 PUSH2 0x13AF JUMP JUMPDEST PUSH1 0x0 PUSH20 0xFFFFFFFFFFFFFFFFFFFFFFFFFFFFFFFFFFFFFFFF AND DUP2 PUSH20 0xFFFFFFFFFFFFFFFFFFFFFFFFFFFFFFFFFFFFFFFF AND SUB PUSH2 0x1272 JUMPI PUSH1 0x0 PUSH1 0x40 MLOAD PUSH32 0x1E4FBDF700000000000000000000000000000000000000000000000000000000 DUP2 MSTORE PUSH1 0x4 ADD PUSH2 0x1269 SWAP2 SWAP1 PUSH2 0x257E JUMP JUMPDEST PUSH1 0x40 MLOAD DUP1 SWAP2 SUB SWAP1 REVERT JUMPDEST PUSH2 0x127B DUP2 PUSH2 0x1520 JUMP JUMPDEST POP JUMP JUMPDEST PUSH1 0x60 PUSH1 0x0 PUSH2 0x128A PUSH2 0x15E4 JUMP JUMPDEST PUSH2 0x1295 DUP6 DUP6 DUP6 PUSH2 0x1B3E JUMP JUMPDEST SWAP2 POP SWAP2 POP SWAP4 POP SWAP4 SWAP2 POP POP JUMP JUMPDEST PUSH2 0x12A9 PUSH2 0x13AF JUMP JUMPDEST PUSH1 0x0 PUSH20 0xFFFFFFFFFFFFFFFFFFFFFFFFFFFFFFFFFFFFFFFF AND DUP2 PUSH20 0xFFFFFFFFFFFFFFFFFFFFFFFFFFFFFFFFFFFFFFFF AND SUB PUSH2 0x130F JUMPI PUSH1 0x40 MLOAD PUSH32 0x8FC6A93100000000000000000000000000000000000000000000000000000000 DUP2 MSTORE PUSH1 0x4 ADD PUSH1 0x40 MLOAD DUP1 SWAP2 SUB SWAP1 REVERT JUMPDEST PUSH1 0x0 PUSH1 0x2 PUSH1 0x0 SWAP1 SLOAD SWAP1 PUSH2 0x100 EXP SWAP1 DIV PUSH20 0xFFFFFFFFFFFFFFFFFFFFFFFFFFFFFFFFFFFFFFFF AND SWAP1 POP DUP2 PUSH1 0x2 SSTORE CALLER PUSH20 0xFFFFFFFFFFFFFFFFFFFFFFFFFFFFFFFFFFFFFFFF AND DUP3 PUSH20 0xFFFFFFFFFFFFFFFFFFFFFFFFFFFFFFFFFFFFFFFF AND DUP3 PUSH20 0xFFFFFFFFFFFFFFFFFFFFFFFFFFFFFFFFFFFFFFFF AND PUSH32 0xE1F62C0E6D7BB6D470828565415BF2E87DBFEA50E52D2D753788B529BD0C6D62 PUSH1 0x40 MLOAD PUSH1 0x40 MLOAD DUP1 SWAP2 SUB SWAP1 LOG4 POP POP JUMP JUMPDEST PUSH2 0x13B7 PUSH2 0x1F36 JUMP JUMPDEST PUSH20 0xFFFFFFFFFFFFFFFFFFFFFFFFFFFFFFFFFFFFFFFF AND PUSH2 0x13D5 PUSH2 0xA63 JUMP JUMPDEST PUSH20 0xFFFFFFFFFFFFFFFFFFFFFFFFFFFFFFFFFFFFFFFF AND EQ PUSH2 0x1434 JUMPI PUSH2 0x13F8 PUSH2 0x1F36 JUMP JUMPDEST PUSH1 0x40 MLOAD PUSH32 0x118CDAA700000000000000000000000000000000000000000000000000000000 DUP2 MSTORE PUSH1 0x4 ADD PUSH2 0x142B SWAP2 SWAP1 PUSH2 0x257E JUMP JUMPDEST PUSH1 0x40 MLOAD DUP1 SWAP2 SUB SWAP1 REVERT JUMPDEST JUMP JUMPDEST PUSH1 0x0 PUSH20 0xFFFFFFFFFFFFFFFFFFFFFFFFFFFFFFFFFFFFFFFF AND DUP3 PUSH20 0xFFFFFFFFFFFFFFFFFFFFFFFFFFFFFFFFFFFFFFFF AND SUB PUSH2 0x149C JUMPI PUSH1 0x40 MLOAD PUSH32 0x92BC9DF300000000000000000000000000000000000000000000000000000000 DUP2 MSTORE PUSH1 0x4 ADD PUSH1 0x40 MLOAD DUP1 SWAP2 SUB SWAP1 REVERT JUMPDEST DUP3 PUSH20 0xFFFFFFFFFFFFFFFFFFFFFFFFFFFFFFFFFFFFFFFF AND PUSH4 0xA9059CBB DUP4 DUP4 PUSH1 0x40 MLOAD DUP4 PUSH4 0xFFFFFFFF AND PUSH1 0xE0 SHL DUP2 MSTORE PUSH1 0x4 ADD PUSH2 0x14D7 SWAP3 SWAP2 SWAP1 PUSH2 0x3392 JUMP JUMPDEST PUSH1 0x20 PUSH1 0x40 MLOAD DUP1 DUP4 SUB DUP2 PUSH1 0x0 DUP8 GAS CALL ISZERO DUP1 ISZERO PUSH2 0x14F6 JUMPI RETURNDATASIZE PUSH1 0x0 DUP1 RETURNDATACOPY RETURNDATASIZE PUSH1 0x0 REVERT JUMPDEST POP POP POP POP PUSH1 0x40 MLOAD RETURNDATASIZE PUSH1 0x1F NOT PUSH1 0x1F DUP3 ADD AND DUP3 ADD DUP1 PUSH1 0x40 MSTORE POP DUP2 ADD SWAP1 PUSH2 0x151A SWAP2 SWAP1 PUSH2 0x33F3 JUMP JUMPDEST POP POP POP POP JUMP JUMPDEST PUSH1 0x0 DUP1 PUSH1 0x0 SWAP1 SLOAD SWAP1 PUSH2 0x100 EXP SWAP1 DIV PUSH20 0xFFFFFFFFFFFFFFFFFFFFFFFFFFFFFFFFFFFFFFFF AND SWAP1 POP DUP2 PUSH1 0x0 DUP1 PUSH2 0x100 EXP DUP2 SLOAD DUP2 PUSH20 0xFFFFFFFFFFFFFFFFFFFFFFFFFFFFFFFFFFFFFFFF MUL NOT AND SWAP1 DUP4 PUSH20 0xFFFFFFFFFFFFFFFFFFFFFFFFFFFFFFFFFFFFFFFF AND MUL OR SWAP1 SSTORE POP DUP2 PUSH20 0xFFFFFFFFFFFFFFFFFFFFFFFFFFFFFFFFFFFFFFFF AND DUP2 PUSH20 0xFFFFFFFFFFFFFFFFFFFFFFFFFFFFFFFFFFFFFFFF AND PUSH32 0x8BE0079C531659141344CD1FD0A4F28419497F9722A3DAAFE3B4186F6B6457E0 PUSH1 0x40 MLOAD PUSH1 0x40 MLOAD DUP1 SWAP2 SUB SWAP1 LOG3 POP POP JUMP JUMPDEST PUSH32 0x0 PUSH20 0xFFFFFFFFFFFFFFFFFFFFFFFFFFFFFFFFFFFFFFFF AND CALLER PUSH20 0xFFFFFFFFFFFFFFFFFFFFFFFFFFFFFFFFFFFFFFFF AND EQ PUSH2 0x1672 JUMPI PUSH1 0x40 MLOAD PUSH32 0x8C379A000000000000000000000000000000000000000000000000000000000 DUP2 MSTORE PUSH1 0x4 ADD PUSH2 0x1669 SWAP1 PUSH2 0x346C JUMP JUMPDEST PUSH1 0x40 MLOAD DUP1 SWAP2 SUB SWAP1 REVERT JUMPDEST JUMP JUMPDEST PUSH1 0x0 DUP1 PUSH1 0x0 DUP1 PUSH1 0x0 DUP1 PUSH1 0x0 DUP10 DUP10 DUP2 ADD SWAP1 PUSH2 0x168E SWAP2 SWAP1 PUSH2 0x348C JUMP JUMPDEST SWAP7 POP SWAP7 POP SWAP7 POP SWAP7 POP SWAP7 POP SWAP7 POP SWAP7 POP PUSH1 0x0 DUP4 SWAP1 POP PUSH1 0x1 DUP1 DUP2 GT ISZERO PUSH2 0x16B4 JUMPI PUSH2 0x16B3 PUSH2 0x28E9 JUMP JUMPDEST JUMPDEST DUP6 PUSH1 0x1 DUP2 GT ISZERO PUSH2 0x16C7 JUMPI PUSH2 0x16C6 PUSH2 0x28E9 JUMP JUMPDEST JUMPDEST EQ DUP1 ISZERO PUSH2 0x1714 JUMPI POP PUSH20 0xEEEEEEEEEEEEEEEEEEEEEEEEEEEEEEEEEEEEEEEE PUSH20 0xFFFFFFFFFFFFFFFFFFFFFFFFFFFFFFFFFFFFFFFF AND DUP7 PUSH20 0xFFFFFFFFFFFFFFFFFFFFFFFFFFFFFFFFFFFFFFFF AND EQ ISZERO JUMPDEST DUP1 ISZERO PUSH2 0x174D JUMPI POP PUSH1 0x0 PUSH20 0xFFFFFFFFFFFFFFFFFFFFFFFFFFFFFFFFFFFFFFFF AND DUP7 PUSH20 0xFFFFFFFFFFFFFFFFFFFFFFFFFFFFFFFFFFFFFFFF AND EQ ISZERO JUMPDEST ISZERO PUSH2 0x176E JUMPI PUSH1 0x0 PUSH2 0x175E DUP9 DUP9 PUSH2 0x1F3E JUMP JUMPDEST SWAP1 POP PUSH1 0x0 DUP2 EQ PUSH2 0x176C JUMPI DUP1 SWAP2 POP JUMPDEST POP JUMPDEST PUSH1 0x0 DUP1 PUSH8 0xDE0B6B3A7640000 DUP4 GASPRICE PUSH1 0x1 SLOAD PUSH2 0x1789 SWAP2 SWAP1 PUSH2 0x352E JUMP JUMPDEST DUP14 PUSH2 0x1794 SWAP2 SWAP1 PUSH2 0x3570 JUMP JUMPDEST PUSH2 0x179E SWAP2 SWAP1 PUSH2 0x352E JUMP JUMPDEST PUSH2 0x17A8 SWAP2 SWAP1 PUSH2 0x35D3 JUMP JUMPDEST SWAP1 POP PUSH3 0xF4240 PUSH4 0xFFFFFFFF AND DUP6 PUSH4 0xFFFFFFFF AND DUP3 PUSH2 0x17C6 SWAP2 SWAP1 PUSH2 0x352E JUMP JUMPDEST PUSH2 0x17D0 SWAP2 SWAP1 PUSH2 0x35D3 JUMP JUMPDEST SWAP2 POP POP PUSH1 0x2 DUP1 DUP2 GT ISZERO PUSH2 0x17E6 JUMPI PUSH2 0x17E5 PUSH2 0x28E9 JUMP JUMPDEST JUMPDEST DUP14 PUSH1 0x2 DUP2 GT ISZERO PUSH2 0x17F9 JUMPI PUSH2 0x17F8 PUSH2 0x28E9 JUMP JUMPDEST JUMPDEST EQ PUSH2 0x1914 JUMPI DUP8 PUSH20 0xFFFFFFFFFFFFFFFFFFFFFFFFFFFFFFFFFFFFFFFF AND PUSH4 0x23B872DD DUP11 PUSH1 0x3 PUSH1 0x0 SWAP1 SLOAD SWAP1 PUSH2 0x100 EXP SWAP1 DIV PUSH20 0xFFFFFFFFFFFFFFFFFFFFFFFFFFFFFFFFFFFFFFFF AND DUP5 PUSH1 0x40 MLOAD DUP5 PUSH4 0xFFFFFFFF AND PUSH1 0xE0 SHL DUP2 MSTORE PUSH1 0x4 ADD PUSH2 0x185D SWAP4 SWAP3 SWAP2 SWAP1 PUSH2 0x3604 JUMP JUMPDEST PUSH1 0x20 PUSH1 0x40 MLOAD DUP1 DUP4 SUB DUP2 PUSH1 0x0 DUP8 GAS CALL ISZERO DUP1 ISZERO PUSH2 0x187C JUMPI RETURNDATASIZE PUSH1 0x0 DUP1 RETURNDATACOPY RETURNDATASIZE PUSH1 0x0 REVERT JUMPDEST POP POP POP POP PUSH1 0x40 MLOAD RETURNDATASIZE PUSH1 0x1F NOT PUSH1 0x1F DUP3 ADD AND DUP3 ADD DUP1 PUSH1 0x40 MSTORE POP DUP2 ADD SWAP1 PUSH2 0x18A0 SWAP2 SWAP1 PUSH2 0x33F3 JUMP JUMPDEST POP DUP1 DUP9 PUSH20 0xFFFFFFFFFFFFFFFFFFFFFFFFFFFFFFFFFFFFFFFF AND DUP11 PUSH20 0xFFFFFFFFFFFFFFFFFFFFFFFFFFFFFFFFFFFFFFFF AND PUSH32 0x7C405B9CEF9E824A5CF31A09E7B8810D01D9DB34EE384388F33B438608807E1A DUP11 DUP9 DUP9 DUP9 DUP14 PUSH1 0x40 MLOAD PUSH2 0x1907 SWAP6 SWAP5 SWAP4 SWAP3 SWAP2 SWAP1 PUSH2 0x363B JUMP JUMPDEST PUSH1 0x40 MLOAD DUP1 SWAP2 SUB SWAP1 LOG4 PUSH2 0x1A85 JUMP JUMPDEST PUSH1 0x0 PUSH4 0x23B872DD PUSH1 0xE0 SHL DUP11 PUSH1 0x3 PUSH1 0x0 SWAP1 SLOAD SWAP1 PUSH2 0x100 EXP SWAP1 DIV PUSH20 0xFFFFFFFFFFFFFFFFFFFFFFFFFFFFFFFFFFFFFFFF AND DUP5 PUSH1 0x40 MLOAD PUSH1 0x24 ADD PUSH2 0x1955 SWAP4 SWAP3 SWAP2 SWAP1 PUSH2 0x3604 JUMP JUMPDEST PUSH1 0x40 MLOAD PUSH1 0x20 DUP2 DUP4 SUB SUB DUP2 MSTORE SWAP1 PUSH1 0x40 MSTORE SWAP1 PUSH28 0xFFFFFFFFFFFFFFFFFFFFFFFFFFFFFFFFFFFFFFFFFFFFFFFFFFFFFFFF NOT AND PUSH1 0x20 DUP3 ADD DUP1 MLOAD PUSH28 0xFFFFFFFFFFFFFFFFFFFFFFFFFFFFFFFFFFFFFFFFFFFFFFFFFFFFFFFF DUP4 DUP2 DUP4 AND OR DUP4 MSTORE POP POP POP POP SWAP1 POP PUSH1 0x0 DUP10 PUSH20 0xFFFFFFFFFFFFFFFFFFFFFFFFFFFFFFFFFFFFFFFF AND DUP3 PUSH1 0x40 MLOAD PUSH2 0x19DB SWAP2 SWAP1 PUSH2 0x36CA JUMP JUMPDEST PUSH1 0x0 PUSH1 0x40 MLOAD DUP1 DUP4 SUB DUP2 PUSH1 0x0 DUP7 GAS CALL SWAP2 POP POP RETURNDATASIZE DUP1 PUSH1 0x0 DUP2 EQ PUSH2 0x1A18 JUMPI PUSH1 0x40 MLOAD SWAP2 POP PUSH1 0x1F NOT PUSH1 0x3F RETURNDATASIZE ADD AND DUP3 ADD PUSH1 0x40 MSTORE RETURNDATASIZE DUP3 MSTORE RETURNDATASIZE PUSH1 0x0 PUSH1 0x20 DUP5 ADD RETURNDATACOPY PUSH2 0x1A1D JUMP JUMPDEST PUSH1 0x60 SWAP2 POP JUMPDEST POP POP SWAP1 POP DUP1 PUSH2 0x1A82 JUMPI DUP3 DUP12 PUSH20 0xFFFFFFFFFFFFFFFFFFFFFFFFFFFFFFFFFFFFFFFF AND DUP12 PUSH20 0xFFFFFFFFFFFFFFFFFFFFFFFFFFFFFFFFFFFFFFFF AND PUSH32 0x41614445EA2AB6D87C504BDFC83CB5CB840E7219AA772383BAFF1AB0DD2A3113 PUSH1 0x40 MLOAD PUSH1 0x40 MLOAD DUP1 SWAP2 SUB SWAP1 LOG4 JUMPDEST POP POP JUMPDEST POP POP POP POP POP POP POP POP POP POP POP POP POP JUMP JUMPDEST PUSH1 0x60 PUSH1 0x0 PUSH2 0x1AA1 DUP4 PUSH2 0x1FCB JUMP JUMPDEST SWAP1 POP DUP1 DUP4 PUSH1 0x20 ADD CALLDATALOAD DUP5 DUP1 PUSH1 0x40 ADD SWAP1 PUSH2 0x1AB9 SWAP2 SWAP1 PUSH2 0x36F0 JUMP JUMPDEST PUSH1 0x40 MLOAD PUSH2 0x1AC7 SWAP3 SWAP2 SWAP1 PUSH2 0x3787 JUMP JUMPDEST PUSH1 0x40 MLOAD DUP1 SWAP2 SUB SWAP1 KECCAK256 DUP6 DUP1 PUSH1 0x60 ADD SWAP1 PUSH2 0x1ADF SWAP2 SWAP1 PUSH2 0x36F0 JUMP JUMPDEST PUSH1 0x40 MLOAD PUSH2 0x1AED SWAP3 SWAP2 SWAP1 PUSH2 0x3787 JUMP JUMPDEST PUSH1 0x40 MLOAD DUP1 SWAP2 SUB SWAP1 KECCAK256 DUP7 PUSH1 0x80 ADD CALLDATALOAD DUP8 PUSH1 0xA0 ADD CALLDATALOAD DUP9 PUSH1 0xC0 ADD CALLDATALOAD DUP10 PUSH1 0xE0 ADD CALLDATALOAD DUP11 PUSH2 0x100 ADD CALLDATALOAD PUSH1 0x40 MLOAD PUSH1 0x20 ADD PUSH2 0x1B27 SWAP10 SWAP9 SWAP8 SWAP7 SWAP6 SWAP5 SWAP4 SWAP3 SWAP2 SWAP1 PUSH2 0x37A0 JUMP JUMPDEST PUSH1 0x40 MLOAD PUSH1 0x20 DUP2 DUP4 SUB SUB DUP2 MSTORE SWAP1 PUSH1 0x40 MSTORE SWAP2 POP POP SWAP2 SWAP1 POP JUMP JUMPDEST PUSH1 0x60 PUSH1 0x0 PUSH1 0x1 SLOAD DUP6 PUSH1 0xA0 ADD CALLDATALOAD GT PUSH2 0x1B8A JUMPI PUSH1 0x40 MLOAD PUSH32 0x8C379A000000000000000000000000000000000000000000000000000000000 DUP2 MSTORE PUSH1 0x4 ADD PUSH2 0x1B81 SWAP1 PUSH2 0x3879 JUMP JUMPDEST PUSH1 0x40 MLOAD DUP1 SWAP2 SUB SWAP1 REVERT JUMPDEST PUSH1 0x0 PUSH2 0x1BA5 DUP7 DUP1 PUSH2 0x120 ADD SWAP1 PUSH2 0x1BA0 SWAP2 SWAP1 PUSH2 0x36F0 JUMP JUMPDEST PUSH2 0xA8C JUMP JUMPDEST SWAP1 POP PUSH1 0x41 DUP2 PUSH1 0xE0 ADD MLOAD MLOAD EQ PUSH2 0x1BEF JUMPI PUSH1 0x40 MLOAD PUSH32 0x8C379A000000000000000000000000000000000000000000000000000000000 DUP2 MSTORE PUSH1 0x4 ADD PUSH2 0x1BE6 SWAP1 PUSH2 0x390B JUMP JUMPDEST PUSH1 0x40 MLOAD DUP1 SWAP2 SUB SWAP1 REVERT JUMPDEST PUSH1 0x0 PUSH2 0x1C1D DUP8 DUP4 PUSH1 0x0 ADD MLOAD DUP5 PUSH1 0x20 ADD MLOAD DUP6 PUSH1 0x40 ADD MLOAD DUP7 PUSH1 0x60 ADD MLOAD DUP8 PUSH1 0x80 ADD MLOAD DUP9 PUSH1 0xA0 ADD MLOAD DUP10 PUSH1 0xC0 ADD MLOAD PUSH2 0xE7B JUMP JUMPDEST SWAP1 POP PUSH1 0x40 MLOAD DUP1 PUSH1 0x20 ADD PUSH1 0x40 MSTORE DUP1 PUSH1 0x0 DUP2 MSTORE POP SWAP4 POP PUSH2 0x1C50 DUP3 PUSH1 0xE0 ADD MLOAD PUSH2 0x1C42 DUP4 PUSH2 0x1FDB JUMP JUMPDEST PUSH2 0x2011 SWAP1 SWAP2 SWAP1 PUSH4 0xFFFFFFFF AND JUMP JUMPDEST PUSH20 0xFFFFFFFFFFFFFFFFFFFFFFFFFFFFFFFFFFFFFFFF AND PUSH1 0x2 PUSH1 0x0 SWAP1 SLOAD SWAP1 PUSH2 0x100 EXP SWAP1 DIV PUSH20 0xFFFFFFFFFFFFFFFFFFFFFFFFFFFFFFFFFFFFFFFF AND PUSH20 0xFFFFFFFFFFFFFFFFFFFFFFFFFFFFFFFFFFFFFFFF AND EQ PUSH2 0x1CC4 JUMPI DUP4 PUSH2 0x1CB9 PUSH1 0x1 DUP5 PUSH1 0x20 ADD MLOAD DUP6 PUSH1 0x40 ADD MLOAD PUSH2 0x203D JUMP JUMPDEST SWAP4 POP SWAP4 POP POP POP PUSH2 0x1F2E JUMP JUMPDEST PUSH1 0x0 PUSH8 0xDE0B6B3A7640000 DUP4 PUSH1 0xA0 ADD MLOAD PUSH2 0x1CDD DUP11 PUSH2 0x2076 JUMP JUMPDEST PUSH2 0x1CE7 SWAP2 SWAP1 PUSH2 0x352E JUMP JUMPDEST PUSH2 0x1CF1 SWAP2 SWAP1 PUSH2 0x35D3 JUMP JUMPDEST SWAP1 POP PUSH1 0x0 DUP2 SUB PUSH2 0x1D36 JUMPI PUSH1 0x40 MLOAD PUSH32 0x8C379A000000000000000000000000000000000000000000000000000000000 DUP2 MSTORE PUSH1 0x4 ADD PUSH2 0x1D2D SWAP1 PUSH2 0x399D JUMP JUMPDEST PUSH1 0x40 MLOAD DUP1 SWAP2 SUB SWAP1 REVERT JUMPDEST PUSH3 0x1E8480 DUP4 PUSH1 0xC0 ADD MLOAD PUSH4 0xFFFFFFFF AND GT ISZERO PUSH2 0x1D86 JUMPI PUSH1 0x40 MLOAD PUSH32 0x8C379A000000000000000000000000000000000000000000000000000000000 DUP2 MSTORE PUSH1 0x4 ADD PUSH2 0x1D7D SWAP1 PUSH2 0x3A2F JUMP JUMPDEST PUSH1 0x40 MLOAD DUP1 SWAP2 SUB SWAP1 REVERT JUMPDEST PUSH3 0xF4240 DUP4 PUSH1 0xC0 ADD MLOAD PUSH4 0xFFFFFFFF AND LT ISZERO PUSH2 0x1DD6 JUMPI PUSH1 0x40 MLOAD PUSH32 0x8C379A000000000000000000000000000000000000000000000000000000000 DUP2 MSTORE PUSH1 0x4 ADD PUSH2 0x1DCD SWAP1 PUSH2 0x3AC1 JUMP JUMPDEST PUSH1 0x40 MLOAD DUP1 SWAP2 SUB SWAP1 REVERT JUMPDEST PUSH3 0xF4240 PUSH4 0xFFFFFFFF AND DUP4 PUSH1 0xC0 ADD MLOAD PUSH4 0xFFFFFFFF AND DUP3 PUSH2 0x1DF6 SWAP2 SWAP1 PUSH2 0x352E JUMP JUMPDEST PUSH2 0x1E00 SWAP2 SWAP1 PUSH2 0x35D3 JUMP JUMPDEST DUP4 PUSH1 0x60 ADD MLOAD PUSH20 0xFFFFFFFFFFFFFFFFFFFFFFFFFFFFFFFFFFFFFFFF AND PUSH4 0x70A08231 PUSH2 0x1E29 DUP12 PUSH2 0x1FCB JUMP JUMPDEST PUSH1 0x40 MLOAD DUP3 PUSH4 0xFFFFFFFF AND PUSH1 0xE0 SHL DUP2 MSTORE PUSH1 0x4 ADD PUSH2 0x1E45 SWAP2 SWAP1 PUSH2 0x257E JUMP JUMPDEST PUSH1 0x20 PUSH1 0x40 MLOAD DUP1 DUP4 SUB DUP2 DUP7 GAS STATICCALL ISZERO DUP1 ISZERO PUSH2 0x1E62 JUMPI RETURNDATASIZE PUSH1 0x0 DUP1 RETURNDATACOPY RETURNDATASIZE PUSH1 0x0 REVERT JUMPDEST POP POP POP POP PUSH1 0x40 MLOAD RETURNDATASIZE PUSH1 0x1F NOT PUSH1 0x1F DUP3 ADD AND DUP3 ADD DUP1 PUSH1 0x40 MSTORE POP DUP2 ADD SWAP1 PUSH2 0x1E86 SWAP2 SWAP1 PUSH2 0x2FB2 JUMP JUMPDEST LT ISZERO PUSH2 0x1EC7 JUMPI PUSH1 0x40 MLOAD PUSH32 0x8C379A000000000000000000000000000000000000000000000000000000000 DUP2 MSTORE PUSH1 0x4 ADD PUSH2 0x1EBE SWAP1 PUSH2 0x3B53 JUMP JUMPDEST PUSH1 0x40 MLOAD DUP1 SWAP2 SUB SWAP1 REVERT JUMPDEST PUSH2 0x1ED0 DUP9 PUSH2 0x1FCB JUMP JUMPDEST DUP4 PUSH1 0x60 ADD MLOAD DUP5 PUSH1 0x80 ADD MLOAD DUP6 PUSH1 0x0 ADD MLOAD DUP7 PUSH1 0xA0 ADD MLOAD DUP8 PUSH1 0xC0 ADD MLOAD DUP13 PUSH1 0x40 MLOAD PUSH1 0x20 ADD PUSH2 0x1F00 SWAP8 SWAP7 SWAP6 SWAP5 SWAP4 SWAP3 SWAP2 SWAP1 PUSH2 0x3B73 JUMP JUMPDEST PUSH1 0x40 MLOAD PUSH1 0x20 DUP2 DUP4 SUB SUB DUP2 MSTORE SWAP1 PUSH1 0x40 MSTORE SWAP5 POP DUP5 PUSH2 0x1F26 PUSH1 0x0 DUP6 PUSH1 0x20 ADD MLOAD DUP7 PUSH1 0x40 ADD MLOAD PUSH2 0x203D JUMP JUMPDEST SWAP5 POP SWAP5 POP POP POP POP JUMPDEST SWAP4 POP SWAP4 SWAP2 POP POP JUMP JUMPDEST PUSH1 0x0 CALLER SWAP1 POP SWAP1 JUMP JUMPDEST PUSH1 0x0 DUP2 PUSH20 0xFFFFFFFFFFFFFFFFFFFFFFFFFFFFFFFFFFFFFFFF AND PUSH4 0x7F02A712 DUP5 PUSH1 0x40 MLOAD DUP3 PUSH4 0xFFFFFFFF AND PUSH1 0xE0 SHL DUP2 MSTORE PUSH1 0x4 ADD PUSH2 0x1F79 SWAP2 SWAP1 PUSH2 0x257E JUMP JUMPDEST PUSH1 0x20 PUSH1 0x40 MLOAD DUP1 DUP4 SUB DUP2 DUP7 GAS STATICCALL SWAP3 POP POP POP DUP1 ISZERO PUSH2 0x1FB3 JUMPI POP PUSH1 0x40 MLOAD RETURNDATASIZE PUSH1 0x1F NOT PUSH1 0x1F DUP3 ADD AND DUP3 ADD DUP1 PUSH1 0x40 MSTORE POP DUP2 ADD SWAP1 PUSH2 0x1FB0 SWAP2 SWAP1 PUSH2 0x2FB2 JUMP JUMPDEST PUSH1 0x1 JUMPDEST PUSH2 0x1FC0 JUMPI PUSH1 0x0 SWAP1 POP PUSH2 0x1FC5 JUMP JUMPDEST DUP1 SWAP2 POP POP JUMPDEST SWAP3 SWAP2 POP POP JUMP JUMPDEST PUSH1 0x0 DUP1 DUP3 CALLDATALOAD SWAP1 POP DUP1 SWAP2 POP POP SWAP2 SWAP1 POP JUMP JUMPDEST PUSH1 0x0 PUSH32 0x19457468657265756D205369676E6564204D6573736167653A0A333200000000 PUSH1 0x0 MSTORE DUP2 PUSH1 0x1C MSTORE PUSH1 0x3C PUSH1 0x0 KECCAK256 SWAP1 POP SWAP2 SWAP1 POP JUMP JUMPDEST PUSH1 0x0 DUP1 PUSH1 0x0 DUP1 PUSH2 0x2021 DUP7 DUP7 PUSH2 0x209F JUMP JUMPDEST SWAP3 POP SWAP3 POP SWAP3 POP PUSH2 0x2031 DUP3 DUP3 PUSH2 0x20FB JUMP JUMPDEST DUP3 SWAP4 POP POP POP POP SWAP3 SWAP2 POP POP JUMP JUMPDEST PUSH1 0x0 PUSH1 0xD0 DUP3 PUSH6 0xFFFFFFFFFFFF AND SWAP1 SHL PUSH1 0xA0 DUP5 PUSH6 0xFFFFFFFFFFFF AND SWAP1 SHL DUP6 PUSH2 0x2065 JUMPI PUSH1 0x0 PUSH2 0x2068 JUMP JUMPDEST PUSH1 0x1 JUMPDEST PUSH1 0xFF AND OR OR SWAP1 POP SWAP4 SWAP3 POP POP POP JUMP JUMPDEST PUSH1 0x0 DUP1 PUSH1 0x1 SLOAD DUP4 PUSH1 0xC0 ADD CALLDATALOAD DUP5 PUSH1 0xA0 ADD CALLDATALOAD DUP6 PUSH1 0x80 ADD CALLDATALOAD ADD ADD ADD SWAP1 POP DUP3 PUSH1 0xE0 ADD CALLDATALOAD DUP2 MUL SWAP2 POP POP SWAP2 SWAP1 POP JUMP JUMPDEST PUSH1 0x0 DUP1 PUSH1 0x0 PUSH1 0x41 DUP5 MLOAD SUB PUSH2 0x20E4 JUMPI PUSH1 0x0 DUP1 PUSH1 0x0 PUSH1 0x20 DUP8 ADD MLOAD SWAP3 POP PUSH1 0x40 DUP8 ADD MLOAD SWAP2 POP PUSH1 0x60 DUP8 ADD MLOAD PUSH1 0x0 BYTE SWAP1 POP PUSH2 0x20D6 DUP9 DUP3 DUP6 DUP6 PUSH2 0x225F JUMP JUMPDEST SWAP6 POP SWAP6 POP SWAP6 POP POP POP POP PUSH2 0x20F4 JUMP JUMPDEST PUSH1 0x0 PUSH1 0x2 DUP6 MLOAD PUSH1 0x0 SHL SWAP3 POP SWAP3 POP SWAP3 POP JUMPDEST SWAP3 POP SWAP3 POP SWAP3 JUMP JUMPDEST PUSH1 0x0 PUSH1 0x3 DUP2 GT ISZERO PUSH2 0x210F JUMPI PUSH2 0x210E PUSH2 0x28E9 JUMP JUMPDEST JUMPDEST DUP3 PUSH1 0x3 DUP2 GT ISZERO PUSH2 0x2122 JUMPI PUSH2 0x2121 PUSH2 0x28E9 JUMP JUMPDEST JUMPDEST SUB ISZERO PUSH2 0x225B JUMPI PUSH1 0x1 PUSH1 0x3 DUP2 GT ISZERO PUSH2 0x213C JUMPI PUSH2 0x213B PUSH2 0x28E9 JUMP JUMPDEST JUMPDEST DUP3 PUSH1 0x3 DUP2 GT ISZERO PUSH2 0x214F JUMPI PUSH2 0x214E PUSH2 0x28E9 JUMP JUMPDEST JUMPDEST SUB PUSH2 0x2186 JUMPI PUSH1 0x40 MLOAD PUSH32 0xF645EEDF00000000000000000000000000000000000000000000000000000000 DUP2 MSTORE PUSH1 0x4 ADD PUSH1 0x40 MLOAD DUP1 SWAP2 SUB SWAP1 REVERT JUMPDEST PUSH1 0x2 PUSH1 0x3 DUP2 GT ISZERO PUSH2 0x219A JUMPI PUSH2 0x2199 PUSH2 0x28E9 JUMP JUMPDEST JUMPDEST DUP3 PUSH1 0x3 DUP2 GT ISZERO PUSH2 0x21AD JUMPI PUSH2 0x21AC PUSH2 0x28E9 JUMP JUMPDEST JUMPDEST SUB PUSH2 0x21F2 JUMPI DUP1 PUSH1 0x0 SHR PUSH1 0x40 MLOAD PUSH32 0xFCE698F700000000000000000000000000000000000000000000000000000000 DUP2 MSTORE PUSH1 0x4 ADD PUSH2 0x21E9 SWAP2 SWAP1 PUSH2 0x2405 JUMP JUMPDEST PUSH1 0x40 MLOAD DUP1 SWAP2 SUB SWAP1 REVERT JUMPDEST PUSH1 0x3 DUP1 DUP2 GT ISZERO PUSH2 0x2205 JUMPI PUSH2 0x2204 PUSH2 0x28E9 JUMP JUMPDEST JUMPDEST DUP3 PUSH1 0x3 DUP2 GT ISZERO PUSH2 0x2218 JUMPI PUSH2 0x2217 PUSH2 0x28E9 JUMP JUMPDEST JUMPDEST SUB PUSH2 0x225A JUMPI DUP1 PUSH1 0x40 MLOAD PUSH32 0xD78BCE0C00000000000000000000000000000000000000000000000000000000 DUP2 MSTORE PUSH1 0x4 ADD PUSH2 0x2251 SWAP2 SWAP1 PUSH2 0x2DB1 JUMP JUMPDEST PUSH1 0x40 MLOAD DUP1 SWAP2 SUB SWAP1 REVERT JUMPDEST JUMPDEST POP POP JUMP JUMPDEST PUSH1 0x0 DUP1 PUSH1 0x0 PUSH32 0x7FFFFFFFFFFFFFFFFFFFFFFFFFFFFFFF5D576E7357A4501DDFE92F46681B20A0 DUP5 PUSH1 0x0 SHR GT ISZERO PUSH2 0x229F JUMPI PUSH1 0x0 PUSH1 0x3 DUP6 SWAP3 POP SWAP3 POP SWAP3 POP PUSH2 0x2349 JUMP JUMPDEST PUSH1 0x0 PUSH1 0x1 DUP9 DUP9 DUP9 DUP9 PUSH1 0x40 MLOAD PUSH1 0x0 DUP2 MSTORE PUSH1 0x20 ADD PUSH1 0x40 MSTORE PUSH1 0x40 MLOAD PUSH2 0x22C4 SWAP5 SWAP4 SWAP3 SWAP2 SWAP1 PUSH2 0x3BFE JUMP JUMPDEST PUSH1 0x20 PUSH1 0x40 MLOAD PUSH1 0x20 DUP2 SUB SWAP1 DUP1 DUP5 SUB SWAP1 DUP6 GAS STATICCALL ISZERO DUP1 ISZERO PUSH2 0x22E6 JUMPI RETURNDATASIZE PUSH1 0x0 DUP1 RETURNDATACOPY RETURNDATASIZE PUSH1 0x0 REVERT JUMPDEST POP POP POP PUSH1 0x20 PUSH1 0x40 MLOAD SUB MLOAD SWAP1 POP PUSH1 0x0 PUSH20 0xFFFFFFFFFFFFFFFFFFFFFFFFFFFFFFFFFFFFFFFF AND DUP2 PUSH20 0xFFFFFFFFFFFFFFFFFFFFFFFFFFFFFFFFFFFFFFFF AND SUB PUSH2 0x233A JUMPI PUSH1 0x0 PUSH1 0x1 PUSH1 0x0 DUP1 SHL SWAP4 POP SWAP4 POP SWAP4 POP POP PUSH2 0x2349 JUMP JUMPDEST DUP1 PUSH1 0x0 DUP1 PUSH1 0x0 SHL SWAP4 POP SWAP4 POP SWAP4 POP POP JUMPDEST SWAP5 POP SWAP5 POP SWAP5 SWAP2 POP POP JUMP JUMPDEST PUSH1 0x40 MLOAD DUP1 PUSH2 0x100 ADD PUSH1 0x40 MSTORE DUP1 PUSH1 0x0 PUSH1 0x1 DUP2 GT ISZERO PUSH2 0x2373 JUMPI PUSH2 0x2372 PUSH2 0x28E9 JUMP JUMPDEST JUMPDEST DUP2 MSTORE PUSH1 0x20 ADD PUSH1 0x0 PUSH6 0xFFFFFFFFFFFF AND DUP2 MSTORE PUSH1 0x20 ADD PUSH1 0x0 PUSH6 0xFFFFFFFFFFFF AND DUP2 MSTORE PUSH1 0x20 ADD PUSH1 0x0 PUSH20 0xFFFFFFFFFFFFFFFFFFFFFFFFFFFFFFFFFFFFFFFF AND DUP2 MSTORE PUSH1 0x20 ADD PUSH1 0x0 PUSH20 0xFFFFFFFFFFFFFFFFFFFFFFFFFFFFFFFFFFFFFFFF AND DUP2 MSTORE PUSH1 0x20 ADD PUSH1 0x0 DUP2 MSTORE PUSH1 0x20 ADD PUSH1 0x0 PUSH4 0xFFFFFFFF AND DUP2 MSTORE PUSH1 0x20 ADD PUSH1 0x60 DUP2 MSTORE POP SWAP1 JUMP JUMPDEST PUSH1 0x0 DUP2 SWAP1 POP SWAP2 SWAP1 POP JUMP JUMPDEST PUSH2 0x23FF DUP2 PUSH2 0x23EC JUMP JUMPDEST DUP3 MSTORE POP POP JUMP JUMPDEST PUSH1 0x0 PUSH1 0x20 DUP3 ADD SWAP1 POP PUSH2 0x241A PUSH1 0x0 DUP4 ADD DUP5 PUSH2 0x23F6 JUMP JUMPDEST SWAP3 SWAP2 POP POP JUMP JUMPDEST PUSH1 0x0 DUP1 REVERT JUMPDEST PUSH1 0x0 DUP1 REVERT JUMPDEST PUSH1 0x0 PUSH4 0xFFFFFFFF DUP3 AND SWAP1 POP SWAP2 SWAP1 POP JUMP JUMPDEST PUSH2 0x2443 DUP2 PUSH2 0x242A JUMP JUMPDEST DUP2 EQ PUSH2 0x244E JUMPI PUSH1 0x0 DUP1 REVERT JUMPDEST POP JUMP JUMPDEST PUSH1 0x0 DUP2 CALLDATALOAD SWAP1 POP PUSH2 0x2460 DUP2 PUSH2 0x243A JUMP JUMPDEST SWAP3 SWAP2 POP POP JUMP JUMPDEST PUSH1 0x0 PUSH1 0x20 DUP3 DUP5 SUB SLT ISZERO PUSH2 0x247C JUMPI PUSH2 0x247B PUSH2 0x2420 JUMP JUMPDEST JUMPDEST PUSH1 0x0 PUSH2 0x248A DUP5 DUP3 DUP6 ADD PUSH2 0x2451 JUMP JUMPDEST SWAP2 POP POP SWAP3 SWAP2 POP POP JUMP JUMPDEST PUSH1 0x0 PUSH20 0xFFFFFFFFFFFFFFFFFFFFFFFFFFFFFFFFFFFFFFFF DUP3 AND SWAP1 POP SWAP2 SWAP1 POP JUMP JUMPDEST PUSH1 0x0 PUSH2 0x24BE DUP3 PUSH2 0x2493 JUMP JUMPDEST SWAP1 POP SWAP2 SWAP1 POP JUMP JUMPDEST PUSH2 0x24CE DUP2 PUSH2 0x24B3 JUMP JUMPDEST DUP2 EQ PUSH2 0x24D9 JUMPI PUSH1 0x0 DUP1 REVERT JUMPDEST POP JUMP JUMPDEST PUSH1 0x0 DUP2 CALLDATALOAD SWAP1 POP PUSH2 0x24EB DUP2 PUSH2 0x24C5 JUMP JUMPDEST SWAP3 SWAP2 POP POP JUMP JUMPDEST PUSH2 0x24FA DUP2 PUSH2 0x23EC JUMP JUMPDEST DUP2 EQ PUSH2 0x2505 JUMPI PUSH1 0x0 DUP1 REVERT JUMPDEST POP JUMP JUMPDEST PUSH1 0x0 DUP2 CALLDATALOAD SWAP1 POP PUSH2 0x2517 DUP2 PUSH2 0x24F1 JUMP JUMPDEST SWAP3 SWAP2 POP POP JUMP JUMPDEST PUSH1 0x0 DUP1 PUSH1 0x40 DUP4 DUP6 SUB SLT ISZERO PUSH2 0x2534 JUMPI PUSH2 0x2533 PUSH2 0x2420 JUMP JUMPDEST JUMPDEST PUSH1 0x0 PUSH2 0x2542 DUP6 DUP3 DUP7 ADD PUSH2 0x24DC JUMP JUMPDEST SWAP3 POP POP PUSH1 0x20 PUSH2 0x2553 DUP6 DUP3 DUP7 ADD PUSH2 0x2508 JUMP JUMPDEST SWAP2 POP POP SWAP3 POP SWAP3 SWAP1 POP JUMP JUMPDEST PUSH1 0x0 PUSH2 0x2568 DUP3 PUSH2 0x2493 JUMP JUMPDEST SWAP1 POP SWAP2 SWAP1 POP JUMP JUMPDEST PUSH2 0x2578 DUP2 PUSH2 0x255D JUMP JUMPDEST DUP3 MSTORE POP POP JUMP JUMPDEST PUSH1 0x0 PUSH1 0x20 DUP3 ADD SWAP1 POP PUSH2 0x2593 PUSH1 0x0 DUP4 ADD DUP5 PUSH2 0x256F JUMP JUMPDEST SWAP3 SWAP2 POP POP JUMP JUMPDEST PUSH1 0x0 PUSH2 0x25A4 DUP3 PUSH2 0x255D JUMP JUMPDEST SWAP1 POP SWAP2 SWAP1 POP JUMP JUMPDEST PUSH2 0x25B4 DUP2 PUSH2 0x2599 JUMP JUMPDEST DUP2 EQ PUSH2 0x25BF JUMPI PUSH1 0x0 DUP1 REVERT JUMPDEST POP JUMP JUMPDEST PUSH1 0x0 DUP2 CALLDATALOAD SWAP1 POP PUSH2 0x25D1 DUP2 PUSH2 0x25AB JUMP JUMPDEST SWAP3 SWAP2 POP POP JUMP JUMPDEST PUSH2 0x25E0 DUP2 PUSH2 0x255D JUMP JUMPDEST DUP2 EQ PUSH2 0x25EB JUMPI PUSH1 0x0 DUP1 REVERT JUMPDEST POP JUMP JUMPDEST PUSH1 0x0 DUP2 CALLDATALOAD SWAP1 POP PUSH2 0x25FD DUP2 PUSH2 0x25D7 JUMP JUMPDEST SWAP3 SWAP2 POP POP JUMP JUMPDEST PUSH1 0x0 DUP1 PUSH1 0x0 PUSH1 0x60 DUP5 DUP7 SUB SLT ISZERO PUSH2 0x261C JUMPI PUSH2 0x261B PUSH2 0x2420 JUMP JUMPDEST JUMPDEST PUSH1 0x0 PUSH2 0x262A DUP7 DUP3 DUP8 ADD PUSH2 0x25C2 JUMP JUMPDEST SWAP4 POP POP PUSH1 0x20 PUSH2 0x263B DUP7 DUP3 DUP8 ADD PUSH2 0x25EE JUMP JUMPDEST SWAP3 POP POP PUSH1 0x40 PUSH2 0x264C DUP7 DUP3 DUP8 ADD PUSH2 0x2508 JUMP JUMPDEST SWAP2 POP POP SWAP3 POP SWAP3 POP SWAP3 JUMP JUMPDEST PUSH1 0x0 DUP1 PUSH1 0x40 DUP4 DUP6 SUB SLT ISZERO PUSH2 0x266D JUMPI PUSH2 0x266C PUSH2 0x2420 JUMP JUMPDEST JUMPDEST PUSH1 0x0 PUSH2 0x267B DUP6 DUP3 DUP7 ADD PUSH2 0x25C2 JUMP JUMPDEST SWAP3 POP POP PUSH1 0x20 PUSH2 0x268C DUP6 DUP3 DUP7 ADD PUSH2 0x25EE JUMP JUMPDEST SWAP2 POP POP SWAP3 POP SWAP3 SWAP1 POP JUMP JUMPDEST PUSH1 0x0 DUP1 REVERT JUMPDEST PUSH1 0x0 DUP1 REVERT JUMPDEST PUSH1 0x0 DUP1 REVERT JUMPDEST PUSH1 0x0 DUP1 DUP4 PUSH1 0x1F DUP5 ADD SLT PUSH2 0x26BB JUMPI PUSH2 0x26BA PUSH2 0x2696 JUMP JUMPDEST JUMPDEST DUP3 CALLDATALOAD SWAP1 POP PUSH8 0xFFFFFFFFFFFFFFFF DUP2 GT ISZERO PUSH2 0x26D8 JUMPI PUSH2 0x26D7 PUSH2 0x269B JUMP JUMPDEST JUMPDEST PUSH1 0x20 DUP4 ADD SWAP2 POP DUP4 PUSH1 0x20 DUP3 MUL DUP4 ADD GT ISZERO PUSH2 0x26F4 JUMPI PUSH2 0x26F3 PUSH2 0x26A0 JUMP JUMPDEST JUMPDEST SWAP3 POP SWAP3 SWAP1 POP JUMP JUMPDEST PUSH1 0x0 DUP1 DUP4 PUSH1 0x1F DUP5 ADD SLT PUSH2 0x2711 JUMPI PUSH2 0x2710 PUSH2 0x2696 JUMP JUMPDEST JUMPDEST DUP3 CALLDATALOAD SWAP1 POP PUSH8 0xFFFFFFFFFFFFFFFF DUP2 GT ISZERO PUSH2 0x272E JUMPI PUSH2 0x272D PUSH2 0x269B JUMP JUMPDEST JUMPDEST PUSH1 0x20 DUP4 ADD SWAP2 POP DUP4 PUSH1 0x20 DUP3 MUL DUP4 ADD GT ISZERO PUSH2 0x274A JUMPI PUSH2 0x2749 PUSH2 0x26A0 JUMP JUMPDEST JUMPDEST SWAP3 POP SWAP3 SWAP1 POP JUMP JUMPDEST PUSH1 0x0 DUP1 PUSH1 0x0 DUP1 PUSH1 0x0 PUSH1 0x60 DUP7 DUP9 SUB SLT ISZERO PUSH2 0x276D JUMPI PUSH2 0x276C PUSH2 0x2420 JUMP JUMPDEST JUMPDEST PUSH1 0x0 DUP7 ADD CALLDATALOAD PUSH8 0xFFFFFFFFFFFFFFFF DUP2 GT ISZERO PUSH2 0x278B JUMPI PUSH2 0x278A PUSH2 0x2425 JUMP JUMPDEST JUMPDEST PUSH2 0x2797 DUP9 DUP3 DUP10 ADD PUSH2 0x26A5 JUMP JUMPDEST SWAP6 POP SWAP6 POP POP PUSH1 0x20 PUSH2 0x27AA DUP9 DUP3 DUP10 ADD PUSH2 0x25EE JUMP JUMPDEST SWAP4 POP POP PUSH1 0x40 DUP7 ADD CALLDATALOAD PUSH8 0xFFFFFFFFFFFFFFFF DUP2 GT ISZERO PUSH2 0x27CB JUMPI PUSH2 0x27CA PUSH2 0x2425 JUMP JUMPDEST JUMPDEST PUSH2 0x27D7 DUP9 DUP3 DUP10 ADD PUSH2 0x26FB JUMP JUMPDEST SWAP3 POP SWAP3 POP POP SWAP3 SWAP6 POP SWAP3 SWAP6 SWAP1 SWAP4 POP JUMP JUMPDEST PUSH1 0x0 DUP1 PUSH1 0x0 PUSH1 0x40 DUP5 DUP7 SUB SLT ISZERO PUSH2 0x27FF JUMPI PUSH2 0x27FE PUSH2 0x2420 JUMP JUMPDEST JUMPDEST PUSH1 0x0 DUP5 ADD CALLDATALOAD PUSH8 0xFFFFFFFFFFFFFFFF DUP2 GT ISZERO PUSH2 0x281D JUMPI PUSH2 0x281C PUSH2 0x2425 JUMP JUMPDEST JUMPDEST PUSH2 0x2829 DUP7 DUP3 DUP8 ADD PUSH2 0x26A5 JUMP JUMPDEST SWAP4 POP SWAP4 POP POP PUSH1 0x20 PUSH2 0x283C DUP7 DUP3 DUP8 ADD PUSH2 0x25EE JUMP JUMPDEST SWAP2 POP POP SWAP3 POP SWAP3 POP SWAP3 JUMP JUMPDEST PUSH1 0x0 DUP1 DUP4 PUSH1 0x1F DUP5 ADD SLT PUSH2 0x285C JUMPI PUSH2 0x285B PUSH2 0x2696 JUMP JUMPDEST JUMPDEST DUP3 CALLDATALOAD SWAP1 POP PUSH8 0xFFFFFFFFFFFFFFFF DUP2 GT ISZERO PUSH2 0x2879 JUMPI PUSH2 0x2878 PUSH2 0x269B JUMP JUMPDEST JUMPDEST PUSH1 0x20 DUP4 ADD SWAP2 POP DUP4 PUSH1 0x1 DUP3 MUL DUP4 ADD GT ISZERO PUSH2 0x2895 JUMPI PUSH2 0x2894 PUSH2 0x26A0 JUMP JUMPDEST JUMPDEST SWAP3 POP SWAP3 SWAP1 POP JUMP JUMPDEST PUSH1 0x0 DUP1 PUSH1 0x20 DUP4 DUP6 SUB SLT ISZERO PUSH2 0x28B3 JUMPI PUSH2 0x28B2 PUSH2 0x2420 JUMP JUMPDEST JUMPDEST PUSH1 0x0 DUP4 ADD CALLDATALOAD PUSH8 0xFFFFFFFFFFFFFFFF DUP2 GT ISZERO PUSH2 0x28D1 JUMPI PUSH2 0x28D0 PUSH2 0x2425 JUMP JUMPDEST JUMPDEST PUSH2 0x28DD DUP6 DUP3 DUP7 ADD PUSH2 0x2846 JUMP JUMPDEST SWAP3 POP SWAP3 POP POP SWAP3 POP SWAP3 SWAP1 POP JUMP JUMPDEST PUSH32 0x4E487B7100000000000000000000000000000000000000000000000000000000 PUSH1 0x0 MSTORE PUSH1 0x21 PUSH1 0x4 MSTORE PUSH1 0x24 PUSH1 0x0 REVERT JUMPDEST PUSH1 0x2 DUP2 LT PUSH2 0x2929 JUMPI PUSH2 0x2928 PUSH2 0x28E9 JUMP JUMPDEST JUMPDEST POP JUMP JUMPDEST PUSH1 0x0 DUP2 SWAP1 POP PUSH2 0x293A DUP3 PUSH2 0x2918 JUMP JUMPDEST SWAP2 SWAP1 POP JUMP JUMPDEST PUSH1 0x0 PUSH2 0x294A DUP3 PUSH2 0x292C JUMP JUMPDEST SWAP1 POP SWAP2 SWAP1 POP JUMP JUMPDEST PUSH2 0x295A DUP2 PUSH2 0x293F JUMP JUMPDEST DUP3 MSTORE POP POP JUMP JUMPDEST PUSH1 0x0 PUSH6 0xFFFFFFFFFFFF DUP3 AND SWAP1 POP SWAP2 SWAP1 POP JUMP JUMPDEST PUSH2 0x297B DUP2 PUSH2 0x2960 JUMP JUMPDEST DUP3 MSTORE POP POP JUMP JUMPDEST PUSH2 0x298A DUP2 PUSH2 0x255D JUMP JUMPDEST DUP3 MSTORE POP POP JUMP JUMPDEST PUSH2 0x2999 DUP2 PUSH2 0x23EC JUMP JUMPDEST DUP3 MSTORE POP POP JUMP JUMPDEST PUSH2 0x29A8 DUP2 PUSH2 0x242A JUMP JUMPDEST DUP3 MSTORE POP POP JUMP JUMPDEST PUSH1 0x0 DUP2 MLOAD SWAP1 POP SWAP2 SWAP1 POP JUMP JUMPDEST PUSH1 0x0 DUP3 DUP3 MSTORE PUSH1 0x20 DUP3 ADD SWAP1 POP SWAP3 SWAP2 POP POP JUMP JUMPDEST PUSH1 0x0 JUMPDEST DUP4 DUP2 LT ISZERO PUSH2 0x29E8 JUMPI DUP1 DUP3 ADD MLOAD DUP2 DUP5 ADD MSTORE PUSH1 0x20 DUP2 ADD SWAP1 POP PUSH2 0x29CD JUMP JUMPDEST PUSH1 0x0 DUP5 DUP5 ADD MSTORE POP POP POP POP JUMP JUMPDEST PUSH1 0x0 PUSH1 0x1F NOT PUSH1 0x1F DUP4 ADD AND SWAP1 POP SWAP2 SWAP1 POP JUMP JUMPDEST PUSH1 0x0 PUSH2 0x2A10 DUP3 PUSH2 0x29AE JUMP JUMPDEST PUSH2 0x2A1A DUP2 DUP6 PUSH2 0x29B9 JUMP JUMPDEST SWAP4 POP PUSH2 0x2A2A DUP2 DUP6 PUSH1 0x20 DUP7 ADD PUSH2 0x29CA JUMP JUMPDEST PUSH2 0x2A33 DUP2 PUSH2 0x29F4 JUMP JUMPDEST DUP5 ADD SWAP2 POP POP SWAP3 SWAP2 POP POP JUMP JUMPDEST PUSH1 0x0 PUSH2 0x100 DUP4 ADD PUSH1 0x0 DUP4 ADD MLOAD PUSH2 0x2A57 PUSH1 0x0 DUP7 ADD DUP3 PUSH2 0x2951 JUMP JUMPDEST POP PUSH1 0x20 DUP4 ADD MLOAD PUSH2 0x2A6A PUSH1 0x20 DUP7 ADD DUP3 PUSH2 0x2972 JUMP JUMPDEST POP PUSH1 0x40 DUP4 ADD MLOAD PUSH2 0x2A7D PUSH1 0x40 DUP7 ADD DUP3 PUSH2 0x2972 JUMP JUMPDEST POP PUSH1 0x60 DUP4 ADD MLOAD PUSH2 0x2A90 PUSH1 0x60 DUP7 ADD DUP3 PUSH2 0x2981 JUMP JUMPDEST POP PUSH1 0x80 DUP4 ADD MLOAD PUSH2 0x2AA3 PUSH1 0x80 DUP7 ADD DUP3 PUSH2 0x2981 JUMP JUMPDEST POP PUSH1 0xA0 DUP4 ADD MLOAD PUSH2 0x2AB6 PUSH1 0xA0 DUP7 ADD DUP3 PUSH2 0x2990 JUMP JUMPDEST POP PUSH1 0xC0 DUP4 ADD MLOAD PUSH2 0x2AC9 PUSH1 0xC0 DUP7 ADD DUP3 PUSH2 0x299F JUMP JUMPDEST POP PUSH1 0xE0 DUP4 ADD MLOAD DUP5 DUP3 SUB PUSH1 0xE0 DUP7 ADD MSTORE PUSH2 0x2AE1 DUP3 DUP3 PUSH2 0x2A05 JUMP JUMPDEST SWAP2 POP POP DUP1 SWAP2 POP POP SWAP3 SWAP2 POP POP JUMP JUMPDEST PUSH1 0x0 PUSH1 0x20 DUP3 ADD SWAP1 POP DUP2 DUP2 SUB PUSH1 0x0 DUP4 ADD MSTORE PUSH2 0x2B08 DUP2 DUP5 PUSH2 0x2A3E JUMP JUMPDEST SWAP1 POP SWAP3 SWAP2 POP POP JUMP JUMPDEST PUSH1 0x3 DUP2 LT PUSH2 0x2B1D JUMPI PUSH1 0x0 DUP1 REVERT JUMPDEST POP JUMP JUMPDEST PUSH1 0x0 DUP2 CALLDATALOAD SWAP1 POP PUSH2 0x2B2F DUP2 PUSH2 0x2B10 JUMP JUMPDEST SWAP3 SWAP2 POP POP JUMP JUMPDEST PUSH1 0x0 DUP1 PUSH1 0x0 DUP1 PUSH1 0x60 DUP6 DUP8 SUB SLT ISZERO PUSH2 0x2B4F JUMPI PUSH2 0x2B4E PUSH2 0x2420 JUMP JUMPDEST JUMPDEST PUSH1 0x0 PUSH2 0x2B5D DUP8 DUP3 DUP9 ADD PUSH2 0x2B20 JUMP JUMPDEST SWAP5 POP POP PUSH1 0x20 DUP6 ADD CALLDATALOAD PUSH8 0xFFFFFFFFFFFFFFFF DUP2 GT ISZERO PUSH2 0x2B7E JUMPI PUSH2 0x2B7D PUSH2 0x2425 JUMP JUMPDEST JUMPDEST PUSH2 0x2B8A DUP8 DUP3 DUP9 ADD PUSH2 0x2846 JUMP JUMPDEST SWAP4 POP SWAP4 POP POP PUSH1 0x40 PUSH2 0x2B9D DUP8 DUP3 DUP9 ADD PUSH2 0x2508 JUMP JUMPDEST SWAP2 POP POP SWAP3 SWAP6 SWAP2 SWAP5 POP SWAP3 POP JUMP JUMPDEST PUSH1 0x0 DUP2 SWAP1 POP SWAP2 SWAP1 POP JUMP JUMPDEST PUSH1 0x0 PUSH2 0x2BCE PUSH2 0x2BC9 PUSH2 0x2BC4 DUP5 PUSH2 0x2493 JUMP JUMPDEST PUSH2 0x2BA9 JUMP JUMPDEST PUSH2 0x2493 JUMP JUMPDEST SWAP1 POP SWAP2 SWAP1 POP JUMP JUMPDEST PUSH1 0x0 PUSH2 0x2BE0 DUP3 PUSH2 0x2BB3 JUMP JUMPDEST SWAP1 POP SWAP2 SWAP1 POP JUMP JUMPDEST PUSH1 0x0 PUSH2 0x2BF2 DUP3 PUSH2 0x2BD5 JUMP JUMPDEST SWAP1 POP SWAP2 SWAP1 POP JUMP JUMPDEST PUSH2 0x2C02 DUP2 PUSH2 0x2BE7 JUMP JUMPDEST DUP3 MSTORE POP POP JUMP JUMPDEST PUSH1 0x0 PUSH1 0x20 DUP3 ADD SWAP1 POP PUSH2 0x2C1D PUSH1 0x0 DUP4 ADD DUP5 PUSH2 0x2BF9 JUMP JUMPDEST SWAP3 SWAP2 POP POP JUMP JUMPDEST PUSH1 0x0 PUSH1 0x20 DUP3 DUP5 SUB SLT ISZERO PUSH2 0x2C39 JUMPI PUSH2 0x2C38 PUSH2 0x2420 JUMP JUMPDEST JUMPDEST PUSH1 0x0 PUSH2 0x2C47 DUP5 DUP3 DUP6 ADD PUSH2 0x24DC JUMP JUMPDEST SWAP2 POP POP SWAP3 SWAP2 POP POP JUMP JUMPDEST PUSH1 0x0 DUP1 REVERT JUMPDEST PUSH1 0x0 PUSH2 0x160 DUP3 DUP5 SUB SLT ISZERO PUSH2 0x2C6C JUMPI PUSH2 0x2C6B PUSH2 0x2C50 JUMP JUMPDEST JUMPDEST DUP2 SWAP1 POP SWAP3 SWAP2 POP POP JUMP JUMPDEST PUSH1 0x2 DUP2 LT PUSH2 0x2C82 JUMPI PUSH1 0x0 DUP1 REVERT JUMPDEST POP JUMP JUMPDEST PUSH1 0x0 DUP2 CALLDATALOAD SWAP1 POP PUSH2 0x2C94 DUP2 PUSH2 0x2C75 JUMP JUMPDEST SWAP3 SWAP2 POP POP JUMP JUMPDEST PUSH2 0x2CA3 DUP2 PUSH2 0x2960 JUMP JUMPDEST DUP2 EQ PUSH2 0x2CAE JUMPI PUSH1 0x0 DUP1 REVERT JUMPDEST POP JUMP JUMPDEST PUSH1 0x0 DUP2 CALLDATALOAD SWAP1 POP PUSH2 0x2CC0 DUP2 PUSH2 0x2C9A JUMP JUMPDEST SWAP3 SWAP2 POP POP JUMP JUMPDEST PUSH1 0x0 DUP1 PUSH1 0x0 DUP1 PUSH1 0x0 DUP1 PUSH1 0x0 DUP1 PUSH2 0x100 DUP10 DUP12 SUB SLT ISZERO PUSH2 0x2CE7 JUMPI PUSH2 0x2CE6 PUSH2 0x2420 JUMP JUMPDEST JUMPDEST PUSH1 0x0 DUP10 ADD CALLDATALOAD PUSH8 0xFFFFFFFFFFFFFFFF DUP2 GT ISZERO PUSH2 0x2D05 JUMPI PUSH2 0x2D04 PUSH2 0x2425 JUMP JUMPDEST JUMPDEST PUSH2 0x2D11 DUP12 DUP3 DUP13 ADD PUSH2 0x2C55 JUMP JUMPDEST SWAP9 POP POP PUSH1 0x20 PUSH2 0x2D22 DUP12 DUP3 DUP13 ADD PUSH2 0x2C85 JUMP JUMPDEST SWAP8 POP POP PUSH1 0x40 PUSH2 0x2D33 DUP12 DUP3 DUP13 ADD PUSH2 0x2CB1 JUMP JUMPDEST SWAP7 POP POP PUSH1 0x60 PUSH2 0x2D44 DUP12 DUP3 DUP13 ADD PUSH2 0x2CB1 JUMP JUMPDEST SWAP6 POP POP PUSH1 0x80 PUSH2 0x2D55 DUP12 DUP3 DUP13 ADD PUSH2 0x25EE JUMP JUMPDEST SWAP5 POP POP PUSH1 0xA0 PUSH2 0x2D66 DUP12 DUP3 DUP13 ADD PUSH2 0x25EE JUMP JUMPDEST SWAP4 POP POP PUSH1 0xC0 PUSH2 0x2D77 DUP12 DUP3 DUP13 ADD PUSH2 0x2508 JUMP JUMPDEST SWAP3 POP POP PUSH1 0xE0 PUSH2 0x2D88 DUP12 DUP3 DUP13 ADD PUSH2 0x2451 JUMP JUMPDEST SWAP2 POP POP SWAP3 SWAP6 SWAP9 POP SWAP3 SWAP6 SWAP9 SWAP1 SWAP4 SWAP7 POP JUMP JUMPDEST PUSH1 0x0 DUP2 SWAP1 POP SWAP2 SWAP1 POP JUMP JUMPDEST PUSH2 0x2DAB DUP2 PUSH2 0x2D98 JUMP JUMPDEST DUP3 MSTORE POP POP JUMP JUMPDEST PUSH1 0x0 PUSH1 0x20 DUP3 ADD SWAP1 POP PUSH2 0x2DC6 PUSH1 0x0 DUP4 ADD DUP5 PUSH2 0x2DA2 JUMP JUMPDEST SWAP3 SWAP2 POP POP JUMP JUMPDEST PUSH1 0x0 PUSH1 0x20 DUP3 DUP5 SUB SLT ISZERO PUSH2 0x2DE2 JUMPI PUSH2 0x2DE1 PUSH2 0x2420 JUMP JUMPDEST JUMPDEST PUSH1 0x0 PUSH2 0x2DF0 DUP5 DUP3 DUP6 ADD PUSH2 0x25EE JUMP JUMPDEST SWAP2 POP POP SWAP3 SWAP2 POP POP JUMP JUMPDEST PUSH1 0x0 PUSH1 0x20 DUP3 DUP5 SUB SLT ISZERO PUSH2 0x2E0F JUMPI PUSH2 0x2E0E PUSH2 0x2420 JUMP JUMPDEST JUMPDEST PUSH1 0x0 PUSH2 0x2E1D DUP5 DUP3 DUP6 ADD PUSH2 0x2508 JUMP JUMPDEST SWAP2 POP POP SWAP3 SWAP2 POP POP JUMP JUMPDEST PUSH2 0x2E2F DUP2 PUSH2 0x2D98 JUMP JUMPDEST DUP2 EQ PUSH2 0x2E3A JUMPI PUSH1 0x0 DUP1 REVERT JUMPDEST POP JUMP JUMPDEST PUSH1 0x0 DUP2 CALLDATALOAD SWAP1 POP PUSH2 0x2E4C DUP2 PUSH2 0x2E26 JUMP JUMPDEST SWAP3 SWAP2 POP POP JUMP JUMPDEST PUSH1 0x0 DUP1 PUSH1 0x0 PUSH1 0x60 DUP5 DUP7 SUB SLT ISZERO PUSH2 0x2E6B JUMPI PUSH2 0x2E6A PUSH2 0x2420 JUMP JUMPDEST JUMPDEST PUSH1 0x0 DUP5 ADD CALLDATALOAD PUSH8 0xFFFFFFFFFFFFFFFF DUP2 GT ISZERO PUSH2 0x2E89 JUMPI PUSH2 0x2E88 PUSH2 0x2425 JUMP JUMPDEST JUMPDEST PUSH2 0x2E95 DUP7 DUP3 DUP8 ADD PUSH2 0x2C55 JUMP JUMPDEST SWAP4 POP POP PUSH1 0x20 PUSH2 0x2EA6 DUP7 DUP3 DUP8 ADD PUSH2 0x2E3D JUMP JUMPDEST SWAP3 POP POP PUSH1 0x40 PUSH2 0x2EB7 DUP7 DUP3 DUP8 ADD PUSH2 0x2508 JUMP JUMPDEST SWAP2 POP POP SWAP3 POP SWAP3 POP SWAP3 JUMP JUMPDEST PUSH1 0x0 DUP3 DUP3 MSTORE PUSH1 0x20 DUP3 ADD SWAP1 POP SWAP3 SWAP2 POP POP JUMP JUMPDEST PUSH1 0x0 PUSH2 0x2EDD DUP3 PUSH2 0x29AE JUMP JUMPDEST PUSH2 0x2EE7 DUP2 DUP6 PUSH2 0x2EC1 JUMP JUMPDEST SWAP4 POP PUSH2 0x2EF7 DUP2 DUP6 PUSH1 0x20 DUP7 ADD PUSH2 0x29CA JUMP JUMPDEST PUSH2 0x2F00 DUP2 PUSH2 0x29F4 JUMP JUMPDEST DUP5 ADD SWAP2 POP POP SWAP3 SWAP2 POP POP JUMP JUMPDEST PUSH1 0x0 PUSH1 0x40 DUP3 ADD SWAP1 POP DUP2 DUP2 SUB PUSH1 0x0 DUP4 ADD MSTORE PUSH2 0x2F25 DUP2 DUP6 PUSH2 0x2ED2 JUMP JUMPDEST SWAP1 POP PUSH2 0x2F34 PUSH1 0x20 DUP4 ADD DUP5 PUSH2 0x23F6 JUMP JUMPDEST SWAP4 SWAP3 POP POP POP JUMP JUMPDEST PUSH2 0x2F44 DUP2 PUSH2 0x242A JUMP JUMPDEST DUP3 MSTORE POP POP JUMP JUMPDEST PUSH1 0x0 PUSH1 0x20 DUP3 ADD SWAP1 POP PUSH2 0x2F5F PUSH1 0x0 DUP4 ADD DUP5 PUSH2 0x2F3B JUMP JUMPDEST SWAP3 SWAP2 POP POP JUMP JUMPDEST PUSH2 0x2F6E DUP2 PUSH2 0x24B3 JUMP JUMPDEST DUP3 MSTORE POP POP JUMP JUMPDEST PUSH1 0x0 PUSH1 0x40 DUP3 ADD SWAP1 POP PUSH2 0x2F89 PUSH1 0x0 DUP4 ADD DUP6 PUSH2 0x2F65 JUMP JUMPDEST PUSH2 0x2F96 PUSH1 0x20 DUP4 ADD DUP5 PUSH2 0x23F6 JUMP JUMPDEST SWAP4 SWAP3 POP POP POP JUMP JUMPDEST PUSH1 0x0 DUP2 MLOAD SWAP1 POP PUSH2 0x2FAC DUP2 PUSH2 0x24F1 JUMP JUMPDEST SWAP3 SWAP2 POP POP JUMP JUMPDEST PUSH1 0x0 PUSH1 0x20 DUP3 DUP5 SUB SLT ISZERO PUSH2 0x2FC8 JUMPI PUSH2 0x2FC7 PUSH2 0x2420 JUMP JUMPDEST JUMPDEST PUSH1 0x0 PUSH2 0x2FD6 DUP5 DUP3 DUP6 ADD PUSH2 0x2F9D JUMP JUMPDEST SWAP2 POP POP SWAP3 SWAP2 POP POP JUMP JUMPDEST PUSH32 0x4E487B7100000000000000000000000000000000000000000000000000000000 PUSH1 0x0 MSTORE PUSH1 0x32 PUSH1 0x4 MSTORE PUSH1 0x24 PUSH1 0x0 REVERT JUMPDEST PUSH1 0x0 PUSH1 0x20 DUP3 DUP5 SUB SLT ISZERO PUSH2 0x3024 JUMPI PUSH2 0x3023 PUSH2 0x2420 JUMP JUMPDEST JUMPDEST PUSH1 0x0 PUSH2 0x3032 DUP5 DUP3 DUP6 ADD PUSH2 0x25C2 JUMP JUMPDEST SWAP2 POP POP SWAP3 SWAP2 POP POP JUMP JUMPDEST PUSH1 0x0 DUP3 DUP3 MSTORE PUSH1 0x20 DUP3 ADD SWAP1 POP SWAP3 SWAP2 POP POP JUMP JUMPDEST PUSH32 0x4254504D3A20496E76616C6964206C656E67746820666F72207061796D617374 PUSH1 0x0 DUP3 ADD MSTORE PUSH32 0x6572416E64446174610000000000000000000000000000000000000000000000 PUSH1 0x20 DUP3 ADD MSTORE POP JUMP JUMPDEST PUSH1 0x0 PUSH2 0x30A8 PUSH1 0x29 DUP4 PUSH2 0x303B JUMP JUMPDEST SWAP2 POP PUSH2 0x30B3 DUP3 PUSH2 0x304C JUMP JUMPDEST PUSH1 0x40 DUP3 ADD SWAP1 POP SWAP2 SWAP1 POP JUMP JUMPDEST PUSH1 0x0 PUSH1 0x20 DUP3 ADD SWAP1 POP DUP2 DUP2 SUB PUSH1 0x0 DUP4 ADD MSTORE PUSH2 0x30D7 DUP2 PUSH2 0x309B JUMP JUMPDEST SWAP1 POP SWAP2 SWAP1 POP JUMP JUMPDEST PUSH32 0x4E487B7100000000000000000000000000000000000000000000000000000000 PUSH1 0x0 MSTORE PUSH1 0x11 PUSH1 0x4 MSTORE PUSH1 0x24 PUSH1 0x0 REVERT JUMPDEST PUSH1 0x0 PUSH2 0x3118 DUP3 PUSH2 0x23EC JUMP JUMPDEST SWAP2 POP PUSH2 0x3123 DUP4 PUSH2 0x23EC JUMP JUMPDEST SWAP3 POP DUP3 DUP3 SUB SWAP1 POP DUP2 DUP2 GT ISZERO PUSH2 0x313B JUMPI PUSH2 0x313A PUSH2 0x30DE JUMP JUMPDEST JUMPDEST SWAP3 SWAP2 POP POP JUMP JUMPDEST PUSH1 0x0 DUP1 REVERT JUMPDEST PUSH1 0x0 DUP1 REVERT JUMPDEST PUSH1 0x0 DUP1 DUP6 DUP6 GT ISZERO PUSH2 0x315F JUMPI PUSH2 0x315E PUSH2 0x3141 JUMP JUMPDEST JUMPDEST DUP4 DUP7 GT ISZERO PUSH2 0x3170 JUMPI PUSH2 0x316F PUSH2 0x3146 JUMP JUMPDEST JUMPDEST PUSH1 0x1 DUP6 MUL DUP4 ADD SWAP2 POP DUP5 DUP7 SUB SWAP1 POP SWAP5 POP SWAP5 SWAP3 POP POP POP JUMP JUMPDEST PUSH1 0x0 DUP3 SWAP1 POP SWAP3 SWAP2 POP POP JUMP JUMPDEST PUSH1 0x0 PUSH32 0xFF00000000000000000000000000000000000000000000000000000000000000 DUP3 AND SWAP1 POP SWAP2 SWAP1 POP JUMP JUMPDEST PUSH1 0x0 DUP3 DUP3 SHL SWAP1 POP SWAP3 SWAP2 POP POP JUMP JUMPDEST PUSH1 0x0 PUSH2 0x31D6 DUP4 DUP4 PUSH2 0x3186 JUMP JUMPDEST DUP3 PUSH2 0x31E1 DUP2 CALLDATALOAD PUSH2 0x3191 JUMP JUMPDEST SWAP3 POP PUSH1 0x1 DUP3 LT ISZERO PUSH2 0x3221 JUMPI PUSH2 0x321C PUSH32 0xFF00000000000000000000000000000000000000000000000000000000000000 DUP4 PUSH1 0x1 SUB PUSH1 0x8 MUL PUSH2 0x31BD JUMP JUMPDEST DUP4 AND SWAP3 POP JUMPDEST POP POP SWAP3 SWAP2 POP POP JUMP JUMPDEST PUSH1 0x0 DUP1 PUSH1 0x0 DUP1 PUSH1 0x0 DUP1 PUSH1 0xC0 DUP8 DUP10 SUB SLT ISZERO PUSH2 0x3246 JUMPI PUSH2 0x3245 PUSH2 0x2420 JUMP JUMPDEST JUMPDEST PUSH1 0x0 PUSH2 0x3254 DUP10 DUP3 DUP11 ADD PUSH2 0x2CB1 JUMP JUMPDEST SWAP7 POP POP PUSH1 0x20 PUSH2 0x3265 DUP10 DUP3 DUP11 ADD PUSH2 0x2CB1 JUMP JUMPDEST SWAP6 POP POP PUSH1 0x40 PUSH2 0x3276 DUP10 DUP3 DUP11 ADD PUSH2 0x24DC JUMP JUMPDEST SWAP5 POP POP PUSH1 0x60 PUSH2 0x3287 DUP10 DUP3 DUP11 ADD PUSH2 0x24DC JUMP JUMPDEST SWAP4 POP POP PUSH1 0x80 PUSH2 0x3298 DUP10 DUP3 DUP11 ADD PUSH2 0x2508 JUMP JUMPDEST SWAP3 POP POP PUSH1 0xA0 PUSH2 0x32A9 DUP10 DUP3 DUP11 ADD PUSH2 0x2451 JUMP JUMPDEST SWAP2 POP POP SWAP3 SWAP6 POP SWAP3 SWAP6 POP SWAP3 SWAP6 JUMP JUMPDEST PUSH1 0x0 PUSH1 0x20 DUP3 ADD SWAP1 POP PUSH2 0x32CB PUSH1 0x0 DUP4 ADD DUP5 PUSH2 0x2F65 JUMP JUMPDEST SWAP3 SWAP2 POP POP JUMP JUMPDEST PUSH2 0x32DA DUP2 PUSH2 0x293F JUMP JUMPDEST DUP3 MSTORE POP POP JUMP JUMPDEST PUSH2 0x32E9 DUP2 PUSH2 0x2960 JUMP JUMPDEST DUP3 MSTORE POP POP JUMP JUMPDEST PUSH1 0x0 PUSH2 0x140 DUP3 ADD SWAP1 POP DUP2 DUP2 SUB PUSH1 0x0 DUP4 ADD MSTORE PUSH2 0x330A DUP2 DUP14 PUSH2 0x2ED2 JUMP JUMPDEST SWAP1 POP PUSH2 0x3319 PUSH1 0x20 DUP4 ADD DUP13 PUSH2 0x23F6 JUMP JUMPDEST PUSH2 0x3326 PUSH1 0x40 DUP4 ADD DUP12 PUSH2 0x256F JUMP JUMPDEST PUSH2 0x3333 PUSH1 0x60 DUP4 ADD DUP11 PUSH2 0x32D1 JUMP JUMPDEST PUSH2 0x3340 PUSH1 0x80 DUP4 ADD DUP10 PUSH2 0x32E0 JUMP JUMPDEST PUSH2 0x334D PUSH1 0xA0 DUP4 ADD DUP9 PUSH2 0x32E0 JUMP JUMPDEST PUSH2 0x335A PUSH1 0xC0 DUP4 ADD DUP8 PUSH2 0x256F JUMP JUMPDEST PUSH2 0x3367 PUSH1 0xE0 DUP4 ADD DUP7 PUSH2 0x256F JUMP JUMPDEST PUSH2 0x3375 PUSH2 0x100 DUP4 ADD DUP6 PUSH2 0x23F6 JUMP JUMPDEST PUSH2 0x3383 PUSH2 0x120 DUP4 ADD DUP5 PUSH2 0x2F3B JUMP JUMPDEST SWAP12 SWAP11 POP POP POP POP POP POP POP POP POP POP POP JUMP JUMPDEST PUSH1 0x0 PUSH1 0x40 DUP3 ADD SWAP1 POP PUSH2 0x33A7 PUSH1 0x0 DUP4 ADD DUP6 PUSH2 0x256F JUMP JUMPDEST PUSH2 0x33B4 PUSH1 0x20 DUP4 ADD DUP5 PUSH2 0x23F6 JUMP JUMPDEST SWAP4 SWAP3 POP POP POP JUMP JUMPDEST PUSH1 0x0 DUP2 ISZERO ISZERO SWAP1 POP SWAP2 SWAP1 POP JUMP JUMPDEST PUSH2 0x33D0 DUP2 PUSH2 0x33BB JUMP JUMPDEST DUP2 EQ PUSH2 0x33DB JUMPI PUSH1 0x0 DUP1 REVERT JUMPDEST POP JUMP JUMPDEST PUSH1 0x0 DUP2 MLOAD SWAP1 POP PUSH2 0x33ED DUP2 PUSH2 0x33C7 JUMP JUMPDEST SWAP3 SWAP2 POP POP JUMP JUMPDEST PUSH1 0x0 PUSH1 0x20 DUP3 DUP5 SUB SLT ISZERO PUSH2 0x3409 JUMPI PUSH2 0x3408 PUSH2 0x2420 JUMP JUMPDEST JUMPDEST PUSH1 0x0 PUSH2 0x3417 DUP5 DUP3 DUP6 ADD PUSH2 0x33DE JUMP JUMPDEST SWAP2 POP POP SWAP3 SWAP2 POP POP JUMP JUMPDEST PUSH32 0x53656E646572206E6F7420456E747279506F696E740000000000000000000000 PUSH1 0x0 DUP3 ADD MSTORE POP JUMP JUMPDEST PUSH1 0x0 PUSH2 0x3456 PUSH1 0x15 DUP4 PUSH2 0x303B JUMP JUMPDEST SWAP2 POP PUSH2 0x3461 DUP3 PUSH2 0x3420 JUMP JUMPDEST PUSH1 0x20 DUP3 ADD SWAP1 POP SWAP2 SWAP1 POP JUMP JUMPDEST PUSH1 0x0 PUSH1 0x20 DUP3 ADD SWAP1 POP DUP2 DUP2 SUB PUSH1 0x0 DUP4 ADD MSTORE PUSH2 0x3485 DUP2 PUSH2 0x3449 JUMP JUMPDEST SWAP1 POP SWAP2 SWAP1 POP JUMP JUMPDEST PUSH1 0x0 DUP1 PUSH1 0x0 DUP1 PUSH1 0x0 DUP1 PUSH1 0x0 PUSH1 0xE0 DUP9 DUP11 SUB SLT ISZERO PUSH2 0x34AB JUMPI PUSH2 0x34AA PUSH2 0x2420 JUMP JUMPDEST JUMPDEST PUSH1 0x0 PUSH2 0x34B9 DUP11 DUP3 DUP12 ADD PUSH2 0x24DC JUMP JUMPDEST SWAP8 POP POP PUSH1 0x20 PUSH2 0x34CA DUP11 DUP3 DUP12 ADD PUSH2 0x25C2 JUMP JUMPDEST SWAP7 POP POP PUSH1 0x40 PUSH2 0x34DB DUP11 DUP3 DUP12 ADD PUSH2 0x24DC JUMP JUMPDEST SWAP6 POP POP PUSH1 0x60 PUSH2 0x34EC DUP11 DUP3 DUP12 ADD PUSH2 0x2C85 JUMP JUMPDEST SWAP5 POP POP PUSH1 0x80 PUSH2 0x34FD DUP11 DUP3 DUP12 ADD PUSH2 0x2508 JUMP JUMPDEST SWAP4 POP POP PUSH1 0xA0 PUSH2 0x350E DUP11 DUP3 DUP12 ADD PUSH2 0x2451 JUMP JUMPDEST SWAP3 POP POP PUSH1 0xC0 PUSH2 0x351F DUP11 DUP3 DUP12 ADD PUSH2 0x2E3D JUMP JUMPDEST SWAP2 POP POP SWAP3 SWAP6 SWAP9 SWAP2 SWAP5 SWAP8 POP SWAP3 SWAP6 POP JUMP JUMPDEST PUSH1 0x0 PUSH2 0x3539 DUP3 PUSH2 0x23EC JUMP JUMPDEST SWAP2 POP PUSH2 0x3544 DUP4 PUSH2 0x23EC JUMP JUMPDEST SWAP3 POP DUP3 DUP3 MUL PUSH2 0x3552 DUP2 PUSH2 0x23EC JUMP JUMPDEST SWAP2 POP DUP3 DUP3 DIV DUP5 EQ DUP4 ISZERO OR PUSH2 0x3569 JUMPI PUSH2 0x3568 PUSH2 0x30DE JUMP JUMPDEST JUMPDEST POP SWAP3 SWAP2 POP POP JUMP JUMPDEST PUSH1 0x0 PUSH2 0x357B DUP3 PUSH2 0x23EC JUMP JUMPDEST SWAP2 POP PUSH2 0x3586 DUP4 PUSH2 0x23EC JUMP JUMPDEST SWAP3 POP DUP3 DUP3 ADD SWAP1 POP DUP1 DUP3 GT ISZERO PUSH2 0x359E JUMPI PUSH2 0x359D PUSH2 0x30DE JUMP JUMPDEST JUMPDEST SWAP3 SWAP2 POP POP JUMP JUMPDEST PUSH32 0x4E487B7100000000000000000000000000000000000000000000000000000000 PUSH1 0x0 MSTORE PUSH1 0x12 PUSH1 0x4 MSTORE PUSH1 0x24 PUSH1 0x0 REVERT JUMPDEST PUSH1 0x0 PUSH2 0x35DE DUP3 PUSH2 0x23EC JUMP JUMPDEST SWAP2 POP PUSH2 0x35E9 DUP4 PUSH2 0x23EC JUMP JUMPDEST SWAP3 POP DUP3 PUSH2 0x35F9 JUMPI PUSH2 0x35F8 PUSH2 0x35A4 JUMP JUMPDEST JUMPDEST DUP3 DUP3 DIV SWAP1 POP SWAP3 SWAP2 POP POP JUMP JUMPDEST PUSH1 0x0 PUSH1 0x60 DUP3 ADD SWAP1 POP PUSH2 0x3619 PUSH1 0x0 DUP4 ADD DUP7 PUSH2 0x256F JUMP JUMPDEST PUSH2 0x3626 PUSH1 0x20 DUP4 ADD DUP6 PUSH2 0x256F JUMP JUMPDEST PUSH2 0x3633 PUSH1 0x40 DUP4 ADD DUP5 PUSH2 0x23F6 JUMP JUMPDEST SWAP5 SWAP4 POP POP POP POP JUMP JUMPDEST PUSH1 0x0 PUSH1 0xA0 DUP3 ADD SWAP1 POP PUSH2 0x3650 PUSH1 0x0 DUP4 ADD DUP9 PUSH2 0x256F JUMP JUMPDEST PUSH2 0x365D PUSH1 0x20 DUP4 ADD DUP8 PUSH2 0x2F3B JUMP JUMPDEST PUSH2 0x366A PUSH1 0x40 DUP4 ADD DUP7 PUSH2 0x2DA2 JUMP JUMPDEST PUSH2 0x3677 PUSH1 0x60 DUP4 ADD DUP6 PUSH2 0x23F6 JUMP JUMPDEST PUSH2 0x3684 PUSH1 0x80 DUP4 ADD DUP5 PUSH2 0x32D1 JUMP JUMPDEST SWAP7 SWAP6 POP POP POP POP POP POP JUMP JUMPDEST PUSH1 0x0 DUP2 SWAP1 POP SWAP3 SWAP2 POP POP JUMP JUMPDEST PUSH1 0x0 PUSH2 0x36A4 DUP3 PUSH2 0x29AE JUMP JUMPDEST PUSH2 0x36AE DUP2 DUP6 PUSH2 0x368E JUMP JUMPDEST SWAP4 POP PUSH2 0x36BE DUP2 DUP6 PUSH1 0x20 DUP7 ADD PUSH2 0x29CA JUMP JUMPDEST DUP1 DUP5 ADD SWAP2 POP POP SWAP3 SWAP2 POP POP JUMP JUMPDEST PUSH1 0x0 PUSH2 0x36D6 DUP3 DUP5 PUSH2 0x3699 JUMP JUMPDEST SWAP2 POP DUP2 SWAP1 POP SWAP3 SWAP2 POP POP JUMP JUMPDEST PUSH1 0x0 DUP1 REVERT JUMPDEST PUSH1 0x0 DUP1 REVERT JUMPDEST PUSH1 0x0 DUP1 REVERT JUMPDEST PUSH1 0x0 DUP1 DUP4 CALLDATALOAD PUSH1 0x1 PUSH1 0x20 SUB DUP5 CALLDATASIZE SUB SUB DUP2 SLT PUSH2 0x370D JUMPI PUSH2 0x370C PUSH2 0x36E1 JUMP JUMPDEST JUMPDEST DUP1 DUP5 ADD SWAP3 POP DUP3 CALLDATALOAD SWAP2 POP PUSH8 0xFFFFFFFFFFFFFFFF DUP3 GT ISZERO PUSH2 0x372F JUMPI PUSH2 0x372E PUSH2 0x36E6 JUMP JUMPDEST JUMPDEST PUSH1 0x20 DUP4 ADD SWAP3 POP PUSH1 0x1 DUP3 MUL CALLDATASIZE SUB DUP4 SGT ISZERO PUSH2 0x374B JUMPI PUSH2 0x374A PUSH2 0x36EB JUMP JUMPDEST JUMPDEST POP SWAP3 POP SWAP3 SWAP1 POP JUMP JUMPDEST DUP3 DUP2 DUP4 CALLDATACOPY PUSH1 0x0 DUP4 DUP4 ADD MSTORE POP POP POP JUMP JUMPDEST PUSH1 0x0 PUSH2 0x376E DUP4 DUP6 PUSH2 0x368E JUMP JUMPDEST SWAP4 POP PUSH2 0x377B DUP4 DUP6 DUP5 PUSH2 0x3753 JUMP JUMPDEST DUP3 DUP5 ADD SWAP1 POP SWAP4 SWAP3 POP POP POP JUMP JUMPDEST PUSH1 0x0 PUSH2 0x3794 DUP3 DUP5 DUP7 PUSH2 0x3762 JUMP JUMPDEST SWAP2 POP DUP2 SWAP1 POP SWAP4 SWAP3 POP POP POP JUMP JUMPDEST PUSH1 0x0 PUSH2 0x120 DUP3 ADD SWAP1 POP PUSH2 0x37B6 PUSH1 0x0 DUP4 ADD DUP13 PUSH2 0x256F JUMP JUMPDEST PUSH2 0x37C3 PUSH1 0x20 DUP4 ADD DUP12 PUSH2 0x23F6 JUMP JUMPDEST PUSH2 0x37D0 PUSH1 0x40 DUP4 ADD DUP11 PUSH2 0x2DA2 JUMP JUMPDEST PUSH2 0x37DD PUSH1 0x60 DUP4 ADD DUP10 PUSH2 0x2DA2 JUMP JUMPDEST PUSH2 0x37EA PUSH1 0x80 DUP4 ADD DUP9 PUSH2 0x23F6 JUMP JUMPDEST PUSH2 0x37F7 PUSH1 0xA0 DUP4 ADD DUP8 PUSH2 0x23F6 JUMP JUMPDEST PUSH2 0x3804 PUSH1 0xC0 DUP4 ADD DUP7 PUSH2 0x23F6 JUMP JUMPDEST PUSH2 0x3811 PUSH1 0xE0 DUP4 ADD DUP6 PUSH2 0x23F6 JUMP JUMPDEST PUSH2 0x381F PUSH2 0x100 DUP4 ADD DUP5 PUSH2 0x23F6 JUMP JUMPDEST SWAP11 SWAP10 POP POP POP POP POP POP POP POP POP POP JUMP JUMPDEST PUSH32 0x4254504D3A2067617320746F6F206C6F7720666F7220706F73744F7000000000 PUSH1 0x0 DUP3 ADD MSTORE POP JUMP JUMPDEST PUSH1 0x0 PUSH2 0x3863 PUSH1 0x1C DUP4 PUSH2 0x303B JUMP JUMPDEST SWAP2 POP PUSH2 0x386E DUP3 PUSH2 0x382D JUMP JUMPDEST PUSH1 0x20 DUP3 ADD SWAP1 POP SWAP2 SWAP1 POP JUMP JUMPDEST PUSH1 0x0 PUSH1 0x20 DUP3 ADD SWAP1 POP DUP2 DUP2 SUB PUSH1 0x0 DUP4 ADD MSTORE PUSH2 0x3892 DUP2 PUSH2 0x3856 JUMP JUMPDEST SWAP1 POP SWAP2 SWAP1 POP JUMP JUMPDEST PUSH32 0x4254504D3A20696E76616C6964207369676E6174757265206C656E6774682069 PUSH1 0x0 DUP3 ADD MSTORE PUSH32 0x6E207061796D6173746572416E64446174610000000000000000000000000000 PUSH1 0x20 DUP3 ADD MSTORE POP JUMP JUMPDEST PUSH1 0x0 PUSH2 0x38F5 PUSH1 0x32 DUP4 PUSH2 0x303B JUMP JUMPDEST SWAP2 POP PUSH2 0x3900 DUP3 PUSH2 0x3899 JUMP JUMPDEST PUSH1 0x40 DUP3 ADD SWAP1 POP SWAP2 SWAP1 POP JUMP JUMPDEST PUSH1 0x0 PUSH1 0x20 DUP3 ADD SWAP1 POP DUP2 DUP2 SUB PUSH1 0x0 DUP4 ADD MSTORE PUSH2 0x3924 DUP2 PUSH2 0x38E8 JUMP JUMPDEST SWAP1 POP SWAP2 SWAP1 POP JUMP JUMPDEST PUSH32 0x4254504D3A2063616C63756C6174656420746F6B656E2063686172676520696E PUSH1 0x0 DUP3 ADD MSTORE PUSH32 0x76616C6964000000000000000000000000000000000000000000000000000000 PUSH1 0x20 DUP3 ADD MSTORE POP JUMP JUMPDEST PUSH1 0x0 PUSH2 0x3987 PUSH1 0x25 DUP4 PUSH2 0x303B JUMP JUMPDEST SWAP2 POP PUSH2 0x3992 DUP3 PUSH2 0x392B JUMP JUMPDEST PUSH1 0x40 DUP3 ADD SWAP1 POP SWAP2 SWAP1 POP JUMP JUMPDEST PUSH1 0x0 PUSH1 0x20 DUP3 ADD SWAP1 POP DUP2 DUP2 SUB PUSH1 0x0 DUP4 ADD MSTORE PUSH2 0x39B6 DUP2 PUSH2 0x397A JUMP JUMPDEST SWAP1 POP SWAP2 SWAP1 POP JUMP JUMPDEST PUSH32 0x4254504D3A207072696365206D61726B75702070657263656E7461676520746F PUSH1 0x0 DUP3 ADD MSTORE PUSH32 0x6F20686967680000000000000000000000000000000000000000000000000000 PUSH1 0x20 DUP3 ADD MSTORE POP JUMP JUMPDEST PUSH1 0x0 PUSH2 0x3A19 PUSH1 0x26 DUP4 PUSH2 0x303B JUMP JUMPDEST SWAP2 POP PUSH2 0x3A24 DUP3 PUSH2 0x39BD JUMP JUMPDEST PUSH1 0x40 DUP3 ADD SWAP1 POP SWAP2 SWAP1 POP JUMP JUMPDEST PUSH1 0x0 PUSH1 0x20 DUP3 ADD SWAP1 POP DUP2 DUP2 SUB PUSH1 0x0 DUP4 ADD MSTORE PUSH2 0x3A48 DUP2 PUSH2 0x3A0C JUMP JUMPDEST SWAP1 POP SWAP2 SWAP1 POP JUMP JUMPDEST PUSH32 0x4254504D3A207072696365206D61726B75702070657263656E7461676520746F PUSH1 0x0 DUP3 ADD MSTORE PUSH32 0x6F206C6F77000000000000000000000000000000000000000000000000000000 PUSH1 0x20 DUP3 ADD MSTORE POP JUMP JUMPDEST PUSH1 0x0 PUSH2 0x3AAB PUSH1 0x25 DUP4 PUSH2 0x303B JUMP JUMPDEST SWAP2 POP PUSH2 0x3AB6 DUP3 PUSH2 0x3A4F JUMP JUMPDEST PUSH1 0x40 DUP3 ADD SWAP1 POP SWAP2 SWAP1 POP JUMP JUMPDEST PUSH1 0x0 PUSH1 0x20 DUP3 ADD SWAP1 POP DUP2 DUP2 SUB PUSH1 0x0 DUP4 ADD MSTORE PUSH2 0x3ADA DUP2 PUSH2 0x3A9E JUMP JUMPDEST SWAP1 POP SWAP2 SWAP1 POP JUMP JUMPDEST PUSH32 0x4254504D3A206163636F756E7420646F6573206E6F74206861766520656E6F75 PUSH1 0x0 DUP3 ADD MSTORE PUSH32 0x676820746F6B656E2062616C616E636500000000000000000000000000000000 PUSH1 0x20 DUP3 ADD MSTORE POP JUMP JUMPDEST PUSH1 0x0 PUSH2 0x3B3D PUSH1 0x30 DUP4 PUSH2 0x303B JUMP JUMPDEST SWAP2 POP PUSH2 0x3B48 DUP3 PUSH2 0x3AE1 JUMP JUMPDEST PUSH1 0x40 DUP3 ADD SWAP1 POP SWAP2 SWAP1 POP JUMP JUMPDEST PUSH1 0x0 PUSH1 0x20 DUP3 ADD SWAP1 POP DUP2 DUP2 SUB PUSH1 0x0 DUP4 ADD MSTORE PUSH2 0x3B6C DUP2 PUSH2 0x3B30 JUMP JUMPDEST SWAP1 POP SWAP2 SWAP1 POP JUMP JUMPDEST PUSH1 0x0 PUSH1 0xE0 DUP3 ADD SWAP1 POP PUSH2 0x3B88 PUSH1 0x0 DUP4 ADD DUP11 PUSH2 0x256F JUMP JUMPDEST PUSH2 0x3B95 PUSH1 0x20 DUP4 ADD DUP10 PUSH2 0x256F JUMP JUMPDEST PUSH2 0x3BA2 PUSH1 0x40 DUP4 ADD DUP9 PUSH2 0x256F JUMP JUMPDEST PUSH2 0x3BAF PUSH1 0x60 DUP4 ADD DUP8 PUSH2 0x32D1 JUMP JUMPDEST PUSH2 0x3BBC PUSH1 0x80 DUP4 ADD DUP7 PUSH2 0x23F6 JUMP JUMPDEST PUSH2 0x3BC9 PUSH1 0xA0 DUP4 ADD DUP6 PUSH2 0x2F3B JUMP JUMPDEST PUSH2 0x3BD6 PUSH1 0xC0 DUP4 ADD DUP5 PUSH2 0x2DA2 JUMP JUMPDEST SWAP9 SWAP8 POP POP POP POP POP POP POP POP JUMP JUMPDEST PUSH1 0x0 PUSH1 0xFF DUP3 AND SWAP1 POP SWAP2 SWAP1 POP JUMP JUMPDEST PUSH2 0x3BF8 DUP2 PUSH2 0x3BE2 JUMP JUMPDEST DUP3 MSTORE POP POP JUMP JUMPDEST PUSH1 0x0 PUSH1 0x80 DUP3 ADD SWAP1 POP PUSH2 0x3C13 PUSH1 0x0 DUP4 ADD DUP8 PUSH2 0x2DA2 JUMP JUMPDEST PUSH2 0x3C20 PUSH1 0x20 DUP4 ADD DUP7 PUSH2 0x3BEF JUMP JUMPDEST PUSH2 0x3C2D PUSH1 0x40 DUP4 ADD DUP6 PUSH2 0x2DA2 JUMP JUMPDEST PUSH2 0x3C3A PUSH1 0x60 DUP4 ADD DUP5 PUSH2 0x2DA2 JUMP JUMPDEST SWAP6 SWAP5 POP POP POP POP POP JUMP INVALID LOG2 PUSH5 0x6970667358 0x22 SLT KECCAK256 0xF7 0xE2 EXTCODEHASH 0xE1 PUSH10 0x906B6C1F004E69486176 0xA7 0xEE 0x2F SWAP8 PC 0xF9 SWAP3 GASLIMIT 0x2B DELEGATECALL 0xAC 0xE0 0xD7 0x24 MSIZE 0xDF 0x4C PUSH5 0x736F6C6343 STOP ADDMOD EQ STOP CALLER "},"methodIdentifiers":{"UNACCOUNTED_COST()":"c6e7a957","addStake(uint32)":"0396cb60","deposit()":"d0e30db0","entryPoint()":"b0d691fe","feeReceiver()":"b3f00674","getDeposit()":"c399ec88","getHash((address,uint256,bytes,bytes,uint256,uint256,uint256,uint256,uint256,bytes,bytes),uint8,uint48,uint48,address,address,uint256,uint32)":"d0db6f75","owner()":"8da5cb5b","parsePaymasterAndData(bytes)":"94d4ad60","postOp(uint8,bytes,uint256)":"a9a23409","renounceOwnership()":"715018a6","setFeeReceiver(address)":"efdcd974","setUnaccountedEPGasOverhead(uint256)":"deeb3874","setVerifyingSigner(address)":"f5cba98c","transferOwnership(address)":"f2fde38b","unlockStake()":"bb9fe6bf","validatePaymasterUserOp((address,uint256,bytes,bytes,uint256,uint256,uint256,uint256,uint256,bytes,bytes),bytes32,uint256)":"f465c77e","verifyingSigner()":"23d9ac9b","withdrawAllNative(address)":"d9f66db1","withdrawERC20(address,address,uint256)":"44004cc1","withdrawERC20Full(address,address)":"5deef2aa","withdrawMultipleERC20(address[],address,uint256[])":"617d057a","withdrawMultipleERC20Full(address[],address)":"78b1da23","withdrawStake(address)":"c23a5cea","withdrawTo(address,uint256)":"205c2878","withdrawToCheck(address,uint256)":"45499d46"}}}}}