{
  "_format": "hh-sol-artifact-1",
  "contractName": "TokenPaymaster",
  "sourceName": "contracts/utils/TokenPaymaster.sol",
  "abi": [
    {
      "inputs": [
        {
          "internalType": "contract IERC20Metadata",
          "name": "_token",
          "type": "address"
        },
        {
          "internalType": "contract IEntryPoint",
          "name": "_entryPoint",
          "type": "address"
        },
        {
          "components": [
            {
              "internalType": "uint256",
              "name": "priceMarkup",
              "type": "uint256"
            },
            {
              "internalType": "uint256",
              "name": "refundPostopCost",
              "type": "uint256"
            },
            {
              "internalType": "uint256",
              "name": "priceMaxAge",
              "type": "uint256"
            }
          ],
          "internalType": "struct TokenPaymaster.TokenPaymasterConfig",
          "name": "_tokenPaymasterConfig",
          "type": "tuple"
        },
        {
          "internalType": "address",
          "name": "_owner",
          "type": "address"
        }
      ],
      "stateMutability": "nonpayable",
      "type": "constructor"
    },
    {
      "inputs": [
        {
          "internalType": "address",
          "name": "target",
          "type": "address"
        }
      ],
      "name": "AddressEmptyCode",
      "type": "error"
    },
    {
      "inputs": [
        {
          "internalType": "address",
          "name": "account",
          "type": "address"
        }
      ],
      "name": "AddressInsufficientBalance",
      "type": "error"
    },
    {
      "inputs": [],
      "name": "FailedInnerCall",
      "type": "error"
    },
    {
      "inputs": [
        {
          "internalType": "address",
          "name": "owner",
          "type": "address"
        }
      ],
      "name": "OwnableInvalidOwner",
      "type": "error"
    },
    {
      "inputs": [
        {
          "internalType": "address",
          "name": "account",
          "type": "address"
        }
      ],
      "name": "OwnableUnauthorizedAccount",
      "type": "error"
    },
    {
      "inputs": [
        {
          "internalType": "address",
          "name": "token",
          "type": "address"
        }
      ],
      "name": "SafeERC20FailedOperation",
      "type": "error"
    },
    {
      "anonymous": false,
      "inputs": [
        {
          "components": [
            {
              "internalType": "uint256",
              "name": "priceMarkup",
              "type": "uint256"
            },
            {
              "internalType": "uint256",
              "name": "refundPostopCost",
              "type": "uint256"
            },
            {
              "internalType": "uint256",
              "name": "priceMaxAge",
              "type": "uint256"
            }
          ],
          "indexed": false,
          "internalType": "struct TokenPaymaster.TokenPaymasterConfig",
          "name": "tokenPaymasterConfig",
          "type": "tuple"
        }
      ],
      "name": "ConfigUpdated",
      "type": "event"
    },
    {
      "anonymous": false,
      "inputs": [
        {
          "indexed": true,
          "internalType": "address",
          "name": "previousOwner",
          "type": "address"
        },
        {
          "indexed": true,
          "internalType": "address",
          "name": "newOwner",
          "type": "address"
        }
      ],
      "name": "OwnershipTransferred",
      "type": "event"
    },
    {
      "anonymous": false,
      "inputs": [
        {
          "indexed": true,
          "internalType": "address",
          "name": "user",
          "type": "address"
        },
        {
          "indexed": false,
          "internalType": "uint256",
          "name": "preCharge",
          "type": "uint256"
        }
      ],
      "name": "PostOpReverted",
      "type": "event"
    },
    {
      "anonymous": false,
      "inputs": [
        {
          "indexed": true,
          "internalType": "address",
          "name": "sender",
          "type": "address"
        },
        {
          "indexed": false,
          "internalType": "uint256",
          "name": "value",
          "type": "uint256"
        }
      ],
      "name": "Received",
      "type": "event"
    },
    {
      "anonymous": false,
      "inputs": [
        {
          "indexed": true,
          "internalType": "address",
          "name": "user",
          "type": "address"
        },
        {
          "indexed": false,
          "internalType": "uint256",
          "name": "actualTokenCharge",
          "type": "uint256"
        },
        {
          "indexed": false,
          "internalType": "uint256",
          "name": "actualGasCost",
          "type": "uint256"
        },
        {
          "indexed": false,
          "internalType": "uint256",
          "name": "actualTokenPrice",
          "type": "uint256"
        }
      ],
      "name": "UserOperationSponsored",
      "type": "event"
    },
    {
      "inputs": [
        {
          "internalType": "uint32",
          "name": "unstakeDelaySec",
          "type": "uint32"
        }
      ],
      "name": "addStake",
      "outputs": [],
      "stateMutability": "payable",
      "type": "function"
    },
    {
      "inputs": [],
      "name": "cachedPriceTimestamp",
      "outputs": [
        {
          "internalType": "uint256",
          "name": "",
          "type": "uint256"
        }
      ],
      "stateMutability": "view",
      "type": "function"
    },
    {
      "inputs": [],
      "name": "deposit",
      "outputs": [],
      "stateMutability": "payable",
      "type": "function"
    },
    {
      "inputs": [],
      "name": "entryPoint",
      "outputs": [
        {
          "internalType": "contract IEntryPoint",
          "name": "",
          "type": "address"
        }
      ],
      "stateMutability": "view",
      "type": "function"
    },
    {
      "inputs": [],
      "name": "getDeposit",
      "outputs": [
        {
          "internalType": "uint256",
          "name": "",
          "type": "uint256"
        }
      ],
      "stateMutability": "view",
      "type": "function"
    },
    {
      "inputs": [],
      "name": "owner",
      "outputs": [
        {
          "internalType": "address",
          "name": "",
          "type": "address"
        }
      ],
      "stateMutability": "view",
      "type": "function"
    },
    {
      "inputs": [
        {
          "internalType": "enum IPaymaster.PostOpMode",
          "name": "mode",
          "type": "uint8"
        },
        {
          "internalType": "bytes",
          "name": "context",
          "type": "bytes"
        },
        {
          "internalType": "uint256",
          "name": "actualGasCost",
          "type": "uint256"
        }
      ],
      "name": "postOp",
      "outputs": [],
      "stateMutability": "nonpayable",
      "type": "function"
    },
    {
      "inputs": [],
      "name": "renounceOwnership",
      "outputs": [],
      "stateMutability": "nonpayable",
      "type": "function"
    },
    {
      "inputs": [
        {
          "components": [
            {
              "internalType": "uint256",
              "name": "priceMarkup",
              "type": "uint256"
            },
            {
              "internalType": "uint256",
              "name": "refundPostopCost",
              "type": "uint256"
            },
            {
              "internalType": "uint256",
              "name": "priceMaxAge",
              "type": "uint256"
            }
          ],
          "internalType": "struct TokenPaymaster.TokenPaymasterConfig",
          "name": "_tokenPaymasterConfig",
          "type": "tuple"
        }
      ],
      "name": "setTokenPaymasterConfig",
      "outputs": [],
      "stateMutability": "nonpayable",
      "type": "function"
    },
    {
      "inputs": [],
      "name": "token",
      "outputs": [
        {
          "internalType": "contract IERC20",
          "name": "",
          "type": "address"
        }
      ],
      "stateMutability": "view",
      "type": "function"
    },
    {
      "inputs": [
        {
          "internalType": "address",
          "name": "newOwner",
          "type": "address"
        }
      ],
      "name": "transferOwnership",
      "outputs": [],
      "stateMutability": "nonpayable",
      "type": "function"
    },
    {
      "inputs": [],
      "name": "unlockStake",
      "outputs": [],
      "stateMutability": "nonpayable",
      "type": "function"
    },
    {
      "inputs": [
        {
          "components": [
            {
              "internalType": "address",
              "name": "sender",
              "type": "address"
            },
            {
              "internalType": "uint256",
              "name": "nonce",
              "type": "uint256"
            },
            {
              "internalType": "bytes",
              "name": "initCode",
              "type": "bytes"
            },
            {
              "internalType": "bytes",
              "name": "callData",
              "type": "bytes"
            },
            {
              "internalType": "uint256",
              "name": "callGasLimit",
              "type": "uint256"
            },
            {
              "internalType": "uint256",
              "name": "verificationGasLimit",
              "type": "uint256"
            },
            {
              "internalType": "uint256",
              "name": "preVerificationGas",
              "type": "uint256"
            },
            {
              "internalType": "uint256",
              "name": "maxFeePerGas",
              "type": "uint256"
            },
            {
              "internalType": "uint256",
              "name": "maxPriorityFeePerGas",
              "type": "uint256"
            },
            {
              "internalType": "bytes",
              "name": "paymasterAndData",
              "type": "bytes"
            },
            {
              "internalType": "bytes",
              "name": "signature",
              "type": "bytes"
            }
          ],
          "internalType": "struct UserOperation",
          "name": "userOp",
          "type": "tuple"
        },
        {
          "internalType": "bytes32",
          "name": "userOpHash",
          "type": "bytes32"
        },
        {
          "internalType": "uint256",
          "name": "maxCost",
          "type": "uint256"
        }
      ],
      "name": "validatePaymasterUserOp",
      "outputs": [
        {
          "internalType": "bytes",
          "name": "context",
          "type": "bytes"
        },
        {
          "internalType": "uint256",
          "name": "validationData",
          "type": "uint256"
        }
      ],
      "stateMutability": "nonpayable",
      "type": "function"
    },
    {
      "inputs": [
        {
          "internalType": "uint256",
          "name": "amount",
          "type": "uint256"
        },
        {
          "internalType": "uint256",
          "name": "price",
          "type": "uint256"
        }
      ],
      "name": "weiToToken",
      "outputs": [
        {
          "internalType": "uint256",
          "name": "",
          "type": "uint256"
        }
      ],
      "stateMutability": "pure",
      "type": "function"
    },
    {
      "inputs": [
        {
          "internalType": "address payable",
          "name": "withdrawAddress",
          "type": "address"
        }
      ],
      "name": "withdrawStake",
      "outputs": [],
      "stateMutability": "nonpayable",
      "type": "function"
    },
    {
      "inputs": [
        {
          "internalType": "address payable",
          "name": "withdrawAddress",
          "type": "address"
        },
        {
          "internalType": "uint256",
          "name": "amount",
          "type": "uint256"
        }
      ],
      "name": "withdrawTo",
      "outputs": [],
      "stateMutability": "nonpayable",
      "type": "function"
    },
    {
      "inputs": [
        {
          "internalType": "address",
          "name": "to",
          "type": "address"
        },
        {
          "internalType": "uint256",
          "name": "amount",
          "type": "uint256"
        }
      ],
      "name": "withdrawToken",
      "outputs": [],
      "stateMutability": "nonpayable",
      "type": "function"
    },
    {
      "stateMutability": "payable",
      "type": "receive"
    }
  ],
  "bytecode": "0x60c06040523480156200001157600080fd5b5060405162002b3638038062002b368339818101604052810190620000379190620006ee565b8232600073ffffffffffffffffffffffffffffffffffffffff168173ffffffffffffffffffffffffffffffffffffffff1603620000ae5760006040517f1e4fbdf7000000000000000000000000000000000000000000000000000000008152600401620000a5919062000771565b60405180910390fd5b620000bf816200015c60201b60201c565b508073ffffffffffffffffffffffffffffffffffffffff1660808173ffffffffffffffffffffffffffffffffffffffff16815250505062000106826200022060201b60201c565b62000117816200034060201b60201c565b8373ffffffffffffffffffffffffffffffffffffffff1660a08173ffffffffffffffffffffffffffffffffffffffff1681525050426004819055505050505062000973565b60008060009054906101000a900473ffffffffffffffffffffffffffffffffffffffff169050816000806101000a81548173ffffffffffffffffffffffffffffffffffffffff021916908373ffffffffffffffffffffffffffffffffffffffff1602179055508173ffffffffffffffffffffffffffffffffffffffff168173ffffffffffffffffffffffffffffffffffffffff167f8be0079c531659141344cd1fd0a4f28419497f9722a3daafe3b4186f6b6457e060405160405180910390a35050565b62000230620003d960201b60201c565b6a52b7d2dcc80cd2e400000060026200024a9190620007bd565b8160000151111562000293576040517f08c379a00000000000000000000000000000000000000000000000000000000081526004016200028a9062000869565b60405180910390fd5b620f424081600001511015620002e0576040517f08c379a0000000000000000000000000000000000000000000000000000000008152600401620002d790620008db565b60405180910390fd5b8060016000820151816000015560208201518160010155604082015181600201559050507f5ae532796eeeb25558550dab6b9aff6802247590213ad83ad7366b1557b1cbf08160405162000335919062000956565b60405180910390a150565b62000350620003d960201b60201c565b600073ffffffffffffffffffffffffffffffffffffffff168173ffffffffffffffffffffffffffffffffffffffff1603620003c55760006040517f1e4fbdf7000000000000000000000000000000000000000000000000000000008152600401620003bc919062000771565b60405180910390fd5b620003d6816200015c60201b60201c565b50565b620003e96200047b60201b60201c565b73ffffffffffffffffffffffffffffffffffffffff166200040f6200048360201b60201c565b73ffffffffffffffffffffffffffffffffffffffff161462000479576200043b6200047b60201b60201c565b6040517f118cdaa700000000000000000000000000000000000000000000000000000000815260040162000470919062000771565b60405180910390fd5b565b600033905090565b60008060009054906101000a900473ffffffffffffffffffffffffffffffffffffffff16905090565b6000604051905090565b600080fd5b600073ffffffffffffffffffffffffffffffffffffffff82169050919050565b6000620004e882620004bb565b9050919050565b6000620004fc82620004db565b9050919050565b6200050e81620004ef565b81146200051a57600080fd5b50565b6000815190506200052e8162000503565b92915050565b60006200054182620004db565b9050919050565b620005538162000534565b81146200055f57600080fd5b50565b600081519050620005738162000548565b92915050565b600080fd5b6000601f19601f8301169050919050565b7f4e487b7100000000000000000000000000000000000000000000000000000000600052604160045260246000fd5b620005c9826200057e565b810181811067ffffffffffffffff82111715620005eb57620005ea6200058f565b5b80604052505050565b600062000600620004ac565b90506200060e8282620005be565b919050565b6000819050919050565b620006288162000613565b81146200063457600080fd5b50565b60008151905062000648816200061d565b92915050565b60006060828403121562000667576200066662000579565b5b620006736060620005f4565b90506000620006858482850162000637565b60008301525060206200069b8482850162000637565b6020830152506040620006b18482850162000637565b60408301525092915050565b620006c881620004db565b8114620006d457600080fd5b50565b600081519050620006e881620006bd565b92915050565b60008060008060c085870312156200070b576200070a620004b6565b5b60006200071b878288016200051d565b94505060206200072e8782880162000562565b935050604062000741878288016200064e565b92505060a06200075487828801620006d7565b91505092959194509250565b6200076b81620004db565b82525050565b600060208201905062000788600083018462000760565b92915050565b7f4e487b7100000000000000000000000000000000000000000000000000000000600052601160045260246000fd5b6000620007ca8262000613565b9150620007d78362000613565b9250828202620007e78162000613565b915082820484148315176200080157620008006200078e565b5b5092915050565b600082825260208201905092915050565b7f54504d3a207072696365206d61726b757020746f6f2068696768000000000000600082015250565b600062000851601a8362000808565b91506200085e8262000819565b602082019050919050565b60006020820190508181036000830152620008848162000842565b9050919050565b7f54504d3a207072696365206d61726b757020746f6f206c6f7700000000000000600082015250565b6000620008c360198362000808565b9150620008d0826200088b565b602082019050919050565b60006020820190508181036000830152620008f681620008b4565b9050919050565b620009088162000613565b82525050565b606082016000820151620009266000850182620008fd565b5060208201516200093b6020850182620008fd565b506040820151620009506040850182620008fd565b50505050565b60006060820190506200096d60008301846200090e565b92915050565b60805160a051612150620009e66000396000818161059e01528181610a1401528181610d1e01528181610d580152610efa01526000818161040201528181610499015281816105e40152818161071e015281816107a801528181610838015281816108d70152610c0201526121506000f3fe6080604052600436106101025760003560e01c8063b1a6cfec11610095578063d0e30db011610064578063d0e30db014610331578063e1d8153c1461033b578063f2fde38b14610366578063f465c77e1461038f578063fc0c546a146103cd57610157565b8063b1a6cfec1461029d578063bb9fe6bf146102c6578063c23a5cea146102dd578063c399ec881461030657610157565b80638da5cb5b116100d15780638da5cb5b146101f55780639e281a9814610220578063a9a2340914610249578063b0d691fe1461027257610157565b80630396cb601461015c578063205c287814610178578063715018a6146101a15780637c986aac146101b857610157565b36610157573373ffffffffffffffffffffffffffffffffffffffff167f88a5966d370b9919b20f3e2c13ff65706f196a4e32cc2c12bf57088f885258743460405161014d919061130d565b60405180910390a2005b600080fd5b61017660048036038101906101719190611378565b6103f8565b005b34801561018457600080fd5b5061019f600480360381019061019a919061142f565b61048f565b005b3480156101ad57600080fd5b506101b6610528565b005b3480156101c457600080fd5b506101df60048036038101906101da919061146f565b61053c565b6040516101ec919061130d565b60405180910390f35b34801561020157600080fd5b5061020a610568565b60405161021791906114d0565b60405180910390f35b34801561022c57600080fd5b5061024760048036038101906102429190611517565b610591565b005b34801561025557600080fd5b50610270600480360381019061026b91906115e1565b6105c8565b005b34801561027e57600080fd5b506102876105e2565b60405161029491906116b4565b60405180910390f35b3480156102a957600080fd5b506102c460048036038101906102bf91906117c4565b610606565b005b3480156102d257600080fd5b506102db610714565b005b3480156102e957600080fd5b5061030460048036038101906102ff91906117f1565b61079e565b005b34801561031257600080fd5b5061031b610834565b604051610328919061130d565b60405180910390f35b6103396108d5565b005b34801561034757600080fd5b50610350610963565b60405161035d919061130d565b60405180910390f35b34801561037257600080fd5b5061038d6004803603810190610388919061181e565b610969565b005b34801561039b57600080fd5b506103b660048036038101906103b191906118a6565b6109ef565b6040516103c4929190611994565b60405180910390f35b3480156103d957600080fd5b506103e2610a12565b6040516103ef91906119e5565b60405180910390f35b610400610a36565b7f000000000000000000000000000000000000000000000000000000000000000073ffffffffffffffffffffffffffffffffffffffff16630396cb6034836040518363ffffffff1660e01b815260040161045a9190611a0f565b6000604051808303818588803b15801561047357600080fd5b505af1158015610487573d6000803e3d6000fd5b505050505050565b610497610a36565b7f000000000000000000000000000000000000000000000000000000000000000073ffffffffffffffffffffffffffffffffffffffff1663205c287883836040518363ffffffff1660e01b81526004016104f2929190611a39565b600060405180830381600087803b15801561050c57600080fd5b505af1158015610520573d6000803e3d6000fd5b505050505050565b610530610a36565b61053a6000610abd565b565b6000816a52b7d2dcc80cd2e4000000846105569190611a91565b6105609190611b02565b905092915050565b60008060009054906101000a900473ffffffffffffffffffffffffffffffffffffffff16905090565b610599610a36565b6105c47f00000000000000000000000000000000000000000000000000000000000000008383610b81565b5050565b6105d0610c00565b6105dc84848484610c90565b50505050565b7f000000000000000000000000000000000000000000000000000000000000000081565b61060e610a36565b6a52b7d2dcc80cd2e400000060026106269190611a91565b8160000151111561066c576040517f08c379a000000000000000000000000000000000000000000000000000000000815260040161066390611b90565b60405180910390fd5b620f4240816000015110156106b6576040517f08c379a00000000000000000000000000000000000000000000000000000000081526004016106ad90611bfc565b60405180910390fd5b8060016000820151816000015560208201518160010155604082015181600201559050507f5ae532796eeeb25558550dab6b9aff6802247590213ad83ad7366b1557b1cbf0816040516107099190611c6d565b60405180910390a150565b61071c610a36565b7f000000000000000000000000000000000000000000000000000000000000000073ffffffffffffffffffffffffffffffffffffffff1663bb9fe6bf6040518163ffffffff1660e01b8152600401600060405180830381600087803b15801561078457600080fd5b505af1158015610798573d6000803e3d6000fd5b50505050565b6107a6610a36565b7f000000000000000000000000000000000000000000000000000000000000000073ffffffffffffffffffffffffffffffffffffffff1663c23a5cea826040518263ffffffff1660e01b81526004016107ff9190611c88565b600060405180830381600087803b15801561081957600080fd5b505af115801561082d573d6000803e3d6000fd5b5050505050565b60007f000000000000000000000000000000000000000000000000000000000000000073ffffffffffffffffffffffffffffffffffffffff166370a08231306040518263ffffffff1660e01b815260040161088f91906114d0565b602060405180830381865afa1580156108ac573d6000803e3d6000fd5b505050506040513d601f19601f820116820180604052508101906108d09190611cb8565b905090565b7f000000000000000000000000000000000000000000000000000000000000000073ffffffffffffffffffffffffffffffffffffffff1663b760faf934306040518363ffffffff1660e01b815260040161092f91906114d0565b6000604051808303818588803b15801561094857600080fd5b505af115801561095c573d6000803e3d6000fd5b5050505050565b60045481565b610971610a36565b600073ffffffffffffffffffffffffffffffffffffffff168173ffffffffffffffffffffffffffffffffffffffff16036109e35760006040517f1e4fbdf70000000000000000000000000000000000000000000000000000000081526004016109da91906114d0565b60405180910390fd5b6109ec81610abd565b50565b606060006109fb610c00565b610a06858585610dec565b91509150935093915050565b7f000000000000000000000000000000000000000000000000000000000000000081565b610a3e610f9b565b73ffffffffffffffffffffffffffffffffffffffff16610a5c610568565b73ffffffffffffffffffffffffffffffffffffffff1614610abb57610a7f610f9b565b6040517f118cdaa7000000000000000000000000000000000000000000000000000000008152600401610ab291906114d0565b60405180910390fd5b565b60008060009054906101000a900473ffffffffffffffffffffffffffffffffffffffff169050816000806101000a81548173ffffffffffffffffffffffffffffffffffffffff021916908373ffffffffffffffffffffffffffffffffffffffff1602179055508173ffffffffffffffffffffffffffffffffffffffff168173ffffffffffffffffffffffffffffffffffffffff167f8be0079c531659141344cd1fd0a4f28419497f9722a3daafe3b4186f6b6457e060405160405180910390a35050565b610bfb838473ffffffffffffffffffffffffffffffffffffffff1663a9059cbb8585604051602401610bb4929190611ce5565b604051602081830303815290604052915060e01b6020820180517bffffffffffffffffffffffffffffffffffffffffffffffffffffffff8381831617835250505050610fa3565b505050565b7f000000000000000000000000000000000000000000000000000000000000000073ffffffffffffffffffffffffffffffffffffffff163373ffffffffffffffffffffffffffffffffffffffff1614610c8e576040517f08c379a0000000000000000000000000000000000000000000000000000000008152600401610c8590611d5a565b60405180910390fd5b565b600060016000015490506000806000808787810190610caf9190611d7a565b93509350935093506000610cc3848461103a565b90506000866a52b7d2dcc80cd2e400000067016345785d8a00000281610cec57610ceb611ad3565b5b04905042600481905550600082600180015402890190506000610d0f828461053c565b905080881115610d4b57610d467f000000000000000000000000000000000000000000000000000000000000000086838b03610b81565b610d83565b80881015610d8257610d817f000000000000000000000000000000000000000000000000000000000000000086308b8503611069565b5b5b8473ffffffffffffffffffffffffffffffffffffffff167f46caa0511cf037f06f57a0bf273a2ff04229f5b12fb04675234a6cbe2e7f1a89828c67016345785d8a0000604051610dd593929190611de1565b60405180910390a250505050505050505050505050565b606060008060016000015490506000601487806101200190610e0e9190611e27565b90500390506000811480610e225750602081145b610e61576040517f08c379a0000000000000000000000000000000000000000000000000000000008152600401610e5890611ed6565b60405180910390fd5b60008760e00135600180015402860190506000836a52b7d2dcc80cd2e400000067016345785d8a00000281610e9957610e98611ad3565b5b04905060208303610ee757600089806101200190610eb79190611e27565b601490603492610ec993929190611f00565b90610ed49190611f53565b60001c905081811015610ee5578091505b505b6000610ef3838361053c565b9050610f337f00000000000000000000000000000000000000000000000000000000000000008b6000016020810190610f2c919061181e565b3084611069565b808a60e001358b61010001358c6000016020810190610f52919061181e565b604051602001610f659493929190611fb2565b6040516020818303038152906040529650610f8c60006001600201546004540160006110eb565b95505050505050935093915050565b600033905090565b6000610fce828473ffffffffffffffffffffffffffffffffffffffff1661112490919063ffffffff16565b90506000815114158015610ff3575080806020019051810190610ff1919061202f565b155b1561103557826040517f5274afe700000000000000000000000000000000000000000000000000000000815260040161102c91906114d0565b60405180910390fd5b505050565b600081830361104b57829050611063565b61106083488461105b919061205c565b61113a565b90505b92915050565b6110e5848573ffffffffffffffffffffffffffffffffffffffff166323b872dd86868660405160240161109e93929190612090565b604051602081830303815290604052915060e01b6020820180517bffffffffffffffffffffffffffffffffffffffffffffffffffffffff8381831617835250505050610fa3565b50505050565b600060d08265ffffffffffff16901b60a08465ffffffffffff16901b85611113576000611116565b60015b60ff16171790509392505050565b606061113283836000611153565b905092915050565b6000818310611149578161114b565b825b905092915050565b60608147101561119a57306040517fcd78605900000000000000000000000000000000000000000000000000000000815260040161119191906114d0565b60405180910390fd5b6000808573ffffffffffffffffffffffffffffffffffffffff1684866040516111c39190612103565b60006040518083038185875af1925050503d8060008114611200576040519150601f19603f3d011682016040523d82523d6000602084013e611205565b606091505b5091509150611215868383611220565b925050509392505050565b60608261123557611230826112af565b6112a7565b6000825114801561125d575060008473ffffffffffffffffffffffffffffffffffffffff163b145b1561129f57836040517f9996b31500000000000000000000000000000000000000000000000000000000815260040161129691906114d0565b60405180910390fd5b8190506112a8565b5b9392505050565b6000815111156112c25780518082602001fd5b6040517f1425ea4200000000000000000000000000000000000000000000000000000000815260040160405180910390fd5b6000819050919050565b611307816112f4565b82525050565b600060208201905061132260008301846112fe565b92915050565b6000604051905090565b600080fd5b600080fd5b600063ffffffff82169050919050565b6113558161133c565b811461136057600080fd5b50565b6000813590506113728161134c565b92915050565b60006020828403121561138e5761138d611332565b5b600061139c84828501611363565b91505092915050565b600073ffffffffffffffffffffffffffffffffffffffff82169050919050565b60006113d0826113a5565b9050919050565b6113e0816113c5565b81146113eb57600080fd5b50565b6000813590506113fd816113d7565b92915050565b61140c816112f4565b811461141757600080fd5b50565b60008135905061142981611403565b92915050565b6000806040838503121561144657611445611332565b5b6000611454858286016113ee565b92505060206114658582860161141a565b9150509250929050565b6000806040838503121561148657611485611332565b5b60006114948582860161141a565b92505060206114a58582860161141a565b9150509250929050565b60006114ba826113a5565b9050919050565b6114ca816114af565b82525050565b60006020820190506114e560008301846114c1565b92915050565b6114f4816114af565b81146114ff57600080fd5b50565b600081359050611511816114eb565b92915050565b6000806040838503121561152e5761152d611332565b5b600061153c85828601611502565b925050602061154d8582860161141a565b9150509250929050565b6003811061156457600080fd5b50565b60008135905061157681611557565b92915050565b600080fd5b600080fd5b600080fd5b60008083601f8401126115a1576115a061157c565b5b8235905067ffffffffffffffff8111156115be576115bd611581565b5b6020830191508360018202830111156115da576115d9611586565b5b9250929050565b600080600080606085870312156115fb576115fa611332565b5b600061160987828801611567565b945050602085013567ffffffffffffffff81111561162a57611629611337565b5b6116368782880161158b565b935093505060406116498782880161141a565b91505092959194509250565b6000819050919050565b600061167a611675611670846113a5565b611655565b6113a5565b9050919050565b600061168c8261165f565b9050919050565b600061169e82611681565b9050919050565b6116ae81611693565b82525050565b60006020820190506116c960008301846116a5565b92915050565b600080fd5b6000601f19601f8301169050919050565b7f4e487b7100000000000000000000000000000000000000000000000000000000600052604160045260246000fd5b61171d826116d4565b810181811067ffffffffffffffff8211171561173c5761173b6116e5565b5b80604052505050565b600061174f611328565b905061175b8282611714565b919050565b600060608284031215611776576117756116cf565b5b6117806060611745565b905060006117908482850161141a565b60008301525060206117a48482850161141a565b60208301525060406117b88482850161141a565b60408301525092915050565b6000606082840312156117da576117d9611332565b5b60006117e884828501611760565b91505092915050565b60006020828403121561180757611806611332565b5b6000611815848285016113ee565b91505092915050565b60006020828403121561183457611833611332565b5b600061184284828501611502565b91505092915050565b600080fd5b600061016082840312156118675761186661184b565b5b81905092915050565b6000819050919050565b61188381611870565b811461188e57600080fd5b50565b6000813590506118a08161187a565b92915050565b6000806000606084860312156118bf576118be611332565b5b600084013567ffffffffffffffff8111156118dd576118dc611337565b5b6118e986828701611850565b93505060206118fa86828701611891565b925050604061190b8682870161141a565b9150509250925092565b600081519050919050565b600082825260208201905092915050565b60005b8381101561194f578082015181840152602081019050611934565b60008484015250505050565b600061196682611915565b6119708185611920565b9350611980818560208601611931565b611989816116d4565b840191505092915050565b600060408201905081810360008301526119ae818561195b565b90506119bd60208301846112fe565b9392505050565b60006119cf82611681565b9050919050565b6119df816119c4565b82525050565b60006020820190506119fa60008301846119d6565b92915050565b611a098161133c565b82525050565b6000602082019050611a246000830184611a00565b92915050565b611a33816113c5565b82525050565b6000604082019050611a4e6000830185611a2a565b611a5b60208301846112fe565b9392505050565b7f4e487b7100000000000000000000000000000000000000000000000000000000600052601160045260246000fd5b6000611a9c826112f4565b9150611aa7836112f4565b9250828202611ab5816112f4565b91508282048414831517611acc57611acb611a62565b5b5092915050565b7f4e487b7100000000000000000000000000000000000000000000000000000000600052601260045260246000fd5b6000611b0d826112f4565b9150611b18836112f4565b925082611b2857611b27611ad3565b5b828204905092915050565b600082825260208201905092915050565b7f54504d3a207072696365206d61726b757020746f6f2068696768000000000000600082015250565b6000611b7a601a83611b33565b9150611b8582611b44565b602082019050919050565b60006020820190508181036000830152611ba981611b6d565b9050919050565b7f54504d3a207072696365206d61726b757020746f6f206c6f7700000000000000600082015250565b6000611be6601983611b33565b9150611bf182611bb0565b602082019050919050565b60006020820190508181036000830152611c1581611bd9565b9050919050565b611c25816112f4565b82525050565b606082016000820151611c416000850182611c1c565b506020820151611c546020850182611c1c565b506040820151611c676040850182611c1c565b50505050565b6000606082019050611c826000830184611c2b565b92915050565b6000602082019050611c9d6000830184611a2a565b92915050565b600081519050611cb281611403565b92915050565b600060208284031215611cce57611ccd611332565b5b6000611cdc84828501611ca3565b91505092915050565b6000604082019050611cfa60008301856114c1565b611d0760208301846112fe565b9392505050565b7f53656e646572206e6f7420456e747279506f696e740000000000000000000000600082015250565b6000611d44601583611b33565b9150611d4f82611d0e565b602082019050919050565b60006020820190508181036000830152611d7381611d37565b9050919050565b60008060008060808587031215611d9457611d93611332565b5b6000611da28782880161141a565b9450506020611db38782880161141a565b9350506040611dc48782880161141a565b9250506060611dd5878288016113ee565b91505092959194509250565b6000606082019050611df660008301866112fe565b611e0360208301856112fe565b611e1060408301846112fe565b949350505050565b600080fd5b600080fd5b600080fd5b60008083356001602003843603038112611e4457611e43611e18565b5b80840192508235915067ffffffffffffffff821115611e6657611e65611e1d565b5b602083019250600182023603831315611e8257611e81611e22565b5b509250929050565b7f54504d3a20696e76616c69642064617461206c656e6774680000000000000000600082015250565b6000611ec0601883611b33565b9150611ecb82611e8a565b602082019050919050565b60006020820190508181036000830152611eef81611eb3565b9050919050565b600080fd5b600080fd5b60008085851115611f1457611f13611ef6565b5b83861115611f2557611f24611efb565b5b6001850283019150848603905094509492505050565b600082905092915050565b600082821b905092915050565b6000611f5f8383611f3b565b82611f6a8135611870565b92506020821015611faa57611fa57fffffffffffffffffffffffffffffffffffffffffffffffffffffffffffffffff83602003600802611f46565b831692505b505092915050565b6000608082019050611fc760008301876112fe565b611fd460208301866112fe565b611fe160408301856112fe565b611fee60608301846114c1565b95945050505050565b60008115159050919050565b61200c81611ff7565b811461201757600080fd5b50565b60008151905061202981612003565b92915050565b60006020828403121561204557612044611332565b5b60006120538482850161201a565b91505092915050565b6000612067826112f4565b9150612072836112f4565b925082820190508082111561208a57612089611a62565b5b92915050565b60006060820190506120a560008301866114c1565b6120b260208301856114c1565b6120bf60408301846112fe565b949350505050565b600081905092915050565b60006120dd82611915565b6120e781856120c7565b93506120f7818560208601611931565b80840191505092915050565b600061210f82846120d2565b91508190509291505056fea2646970667358221220b741688f6a609f0e03145efd2e48d11dc97de6963a0b4b6c54eb8a80530375cd64736f6c63430008140033",
  "linkReferences": {},
  "deployedLinkReferences": {}
}