{
  "_format": "hh-sol-artifact-1",
  "contractName": "GasEstimator",
  "sourceName": "contracts/core/GasEstimator.sol",
  "abi": [
    {
      "inputs": [
        {
          "internalType": "address",
          "name": "_to",
          "type": "address"
        },
        {
          "internalType": "bytes",
          "name": "_data",
          "type": "bytes"
        }
      ],
      "name": "estimate",
      "outputs": [
        {
          "internalType": "bool",
          "name": "success",
          "type": "bool"
        },
        {
          "internalType": "bytes",
          "name": "result",
          "type": "bytes"
        },
        {
          "internalType": "uint256",
          "name": "gas",
          "type": "uint256"
        }
      ],
      "stateMutability": "nonpayable",
      "type": "function"
    }
  ],
  "bytecode": "0x608060405234801561001057600080fd5b50610416806100206000396000f3fe608060405234801561001057600080fd5b506004361061002b5760003560e01c80630eb34cd314610030575b600080fd5b61004a600480360381019061004591906101c3565b610062565b604051610059939291906102e7565b60405180910390f35b600060606000805a90508673ffffffffffffffffffffffffffffffffffffffff168686604051610093929190610364565b6000604051808303816000865af19150503d80600081146100d0576040519150601f19603f3d011682016040523d82523d6000602084013e6100d5565b606091505b5080945081955050505a816100ea91906103ac565b91505093509350939050565b600080fd5b600080fd5b600073ffffffffffffffffffffffffffffffffffffffff82169050919050565b600061012b82610100565b9050919050565b61013b81610120565b811461014657600080fd5b50565b60008135905061015881610132565b92915050565b600080fd5b600080fd5b600080fd5b60008083601f8401126101835761018261015e565b5b8235905067ffffffffffffffff8111156101a05761019f610163565b5b6020830191508360018202830111156101bc576101bb610168565b5b9250929050565b6000806000604084860312156101dc576101db6100f6565b5b60006101ea86828701610149565b935050602084013567ffffffffffffffff81111561020b5761020a6100fb565b5b6102178682870161016d565b92509250509250925092565b60008115159050919050565b61023881610223565b82525050565b600081519050919050565b600082825260208201905092915050565b60005b8381101561027857808201518184015260208101905061025d565b60008484015250505050565b6000601f19601f8301169050919050565b60006102a08261023e565b6102aa8185610249565b93506102ba81856020860161025a565b6102c381610284565b840191505092915050565b6000819050919050565b6102e1816102ce565b82525050565b60006060820190506102fc600083018661022f565b818103602083015261030e8185610295565b905061031d60408301846102d8565b949350505050565b600081905092915050565b82818337600083830152505050565b600061034b8385610325565b9350610358838584610330565b82840190509392505050565b600061037182848661033f565b91508190509392505050565b7f4e487b7100000000000000000000000000000000000000000000000000000000600052601160045260246000fd5b60006103b7826102ce565b91506103c2836102ce565b92508282039050818111156103da576103d961037d565b5b9291505056fea26469706673582212203916805df0709d64721b6fcaa0c21c09fccb5251ba84d55fd4e0b68a8da4807464736f6c63430008140033",
  "linkReferences": {},
  "deployedLinkReferences": {}
}