{
  "_format": "hh-sol-artifact-1",
  "contractName": "VerifyingPaymaster",
  "sourceName": "contracts/utils/VerifyingPaymaster.sol",
  "abi": [
    {
      "inputs": [
        {
          "internalType": "contract IEntryPoint",
          "name": "_entryPoint",
          "type": "address"
        },
        {
          "internalType": "address",
          "name": "_verifyingSigner",
          "type": "address"
        }
      ],
      "stateMutability": "nonpayable",
      "type": "constructor"
    },
    {
      "inputs": [],
      "name": "ECDSAInvalidSignature",
      "type": "error"
    },
    {
      "inputs": [
        {
          "internalType": "uint256",
          "name": "length",
          "type": "uint256"
        }
      ],
      "name": "ECDSAInvalidSignatureLength",
      "type": "error"
    },
    {
      "inputs": [
        {
          "internalType": "bytes32",
          "name": "s",
          "type": "bytes32"
        }
      ],
      "name": "ECDSAInvalidSignatureS",
      "type": "error"
    },
    {
      "inputs": [
        {
          "internalType": "address",
          "name": "owner",
          "type": "address"
        }
      ],
      "name": "OwnableInvalidOwner",
      "type": "error"
    },
    {
      "inputs": [
        {
          "internalType": "address",
          "name": "account",
          "type": "address"
        }
      ],
      "name": "OwnableUnauthorizedAccount",
      "type": "error"
    },
    {
      "anonymous": false,
      "inputs": [
        {
          "indexed": true,
          "internalType": "address",
          "name": "previousOwner",
          "type": "address"
        },
        {
          "indexed": true,
          "internalType": "address",
          "name": "newOwner",
          "type": "address"
        }
      ],
      "name": "OwnershipTransferred",
      "type": "event"
    },
    {
      "inputs": [
        {
          "internalType": "uint32",
          "name": "unstakeDelaySec",
          "type": "uint32"
        }
      ],
      "name": "addStake",
      "outputs": [],
      "stateMutability": "payable",
      "type": "function"
    },
    {
      "inputs": [],
      "name": "deposit",
      "outputs": [],
      "stateMutability": "payable",
      "type": "function"
    },
    {
      "inputs": [],
      "name": "entryPoint",
      "outputs": [
        {
          "internalType": "contract IEntryPoint",
          "name": "",
          "type": "address"
        }
      ],
      "stateMutability": "view",
      "type": "function"
    },
    {
      "inputs": [],
      "name": "getDeposit",
      "outputs": [
        {
          "internalType": "uint256",
          "name": "",
          "type": "uint256"
        }
      ],
      "stateMutability": "view",
      "type": "function"
    },
    {
      "inputs": [
        {
          "components": [
            {
              "internalType": "address",
              "name": "sender",
              "type": "address"
            },
            {
              "internalType": "uint256",
              "name": "nonce",
              "type": "uint256"
            },
            {
              "internalType": "bytes",
              "name": "initCode",
              "type": "bytes"
            },
            {
              "internalType": "bytes",
              "name": "callData",
              "type": "bytes"
            },
            {
              "internalType": "uint256",
              "name": "callGasLimit",
              "type": "uint256"
            },
            {
              "internalType": "uint256",
              "name": "verificationGasLimit",
              "type": "uint256"
            },
            {
              "internalType": "uint256",
              "name": "preVerificationGas",
              "type": "uint256"
            },
            {
              "internalType": "uint256",
              "name": "maxFeePerGas",
              "type": "uint256"
            },
            {
              "internalType": "uint256",
              "name": "maxPriorityFeePerGas",
              "type": "uint256"
            },
            {
              "internalType": "bytes",
              "name": "paymasterAndData",
              "type": "bytes"
            },
            {
              "internalType": "bytes",
              "name": "signature",
              "type": "bytes"
            }
          ],
          "internalType": "struct UserOperation",
          "name": "userOp",
          "type": "tuple"
        },
        {
          "internalType": "uint48",
          "name": "validUntil",
          "type": "uint48"
        },
        {
          "internalType": "uint48",
          "name": "validAfter",
          "type": "uint48"
        }
      ],
      "name": "getHash",
      "outputs": [
        {
          "internalType": "bytes32",
          "name": "",
          "type": "bytes32"
        }
      ],
      "stateMutability": "view",
      "type": "function"
    },
    {
      "inputs": [],
      "name": "owner",
      "outputs": [
        {
          "internalType": "address",
          "name": "",
          "type": "address"
        }
      ],
      "stateMutability": "view",
      "type": "function"
    },
    {
      "inputs": [
        {
          "internalType": "bytes",
          "name": "paymasterAndData",
          "type": "bytes"
        }
      ],
      "name": "parsePaymasterAndData",
      "outputs": [
        {
          "internalType": "uint48",
          "name": "validUntil",
          "type": "uint48"
        },
        {
          "internalType": "uint48",
          "name": "validAfter",
          "type": "uint48"
        },
        {
          "internalType": "bytes",
          "name": "signature",
          "type": "bytes"
        }
      ],
      "stateMutability": "pure",
      "type": "function"
    },
    {
      "inputs": [
        {
          "internalType": "enum IPaymaster.PostOpMode",
          "name": "mode",
          "type": "uint8"
        },
        {
          "internalType": "bytes",
          "name": "context",
          "type": "bytes"
        },
        {
          "internalType": "uint256",
          "name": "actualGasCost",
          "type": "uint256"
        }
      ],
      "name": "postOp",
      "outputs": [],
      "stateMutability": "nonpayable",
      "type": "function"
    },
    {
      "inputs": [],
      "name": "renounceOwnership",
      "outputs": [],
      "stateMutability": "nonpayable",
      "type": "function"
    },
    {
      "inputs": [
        {
          "internalType": "address",
          "name": "newOwner",
          "type": "address"
        }
      ],
      "name": "transferOwnership",
      "outputs": [],
      "stateMutability": "nonpayable",
      "type": "function"
    },
    {
      "inputs": [],
      "name": "unlockStake",
      "outputs": [],
      "stateMutability": "nonpayable",
      "type": "function"
    },
    {
      "inputs": [
        {
          "components": [
            {
              "internalType": "address",
              "name": "sender",
              "type": "address"
            },
            {
              "internalType": "uint256",
              "name": "nonce",
              "type": "uint256"
            },
            {
              "internalType": "bytes",
              "name": "initCode",
              "type": "bytes"
            },
            {
              "internalType": "bytes",
              "name": "callData",
              "type": "bytes"
            },
            {
              "internalType": "uint256",
              "name": "callGasLimit",
              "type": "uint256"
            },
            {
              "internalType": "uint256",
              "name": "verificationGasLimit",
              "type": "uint256"
            },
            {
              "internalType": "uint256",
              "name": "preVerificationGas",
              "type": "uint256"
            },
            {
              "internalType": "uint256",
              "name": "maxFeePerGas",
              "type": "uint256"
            },
            {
              "internalType": "uint256",
              "name": "maxPriorityFeePerGas",
              "type": "uint256"
            },
            {
              "internalType": "bytes",
              "name": "paymasterAndData",
              "type": "bytes"
            },
            {
              "internalType": "bytes",
              "name": "signature",
              "type": "bytes"
            }
          ],
          "internalType": "struct UserOperation",
          "name": "userOp",
          "type": "tuple"
        },
        {
          "internalType": "bytes32",
          "name": "userOpHash",
          "type": "bytes32"
        },
        {
          "internalType": "uint256",
          "name": "maxCost",
          "type": "uint256"
        }
      ],
      "name": "validatePaymasterUserOp",
      "outputs": [
        {
          "internalType": "bytes",
          "name": "context",
          "type": "bytes"
        },
        {
          "internalType": "uint256",
          "name": "validationData",
          "type": "uint256"
        }
      ],
      "stateMutability": "nonpayable",
      "type": "function"
    },
    {
      "inputs": [],
      "name": "verifyingSigner",
      "outputs": [
        {
          "internalType": "address",
          "name": "",
          "type": "address"
        }
      ],
      "stateMutability": "view",
      "type": "function"
    },
    {
      "inputs": [
        {
          "internalType": "address payable",
          "name": "withdrawAddress",
          "type": "address"
        }
      ],
      "name": "withdrawStake",
      "outputs": [],
      "stateMutability": "nonpayable",
      "type": "function"
    },
    {
      "inputs": [
        {
          "internalType": "address payable",
          "name": "withdrawAddress",
          "type": "address"
        },
        {
          "internalType": "uint256",
          "name": "amount",
          "type": "uint256"
        }
      ],
      "name": "withdrawTo",
      "outputs": [],
      "stateMutability": "nonpayable",
      "type": "function"
    }
  ],
  "bytecode": "0x60c06040523480156200001157600080fd5b5060405162002077380380620020778339818101604052810190620000379190620002a4565b8132600073ffffffffffffffffffffffffffffffffffffffff168173ffffffffffffffffffffffffffffffffffffffff1603620000ae5760006040517f1e4fbdf7000000000000000000000000000000000000000000000000000000008152600401620000a59190620002fc565b60405180910390fd5b620000bf816200013160201b60201c565b508073ffffffffffffffffffffffffffffffffffffffff1660808173ffffffffffffffffffffffffffffffffffffffff1681525050508073ffffffffffffffffffffffffffffffffffffffff1660a08173ffffffffffffffffffffffffffffffffffffffff1681525050505062000319565b60008060009054906101000a900473ffffffffffffffffffffffffffffffffffffffff169050816000806101000a81548173ffffffffffffffffffffffffffffffffffffffff021916908373ffffffffffffffffffffffffffffffffffffffff1602179055508173ffffffffffffffffffffffffffffffffffffffff168173ffffffffffffffffffffffffffffffffffffffff167f8be0079c531659141344cd1fd0a4f28419497f9722a3daafe3b4186f6b6457e060405160405180910390a35050565b600080fd5b600073ffffffffffffffffffffffffffffffffffffffff82169050919050565b60006200022782620001fa565b9050919050565b60006200023b826200021a565b9050919050565b6200024d816200022e565b81146200025957600080fd5b50565b6000815190506200026d8162000242565b92915050565b6200027e816200021a565b81146200028a57600080fd5b50565b6000815190506200029e8162000273565b92915050565b60008060408385031215620002be57620002bd620001f5565b5b6000620002ce858286016200025c565b9250506020620002e1858286016200028d565b9150509250929050565b620002f6816200021a565b82525050565b6000602082019050620003136000830184620002eb565b92915050565b60805160a051611d00620003776000396000818161047e0152610c63015260008181610356015281816103ed01528181610588015281816105b40152818161063e015281816106ce0152818161076d0152610a9f0152611d006000f3fe6080604052600436106100e85760003560e01c8063a9a234091161008a578063c399ec8811610059578063c399ec88146102b0578063d0e30db0146102db578063f2fde38b146102e5578063f465c77e1461030e576100e8565b8063a9a234091461021c578063b0d691fe14610245578063bb9fe6bf14610270578063c23a5cea14610287576100e8565b8063715018a6116100c6578063715018a61461015d5780638da5cb5b1461017457806394d4ad601461019f57806394e1fc19146101df576100e8565b80630396cb60146100ed578063205c28781461010957806323d9ac9b14610132575b600080fd5b610107600480360381019061010291906110a4565b61034c565b005b34801561011557600080fd5b50610130600480360381019061012b9190611165565b6103e3565b005b34801561013e57600080fd5b5061014761047c565b60405161015491906111c6565b60405180910390f35b34801561016957600080fd5b506101726104a0565b005b34801561018057600080fd5b506101896104b4565b60405161019691906111c6565b60405180910390f35b3480156101ab57600080fd5b506101c660048036038101906101c19190611246565b6104dd565b6040516101d69493929190611312565b60405180910390f35b3480156101eb57600080fd5b50610206600480360381019061020191906113a3565b61052c565b604051610213919061142b565b60405180910390f35b34801561022857600080fd5b50610243600480360381019061023e919061146b565b61056c565b005b34801561025157600080fd5b5061025a610586565b604051610267919061153e565b60405180910390f35b34801561027c57600080fd5b506102856105aa565b005b34801561029357600080fd5b506102ae60048036038101906102a99190611559565b610634565b005b3480156102bc57600080fd5b506102c56106ca565b6040516102d29190611595565b60405180910390f35b6102e361076b565b005b3480156102f157600080fd5b5061030c600480360381019061030791906115dc565b6107f9565b005b34801561031a57600080fd5b5061033560048036038101906103309190611635565b61087f565b604051610343929190611712565b60405180910390f35b6103546108a2565b7f000000000000000000000000000000000000000000000000000000000000000073ffffffffffffffffffffffffffffffffffffffff16630396cb6034836040518363ffffffff1660e01b81526004016103ae9190611751565b6000604051808303818588803b1580156103c757600080fd5b505af11580156103db573d6000803e3d6000fd5b505050505050565b6103eb6108a2565b7f000000000000000000000000000000000000000000000000000000000000000073ffffffffffffffffffffffffffffffffffffffff1663205c287883836040518363ffffffff1660e01b815260040161044692919061177b565b600060405180830381600087803b15801561046057600080fd5b505af1158015610474573d6000803e3d6000fd5b505050505050565b7f000000000000000000000000000000000000000000000000000000000000000081565b6104a86108a2565b6104b26000610929565b565b60008060009054906101000a900473ffffffffffffffffffffffffffffffffffffffff16905090565b60008036600085856014906054926104f7939291906117ae565b81019061050491906117e9565b80945081955050508585605490809261051f939291906117ae565b9150915092959194509250565b60006105398484846109ed565b463060405160200161054d939291906118ce565b6040516020818303038152906040528051906020012090509392505050565b610574610a9d565b61058084848484610b2d565b50505050565b7f000000000000000000000000000000000000000000000000000000000000000081565b6105b26108a2565b7f000000000000000000000000000000000000000000000000000000000000000073ffffffffffffffffffffffffffffffffffffffff1663bb9fe6bf6040518163ffffffff1660e01b8152600401600060405180830381600087803b15801561061a57600080fd5b505af115801561062e573d6000803e3d6000fd5b50505050565b61063c6108a2565b7f000000000000000000000000000000000000000000000000000000000000000073ffffffffffffffffffffffffffffffffffffffff1663c23a5cea826040518263ffffffff1660e01b81526004016106959190611907565b600060405180830381600087803b1580156106af57600080fd5b505af11580156106c3573d6000803e3d6000fd5b5050505050565b60007f000000000000000000000000000000000000000000000000000000000000000073ffffffffffffffffffffffffffffffffffffffff166370a08231306040518263ffffffff1660e01b815260040161072591906111c6565b602060405180830381865afa158015610742573d6000803e3d6000fd5b505050506040513d601f19601f820116820180604052508101906107669190611937565b905090565b7f000000000000000000000000000000000000000000000000000000000000000073ffffffffffffffffffffffffffffffffffffffff1663b760faf934306040518363ffffffff1660e01b81526004016107c591906111c6565b6000604051808303818588803b1580156107de57600080fd5b505af11580156107f2573d6000803e3d6000fd5b5050505050565b6108016108a2565b600073ffffffffffffffffffffffffffffffffffffffff168173ffffffffffffffffffffffffffffffffffffffff16036108735760006040517f1e4fbdf700000000000000000000000000000000000000000000000000000000815260040161086a91906111c6565b60405180910390fd5b61087c81610929565b50565b6060600061088b610a9d565b610896858585610b68565b91509150935093915050565b6108aa610cf7565b73ffffffffffffffffffffffffffffffffffffffff166108c86104b4565b73ffffffffffffffffffffffffffffffffffffffff1614610927576108eb610cf7565b6040517f118cdaa700000000000000000000000000000000000000000000000000000000815260040161091e91906111c6565b60405180910390fd5b565b60008060009054906101000a900473ffffffffffffffffffffffffffffffffffffffff169050816000806101000a81548173ffffffffffffffffffffffffffffffffffffffff021916908373ffffffffffffffffffffffffffffffffffffffff1602179055508173ffffffffffffffffffffffffffffffffffffffff168173ffffffffffffffffffffffffffffffffffffffff167f8be0079c531659141344cd1fd0a4f28419497f9722a3daafe3b4186f6b6457e060405160405180910390a35050565b606060006109fa85610cff565b9050808560200135868060400190610a129190611973565b604051610a209291906119fb565b6040518091039020878060600190610a389190611973565b604051610a469291906119fb565b604051809103902088608001358960a001358a60c001358b60e001358c61010001358c8c604051602001610a849b9a99989796959493929190611a14565b6040516020818303038152906040529150509392505050565b7f000000000000000000000000000000000000000000000000000000000000000073ffffffffffffffffffffffffffffffffffffffff163373ffffffffffffffffffffffffffffffffffffffff1614610b2b576040517f08c379a0000000000000000000000000000000000000000000000000000000008152600401610b2290611b1c565b60405180910390fd5b565b6040517f08c379a0000000000000000000000000000000000000000000000000000000008152600401610b5f90611b88565b60405180910390fd5b606060008080366000610b8a89806101200190610b859190611973565b6104dd565b93509350935093506040828290501480610ba75750604182829050145b610be6576040517f08c379a0000000000000000000000000000000000000000000000000000000008152600401610bdd90611c1a565b60405180910390fd5b6000610bfb610bf68b878761052c565b610d0f565b9050610c4b8184848080601f016020809104026020016040519081016040528093929190818152602001838380828437600081840152601f19601f82011690508083019250505050505050610d45565b73ffffffffffffffffffffffffffffffffffffffff167f000000000000000000000000000000000000000000000000000000000000000073ffffffffffffffffffffffffffffffffffffffff1614610cc857610ca960018686610d71565b6040518060200160405280600081525090965096505050505050610cef565b610cd460008686610d71565b60405180602001604052806000815250909650965050505050505b935093915050565b600033905090565b6000808235905080915050919050565b60007f19457468657265756d205369676e6564204d6573736167653a0a33320000000060005281601c52603c6000209050919050565b600080600080610d558686610daa565b925092509250610d658282610e06565b82935050505092915050565b600060d08265ffffffffffff16901b60a08465ffffffffffff16901b85610d99576000610d9c565b60015b60ff16171790509392505050565b60008060006041845103610def5760008060006020870151925060408701519150606087015160001a9050610de188828585610f6a565b955095509550505050610dff565b60006002855160001b9250925092505b9250925092565b60006003811115610e1a57610e19611c3a565b5b826003811115610e2d57610e2c611c3a565b5b0315610f665760016003811115610e4757610e46611c3a565b5b826003811115610e5a57610e59611c3a565b5b03610e91576040517ff645eedf00000000000000000000000000000000000000000000000000000000815260040160405180910390fd5b60026003811115610ea557610ea4611c3a565b5b826003811115610eb857610eb7611c3a565b5b03610efd578060001c6040517ffce698f7000000000000000000000000000000000000000000000000000000008152600401610ef49190611595565b60405180910390fd5b600380811115610f1057610f0f611c3a565b5b826003811115610f2357610f22611c3a565b5b03610f6557806040517fd78bce0c000000000000000000000000000000000000000000000000000000008152600401610f5c919061142b565b60405180910390fd5b5b5050565b60008060007f7fffffffffffffffffffffffffffffff5d576e7357a4501ddfe92f46681b20a08460001c1115610faa576000600385925092509250611054565b600060018888888860405160008152602001604052604051610fcf9493929190611c85565b6020604051602081039080840390855afa158015610ff1573d6000803e3d6000fd5b505050602060405103519050600073ffffffffffffffffffffffffffffffffffffffff168173ffffffffffffffffffffffffffffffffffffffff160361104557600060016000801b93509350935050611054565b8060008060001b935093509350505b9450945094915050565b600080fd5b600080fd5b600063ffffffff82169050919050565b61108181611068565b811461108c57600080fd5b50565b60008135905061109e81611078565b92915050565b6000602082840312156110ba576110b961105e565b5b60006110c88482850161108f565b91505092915050565b600073ffffffffffffffffffffffffffffffffffffffff82169050919050565b60006110fc826110d1565b9050919050565b61110c816110f1565b811461111757600080fd5b50565b60008135905061112981611103565b92915050565b6000819050919050565b6111428161112f565b811461114d57600080fd5b50565b60008135905061115f81611139565b92915050565b6000806040838503121561117c5761117b61105e565b5b600061118a8582860161111a565b925050602061119b85828601611150565b9150509250929050565b60006111b0826110d1565b9050919050565b6111c0816111a5565b82525050565b60006020820190506111db60008301846111b7565b92915050565b600080fd5b600080fd5b600080fd5b60008083601f840112611206576112056111e1565b5b8235905067ffffffffffffffff811115611223576112226111e6565b5b60208301915083600182028301111561123f5761123e6111eb565b5b9250929050565b6000806020838503121561125d5761125c61105e565b5b600083013567ffffffffffffffff81111561127b5761127a611063565b5b611287858286016111f0565b92509250509250929050565b600065ffffffffffff82169050919050565b6112ae81611293565b82525050565b600082825260208201905092915050565b82818337600083830152505050565b6000601f19601f8301169050919050565b60006112f183856112b4565b93506112fe8385846112c5565b611307836112d4565b840190509392505050565b600060608201905061132760008301876112a5565b61133460208301866112a5565b81810360408301526113478184866112e5565b905095945050505050565b600080fd5b6000610160828403121561136e5761136d611352565b5b81905092915050565b61138081611293565b811461138b57600080fd5b50565b60008135905061139d81611377565b92915050565b6000806000606084860312156113bc576113bb61105e565b5b600084013567ffffffffffffffff8111156113da576113d9611063565b5b6113e686828701611357565b93505060206113f78682870161138e565b92505060406114088682870161138e565b9150509250925092565b6000819050919050565b61142581611412565b82525050565b6000602082019050611440600083018461141c565b92915050565b6003811061145357600080fd5b50565b60008135905061146581611446565b92915050565b600080600080606085870312156114855761148461105e565b5b600061149387828801611456565b945050602085013567ffffffffffffffff8111156114b4576114b3611063565b5b6114c0878288016111f0565b935093505060406114d387828801611150565b91505092959194509250565b6000819050919050565b60006115046114ff6114fa846110d1565b6114df565b6110d1565b9050919050565b6000611516826114e9565b9050919050565b60006115288261150b565b9050919050565b6115388161151d565b82525050565b6000602082019050611553600083018461152f565b92915050565b60006020828403121561156f5761156e61105e565b5b600061157d8482850161111a565b91505092915050565b61158f8161112f565b82525050565b60006020820190506115aa6000830184611586565b92915050565b6115b9816111a5565b81146115c457600080fd5b50565b6000813590506115d6816115b0565b92915050565b6000602082840312156115f2576115f161105e565b5b6000611600848285016115c7565b91505092915050565b61161281611412565b811461161d57600080fd5b50565b60008135905061162f81611609565b92915050565b60008060006060848603121561164e5761164d61105e565b5b600084013567ffffffffffffffff81111561166c5761166b611063565b5b61167886828701611357565b935050602061168986828701611620565b925050604061169a86828701611150565b9150509250925092565b600081519050919050565b60005b838110156116cd5780820151818401526020810190506116b2565b60008484015250505050565b60006116e4826116a4565b6116ee81856112b4565b93506116fe8185602086016116af565b611707816112d4565b840191505092915050565b6000604082019050818103600083015261172c81856116d9565b905061173b6020830184611586565b9392505050565b61174b81611068565b82525050565b60006020820190506117666000830184611742565b92915050565b611775816110f1565b82525050565b6000604082019050611790600083018561176c565b61179d6020830184611586565b9392505050565b600080fd5b600080fd5b600080858511156117c2576117c16117a4565b5b838611156117d3576117d26117a9565b5b6001850283019150848603905094509492505050565b60008060408385031215611800576117ff61105e565b5b600061180e8582860161138e565b925050602061181f8582860161138e565b9150509250929050565b600081905092915050565b600061183f826116a4565b6118498185611829565b93506118598185602086016116af565b80840191505092915050565b6000819050919050565b61188061187b8261112f565b611865565b82525050565b60008160601b9050919050565b600061189e82611886565b9050919050565b60006118b082611893565b9050919050565b6118c86118c3826111a5565b6118a5565b82525050565b60006118da8286611834565b91506118e6828561186f565b6020820191506118f682846118b7565b601482019150819050949350505050565b600060208201905061191c600083018461176c565b92915050565b60008151905061193181611139565b92915050565b60006020828403121561194d5761194c61105e565b5b600061195b84828501611922565b91505092915050565b600080fd5b600080fd5b600080fd5b600080833560016020038436030381126119905761198f611964565b5b80840192508235915067ffffffffffffffff8211156119b2576119b1611969565b5b6020830192506001820236038313156119ce576119cd61196e565b5b509250929050565b60006119e28385611829565b93506119ef8385846112c5565b82840190509392505050565b6000611a088284866119d6565b91508190509392505050565b600061016082019050611a2a600083018e6111b7565b611a37602083018d611586565b611a44604083018c61141c565b611a51606083018b61141c565b611a5e608083018a611586565b611a6b60a0830189611586565b611a7860c0830188611586565b611a8560e0830187611586565b611a93610100830186611586565b611aa16101208301856112a5565b611aaf6101408301846112a5565b9c9b505050505050505050505050565b600082825260208201905092915050565b7f53656e646572206e6f7420456e747279506f696e740000000000000000000000600082015250565b6000611b06601583611abf565b9150611b1182611ad0565b602082019050919050565b60006020820190508181036000830152611b3581611af9565b9050919050565b7f6d757374206f7665727269646500000000000000000000000000000000000000600082015250565b6000611b72600d83611abf565b9150611b7d82611b3c565b602082019050919050565b60006020820190508181036000830152611ba181611b65565b9050919050565b7f566572696679696e675061796d61737465723a20696e76616c6964207369676e60008201527f6174757265206c656e67746820696e207061796d6173746572416e6444617461602082015250565b6000611c04604083611abf565b9150611c0f82611ba8565b604082019050919050565b60006020820190508181036000830152611c3381611bf7565b9050919050565b7f4e487b7100000000000000000000000000000000000000000000000000000000600052602160045260246000fd5b600060ff82169050919050565b611c7f81611c69565b82525050565b6000608082019050611c9a600083018761141c565b611ca76020830186611c76565b611cb4604083018561141c565b611cc1606083018461141c565b9594505050505056fea2646970667358221220d49f675b48ab81a39105e693a7459626333f1ba7b67a60247361b90b8a47a19964736f6c63430008140033",
  "linkReferences": {},
  "deployedLinkReferences": {}
}