{
  "_format": "hh-sol-artifact-1",
  "contractName": "VerifyingPaymaster",
  "sourceName": "contracts/utils/VerifyingPaymaster.sol",
  "abi": [
    {
      "inputs": [
        {
          "internalType": "contract IEntryPoint",
          "name": "_entryPoint",
          "type": "address"
        },
        {
          "internalType": "address",
          "name": "_verifyingSigner",
          "type": "address"
        }
      ],
      "stateMutability": "nonpayable",
      "type": "constructor"
    },
    {
      "inputs": [],
      "name": "ECDSAInvalidSignature",
      "type": "error"
    },
    {
      "inputs": [
        {
          "internalType": "uint256",
          "name": "length",
          "type": "uint256"
        }
      ],
      "name": "ECDSAInvalidSignatureLength",
      "type": "error"
    },
    {
      "inputs": [
        {
          "internalType": "bytes32",
          "name": "s",
          "type": "bytes32"
        }
      ],
      "name": "ECDSAInvalidSignatureS",
      "type": "error"
    },
    {
      "inputs": [
        {
          "internalType": "address",
          "name": "owner",
          "type": "address"
        }
      ],
      "name": "OwnableInvalidOwner",
      "type": "error"
    },
    {
      "inputs": [
        {
          "internalType": "address",
          "name": "account",
          "type": "address"
        }
      ],
      "name": "OwnableUnauthorizedAccount",
      "type": "error"
    },
    {
      "anonymous": false,
      "inputs": [
        {
          "indexed": true,
          "internalType": "address",
          "name": "previousOwner",
          "type": "address"
        },
        {
          "indexed": true,
          "internalType": "address",
          "name": "newOwner",
          "type": "address"
        }
      ],
      "name": "OwnershipTransferred",
      "type": "event"
    },
    {
      "inputs": [],
      "name": "Admin",
      "outputs": [
        {
          "internalType": "address",
          "name": "",
          "type": "address"
        }
      ],
      "stateMutability": "view",
      "type": "function"
    },
    {
      "inputs": [
        {
          "internalType": "address",
          "name": "_newAdmin",
          "type": "address"
        }
      ],
      "name": "ChangeAdmin",
      "outputs": [],
      "stateMutability": "nonpayable",
      "type": "function"
    },
    {
      "inputs": [
        {
          "internalType": "uint32",
          "name": "unstakeDelaySec",
          "type": "uint32"
        }
      ],
      "name": "addStake",
      "outputs": [],
      "stateMutability": "payable",
      "type": "function"
    },
    {
      "inputs": [],
      "name": "deposit",
      "outputs": [],
      "stateMutability": "payable",
      "type": "function"
    },
    {
      "inputs": [],
      "name": "entryPoint",
      "outputs": [
        {
          "internalType": "contract IEntryPoint",
          "name": "",
          "type": "address"
        }
      ],
      "stateMutability": "view",
      "type": "function"
    },
    {
      "inputs": [],
      "name": "getDeposit",
      "outputs": [
        {
          "internalType": "uint256",
          "name": "",
          "type": "uint256"
        }
      ],
      "stateMutability": "view",
      "type": "function"
    },
    {
      "inputs": [
        {
          "components": [
            {
              "internalType": "address",
              "name": "sender",
              "type": "address"
            },
            {
              "internalType": "uint256",
              "name": "nonce",
              "type": "uint256"
            },
            {
              "internalType": "bytes",
              "name": "initCode",
              "type": "bytes"
            },
            {
              "internalType": "bytes",
              "name": "callData",
              "type": "bytes"
            },
            {
              "internalType": "uint256",
              "name": "callGasLimit",
              "type": "uint256"
            },
            {
              "internalType": "uint256",
              "name": "verificationGasLimit",
              "type": "uint256"
            },
            {
              "internalType": "uint256",
              "name": "preVerificationGas",
              "type": "uint256"
            },
            {
              "internalType": "uint256",
              "name": "maxFeePerGas",
              "type": "uint256"
            },
            {
              "internalType": "uint256",
              "name": "maxPriorityFeePerGas",
              "type": "uint256"
            },
            {
              "internalType": "bytes",
              "name": "paymasterAndData",
              "type": "bytes"
            },
            {
              "internalType": "bytes",
              "name": "signature",
              "type": "bytes"
            }
          ],
          "internalType": "struct UserOperation",
          "name": "userOp",
          "type": "tuple"
        },
        {
          "internalType": "uint48",
          "name": "validUntil",
          "type": "uint48"
        },
        {
          "internalType": "uint48",
          "name": "validAfter",
          "type": "uint48"
        }
      ],
      "name": "getHash",
      "outputs": [
        {
          "internalType": "bytes32",
          "name": "",
          "type": "bytes32"
        }
      ],
      "stateMutability": "view",
      "type": "function"
    },
    {
      "inputs": [],
      "name": "owner",
      "outputs": [
        {
          "internalType": "address",
          "name": "",
          "type": "address"
        }
      ],
      "stateMutability": "view",
      "type": "function"
    },
    {
      "inputs": [
        {
          "internalType": "bytes",
          "name": "paymasterAndData",
          "type": "bytes"
        }
      ],
      "name": "parsePaymasterAndData",
      "outputs": [
        {
          "internalType": "uint48",
          "name": "validUntil",
          "type": "uint48"
        },
        {
          "internalType": "uint48",
          "name": "validAfter",
          "type": "uint48"
        },
        {
          "internalType": "bytes",
          "name": "signature",
          "type": "bytes"
        }
      ],
      "stateMutability": "pure",
      "type": "function"
    },
    {
      "inputs": [
        {
          "internalType": "enum IPaymaster.PostOpMode",
          "name": "mode",
          "type": "uint8"
        },
        {
          "internalType": "bytes",
          "name": "context",
          "type": "bytes"
        },
        {
          "internalType": "uint256",
          "name": "actualGasCost",
          "type": "uint256"
        }
      ],
      "name": "postOp",
      "outputs": [],
      "stateMutability": "nonpayable",
      "type": "function"
    },
    {
      "inputs": [],
      "name": "renounceOwnership",
      "outputs": [],
      "stateMutability": "nonpayable",
      "type": "function"
    },
    {
      "inputs": [
        {
          "internalType": "address",
          "name": "newOwner",
          "type": "address"
        }
      ],
      "name": "transferOwnership",
      "outputs": [],
      "stateMutability": "nonpayable",
      "type": "function"
    },
    {
      "inputs": [],
      "name": "unlockStake",
      "outputs": [],
      "stateMutability": "nonpayable",
      "type": "function"
    },
    {
      "inputs": [
        {
          "components": [
            {
              "internalType": "address",
              "name": "sender",
              "type": "address"
            },
            {
              "internalType": "uint256",
              "name": "nonce",
              "type": "uint256"
            },
            {
              "internalType": "bytes",
              "name": "initCode",
              "type": "bytes"
            },
            {
              "internalType": "bytes",
              "name": "callData",
              "type": "bytes"
            },
            {
              "internalType": "uint256",
              "name": "callGasLimit",
              "type": "uint256"
            },
            {
              "internalType": "uint256",
              "name": "verificationGasLimit",
              "type": "uint256"
            },
            {
              "internalType": "uint256",
              "name": "preVerificationGas",
              "type": "uint256"
            },
            {
              "internalType": "uint256",
              "name": "maxFeePerGas",
              "type": "uint256"
            },
            {
              "internalType": "uint256",
              "name": "maxPriorityFeePerGas",
              "type": "uint256"
            },
            {
              "internalType": "bytes",
              "name": "paymasterAndData",
              "type": "bytes"
            },
            {
              "internalType": "bytes",
              "name": "signature",
              "type": "bytes"
            }
          ],
          "internalType": "struct UserOperation",
          "name": "userOp",
          "type": "tuple"
        },
        {
          "internalType": "bytes32",
          "name": "userOpHash",
          "type": "bytes32"
        },
        {
          "internalType": "uint256",
          "name": "maxCost",
          "type": "uint256"
        }
      ],
      "name": "validatePaymasterUserOp",
      "outputs": [
        {
          "internalType": "bytes",
          "name": "context",
          "type": "bytes"
        },
        {
          "internalType": "uint256",
          "name": "validationData",
          "type": "uint256"
        }
      ],
      "stateMutability": "nonpayable",
      "type": "function"
    },
    {
      "inputs": [],
      "name": "verifyingSigner",
      "outputs": [
        {
          "internalType": "address",
          "name": "",
          "type": "address"
        }
      ],
      "stateMutability": "view",
      "type": "function"
    },
    {
      "inputs": [
        {
          "internalType": "address payable",
          "name": "withdrawAddress",
          "type": "address"
        }
      ],
      "name": "withdrawStake",
      "outputs": [],
      "stateMutability": "nonpayable",
      "type": "function"
    },
    {
      "inputs": [
        {
          "internalType": "address payable",
          "name": "withdrawAddress",
          "type": "address"
        },
        {
          "internalType": "uint256",
          "name": "amount",
          "type": "uint256"
        }
      ],
      "name": "withdrawTo",
      "outputs": [],
      "stateMutability": "nonpayable",
      "type": "function"
    }
  ],
  "bytecode": "0x60a06040523480156200001157600080fd5b5060405162002288380380620022888339818101604052810190620000379190620002f2565b8132600073ffffffffffffffffffffffffffffffffffffffff168173ffffffffffffffffffffffffffffffffffffffff1603620000ae5760006040517f1e4fbdf7000000000000000000000000000000000000000000000000000000008152600401620000a591906200034a565b60405180910390fd5b620000bf816200017f60201b60201c565b508073ffffffffffffffffffffffffffffffffffffffff1660808173ffffffffffffffffffffffffffffffffffffffff16815250505080600260006101000a81548173ffffffffffffffffffffffffffffffffffffffff021916908373ffffffffffffffffffffffffffffffffffffffff16021790555033600160006101000a81548173ffffffffffffffffffffffffffffffffffffffff021916908373ffffffffffffffffffffffffffffffffffffffff160217905550505062000367565b60008060009054906101000a900473ffffffffffffffffffffffffffffffffffffffff169050816000806101000a81548173ffffffffffffffffffffffffffffffffffffffff021916908373ffffffffffffffffffffffffffffffffffffffff1602179055508173ffffffffffffffffffffffffffffffffffffffff168173ffffffffffffffffffffffffffffffffffffffff167f8be0079c531659141344cd1fd0a4f28419497f9722a3daafe3b4186f6b6457e060405160405180910390a35050565b600080fd5b600073ffffffffffffffffffffffffffffffffffffffff82169050919050565b6000620002758262000248565b9050919050565b6000620002898262000268565b9050919050565b6200029b816200027c565b8114620002a757600080fd5b50565b600081519050620002bb8162000290565b92915050565b620002cc8162000268565b8114620002d857600080fd5b50565b600081519050620002ec81620002c1565b92915050565b600080604083850312156200030c576200030b62000243565b5b60006200031c85828601620002aa565b92505060206200032f85828601620002db565b9150509250929050565b620003448162000268565b82525050565b600060208201905062000361600083018462000339565b92915050565b608051611ed4620003b4600039600081816103c001528181610457015281816106c8015281816106f40152818161077e0152818161080e015281816108ad0152610c050152611ed46000f3fe6080604052600436106100fe5760003560e01c8063a9a2340911610095578063c399ec8811610064578063c399ec88146102ef578063d0e30db01461031a578063f2fde38b14610324578063f465c77e1461034d578063ff1b636d1461038b576100fe565b8063a9a234091461025b578063b0d691fe14610284578063bb9fe6bf146102af578063c23a5cea146102c6576100fe565b80638da5cb5b116100d15780638da5cb5b1461018a578063927cc064146101b557806394d4ad60146101de57806394e1fc191461021e576100fe565b80630396cb6014610103578063205c28781461011f57806323d9ac9b14610148578063715018a614610173575b600080fd5b61011d6004803603810190610118919061120c565b6103b6565b005b34801561012b57600080fd5b50610146600480360381019061014191906112cd565b61044d565b005b34801561015457600080fd5b5061015d6104e6565b60405161016a919061132e565b60405180910390f35b34801561017f57600080fd5b5061018861050c565b005b34801561019657600080fd5b5061019f610520565b6040516101ac919061132e565b60405180910390f35b3480156101c157600080fd5b506101dc60048036038101906101d79190611375565b610549565b005b3480156101ea57600080fd5b5061020560048036038101906102009190611407565b61061d565b60405161021594939291906114d3565b60405180910390f35b34801561022a57600080fd5b5061024560048036038101906102409190611564565b61066c565b60405161025291906115ec565b60405180910390f35b34801561026757600080fd5b50610282600480360381019061027d919061162c565b6106ac565b005b34801561029057600080fd5b506102996106c6565b6040516102a691906116ff565b60405180910390f35b3480156102bb57600080fd5b506102c46106ea565b005b3480156102d257600080fd5b506102ed60048036038101906102e8919061171a565b610774565b005b3480156102fb57600080fd5b5061030461080a565b6040516103119190611756565b60405180910390f35b6103226108ab565b005b34801561033057600080fd5b5061034b60048036038101906103469190611375565b610939565b005b34801561035957600080fd5b50610374600480360381019061036f919061179d565b6109bf565b60405161038292919061187a565b60405180910390f35b34801561039757600080fd5b506103a06109e2565b6040516103ad919061132e565b60405180910390f35b6103be610a08565b7f000000000000000000000000000000000000000000000000000000000000000073ffffffffffffffffffffffffffffffffffffffff16630396cb6034836040518363ffffffff1660e01b815260040161041891906118b9565b6000604051808303818588803b15801561043157600080fd5b505af1158015610445573d6000803e3d6000fd5b505050505050565b610455610a08565b7f000000000000000000000000000000000000000000000000000000000000000073ffffffffffffffffffffffffffffffffffffffff1663205c287883836040518363ffffffff1660e01b81526004016104b09291906118e3565b600060405180830381600087803b1580156104ca57600080fd5b505af11580156104de573d6000803e3d6000fd5b505050505050565b600260009054906101000a900473ffffffffffffffffffffffffffffffffffffffff1681565b610514610a08565b61051e6000610a8f565b565b60008060009054906101000a900473ffffffffffffffffffffffffffffffffffffffff16905090565b600160009054906101000a900473ffffffffffffffffffffffffffffffffffffffff1673ffffffffffffffffffffffffffffffffffffffff163373ffffffffffffffffffffffffffffffffffffffff16146105d9576040517f08c379a00000000000000000000000000000000000000000000000000000000081526004016105d090611969565b60405180910390fd5b80600160006101000a81548173ffffffffffffffffffffffffffffffffffffffff021916908373ffffffffffffffffffffffffffffffffffffffff16021790555050565b600080366000858560149060549261063793929190611993565b81019061064491906119ce565b80945081955050508585605490809261065f93929190611993565b9150915092959194509250565b6000610679848484610b53565b463060405160200161068d93929190611ab3565b6040516020818303038152906040528051906020012090509392505050565b6106b4610c03565b6106c084848484610c93565b50505050565b7f000000000000000000000000000000000000000000000000000000000000000081565b6106f2610a08565b7f000000000000000000000000000000000000000000000000000000000000000073ffffffffffffffffffffffffffffffffffffffff1663bb9fe6bf6040518163ffffffff1660e01b8152600401600060405180830381600087803b15801561075a57600080fd5b505af115801561076e573d6000803e3d6000fd5b50505050565b61077c610a08565b7f000000000000000000000000000000000000000000000000000000000000000073ffffffffffffffffffffffffffffffffffffffff1663c23a5cea826040518263ffffffff1660e01b81526004016107d59190611aec565b600060405180830381600087803b1580156107ef57600080fd5b505af1158015610803573d6000803e3d6000fd5b5050505050565b60007f000000000000000000000000000000000000000000000000000000000000000073ffffffffffffffffffffffffffffffffffffffff166370a08231306040518263ffffffff1660e01b8152600401610865919061132e565b602060405180830381865afa158015610882573d6000803e3d6000fd5b505050506040513d601f19601f820116820180604052508101906108a69190611b1c565b905090565b7f000000000000000000000000000000000000000000000000000000000000000073ffffffffffffffffffffffffffffffffffffffff1663b760faf934306040518363ffffffff1660e01b8152600401610905919061132e565b6000604051808303818588803b15801561091e57600080fd5b505af1158015610932573d6000803e3d6000fd5b5050505050565b610941610a08565b600073ffffffffffffffffffffffffffffffffffffffff168173ffffffffffffffffffffffffffffffffffffffff16036109b35760006040517f1e4fbdf70000000000000000000000000000000000000000000000000000000081526004016109aa919061132e565b60405180910390fd5b6109bc81610a8f565b50565b606060006109cb610c03565b6109d6858585610cce565b91509150935093915050565b600160009054906101000a900473ffffffffffffffffffffffffffffffffffffffff1681565b610a10610e5f565b73ffffffffffffffffffffffffffffffffffffffff16610a2e610520565b73ffffffffffffffffffffffffffffffffffffffff1614610a8d57610a51610e5f565b6040517f118cdaa7000000000000000000000000000000000000000000000000000000008152600401610a84919061132e565b60405180910390fd5b565b60008060009054906101000a900473ffffffffffffffffffffffffffffffffffffffff169050816000806101000a81548173ffffffffffffffffffffffffffffffffffffffff021916908373ffffffffffffffffffffffffffffffffffffffff1602179055508173ffffffffffffffffffffffffffffffffffffffff168173ffffffffffffffffffffffffffffffffffffffff167f8be0079c531659141344cd1fd0a4f28419497f9722a3daafe3b4186f6b6457e060405160405180910390a35050565b60606000610b6085610e67565b9050808560200135868060400190610b789190611b58565b604051610b86929190611be0565b6040518091039020878060600190610b9e9190611b58565b604051610bac929190611be0565b604051809103902088608001358960a001358a60c001358b60e001358c61010001358c8c604051602001610bea9b9a99989796959493929190611bf9565b6040516020818303038152906040529150509392505050565b7f000000000000000000000000000000000000000000000000000000000000000073ffffffffffffffffffffffffffffffffffffffff163373ffffffffffffffffffffffffffffffffffffffff1614610c91576040517f08c379a0000000000000000000000000000000000000000000000000000000008152600401610c8890611cf0565b60405180910390fd5b565b6040517f08c379a0000000000000000000000000000000000000000000000000000000008152600401610cc590611d5c565b60405180910390fd5b606060008080366000610cf089806101200190610ceb9190611b58565b61061d565b93509350935093506040828290501480610d0d5750604182829050145b610d4c576040517f08c379a0000000000000000000000000000000000000000000000000000000008152600401610d4390611dee565b60405180910390fd5b6000610d61610d5c8b878761066c565b610e77565b9050610db18184848080601f016020809104026020016040519081016040528093929190818152602001838380828437600081840152601f19601f82011690508083019250505050505050610ead565b73ffffffffffffffffffffffffffffffffffffffff16600260009054906101000a900473ffffffffffffffffffffffffffffffffffffffff1673ffffffffffffffffffffffffffffffffffffffff1614610e3057610e1160018686610ed9565b6040518060200160405280600081525090965096505050505050610e57565b610e3c60008686610ed9565b60405180602001604052806000815250909650965050505050505b935093915050565b600033905090565b6000808235905080915050919050565b60007f19457468657265756d205369676e6564204d6573736167653a0a33320000000060005281601c52603c6000209050919050565b600080600080610ebd8686610f12565b925092509250610ecd8282610f6e565b82935050505092915050565b600060d08265ffffffffffff16901b60a08465ffffffffffff16901b85610f01576000610f04565b60015b60ff16171790509392505050565b60008060006041845103610f575760008060006020870151925060408701519150606087015160001a9050610f49888285856110d2565b955095509550505050610f67565b60006002855160001b9250925092505b9250925092565b60006003811115610f8257610f81611e0e565b5b826003811115610f9557610f94611e0e565b5b03156110ce5760016003811115610faf57610fae611e0e565b5b826003811115610fc257610fc1611e0e565b5b03610ff9576040517ff645eedf00000000000000000000000000000000000000000000000000000000815260040160405180910390fd5b6002600381111561100d5761100c611e0e565b5b8260038111156110205761101f611e0e565b5b03611065578060001c6040517ffce698f700000000000000000000000000000000000000000000000000000000815260040161105c9190611756565b60405180910390fd5b60038081111561107857611077611e0e565b5b82600381111561108b5761108a611e0e565b5b036110cd57806040517fd78bce0c0000000000000000000000000000000000000000000000000000000081526004016110c491906115ec565b60405180910390fd5b5b5050565b60008060007f7fffffffffffffffffffffffffffffff5d576e7357a4501ddfe92f46681b20a08460001c11156111125760006003859250925092506111bc565b6000600188888888604051600081526020016040526040516111379493929190611e59565b6020604051602081039080840390855afa158015611159573d6000803e3d6000fd5b505050602060405103519050600073ffffffffffffffffffffffffffffffffffffffff168173ffffffffffffffffffffffffffffffffffffffff16036111ad57600060016000801b935093509350506111bc565b8060008060001b935093509350505b9450945094915050565b600080fd5b600080fd5b600063ffffffff82169050919050565b6111e9816111d0565b81146111f457600080fd5b50565b600081359050611206816111e0565b92915050565b600060208284031215611222576112216111c6565b5b6000611230848285016111f7565b91505092915050565b600073ffffffffffffffffffffffffffffffffffffffff82169050919050565b600061126482611239565b9050919050565b61127481611259565b811461127f57600080fd5b50565b6000813590506112918161126b565b92915050565b6000819050919050565b6112aa81611297565b81146112b557600080fd5b50565b6000813590506112c7816112a1565b92915050565b600080604083850312156112e4576112e36111c6565b5b60006112f285828601611282565b9250506020611303858286016112b8565b9150509250929050565b600061131882611239565b9050919050565b6113288161130d565b82525050565b6000602082019050611343600083018461131f565b92915050565b6113528161130d565b811461135d57600080fd5b50565b60008135905061136f81611349565b92915050565b60006020828403121561138b5761138a6111c6565b5b600061139984828501611360565b91505092915050565b600080fd5b600080fd5b600080fd5b60008083601f8401126113c7576113c66113a2565b5b8235905067ffffffffffffffff8111156113e4576113e36113a7565b5b602083019150836001820283011115611400576113ff6113ac565b5b9250929050565b6000806020838503121561141e5761141d6111c6565b5b600083013567ffffffffffffffff81111561143c5761143b6111cb565b5b611448858286016113b1565b92509250509250929050565b600065ffffffffffff82169050919050565b61146f81611454565b82525050565b600082825260208201905092915050565b82818337600083830152505050565b6000601f19601f8301169050919050565b60006114b28385611475565b93506114bf838584611486565b6114c883611495565b840190509392505050565b60006060820190506114e86000830187611466565b6114f56020830186611466565b81810360408301526115088184866114a6565b905095945050505050565b600080fd5b6000610160828403121561152f5761152e611513565b5b81905092915050565b61154181611454565b811461154c57600080fd5b50565b60008135905061155e81611538565b92915050565b60008060006060848603121561157d5761157c6111c6565b5b600084013567ffffffffffffffff81111561159b5761159a6111cb565b5b6115a786828701611518565b93505060206115b88682870161154f565b92505060406115c98682870161154f565b9150509250925092565b6000819050919050565b6115e6816115d3565b82525050565b600060208201905061160160008301846115dd565b92915050565b6003811061161457600080fd5b50565b60008135905061162681611607565b92915050565b60008060008060608587031215611646576116456111c6565b5b600061165487828801611617565b945050602085013567ffffffffffffffff811115611675576116746111cb565b5b611681878288016113b1565b93509350506040611694878288016112b8565b91505092959194509250565b6000819050919050565b60006116c56116c06116bb84611239565b6116a0565b611239565b9050919050565b60006116d7826116aa565b9050919050565b60006116e9826116cc565b9050919050565b6116f9816116de565b82525050565b600060208201905061171460008301846116f0565b92915050565b6000602082840312156117305761172f6111c6565b5b600061173e84828501611282565b91505092915050565b61175081611297565b82525050565b600060208201905061176b6000830184611747565b92915050565b61177a816115d3565b811461178557600080fd5b50565b60008135905061179781611771565b92915050565b6000806000606084860312156117b6576117b56111c6565b5b600084013567ffffffffffffffff8111156117d4576117d36111cb565b5b6117e086828701611518565b93505060206117f186828701611788565b9250506040611802868287016112b8565b9150509250925092565b600081519050919050565b60005b8381101561183557808201518184015260208101905061181a565b60008484015250505050565b600061184c8261180c565b6118568185611475565b9350611866818560208601611817565b61186f81611495565b840191505092915050565b600060408201905081810360008301526118948185611841565b90506118a36020830184611747565b9392505050565b6118b3816111d0565b82525050565b60006020820190506118ce60008301846118aa565b92915050565b6118dd81611259565b82525050565b60006040820190506118f860008301856118d4565b6119056020830184611747565b9392505050565b600082825260208201905092915050565b7f6f6e6c792061646d696e00000000000000000000000000000000000000000000600082015250565b6000611953600a8361190c565b915061195e8261191d565b602082019050919050565b6000602082019050818103600083015261198281611946565b9050919050565b600080fd5b600080fd5b600080858511156119a7576119a6611989565b5b838611156119b8576119b761198e565b5b6001850283019150848603905094509492505050565b600080604083850312156119e5576119e46111c6565b5b60006119f38582860161154f565b9250506020611a048582860161154f565b9150509250929050565b600081905092915050565b6000611a248261180c565b611a2e8185611a0e565b9350611a3e818560208601611817565b80840191505092915050565b6000819050919050565b611a65611a6082611297565b611a4a565b82525050565b60008160601b9050919050565b6000611a8382611a6b565b9050919050565b6000611a9582611a78565b9050919050565b611aad611aa88261130d565b611a8a565b82525050565b6000611abf8286611a19565b9150611acb8285611a54565b602082019150611adb8284611a9c565b601482019150819050949350505050565b6000602082019050611b0160008301846118d4565b92915050565b600081519050611b16816112a1565b92915050565b600060208284031215611b3257611b316111c6565b5b6000611b4084828501611b07565b91505092915050565b600080fd5b600080fd5b600080fd5b60008083356001602003843603038112611b7557611b74611b49565b5b80840192508235915067ffffffffffffffff821115611b9757611b96611b4e565b5b602083019250600182023603831315611bb357611bb2611b53565b5b509250929050565b6000611bc78385611a0e565b9350611bd4838584611486565b82840190509392505050565b6000611bed828486611bbb565b91508190509392505050565b600061016082019050611c0f600083018e61131f565b611c1c602083018d611747565b611c29604083018c6115dd565b611c36606083018b6115dd565b611c43608083018a611747565b611c5060a0830189611747565b611c5d60c0830188611747565b611c6a60e0830187611747565b611c78610100830186611747565b611c86610120830185611466565b611c94610140830184611466565b9c9b505050505050505050505050565b7f53656e646572206e6f7420456e747279506f696e740000000000000000000000600082015250565b6000611cda60158361190c565b9150611ce582611ca4565b602082019050919050565b60006020820190508181036000830152611d0981611ccd565b9050919050565b7f6d757374206f7665727269646500000000000000000000000000000000000000600082015250565b6000611d46600d8361190c565b9150611d5182611d10565b602082019050919050565b60006020820190508181036000830152611d7581611d39565b9050919050565b7f566572696679696e675061796d61737465723a20696e76616c6964207369676e60008201527f6174757265206c656e67746820696e207061796d6173746572416e6444617461602082015250565b6000611dd860408361190c565b9150611de382611d7c565b604082019050919050565b60006020820190508181036000830152611e0781611dcb565b9050919050565b7f4e487b7100000000000000000000000000000000000000000000000000000000600052602160045260246000fd5b600060ff82169050919050565b611e5381611e3d565b82525050565b6000608082019050611e6e60008301876115dd565b611e7b6020830186611e4a565b611e8860408301856115dd565b611e9560608301846115dd565b9594505050505056fea264697066735822122014243002c57d1016971384eeb685455fca303eeff6da10637baad5f6c818e04a64736f6c63430008140033",
  "linkReferences": {},
  "deployedLinkReferences": {}
}