{
  "_format": "hh-sol-artifact-1",
  "contractName": "VerifyingPaymaster",
  "sourceName": "contracts/utils/VerifyingPaymaster.sol",
  "abi": [
    {
      "inputs": [
        {
          "internalType": "contract IEntryPoint",
          "name": "_entryPoint",
          "type": "address"
        },
        {
          "internalType": "address",
          "name": "_verifyingSigner",
          "type": "address"
        }
      ],
      "stateMutability": "nonpayable",
      "type": "constructor"
    },
    {
      "inputs": [],
      "name": "ECDSAInvalidSignature",
      "type": "error"
    },
    {
      "inputs": [
        {
          "internalType": "uint256",
          "name": "length",
          "type": "uint256"
        }
      ],
      "name": "ECDSAInvalidSignatureLength",
      "type": "error"
    },
    {
      "inputs": [
        {
          "internalType": "bytes32",
          "name": "s",
          "type": "bytes32"
        }
      ],
      "name": "ECDSAInvalidSignatureS",
      "type": "error"
    },
    {
      "inputs": [
        {
          "internalType": "address",
          "name": "owner",
          "type": "address"
        }
      ],
      "name": "OwnableInvalidOwner",
      "type": "error"
    },
    {
      "inputs": [
        {
          "internalType": "address",
          "name": "account",
          "type": "address"
        }
      ],
      "name": "OwnableUnauthorizedAccount",
      "type": "error"
    },
    {
      "anonymous": false,
      "inputs": [
        {
          "indexed": true,
          "internalType": "address",
          "name": "previousOwner",
          "type": "address"
        },
        {
          "indexed": true,
          "internalType": "address",
          "name": "newOwner",
          "type": "address"
        }
      ],
      "name": "OwnershipTransferred",
      "type": "event"
    },
    {
      "inputs": [],
      "name": "Admin",
      "outputs": [
        {
          "internalType": "address",
          "name": "",
          "type": "address"
        }
      ],
      "stateMutability": "view",
      "type": "function"
    },
    {
      "inputs": [
        {
          "internalType": "address",
          "name": "_newAdmin",
          "type": "address"
        }
      ],
      "name": "ChangeAdmin",
      "outputs": [],
      "stateMutability": "nonpayable",
      "type": "function"
    },
    {
      "inputs": [
        {
          "internalType": "uint32",
          "name": "unstakeDelaySec",
          "type": "uint32"
        }
      ],
      "name": "addStake",
      "outputs": [],
      "stateMutability": "payable",
      "type": "function"
    },
    {
      "inputs": [],
      "name": "deposit",
      "outputs": [],
      "stateMutability": "payable",
      "type": "function"
    },
    {
      "inputs": [],
      "name": "entryPoint",
      "outputs": [
        {
          "internalType": "contract IEntryPoint",
          "name": "",
          "type": "address"
        }
      ],
      "stateMutability": "view",
      "type": "function"
    },
    {
      "inputs": [],
      "name": "getDeposit",
      "outputs": [
        {
          "internalType": "uint256",
          "name": "",
          "type": "uint256"
        }
      ],
      "stateMutability": "view",
      "type": "function"
    },
    {
      "inputs": [
        {
          "components": [
            {
              "internalType": "address",
              "name": "sender",
              "type": "address"
            },
            {
              "internalType": "uint256",
              "name": "nonce",
              "type": "uint256"
            },
            {
              "internalType": "bytes",
              "name": "initCode",
              "type": "bytes"
            },
            {
              "internalType": "bytes",
              "name": "callData",
              "type": "bytes"
            },
            {
              "internalType": "uint256",
              "name": "callGasLimit",
              "type": "uint256"
            },
            {
              "internalType": "uint256",
              "name": "verificationGasLimit",
              "type": "uint256"
            },
            {
              "internalType": "uint256",
              "name": "preVerificationGas",
              "type": "uint256"
            },
            {
              "internalType": "uint256",
              "name": "maxFeePerGas",
              "type": "uint256"
            },
            {
              "internalType": "uint256",
              "name": "maxPriorityFeePerGas",
              "type": "uint256"
            },
            {
              "internalType": "bytes",
              "name": "paymasterAndData",
              "type": "bytes"
            },
            {
              "internalType": "bytes",
              "name": "signature",
              "type": "bytes"
            }
          ],
          "internalType": "struct UserOperation",
          "name": "userOp",
          "type": "tuple"
        },
        {
          "internalType": "uint48",
          "name": "validUntil",
          "type": "uint48"
        },
        {
          "internalType": "uint48",
          "name": "validAfter",
          "type": "uint48"
        }
      ],
      "name": "getHash",
      "outputs": [
        {
          "internalType": "bytes32",
          "name": "",
          "type": "bytes32"
        }
      ],
      "stateMutability": "view",
      "type": "function"
    },
    {
      "inputs": [],
      "name": "owner",
      "outputs": [
        {
          "internalType": "address",
          "name": "",
          "type": "address"
        }
      ],
      "stateMutability": "view",
      "type": "function"
    },
    {
      "inputs": [
        {
          "internalType": "bytes",
          "name": "paymasterAndData",
          "type": "bytes"
        }
      ],
      "name": "parsePaymasterAndData",
      "outputs": [
        {
          "internalType": "uint48",
          "name": "validUntil",
          "type": "uint48"
        },
        {
          "internalType": "uint48",
          "name": "validAfter",
          "type": "uint48"
        },
        {
          "internalType": "bytes",
          "name": "signature",
          "type": "bytes"
        }
      ],
      "stateMutability": "pure",
      "type": "function"
    },
    {
      "inputs": [
        {
          "internalType": "enum IPaymaster.PostOpMode",
          "name": "mode",
          "type": "uint8"
        },
        {
          "internalType": "bytes",
          "name": "context",
          "type": "bytes"
        },
        {
          "internalType": "uint256",
          "name": "actualGasCost",
          "type": "uint256"
        }
      ],
      "name": "postOp",
      "outputs": [],
      "stateMutability": "nonpayable",
      "type": "function"
    },
    {
      "inputs": [],
      "name": "renounceOwnership",
      "outputs": [],
      "stateMutability": "nonpayable",
      "type": "function"
    },
    {
      "inputs": [
        {
          "internalType": "address",
          "name": "newOwner",
          "type": "address"
        }
      ],
      "name": "transferOwnership",
      "outputs": [],
      "stateMutability": "nonpayable",
      "type": "function"
    },
    {
      "inputs": [],
      "name": "unlockStake",
      "outputs": [],
      "stateMutability": "nonpayable",
      "type": "function"
    },
    {
      "inputs": [
        {
          "components": [
            {
              "internalType": "address",
              "name": "sender",
              "type": "address"
            },
            {
              "internalType": "uint256",
              "name": "nonce",
              "type": "uint256"
            },
            {
              "internalType": "bytes",
              "name": "initCode",
              "type": "bytes"
            },
            {
              "internalType": "bytes",
              "name": "callData",
              "type": "bytes"
            },
            {
              "internalType": "uint256",
              "name": "callGasLimit",
              "type": "uint256"
            },
            {
              "internalType": "uint256",
              "name": "verificationGasLimit",
              "type": "uint256"
            },
            {
              "internalType": "uint256",
              "name": "preVerificationGas",
              "type": "uint256"
            },
            {
              "internalType": "uint256",
              "name": "maxFeePerGas",
              "type": "uint256"
            },
            {
              "internalType": "uint256",
              "name": "maxPriorityFeePerGas",
              "type": "uint256"
            },
            {
              "internalType": "bytes",
              "name": "paymasterAndData",
              "type": "bytes"
            },
            {
              "internalType": "bytes",
              "name": "signature",
              "type": "bytes"
            }
          ],
          "internalType": "struct UserOperation",
          "name": "userOp",
          "type": "tuple"
        },
        {
          "internalType": "bytes32",
          "name": "userOpHash",
          "type": "bytes32"
        },
        {
          "internalType": "uint256",
          "name": "maxCost",
          "type": "uint256"
        }
      ],
      "name": "validatePaymasterUserOp",
      "outputs": [
        {
          "internalType": "bytes",
          "name": "context",
          "type": "bytes"
        },
        {
          "internalType": "uint256",
          "name": "validationData",
          "type": "uint256"
        }
      ],
      "stateMutability": "nonpayable",
      "type": "function"
    },
    {
      "inputs": [
        {
          "components": [
            {
              "internalType": "address",
              "name": "sender",
              "type": "address"
            },
            {
              "internalType": "uint256",
              "name": "nonce",
              "type": "uint256"
            },
            {
              "internalType": "bytes",
              "name": "initCode",
              "type": "bytes"
            },
            {
              "internalType": "bytes",
              "name": "callData",
              "type": "bytes"
            },
            {
              "internalType": "uint256",
              "name": "callGasLimit",
              "type": "uint256"
            },
            {
              "internalType": "uint256",
              "name": "verificationGasLimit",
              "type": "uint256"
            },
            {
              "internalType": "uint256",
              "name": "preVerificationGas",
              "type": "uint256"
            },
            {
              "internalType": "uint256",
              "name": "maxFeePerGas",
              "type": "uint256"
            },
            {
              "internalType": "uint256",
              "name": "maxPriorityFeePerGas",
              "type": "uint256"
            },
            {
              "internalType": "bytes",
              "name": "paymasterAndData",
              "type": "bytes"
            },
            {
              "internalType": "bytes",
              "name": "signature",
              "type": "bytes"
            }
          ],
          "internalType": "struct UserOperation",
          "name": "userOp",
          "type": "tuple"
        },
        {
          "internalType": "bytes32",
          "name": "",
          "type": "bytes32"
        },
        {
          "internalType": "uint256",
          "name": "requiredPreFund",
          "type": "uint256"
        }
      ],
      "name": "validatePaymasterUserOpPub",
      "outputs": [
        {
          "internalType": "bytes",
          "name": "context",
          "type": "bytes"
        },
        {
          "internalType": "uint256",
          "name": "vcalidationData",
          "type": "uint256"
        }
      ],
      "stateMutability": "view",
      "type": "function"
    },
    {
      "inputs": [],
      "name": "verifyingSigner",
      "outputs": [
        {
          "internalType": "address",
          "name": "",
          "type": "address"
        }
      ],
      "stateMutability": "view",
      "type": "function"
    },
    {
      "inputs": [
        {
          "internalType": "address payable",
          "name": "withdrawAddress",
          "type": "address"
        }
      ],
      "name": "withdrawStake",
      "outputs": [],
      "stateMutability": "nonpayable",
      "type": "function"
    },
    {
      "inputs": [
        {
          "internalType": "address payable",
          "name": "withdrawAddress",
          "type": "address"
        },
        {
          "internalType": "uint256",
          "name": "amount",
          "type": "uint256"
        }
      ],
      "name": "withdrawTo",
      "outputs": [],
      "stateMutability": "nonpayable",
      "type": "function"
    }
  ],
  "bytecode": "0x60a06040523480156200001157600080fd5b50604051620024dd380380620024dd8339818101604052810190620000379190620002f2565b8132600073ffffffffffffffffffffffffffffffffffffffff168173ffffffffffffffffffffffffffffffffffffffff1603620000ae5760006040517f1e4fbdf7000000000000000000000000000000000000000000000000000000008152600401620000a591906200034a565b60405180910390fd5b620000bf816200017f60201b60201c565b508073ffffffffffffffffffffffffffffffffffffffff1660808173ffffffffffffffffffffffffffffffffffffffff16815250505080600260006101000a81548173ffffffffffffffffffffffffffffffffffffffff021916908373ffffffffffffffffffffffffffffffffffffffff16021790555033600160006101000a81548173ffffffffffffffffffffffffffffffffffffffff021916908373ffffffffffffffffffffffffffffffffffffffff160217905550505062000367565b60008060009054906101000a900473ffffffffffffffffffffffffffffffffffffffff169050816000806101000a81548173ffffffffffffffffffffffffffffffffffffffff021916908373ffffffffffffffffffffffffffffffffffffffff1602179055508173ffffffffffffffffffffffffffffffffffffffff168173ffffffffffffffffffffffffffffffffffffffff167f8be0079c531659141344cd1fd0a4f28419497f9722a3daafe3b4186f6b6457e060405160405180910390a35050565b600080fd5b600073ffffffffffffffffffffffffffffffffffffffff82169050919050565b6000620002758262000248565b9050919050565b6000620002898262000268565b9050919050565b6200029b816200027c565b8114620002a757600080fd5b50565b600081519050620002bb8162000290565b92915050565b620002cc8162000268565b8114620002d857600080fd5b50565b600081519050620002ec81620002c1565b92915050565b600080604083850312156200030c576200030b62000243565b5b60006200031c85828601620002aa565b92505060206200032f85828601620002db565b9150509250929050565b620003448162000268565b82525050565b600060208201905062000361600083018462000339565b92915050565b608051612129620003b460003960008181610409015281816104a0015281816108b1015281816108dd01528181610967015281816109f701528181610a960152610e8901526121296000f3fe6080604052600436106101095760003560e01c8063a9a2340911610095578063c399ec8811610064578063c399ec8814610338578063d0e30db014610363578063f2fde38b1461036d578063f465c77e14610396578063ff1b636d146103d457610109565b8063a9a23409146102a4578063b0d691fe146102cd578063bb9fe6bf146102f8578063c23a5cea1461030f57610109565b8063715018a6116100dc578063715018a6146101bc5780638da5cb5b146101d3578063927cc064146101fe57806394d4ad601461022757806394e1fc191461026757610109565b80630396cb601461010e578063205c28781461012a57806323d9ac9b14610153578063687ca6201461017e575b600080fd5b610128600480360381019061012391906113f5565b6103ff565b005b34801561013657600080fd5b50610151600480360381019061014c91906114b6565b610496565b005b34801561015f57600080fd5b5061016861052f565b6040516101759190611517565b60405180910390f35b34801561018a57600080fd5b506101a560048036038101906101a0919061158d565b610555565b6040516101b392919061169b565b60405180910390f35b3480156101c857600080fd5b506101d16106f5565b005b3480156101df57600080fd5b506101e8610709565b6040516101f59190611517565b60405180910390f35b34801561020a57600080fd5b50610225600480360381019061022091906116f7565b610732565b005b34801561023357600080fd5b5061024e60048036038101906102499190611789565b610806565b60405161025e9493929190611833565b60405180910390f35b34801561027357600080fd5b5061028e6004803603810190610289919061189f565b610855565b60405161029b919061191d565b60405180910390f35b3480156102b057600080fd5b506102cb60048036038101906102c6919061195d565b610895565b005b3480156102d957600080fd5b506102e26108af565b6040516102ef9190611a30565b60405180910390f35b34801561030457600080fd5b5061030d6108d3565b005b34801561031b57600080fd5b5061033660048036038101906103319190611a4b565b61095d565b005b34801561034457600080fd5b5061034d6109f3565b60405161035a9190611a78565b60405180910390f35b61036b610a94565b005b34801561037957600080fd5b50610394600480360381019061038f91906116f7565b610b22565b005b3480156103a257600080fd5b506103bd60048036038101906103b8919061158d565b610ba8565b6040516103cb92919061169b565b60405180910390f35b3480156103e057600080fd5b506103e9610bcb565b6040516103f69190611517565b60405180910390f35b610407610bf1565b7f000000000000000000000000000000000000000000000000000000000000000073ffffffffffffffffffffffffffffffffffffffff16630396cb6034836040518363ffffffff1660e01b81526004016104619190611aa2565b6000604051808303818588803b15801561047a57600080fd5b505af115801561048e573d6000803e3d6000fd5b505050505050565b61049e610bf1565b7f000000000000000000000000000000000000000000000000000000000000000073ffffffffffffffffffffffffffffffffffffffff1663205c287883836040518363ffffffff1660e01b81526004016104f9929190611acc565b600060405180830381600087803b15801561051357600080fd5b505af1158015610527573d6000803e3d6000fd5b505050505050565b600260009054906101000a900473ffffffffffffffffffffffffffffffffffffffff1681565b606060008080366000610577898061012001906105729190611b04565b610806565b935093509350935060408282905014806105945750604182829050145b6105d3576040517f08c379a00000000000000000000000000000000000000000000000000000000081526004016105ca90611bea565b60405180910390fd5b60006105e86105e38b8787610855565b610c78565b90506106388184848080601f016020809104026020016040519081016040528093929190818152602001838380828437600081840152601f19601f82011690508083019250505050505050610cae565b73ffffffffffffffffffffffffffffffffffffffff16600260009054906101000a900473ffffffffffffffffffffffffffffffffffffffff1673ffffffffffffffffffffffffffffffffffffffff16146106c7576040517f08c379a00000000000000000000000000000000000000000000000000000000081526004016106be90611c56565b60405180910390fd5b6106d360008686610cda565b6040518060200160405280600081525090965096505050505050935093915050565b6106fd610bf1565b6107076000610d13565b565b60008060009054906101000a900473ffffffffffffffffffffffffffffffffffffffff16905090565b600160009054906101000a900473ffffffffffffffffffffffffffffffffffffffff1673ffffffffffffffffffffffffffffffffffffffff163373ffffffffffffffffffffffffffffffffffffffff16146107c2576040517f08c379a00000000000000000000000000000000000000000000000000000000081526004016107b990611cc2565b60405180910390fd5b80600160006101000a81548173ffffffffffffffffffffffffffffffffffffffff021916908373ffffffffffffffffffffffffffffffffffffffff16021790555050565b600080366000858560149060549261082093929190611cec565b81019061082d9190611d27565b80945081955050508585605490809261084893929190611cec565b9150915092959194509250565b6000610862848484610dd7565b463060405160200161087693929190611e0c565b6040516020818303038152906040528051906020012090509392505050565b61089d610e87565b6108a984848484610f17565b50505050565b7f000000000000000000000000000000000000000000000000000000000000000081565b6108db610bf1565b7f000000000000000000000000000000000000000000000000000000000000000073ffffffffffffffffffffffffffffffffffffffff1663bb9fe6bf6040518163ffffffff1660e01b8152600401600060405180830381600087803b15801561094357600080fd5b505af1158015610957573d6000803e3d6000fd5b50505050565b610965610bf1565b7f000000000000000000000000000000000000000000000000000000000000000073ffffffffffffffffffffffffffffffffffffffff1663c23a5cea826040518263ffffffff1660e01b81526004016109be9190611e45565b600060405180830381600087803b1580156109d857600080fd5b505af11580156109ec573d6000803e3d6000fd5b5050505050565b60007f000000000000000000000000000000000000000000000000000000000000000073ffffffffffffffffffffffffffffffffffffffff166370a08231306040518263ffffffff1660e01b8152600401610a4e9190611517565b602060405180830381865afa158015610a6b573d6000803e3d6000fd5b505050506040513d601f19601f82011682018060405250810190610a8f9190611e75565b905090565b7f000000000000000000000000000000000000000000000000000000000000000073ffffffffffffffffffffffffffffffffffffffff1663b760faf934306040518363ffffffff1660e01b8152600401610aee9190611517565b6000604051808303818588803b158015610b0757600080fd5b505af1158015610b1b573d6000803e3d6000fd5b5050505050565b610b2a610bf1565b600073ffffffffffffffffffffffffffffffffffffffff168173ffffffffffffffffffffffffffffffffffffffff1603610b9c5760006040517f1e4fbdf7000000000000000000000000000000000000000000000000000000008152600401610b939190611517565b60405180910390fd5b610ba581610d13565b50565b60606000610bb4610e87565b610bbf858585610f52565b91509150935093915050565b600160009054906101000a900473ffffffffffffffffffffffffffffffffffffffff1681565b610bf96110e3565b73ffffffffffffffffffffffffffffffffffffffff16610c17610709565b73ffffffffffffffffffffffffffffffffffffffff1614610c7657610c3a6110e3565b6040517f118cdaa7000000000000000000000000000000000000000000000000000000008152600401610c6d9190611517565b60405180910390fd5b565b60007f19457468657265756d205369676e6564204d6573736167653a0a33320000000060005281601c52603c6000209050919050565b600080600080610cbe86866110eb565b925092509250610cce8282611147565b82935050505092915050565b600060d08265ffffffffffff16901b60a08465ffffffffffff16901b85610d02576000610d05565b60015b60ff16171790509392505050565b60008060009054906101000a900473ffffffffffffffffffffffffffffffffffffffff169050816000806101000a81548173ffffffffffffffffffffffffffffffffffffffff021916908373ffffffffffffffffffffffffffffffffffffffff1602179055508173ffffffffffffffffffffffffffffffffffffffff168173ffffffffffffffffffffffffffffffffffffffff167f8be0079c531659141344cd1fd0a4f28419497f9722a3daafe3b4186f6b6457e060405160405180910390a35050565b60606000610de4856112ab565b9050808560200135868060400190610dfc9190611b04565b604051610e0a929190611ec7565b6040518091039020878060600190610e229190611b04565b604051610e30929190611ec7565b604051809103902088608001358960a001358a60c001358b60e001358c61010001358c8c604051602001610e6e9b9a99989796959493929190611ee0565b6040516020818303038152906040529150509392505050565b7f000000000000000000000000000000000000000000000000000000000000000073ffffffffffffffffffffffffffffffffffffffff163373ffffffffffffffffffffffffffffffffffffffff1614610f15576040517f08c379a0000000000000000000000000000000000000000000000000000000008152600401610f0c90611fd7565b60405180910390fd5b565b6040517f08c379a0000000000000000000000000000000000000000000000000000000008152600401610f4990612043565b60405180910390fd5b606060008080366000610f7489806101200190610f6f9190611b04565b610806565b93509350935093506040828290501480610f915750604182829050145b610fd0576040517f08c379a0000000000000000000000000000000000000000000000000000000008152600401610fc790611bea565b60405180910390fd5b6000610fe5610fe08b8787610855565b610c78565b90506110358184848080601f016020809104026020016040519081016040528093929190818152602001838380828437600081840152601f19601f82011690508083019250505050505050610cae565b73ffffffffffffffffffffffffffffffffffffffff16600260009054906101000a900473ffffffffffffffffffffffffffffffffffffffff1673ffffffffffffffffffffffffffffffffffffffff16146110b45761109560018686610cda565b60405180602001604052806000815250909650965050505050506110db565b6110c060008686610cda565b60405180602001604052806000815250909650965050505050505b935093915050565b600033905090565b600080600060418451036111305760008060006020870151925060408701519150606087015160001a9050611122888285856112bb565b955095509550505050611140565b60006002855160001b9250925092505b9250925092565b6000600381111561115b5761115a612063565b5b82600381111561116e5761116d612063565b5b03156112a7576001600381111561118857611187612063565b5b82600381111561119b5761119a612063565b5b036111d2576040517ff645eedf00000000000000000000000000000000000000000000000000000000815260040160405180910390fd5b600260038111156111e6576111e5612063565b5b8260038111156111f9576111f8612063565b5b0361123e578060001c6040517ffce698f70000000000000000000000000000000000000000000000000000000081526004016112359190611a78565b60405180910390fd5b60038081111561125157611250612063565b5b82600381111561126457611263612063565b5b036112a657806040517fd78bce0c00000000000000000000000000000000000000000000000000000000815260040161129d919061191d565b60405180910390fd5b5b5050565b6000808235905080915050919050565b60008060007f7fffffffffffffffffffffffffffffff5d576e7357a4501ddfe92f46681b20a08460001c11156112fb5760006003859250925092506113a5565b60006001888888886040516000815260200160405260405161132094939291906120ae565b6020604051602081039080840390855afa158015611342573d6000803e3d6000fd5b505050602060405103519050600073ffffffffffffffffffffffffffffffffffffffff168173ffffffffffffffffffffffffffffffffffffffff160361139657600060016000801b935093509350506113a5565b8060008060001b935093509350505b9450945094915050565b600080fd5b600080fd5b600063ffffffff82169050919050565b6113d2816113b9565b81146113dd57600080fd5b50565b6000813590506113ef816113c9565b92915050565b60006020828403121561140b5761140a6113af565b5b6000611419848285016113e0565b91505092915050565b600073ffffffffffffffffffffffffffffffffffffffff82169050919050565b600061144d82611422565b9050919050565b61145d81611442565b811461146857600080fd5b50565b60008135905061147a81611454565b92915050565b6000819050919050565b61149381611480565b811461149e57600080fd5b50565b6000813590506114b08161148a565b92915050565b600080604083850312156114cd576114cc6113af565b5b60006114db8582860161146b565b92505060206114ec858286016114a1565b9150509250929050565b600061150182611422565b9050919050565b611511816114f6565b82525050565b600060208201905061152c6000830184611508565b92915050565b600080fd5b6000610160828403121561154e5761154d611532565b5b81905092915050565b6000819050919050565b61156a81611557565b811461157557600080fd5b50565b60008135905061158781611561565b92915050565b6000806000606084860312156115a6576115a56113af565b5b600084013567ffffffffffffffff8111156115c4576115c36113b4565b5b6115d086828701611537565b93505060206115e186828701611578565b92505060406115f2868287016114a1565b9150509250925092565b600081519050919050565b600082825260208201905092915050565b60005b8381101561163657808201518184015260208101905061161b565b60008484015250505050565b6000601f19601f8301169050919050565b600061165e826115fc565b6116688185611607565b9350611678818560208601611618565b61168181611642565b840191505092915050565b61169581611480565b82525050565b600060408201905081810360008301526116b58185611653565b90506116c4602083018461168c565b9392505050565b6116d4816114f6565b81146116df57600080fd5b50565b6000813590506116f1816116cb565b92915050565b60006020828403121561170d5761170c6113af565b5b600061171b848285016116e2565b91505092915050565b600080fd5b600080fd5b600080fd5b60008083601f84011261174957611748611724565b5b8235905067ffffffffffffffff81111561176657611765611729565b5b6020830191508360018202830111156117825761178161172e565b5b9250929050565b600080602083850312156117a05761179f6113af565b5b600083013567ffffffffffffffff8111156117be576117bd6113b4565b5b6117ca85828601611733565b92509250509250929050565b600065ffffffffffff82169050919050565b6117f1816117d6565b82525050565b82818337600083830152505050565b60006118128385611607565b935061181f8385846117f7565b61182883611642565b840190509392505050565b600060608201905061184860008301876117e8565b61185560208301866117e8565b8181036040830152611868818486611806565b905095945050505050565b61187c816117d6565b811461188757600080fd5b50565b60008135905061189981611873565b92915050565b6000806000606084860312156118b8576118b76113af565b5b600084013567ffffffffffffffff8111156118d6576118d56113b4565b5b6118e286828701611537565b93505060206118f38682870161188a565b92505060406119048682870161188a565b9150509250925092565b61191781611557565b82525050565b6000602082019050611932600083018461190e565b92915050565b6003811061194557600080fd5b50565b60008135905061195781611938565b92915050565b60008060008060608587031215611977576119766113af565b5b600061198587828801611948565b945050602085013567ffffffffffffffff8111156119a6576119a56113b4565b5b6119b287828801611733565b935093505060406119c5878288016114a1565b91505092959194509250565b6000819050919050565b60006119f66119f16119ec84611422565b6119d1565b611422565b9050919050565b6000611a08826119db565b9050919050565b6000611a1a826119fd565b9050919050565b611a2a81611a0f565b82525050565b6000602082019050611a456000830184611a21565b92915050565b600060208284031215611a6157611a606113af565b5b6000611a6f8482850161146b565b91505092915050565b6000602082019050611a8d600083018461168c565b92915050565b611a9c816113b9565b82525050565b6000602082019050611ab76000830184611a93565b92915050565b611ac681611442565b82525050565b6000604082019050611ae16000830185611abd565b611aee602083018461168c565b9392505050565b600080fd5b600080fd5b600080fd5b60008083356001602003843603038112611b2157611b20611af5565b5b80840192508235915067ffffffffffffffff821115611b4357611b42611afa565b5b602083019250600182023603831315611b5f57611b5e611aff565b5b509250929050565b600082825260208201905092915050565b7f566572696679696e675061796d61737465723a20696e76616c6964207369676e60008201527f6174757265206c656e67746820696e207061796d6173746572416e6444617461602082015250565b6000611bd4604083611b67565b9150611bdf82611b78565b604082019050919050565b60006020820190508181036000830152611c0381611bc7565b9050919050565b7f6572722073696700000000000000000000000000000000000000000000000000600082015250565b6000611c40600783611b67565b9150611c4b82611c0a565b602082019050919050565b60006020820190508181036000830152611c6f81611c33565b9050919050565b7f6f6e6c792061646d696e00000000000000000000000000000000000000000000600082015250565b6000611cac600a83611b67565b9150611cb782611c76565b602082019050919050565b60006020820190508181036000830152611cdb81611c9f565b9050919050565b600080fd5b600080fd5b60008085851115611d0057611cff611ce2565b5b83861115611d1157611d10611ce7565b5b6001850283019150848603905094509492505050565b60008060408385031215611d3e57611d3d6113af565b5b6000611d4c8582860161188a565b9250506020611d5d8582860161188a565b9150509250929050565b600081905092915050565b6000611d7d826115fc565b611d878185611d67565b9350611d97818560208601611618565b80840191505092915050565b6000819050919050565b611dbe611db982611480565b611da3565b82525050565b60008160601b9050919050565b6000611ddc82611dc4565b9050919050565b6000611dee82611dd1565b9050919050565b611e06611e01826114f6565b611de3565b82525050565b6000611e188286611d72565b9150611e248285611dad565b602082019150611e348284611df5565b601482019150819050949350505050565b6000602082019050611e5a6000830184611abd565b92915050565b600081519050611e6f8161148a565b92915050565b600060208284031215611e8b57611e8a6113af565b5b6000611e9984828501611e60565b91505092915050565b6000611eae8385611d67565b9350611ebb8385846117f7565b82840190509392505050565b6000611ed4828486611ea2565b91508190509392505050565b600061016082019050611ef6600083018e611508565b611f03602083018d61168c565b611f10604083018c61190e565b611f1d606083018b61190e565b611f2a608083018a61168c565b611f3760a083018961168c565b611f4460c083018861168c565b611f5160e083018761168c565b611f5f61010083018661168c565b611f6d6101208301856117e8565b611f7b6101408301846117e8565b9c9b505050505050505050505050565b7f53656e646572206e6f7420456e747279506f696e740000000000000000000000600082015250565b6000611fc1601583611b67565b9150611fcc82611f8b565b602082019050919050565b60006020820190508181036000830152611ff081611fb4565b9050919050565b7f6d757374206f7665727269646500000000000000000000000000000000000000600082015250565b600061202d600d83611b67565b915061203882611ff7565b602082019050919050565b6000602082019050818103600083015261205c81612020565b9050919050565b7f4e487b7100000000000000000000000000000000000000000000000000000000600052602160045260246000fd5b600060ff82169050919050565b6120a881612092565b82525050565b60006080820190506120c3600083018761190e565b6120d0602083018661209f565b6120dd604083018561190e565b6120ea606083018461190e565b9594505050505056fea26469706673582212203f364dbea91b5bc10f1b4ac33d67f227f39bd3762645527f9e4fac35054bb2db64736f6c63430008140033",
  "linkReferences": {},
  "deployedLinkReferences": {}
}