{
  "_format": "hh-sol-artifact-1",
  "contractName": "VerifyingPaymaster",
  "sourceName": "contracts/utils/VerifyingPaymaster.sol",
  "abi": [
    {
      "inputs": [
        {
          "internalType": "contract IEntryPoint",
          "name": "_entryPoint",
          "type": "address"
        },
        {
          "internalType": "address",
          "name": "_verifyingSigner",
          "type": "address"
        }
      ],
      "stateMutability": "nonpayable",
      "type": "constructor"
    },
    {
      "inputs": [],
      "name": "ECDSAInvalidSignature",
      "type": "error"
    },
    {
      "inputs": [
        {
          "internalType": "uint256",
          "name": "length",
          "type": "uint256"
        }
      ],
      "name": "ECDSAInvalidSignatureLength",
      "type": "error"
    },
    {
      "inputs": [
        {
          "internalType": "bytes32",
          "name": "s",
          "type": "bytes32"
        }
      ],
      "name": "ECDSAInvalidSignatureS",
      "type": "error"
    },
    {
      "inputs": [
        {
          "internalType": "address",
          "name": "owner",
          "type": "address"
        }
      ],
      "name": "OwnableInvalidOwner",
      "type": "error"
    },
    {
      "inputs": [
        {
          "internalType": "address",
          "name": "account",
          "type": "address"
        }
      ],
      "name": "OwnableUnauthorizedAccount",
      "type": "error"
    },
    {
      "anonymous": false,
      "inputs": [
        {
          "indexed": true,
          "internalType": "address",
          "name": "previousOwner",
          "type": "address"
        },
        {
          "indexed": true,
          "internalType": "address",
          "name": "newOwner",
          "type": "address"
        }
      ],
      "name": "OwnershipTransferred",
      "type": "event"
    },
    {
      "inputs": [],
      "name": "Admin",
      "outputs": [
        {
          "internalType": "address",
          "name": "",
          "type": "address"
        }
      ],
      "stateMutability": "view",
      "type": "function"
    },
    {
      "inputs": [
        {
          "internalType": "address",
          "name": "_newAdmin",
          "type": "address"
        }
      ],
      "name": "ChangeAdmin",
      "outputs": [],
      "stateMutability": "nonpayable",
      "type": "function"
    },
    {
      "inputs": [
        {
          "internalType": "uint32",
          "name": "unstakeDelaySec",
          "type": "uint32"
        }
      ],
      "name": "addStake",
      "outputs": [],
      "stateMutability": "payable",
      "type": "function"
    },
    {
      "inputs": [],
      "name": "deposit",
      "outputs": [],
      "stateMutability": "payable",
      "type": "function"
    },
    {
      "inputs": [],
      "name": "entryPoint",
      "outputs": [
        {
          "internalType": "contract IEntryPoint",
          "name": "",
          "type": "address"
        }
      ],
      "stateMutability": "view",
      "type": "function"
    },
    {
      "inputs": [],
      "name": "getDeposit",
      "outputs": [
        {
          "internalType": "uint256",
          "name": "",
          "type": "uint256"
        }
      ],
      "stateMutability": "view",
      "type": "function"
    },
    {
      "inputs": [
        {
          "components": [
            {
              "internalType": "address",
              "name": "sender",
              "type": "address"
            },
            {
              "internalType": "uint256",
              "name": "nonce",
              "type": "uint256"
            },
            {
              "internalType": "bytes",
              "name": "initCode",
              "type": "bytes"
            },
            {
              "internalType": "bytes",
              "name": "callData",
              "type": "bytes"
            },
            {
              "internalType": "uint256",
              "name": "callGasLimit",
              "type": "uint256"
            },
            {
              "internalType": "uint256",
              "name": "verificationGasLimit",
              "type": "uint256"
            },
            {
              "internalType": "uint256",
              "name": "preVerificationGas",
              "type": "uint256"
            },
            {
              "internalType": "uint256",
              "name": "maxFeePerGas",
              "type": "uint256"
            },
            {
              "internalType": "uint256",
              "name": "maxPriorityFeePerGas",
              "type": "uint256"
            },
            {
              "internalType": "bytes",
              "name": "paymasterAndData",
              "type": "bytes"
            },
            {
              "internalType": "bytes",
              "name": "signature",
              "type": "bytes"
            }
          ],
          "internalType": "struct UserOperation",
          "name": "userOp",
          "type": "tuple"
        },
        {
          "internalType": "uint48",
          "name": "validUntil",
          "type": "uint48"
        },
        {
          "internalType": "uint48",
          "name": "validAfter",
          "type": "uint48"
        }
      ],
      "name": "getHash",
      "outputs": [
        {
          "internalType": "bytes32",
          "name": "",
          "type": "bytes32"
        }
      ],
      "stateMutability": "view",
      "type": "function"
    },
    {
      "inputs": [],
      "name": "owner",
      "outputs": [
        {
          "internalType": "address",
          "name": "",
          "type": "address"
        }
      ],
      "stateMutability": "view",
      "type": "function"
    },
    {
      "inputs": [
        {
          "internalType": "bytes",
          "name": "paymasterAndData",
          "type": "bytes"
        }
      ],
      "name": "parsePaymasterAndData",
      "outputs": [
        {
          "internalType": "uint48",
          "name": "validUntil",
          "type": "uint48"
        },
        {
          "internalType": "uint48",
          "name": "validAfter",
          "type": "uint48"
        },
        {
          "internalType": "bytes",
          "name": "signature",
          "type": "bytes"
        }
      ],
      "stateMutability": "pure",
      "type": "function"
    },
    {
      "inputs": [
        {
          "internalType": "enum IPaymaster.PostOpMode",
          "name": "mode",
          "type": "uint8"
        },
        {
          "internalType": "bytes",
          "name": "context",
          "type": "bytes"
        },
        {
          "internalType": "uint256",
          "name": "actualGasCost",
          "type": "uint256"
        }
      ],
      "name": "postOp",
      "outputs": [],
      "stateMutability": "nonpayable",
      "type": "function"
    },
    {
      "inputs": [],
      "name": "renounceOwnership",
      "outputs": [],
      "stateMutability": "nonpayable",
      "type": "function"
    },
    {
      "inputs": [
        {
          "internalType": "address",
          "name": "newOwner",
          "type": "address"
        }
      ],
      "name": "transferOwnership",
      "outputs": [],
      "stateMutability": "nonpayable",
      "type": "function"
    },
    {
      "inputs": [],
      "name": "unlockStake",
      "outputs": [],
      "stateMutability": "nonpayable",
      "type": "function"
    },
    {
      "inputs": [
        {
          "components": [
            {
              "internalType": "address",
              "name": "sender",
              "type": "address"
            },
            {
              "internalType": "uint256",
              "name": "nonce",
              "type": "uint256"
            },
            {
              "internalType": "bytes",
              "name": "initCode",
              "type": "bytes"
            },
            {
              "internalType": "bytes",
              "name": "callData",
              "type": "bytes"
            },
            {
              "internalType": "uint256",
              "name": "callGasLimit",
              "type": "uint256"
            },
            {
              "internalType": "uint256",
              "name": "verificationGasLimit",
              "type": "uint256"
            },
            {
              "internalType": "uint256",
              "name": "preVerificationGas",
              "type": "uint256"
            },
            {
              "internalType": "uint256",
              "name": "maxFeePerGas",
              "type": "uint256"
            },
            {
              "internalType": "uint256",
              "name": "maxPriorityFeePerGas",
              "type": "uint256"
            },
            {
              "internalType": "bytes",
              "name": "paymasterAndData",
              "type": "bytes"
            },
            {
              "internalType": "bytes",
              "name": "signature",
              "type": "bytes"
            }
          ],
          "internalType": "struct UserOperation",
          "name": "userOp",
          "type": "tuple"
        },
        {
          "internalType": "bytes32",
          "name": "userOpHash",
          "type": "bytes32"
        },
        {
          "internalType": "uint256",
          "name": "maxCost",
          "type": "uint256"
        }
      ],
      "name": "validatePaymasterUserOp",
      "outputs": [
        {
          "internalType": "bytes",
          "name": "context",
          "type": "bytes"
        },
        {
          "internalType": "uint256",
          "name": "validationData",
          "type": "uint256"
        }
      ],
      "stateMutability": "nonpayable",
      "type": "function"
    },
    {
      "inputs": [
        {
          "components": [
            {
              "internalType": "address",
              "name": "sender",
              "type": "address"
            },
            {
              "internalType": "uint256",
              "name": "nonce",
              "type": "uint256"
            },
            {
              "internalType": "bytes",
              "name": "initCode",
              "type": "bytes"
            },
            {
              "internalType": "bytes",
              "name": "callData",
              "type": "bytes"
            },
            {
              "internalType": "uint256",
              "name": "callGasLimit",
              "type": "uint256"
            },
            {
              "internalType": "uint256",
              "name": "verificationGasLimit",
              "type": "uint256"
            },
            {
              "internalType": "uint256",
              "name": "preVerificationGas",
              "type": "uint256"
            },
            {
              "internalType": "uint256",
              "name": "maxFeePerGas",
              "type": "uint256"
            },
            {
              "internalType": "uint256",
              "name": "maxPriorityFeePerGas",
              "type": "uint256"
            },
            {
              "internalType": "bytes",
              "name": "paymasterAndData",
              "type": "bytes"
            },
            {
              "internalType": "bytes",
              "name": "signature",
              "type": "bytes"
            }
          ],
          "internalType": "struct UserOperation",
          "name": "userOp",
          "type": "tuple"
        },
        {
          "internalType": "bytes32",
          "name": "",
          "type": "bytes32"
        },
        {
          "internalType": "uint256",
          "name": "requiredPreFund",
          "type": "uint256"
        }
      ],
      "name": "validatePaymasterUserOpPub",
      "outputs": [
        {
          "internalType": "bytes",
          "name": "context",
          "type": "bytes"
        },
        {
          "internalType": "uint256",
          "name": "vcalidationData",
          "type": "uint256"
        }
      ],
      "stateMutability": "view",
      "type": "function"
    },
    {
      "inputs": [],
      "name": "verifyingSigner",
      "outputs": [
        {
          "internalType": "address",
          "name": "",
          "type": "address"
        }
      ],
      "stateMutability": "view",
      "type": "function"
    },
    {
      "inputs": [],
      "name": "withdrawBalance",
      "outputs": [],
      "stateMutability": "nonpayable",
      "type": "function"
    },
    {
      "inputs": [
        {
          "internalType": "address payable",
          "name": "withdrawAddress",
          "type": "address"
        }
      ],
      "name": "withdrawStake",
      "outputs": [],
      "stateMutability": "nonpayable",
      "type": "function"
    },
    {
      "inputs": [
        {
          "internalType": "address payable",
          "name": "withdrawAddress",
          "type": "address"
        },
        {
          "internalType": "uint256",
          "name": "amount",
          "type": "uint256"
        }
      ],
      "name": "withdrawTo",
      "outputs": [],
      "stateMutability": "nonpayable",
      "type": "function"
    },
    {
      "stateMutability": "payable",
      "type": "receive"
    }
  ],
  "bytecode": "0x60a06040523480156200001157600080fd5b50604051620025e3380380620025e38339818101604052810190620000379190620002f2565b8132600073ffffffffffffffffffffffffffffffffffffffff168173ffffffffffffffffffffffffffffffffffffffff1603620000ae5760006040517f1e4fbdf7000000000000000000000000000000000000000000000000000000008152600401620000a591906200034a565b60405180910390fd5b620000bf816200017f60201b60201c565b508073ffffffffffffffffffffffffffffffffffffffff1660808173ffffffffffffffffffffffffffffffffffffffff16815250505080600260006101000a81548173ffffffffffffffffffffffffffffffffffffffff021916908373ffffffffffffffffffffffffffffffffffffffff16021790555033600160006101000a81548173ffffffffffffffffffffffffffffffffffffffff021916908373ffffffffffffffffffffffffffffffffffffffff160217905550505062000367565b60008060009054906101000a900473ffffffffffffffffffffffffffffffffffffffff169050816000806101000a81548173ffffffffffffffffffffffffffffffffffffffff021916908373ffffffffffffffffffffffffffffffffffffffff1602179055508173ffffffffffffffffffffffffffffffffffffffff168173ffffffffffffffffffffffffffffffffffffffff167f8be0079c531659141344cd1fd0a4f28419497f9722a3daafe3b4186f6b6457e060405160405180910390a35050565b600080fd5b600073ffffffffffffffffffffffffffffffffffffffff82169050919050565b6000620002758262000248565b9050919050565b6000620002898262000268565b9050919050565b6200029b816200027c565b8114620002a757600080fd5b50565b600081519050620002bb8162000290565b92915050565b620002cc8162000268565b8114620002d857600080fd5b50565b600081519050620002ec81620002c1565b92915050565b600080604083850312156200030c576200030b62000243565b5b60006200031c85828601620002aa565b92505060206200032f85828601620002db565b9150509250929050565b620003448162000268565b82525050565b600060208201905062000361600083018462000339565b92915050565b60805161222f620003b460003960008181610436015281816104cd015281816109b7015281816109e301528181610a6d01528181610afd01528181610b9c0152610f8f015261222f6000f3fe6080604052600436106101185760003560e01c806394e1fc19116100a0578063c399ec8811610064578063c399ec8814610365578063d0e30db014610390578063f2fde38b1461039a578063f465c77e146103c3578063ff1b636d146104015761011f565b806394e1fc1914610294578063a9a23409146102d1578063b0d691fe146102fa578063bb9fe6bf14610325578063c23a5cea1461033c5761011f565b8063687ca620116100e7578063687ca620146101ab578063715018a6146101e95780638da5cb5b14610200578063927cc0641461022b57806394d4ad60146102545761011f565b80630396cb6014610124578063205c28781461014057806323d9ac9b146101695780635fd8c710146101945761011f565b3661011f57005b600080fd5b61013e600480360381019061013991906114fb565b61042c565b005b34801561014c57600080fd5b50610167600480360381019061016291906115bc565b6104c3565b005b34801561017557600080fd5b5061017e61055c565b60405161018b919061161d565b60405180910390f35b3480156101a057600080fd5b506101a9610582565b005b3480156101b757600080fd5b506101d260048036038101906101cd9190611693565b61065b565b6040516101e09291906117a1565b60405180910390f35b3480156101f557600080fd5b506101fe6107fb565b005b34801561020c57600080fd5b5061021561080f565b604051610222919061161d565b60405180910390f35b34801561023757600080fd5b50610252600480360381019061024d91906117fd565b610838565b005b34801561026057600080fd5b5061027b6004803603810190610276919061188f565b61090c565b60405161028b9493929190611939565b60405180910390f35b3480156102a057600080fd5b506102bb60048036038101906102b691906119a5565b61095b565b6040516102c89190611a23565b60405180910390f35b3480156102dd57600080fd5b506102f860048036038101906102f39190611a63565b61099b565b005b34801561030657600080fd5b5061030f6109b5565b60405161031c9190611b36565b60405180910390f35b34801561033157600080fd5b5061033a6109d9565b005b34801561034857600080fd5b50610363600480360381019061035e9190611b51565b610a63565b005b34801561037157600080fd5b5061037a610af9565b6040516103879190611b7e565b60405180910390f35b610398610b9a565b005b3480156103a657600080fd5b506103c160048036038101906103bc91906117fd565b610c28565b005b3480156103cf57600080fd5b506103ea60048036038101906103e59190611693565b610cae565b6040516103f89291906117a1565b60405180910390f35b34801561040d57600080fd5b50610416610cd1565b604051610423919061161d565b60405180910390f35b610434610cf7565b7f000000000000000000000000000000000000000000000000000000000000000073ffffffffffffffffffffffffffffffffffffffff16630396cb6034836040518363ffffffff1660e01b815260040161048e9190611ba8565b6000604051808303818588803b1580156104a757600080fd5b505af11580156104bb573d6000803e3d6000fd5b505050505050565b6104cb610cf7565b7f000000000000000000000000000000000000000000000000000000000000000073ffffffffffffffffffffffffffffffffffffffff1663205c287883836040518363ffffffff1660e01b8152600401610526929190611bd2565b600060405180830381600087803b15801561054057600080fd5b505af1158015610554573d6000803e3d6000fd5b505050505050565b600260009054906101000a900473ffffffffffffffffffffffffffffffffffffffff1681565b600160009054906101000a900473ffffffffffffffffffffffffffffffffffffffff1673ffffffffffffffffffffffffffffffffffffffff163373ffffffffffffffffffffffffffffffffffffffff1614610612576040517f08c379a000000000000000000000000000000000000000000000000000000000815260040161060990611c58565b60405180910390fd5b3373ffffffffffffffffffffffffffffffffffffffff166108fc479081150290604051600060405180830381858888f19350505050158015610658573d6000803e3d6000fd5b50565b60606000808036600061067d898061012001906106789190611c87565b61090c565b9350935093509350604082829050148061069a5750604182829050145b6106d9576040517f08c379a00000000000000000000000000000000000000000000000000000000081526004016106d090611d5c565b60405180910390fd5b60006106ee6106e98b878761095b565b610d7e565b905061073e8184848080601f016020809104026020016040519081016040528093929190818152602001838380828437600081840152601f19601f82011690508083019250505050505050610db4565b73ffffffffffffffffffffffffffffffffffffffff16600260009054906101000a900473ffffffffffffffffffffffffffffffffffffffff1673ffffffffffffffffffffffffffffffffffffffff16146107cd576040517f08c379a00000000000000000000000000000000000000000000000000000000081526004016107c490611dc8565b60405180910390fd5b6107d960008686610de0565b6040518060200160405280600081525090965096505050505050935093915050565b610803610cf7565b61080d6000610e19565b565b60008060009054906101000a900473ffffffffffffffffffffffffffffffffffffffff16905090565b600160009054906101000a900473ffffffffffffffffffffffffffffffffffffffff1673ffffffffffffffffffffffffffffffffffffffff163373ffffffffffffffffffffffffffffffffffffffff16146108c8576040517f08c379a00000000000000000000000000000000000000000000000000000000081526004016108bf90611c58565b60405180910390fd5b80600160006101000a81548173ffffffffffffffffffffffffffffffffffffffff021916908373ffffffffffffffffffffffffffffffffffffffff16021790555050565b600080366000858560149060549261092693929190611df2565b8101906109339190611e2d565b80945081955050508585605490809261094e93929190611df2565b9150915092959194509250565b6000610968848484610edd565b463060405160200161097c93929190611f12565b6040516020818303038152906040528051906020012090509392505050565b6109a3610f8d565b6109af8484848461101d565b50505050565b7f000000000000000000000000000000000000000000000000000000000000000081565b6109e1610cf7565b7f000000000000000000000000000000000000000000000000000000000000000073ffffffffffffffffffffffffffffffffffffffff1663bb9fe6bf6040518163ffffffff1660e01b8152600401600060405180830381600087803b158015610a4957600080fd5b505af1158015610a5d573d6000803e3d6000fd5b50505050565b610a6b610cf7565b7f000000000000000000000000000000000000000000000000000000000000000073ffffffffffffffffffffffffffffffffffffffff1663c23a5cea826040518263ffffffff1660e01b8152600401610ac49190611f4b565b600060405180830381600087803b158015610ade57600080fd5b505af1158015610af2573d6000803e3d6000fd5b5050505050565b60007f000000000000000000000000000000000000000000000000000000000000000073ffffffffffffffffffffffffffffffffffffffff166370a08231306040518263ffffffff1660e01b8152600401610b54919061161d565b602060405180830381865afa158015610b71573d6000803e3d6000fd5b505050506040513d601f19601f82011682018060405250810190610b959190611f7b565b905090565b7f000000000000000000000000000000000000000000000000000000000000000073ffffffffffffffffffffffffffffffffffffffff1663b760faf934306040518363ffffffff1660e01b8152600401610bf4919061161d565b6000604051808303818588803b158015610c0d57600080fd5b505af1158015610c21573d6000803e3d6000fd5b5050505050565b610c30610cf7565b600073ffffffffffffffffffffffffffffffffffffffff168173ffffffffffffffffffffffffffffffffffffffff1603610ca25760006040517f1e4fbdf7000000000000000000000000000000000000000000000000000000008152600401610c99919061161d565b60405180910390fd5b610cab81610e19565b50565b60606000610cba610f8d565b610cc5858585611058565b91509150935093915050565b600160009054906101000a900473ffffffffffffffffffffffffffffffffffffffff1681565b610cff6111e9565b73ffffffffffffffffffffffffffffffffffffffff16610d1d61080f565b73ffffffffffffffffffffffffffffffffffffffff1614610d7c57610d406111e9565b6040517f118cdaa7000000000000000000000000000000000000000000000000000000008152600401610d73919061161d565b60405180910390fd5b565b60007f19457468657265756d205369676e6564204d6573736167653a0a33320000000060005281601c52603c6000209050919050565b600080600080610dc486866111f1565b925092509250610dd4828261124d565b82935050505092915050565b600060d08265ffffffffffff16901b60a08465ffffffffffff16901b85610e08576000610e0b565b60015b60ff16171790509392505050565b60008060009054906101000a900473ffffffffffffffffffffffffffffffffffffffff169050816000806101000a81548173ffffffffffffffffffffffffffffffffffffffff021916908373ffffffffffffffffffffffffffffffffffffffff1602179055508173ffffffffffffffffffffffffffffffffffffffff168173ffffffffffffffffffffffffffffffffffffffff167f8be0079c531659141344cd1fd0a4f28419497f9722a3daafe3b4186f6b6457e060405160405180910390a35050565b60606000610eea856113b1565b9050808560200135868060400190610f029190611c87565b604051610f10929190611fcd565b6040518091039020878060600190610f289190611c87565b604051610f36929190611fcd565b604051809103902088608001358960a001358a60c001358b60e001358c61010001358c8c604051602001610f749b9a99989796959493929190611fe6565b6040516020818303038152906040529150509392505050565b7f000000000000000000000000000000000000000000000000000000000000000073ffffffffffffffffffffffffffffffffffffffff163373ffffffffffffffffffffffffffffffffffffffff161461101b576040517f08c379a0000000000000000000000000000000000000000000000000000000008152600401611012906120dd565b60405180910390fd5b565b6040517f08c379a000000000000000000000000000000000000000000000000000000000815260040161104f90612149565b60405180910390fd5b60606000808036600061107a898061012001906110759190611c87565b61090c565b935093509350935060408282905014806110975750604182829050145b6110d6576040517f08c379a00000000000000000000000000000000000000000000000000000000081526004016110cd90611d5c565b60405180910390fd5b60006110eb6110e68b878761095b565b610d7e565b905061113b8184848080601f016020809104026020016040519081016040528093929190818152602001838380828437600081840152601f19601f82011690508083019250505050505050610db4565b73ffffffffffffffffffffffffffffffffffffffff16600260009054906101000a900473ffffffffffffffffffffffffffffffffffffffff1673ffffffffffffffffffffffffffffffffffffffff16146111ba5761119b60018686610de0565b60405180602001604052806000815250909650965050505050506111e1565b6111c660008686610de0565b60405180602001604052806000815250909650965050505050505b935093915050565b600033905090565b600080600060418451036112365760008060006020870151925060408701519150606087015160001a9050611228888285856113c1565b955095509550505050611246565b60006002855160001b9250925092505b9250925092565b6000600381111561126157611260612169565b5b82600381111561127457611273612169565b5b03156113ad576001600381111561128e5761128d612169565b5b8260038111156112a1576112a0612169565b5b036112d8576040517ff645eedf00000000000000000000000000000000000000000000000000000000815260040160405180910390fd5b600260038111156112ec576112eb612169565b5b8260038111156112ff576112fe612169565b5b03611344578060001c6040517ffce698f700000000000000000000000000000000000000000000000000000000815260040161133b9190611b7e565b60405180910390fd5b60038081111561135757611356612169565b5b82600381111561136a57611369612169565b5b036113ac57806040517fd78bce0c0000000000000000000000000000000000000000000000000000000081526004016113a39190611a23565b60405180910390fd5b5b5050565b6000808235905080915050919050565b60008060007f7fffffffffffffffffffffffffffffff5d576e7357a4501ddfe92f46681b20a08460001c11156114015760006003859250925092506114ab565b60006001888888886040516000815260200160405260405161142694939291906121b4565b6020604051602081039080840390855afa158015611448573d6000803e3d6000fd5b505050602060405103519050600073ffffffffffffffffffffffffffffffffffffffff168173ffffffffffffffffffffffffffffffffffffffff160361149c57600060016000801b935093509350506114ab565b8060008060001b935093509350505b9450945094915050565b600080fd5b600080fd5b600063ffffffff82169050919050565b6114d8816114bf565b81146114e357600080fd5b50565b6000813590506114f5816114cf565b92915050565b600060208284031215611511576115106114b5565b5b600061151f848285016114e6565b91505092915050565b600073ffffffffffffffffffffffffffffffffffffffff82169050919050565b600061155382611528565b9050919050565b61156381611548565b811461156e57600080fd5b50565b6000813590506115808161155a565b92915050565b6000819050919050565b61159981611586565b81146115a457600080fd5b50565b6000813590506115b681611590565b92915050565b600080604083850312156115d3576115d26114b5565b5b60006115e185828601611571565b92505060206115f2858286016115a7565b9150509250929050565b600061160782611528565b9050919050565b611617816115fc565b82525050565b6000602082019050611632600083018461160e565b92915050565b600080fd5b6000610160828403121561165457611653611638565b5b81905092915050565b6000819050919050565b6116708161165d565b811461167b57600080fd5b50565b60008135905061168d81611667565b92915050565b6000806000606084860312156116ac576116ab6114b5565b5b600084013567ffffffffffffffff8111156116ca576116c96114ba565b5b6116d68682870161163d565b93505060206116e78682870161167e565b92505060406116f8868287016115a7565b9150509250925092565b600081519050919050565b600082825260208201905092915050565b60005b8381101561173c578082015181840152602081019050611721565b60008484015250505050565b6000601f19601f8301169050919050565b600061176482611702565b61176e818561170d565b935061177e81856020860161171e565b61178781611748565b840191505092915050565b61179b81611586565b82525050565b600060408201905081810360008301526117bb8185611759565b90506117ca6020830184611792565b9392505050565b6117da816115fc565b81146117e557600080fd5b50565b6000813590506117f7816117d1565b92915050565b600060208284031215611813576118126114b5565b5b6000611821848285016117e8565b91505092915050565b600080fd5b600080fd5b600080fd5b60008083601f84011261184f5761184e61182a565b5b8235905067ffffffffffffffff81111561186c5761186b61182f565b5b60208301915083600182028301111561188857611887611834565b5b9250929050565b600080602083850312156118a6576118a56114b5565b5b600083013567ffffffffffffffff8111156118c4576118c36114ba565b5b6118d085828601611839565b92509250509250929050565b600065ffffffffffff82169050919050565b6118f7816118dc565b82525050565b82818337600083830152505050565b6000611918838561170d565b93506119258385846118fd565b61192e83611748565b840190509392505050565b600060608201905061194e60008301876118ee565b61195b60208301866118ee565b818103604083015261196e81848661190c565b905095945050505050565b611982816118dc565b811461198d57600080fd5b50565b60008135905061199f81611979565b92915050565b6000806000606084860312156119be576119bd6114b5565b5b600084013567ffffffffffffffff8111156119dc576119db6114ba565b5b6119e88682870161163d565b93505060206119f986828701611990565b9250506040611a0a86828701611990565b9150509250925092565b611a1d8161165d565b82525050565b6000602082019050611a386000830184611a14565b92915050565b60038110611a4b57600080fd5b50565b600081359050611a5d81611a3e565b92915050565b60008060008060608587031215611a7d57611a7c6114b5565b5b6000611a8b87828801611a4e565b945050602085013567ffffffffffffffff811115611aac57611aab6114ba565b5b611ab887828801611839565b93509350506040611acb878288016115a7565b91505092959194509250565b6000819050919050565b6000611afc611af7611af284611528565b611ad7565b611528565b9050919050565b6000611b0e82611ae1565b9050919050565b6000611b2082611b03565b9050919050565b611b3081611b15565b82525050565b6000602082019050611b4b6000830184611b27565b92915050565b600060208284031215611b6757611b666114b5565b5b6000611b7584828501611571565b91505092915050565b6000602082019050611b936000830184611792565b92915050565b611ba2816114bf565b82525050565b6000602082019050611bbd6000830184611b99565b92915050565b611bcc81611548565b82525050565b6000604082019050611be76000830185611bc3565b611bf46020830184611792565b9392505050565b600082825260208201905092915050565b7f6f6e6c792061646d696e00000000000000000000000000000000000000000000600082015250565b6000611c42600a83611bfb565b9150611c4d82611c0c565b602082019050919050565b60006020820190508181036000830152611c7181611c35565b9050919050565b600080fd5b600080fd5b600080fd5b60008083356001602003843603038112611ca457611ca3611c78565b5b80840192508235915067ffffffffffffffff821115611cc657611cc5611c7d565b5b602083019250600182023603831315611ce257611ce1611c82565b5b509250929050565b7f566572696679696e675061796d61737465723a20696e76616c6964207369676e60008201527f6174757265206c656e67746820696e207061796d6173746572416e6444617461602082015250565b6000611d46604083611bfb565b9150611d5182611cea565b604082019050919050565b60006020820190508181036000830152611d7581611d39565b9050919050565b7f6572722073696700000000000000000000000000000000000000000000000000600082015250565b6000611db2600783611bfb565b9150611dbd82611d7c565b602082019050919050565b60006020820190508181036000830152611de181611da5565b9050919050565b600080fd5b600080fd5b60008085851115611e0657611e05611de8565b5b83861115611e1757611e16611ded565b5b6001850283019150848603905094509492505050565b60008060408385031215611e4457611e436114b5565b5b6000611e5285828601611990565b9250506020611e6385828601611990565b9150509250929050565b600081905092915050565b6000611e8382611702565b611e8d8185611e6d565b9350611e9d81856020860161171e565b80840191505092915050565b6000819050919050565b611ec4611ebf82611586565b611ea9565b82525050565b60008160601b9050919050565b6000611ee282611eca565b9050919050565b6000611ef482611ed7565b9050919050565b611f0c611f07826115fc565b611ee9565b82525050565b6000611f1e8286611e78565b9150611f2a8285611eb3565b602082019150611f3a8284611efb565b601482019150819050949350505050565b6000602082019050611f606000830184611bc3565b92915050565b600081519050611f7581611590565b92915050565b600060208284031215611f9157611f906114b5565b5b6000611f9f84828501611f66565b91505092915050565b6000611fb48385611e6d565b9350611fc18385846118fd565b82840190509392505050565b6000611fda828486611fa8565b91508190509392505050565b600061016082019050611ffc600083018e61160e565b612009602083018d611792565b612016604083018c611a14565b612023606083018b611a14565b612030608083018a611792565b61203d60a0830189611792565b61204a60c0830188611792565b61205760e0830187611792565b612065610100830186611792565b6120736101208301856118ee565b6120816101408301846118ee565b9c9b505050505050505050505050565b7f53656e646572206e6f7420456e747279506f696e740000000000000000000000600082015250565b60006120c7601583611bfb565b91506120d282612091565b602082019050919050565b600060208201905081810360008301526120f6816120ba565b9050919050565b7f6d757374206f7665727269646500000000000000000000000000000000000000600082015250565b6000612133600d83611bfb565b915061213e826120fd565b602082019050919050565b6000602082019050818103600083015261216281612126565b9050919050565b7f4e487b7100000000000000000000000000000000000000000000000000000000600052602160045260246000fd5b600060ff82169050919050565b6121ae81612198565b82525050565b60006080820190506121c96000830187611a14565b6121d660208301866121a5565b6121e36040830185611a14565b6121f06060830184611a14565b9594505050505056fea264697066735822122074c5d1c1311c89c84908f26ace19dbef1950e42b9353dfb1618f2cca62dba56a64736f6c63430008140033",
  "linkReferences": {},
  "deployedLinkReferences": {}
}