{
  "_format": "hh-sol-artifact-1",
  "contractName": "LegacyTokenPaymaster",
  "sourceName": "contracts/utils/LegacyTokenPaymaster.sol",
  "abi": [
    {
      "inputs": [
        {
          "internalType": "address",
          "name": "accountFactory",
          "type": "address"
        },
        {
          "internalType": "string",
          "name": "_symbol",
          "type": "string"
        },
        {
          "internalType": "contract IEntryPoint",
          "name": "_entryPoint",
          "type": "address"
        }
      ],
      "stateMutability": "nonpayable",
      "type": "constructor"
    },
    {
      "inputs": [
        {
          "internalType": "address",
          "name": "spender",
          "type": "address"
        },
        {
          "internalType": "uint256",
          "name": "allowance",
          "type": "uint256"
        },
        {
          "internalType": "uint256",
          "name": "needed",
          "type": "uint256"
        }
      ],
      "name": "ERC20InsufficientAllowance",
      "type": "error"
    },
    {
      "inputs": [
        {
          "internalType": "address",
          "name": "sender",
          "type": "address"
        },
        {
          "internalType": "uint256",
          "name": "balance",
          "type": "uint256"
        },
        {
          "internalType": "uint256",
          "name": "needed",
          "type": "uint256"
        }
      ],
      "name": "ERC20InsufficientBalance",
      "type": "error"
    },
    {
      "inputs": [
        {
          "internalType": "address",
          "name": "approver",
          "type": "address"
        }
      ],
      "name": "ERC20InvalidApprover",
      "type": "error"
    },
    {
      "inputs": [
        {
          "internalType": "address",
          "name": "receiver",
          "type": "address"
        }
      ],
      "name": "ERC20InvalidReceiver",
      "type": "error"
    },
    {
      "inputs": [
        {
          "internalType": "address",
          "name": "sender",
          "type": "address"
        }
      ],
      "name": "ERC20InvalidSender",
      "type": "error"
    },
    {
      "inputs": [
        {
          "internalType": "address",
          "name": "spender",
          "type": "address"
        }
      ],
      "name": "ERC20InvalidSpender",
      "type": "error"
    },
    {
      "inputs": [
        {
          "internalType": "address",
          "name": "owner",
          "type": "address"
        }
      ],
      "name": "OwnableInvalidOwner",
      "type": "error"
    },
    {
      "inputs": [
        {
          "internalType": "address",
          "name": "account",
          "type": "address"
        }
      ],
      "name": "OwnableUnauthorizedAccount",
      "type": "error"
    },
    {
      "anonymous": false,
      "inputs": [
        {
          "indexed": true,
          "internalType": "address",
          "name": "owner",
          "type": "address"
        },
        {
          "indexed": true,
          "internalType": "address",
          "name": "spender",
          "type": "address"
        },
        {
          "indexed": false,
          "internalType": "uint256",
          "name": "value",
          "type": "uint256"
        }
      ],
      "name": "Approval",
      "type": "event"
    },
    {
      "anonymous": false,
      "inputs": [
        {
          "indexed": true,
          "internalType": "address",
          "name": "previousOwner",
          "type": "address"
        },
        {
          "indexed": true,
          "internalType": "address",
          "name": "newOwner",
          "type": "address"
        }
      ],
      "name": "OwnershipTransferred",
      "type": "event"
    },
    {
      "anonymous": false,
      "inputs": [
        {
          "indexed": true,
          "internalType": "address",
          "name": "from",
          "type": "address"
        },
        {
          "indexed": true,
          "internalType": "address",
          "name": "to",
          "type": "address"
        },
        {
          "indexed": false,
          "internalType": "uint256",
          "name": "value",
          "type": "uint256"
        }
      ],
      "name": "Transfer",
      "type": "event"
    },
    {
      "inputs": [],
      "name": "COST_OF_POST",
      "outputs": [
        {
          "internalType": "uint256",
          "name": "",
          "type": "uint256"
        }
      ],
      "stateMutability": "view",
      "type": "function"
    },
    {
      "inputs": [
        {
          "internalType": "uint32",
          "name": "unstakeDelaySec",
          "type": "uint32"
        }
      ],
      "name": "addStake",
      "outputs": [],
      "stateMutability": "payable",
      "type": "function"
    },
    {
      "inputs": [
        {
          "internalType": "address",
          "name": "owner",
          "type": "address"
        },
        {
          "internalType": "address",
          "name": "spender",
          "type": "address"
        }
      ],
      "name": "allowance",
      "outputs": [
        {
          "internalType": "uint256",
          "name": "",
          "type": "uint256"
        }
      ],
      "stateMutability": "view",
      "type": "function"
    },
    {
      "inputs": [
        {
          "internalType": "address",
          "name": "spender",
          "type": "address"
        },
        {
          "internalType": "uint256",
          "name": "value",
          "type": "uint256"
        }
      ],
      "name": "approve",
      "outputs": [
        {
          "internalType": "bool",
          "name": "",
          "type": "bool"
        }
      ],
      "stateMutability": "nonpayable",
      "type": "function"
    },
    {
      "inputs": [
        {
          "internalType": "address",
          "name": "account",
          "type": "address"
        }
      ],
      "name": "balanceOf",
      "outputs": [
        {
          "internalType": "uint256",
          "name": "",
          "type": "uint256"
        }
      ],
      "stateMutability": "view",
      "type": "function"
    },
    {
      "inputs": [],
      "name": "decimals",
      "outputs": [
        {
          "internalType": "uint8",
          "name": "",
          "type": "uint8"
        }
      ],
      "stateMutability": "view",
      "type": "function"
    },
    {
      "inputs": [],
      "name": "deposit",
      "outputs": [],
      "stateMutability": "payable",
      "type": "function"
    },
    {
      "inputs": [],
      "name": "entryPoint",
      "outputs": [
        {
          "internalType": "contract IEntryPoint",
          "name": "",
          "type": "address"
        }
      ],
      "stateMutability": "view",
      "type": "function"
    },
    {
      "inputs": [],
      "name": "getDeposit",
      "outputs": [
        {
          "internalType": "uint256",
          "name": "",
          "type": "uint256"
        }
      ],
      "stateMutability": "view",
      "type": "function"
    },
    {
      "inputs": [
        {
          "internalType": "address",
          "name": "recipient",
          "type": "address"
        },
        {
          "internalType": "uint256",
          "name": "amount",
          "type": "uint256"
        }
      ],
      "name": "mintTokens",
      "outputs": [],
      "stateMutability": "nonpayable",
      "type": "function"
    },
    {
      "inputs": [],
      "name": "name",
      "outputs": [
        {
          "internalType": "string",
          "name": "",
          "type": "string"
        }
      ],
      "stateMutability": "view",
      "type": "function"
    },
    {
      "inputs": [],
      "name": "owner",
      "outputs": [
        {
          "internalType": "address",
          "name": "",
          "type": "address"
        }
      ],
      "stateMutability": "view",
      "type": "function"
    },
    {
      "inputs": [
        {
          "internalType": "enum IPaymaster.PostOpMode",
          "name": "mode",
          "type": "uint8"
        },
        {
          "internalType": "bytes",
          "name": "context",
          "type": "bytes"
        },
        {
          "internalType": "uint256",
          "name": "actualGasCost",
          "type": "uint256"
        }
      ],
      "name": "postOp",
      "outputs": [],
      "stateMutability": "nonpayable",
      "type": "function"
    },
    {
      "inputs": [],
      "name": "renounceOwnership",
      "outputs": [],
      "stateMutability": "nonpayable",
      "type": "function"
    },
    {
      "inputs": [],
      "name": "symbol",
      "outputs": [
        {
          "internalType": "string",
          "name": "",
          "type": "string"
        }
      ],
      "stateMutability": "view",
      "type": "function"
    },
    {
      "inputs": [],
      "name": "theFactory",
      "outputs": [
        {
          "internalType": "address",
          "name": "",
          "type": "address"
        }
      ],
      "stateMutability": "view",
      "type": "function"
    },
    {
      "inputs": [],
      "name": "totalSupply",
      "outputs": [
        {
          "internalType": "uint256",
          "name": "",
          "type": "uint256"
        }
      ],
      "stateMutability": "view",
      "type": "function"
    },
    {
      "inputs": [
        {
          "internalType": "address",
          "name": "to",
          "type": "address"
        },
        {
          "internalType": "uint256",
          "name": "value",
          "type": "uint256"
        }
      ],
      "name": "transfer",
      "outputs": [
        {
          "internalType": "bool",
          "name": "",
          "type": "bool"
        }
      ],
      "stateMutability": "nonpayable",
      "type": "function"
    },
    {
      "inputs": [
        {
          "internalType": "address",
          "name": "from",
          "type": "address"
        },
        {
          "internalType": "address",
          "name": "to",
          "type": "address"
        },
        {
          "internalType": "uint256",
          "name": "value",
          "type": "uint256"
        }
      ],
      "name": "transferFrom",
      "outputs": [
        {
          "internalType": "bool",
          "name": "",
          "type": "bool"
        }
      ],
      "stateMutability": "nonpayable",
      "type": "function"
    },
    {
      "inputs": [
        {
          "internalType": "address",
          "name": "newOwner",
          "type": "address"
        }
      ],
      "name": "transferOwnership",
      "outputs": [],
      "stateMutability": "nonpayable",
      "type": "function"
    },
    {
      "inputs": [],
      "name": "unlockStake",
      "outputs": [],
      "stateMutability": "nonpayable",
      "type": "function"
    },
    {
      "inputs": [
        {
          "components": [
            {
              "internalType": "address",
              "name": "sender",
              "type": "address"
            },
            {
              "internalType": "uint256",
              "name": "nonce",
              "type": "uint256"
            },
            {
              "internalType": "bytes",
              "name": "initCode",
              "type": "bytes"
            },
            {
              "internalType": "bytes",
              "name": "callData",
              "type": "bytes"
            },
            {
              "internalType": "uint256",
              "name": "callGasLimit",
              "type": "uint256"
            },
            {
              "internalType": "uint256",
              "name": "verificationGasLimit",
              "type": "uint256"
            },
            {
              "internalType": "uint256",
              "name": "preVerificationGas",
              "type": "uint256"
            },
            {
              "internalType": "uint256",
              "name": "maxFeePerGas",
              "type": "uint256"
            },
            {
              "internalType": "uint256",
              "name": "maxPriorityFeePerGas",
              "type": "uint256"
            },
            {
              "internalType": "bytes",
              "name": "paymasterAndData",
              "type": "bytes"
            },
            {
              "internalType": "bytes",
              "name": "signature",
              "type": "bytes"
            }
          ],
          "internalType": "struct UserOperation",
          "name": "userOp",
          "type": "tuple"
        },
        {
          "internalType": "bytes32",
          "name": "userOpHash",
          "type": "bytes32"
        },
        {
          "internalType": "uint256",
          "name": "maxCost",
          "type": "uint256"
        }
      ],
      "name": "validatePaymasterUserOp",
      "outputs": [
        {
          "internalType": "bytes",
          "name": "context",
          "type": "bytes"
        },
        {
          "internalType": "uint256",
          "name": "validationData",
          "type": "uint256"
        }
      ],
      "stateMutability": "nonpayable",
      "type": "function"
    },
    {
      "inputs": [
        {
          "internalType": "address payable",
          "name": "withdrawAddress",
          "type": "address"
        }
      ],
      "name": "withdrawStake",
      "outputs": [],
      "stateMutability": "nonpayable",
      "type": "function"
    },
    {
      "inputs": [
        {
          "internalType": "address payable",
          "name": "withdrawAddress",
          "type": "address"
        },
        {
          "internalType": "uint256",
          "name": "amount",
          "type": "uint256"
        }
      ],
      "name": "withdrawTo",
      "outputs": [],
      "stateMutability": "nonpayable",
      "type": "function"
    }
  ],
  "bytecode": "0x60c06040523480156200001157600080fd5b50604051620033353803806200333583398181016040528101906200003791906200095b565b81828232600073ffffffffffffffffffffffffffffffffffffffff168173ffffffffffffffffffffffffffffffffffffffff1603620000b05760006040517f1e4fbdf7000000000000000000000000000000000000000000000000000000008152600401620000a79190620009e7565b60405180910390fd5b620000c181620001a060201b60201c565b508073ffffffffffffffffffffffffffffffffffffffff1660808173ffffffffffffffffffffffffffffffffffffffff168152505050816004908162000108919062000c4f565b5080600590816200011a919062000c4f565b5050508273ffffffffffffffffffffffffffffffffffffffff1660a08173ffffffffffffffffffffffffffffffffffffffff1681525050620001643060016200026460201b60201c565b6200019730337fffffffffffffffffffffffffffffffffffffffffffffffffffffffffffffffff620002f160201b60201c565b50505062000e0b565b60008060009054906101000a900473ffffffffffffffffffffffffffffffffffffffff169050816000806101000a81548173ffffffffffffffffffffffffffffffffffffffff021916908373ffffffffffffffffffffffffffffffffffffffff1602179055508173ffffffffffffffffffffffffffffffffffffffff168173ffffffffffffffffffffffffffffffffffffffff167f8be0079c531659141344cd1fd0a4f28419497f9722a3daafe3b4186f6b6457e060405160405180910390a35050565b600073ffffffffffffffffffffffffffffffffffffffff168273ffffffffffffffffffffffffffffffffffffffff1603620002d95760006040517fec442f05000000000000000000000000000000000000000000000000000000008152600401620002d09190620009e7565b60405180910390fd5b620002ed600083836200030b60201b60201c565b5050565b6200030683838360016200053e60201b60201c565b505050565b600073ffffffffffffffffffffffffffffffffffffffff168373ffffffffffffffffffffffffffffffffffffffff16036200036157806003600082825462000354919062000d65565b9250508190555062000439565b6000600160008573ffffffffffffffffffffffffffffffffffffffff1673ffffffffffffffffffffffffffffffffffffffff16815260200190815260200160002054905081811015620003f1578381836040517fe450d38c000000000000000000000000000000000000000000000000000000008152600401620003e89392919062000db1565b60405180910390fd5b818103600160008673ffffffffffffffffffffffffffffffffffffffff1673ffffffffffffffffffffffffffffffffffffffff16815260200190815260200160002081905550505b600073ffffffffffffffffffffffffffffffffffffffff168273ffffffffffffffffffffffffffffffffffffffff1603620004845780600360008282540392505081905550620004d2565b80600160008473ffffffffffffffffffffffffffffffffffffffff1673ffffffffffffffffffffffffffffffffffffffff168152602001908152602001600020600082825401925050819055505b8173ffffffffffffffffffffffffffffffffffffffff168373ffffffffffffffffffffffffffffffffffffffff167fddf252ad1be2c89b69c2b068fc378daa952ba7f163c4a11628f55a4df523b3ef8360405162000531919062000dee565b60405180910390a3505050565b600073ffffffffffffffffffffffffffffffffffffffff168473ffffffffffffffffffffffffffffffffffffffff1603620005b35760006040517fe602df05000000000000000000000000000000000000000000000000000000008152600401620005aa9190620009e7565b60405180910390fd5b600073ffffffffffffffffffffffffffffffffffffffff168373ffffffffffffffffffffffffffffffffffffffff1603620006285760006040517f94280d620000000000000000000000000000000000000000000000000000000081526004016200061f9190620009e7565b60405180910390fd5b81600260008673ffffffffffffffffffffffffffffffffffffffff1673ffffffffffffffffffffffffffffffffffffffff16815260200190815260200160002060008573ffffffffffffffffffffffffffffffffffffffff1673ffffffffffffffffffffffffffffffffffffffff16815260200190815260200160002081905550801562000718578273ffffffffffffffffffffffffffffffffffffffff168473ffffffffffffffffffffffffffffffffffffffff167f8c5be1e5ebec7d5bd14f71427d1e84f3dd0314c0f7b2291e5b200ac8c7c3b925846040516200070f919062000dee565b60405180910390a35b50505050565b6000604051905090565b600080fd5b600080fd5b600073ffffffffffffffffffffffffffffffffffffffff82169050919050565b60006200075f8262000732565b9050919050565b620007718162000752565b81146200077d57600080fd5b50565b600081519050620007918162000766565b92915050565b600080fd5b600080fd5b6000601f19601f8301169050919050565b7f4e487b7100000000000000000000000000000000000000000000000000000000600052604160045260246000fd5b620007ec82620007a1565b810181811067ffffffffffffffff821117156200080e576200080d620007b2565b5b80604052505050565b6000620008236200071e565b9050620008318282620007e1565b919050565b600067ffffffffffffffff821115620008545762000853620007b2565b5b6200085f82620007a1565b9050602081019050919050565b60005b838110156200088c5780820151818401526020810190506200086f565b60008484015250505050565b6000620008af620008a98462000836565b62000817565b905082815260208101848484011115620008ce57620008cd6200079c565b5b620008db8482856200086c565b509392505050565b600082601f830112620008fb57620008fa62000797565b5b81516200090d84826020860162000898565b91505092915050565b6000620009238262000752565b9050919050565b620009358162000916565b81146200094157600080fd5b50565b60008151905062000955816200092a565b92915050565b60008060006060848603121562000977576200097662000728565b5b6000620009878682870162000780565b935050602084015167ffffffffffffffff811115620009ab57620009aa6200072d565b5b620009b986828701620008e3565b9250506040620009cc8682870162000944565b9150509250925092565b620009e18162000752565b82525050565b6000602082019050620009fe6000830184620009d6565b92915050565b600081519050919050565b7f4e487b7100000000000000000000000000000000000000000000000000000000600052602260045260246000fd5b6000600282049050600182168062000a5757607f821691505b60208210810362000a6d5762000a6c62000a0f565b5b50919050565b60008190508160005260206000209050919050565b60006020601f8301049050919050565b600082821b905092915050565b60006008830262000ad77fffffffffffffffffffffffffffffffffffffffffffffffffffffffffffffffff8262000a98565b62000ae3868362000a98565b95508019841693508086168417925050509392505050565b6000819050919050565b6000819050919050565b600062000b3062000b2a62000b248462000afb565b62000b05565b62000afb565b9050919050565b6000819050919050565b62000b4c8362000b0f565b62000b6462000b5b8262000b37565b84845462000aa5565b825550505050565b600090565b62000b7b62000b6c565b62000b8881848462000b41565b505050565b5b8181101562000bb05762000ba460008262000b71565b60018101905062000b8e565b5050565b601f82111562000bff5762000bc98162000a73565b62000bd48462000a88565b8101602085101562000be4578190505b62000bfc62000bf38562000a88565b83018262000b8d565b50505b505050565b600082821c905092915050565b600062000c246000198460080262000c04565b1980831691505092915050565b600062000c3f838362000c11565b9150826002028217905092915050565b62000c5a8262000a04565b67ffffffffffffffff81111562000c765762000c75620007b2565b5b62000c82825462000a3e565b62000c8f82828562000bb4565b600060209050601f83116001811462000cc7576000841562000cb2578287015190505b62000cbe858262000c31565b86555062000d2e565b601f19841662000cd78662000a73565b60005b8281101562000d015784890151825560018201915060208501945060208101905062000cda565b8683101562000d21578489015162000d1d601f89168262000c11565b8355505b6001600288020188555050505b505050505050565b7f4e487b7100000000000000000000000000000000000000000000000000000000600052601160045260246000fd5b600062000d728262000afb565b915062000d7f8362000afb565b925082820190508082111562000d9a5762000d9962000d36565b5b92915050565b62000dab8162000afb565b82525050565b600060608201905062000dc86000830186620009d6565b62000dd7602083018562000da0565b62000de6604083018462000da0565b949350505050565b600060208201905062000e05600083018462000da0565b92915050565b60805160a0516124cc62000e69600039600081816108aa015261171901526000818161056d015281816106c30152818161090b01528181610937015281816109c101528181610a5101528181610af00152610f7d01526124cc6000f3fe60806040526004361061014b5760003560e01c80639f5ca221116100b6578063c399ec881161006f578063c399ec8814610461578063d0e30db01461048c578063dd62ed3e14610496578063f0dda65c146104d3578063f2fde38b146104fc578063f465c77e146105255761014b565b80639f5ca22114610365578063a9059cbb14610390578063a9a23409146103cd578063b0d691fe146103f6578063bb9fe6bf14610421578063c23a5cea146104385761014b565b8063313ce56711610108578063313ce5671461026557806370a0823114610290578063715018a6146102cd578063796d4371146102e45780638da5cb5b1461030f57806395d89b411461033a5761014b565b80630396cb601461015057806306fdde031461016c578063095ea7b31461019757806318160ddd146101d4578063205c2878146101ff57806323b872dd14610228575b600080fd5b61016a600480360381019061016591906117ef565b610563565b005b34801561017857600080fd5b506101816105fa565b60405161018e91906118ac565b60405180910390f35b3480156101a357600080fd5b506101be60048036038101906101b99190611962565b61068c565b6040516101cb91906119bd565b60405180910390f35b3480156101e057600080fd5b506101e96106af565b6040516101f691906119e7565b60405180910390f35b34801561020b57600080fd5b5061022660048036038101906102219190611a40565b6106b9565b005b34801561023457600080fd5b5061024f600480360381019061024a9190611a80565b610752565b60405161025c91906119bd565b60405180910390f35b34801561027157600080fd5b5061027a610781565b6040516102879190611aef565b60405180910390f35b34801561029c57600080fd5b506102b760048036038101906102b29190611b0a565b61078a565b6040516102c491906119e7565b60405180910390f35b3480156102d957600080fd5b506102e26107d3565b005b3480156102f057600080fd5b506102f96107e7565b60405161030691906119e7565b60405180910390f35b34801561031b57600080fd5b506103246107ed565b6040516103319190611b46565b60405180910390f35b34801561034657600080fd5b5061034f610816565b60405161035c91906118ac565b60405180910390f35b34801561037157600080fd5b5061037a6108a8565b6040516103879190611b46565b60405180910390f35b34801561039c57600080fd5b506103b760048036038101906103b29190611962565b6108cc565b6040516103c491906119bd565b60405180910390f35b3480156103d957600080fd5b506103f460048036038101906103ef9190611beb565b6108ef565b005b34801561040257600080fd5b5061040b610909565b6040516104189190611cbe565b60405180910390f35b34801561042d57600080fd5b5061043661092d565b005b34801561044457600080fd5b5061045f600480360381019061045a9190611cd9565b6109b7565b005b34801561046d57600080fd5b50610476610a4d565b60405161048391906119e7565b60405180910390f35b610494610aee565b005b3480156104a257600080fd5b506104bd60048036038101906104b89190611d06565b610b7c565b6040516104ca91906119e7565b60405180910390f35b3480156104df57600080fd5b506104fa60048036038101906104f59190611962565b610c03565b005b34801561050857600080fd5b50610523600480360381019061051e9190611b0a565b610c19565b005b34801561053157600080fd5b5061054c60048036038101906105479190611da1565b610c6b565b60405161055a929190611e65565b60405180910390f35b61056b610c8e565b7f000000000000000000000000000000000000000000000000000000000000000073ffffffffffffffffffffffffffffffffffffffff16630396cb6034836040518363ffffffff1660e01b81526004016105c59190611ea4565b6000604051808303818588803b1580156105de57600080fd5b505af11580156105f2573d6000803e3d6000fd5b505050505050565b60606004805461060990611eee565b80601f016020809104026020016040519081016040528092919081815260200182805461063590611eee565b80156106825780601f1061065757610100808354040283529160200191610682565b820191906000526020600020905b81548152906001019060200180831161066557829003601f168201915b5050505050905090565b600080610697610d15565b90506106a4818585610d1d565b600191505092915050565b6000600354905090565b6106c1610c8e565b7f000000000000000000000000000000000000000000000000000000000000000073ffffffffffffffffffffffffffffffffffffffff1663205c287883836040518363ffffffff1660e01b815260040161071c929190611f2e565b600060405180830381600087803b15801561073657600080fd5b505af115801561074a573d6000803e3d6000fd5b505050505050565b60008061075d610d15565b905061076a858285610d2f565b610775858585610dc3565b60019150509392505050565b60006012905090565b6000600160008373ffffffffffffffffffffffffffffffffffffffff1673ffffffffffffffffffffffffffffffffffffffff168152602001908152602001600020549050919050565b6107db610c8e565b6107e56000610eb7565b565b613a9881565b60008060009054906101000a900473ffffffffffffffffffffffffffffffffffffffff16905090565b60606005805461082590611eee565b80601f016020809104026020016040519081016040528092919081815260200182805461085190611eee565b801561089e5780601f106108735761010080835404028352916020019161089e565b820191906000526020600020905b81548152906001019060200180831161088157829003601f168201915b5050505050905090565b7f000000000000000000000000000000000000000000000000000000000000000081565b6000806108d7610d15565b90506108e4818585610dc3565b600191505092915050565b6108f7610f7b565b6109038484848461100b565b50505050565b7f000000000000000000000000000000000000000000000000000000000000000081565b610935610c8e565b7f000000000000000000000000000000000000000000000000000000000000000073ffffffffffffffffffffffffffffffffffffffff1663bb9fe6bf6040518163ffffffff1660e01b8152600401600060405180830381600087803b15801561099d57600080fd5b505af11580156109b1573d6000803e3d6000fd5b50505050565b6109bf610c8e565b7f000000000000000000000000000000000000000000000000000000000000000073ffffffffffffffffffffffffffffffffffffffff1663c23a5cea826040518263ffffffff1660e01b8152600401610a189190611f57565b600060405180830381600087803b158015610a3257600080fd5b505af1158015610a46573d6000803e3d6000fd5b5050505050565b60007f000000000000000000000000000000000000000000000000000000000000000073ffffffffffffffffffffffffffffffffffffffff166370a08231306040518263ffffffff1660e01b8152600401610aa89190611b46565b602060405180830381865afa158015610ac5573d6000803e3d6000fd5b505050506040513d601f19601f82011682018060405250810190610ae99190611f87565b905090565b7f000000000000000000000000000000000000000000000000000000000000000073ffffffffffffffffffffffffffffffffffffffff1663b760faf934306040518363ffffffff1660e01b8152600401610b489190611b46565b6000604051808303818588803b158015610b6157600080fd5b505af1158015610b75573d6000803e3d6000fd5b5050505050565b6000600260008473ffffffffffffffffffffffffffffffffffffffff1673ffffffffffffffffffffffffffffffffffffffff16815260200190815260200160002060008373ffffffffffffffffffffffffffffffffffffffff1673ffffffffffffffffffffffffffffffffffffffff16815260200190815260200160002054905092915050565b610c0b610c8e565b610c15828261104b565b5050565b610c21610c8e565b610c3430610c2d6107ed565b6000610d1d565b610c3d816110cd565b610c6830827fffffffffffffffffffffffffffffffffffffffffffffffffffffffffffffffff610d1d565b50565b60606000610c77610f7b565b610c82858585611153565b91509150935093915050565b610c96610d15565b73ffffffffffffffffffffffffffffffffffffffff16610cb46107ed565b73ffffffffffffffffffffffffffffffffffffffff1614610d1357610cd7610d15565b6040517f118cdaa7000000000000000000000000000000000000000000000000000000008152600401610d0a9190611b46565b60405180910390fd5b565b600033905090565b610d2a83838360016112ce565b505050565b6000610d3b8484610b7c565b90507fffffffffffffffffffffffffffffffffffffffffffffffffffffffffffffffff8114610dbd5781811015610dad578281836040517ffb8f41b2000000000000000000000000000000000000000000000000000000008152600401610da493929190611fb4565b60405180910390fd5b610dbc848484840360006112ce565b5b50505050565b600073ffffffffffffffffffffffffffffffffffffffff168373ffffffffffffffffffffffffffffffffffffffff1603610e355760006040517f96c6fd1e000000000000000000000000000000000000000000000000000000008152600401610e2c9190611b46565b60405180910390fd5b600073ffffffffffffffffffffffffffffffffffffffff168273ffffffffffffffffffffffffffffffffffffffff1603610ea75760006040517fec442f05000000000000000000000000000000000000000000000000000000008152600401610e9e9190611b46565b60405180910390fd5b610eb28383836114a5565b505050565b60008060009054906101000a900473ffffffffffffffffffffffffffffffffffffffff169050816000806101000a81548173ffffffffffffffffffffffffffffffffffffffff021916908373ffffffffffffffffffffffffffffffffffffffff1602179055508173ffffffffffffffffffffffffffffffffffffffff168173ffffffffffffffffffffffffffffffffffffffff167f8be0079c531659141344cd1fd0a4f28419497f9722a3daafe3b4186f6b6457e060405160405180910390a35050565b7f000000000000000000000000000000000000000000000000000000000000000073ffffffffffffffffffffffffffffffffffffffff163373ffffffffffffffffffffffffffffffffffffffff1614611009576040517f08c379a000000000000000000000000000000000000000000000000000000000815260040161100090612037565b60405180910390fd5b565b6000838381019061101c9190611cd9565b90506000611036613a98846110319190612086565b6116cd565b9050611043823083610dc3565b505050505050565b600073ffffffffffffffffffffffffffffffffffffffff168273ffffffffffffffffffffffffffffffffffffffff16036110bd5760006040517fec442f050000000000000000000000000000000000000000000000000000000081526004016110b49190611b46565b60405180910390fd5b6110c9600083836114a5565b5050565b6110d5610c8e565b600073ffffffffffffffffffffffffffffffffffffffff168173ffffffffffffffffffffffffffffffffffffffff16036111475760006040517f1e4fbdf700000000000000000000000000000000000000000000000000000000815260040161113e9190611b46565b60405180910390fd5b61115081610eb7565b50565b6060600080611161846116cd565b9050613a988660a00135116111ab576040517f08c379a00000000000000000000000000000000000000000000000000000000081526004016111a29061212c565b60405180910390fd5b60008680604001906111bd919061215b565b90501461122f576111cd866116e3565b806111e98760000160208101906111e49190611b0a565b61078a565b101561122a576040517f08c379a000000000000000000000000000000000000000000000000000000000815260040161122190612230565b60405180910390fd5b61128d565b8061124b8760000160208101906112469190611b0a565b61078a565b101561128c576040517f08c379a00000000000000000000000000000000000000000000000000000000081526004016112839061229c565b60405180910390fd5b5b8560000160208101906112a09190611b0a565b6040516020016112b09190611b46565b60405160208183030381529060405260009250925050935093915050565b600073ffffffffffffffffffffffffffffffffffffffff168473ffffffffffffffffffffffffffffffffffffffff16036113405760006040517fe602df050000000000000000000000000000000000000000000000000000000081526004016113379190611b46565b60405180910390fd5b600073ffffffffffffffffffffffffffffffffffffffff168373ffffffffffffffffffffffffffffffffffffffff16036113b25760006040517f94280d620000000000000000000000000000000000000000000000000000000081526004016113a99190611b46565b60405180910390fd5b81600260008673ffffffffffffffffffffffffffffffffffffffff1673ffffffffffffffffffffffffffffffffffffffff16815260200190815260200160002060008573ffffffffffffffffffffffffffffffffffffffff1673ffffffffffffffffffffffffffffffffffffffff16815260200190815260200160002081905550801561149f578273ffffffffffffffffffffffffffffffffffffffff168473ffffffffffffffffffffffffffffffffffffffff167f8c5be1e5ebec7d5bd14f71427d1e84f3dd0314c0f7b2291e5b200ac8c7c3b9258460405161149691906119e7565b60405180910390a35b50505050565b600073ffffffffffffffffffffffffffffffffffffffff168373ffffffffffffffffffffffffffffffffffffffff16036114f75780600360008282546114eb9190612086565b925050819055506115cc565b6000600160008573ffffffffffffffffffffffffffffffffffffffff1673ffffffffffffffffffffffffffffffffffffffff16815260200190815260200160002054905081811015611584578381836040517fe450d38c00000000000000000000000000000000000000000000000000000000815260040161157b93929190611fb4565b60405180910390fd5b818103600160008673ffffffffffffffffffffffffffffffffffffffff1673ffffffffffffffffffffffffffffffffffffffff16815260200190815260200160002081905550505b600073ffffffffffffffffffffffffffffffffffffffff168273ffffffffffffffffffffffffffffffffffffffff16036116155780600360008282540392505081905550611663565b80600160008473ffffffffffffffffffffffffffffffffffffffff1673ffffffffffffffffffffffffffffffffffffffff168152602001908152602001600020600082825401925050819055505b8173ffffffffffffffffffffffffffffffffffffffff168373ffffffffffffffffffffffffffffffffffffffff167fddf252ad1be2c89b69c2b068fc378daa952ba7f163c4a11628f55a4df523b3ef836040516116c091906119e7565b60405180910390a3505050565b60006064826116dc91906122eb565b9050919050565b60008180604001906116f5919061215b565b60009060149261170793929190612326565b9061171291906123a5565b60601c90507f000000000000000000000000000000000000000000000000000000000000000073ffffffffffffffffffffffffffffffffffffffff168173ffffffffffffffffffffffffffffffffffffffff16146117a5576040517f08c379a000000000000000000000000000000000000000000000000000000000815260040161179c90612476565b60405180910390fd5b5050565b600080fd5b600080fd5b600063ffffffff82169050919050565b6117cc816117b3565b81146117d757600080fd5b50565b6000813590506117e9816117c3565b92915050565b600060208284031215611805576118046117a9565b5b6000611813848285016117da565b91505092915050565b600081519050919050565b600082825260208201905092915050565b60005b8381101561185657808201518184015260208101905061183b565b60008484015250505050565b6000601f19601f8301169050919050565b600061187e8261181c565b6118888185611827565b9350611898818560208601611838565b6118a181611862565b840191505092915050565b600060208201905081810360008301526118c68184611873565b905092915050565b600073ffffffffffffffffffffffffffffffffffffffff82169050919050565b60006118f9826118ce565b9050919050565b611909816118ee565b811461191457600080fd5b50565b60008135905061192681611900565b92915050565b6000819050919050565b61193f8161192c565b811461194a57600080fd5b50565b60008135905061195c81611936565b92915050565b60008060408385031215611979576119786117a9565b5b600061198785828601611917565b92505060206119988582860161194d565b9150509250929050565b60008115159050919050565b6119b7816119a2565b82525050565b60006020820190506119d260008301846119ae565b92915050565b6119e18161192c565b82525050565b60006020820190506119fc60008301846119d8565b92915050565b6000611a0d826118ce565b9050919050565b611a1d81611a02565b8114611a2857600080fd5b50565b600081359050611a3a81611a14565b92915050565b60008060408385031215611a5757611a566117a9565b5b6000611a6585828601611a2b565b9250506020611a768582860161194d565b9150509250929050565b600080600060608486031215611a9957611a986117a9565b5b6000611aa786828701611917565b9350506020611ab886828701611917565b9250506040611ac98682870161194d565b9150509250925092565b600060ff82169050919050565b611ae981611ad3565b82525050565b6000602082019050611b046000830184611ae0565b92915050565b600060208284031215611b2057611b1f6117a9565b5b6000611b2e84828501611917565b91505092915050565b611b40816118ee565b82525050565b6000602082019050611b5b6000830184611b37565b92915050565b60038110611b6e57600080fd5b50565b600081359050611b8081611b61565b92915050565b600080fd5b600080fd5b600080fd5b60008083601f840112611bab57611baa611b86565b5b8235905067ffffffffffffffff811115611bc857611bc7611b8b565b5b602083019150836001820283011115611be457611be3611b90565b5b9250929050565b60008060008060608587031215611c0557611c046117a9565b5b6000611c1387828801611b71565b945050602085013567ffffffffffffffff811115611c3457611c336117ae565b5b611c4087828801611b95565b93509350506040611c538782880161194d565b91505092959194509250565b6000819050919050565b6000611c84611c7f611c7a846118ce565b611c5f565b6118ce565b9050919050565b6000611c9682611c69565b9050919050565b6000611ca882611c8b565b9050919050565b611cb881611c9d565b82525050565b6000602082019050611cd36000830184611caf565b92915050565b600060208284031215611cef57611cee6117a9565b5b6000611cfd84828501611a2b565b91505092915050565b60008060408385031215611d1d57611d1c6117a9565b5b6000611d2b85828601611917565b9250506020611d3c85828601611917565b9150509250929050565b600080fd5b60006101608284031215611d6257611d61611d46565b5b81905092915050565b6000819050919050565b611d7e81611d6b565b8114611d8957600080fd5b50565b600081359050611d9b81611d75565b92915050565b600080600060608486031215611dba57611db96117a9565b5b600084013567ffffffffffffffff811115611dd857611dd76117ae565b5b611de486828701611d4b565b9350506020611df586828701611d8c565b9250506040611e068682870161194d565b9150509250925092565b600081519050919050565b600082825260208201905092915050565b6000611e3782611e10565b611e418185611e1b565b9350611e51818560208601611838565b611e5a81611862565b840191505092915050565b60006040820190508181036000830152611e7f8185611e2c565b9050611e8e60208301846119d8565b9392505050565b611e9e816117b3565b82525050565b6000602082019050611eb96000830184611e95565b92915050565b7f4e487b7100000000000000000000000000000000000000000000000000000000600052602260045260246000fd5b60006002820490506001821680611f0657607f821691505b602082108103611f1957611f18611ebf565b5b50919050565b611f2881611a02565b82525050565b6000604082019050611f436000830185611f1f565b611f5060208301846119d8565b9392505050565b6000602082019050611f6c6000830184611f1f565b92915050565b600081519050611f8181611936565b92915050565b600060208284031215611f9d57611f9c6117a9565b5b6000611fab84828501611f72565b91505092915050565b6000606082019050611fc96000830186611b37565b611fd660208301856119d8565b611fe360408301846119d8565b949350505050565b7f53656e646572206e6f7420456e747279506f696e740000000000000000000000600082015250565b6000612021601583611827565b915061202c82611feb565b602082019050919050565b6000602082019050818103600083015261205081612014565b9050919050565b7f4e487b7100000000000000000000000000000000000000000000000000000000600052601160045260246000fd5b60006120918261192c565b915061209c8361192c565b92508282019050808211156120b4576120b3612057565b5b92915050565b7f546f6b656e5061796d61737465723a2067617320746f6f206c6f7720666f722060008201527f706f73744f700000000000000000000000000000000000000000000000000000602082015250565b6000612116602683611827565b9150612121826120ba565b604082019050919050565b6000602082019050818103600083015261214581612109565b9050919050565b600080fd5b600080fd5b600080fd5b600080833560016020038436030381126121785761217761214c565b5b80840192508235915067ffffffffffffffff82111561219a57612199612151565b5b6020830192506001820236038313156121b6576121b5612156565b5b509250929050565b7f546f6b656e5061796d61737465723a206e6f2062616c616e636520287072652d60008201527f6372656174652900000000000000000000000000000000000000000000000000602082015250565b600061221a602783611827565b9150612225826121be565b604082019050919050565b600060208201905081810360008301526122498161220d565b9050919050565b7f546f6b656e5061796d61737465723a206e6f2062616c616e6365000000000000600082015250565b6000612286601a83611827565b915061229182612250565b602082019050919050565b600060208201905081810360008301526122b581612279565b9050919050565b7f4e487b7100000000000000000000000000000000000000000000000000000000600052601260045260246000fd5b60006122f68261192c565b91506123018361192c565b925082612311576123106122bc565b5b828204905092915050565b600080fd5b600080fd5b6000808585111561233a5761233961231c565b5b8386111561234b5761234a612321565b5b6001850283019150848603905094509492505050565b600082905092915050565b60007fffffffffffffffffffffffffffffffffffffffff00000000000000000000000082169050919050565b600082821b905092915050565b60006123b18383612361565b826123bc813561236c565b925060148210156123fc576123f77fffffffffffffffffffffffffffffffffffffffff00000000000000000000000083601403600802612398565b831692505b505092915050565b7f546f6b656e5061796d61737465723a2077726f6e67206163636f756e7420666160008201527f63746f7279000000000000000000000000000000000000000000000000000000602082015250565b6000612460602583611827565b915061246b82612404565b604082019050919050565b6000602082019050818103600083015261248f81612453565b905091905056fea2646970667358221220c9ac67e0e4f0feea8139075f21f5025ee4c0efc531a31e0663f3da35a6aa058564736f6c63430008140033",
  "linkReferences": {},
  "deployedLinkReferences": {}
}