{
  "_format": "hh-sol-artifact-1",
  "contractName": "SimpleAccount",
  "sourceName": "contracts/utils/SimpleAccount.sol",
  "abi": [
    {
      "inputs": [
        {
          "internalType": "contract IEntryPoint",
          "name": "anEntryPoint",
          "type": "address"
        }
      ],
      "stateMutability": "nonpayable",
      "type": "constructor"
    },
    {
      "inputs": [
        {
          "internalType": "address",
          "name": "target",
          "type": "address"
        }
      ],
      "name": "AddressEmptyCode",
      "type": "error"
    },
    {
      "inputs": [],
      "name": "ECDSAInvalidSignature",
      "type": "error"
    },
    {
      "inputs": [
        {
          "internalType": "uint256",
          "name": "length",
          "type": "uint256"
        }
      ],
      "name": "ECDSAInvalidSignatureLength",
      "type": "error"
    },
    {
      "inputs": [
        {
          "internalType": "bytes32",
          "name": "s",
          "type": "bytes32"
        }
      ],
      "name": "ECDSAInvalidSignatureS",
      "type": "error"
    },
    {
      "inputs": [
        {
          "internalType": "address",
          "name": "implementation",
          "type": "address"
        }
      ],
      "name": "ERC1967InvalidImplementation",
      "type": "error"
    },
    {
      "inputs": [],
      "name": "ERC1967NonPayable",
      "type": "error"
    },
    {
      "inputs": [],
      "name": "FailedInnerCall",
      "type": "error"
    },
    {
      "inputs": [],
      "name": "InvalidInitialization",
      "type": "error"
    },
    {
      "inputs": [],
      "name": "NotInitializing",
      "type": "error"
    },
    {
      "inputs": [],
      "name": "UUPSUnauthorizedCallContext",
      "type": "error"
    },
    {
      "inputs": [
        {
          "internalType": "bytes32",
          "name": "slot",
          "type": "bytes32"
        }
      ],
      "name": "UUPSUnsupportedProxiableUUID",
      "type": "error"
    },
    {
      "anonymous": false,
      "inputs": [
        {
          "indexed": false,
          "internalType": "uint64",
          "name": "version",
          "type": "uint64"
        }
      ],
      "name": "Initialized",
      "type": "event"
    },
    {
      "anonymous": false,
      "inputs": [
        {
          "indexed": true,
          "internalType": "contract IEntryPoint",
          "name": "entryPoint",
          "type": "address"
        },
        {
          "indexed": true,
          "internalType": "address",
          "name": "owner",
          "type": "address"
        }
      ],
      "name": "SimpleAccountInitialized",
      "type": "event"
    },
    {
      "anonymous": false,
      "inputs": [
        {
          "indexed": true,
          "internalType": "address",
          "name": "implementation",
          "type": "address"
        }
      ],
      "name": "Upgraded",
      "type": "event"
    },
    {
      "inputs": [],
      "name": "UPGRADE_INTERFACE_VERSION",
      "outputs": [
        {
          "internalType": "string",
          "name": "",
          "type": "string"
        }
      ],
      "stateMutability": "view",
      "type": "function"
    },
    {
      "inputs": [],
      "name": "addDeposit",
      "outputs": [],
      "stateMutability": "payable",
      "type": "function"
    },
    {
      "inputs": [],
      "name": "entryPoint",
      "outputs": [
        {
          "internalType": "contract IEntryPoint",
          "name": "",
          "type": "address"
        }
      ],
      "stateMutability": "view",
      "type": "function"
    },
    {
      "inputs": [
        {
          "internalType": "address",
          "name": "dest",
          "type": "address"
        },
        {
          "internalType": "uint256",
          "name": "value",
          "type": "uint256"
        },
        {
          "internalType": "bytes",
          "name": "func",
          "type": "bytes"
        }
      ],
      "name": "execute",
      "outputs": [],
      "stateMutability": "nonpayable",
      "type": "function"
    },
    {
      "inputs": [
        {
          "internalType": "address[]",
          "name": "dest",
          "type": "address[]"
        },
        {
          "internalType": "uint256[]",
          "name": "value",
          "type": "uint256[]"
        },
        {
          "internalType": "bytes[]",
          "name": "func",
          "type": "bytes[]"
        }
      ],
      "name": "executeBatch",
      "outputs": [],
      "stateMutability": "nonpayable",
      "type": "function"
    },
    {
      "inputs": [],
      "name": "getDeposit",
      "outputs": [
        {
          "internalType": "uint256",
          "name": "",
          "type": "uint256"
        }
      ],
      "stateMutability": "view",
      "type": "function"
    },
    {
      "inputs": [],
      "name": "getNonce",
      "outputs": [
        {
          "internalType": "uint256",
          "name": "",
          "type": "uint256"
        }
      ],
      "stateMutability": "view",
      "type": "function"
    },
    {
      "inputs": [
        {
          "internalType": "address",
          "name": "anOwner",
          "type": "address"
        }
      ],
      "name": "initialize",
      "outputs": [],
      "stateMutability": "nonpayable",
      "type": "function"
    },
    {
      "inputs": [
        {
          "internalType": "address",
          "name": "",
          "type": "address"
        },
        {
          "internalType": "address",
          "name": "",
          "type": "address"
        },
        {
          "internalType": "uint256[]",
          "name": "",
          "type": "uint256[]"
        },
        {
          "internalType": "uint256[]",
          "name": "",
          "type": "uint256[]"
        },
        {
          "internalType": "bytes",
          "name": "",
          "type": "bytes"
        }
      ],
      "name": "onERC1155BatchReceived",
      "outputs": [
        {
          "internalType": "bytes4",
          "name": "",
          "type": "bytes4"
        }
      ],
      "stateMutability": "pure",
      "type": "function"
    },
    {
      "inputs": [
        {
          "internalType": "address",
          "name": "",
          "type": "address"
        },
        {
          "internalType": "address",
          "name": "",
          "type": "address"
        },
        {
          "internalType": "uint256",
          "name": "",
          "type": "uint256"
        },
        {
          "internalType": "uint256",
          "name": "",
          "type": "uint256"
        },
        {
          "internalType": "bytes",
          "name": "",
          "type": "bytes"
        }
      ],
      "name": "onERC1155Received",
      "outputs": [
        {
          "internalType": "bytes4",
          "name": "",
          "type": "bytes4"
        }
      ],
      "stateMutability": "pure",
      "type": "function"
    },
    {
      "inputs": [
        {
          "internalType": "address",
          "name": "",
          "type": "address"
        },
        {
          "internalType": "address",
          "name": "",
          "type": "address"
        },
        {
          "internalType": "uint256",
          "name": "",
          "type": "uint256"
        },
        {
          "internalType": "bytes",
          "name": "",
          "type": "bytes"
        }
      ],
      "name": "onERC721Received",
      "outputs": [
        {
          "internalType": "bytes4",
          "name": "",
          "type": "bytes4"
        }
      ],
      "stateMutability": "pure",
      "type": "function"
    },
    {
      "inputs": [],
      "name": "owner",
      "outputs": [
        {
          "internalType": "address",
          "name": "",
          "type": "address"
        }
      ],
      "stateMutability": "view",
      "type": "function"
    },
    {
      "inputs": [],
      "name": "proxiableUUID",
      "outputs": [
        {
          "internalType": "bytes32",
          "name": "",
          "type": "bytes32"
        }
      ],
      "stateMutability": "view",
      "type": "function"
    },
    {
      "inputs": [
        {
          "internalType": "bytes4",
          "name": "interfaceId",
          "type": "bytes4"
        }
      ],
      "name": "supportsInterface",
      "outputs": [
        {
          "internalType": "bool",
          "name": "",
          "type": "bool"
        }
      ],
      "stateMutability": "view",
      "type": "function"
    },
    {
      "inputs": [
        {
          "internalType": "address",
          "name": "",
          "type": "address"
        },
        {
          "internalType": "address",
          "name": "",
          "type": "address"
        },
        {
          "internalType": "address",
          "name": "",
          "type": "address"
        },
        {
          "internalType": "uint256",
          "name": "",
          "type": "uint256"
        },
        {
          "internalType": "bytes",
          "name": "",
          "type": "bytes"
        },
        {
          "internalType": "bytes",
          "name": "",
          "type": "bytes"
        }
      ],
      "name": "tokensReceived",
      "outputs": [],
      "stateMutability": "pure",
      "type": "function"
    },
    {
      "inputs": [
        {
          "internalType": "address",
          "name": "newImplementation",
          "type": "address"
        },
        {
          "internalType": "bytes",
          "name": "data",
          "type": "bytes"
        }
      ],
      "name": "upgradeToAndCall",
      "outputs": [],
      "stateMutability": "payable",
      "type": "function"
    },
    {
      "inputs": [
        {
          "components": [
            {
              "internalType": "address",
              "name": "sender",
              "type": "address"
            },
            {
              "internalType": "uint256",
              "name": "nonce",
              "type": "uint256"
            },
            {
              "internalType": "bytes",
              "name": "initCode",
              "type": "bytes"
            },
            {
              "internalType": "bytes",
              "name": "callData",
              "type": "bytes"
            },
            {
              "internalType": "uint256",
              "name": "callGasLimit",
              "type": "uint256"
            },
            {
              "internalType": "uint256",
              "name": "verificationGasLimit",
              "type": "uint256"
            },
            {
              "internalType": "uint256",
              "name": "preVerificationGas",
              "type": "uint256"
            },
            {
              "internalType": "uint256",
              "name": "maxFeePerGas",
              "type": "uint256"
            },
            {
              "internalType": "uint256",
              "name": "maxPriorityFeePerGas",
              "type": "uint256"
            },
            {
              "internalType": "bytes",
              "name": "paymasterAndData",
              "type": "bytes"
            },
            {
              "internalType": "bytes",
              "name": "signature",
              "type": "bytes"
            }
          ],
          "internalType": "struct UserOperation",
          "name": "userOp",
          "type": "tuple"
        },
        {
          "internalType": "bytes32",
          "name": "userOpHash",
          "type": "bytes32"
        },
        {
          "internalType": "uint256",
          "name": "missingAccountFunds",
          "type": "uint256"
        }
      ],
      "name": "validateUserOp",
      "outputs": [
        {
          "internalType": "uint256",
          "name": "validationData",
          "type": "uint256"
        }
      ],
      "stateMutability": "nonpayable",
      "type": "function"
    },
    {
      "inputs": [
        {
          "internalType": "address payable",
          "name": "withdrawAddress",
          "type": "address"
        },
        {
          "internalType": "uint256",
          "name": "amount",
          "type": "uint256"
        }
      ],
      "name": "withdrawDepositTo",
      "outputs": [],
      "stateMutability": "nonpayable",
      "type": "function"
    },
    {
      "stateMutability": "payable",
      "type": "receive"
    }
  ],
  "bytecode": "0x60c06040523073ffffffffffffffffffffffffffffffffffffffff1660809073ffffffffffffffffffffffffffffffffffffffff168152503480156200004457600080fd5b5060405162002f4938038062002f4983398181016040528101906200006a919062000265565b8073ffffffffffffffffffffffffffffffffffffffff1660a08173ffffffffffffffffffffffffffffffffffffffff1681525050620000ae620000b560201b60201c565b50620002d9565b6000620000c7620001bf60201b60201c565b90508060000160089054906101000a900460ff161562000113576040517ff92ee8a900000000000000000000000000000000000000000000000000000000815260040160405180910390fd5b67ffffffffffffffff80168160000160009054906101000a900467ffffffffffffffff1667ffffffffffffffff1614620001bc5767ffffffffffffffff8160000160006101000a81548167ffffffffffffffff021916908367ffffffffffffffff1602179055507fc7f505b2f371ae2175ee4913f4499e1f2633a7b5936321eed1cdaeb6115181d267ffffffffffffffff604051620001b39190620002bc565b60405180910390a15b50565b60007ff0c57e16840df040f15088dc2f81fe391c3923bec73e23a9662efc9c229c6a00905090565b600080fd5b600073ffffffffffffffffffffffffffffffffffffffff82169050919050565b60006200021982620001ec565b9050919050565b60006200022d826200020c565b9050919050565b6200023f8162000220565b81146200024b57600080fd5b50565b6000815190506200025f8162000234565b92915050565b6000602082840312156200027e576200027d620001e7565b5b60006200028e848285016200024e565b91505092915050565b600067ffffffffffffffff82169050919050565b620002b68162000297565b82525050565b6000602082019050620002d36000830184620002ab565b92915050565b60805160a051612c35620003146000396000818161098a015261141c0152600081816110e60152818161113b01526112f60152612c356000f3fe60806040526004361061010c5760003560e01c80638da5cb5b11610095578063bc197c8111610064578063bc197c8114610345578063c399ec8814610382578063c4d66de8146103ad578063d087d288146103d6578063f23a6e611461040157610113565b80638da5cb5b1461029b578063ad3cb1cc146102c6578063b0d691fe146102f1578063b61d27f61461031c57610113565b806347e1da2a116100dc57806347e1da2a146101f85780634a58db19146102215780634d44560d1461022b5780634f1ef2861461025457806352d1902d1461027057610113565b806223de291461011857806301ffc9a714610141578063150b7a021461017e5780633a871cdd146101bb57610113565b3661011357005b600080fd5b34801561012457600080fd5b5061013f600480360381019061013a9190611bd9565b61043e565b005b34801561014d57600080fd5b5061016860048036038101906101639190611d00565b610448565b6040516101759190611d48565b60405180910390f35b34801561018a57600080fd5b506101a560048036038101906101a09190611d63565b610582565b6040516101b29190611dfa565b60405180910390f35b3480156101c757600080fd5b506101e260048036038101906101dd9190611e70565b610597565b6040516101ef9190611eee565b60405180910390f35b34801561020457600080fd5b5061021f600480360381019061021a919061200b565b6105ca565b005b6102296107e2565b005b34801561023757600080fd5b50610252600480360381019061024d91906120fd565b610857565b005b61026e6004803603810190610269919061227e565b6108d7565b005b34801561027c57600080fd5b506102856108f6565b60405161029291906122e9565b60405180910390f35b3480156102a757600080fd5b506102b0610929565b6040516102bd9190612313565b60405180910390f35b3480156102d257600080fd5b506102db61094d565b6040516102e891906123ad565b60405180910390f35b3480156102fd57600080fd5b50610306610986565b604051610313919061242e565b60405180910390f35b34801561032857600080fd5b50610343600480360381019061033e9190612449565b6109ae565b005b34801561035157600080fd5b5061036c600480360381019061036791906124bd565b610a0b565b6040516103799190611dfa565b60405180910390f35b34801561038e57600080fd5b50610397610a23565b6040516103a49190611eee565b60405180910390f35b3480156103b957600080fd5b506103d460048036038101906103cf9190612599565b610aab565b005b3480156103e257600080fd5b506103eb610c3a565b6040516103f89190611eee565b60405180910390f35b34801561040d57600080fd5b50610428600480360381019061042391906125c6565b610cc5565b6040516104359190611dfa565b60405180910390f35b5050505050505050565b60007f150b7a02000000000000000000000000000000000000000000000000000000007bffffffffffffffffffffffffffffffffffffffffffffffffffffffff1916827bffffffffffffffffffffffffffffffffffffffffffffffffffffffff1916148061051357507f4e2312e0000000000000000000000000000000000000000000000000000000007bffffffffffffffffffffffffffffffffffffffffffffffffffffffff1916827bffffffffffffffffffffffffffffffffffffffffffffffffffffffff1916145b8061057b57507f01ffc9a7000000000000000000000000000000000000000000000000000000007bffffffffffffffffffffffffffffffffffffffffffffffffffffffff1916827bffffffffffffffffffffffffffffffffffffffffffffffffffffffff1916145b9050919050565b600063150b7a0260e01b905095945050505050565b60006105a1610cdb565b6105ab8484610d52565b90506105ba8460200135610e2e565b6105c382610e31565b9392505050565b6105d2610ecd565b81819050868690501480156105fa575060008484905014806105f957508181905084849050145b5b610639576040517f08c379a0000000000000000000000000000000000000000000000000000000008152600401610630906126ac565b60405180910390fd5b600084849050036107055760005b868690508110156106ff576106ec878783818110610668576106676126cc565b5b905060200201602081019061067d9190612599565b6000858585818110610692576106916126cc565b5b90506020028101906106a4919061270a565b8080601f016020809104026020016040519081016040528093929190818152602001838380828437600081840152601f19601f82011690508083019250505050505050610f9a565b80806106f79061279c565b915050610647565b506107da565b60005b868690508110156107d8576107c5878783818110610729576107286126cc565b5b905060200201602081019061073e9190612599565b868684818110610751576107506126cc565b5b9050602002013585858581811061076b5761076a6126cc565b5b905060200281019061077d919061270a565b8080601f016020809104026020016040519081016040528093929190818152602001838380828437600081840152601f19601f82011690508083019250505050505050610f9a565b80806107d09061279c565b915050610708565b505b505050505050565b6107ea610986565b73ffffffffffffffffffffffffffffffffffffffff1663b760faf934306040518363ffffffff1660e01b81526004016108239190612313565b6000604051808303818588803b15801561083c57600080fd5b505af1158015610850573d6000803e3d6000fd5b5050505050565b61085f61101e565b610867610986565b73ffffffffffffffffffffffffffffffffffffffff1663205c287883836040518363ffffffff1660e01b81526004016108a19291906127f3565b600060405180830381600087803b1580156108bb57600080fd5b505af11580156108cf573d6000803e3d6000fd5b505050505050565b6108df6110e4565b6108e8826111ca565b6108f282826111d5565b5050565b60006109006112f4565b7f360894a13ba1a3210667c828492db98dca3e2076cc3735a920a3ca505d382bbc60001b905090565b60008054906101000a900473ffffffffffffffffffffffffffffffffffffffff1681565b6040518060400160405280600581526020017f352e302e3000000000000000000000000000000000000000000000000000000081525081565b60007f0000000000000000000000000000000000000000000000000000000000000000905090565b6109b6610ecd565b610a05848484848080601f016020809104026020016040519081016040528093929190818152602001838380828437600081840152601f19601f82011690508083019250505050505050610f9a565b50505050565b600063bc197c8160e01b905098975050505050505050565b6000610a2d610986565b73ffffffffffffffffffffffffffffffffffffffff166370a08231306040518263ffffffff1660e01b8152600401610a659190612313565b602060405180830381865afa158015610a82573d6000803e3d6000fd5b505050506040513d601f19601f82011682018060405250810190610aa69190612831565b905090565b6000610ab561137b565b905060008160000160089054906101000a900460ff1615905060008260000160009054906101000a900467ffffffffffffffff1690506000808267ffffffffffffffff16148015610b035750825b9050600060018367ffffffffffffffff16148015610b38575060003073ffffffffffffffffffffffffffffffffffffffff163b145b905081158015610b46575080155b15610b7d576040517ff92ee8a900000000000000000000000000000000000000000000000000000000815260040160405180910390fd5b60018560000160006101000a81548167ffffffffffffffff021916908367ffffffffffffffff1602179055508315610bcd5760018560000160086101000a81548160ff0219169083151502179055505b610bd6866113a3565b8315610c325760008560000160086101000a81548160ff0219169083151502179055507fc7f505b2f371ae2175ee4913f4499e1f2633a7b5936321eed1cdaeb6115181d26001604051610c2991906128ad565b60405180910390a15b505050505050565b6000610c44610986565b73ffffffffffffffffffffffffffffffffffffffff166335567e1a3060006040518363ffffffff1660e01b8152600401610c7f929190612927565b602060405180830381865afa158015610c9c573d6000803e3d6000fd5b505050506040513d601f19601f82011682018060405250810190610cc09190612831565b905090565b600063f23a6e6160e01b90509695505050505050565b610ce3610986565b73ffffffffffffffffffffffffffffffffffffffff163373ffffffffffffffffffffffffffffffffffffffff1614610d50576040517f08c379a0000000000000000000000000000000000000000000000000000000008152600401610d479061299c565b60405180910390fd5b565b600080610d5e83611480565b9050610dc684806101400190610d74919061270a565b8080601f016020809104026020016040519081016040528093929190818152602001838380828437600081840152601f19601f82011690508083019250505050505050826114b690919063ffffffff16565b73ffffffffffffffffffffffffffffffffffffffff1660008054906101000a900473ffffffffffffffffffffffffffffffffffffffff1673ffffffffffffffffffffffffffffffffffffffff1614610e22576001915050610e28565b60009150505b92915050565b50565b60008114610eca5760003373ffffffffffffffffffffffffffffffffffffffff16827fffffffffffffffffffffffffffffffffffffffffffffffffffffffffffffffff90604051610e81906129ed565b600060405180830381858888f193505050503d8060008114610ebf576040519150601f19603f3d011682016040523d82523d6000602084013e610ec4565b606091505b50509050505b50565b610ed5610986565b73ffffffffffffffffffffffffffffffffffffffff163373ffffffffffffffffffffffffffffffffffffffff161480610f59575060008054906101000a900473ffffffffffffffffffffffffffffffffffffffff1673ffffffffffffffffffffffffffffffffffffffff163373ffffffffffffffffffffffffffffffffffffffff16145b610f98576040517f08c379a0000000000000000000000000000000000000000000000000000000008152600401610f8f90612a4e565b60405180910390fd5b565b6000808473ffffffffffffffffffffffffffffffffffffffff168484604051610fc39190612aaa565b60006040518083038185875af1925050503d8060008114611000576040519150601f19603f3d011682016040523d82523d6000602084013e611005565b606091505b50915091508161101757805160208201fd5b5050505050565b60008054906101000a900473ffffffffffffffffffffffffffffffffffffffff1673ffffffffffffffffffffffffffffffffffffffff163373ffffffffffffffffffffffffffffffffffffffff1614806110a357503073ffffffffffffffffffffffffffffffffffffffff163373ffffffffffffffffffffffffffffffffffffffff16145b6110e2576040517f08c379a00000000000000000000000000000000000000000000000000000000081526004016110d990612b0d565b60405180910390fd5b565b7f000000000000000000000000000000000000000000000000000000000000000073ffffffffffffffffffffffffffffffffffffffff163073ffffffffffffffffffffffffffffffffffffffff16148061119157507f000000000000000000000000000000000000000000000000000000000000000073ffffffffffffffffffffffffffffffffffffffff166111786114e2565b73ffffffffffffffffffffffffffffffffffffffff1614155b156111c8576040517fe07c8dba00000000000000000000000000000000000000000000000000000000815260040160405180910390fd5b565b6111d261101e565b50565b8173ffffffffffffffffffffffffffffffffffffffff166352d1902d6040518163ffffffff1660e01b8152600401602060405180830381865afa92505050801561123d57506040513d601f19601f8201168201806040525081019061123a9190612b42565b60015b61127e57816040517f4c9c8ce30000000000000000000000000000000000000000000000000000000081526004016112759190612313565b60405180910390fd5b7f360894a13ba1a3210667c828492db98dca3e2076cc3735a920a3ca505d382bbc60001b81146112e557806040517faa1d49a40000000000000000000000000000000000000000000000000000000081526004016112dc91906122e9565b60405180910390fd5b6112ef8383611539565b505050565b7f000000000000000000000000000000000000000000000000000000000000000073ffffffffffffffffffffffffffffffffffffffff163073ffffffffffffffffffffffffffffffffffffffff1614611379576040517fe07c8dba00000000000000000000000000000000000000000000000000000000815260040160405180910390fd5b565b60007ff0c57e16840df040f15088dc2f81fe391c3923bec73e23a9662efc9c229c6a00905090565b806000806101000a81548173ffffffffffffffffffffffffffffffffffffffff021916908373ffffffffffffffffffffffffffffffffffffffff16021790555060008054906101000a900473ffffffffffffffffffffffffffffffffffffffff1673ffffffffffffffffffffffffffffffffffffffff167f000000000000000000000000000000000000000000000000000000000000000073ffffffffffffffffffffffffffffffffffffffff167f47e55c76e7a6f1fd8996a1da8008c1ea29699cca35e7bcd057f2dec313b6e5de60405160405180910390a350565b60007f19457468657265756d205369676e6564204d6573736167653a0a33320000000060005281601c52603c6000209050919050565b6000806000806114c686866115ac565b9250925092506114d68282611608565b82935050505092915050565b60006115107f360894a13ba1a3210667c828492db98dca3e2076cc3735a920a3ca505d382bbc60001b61176c565b60000160009054906101000a900473ffffffffffffffffffffffffffffffffffffffff16905090565b61154282611776565b8173ffffffffffffffffffffffffffffffffffffffff167fbc7cd75a20ee27fd9adebab32041f755214dbc6bffa90cc0225b39da2e5c2d3b60405160405180910390a260008151111561159f576115998282611843565b506115a8565b6115a76118c7565b5b5050565b600080600060418451036115f15760008060006020870151925060408701519150606087015160001a90506115e388828585611904565b955095509550505050611601565b60006002855160001b9250925092505b9250925092565b6000600381111561161c5761161b612b6f565b5b82600381111561162f5761162e612b6f565b5b0315611768576001600381111561164957611648612b6f565b5b82600381111561165c5761165b612b6f565b5b03611693576040517ff645eedf00000000000000000000000000000000000000000000000000000000815260040160405180910390fd5b600260038111156116a7576116a6612b6f565b5b8260038111156116ba576116b9612b6f565b5b036116ff578060001c6040517ffce698f70000000000000000000000000000000000000000000000000000000081526004016116f69190611eee565b60405180910390fd5b60038081111561171257611711612b6f565b5b82600381111561172557611724612b6f565b5b0361176757806040517fd78bce0c00000000000000000000000000000000000000000000000000000000815260040161175e91906122e9565b60405180910390fd5b5b5050565b6000819050919050565b60008173ffffffffffffffffffffffffffffffffffffffff163b036117d257806040517f4c9c8ce30000000000000000000000000000000000000000000000000000000081526004016117c99190612313565b60405180910390fd5b806117ff7f360894a13ba1a3210667c828492db98dca3e2076cc3735a920a3ca505d382bbc60001b61176c565b60000160006101000a81548173ffffffffffffffffffffffffffffffffffffffff021916908373ffffffffffffffffffffffffffffffffffffffff16021790555050565b60606000808473ffffffffffffffffffffffffffffffffffffffff168460405161186d9190612aaa565b600060405180830381855af49150503d80600081146118a8576040519150601f19603f3d011682016040523d82523d6000602084013e6118ad565b606091505b50915091506118bd8583836119f8565b9250505092915050565b6000341115611902576040517fb398979f00000000000000000000000000000000000000000000000000000000815260040160405180910390fd5b565b60008060007f7fffffffffffffffffffffffffffffff5d576e7357a4501ddfe92f46681b20a08460001c11156119445760006003859250925092506119ee565b6000600188888888604051600081526020016040526040516119699493929190612bba565b6020604051602081039080840390855afa15801561198b573d6000803e3d6000fd5b505050602060405103519050600073ffffffffffffffffffffffffffffffffffffffff168173ffffffffffffffffffffffffffffffffffffffff16036119df57600060016000801b935093509350506119ee565b8060008060001b935093509350505b9450945094915050565b606082611a0d57611a0882611a87565b611a7f565b60008251148015611a35575060008473ffffffffffffffffffffffffffffffffffffffff163b145b15611a7757836040517f9996b315000000000000000000000000000000000000000000000000000000008152600401611a6e9190612313565b60405180910390fd5b819050611a80565b5b9392505050565b600081511115611a9a5780518082602001fd5b6040517f1425ea4200000000000000000000000000000000000000000000000000000000815260040160405180910390fd5b6000604051905090565b600080fd5b600080fd5b600073ffffffffffffffffffffffffffffffffffffffff82169050919050565b6000611b0b82611ae0565b9050919050565b611b1b81611b00565b8114611b2657600080fd5b50565b600081359050611b3881611b12565b92915050565b6000819050919050565b611b5181611b3e565b8114611b5c57600080fd5b50565b600081359050611b6e81611b48565b92915050565b600080fd5b600080fd5b600080fd5b60008083601f840112611b9957611b98611b74565b5b8235905067ffffffffffffffff811115611bb657611bb5611b79565b5b602083019150836001820283011115611bd257611bd1611b7e565b5b9250929050565b60008060008060008060008060c0898b031215611bf957611bf8611ad6565b5b6000611c078b828c01611b29565b9850506020611c188b828c01611b29565b9750506040611c298b828c01611b29565b9650506060611c3a8b828c01611b5f565b955050608089013567ffffffffffffffff811115611c5b57611c5a611adb565b5b611c678b828c01611b83565b945094505060a089013567ffffffffffffffff811115611c8a57611c89611adb565b5b611c968b828c01611b83565b92509250509295985092959890939650565b60007fffffffff0000000000000000000000000000000000000000000000000000000082169050919050565b611cdd81611ca8565b8114611ce857600080fd5b50565b600081359050611cfa81611cd4565b92915050565b600060208284031215611d1657611d15611ad6565b5b6000611d2484828501611ceb565b91505092915050565b60008115159050919050565b611d4281611d2d565b82525050565b6000602082019050611d5d6000830184611d39565b92915050565b600080600080600060808688031215611d7f57611d7e611ad6565b5b6000611d8d88828901611b29565b9550506020611d9e88828901611b29565b9450506040611daf88828901611b5f565b935050606086013567ffffffffffffffff811115611dd057611dcf611adb565b5b611ddc88828901611b83565b92509250509295509295909350565b611df481611ca8565b82525050565b6000602082019050611e0f6000830184611deb565b92915050565b600080fd5b60006101608284031215611e3157611e30611e15565b5b81905092915050565b6000819050919050565b611e4d81611e3a565b8114611e5857600080fd5b50565b600081359050611e6a81611e44565b92915050565b600080600060608486031215611e8957611e88611ad6565b5b600084013567ffffffffffffffff811115611ea757611ea6611adb565b5b611eb386828701611e1a565b9350506020611ec486828701611e5b565b9250506040611ed586828701611b5f565b9150509250925092565b611ee881611b3e565b82525050565b6000602082019050611f036000830184611edf565b92915050565b60008083601f840112611f1f57611f1e611b74565b5b8235905067ffffffffffffffff811115611f3c57611f3b611b79565b5b602083019150836020820283011115611f5857611f57611b7e565b5b9250929050565b60008083601f840112611f7557611f74611b74565b5b8235905067ffffffffffffffff811115611f9257611f91611b79565b5b602083019150836020820283011115611fae57611fad611b7e565b5b9250929050565b60008083601f840112611fcb57611fca611b74565b5b8235905067ffffffffffffffff811115611fe857611fe7611b79565b5b60208301915083602082028301111561200457612003611b7e565b5b9250929050565b6000806000806000806060878903121561202857612027611ad6565b5b600087013567ffffffffffffffff81111561204657612045611adb565b5b61205289828a01611f09565b9650965050602087013567ffffffffffffffff81111561207557612074611adb565b5b61208189828a01611f5f565b9450945050604087013567ffffffffffffffff8111156120a4576120a3611adb565b5b6120b089828a01611fb5565b92509250509295509295509295565b60006120ca82611ae0565b9050919050565b6120da816120bf565b81146120e557600080fd5b50565b6000813590506120f7816120d1565b92915050565b6000806040838503121561211457612113611ad6565b5b6000612122858286016120e8565b925050602061213385828601611b5f565b9150509250929050565b600080fd5b6000601f19601f8301169050919050565b7f4e487b7100000000000000000000000000000000000000000000000000000000600052604160045260246000fd5b61218b82612142565b810181811067ffffffffffffffff821117156121aa576121a9612153565b5b80604052505050565b60006121bd611acc565b90506121c98282612182565b919050565b600067ffffffffffffffff8211156121e9576121e8612153565b5b6121f282612142565b9050602081019050919050565b82818337600083830152505050565b600061222161221c846121ce565b6121b3565b90508281526020810184848401111561223d5761223c61213d565b5b6122488482856121ff565b509392505050565b600082601f83011261226557612264611b74565b5b813561227584826020860161220e565b91505092915050565b6000806040838503121561229557612294611ad6565b5b60006122a385828601611b29565b925050602083013567ffffffffffffffff8111156122c4576122c3611adb565b5b6122d085828601612250565b9150509250929050565b6122e381611e3a565b82525050565b60006020820190506122fe60008301846122da565b92915050565b61230d81611b00565b82525050565b60006020820190506123286000830184612304565b92915050565b600081519050919050565b600082825260208201905092915050565b60005b8381101561236857808201518184015260208101905061234d565b60008484015250505050565b600061237f8261232e565b6123898185612339565b935061239981856020860161234a565b6123a281612142565b840191505092915050565b600060208201905081810360008301526123c78184612374565b905092915050565b6000819050919050565b60006123f46123ef6123ea84611ae0565b6123cf565b611ae0565b9050919050565b6000612406826123d9565b9050919050565b6000612418826123fb565b9050919050565b6124288161240d565b82525050565b6000602082019050612443600083018461241f565b92915050565b6000806000806060858703121561246357612462611ad6565b5b600061247187828801611b29565b945050602061248287828801611b5f565b935050604085013567ffffffffffffffff8111156124a3576124a2611adb565b5b6124af87828801611b83565b925092505092959194509250565b60008060008060008060008060a0898b0312156124dd576124dc611ad6565b5b60006124eb8b828c01611b29565b98505060206124fc8b828c01611b29565b975050604089013567ffffffffffffffff81111561251d5761251c611adb565b5b6125298b828c01611f5f565b9650965050606089013567ffffffffffffffff81111561254c5761254b611adb565b5b6125588b828c01611f5f565b9450945050608089013567ffffffffffffffff81111561257b5761257a611adb565b5b6125878b828c01611b83565b92509250509295985092959890939650565b6000602082840312156125af576125ae611ad6565b5b60006125bd84828501611b29565b91505092915050565b60008060008060008060a087890312156125e3576125e2611ad6565b5b60006125f189828a01611b29565b965050602061260289828a01611b29565b955050604061261389828a01611b5f565b945050606061262489828a01611b5f565b935050608087013567ffffffffffffffff81111561264557612644611adb565b5b61265189828a01611b83565b92509250509295509295509295565b7f77726f6e67206172726179206c656e6774687300000000000000000000000000600082015250565b6000612696601383612339565b91506126a182612660565b602082019050919050565b600060208201905081810360008301526126c581612689565b9050919050565b7f4e487b7100000000000000000000000000000000000000000000000000000000600052603260045260246000fd5b600080fd5b600080fd5b600080fd5b60008083356001602003843603038112612727576127266126fb565b5b80840192508235915067ffffffffffffffff82111561274957612748612700565b5b60208301925060018202360383131561276557612764612705565b5b509250929050565b7f4e487b7100000000000000000000000000000000000000000000000000000000600052601160045260246000fd5b60006127a782611b3e565b91507fffffffffffffffffffffffffffffffffffffffffffffffffffffffffffffffff82036127d9576127d861276d565b5b600182019050919050565b6127ed816120bf565b82525050565b600060408201905061280860008301856127e4565b6128156020830184611edf565b9392505050565b60008151905061282b81611b48565b92915050565b60006020828403121561284757612846611ad6565b5b60006128558482850161281c565b91505092915050565b6000819050919050565b600067ffffffffffffffff82169050919050565b600061289761289261288d8461285e565b6123cf565b612868565b9050919050565b6128a78161287c565b82525050565b60006020820190506128c2600083018461289e565b92915050565b6000819050919050565b600077ffffffffffffffffffffffffffffffffffffffffffffffff82169050919050565b600061291161290c612907846128c8565b6123cf565b6128d2565b9050919050565b612921816128f6565b82525050565b600060408201905061293c6000830185612304565b6129496020830184612918565b9392505050565b7f6163636f756e743a206e6f742066726f6d20456e747279506f696e7400000000600082015250565b6000612986601c83612339565b915061299182612950565b602082019050919050565b600060208201905081810360008301526129b581612979565b9050919050565b600081905092915050565b50565b60006129d76000836129bc565b91506129e2826129c7565b600082019050919050565b60006129f8826129ca565b9150819050919050565b7f6163636f756e743a206e6f74204f776e6572206f7220456e747279506f696e74600082015250565b6000612a38602083612339565b9150612a4382612a02565b602082019050919050565b60006020820190508181036000830152612a6781612a2b565b9050919050565b600081519050919050565b6000612a8482612a6e565b612a8e81856129bc565b9350612a9e81856020860161234a565b80840191505092915050565b6000612ab68284612a79565b915081905092915050565b7f6f6e6c79206f776e657200000000000000000000000000000000000000000000600082015250565b6000612af7600a83612339565b9150612b0282612ac1565b602082019050919050565b60006020820190508181036000830152612b2681612aea565b9050919050565b600081519050612b3c81611e44565b92915050565b600060208284031215612b5857612b57611ad6565b5b6000612b6684828501612b2d565b91505092915050565b7f4e487b7100000000000000000000000000000000000000000000000000000000600052602160045260246000fd5b600060ff82169050919050565b612bb481612b9e565b82525050565b6000608082019050612bcf60008301876122da565b612bdc6020830186612bab565b612be960408301856122da565b612bf660608301846122da565b9594505050505056fea2646970667358221220846f7f2af1935b3a3bd3deb15160e244e3d03dec913f5c8fbaf890ffcb4b04bc64736f6c63430008140033",
  "linkReferences": {},
  "deployedLinkReferences": {}
}